{"contracts/mocks/MockPancakeRouter.sol":{"MockPancakeRouter":{"abi":[{"inputs":[],"stateMutability":"nonpayable","type":"constructor"},{"inputs":[],"name":"WETH","outputs":[{"internalType":"address","name":"","type":"address"}],"stateMutability":"view","type":"function"},{"inputs":[{"internalType":"address","name":"token","type":"address"},{"internalType":"uint256","name":"","type":"uint256"},{"internalType":"uint256","name":"","type":"uint256"},{"internalType":"uint256","name":"","type":"uint256"},{"internalType":"address","name":"to","type":"address"},{"internalType":"uint256","name":"","type":"uint256"}],"name":"addLiquidityETH","outputs":[{"internalType":"uint256","name":"amountToken","type":"uint256"},{"internalType":"uint256","name":"amountETH","type":"uint256"},{"internalType":"uint256","name":"liquidity","type":"uint256"}],"stateMutability":"payable","type":"function"},{"inputs":[],"name":"factory","outputs":[{"internalType":"address","name":"","type":"address"}],"stateMutability":"view","type":"function"},{"inputs":[],"name":"factoryAddr","outputs":[{"internalType":"address","name":"","type":"address"}],"stateMutability":"view","type":"function"},{"inputs":[],"name":"lpToken","outputs":[{"internalType":"contract MockLPToken","name":"","type":"address"}],"stateMutability":"view","type":"function"},{"inputs":[],"name":"wethAddr","outputs":[{"internalType":"address","name":"","type":"address"}],"stateMutability":"view","type":"function"}],"evm":{"bytecode":{"linkReferences":{},"object":"60e080604052346100df576001600160401b03906109a8818101838111838210176100cb5782916104f5833903905ff080156100c05760808190526040516001600160a01b0392909161018491828401908111848210176100cb57848492602094610e9d85391681520301905ff080156100c0571660a05273bb4cdb9cbd36b01bd1cbaebf2de08d9173bc095c60c05260405161041190816100e4823960805181818161012401526102ed015260a05181610375015260c051816103310152f35b6040513d5f823e3d90fd5b634e487b7160e01b5f52604160045260245ffd5b5f80fdfe6080604090808252600480361015610015575f80fd5b5f915f3560e01c9081635fcbd285146102db575080637d5aa5f4146102d6578063963671be146102d1578063ad5c4648146102d6578063c45a0155146102d15763f305d71914610063575f80fd5b60c03660031901126101d7576001600160a01b038135818116949192908590036101d757608435908382168092036101d75782516370a0823160e01b8082523383830152602093602492858185818d5afa908115610264578a87915f936102a1575b5060645f938a5194859384926323b872dd60e01b8452338c850152308b85015260448401525af180156102645761026e575b5085518281523085820152858185818d5afa908115610264575f91610237575b50340196873411610225577f00000000000000000000000000000000000000000000000000000000000000001690813b156101d7575f9160448392895194859384926340c10f1960e01b84528a8401528c898401525af1801561021b576101ed575b509083929185519889938492835230908301525afa9384156101e257936101ae575b6060945081519384523490840152820152f35b80935084813d83116101db575b6101c581836103a4565b810103126101d757606093519261019b565b5f80fd5b503d6101bb565b8251903d90823e3d90fd5b9096506001600160401b0381116102085784525f9583610179565b50634e487b7160e01b5f90815260418352fd5b86513d5f823e3d90fd5b83601186634e487b7160e01b5f52525ffd5b90508581813d831161025d575b61024e81836103a4565b810103126101d757515f610117565b503d610244565b87513d5f823e3d90fd5b8581813d831161029a575b61028381836103a4565b810103126101d75751801515036101d7575f6100f7565b503d610279565b92505081813d83116102ca575b6102b881836103a4565b810103126101d75751858a60646100c5565b503d6102ae565b610360565b61031c565b346101d7575f3660031901126101d7577f00000000000000000000000000000000000000000000000000000000000000006001600160a01b03168152602090f35b346101d7575f3660031901126101d7576040517f00000000000000000000000000000000000000000000000000000000000000006001600160a01b03168152602090f35b346101d7575f3660031901126101d7576040517f00000000000000000000000000000000000000000000000000000000000000006001600160a01b03168152602090f35b601f909101601f19168101906001600160401b038211908210176103c757604052565b634e487b7160e01b5f52604160045260245ffdfea264697066735822122037d7665810d424e030a093d37c37d52605e21990d04bab66125f8279d4c2cb2c64736f6c634300081900336080346102d0576040906001600160401b0390808301828111828210176101e7578352600b81526020916a049726f6e4c6f636b204c560ac1b838301528351848101818110838211176101e7578552600390818152620494c560ec1b858201528351908382116101e7578254916001958684811c941680156102c6575b888510146102b2578190601f94858111610264575b508890858311600114610206575f926101fb575b50505f1982861b1c191690861b1783555b80519384116101e75760049586548681811c911680156101dd575b828210146101ca57838111610187575b508092851160011461012257509383949184925f95610117575b50501b925f19911b1c19161790555b516106d390816102d58239f35b015193505f806100fb565b92919084601f198116885f52855f20955f905b8983831061016d5750505010610154575b50505050811b01905561010a565b01519060f8845f19921b161c191690555f808080610146565b858701518955909701969485019488935090810190610135565b875f52815f208480880160051c8201928489106101c1575b0160051c019087905b8281106101b65750506100e1565b5f81550187906101a8565b9250819261019f565b602288634e487b7160e01b5f525260245ffd5b90607f16906100d1565b634e487b7160e01b5f52604160045260245ffd5b015190505f806100a5565b90889350601f19831691875f528a5f20925f5b8c82821061024e5750508411610237575b505050811b0183556100b6565b01515f1983881b60f8161c191690555f808061022a565b8385015186558c97909501949384019301610219565b909150855f52885f208580850160051c8201928b86106102a9575b918a91869594930160051c01915b82811061029b575050610091565b5f81558594508a910161028d565b9250819261027f565b634e487b7160e01b5f52602260045260245ffd5b93607f169361007c565b5f80fdfe6080604090808252600480361015610015575f80fd5b5f3560e01c91826306fdde031461049d57508163095ea7b3146103f557816318160ddd146103d757816323b872dd146102ef578163313ce567146102d457816340c10f191461024257816370a082311461020c57816395d89b411461010a57508063a9059cbb146100da5763dd62ed3e1461008e575f80fd5b346100d657806003193601126100d6576020906100a9610581565b6100b1610597565b9060018060a01b038091165f5260018452825f2091165f528252805f20549051908152f35b5f80fd5b50346100d657806003193601126100d6576020906101036100f9610581565b60243590336105cb565b5160018152f35b82346100d6575f3660031901126100d6578051905f835460018160011c9060018316928315610202575b60209384841081146101ef578388529081156101d3575060011461019b575b505050829003601f01601f19168201926001600160401b038411838510176101885750829182610184925282610557565b0390f35b604190634e487b7160e01b5f525260245ffd5b919250855f52825f2091835f935b8385106101bf5750505050830101848080610153565b8054888601830152930192849082016101a9565b60ff1916878501525050151560051b8401019050848080610153565b602289634e487b7160e01b5f525260245ffd5b91607f1691610134565b82346100d65760203660031901126100d6576020906001600160a01b03610231610581565b165f525f8252805f20549051908152f35b82346100d657806003193601126100d65761025b610581565b6001600160a01b031691602435919083156102bf57600254908382018092116102ac57505f925f8051602061067e8339815191529260209260025585855284835280852082815401905551908152a3005b601190634e487b7160e01b5f525260245ffd5b5f602492519163ec442f0560e01b8352820152fd5b82346100d6575f3660031901126100d6576020905160128152f35b9050346100d65760603660031901126100d65761030a610581565b610312610597565b906044359260018060a01b038216805f526001602052855f20335f52602052855f2054915f19831061034d575b6020876101038888886105cb565b8583106103b557811561039f57331561038957505f9081526001602090815286822033835281529086902091859003909155829061010361033f565b6024905f885191634a1406b160e11b8352820152fd5b6024905f88519163e602df0560e01b8352820152fd5b90506103d3858751938493637dc7a0d960e11b8552339085016105ad565b0390fd5b82346100d6575f3660031901126100d6576020906002549051908152f35b82346100d657806003193601126100d65761040e610581565b602435903315610487576001600160a01b03169081156104715760209350335f5260018452825f20825f52845280835f205582519081527f8c5be1e5ebec7d5bd14f71427d1e84f3dd0314c0f7b2291e5b200ac8c7c3b925843392a35160018152f35b8251634a1406b160e11b81525f81860152602490fd5b825163e602df0560e01b81525f81860152602490fd5b83346100d6575f3660031901126100d6575f60035460018160011c906001831692831561054d575b60209384841081146101ef578388529081156101d3575060011461051457505050829003601f01601f19168201926001600160401b038411838510176101885750829182610184925282610557565b91925060035f52825f2091835f935b8385106105395750505050830101848080610153565b805488860183015293019284908201610523565b91607f16916104c5565b602060409281835280519182918282860152018484015e5f828201840152601f01601f1916010190565b600435906001600160a01b03821682036100d657565b602435906001600160a01b03821682036100d657565b604091949392606082019560018060a01b0316825260208201520152565b916001600160a01b03808416928315610665571692831561064d57825f525f60205260405f2054908282106106305750815f8051602061067e83398151915292602092855f525f84520360405f2055845f5260405f20818154019055604051908152a3565b6103d38360405193849363391434e360e21b8552600485016105ad565b60405163ec442f0560e01b81525f6004820152602490fd5b604051634b637e8f60e11b81525f6004820152602490fdfeddf252ad1be2c89b69c2b068fc378daa952ba7f163c4a11628f55a4df523b3efa26469706673582212202096f57af2772732cf1b72725f617eb613f5b813ce8ae66996be19e6b0e221cf64736f6c6343000819003360a034606b57601f61018438819003918201601f19168301916001600160401b03831184841017606f57808492602094604052833981010312606b57516001600160a01b0381168103606b576080526040516101009081610084823960805181818160630152609b0152f35b5f80fd5b634e487b7160e01b5f52604160045260245ffdfe60808060405260043610156011575f80fd5b5f3560e01c9081639b4dc8cc14608b575063e6a4390514602f575f80fd5b3460875760403660031901126087576001600160a01b036004358181160360875760243581811603608757602090604051907f0000000000000000000000000000000000000000000000000000000000000000168152f35b5f80fd5b346087575f3660031901126087577f00000000000000000000000000000000000000000000000000000000000000006001600160a01b03168152602090f3fea26469706673582212207bcf7a40cfd3e168168088ca041e2a96b3580d923b09cbf3956da17d4070070664736f6c63430008190033","opcodes":"PUSH1 0xE0 DUP1 PUSH1 0x40 MSTORE CALLVALUE PUSH2 0xDF JUMPI PUSH1 0x1 PUSH1 0x1 PUSH1 0x40 SHL SUB SWAP1 PUSH2 0x9A8 DUP2 DUP2 ADD DUP4 DUP2 GT DUP4 DUP3 LT OR PUSH2 0xCB JUMPI DUP3 SWAP2 PUSH2 0x4F5 DUP4 CODECOPY SUB SWAP1 PUSH0 CREATE DUP1 ISZERO PUSH2 0xC0 JUMPI PUSH1 0x80 DUP2 SWAP1 MSTORE PUSH1 0x40 MLOAD PUSH1 0x1 PUSH1 0x1 PUSH1 0xA0 SHL SUB SWAP3 SWAP1 SWAP2 PUSH2 0x184 SWAP2 DUP3 DUP5 ADD SWAP1 DUP2 GT DUP5 DUP3 LT OR PUSH2 0xCB JUMPI DUP5 DUP5 SWAP3 PUSH1 0x20 SWAP5 PUSH2 0xE9D DUP6 CODECOPY AND DUP2 MSTORE SUB ADD SWAP1 PUSH0 CREATE DUP1 ISZERO PUSH2 0xC0 JUMPI AND PUSH1 0xA0 MSTORE PUSH20 0xBB4CDB9CBD36B01BD1CBAEBF2DE08D9173BC095C PUSH1 0xC0 MSTORE PUSH1 0x40 MLOAD PUSH2 0x411 SWAP1 DUP2 PUSH2 0xE4 DUP3 CODECOPY PUSH1 0x80 MLOAD DUP2 DUP2 DUP2 PUSH2 0x124 ADD MSTORE PUSH2 0x2ED ADD MSTORE PUSH1 0xA0 MLOAD DUP2 PUSH2 0x375 ADD MSTORE PUSH1 0xC0 MLOAD DUP2 PUSH2 0x331 ADD MSTORE RETURN JUMPDEST PUSH1 0x40 MLOAD RETURNDATASIZE PUSH0 DUP3 RETURNDATACOPY RETURNDATASIZE SWAP1 REVERT JUMPDEST PUSH4 0x4E487B71 PUSH1 0xE0 SHL PUSH0 MSTORE PUSH1 0x41 PUSH1 0x4 MSTORE PUSH1 0x24 PUSH0 REVERT JUMPDEST PUSH0 DUP1 REVERT INVALID PUSH1 0x80 PUSH1 0x40 SWAP1 DUP1 DUP3 MSTORE PUSH1 0x4 DUP1 CALLDATASIZE LT ISZERO PUSH2 0x15 JUMPI PUSH0 DUP1 REVERT JUMPDEST PUSH0 SWAP2 PUSH0 CALLDATALOAD PUSH1 0xE0 SHR SWAP1 DUP2 PUSH4 0x5FCBD285 EQ PUSH2 0x2DB JUMPI POP DUP1 PUSH4 0x7D5AA5F4 EQ PUSH2 0x2D6 JUMPI DUP1 PUSH4 0x963671BE EQ PUSH2 0x2D1 JUMPI DUP1 PUSH4 0xAD5C4648 EQ PUSH2 0x2D6 JUMPI DUP1 PUSH4 0xC45A0155 EQ PUSH2 0x2D1 JUMPI PUSH4 0xF305D719 EQ PUSH2 0x63 JUMPI PUSH0 DUP1 REVERT JUMPDEST PUSH1 0xC0 CALLDATASIZE PUSH1 0x3 NOT ADD SLT PUSH2 0x1D7 JUMPI PUSH1 0x1 PUSH1 0x1 PUSH1 0xA0 SHL SUB DUP2 CALLDATALOAD DUP2 DUP2 AND SWAP5 SWAP2 SWAP3 SWAP1 DUP6 SWAP1 SUB PUSH2 0x1D7 JUMPI PUSH1 0x84 CALLDATALOAD SWAP1 DUP4 DUP3 AND DUP1 SWAP3 SUB PUSH2 0x1D7 JUMPI DUP3 MLOAD PUSH4 0x70A08231 PUSH1 0xE0 SHL DUP1 DUP3 MSTORE CALLER DUP4 DUP4 ADD MSTORE PUSH1 0x20 SWAP4 PUSH1 0x24 SWAP3 DUP6 DUP2 DUP6 DUP2 DUP14 GAS STATICCALL SWAP1 DUP2 ISZERO PUSH2 0x264 JUMPI DUP11 DUP8 SWAP2 PUSH0 SWAP4 PUSH2 0x2A1 JUMPI JUMPDEST POP PUSH1 0x64 PUSH0 SWAP4 DUP11 MLOAD SWAP5 DUP6 SWAP4 DUP5 SWAP3 PUSH4 0x23B872DD PUSH1 0xE0 SHL DUP5 MSTORE CALLER DUP13 DUP6 ADD MSTORE ADDRESS DUP12 DUP6 ADD MSTORE PUSH1 0x44 DUP5 ADD MSTORE GAS CALL DUP1 ISZERO PUSH2 0x264 JUMPI PUSH2 0x26E JUMPI JUMPDEST POP DUP6 MLOAD DUP3 DUP2 MSTORE ADDRESS DUP6 DUP3 ADD MSTORE DUP6 DUP2 DUP6 DUP2 DUP14 GAS STATICCALL SWAP1 DUP2 ISZERO PUSH2 0x264 JUMPI PUSH0 SWAP2 PUSH2 0x237 JUMPI JUMPDEST POP CALLVALUE ADD SWAP7 DUP8 CALLVALUE GT PUSH2 0x225 JUMPI PUSH32 0x0 AND SWAP1 DUP2 EXTCODESIZE ISZERO PUSH2 0x1D7 JUMPI PUSH0 SWAP2 PUSH1 0x44 DUP4 SWAP3 DUP10 MLOAD SWAP5 DUP6 SWAP4 DUP5 SWAP3 PUSH4 0x40C10F19 PUSH1 0xE0 SHL DUP5 MSTORE DUP11 DUP5 ADD MSTORE DUP13 DUP10 DUP5 ADD MSTORE GAS CALL DUP1 ISZERO PUSH2 0x21B JUMPI PUSH2 0x1ED JUMPI JUMPDEST POP SWAP1 DUP4 SWAP3 SWAP2 DUP6 MLOAD SWAP9 DUP10 SWAP4 DUP5 SWAP3 DUP4 MSTORE ADDRESS SWAP1 DUP4 ADD MSTORE GAS STATICCALL SWAP4 DUP5 ISZERO PUSH2 0x1E2 JUMPI SWAP4 PUSH2 0x1AE JUMPI JUMPDEST PUSH1 0x60 SWAP5 POP DUP2 MLOAD SWAP4 DUP5 MSTORE CALLVALUE SWAP1 DUP5 ADD MSTORE DUP3 ADD MSTORE RETURN JUMPDEST DUP1 SWAP4 POP DUP5 DUP2 RETURNDATASIZE DUP4 GT PUSH2 0x1DB JUMPI JUMPDEST PUSH2 0x1C5 DUP2 DUP4 PUSH2 0x3A4 JUMP JUMPDEST DUP2 ADD SUB SLT PUSH2 0x1D7 JUMPI PUSH1 0x60 SWAP4 MLOAD SWAP3 PUSH2 0x19B JUMP JUMPDEST PUSH0 DUP1 REVERT JUMPDEST POP RETURNDATASIZE PUSH2 0x1BB JUMP JUMPDEST DUP3 MLOAD SWAP1 RETURNDATASIZE SWAP1 DUP3 RETURNDATACOPY RETURNDATASIZE SWAP1 REVERT JUMPDEST SWAP1 SWAP7 POP PUSH1 0x1 PUSH1 0x1 PUSH1 0x40 SHL SUB DUP2 GT PUSH2 0x208 JUMPI DUP5 MSTORE PUSH0 SWAP6 DUP4 PUSH2 0x179 JUMP JUMPDEST POP PUSH4 0x4E487B71 PUSH1 0xE0 SHL PUSH0 SWAP1 DUP2 MSTORE PUSH1 0x41 DUP4 MSTORE REVERT JUMPDEST DUP7 MLOAD RETURNDATASIZE PUSH0 DUP3 RETURNDATACOPY RETURNDATASIZE SWAP1 REVERT JUMPDEST DUP4 PUSH1 0x11 DUP7 PUSH4 0x4E487B71 PUSH1 0xE0 SHL PUSH0 MSTORE MSTORE PUSH0 REVERT JUMPDEST SWAP1 POP DUP6 DUP2 DUP2 RETURNDATASIZE DUP4 GT PUSH2 0x25D JUMPI JUMPDEST PUSH2 0x24E DUP2 DUP4 PUSH2 0x3A4 JUMP JUMPDEST DUP2 ADD SUB SLT PUSH2 0x1D7 JUMPI MLOAD PUSH0 PUSH2 0x117 JUMP JUMPDEST POP RETURNDATASIZE PUSH2 0x244 JUMP JUMPDEST DUP8 MLOAD RETURNDATASIZE PUSH0 DUP3 RETURNDATACOPY RETURNDATASIZE SWAP1 REVERT JUMPDEST DUP6 DUP2 DUP2 RETURNDATASIZE DUP4 GT PUSH2 0x29A JUMPI JUMPDEST PUSH2 0x283 DUP2 DUP4 PUSH2 0x3A4 JUMP JUMPDEST DUP2 ADD SUB SLT PUSH2 0x1D7 JUMPI MLOAD DUP1 ISZERO ISZERO SUB PUSH2 0x1D7 JUMPI PUSH0 PUSH2 0xF7 JUMP JUMPDEST POP RETURNDATASIZE PUSH2 0x279 JUMP JUMPDEST SWAP3 POP POP DUP2 DUP2 RETURNDATASIZE DUP4 GT PUSH2 0x2CA JUMPI JUMPDEST PUSH2 0x2B8 DUP2 DUP4 PUSH2 0x3A4 JUMP JUMPDEST DUP2 ADD SUB SLT PUSH2 0x1D7 JUMPI MLOAD DUP6 DUP11 PUSH1 0x64 PUSH2 0xC5 JUMP JUMPDEST POP RETURNDATASIZE PUSH2 0x2AE JUMP JUMPDEST PUSH2 0x360 JUMP JUMPDEST PUSH2 0x31C JUMP JUMPDEST CALLVALUE PUSH2 0x1D7 JUMPI PUSH0 CALLDATASIZE PUSH1 0x3 NOT ADD SLT PUSH2 0x1D7 JUMPI PUSH32 0x0 PUSH1 0x1 PUSH1 0x1 PUSH1 0xA0 SHL SUB AND DUP2 MSTORE PUSH1 0x20 SWAP1 RETURN JUMPDEST CALLVALUE PUSH2 0x1D7 JUMPI PUSH0 CALLDATASIZE PUSH1 0x3 NOT ADD SLT PUSH2 0x1D7 JUMPI PUSH1 0x40 MLOAD PUSH32 0x0 PUSH1 0x1 PUSH1 0x1 PUSH1 0xA0 SHL SUB AND DUP2 MSTORE PUSH1 0x20 SWAP1 RETURN JUMPDEST CALLVALUE PUSH2 0x1D7 JUMPI PUSH0 CALLDATASIZE PUSH1 0x3 NOT ADD SLT PUSH2 0x1D7 JUMPI PUSH1 0x40 MLOAD PUSH32 0x0 PUSH1 0x1 PUSH1 0x1 PUSH1 0xA0 SHL SUB AND DUP2 MSTORE PUSH1 0x20 SWAP1 RETURN JUMPDEST PUSH1 0x1F SWAP1 SWAP2 ADD PUSH1 0x1F NOT AND DUP2 ADD SWAP1 PUSH1 0x1 PUSH1 0x1 PUSH1 0x40 SHL SUB DUP3 GT SWAP1 DUP3 LT OR PUSH2 0x3C7 JUMPI PUSH1 0x40 MSTORE JUMP JUMPDEST PUSH4 0x4E487B71 PUSH1 0xE0 SHL PUSH0 MSTORE PUSH1 0x41 PUSH1 0x4 MSTORE PUSH1 0x24 PUSH0 REVERT INVALID LOG2 PUSH5 0x6970667358 0x22 SLT KECCAK256 CALLDATACOPY 0xD7 PUSH7 0x5810D424E030A0 SWAP4 0xD3 PUSH29 0x37D52605E21990D04BAB66125F8279D4C2CB2C64736F6C634300081900 CALLER PUSH1 0x80 CALLVALUE PUSH2 0x2D0 JUMPI PUSH1 0x40 SWAP1 PUSH1 0x1 PUSH1 0x1 PUSH1 0x40 SHL SUB SWAP1 DUP1 DUP4 ADD DUP3 DUP2 GT DUP3 DUP3 LT OR PUSH2 0x1E7 JUMPI DUP4 MSTORE PUSH1 0xB DUP2 MSTORE PUSH1 0x20 SWAP2 PUSH11 0x49726F6E4C6F636B204C5 PUSH1 0xAC SHL DUP4 DUP4 ADD MSTORE DUP4 MLOAD DUP5 DUP2 ADD DUP2 DUP2 LT DUP4 DUP3 GT OR PUSH2 0x1E7 JUMPI DUP6 MSTORE PUSH1 0x3 SWAP1 DUP2 DUP2 MSTORE PUSH3 0x494C5 PUSH1 0xEC SHL DUP6 DUP3 ADD MSTORE DUP4 MLOAD SWAP1 DUP4 DUP3 GT PUSH2 0x1E7 JUMPI DUP3 SLOAD SWAP2 PUSH1 0x1 SWAP6 DUP7 DUP5 DUP2 SHR SWAP5 AND DUP1 ISZERO PUSH2 0x2C6 JUMPI JUMPDEST DUP9 DUP6 LT EQ PUSH2 0x2B2 JUMPI DUP2 SWAP1 PUSH1 0x1F SWAP5 DUP6 DUP2 GT PUSH2 0x264 JUMPI JUMPDEST POP DUP9 SWAP1 DUP6 DUP4 GT PUSH1 0x1 EQ PUSH2 0x206 JUMPI PUSH0 SWAP3 PUSH2 0x1FB JUMPI JUMPDEST POP POP PUSH0 NOT DUP3 DUP7 SHL SHR NOT AND SWAP1 DUP7 SHL OR DUP4 SSTORE JUMPDEST DUP1 MLOAD SWAP4 DUP5 GT PUSH2 0x1E7 JUMPI PUSH1 0x4 SWAP6 DUP7 SLOAD DUP7 DUP2 DUP2 SHR SWAP2 AND DUP1 ISZERO PUSH2 0x1DD JUMPI JUMPDEST DUP3 DUP3 LT EQ PUSH2 0x1CA JUMPI DUP4 DUP2 GT PUSH2 0x187 JUMPI JUMPDEST POP DUP1 SWAP3 DUP6 GT PUSH1 0x1 EQ PUSH2 0x122 JUMPI POP SWAP4 DUP4 SWAP5 SWAP2 DUP5 SWAP3 PUSH0 SWAP6 PUSH2 0x117 JUMPI JUMPDEST POP POP SHL SWAP3 PUSH0 NOT SWAP2 SHL SHR NOT AND OR SWAP1 SSTORE JUMPDEST MLOAD PUSH2 0x6D3 SWAP1 DUP2 PUSH2 0x2D5 DUP3 CODECOPY RETURN JUMPDEST ADD MLOAD SWAP4 POP PUSH0 DUP1 PUSH2 0xFB JUMP JUMPDEST SWAP3 SWAP2 SWAP1 DUP5 PUSH1 0x1F NOT DUP2 AND DUP9 PUSH0 MSTORE DUP6 PUSH0 KECCAK256 SWAP6 PUSH0 SWAP1 JUMPDEST DUP10 DUP4 DUP4 LT PUSH2 0x16D JUMPI POP POP POP LT PUSH2 0x154 JUMPI JUMPDEST POP POP POP POP DUP2 SHL ADD SWAP1 SSTORE PUSH2 0x10A JUMP JUMPDEST ADD MLOAD SWAP1 PUSH1 0xF8 DUP5 PUSH0 NOT SWAP3 SHL AND SHR NOT AND SWAP1 SSTORE PUSH0 DUP1 DUP1 DUP1 PUSH2 0x146 JUMP JUMPDEST DUP6 DUP8 ADD MLOAD DUP10 SSTORE SWAP1 SWAP8 ADD SWAP7 SWAP5 DUP6 ADD SWAP5 DUP9 SWAP4 POP SWAP1 DUP2 ADD SWAP1 PUSH2 0x135 JUMP JUMPDEST DUP8 PUSH0 MSTORE DUP2 PUSH0 KECCAK256 DUP5 DUP1 DUP9 ADD PUSH1 0x5 SHR DUP3 ADD SWAP3 DUP5 DUP10 LT PUSH2 0x1C1 JUMPI JUMPDEST ADD PUSH1 0x5 SHR ADD SWAP1 DUP8 SWAP1 JUMPDEST DUP3 DUP2 LT PUSH2 0x1B6 JUMPI POP POP PUSH2 0xE1 JUMP JUMPDEST PUSH0 DUP2 SSTORE ADD DUP8 SWAP1 PUSH2 0x1A8 JUMP JUMPDEST SWAP3 POP DUP2 SWAP3 PUSH2 0x19F JUMP JUMPDEST PUSH1 0x22 DUP9 PUSH4 0x4E487B71 PUSH1 0xE0 SHL PUSH0 MSTORE MSTORE PUSH1 0x24 PUSH0 REVERT JUMPDEST SWAP1 PUSH1 0x7F AND SWAP1 PUSH2 0xD1 JUMP JUMPDEST PUSH4 0x4E487B71 PUSH1 0xE0 SHL PUSH0 MSTORE PUSH1 0x41 PUSH1 0x4 MSTORE PUSH1 0x24 PUSH0 REVERT JUMPDEST ADD MLOAD SWAP1 POP PUSH0 DUP1 PUSH2 0xA5 JUMP JUMPDEST SWAP1 DUP9 SWAP4 POP PUSH1 0x1F NOT DUP4 AND SWAP2 DUP8 PUSH0 MSTORE DUP11 PUSH0 KECCAK256 SWAP3 PUSH0 JUMPDEST DUP13 DUP3 DUP3 LT PUSH2 0x24E JUMPI POP POP DUP5 GT PUSH2 0x237 JUMPI JUMPDEST POP POP POP DUP2 SHL ADD DUP4 SSTORE PUSH2 0xB6 JUMP JUMPDEST ADD MLOAD PUSH0 NOT DUP4 DUP9 SHL PUSH1 0xF8 AND SHR NOT AND SWAP1 SSTORE PUSH0 DUP1 DUP1 PUSH2 0x22A JUMP JUMPDEST DUP4 DUP6 ADD MLOAD DUP7 SSTORE DUP13 SWAP8 SWAP1 SWAP6 ADD SWAP5 SWAP4 DUP5 ADD SWAP4 ADD PUSH2 0x219 JUMP JUMPDEST SWAP1 SWAP2 POP DUP6 PUSH0 MSTORE DUP9 PUSH0 KECCAK256 DUP6 DUP1 DUP6 ADD PUSH1 0x5 SHR DUP3 ADD SWAP3 DUP12 DUP7 LT PUSH2 0x2A9 JUMPI JUMPDEST SWAP2 DUP11 SWAP2 DUP7 SWAP6 SWAP5 SWAP4 ADD PUSH1 0x5 SHR ADD SWAP2 JUMPDEST DUP3 DUP2 LT PUSH2 0x29B JUMPI POP POP PUSH2 0x91 JUMP JUMPDEST PUSH0 DUP2 SSTORE DUP6 SWAP5 POP DUP11 SWAP2 ADD PUSH2 0x28D JUMP JUMPDEST SWAP3 POP DUP2 SWAP3 PUSH2 0x27F JUMP JUMPDEST PUSH4 0x4E487B71 PUSH1 0xE0 SHL PUSH0 MSTORE PUSH1 0x22 PUSH1 0x4 MSTORE PUSH1 0x24 PUSH0 REVERT JUMPDEST SWAP4 PUSH1 0x7F AND SWAP4 PUSH2 0x7C JUMP JUMPDEST PUSH0 DUP1 REVERT INVALID PUSH1 0x80 PUSH1 0x40 SWAP1 DUP1 DUP3 MSTORE PUSH1 0x4 DUP1 CALLDATASIZE LT ISZERO PUSH2 0x15 JUMPI PUSH0 DUP1 REVERT JUMPDEST PUSH0 CALLDATALOAD PUSH1 0xE0 SHR SWAP2 DUP3 PUSH4 0x6FDDE03 EQ PUSH2 0x49D JUMPI POP DUP2 PUSH4 0x95EA7B3 EQ PUSH2 0x3F5 JUMPI DUP2 PUSH4 0x18160DDD EQ PUSH2 0x3D7 JUMPI DUP2 PUSH4 0x23B872DD EQ PUSH2 0x2EF JUMPI DUP2 PUSH4 0x313CE567 EQ PUSH2 0x2D4 JUMPI DUP2 PUSH4 0x40C10F19 EQ PUSH2 0x242 JUMPI DUP2 PUSH4 0x70A08231 EQ PUSH2 0x20C JUMPI DUP2 PUSH4 0x95D89B41 EQ PUSH2 0x10A JUMPI POP DUP1 PUSH4 0xA9059CBB EQ PUSH2 0xDA JUMPI PUSH4 0xDD62ED3E EQ PUSH2 0x8E JUMPI PUSH0 DUP1 REVERT JUMPDEST CALLVALUE PUSH2 0xD6 JUMPI DUP1 PUSH1 0x3 NOT CALLDATASIZE ADD SLT PUSH2 0xD6 JUMPI PUSH1 0x20 SWAP1 PUSH2 0xA9 PUSH2 0x581 JUMP JUMPDEST PUSH2 0xB1 PUSH2 0x597 JUMP JUMPDEST SWAP1 PUSH1 0x1 DUP1 PUSH1 0xA0 SHL SUB DUP1 SWAP2 AND PUSH0 MSTORE PUSH1 0x1 DUP5 MSTORE DUP3 PUSH0 KECCAK256 SWAP2 AND PUSH0 MSTORE DUP3 MSTORE DUP1 PUSH0 KECCAK256 SLOAD SWAP1 MLOAD SWAP1 DUP2 MSTORE RETURN JUMPDEST PUSH0 DUP1 REVERT JUMPDEST POP CALLVALUE PUSH2 0xD6 JUMPI DUP1 PUSH1 0x3 NOT CALLDATASIZE ADD SLT PUSH2 0xD6 JUMPI PUSH1 0x20 SWAP1 PUSH2 0x103 PUSH2 0xF9 PUSH2 0x581 JUMP JUMPDEST PUSH1 0x24 CALLDATALOAD SWAP1 CALLER PUSH2 0x5CB JUMP JUMPDEST MLOAD PUSH1 0x1 DUP2 MSTORE RETURN JUMPDEST DUP3 CALLVALUE PUSH2 0xD6 JUMPI PUSH0 CALLDATASIZE PUSH1 0x3 NOT ADD SLT PUSH2 0xD6 JUMPI DUP1 MLOAD SWAP1 PUSH0 DUP4 SLOAD PUSH1 0x1 DUP2 PUSH1 0x1 SHR SWAP1 PUSH1 0x1 DUP4 AND SWAP3 DUP4 ISZERO PUSH2 0x202 JUMPI JUMPDEST PUSH1 0x20 SWAP4 DUP5 DUP5 LT DUP2 EQ PUSH2 0x1EF JUMPI DUP4 DUP9 MSTORE SWAP1 DUP2 ISZERO PUSH2 0x1D3 JUMPI POP PUSH1 0x1 EQ PUSH2 0x19B JUMPI JUMPDEST POP POP POP DUP3 SWAP1 SUB PUSH1 0x1F ADD PUSH1 0x1F NOT AND DUP3 ADD SWAP3 PUSH1 0x1 PUSH1 0x1 PUSH1 0x40 SHL SUB DUP5 GT DUP4 DUP6 LT OR PUSH2 0x188 JUMPI POP DUP3 SWAP2 DUP3 PUSH2 0x184 SWAP3 MSTORE DUP3 PUSH2 0x557 JUMP JUMPDEST SUB SWAP1 RETURN JUMPDEST PUSH1 0x41 SWAP1 PUSH4 0x4E487B71 PUSH1 0xE0 SHL PUSH0 MSTORE MSTORE PUSH1 0x24 PUSH0 REVERT JUMPDEST SWAP2 SWAP3 POP DUP6 PUSH0 MSTORE DUP3 PUSH0 KECCAK256 SWAP2 DUP4 PUSH0 SWAP4 JUMPDEST DUP4 DUP6 LT PUSH2 0x1BF JUMPI POP POP POP POP DUP4 ADD ADD DUP5 DUP1 DUP1 PUSH2 0x153 JUMP JUMPDEST DUP1 SLOAD DUP9 DUP7 ADD DUP4 ADD MSTORE SWAP4 ADD SWAP3 DUP5 SWAP1 DUP3 ADD PUSH2 0x1A9 JUMP JUMPDEST PUSH1 0xFF NOT AND DUP8 DUP6 ADD MSTORE POP POP ISZERO ISZERO PUSH1 0x5 SHL DUP5 ADD ADD SWAP1 POP DUP5 DUP1 DUP1 PUSH2 0x153 JUMP JUMPDEST PUSH1 0x22 DUP10 PUSH4 0x4E487B71 PUSH1 0xE0 SHL PUSH0 MSTORE MSTORE PUSH1 0x24 PUSH0 REVERT JUMPDEST SWAP2 PUSH1 0x7F AND SWAP2 PUSH2 0x134 JUMP JUMPDEST DUP3 CALLVALUE PUSH2 0xD6 JUMPI PUSH1 0x20 CALLDATASIZE PUSH1 0x3 NOT ADD SLT PUSH2 0xD6 JUMPI PUSH1 0x20 SWAP1 PUSH1 0x1 PUSH1 0x1 PUSH1 0xA0 SHL SUB PUSH2 0x231 PUSH2 0x581 JUMP JUMPDEST AND PUSH0 MSTORE PUSH0 DUP3 MSTORE DUP1 PUSH0 KECCAK256 SLOAD SWAP1 MLOAD SWAP1 DUP2 MSTORE RETURN JUMPDEST DUP3 CALLVALUE PUSH2 0xD6 JUMPI DUP1 PUSH1 0x3 NOT CALLDATASIZE ADD SLT PUSH2 0xD6 JUMPI PUSH2 0x25B PUSH2 0x581 JUMP JUMPDEST PUSH1 0x1 PUSH1 0x1 PUSH1 0xA0 SHL SUB AND SWAP2 PUSH1 0x24 CALLDATALOAD SWAP2 SWAP1 DUP4 ISZERO PUSH2 0x2BF JUMPI PUSH1 0x2 SLOAD SWAP1 DUP4 DUP3 ADD DUP1 SWAP3 GT PUSH2 0x2AC JUMPI POP PUSH0 SWAP3 PUSH0 DUP1 MLOAD PUSH1 0x20 PUSH2 0x67E DUP4 CODECOPY DUP2 MLOAD SWAP2 MSTORE SWAP3 PUSH1 0x20 SWAP3 PUSH1 0x2 SSTORE DUP6 DUP6 MSTORE DUP5 DUP4 MSTORE DUP1 DUP6 KECCAK256 DUP3 DUP2 SLOAD ADD SWAP1 SSTORE MLOAD SWAP1 DUP2 MSTORE LOG3 STOP JUMPDEST PUSH1 0x11 SWAP1 PUSH4 0x4E487B71 PUSH1 0xE0 SHL PUSH0 MSTORE MSTORE PUSH1 0x24 PUSH0 REVERT JUMPDEST PUSH0 PUSH1 0x24 SWAP3 MLOAD SWAP2 PUSH4 0xEC442F05 PUSH1 0xE0 SHL DUP4 MSTORE DUP3 ADD MSTORE REVERT JUMPDEST DUP3 CALLVALUE PUSH2 0xD6 JUMPI PUSH0 CALLDATASIZE PUSH1 0x3 NOT ADD SLT PUSH2 0xD6 JUMPI PUSH1 0x20 SWAP1 MLOAD PUSH1 0x12 DUP2 MSTORE RETURN JUMPDEST SWAP1 POP CALLVALUE PUSH2 0xD6 JUMPI PUSH1 0x60 CALLDATASIZE PUSH1 0x3 NOT ADD SLT PUSH2 0xD6 JUMPI PUSH2 0x30A PUSH2 0x581 JUMP JUMPDEST PUSH2 0x312 PUSH2 0x597 JUMP JUMPDEST SWAP1 PUSH1 0x44 CALLDATALOAD SWAP3 PUSH1 0x1 DUP1 PUSH1 0xA0 SHL SUB DUP3 AND DUP1 PUSH0 MSTORE PUSH1 0x1 PUSH1 0x20 MSTORE DUP6 PUSH0 KECCAK256 CALLER PUSH0 MSTORE PUSH1 0x20 MSTORE DUP6 PUSH0 KECCAK256 SLOAD SWAP2 PUSH0 NOT DUP4 LT PUSH2 0x34D JUMPI JUMPDEST PUSH1 0x20 DUP8 PUSH2 0x103 DUP9 DUP9 DUP9 PUSH2 0x5CB JUMP JUMPDEST DUP6 DUP4 LT PUSH2 0x3B5 JUMPI DUP2 ISZERO PUSH2 0x39F JUMPI CALLER ISZERO PUSH2 0x389 JUMPI POP PUSH0 SWAP1 DUP2 MSTORE PUSH1 0x1 PUSH1 0x20 SWAP1 DUP2 MSTORE DUP7 DUP3 KECCAK256 CALLER DUP4 MSTORE DUP2 MSTORE SWAP1 DUP7 SWAP1 KECCAK256 SWAP2 DUP6 SWAP1 SUB SWAP1 SWAP2 SSTORE DUP3 SWAP1 PUSH2 0x103 PUSH2 0x33F JUMP JUMPDEST PUSH1 0x24 SWAP1 PUSH0 DUP9 MLOAD SWAP2 PUSH4 0x4A1406B1 PUSH1 0xE1 SHL DUP4 MSTORE DUP3 ADD MSTORE REVERT JUMPDEST PUSH1 0x24 SWAP1 PUSH0 DUP9 MLOAD SWAP2 PUSH4 0xE602DF05 PUSH1 0xE0 SHL DUP4 MSTORE DUP3 ADD MSTORE REVERT JUMPDEST SWAP1 POP PUSH2 0x3D3 DUP6 DUP8 MLOAD SWAP4 DUP5 SWAP4 PUSH4 0x7DC7A0D9 PUSH1 0xE1 SHL DUP6 MSTORE CALLER SWAP1 DUP6 ADD PUSH2 0x5AD JUMP JUMPDEST SUB SWAP1 REVERT JUMPDEST DUP3 CALLVALUE PUSH2 0xD6 JUMPI PUSH0 CALLDATASIZE PUSH1 0x3 NOT ADD SLT PUSH2 0xD6 JUMPI PUSH1 0x20 SWAP1 PUSH1 0x2 SLOAD SWAP1 MLOAD SWAP1 DUP2 MSTORE RETURN JUMPDEST DUP3 CALLVALUE PUSH2 0xD6 JUMPI DUP1 PUSH1 0x3 NOT CALLDATASIZE ADD SLT PUSH2 0xD6 JUMPI PUSH2 0x40E PUSH2 0x581 JUMP JUMPDEST PUSH1 0x24 CALLDATALOAD SWAP1 CALLER ISZERO PUSH2 0x487 JUMPI PUSH1 0x1 PUSH1 0x1 PUSH1 0xA0 SHL SUB AND SWAP1 DUP2 ISZERO PUSH2 0x471 JUMPI PUSH1 0x20 SWAP4 POP CALLER PUSH0 MSTORE PUSH1 0x1 DUP5 MSTORE DUP3 PUSH0 KECCAK256 DUP3 PUSH0 MSTORE DUP5 MSTORE DUP1 DUP4 PUSH0 KECCAK256 SSTORE DUP3 MLOAD SWAP1 DUP2 MSTORE PUSH32 0x8C5BE1E5EBEC7D5BD14F71427D1E84F3DD0314C0F7B2291E5B200AC8C7C3B925 DUP5 CALLER SWAP3 LOG3 MLOAD PUSH1 0x1 DUP2 MSTORE RETURN JUMPDEST DUP3 MLOAD PUSH4 0x4A1406B1 PUSH1 0xE1 SHL DUP2 MSTORE PUSH0 DUP2 DUP7 ADD MSTORE PUSH1 0x24 SWAP1 REVERT JUMPDEST DUP3 MLOAD PUSH4 0xE602DF05 PUSH1 0xE0 SHL DUP2 MSTORE PUSH0 DUP2 DUP7 ADD MSTORE PUSH1 0x24 SWAP1 REVERT JUMPDEST DUP4 CALLVALUE PUSH2 0xD6 JUMPI PUSH0 CALLDATASIZE PUSH1 0x3 NOT ADD SLT PUSH2 0xD6 JUMPI PUSH0 PUSH1 0x3 SLOAD PUSH1 0x1 DUP2 PUSH1 0x1 SHR SWAP1 PUSH1 0x1 DUP4 AND SWAP3 DUP4 ISZERO PUSH2 0x54D JUMPI JUMPDEST PUSH1 0x20 SWAP4 DUP5 DUP5 LT DUP2 EQ PUSH2 0x1EF JUMPI DUP4 DUP9 MSTORE SWAP1 DUP2 ISZERO PUSH2 0x1D3 JUMPI POP PUSH1 0x1 EQ PUSH2 0x514 JUMPI POP POP POP DUP3 SWAP1 SUB PUSH1 0x1F ADD PUSH1 0x1F NOT AND DUP3 ADD SWAP3 PUSH1 0x1 PUSH1 0x1 PUSH1 0x40 SHL SUB DUP5 GT DUP4 DUP6 LT OR PUSH2 0x188 JUMPI POP DUP3 SWAP2 DUP3 PUSH2 0x184 SWAP3 MSTORE DUP3 PUSH2 0x557 JUMP JUMPDEST SWAP2 SWAP3 POP PUSH1 0x3 PUSH0 MSTORE DUP3 PUSH0 KECCAK256 SWAP2 DUP4 PUSH0 SWAP4 JUMPDEST DUP4 DUP6 LT PUSH2 0x539 JUMPI POP POP POP POP DUP4 ADD ADD DUP5 DUP1 DUP1 PUSH2 0x153 JUMP JUMPDEST DUP1 SLOAD DUP9 DUP7 ADD DUP4 ADD MSTORE SWAP4 ADD SWAP3 DUP5 SWAP1 DUP3 ADD PUSH2 0x523 JUMP JUMPDEST SWAP2 PUSH1 0x7F AND SWAP2 PUSH2 0x4C5 JUMP JUMPDEST PUSH1 0x20 PUSH1 0x40 SWAP3 DUP2 DUP4 MSTORE DUP1 MLOAD SWAP2 DUP3 SWAP2 DUP3 DUP3 DUP7 ADD MSTORE ADD DUP5 DUP5 ADD MCOPY PUSH0 DUP3 DUP3 ADD DUP5 ADD MSTORE PUSH1 0x1F ADD PUSH1 0x1F NOT AND ADD ADD SWAP1 JUMP JUMPDEST PUSH1 0x4 CALLDATALOAD SWAP1 PUSH1 0x1 PUSH1 0x1 PUSH1 0xA0 SHL SUB DUP3 AND DUP3 SUB PUSH2 0xD6 JUMPI JUMP JUMPDEST PUSH1 0x24 CALLDATALOAD SWAP1 PUSH1 0x1 PUSH1 0x1 PUSH1 0xA0 SHL SUB DUP3 AND DUP3 SUB PUSH2 0xD6 JUMPI JUMP JUMPDEST PUSH1 0x40 SWAP2 SWAP5 SWAP4 SWAP3 PUSH1 0x60 DUP3 ADD SWAP6 PUSH1 0x1 DUP1 PUSH1 0xA0 SHL SUB AND DUP3 MSTORE PUSH1 0x20 DUP3 ADD MSTORE ADD MSTORE JUMP JUMPDEST SWAP2 PUSH1 0x1 PUSH1 0x1 PUSH1 0xA0 SHL SUB DUP1 DUP5 AND SWAP3 DUP4 ISZERO PUSH2 0x665 JUMPI AND SWAP3 DUP4 ISZERO PUSH2 0x64D JUMPI DUP3 PUSH0 MSTORE PUSH0 PUSH1 0x20 MSTORE PUSH1 0x40 PUSH0 KECCAK256 SLOAD SWAP1 DUP3 DUP3 LT PUSH2 0x630 JUMPI POP DUP2 PUSH0 DUP1 MLOAD PUSH1 0x20 PUSH2 0x67E DUP4 CODECOPY DUP2 MLOAD SWAP2 MSTORE SWAP3 PUSH1 0x20 SWAP3 DUP6 PUSH0 MSTORE PUSH0 DUP5 MSTORE SUB PUSH1 0x40 PUSH0 KECCAK256 SSTORE DUP5 PUSH0 MSTORE PUSH1 0x40 PUSH0 KECCAK256 DUP2 DUP2 SLOAD ADD SWAP1 SSTORE PUSH1 0x40 MLOAD SWAP1 DUP2 MSTORE LOG3 JUMP JUMPDEST PUSH2 0x3D3 DUP4 PUSH1 0x40 MLOAD SWAP4 DUP5 SWAP4 PUSH4 0x391434E3 PUSH1 0xE2 SHL DUP6 MSTORE PUSH1 0x4 DUP6 ADD PUSH2 0x5AD JUMP JUMPDEST PUSH1 0x40 MLOAD PUSH4 0xEC442F05 PUSH1 0xE0 SHL DUP2 MSTORE PUSH0 PUSH1 0x4 DUP3 ADD MSTORE PUSH1 0x24 SWAP1 REVERT JUMPDEST PUSH1 0x40 MLOAD PUSH4 0x4B637E8F PUSH1 0xE1 SHL DUP2 MSTORE PUSH0 PUSH1 0x4 DUP3 ADD MSTORE PUSH1 0x24 SWAP1 REVERT INVALID 0xDD CALLCODE MSTORE 0xAD SHL 0xE2 0xC8 SWAP12 PUSH10 0xC2B068FC378DAA952BA7 CALL PUSH4 0xC4A11628 CREATE2 GAS 0x4D CREATE2 0x23 0xB3 0xEF LOG2 PUSH5 0x6970667358 0x22 SLT KECCAK256 KECCAK256 SWAP7 CREATE2 PUSH27 0xF2772732CF1B72725F617EB613F5B813CE8AE66996BE19E6B0E221 0xCF PUSH5 0x736F6C6343 STOP ADDMOD NOT STOP CALLER PUSH1 0xA0 CALLVALUE PUSH1 0x6B JUMPI PUSH1 0x1F PUSH2 0x184 CODESIZE DUP2 SWAP1 SUB SWAP2 DUP3 ADD PUSH1 0x1F NOT AND DUP4 ADD SWAP2 PUSH1 0x1 PUSH1 0x1 PUSH1 0x40 SHL SUB DUP4 GT DUP5 DUP5 LT OR PUSH1 0x6F JUMPI DUP1 DUP5 SWAP3 PUSH1 0x20 SWAP5 PUSH1 0x40 MSTORE DUP4 CODECOPY DUP2 ADD SUB SLT PUSH1 0x6B JUMPI MLOAD PUSH1 0x1 PUSH1 0x1 PUSH1 0xA0 SHL SUB DUP2 AND DUP2 SUB PUSH1 0x6B JUMPI PUSH1 0x80 MSTORE PUSH1 0x40 MLOAD PUSH2 0x100 SWAP1 DUP2 PUSH2 0x84 DUP3 CODECOPY PUSH1 0x80 MLOAD DUP2 DUP2 DUP2 PUSH1 0x63 ADD MSTORE PUSH1 0x9B ADD MSTORE RETURN JUMPDEST PUSH0 DUP1 REVERT JUMPDEST PUSH4 0x4E487B71 PUSH1 0xE0 SHL PUSH0 MSTORE PUSH1 0x41 PUSH1 0x4 MSTORE PUSH1 0x24 PUSH0 REVERT INVALID PUSH1 0x80 DUP1 PUSH1 0x40 MSTORE PUSH1 0x4 CALLDATASIZE LT ISZERO PUSH1 0x11 JUMPI PUSH0 DUP1 REVERT JUMPDEST PUSH0 CALLDATALOAD PUSH1 0xE0 SHR SWAP1 DUP2 PUSH4 0x9B4DC8CC EQ PUSH1 0x8B JUMPI POP PUSH4 0xE6A43905 EQ PUSH1 0x2F JUMPI PUSH0 DUP1 REVERT JUMPDEST CALLVALUE PUSH1 0x87 JUMPI PUSH1 0x40 CALLDATASIZE PUSH1 0x3 NOT ADD SLT PUSH1 0x87 JUMPI PUSH1 0x1 PUSH1 0x1 PUSH1 0xA0 SHL SUB PUSH1 0x4 CALLDATALOAD DUP2 DUP2 AND SUB PUSH1 0x87 JUMPI PUSH1 0x24 CALLDATALOAD DUP2 DUP2 AND SUB PUSH1 0x87 JUMPI PUSH1 0x20 SWAP1 PUSH1 0x40 MLOAD SWAP1 PUSH32 0x0 AND DUP2 MSTORE RETURN JUMPDEST PUSH0 DUP1 REVERT JUMPDEST CALLVALUE PUSH1 0x87 JUMPI PUSH0 CALLDATASIZE PUSH1 0x3 NOT ADD SLT PUSH1 0x87 JUMPI PUSH32 0x0 PUSH1 0x1 PUSH1 0x1 PUSH1 0xA0 SHL SUB AND DUP2 MSTORE PUSH1 0x20 SWAP1 RETURN INVALID LOG2 PUSH5 0x6970667358 0x22 SLT KECCAK256 PUSH28 0xCF7A40CFD3E168168088CA041E2A96B3580D923B09CBF3956DA17D40 PUSH17 0x70664736F6C6343000819003300000000 "},"methodIdentifiers":{"WETH()":"ad5c4648","addLiquidityETH(address,uint256,uint256,uint256,address,uint256)":"f305d719","factory()":"c45a0155","factoryAddr()":"963671be","lpToken()":"5fcbd285","wethAddr()":"7d5aa5f4"}},"storageLayout":{"storage":[],"types":null}}}}