{"contracts/IronLockFactory.sol":{"IronLockFactory":{"abi":[{"inputs":[],"stateMutability":"nonpayable","type":"constructor"},{"inputs":[],"name":"AlreadyClaimed","type":"error"},{"inputs":[],"name":"DevAllocTooHigh","type":"error"},{"inputs":[],"name":"ECDSAInvalidSignature","type":"error"},{"inputs":[{"internalType":"uint256","name":"length","type":"uint256"}],"name":"ECDSAInvalidSignatureLength","type":"error"},{"inputs":[{"internalType":"bytes32","name":"s","type":"bytes32"}],"name":"ECDSAInvalidSignatureS","type":"error"},{"inputs":[],"name":"ExceedsRaiseCap","type":"error"},{"inputs":[],"name":"LPLockTooShort","type":"error"},{"inputs":[],"name":"LPStillLocked","type":"error"},{"inputs":[],"name":"LiquidityAlreadyAdded","type":"error"},{"inputs":[],"name":"NameSymbolRequired","type":"error"},{"inputs":[],"name":"NoBNBForLiquidity","type":"error"},{"inputs":[],"name":"NoContribution","type":"error"},{"inputs":[],"name":"NoTokensForLiquidity","type":"error"},{"inputs":[],"name":"OnlyDevCanClaim","type":"error"},{"inputs":[{"internalType":"address","name":"owner","type":"address"}],"name":"OwnableInvalidOwner","type":"error"},{"inputs":[{"internalType":"address","name":"account","type":"address"}],"name":"OwnableUnauthorizedAccount","type":"error"},{"inputs":[],"name":"RaiseIncomplete","type":"error"},{"inputs":[],"name":"ReentrancyGuardReentrantCall","type":"error"},{"inputs":[],"name":"RouterNotSet","type":"error"},{"inputs":[],"name":"TokenNotActive","type":"error"},{"inputs":[],"name":"TokenNotFound","type":"error"},{"inputs":[],"name":"VestingTooShort","type":"error"},{"inputs":[],"name":"ZeroRaiseCap","type":"error"},{"inputs":[],"name":"ZeroSupply","type":"error"},{"anonymous":false,"inputs":[{"indexed":true,"internalType":"address","name":"wallet","type":"address"},{"indexed":false,"internalType":"string","name":"reason","type":"string"}],"name":"BlacklistAdded","type":"event"},{"anonymous":false,"inputs":[{"indexed":true,"internalType":"address","name":"token","type":"address"},{"indexed":true,"internalType":"address","name":"contributor","type":"address"},{"indexed":false,"internalType":"uint256","name":"amount","type":"uint256"}],"name":"Contributed","type":"event"},{"anonymous":false,"inputs":[{"indexed":true,"internalType":"address","name":"dev","type":"address"},{"indexed":false,"internalType":"uint256","name":"timestamp","type":"uint256"}],"name":"DevActivityUpdated","type":"event"},{"anonymous":false,"inputs":[{"indexed":true,"internalType":"address","name":"dev","type":"address"},{"indexed":false,"internalType":"uint256","name":"totalLaunches","type":"uint256"},{"indexed":false,"internalType":"uint256","name":"successful","type":"uint256"},{"indexed":false,"internalType":"uint256","name":"refunded","type":"uint256"}],"name":"DevReputationUpdated","type":"event"},{"anonymous":false,"inputs":[{"indexed":true,"internalType":"address","name":"dev","type":"address"},{"indexed":false,"internalType":"uint256","name":"amount","type":"uint256"}],"name":"DevStakeClaimed","type":"event"},{"anonymous":false,"inputs":[{"indexed":true,"internalType":"address","name":"dev","type":"address"},{"indexed":false,"internalType":"uint256","name":"amount","type":"uint256"}],"name":"DevStakeSlashed","type":"event"},{"anonymous":false,"inputs":[{"indexed":false,"internalType":"uint256","name":"newFee","type":"uint256"}],"name":"LaunchFeeUpdated","type":"event"},{"anonymous":false,"inputs":[{"indexed":true,"internalType":"address","name":"token","type":"address"},{"indexed":true,"internalType":"address","name":"pair","type":"address"},{"indexed":false,"internalType":"uint256","name":"bnbAmount","type":"uint256"},{"indexed":false,"internalType":"uint256","name":"tokenAmount","type":"uint256"},{"indexed":false,"internalType":"uint256","name":"lpTokens","type":"uint256"}],"name":"LiquidityAdded","type":"event"},{"anonymous":false,"inputs":[{"indexed":true,"internalType":"address","name":"token","type":"address"},{"indexed":true,"internalType":"address","name":"dev","type":"address"},{"indexed":false,"internalType":"uint256","name":"lpTokens","type":"uint256"}],"name":"LiquidityClaimed","type":"event"},{"anonymous":false,"inputs":[{"indexed":true,"internalType":"address","name":"token","type":"address"},{"indexed":false,"internalType":"uint8","name":"milestone","type":"uint8"},{"indexed":false,"internalType":"uint256","name":"amount","type":"uint256"}],"name":"MilestoneReleased","type":"event"},{"anonymous":false,"inputs":[{"indexed":true,"internalType":"address","name":"previousOwner","type":"address"},{"indexed":true,"internalType":"address","name":"newOwner","type":"address"}],"name":"OwnershipTransferred","type":"event"},{"anonymous":false,"inputs":[{"indexed":true,"internalType":"address","name":"router","type":"address"}],"name":"PancakeRouterUpdated","type":"event"},{"anonymous":false,"inputs":[{"indexed":true,"internalType":"address","name":"token","type":"address"}],"name":"RefundExecuted","type":"event"},{"anonymous":false,"inputs":[{"indexed":true,"internalType":"address","name":"token","type":"address"},{"indexed":true,"internalType":"address","name":"voter","type":"address"},{"indexed":false,"internalType":"uint256","name":"weight","type":"uint256"}],"name":"RefundVoteCast","type":"event"},{"anonymous":false,"inputs":[{"indexed":true,"internalType":"address","name":"token","type":"address"}],"name":"RefundVoteStarted","type":"event"},{"anonymous":false,"inputs":[{"indexed":true,"internalType":"address","name":"token","type":"address"},{"indexed":false,"internalType":"uint256","name":"totalRaised","type":"uint256"}],"name":"SoftCapReached","type":"event"},{"anonymous":false,"inputs":[{"indexed":true,"internalType":"address","name":"to","type":"address"},{"indexed":false,"internalType":"uint256","name":"amount","type":"uint256"}],"name":"StuckBNBWithdrawn","type":"event"},{"anonymous":false,"inputs":[{"indexed":true,"internalType":"address","name":"token","type":"address"},{"indexed":true,"internalType":"address","name":"dev","type":"address"},{"indexed":false,"internalType":"string","name":"name","type":"string"},{"indexed":false,"internalType":"string","name":"symbol","type":"string"},{"indexed":false,"internalType":"uint256","name":"totalSupply","type":"uint256"},{"indexed":false,"internalType":"uint256","name":"raiseCap","type":"uint256"},{"indexed":false,"internalType":"uint256","name":"lpLockDays","type":"uint256"},{"indexed":false,"internalType":"uint256","name":"vestingDays","type":"uint256"},{"indexed":false,"internalType":"uint16","name":"devAllocationBps","type":"uint16"},{"indexed":false,"internalType":"uint8","name":"safetyScore","type":"uint8"}],"name":"TokenLaunched","type":"event"},{"anonymous":false,"inputs":[{"indexed":true,"internalType":"address","name":"newTreasury","type":"address"}],"name":"TreasuryUpdated","type":"event"},{"anonymous":false,"inputs":[{"indexed":true,"internalType":"address","name":"newVerifier","type":"address"}],"name":"VerifierUpdated","type":"event"},{"anonymous":false,"inputs":[{"indexed":true,"internalType":"address","name":"token","type":"address"},{"indexed":true,"internalType":"address","name":"wallet","type":"address"}],"name":"WalletBlocked","type":"event"},{"anonymous":false,"inputs":[{"indexed":true,"internalType":"address","name":"token","type":"address"},{"indexed":true,"internalType":"address","name":"reporter","type":"address"},{"indexed":true,"internalType":"address","name":"suspiciousWallet","type":"address"},{"indexed":false,"internalType":"string","name":"reason","type":"string"}],"name":"WalletReported","type":"event"},{"inputs":[],"name":"ANTI_SNIPE_MAX_BNB","outputs":[{"internalType":"uint256","name":"","type":"uint256"}],"stateMutability":"view","type":"function"},{"inputs":[],"name":"ANTI_SNIPE_SECONDS","outputs":[{"internalType":"uint256","name":"","type":"uint256"}],"stateMutability":"view","type":"function"},{"inputs":[],"name":"DAILY_SELL_CAP_BPS","outputs":[{"internalType":"uint16","name":"","type":"uint16"}],"stateMutability":"view","type":"function"},{"inputs":[],"name":"DEFAULT_LIQUIDITY_BPS","outputs":[{"internalType":"uint16","name":"","type":"uint16"}],"stateMutability":"view","type":"function"},{"inputs":[],"name":"DEV_STAKE_AMOUNT","outputs":[{"internalType":"uint256","name":"","type":"uint256"}],"stateMutability":"view","type":"function"},{"inputs":[],"name":"ELIGIBILITY_PROOF_TTL","outputs":[{"internalType":"uint256","name":"","type":"uint256"}],"stateMutability":"view","type":"function"},{"inputs":[],"name":"MAX_DEV_BPS","outputs":[{"internalType":"uint256","name":"","type":"uint256"}],"stateMutability":"view","type":"function"},{"inputs":[],"name":"MAX_LIQUIDITY_BPS","outputs":[{"internalType":"uint16","name":"","type":"uint16"}],"stateMutability":"view","type":"function"},{"inputs":[],"name":"MAX_PRESALE_DAYS","outputs":[{"internalType":"uint256","name":"","type":"uint256"}],"stateMutability":"view","type":"function"},{"inputs":[],"name":"MIN_LIQUIDITY_BPS","outputs":[{"internalType":"uint16","name":"","type":"uint16"}],"stateMutability":"view","type":"function"},{"inputs":[],"name":"MIN_LP_LOCK_DAYS","outputs":[{"internalType":"uint256","name":"","type":"uint256"}],"stateMutability":"view","type":"function"},{"inputs":[],"name":"MIN_PRESALE_DAYS","outputs":[{"internalType":"uint256","name":"","type":"uint256"}],"stateMutability":"view","type":"function"},{"inputs":[],"name":"MIN_SOFTCAP_BPS","outputs":[{"internalType":"uint256","name":"","type":"uint256"}],"stateMutability":"view","type":"function"},{"inputs":[],"name":"MIN_UNIQUE_CONTRIBUTORS","outputs":[{"internalType":"uint256","name":"","type":"uint256"}],"stateMutability":"view","type":"function"},{"inputs":[],"name":"MIN_VESTING_DAYS","outputs":[{"internalType":"uint256","name":"","type":"uint256"}],"stateMutability":"view","type":"function"},{"inputs":[],"name":"REPORT_THRESHOLD","outputs":[{"internalType":"uint256","name":"","type":"uint256"}],"stateMutability":"view","type":"function"},{"inputs":[{"internalType":"address","name":"tokenAddr","type":"address"}],"name":"addLiquidityToPancakeSwap","outputs":[],"stateMutability":"nonpayable","type":"function"},{"inputs":[{"internalType":"uint256","name":"","type":"uint256"}],"name":"allTokens","outputs":[{"internalType":"address","name":"","type":"address"}],"stateMutability":"view","type":"function"},{"inputs":[{"internalType":"address","name":"","type":"address"},{"internalType":"address","name":"","type":"address"}],"name":"antiSnipeContribs","outputs":[{"internalType":"uint256","name":"","type":"uint256"}],"stateMutability":"view","type":"function"},{"inputs":[{"internalType":"address","name":"w","type":"address"},{"internalType":"string","name":"r","type":"string"}],"name":"blacklistWallet","outputs":[],"stateMutability":"nonpayable","type":"function"},{"inputs":[{"internalType":"address","name":"tokenAddr","type":"address"},{"internalType":"bool","name":"voteYes","type":"bool"}],"name":"castRefundVote","outputs":[],"stateMutability":"nonpayable","type":"function"},{"inputs":[{"internalType":"address","name":"tokenAddr","type":"address"}],"name":"checkLaunchSuccess","outputs":[],"stateMutability":"nonpayable","type":"function"},{"inputs":[{"internalType":"address","name":"tokenAddr","type":"address"}],"name":"claimDevStake","outputs":[],"stateMutability":"nonpayable","type":"function"},{"inputs":[{"internalType":"address","name":"tokenAddr","type":"address"}],"name":"claimLPTokens","outputs":[],"stateMutability":"nonpayable","type":"function"},{"inputs":[{"internalType":"address","name":"tokenAddr","type":"address"}],"name":"claimRefund","outputs":[],"stateMutability":"nonpayable","type":"function"},{"inputs":[{"internalType":"address","name":"tokenAddr","type":"address"}],"name":"contribute","outputs":[],"stateMutability":"payable","type":"function"},{"inputs":[{"internalType":"address","name":"","type":"address"},{"internalType":"address","name":"","type":"address"}],"name":"contributions","outputs":[{"internalType":"uint256","name":"","type":"uint256"}],"stateMutability":"view","type":"function"},{"inputs":[{"internalType":"address","name":"","type":"address"}],"name":"devLastActivity","outputs":[{"internalType":"uint256","name":"","type":"uint256"}],"stateMutability":"view","type":"function"},{"inputs":[{"internalType":"address","name":"","type":"address"},{"internalType":"uint256","name":"","type":"uint256"}],"name":"devLaunchHistory","outputs":[{"internalType":"address","name":"","type":"address"}],"stateMutability":"view","type":"function"},{"inputs":[{"internalType":"address","name":"","type":"address"}],"name":"devRefundedLaunches","outputs":[{"internalType":"uint256","name":"","type":"uint256"}],"stateMutability":"view","type":"function"},{"inputs":[{"internalType":"address","name":"","type":"address"}],"name":"devStakes","outputs":[{"internalType":"uint256","name":"","type":"uint256"}],"stateMutability":"view","type":"function"},{"inputs":[{"internalType":"address","name":"","type":"address"}],"name":"devSuccessfulLaunches","outputs":[{"internalType":"uint256","name":"","type":"uint256"}],"stateMutability":"view","type":"function"},{"inputs":[{"internalType":"address","name":"tokenAddr","type":"address"}],"name":"executeRefund","outputs":[],"stateMutability":"nonpayable","type":"function"},{"inputs":[],"name":"getAllTokens","outputs":[{"internalType":"address[]","name":"","type":"address[]"}],"stateMutability":"view","type":"function"},{"inputs":[{"internalType":"address","name":"d","type":"address"}],"name":"getDevLaunchHistory","outputs":[{"internalType":"address[]","name":"","type":"address[]"}],"stateMutability":"view","type":"function"},{"inputs":[{"internalType":"address","name":"d","type":"address"}],"name":"getDevStats","outputs":[{"internalType":"uint256","name":"totalLaunches","type":"uint256"},{"internalType":"uint256","name":"successful","type":"uint256"},{"internalType":"uint256","name":"refunded","type":"uint256"}],"stateMutability":"view","type":"function"},{"inputs":[{"internalType":"address","name":"tokenAddr","type":"address"}],"name":"getLPStatus","outputs":[{"internalType":"bool","name":"added","type":"bool"},{"internalType":"address","name":"pair","type":"address"},{"internalType":"uint256","name":"lockedAmount","type":"uint256"},{"internalType":"uint256","name":"unlockTime","type":"uint256"},{"internalType":"bool","name":"claimable","type":"bool"}],"stateMutability":"view","type":"function"},{"inputs":[{"internalType":"address","name":"tokenAddr","type":"address"}],"name":"getSafetyScore","outputs":[{"internalType":"uint8","name":"","type":"uint8"}],"stateMutability":"view","type":"function"},{"inputs":[{"internalType":"address","name":"tokenAddr","type":"address"}],"name":"getTokenAccountingStatus","outputs":[{"internalType":"uint256","name":"totalRaised","type":"uint256"},{"internalType":"uint256","name":"currentTrackedBalance","type":"uint256"},{"internalType":"uint256","name":"releasedSoFar","type":"uint256"}],"stateMutability":"view","type":"function"},{"inputs":[{"internalType":"uint256","name":"offset","type":"uint256"},{"internalType":"uint256","name":"limit","type":"uint256"}],"name":"getTokensPaginated","outputs":[{"internalType":"address[]","name":"result","type":"address[]"},{"internalType":"uint256","name":"total","type":"uint256"}],"stateMutability":"view","type":"function"},{"inputs":[{"internalType":"address","name":"","type":"address"},{"internalType":"address","name":"","type":"address"}],"name":"hasContributed","outputs":[{"internalType":"bool","name":"","type":"bool"}],"stateMutability":"view","type":"function"},{"inputs":[{"internalType":"address","name":"","type":"address"},{"internalType":"address","name":"","type":"address"},{"internalType":"address","name":"","type":"address"}],"name":"hasReported","outputs":[{"internalType":"bool","name":"","type":"bool"}],"stateMutability":"view","type":"function"},{"inputs":[],"name":"insurancePool","outputs":[{"internalType":"uint256","name":"","type":"uint256"}],"stateMutability":"view","type":"function"},{"inputs":[{"internalType":"address","name":"","type":"address"}],"name":"isBlacklisted","outputs":[{"internalType":"bool","name":"","type":"bool"}],"stateMutability":"view","type":"function"},{"inputs":[{"internalType":"address","name":"","type":"address"},{"internalType":"address","name":"","type":"address"}],"name":"isBlockedContributor","outputs":[{"internalType":"bool","name":"","type":"bool"}],"stateMutability":"view","type":"function"},{"inputs":[{"internalType":"address","name":"","type":"address"}],"name":"isIronLockToken","outputs":[{"internalType":"bool","name":"","type":"bool"}],"stateMutability":"view","type":"function"},{"inputs":[{"internalType":"address","name":"tokenAddr","type":"address"}],"name":"isRefundVotePassed","outputs":[{"internalType":"bool","name":"","type":"bool"}],"stateMutability":"view","type":"function"},{"inputs":[],"name":"launchFee","outputs":[{"internalType":"uint256","name":"","type":"uint256"}],"stateMutability":"view","type":"function"},{"inputs":[{"internalType":"string","name":"name","type":"string"},{"internalType":"string","name":"symbol","type":"string"},{"internalType":"uint256","name":"totalSupply","type":"uint256"},{"internalType":"uint256","name":"raiseCap","type":"uint256"},{"internalType":"uint256","name":"lpLockDays","type":"uint256"},{"internalType":"uint256","name":"vestingDays","type":"uint256"},{"internalType":"uint16","name":"devAllocationBps","type":"uint16"},{"internalType":"uint256","name":"eligibilityDeadline","type":"uint256"},{"internalType":"bytes","name":"eligibilitySignature","type":"bytes"},{"internalType":"uint256","name":"softCapBps","type":"uint256"},{"internalType":"uint256","name":"presaleDays","type":"uint256"}],"name":"launchToken","outputs":[{"internalType":"address","name":"","type":"address"}],"stateMutability":"payable","type":"function"},{"inputs":[{"internalType":"address","name":"","type":"address"}],"name":"liquidityAdded","outputs":[{"internalType":"bool","name":"","type":"bool"}],"stateMutability":"view","type":"function"},{"inputs":[{"internalType":"address","name":"","type":"address"}],"name":"lpLockedAmount","outputs":[{"internalType":"uint256","name":"","type":"uint256"}],"stateMutability":"view","type":"function"},{"inputs":[{"internalType":"address","name":"","type":"address"}],"name":"lpUnlockTime","outputs":[{"internalType":"uint256","name":"","type":"uint256"}],"stateMutability":"view","type":"function"},{"inputs":[],"name":"owner","outputs":[{"internalType":"address","name":"","type":"address"}],"stateMutability":"view","type":"function"},{"inputs":[],"name":"pancakeRouter","outputs":[{"internalType":"address","name":"","type":"address"}],"stateMutability":"view","type":"function"},{"inputs":[{"internalType":"address","name":"","type":"address"}],"name":"refundVotes","outputs":[{"internalType":"uint256","name":"startTime","type":"uint256"},{"internalType":"uint256","name":"yesVotes","type":"uint256"},{"internalType":"uint256","name":"totalVotes","type":"uint256"},{"internalType":"bool","name":"executed","type":"bool"}],"stateMutability":"view","type":"function"},{"inputs":[{"internalType":"address","name":"tokenAddr","type":"address"}],"name":"releaseMilestone","outputs":[],"stateMutability":"nonpayable","type":"function"},{"inputs":[],"name":"renounceOwnership","outputs":[],"stateMutability":"nonpayable","type":"function"},{"inputs":[{"internalType":"address","name":"tokenAddr","type":"address"},{"internalType":"address","name":"suspiciousWallet","type":"address"},{"internalType":"string","name":"reason","type":"string"}],"name":"reportSuspiciousWallet","outputs":[],"stateMutability":"nonpayable","type":"function"},{"inputs":[{"internalType":"uint256","name":"_fee","type":"uint256"}],"name":"setLaunchFee","outputs":[],"stateMutability":"nonpayable","type":"function"},{"inputs":[{"internalType":"address","name":"_r","type":"address"}],"name":"setPancakeRouter","outputs":[],"stateMutability":"nonpayable","type":"function"},{"inputs":[{"internalType":"address","name":"_t","type":"address"}],"name":"setTreasury","outputs":[],"stateMutability":"nonpayable","type":"function"},{"inputs":[{"internalType":"address","name":"_v","type":"address"}],"name":"setVerifier","outputs":[],"stateMutability":"nonpayable","type":"function"},{"inputs":[{"internalType":"address","name":"tokenAddr","type":"address"}],"name":"startRefundVote","outputs":[],"stateMutability":"nonpayable","type":"function"},{"inputs":[{"internalType":"address","name":"","type":"address"},{"internalType":"address","name":"","type":"address"}],"name":"suspiciousReportCount","outputs":[{"internalType":"uint256","name":"","type":"uint256"}],"stateMutability":"view","type":"function"},{"inputs":[{"internalType":"address","name":"","type":"address"}],"name":"tokenBnbBalance","outputs":[{"internalType":"uint256","name":"","type":"uint256"}],"stateMutability":"view","type":"function"},{"inputs":[],"name":"tokenCount","outputs":[{"internalType":"uint256","name":"","type":"uint256"}],"stateMutability":"view","type":"function"},{"inputs":[{"internalType":"address","name":"","type":"address"}],"name":"tokenLPPair","outputs":[{"internalType":"address","name":"","type":"address"}],"stateMutability":"view","type":"function"},{"inputs":[{"internalType":"address","name":"","type":"address"}],"name":"tokens","outputs":[{"internalType":"address","name":"tokenAddress","type":"address"},{"internalType":"address","name":"dev","type":"address"},{"internalType":"string","name":"name","type":"string"},{"internalType":"string","name":"symbol","type":"string"},{"internalType":"uint256","name":"totalSupply","type":"uint256"},{"internalType":"uint256","name":"raiseCap","type":"uint256"},{"internalType":"uint256","name":"totalRaised","type":"uint256"},{"internalType":"uint256","name":"lpLockDays","type":"uint256"},{"internalType":"uint256","name":"vestingDays","type":"uint256"},{"internalType":"uint16","name":"devAllocationBps","type":"uint16"},{"internalType":"uint256","name":"launchTime","type":"uint256"},{"internalType":"uint256","name":"antiSnipeEnd","type":"uint256"},{"internalType":"uint8","name":"milestoneReleased","type":"uint8"},{"internalType":"uint256","name":"milestone1Time","type":"uint256"},{"internalType":"uint256","name":"milestone2Time","type":"uint256"},{"internalType":"uint256","name":"milestone3Time","type":"uint256"},{"internalType":"uint8","name":"safetyScore","type":"uint8"},{"internalType":"bool","name":"active","type":"bool"},{"internalType":"bool","name":"refundVoteActive","type":"bool"},{"internalType":"uint256","name":"maxContributionPerWallet","type":"uint256"},{"internalType":"uint256","name":"uniqueContributorCount","type":"uint256"},{"internalType":"uint16","name":"liquidityBps","type":"uint16"},{"internalType":"uint256","name":"liquidityBNB","type":"uint256"},{"internalType":"uint256","name":"devBNB","type":"uint256"},{"internalType":"uint256","name":"softCap","type":"uint256"},{"internalType":"uint256","name":"presaleEnd","type":"uint256"},{"internalType":"bool","name":"softCapHit","type":"bool"},{"internalType":"bool","name":"autoRefunded","type":"bool"}],"stateMutability":"view","type":"function"},{"inputs":[{"internalType":"address","name":"newOwner","type":"address"}],"name":"transferOwnership","outputs":[],"stateMutability":"nonpayable","type":"function"},{"inputs":[],"name":"treasury","outputs":[{"internalType":"address","name":"","type":"address"}],"stateMutability":"view","type":"function"},{"inputs":[{"internalType":"address","name":"w","type":"address"}],"name":"unblacklistWallet","outputs":[],"stateMutability":"nonpayable","type":"function"},{"inputs":[],"name":"updateDevActivity","outputs":[],"stateMutability":"nonpayable","type":"function"},{"inputs":[{"internalType":"uint256","name":"","type":"uint256"},{"internalType":"address","name":"","type":"address"}],"name":"usedEligibilityProofs","outputs":[{"internalType":"bool","name":"","type":"bool"}],"stateMutability":"view","type":"function"},{"inputs":[],"name":"verifier","outputs":[{"internalType":"address","name":"","type":"address"}],"stateMutability":"view","type":"function"},{"inputs":[{"internalType":"uint256","name":"amount","type":"uint256"}],"name":"withdrawStuckBNB","outputs":[],"stateMutability":"nonpayable","type":"function"},{"stateMutability":"payable","type":"receive"}],"evm":{"bytecode":{"linkReferences":{},"object":"6080806040523460ba57331560a5575f8054336001600160a01b0319808316821784556040519390926001600160a01b0316907f8be0079c531659141344cd1fd0a4f28419497f9722a3daafe3b4186f6b6457e09080a360017f9b779b17422d0df92223018b32b4d1fa46e071723d6817e2486d003becc55f0055662386f26fc10000600b55338160085416176008553390600e541617600e55615ff190816100bf8239f35b631e4fbdf760e01b81525f6004820152602490fd5b5f80fdfe610240604052600436101561001b575b3615610019575f80fd5b005b5f803560e01c8063037c488614613e75578063057e729e14613e5a5780630788a8a714613c955780630c91d19c14613c5d5780631b8028fb14613bfe578063212d25a614613be2578063222e0cf114613b4f578063242fefd714613b3457806329369ccf14613ae75780632a5c792a14613a535780632b7ac3f314613a2b578063391df7c9146139f35780633f58cf1f146138905780634238b6921461385057806343237d4a146138185780634871b64a146137cb5780634aa06447146137b05780634adabe09146133f35780634e576dea146133d75780635313be2c1461338b5780635437988d146133235780635578732b146132945780635712455f1461327957806358a4cbd714612caa5780635b34bc4114612c605780635b9605ea14612c435780635d35e54f14612c275780635dd8ba8814612be85780635ff51a9f14612baf57806360bb397914612b6e57806361d027b314612b45578063634282af14612b0157806363b8ce5f14612ae5578063685e423614612ac9578063715018a614612a8357806371afe1b61461293e57806373458d10146128a457806373e888fd146122e657806374e47336146122aa57806375f0c2f01461228d57806384d232b5146115c457806384f047d514611510578063887813b2146114d15780638afb309c1461135c5780638da5cb5b14611335578063907ba72e146112fa57806391cb32a7146112ad57806396c6ce0e146112905780639b0b26a2146112205780639c271174146111cb5780639f181b5e146111ad578063a488328614611191578063aa180cd61461113c578063ab2adc001461111e578063b31e608714610fda578063b65f192714610e0d578063b9148eee14610dea578063b9af648c14610c9f578063bb2061b214610c4d578063bee884d214610bf2578063bffa55d514610954578063c1f7f9ac1461091b578063c21ebd07146108f2578063cf3cf573146108d4578063d79ecf901461088a578063dc67195f14610838578063e1a6ae38146107ff578063e486033914610563578063e6cf813414610540578063f0f44260146104d6578063f25ea8b5146104b9578063f2fde38b14610447578063f67cd9cd1461040e578063f8316c90146103a05763fe575a871461035f575061000f565b3461039d57602036600319011261039d5760209060ff906040906001600160a01b03610389613f34565b168152600a84522054166040519015158152f35b80fd5b503461039d57602036600319011261039d576103ba613f34565b6103c26146b2565b6001600160a01b0316801561040a57600f80546001600160a01b031916821790557f7cd91bb102d5b88808255aa4b0877f151c1c4d2e61deef286b983f293eea60ab8280a280f35b5080fd5b503461039d57602036600319011261039d576020906040906001600160a01b03610436613f34565b168152601283522054604051908152f35b503461039d57602036600319011261039d57610461613f34565b6104696146b2565b6001600160a01b039081169081156104a0575f548260018060a01b03198216175f55165f80516020615f3c8339815191525f80a380f35b604051631e4fbdf760e01b815260048101849052602490fd5b503461039d578060031936011261039d5760206040516103e88152f35b503461039d57602036600319011261039d576104f0613f34565b6104f86146b2565b6001600160a01b0316801561040a57600e80546001600160a01b031916821790557f7dae230f18360d76a040c81f050aa14eb9d6dc7901b20fc5d855e2a20fe814d18280a280f35b503461039d578060031936011261039d57602060405167016345785d8a00008152f35b503461039d57602036600319011261039d576001600160a01b03906040908261058a613f34565b1681526001602052206102205280610220515416610140526001610220510154166105ba6002610220510161408e565b610160526105cd6003610220510161408e565b6101a05260046102205101546101205260ff60056102205101549160066102205101546007610220510154600861022051015461ffff600961022051015416600a610220510154600b6102205101549087600c6102205101541692600d61022051015494600e61022051015496600f610220510154986106f66106e160106102205101549c6011610220510154608052601261022051015460a05261ffff60136102205101541660e05260146102205101546102005260156102205101546101e05260166102205101546101c05260176102205101546101805260186102205101546101005260405160c052610380906101405160c05152602060c051015280604060c051015260c0510161016051614130565b60c0518103606060c05101526101a051614130565b9c61012051608060c051015260a060c051015260c08051015260e060c051015261010060c051015261012060c051015261014060c051015261016060c051015261018060c05101526101a060c05101526101c060c05101526101e060c051015281811661020060c0510152818160081c16151561022060c051015260101c16151561024060c051015260805161026060c051015260a05161028060c051015260e0516102a060c0510152610200516102c060c05101526101e0516102e060c05101526101c05161030060c05101526101805161032060c051015260ff6101005116151561034060c051015260ff6101005160081c16151561036060c051015260c051900360c051f35b503461039d57602036600319011261039d576020906040906001600160a01b03610827613f34565b168152600c83522054604051908152f35b503461039d57604036600319011261039d57610852613f34565b604061085c613f4a565b9260018060a01b03809316815260196020522091165f52602052602060ff60405f2054166040519015158152f35b503461039d57604036600319011261039d5760406108a6613f4a565b9160043581526009602052209060018060a01b03165f52602052602060ff60405f2054166040519015158152f35b503461039d578060031936011261039d576020600b54604051908152f35b503461039d578060031936011261039d57600f546040516001600160a01b039091168152602090f35b503461039d57602036600319011261039d576020906040906001600160a01b03610943613f34565b168152600783522054604051908152f35b503461039d5760208060031936011261040a5761096f613f34565b610977614683565b6001600160a01b03168083526001825260408320601081015460081c60ff16610bc4578184526003835260ff60036040862001541615610b90578184526004835260408420335f52835260405f2054908115610b5e579084918383526004855260408320335f5285528260405f2055829060ff600c820154166001811015610b54575b6002811015610b25575b60031115610afa575b93839492849392610a31612710610a2a60068897015493846141c1565b0482614249565b9182151580610af1575b15610ae757610a5292610a4d916141c1565b6141d4565b905b610a5f8215156143bf565b80835260148752610a7682604085205410156143f5565b82526014865260408220610a8b828254614249565b9055335af1610a98614446565b5015610ab3575060015f80516020615f9c8339815191525580f35b6064906040519062461bcd60e51b82526004820152600d60248201526c1499599d5b990819985a5b1959609a1b6044820152fd5b5050508190610a54565b50811515610a3b565b919250610d488101809111610b1157859291610a0d565b634e487b7160e01b86526011600452602486fd5b92935090610ce48101809111610b4057869392909190610a04565b634e487b7160e01b87526011600452602487fd5b610ce492506109fa565b60405162461bcd60e51b815260048101859052600a60248201526927379031b7b73a3934b160b11b6044820152606490fd5b60405162461bcd60e51b815260048101849052600c60248201526b139bdd08195e1958dd5d195960a21b6044820152606490fd5b60405162461bcd60e51b815260048101849052600660248201526541637469766560d01b6044820152606490fd5b503461039d57604036600319011261039d57610c0c613f34565b6001600160a01b0390811682526015602052604082208054602435939084101561039d5750602092610c3d91613fc8565b9190546040519260031b1c168152f35b503461039d57604036600319011261039d57610c67613f34565b6040610c71613f4a565b9260018060a01b03809316815260186020522091165f52602052602060ff60405f2054166040519015158152f35b503461039d5760208060031936011261040a576001600160a01b0380610cc3613f34565b1683526001825260408320600a8101546276a7008101809111610dd6574210610da75760108101805460ff8160081c1615610d7757916001917f04e2738c0439b38c78e2d8e54bffb925f2949894f0eed5c60b7772b5da77edec949361ff0019169055018181541685526016845260408520610d3f81546144b4565b905554169182845260158152604084205460168252601760408620549252610d7160408620546040519384938461400a565b0390a280f35b60405162461bcd60e51b81526004810186905260086024820152671499599d5b99195960c21b6044820152606490fd5b60405162461bcd60e51b8152600481018490526007602482015266139bdd080e4c1960ca1b6044820152606490fd5b634e487b7160e01b85526011600452602485fd5b503461039d578060031936011261039d5760206040516706f05b59d3b200008152f35b503461039d57606036600319011261039d57610e27613f34565b610e2f613f4a565b906044356001600160401b038111610fd657610e4f903690600401613fdd565b9260018060a01b038093169283865260209160018352610e7b60ff601060408a20015460081c16614510565b16938415610fd257338514610fd257838652601b825260408620335f52825260405f20855f52825260ff60405f205416610fa2578490848752601b835260408720335f52835260405f20825f528352847f1d0233127b9ee34261fa558aafd3001a764f70f77fc3bba2f9edc8219517db84610f3560405f209660ff1997600189825416179055838b52601a875260408b20865f52875260405f20610f1f81546144b4565b9055604051918291888352339689840191614494565b0390a4828552601a815260408520845f528152600560405f20541015610f59578480f35b828552601981526040852090845f5252600160405f20918254161790557fd579c7d4bfb21d06c84a7d5c919b63a886c23fb57457c2da53117e7843ef0bd08380a35f8080808480f35b60405162461bcd60e51b815260048101839052600860248201526714995c1bdc9d195960c21b6044820152606490fd5b8580fd5b8380fd5b503461039d5760208060031936011261040a576001600160a01b0380610ffe613f34565b16918284526001815260408420601081019081549361102260ff8660081c16614334565b61103260ff8660101c1615614385565b6001820154168652600783526040862054621275008101809111610b405742106110ec57600601928354156110bc5762ff000019166201000017905582845260039081905260408420428155600181018590559154600283015501805460ff191690557f334735b0c8438283143afcb13d4c2b5e01c6bbe0eae4c6433bde5008a5d9a8618280a280f35b60405162461bcd60e51b81526004810184905260086024820152674e6f2066756e647360c01b6044820152606490fd5b60405162461bcd60e51b815260048101849052600a6024820152694465762061637469766560b01b6044820152606490fd5b503461039d578060031936011261039d576020600d54604051908152f35b503461039d57602036600319011261039d576001600160a01b0361115e613f34565b16815260156020526040812054601660205261118d60408084205493601760205220546040519384938461400a565b0390f35b503461039d578060031936011261039d576020604051601e8152f35b503461039d578060031936011261039d576020600254604051908152f35b503461039d57602036600319011261039d576001600160a01b036111ed613f34565b168152600160205260406006818320015491601460205220549061118d6112148383614249565b6040519384938461400a565b503461039d57606036600319011261039d5761123a613f34565b90611243613f4a565b906044359260018060a01b039182851680950361128c5782604092168152601b6020522091165f5260205260405f20905f52602052602060ff60405f2054166040519015158152f35b5f80fd5b503461039d578060031936011261039d576020604051610e108152f35b503461039d57604036600319011261039d576112c7613f34565b60406112d1613f4a565b9260018060a01b03809316815260056020522091165f52602052602060405f2054604051908152f35b503461039d578060031936011261039d5733815260076020524260408220556040514281525f80516020615f1c83398151915260203392a280f35b503461039d578060031936011261039d57546040516001600160a01b039091168152602090f35b503461039d5760208060031936011261040a57611377613f34565b90611380614683565b6001600160a01b0391821680845260018083526040852090810154919390911633036114a25760ff600c826113bf836010600396015460081c16614510565b0154160361146f57818352600c8152604083205491821561143f578352600c81528260408120558280808085335af16113f6614446565b501561143b577f623aaf84687869efe3b904dd42bc0bd45020d407984041c86f9fe076be224708906040519283523392a260015f80516020615f9c8339815191525580f35b8280fd5b60405162461bcd60e51b81526004810183905260086024820152674e6f207374616b6560c01b6044820152606490fd5b6064906040519062461bcd60e51b82526004820152600c60248201526b4e6f7420636f6d706c65746560a01b6044820152fd5b60405162461bcd60e51b81526004810183905260076024820152662737ba103232bb60c91b6044820152606490fd5b503461039d57602036600319011261039d5760209060ff906040906001600160a01b036114fc613f34565b168152600684522054166040519015158152f35b503461039d5760208060031936011261040a5760a0916001600160a01b039182611538613f34565b1682526013815260ff604083205416926010825260408320541660118252604083205490601283526040842054926013815260ff60408620541694856115b1575b8561159e575b5060405195151586528501526040840152606083015215156080820152f35b601182526040902054151594505f61157f565b6012825260408120544210159550611579565b5061016036600319011261039d576004356001600160401b03811161040a576115f1903690600401613fdd565b6024356001600160401b038111610fd657611610903690600401613fdd565b9060c4359161ffff83168303610fd2576001600160401b036101043511610fd2576116566116443661010435600401613fdd565b9061164d614683565b60e435336146dd565b338652600a60205260ff60408720541661225a57600b549467016345785d8a000086018611610b405767016345785d8a0000860134106122255760b46084351061221357605a60a43510612201576103e861ffff8516116121ef57604435156121dd57606435156121cb57841580156121c3575b6121b1576007610144351015806121a3575b15612168576101243561210c575b60286101f461ffff86161115612104575b61170761170c91614373565b614373565b6040519097906001600160401b036115948201908111908211176120f057611594614988823960806115948201528061176761175060806115948401018a87614494565b611594830181036020611594850101528688614494565b60443560406115948401015230606061159484010152039082f09687156120e35761271061179b61ffff88166044356141c1565b0460a4356201518060a4350204620151801460a435151715612069576001600160a01b0389163b1561143b57604051630d823f8360e21b81523360048201526024810182905242604482015260a480356201518002606483015260c860848301528490829081836001600160a01b038f165af180156120c4579084916120cf575b5050603c42014211612069576001600160a01b0389163b1561143b576040516313a62fa960e11b815242603c0160048201528381602481836001600160a01b038f165af180156120c4579084916120b0575b50506001600160a01b0389163b1561143b57826118a091604051809381926340c10f1960e01b83523360048401614217565b0381836001600160a01b038e165af180156120a557908391612091575b505062278d004201421161207d576276a7004201421161207d576127106118e9610124356064356141c1565b0461014435620151806101443502046201518014610144351517156120695761191a620151806101443502426141f2565b604051916001600160401b03610380840190811190841117611eb35761038083016040526001600160a01b038b16835233602084015261195b368b886144c2565b604084015261196b36888a6144c2565b6060840152604435608084015260643560a08401528460c084015260843560e084015260a43561010084015261ffff891661012084015242610140840152603c420161016084015284610180840152426101a084015262278d0042016101c08401526276a70042016101e084015260ff8c1661020084015260016102208401528461024084015260146064350461026084015284610280840152610bb86102a0840152846102c0840152846102e0840152610300830152610320820152826103408201528261036082015260018060a01b038916835260016020526040832060018060a01b0382511660018060a01b03199081835416178255600182019060018060a01b0360208501511690825416179055604082015180519060018060401b038211611f8c578190611aa16002850154614020565b601f8111612019575b50602090601f8311600114611fab578792611fa0575b50508160011b915f199060031b1c19161760028201555b60608201518051906001600160401b038211611f8c57611afa6003840154614020565b601f8111611f48575b50602090601f8311600114611ed257928261036093601893611c9697968a92611ec7575b50508160011b915f199060031b1c19161760038201555b6080840151600482015560a0840151600582015560c0840151600682015560e0840151600782015561010084015160088201556009810161ffff6101208601511661ffff19825416179055610140840151600a820155610160840151600b82015560ff6101808501511660ff19600c8301541617600c8201556101a0840151600d8201556101c0840151600e8201556101e0840151600f8201556010810160ff6102008601511660ff19825416178155611bff6102208601511515826144f8565b610240850151151562ff000082549160101b169062ff00001916179055610260840151601182015561028084015160128201556013810161ffff6102a08601511661ffff198254161790556102c084015160148201556102e08401516015820155610300840151601682015561032084015160178201550191610340810151151560ff8019855416911617835501511515906144f8565b6001600160a01b038816808352601960209081526040808520335f9081529083528190208054600160ff199182168117909255938652600690925284208054909216179055600254600160401b811015611eb357806001611cfa9201600255613f9c565b81546001600160a01b038b811660039390931b92831b921b191617905533825260156020526040822080549091600160401b821015611eb357611d4f82611d8294600167016345785d8a000095018155613fc8565b81546001600160a01b038d811660039390931b92831b921b19161790553384526007602052604084204290550134614249565b81600b5480611e89575b50506001600160a01b0388168252600c6020526040822067016345785d8a0000905580611e6d575b5050611de860ff9360209893611ddb61ffff94604051996101008b526101008b0191614494565b918883038b8a0152614494565b60443560408701526064356060870152608435608087015260a43560a0870152931660c08501521660e083015233916001600160a01b038416917f174b1c441c7e1607660f9ad04ce58cc91786c18b1431b4814b707f3f6f8b3236919081900390a360015f80516020615f9c833981519152556040516001600160a01b039091168152f35b8180808093335af1611e7d614446565b501561039d5780611db4565b600e54829182918291906001600160a01b03165af1611ea6614446565b501561040a57815f611d8c565b634e487b7160e01b5f52604160045260245ffd5b015190505f80611b27565b906003840187526020872091875b601f1985168110611f30575083601893611c9697969360019361036097601f19811610611f18575b505050811b016003820155611b3e565b01515f1960f88460031b161c191690555f8080611f08565b91926020600181928685015181550194019201611ee0565b60038401875260208720601f840160051c810160208510611f85575b601f830160051c82018110611f7a575050611b03565b888155600101611f64565b5080611f64565b634e487b7160e01b86526041600452602486fd5b015190505f80611ac0565b9250600284018752602087209087935b601f1984168510611ffe576001945083601f19811610611fe6575b505050811b016002820155611ad7565b01515f1960f88460031b161c191690555f8080611fd6565b81810151835560209485019460019093019290910190611fbb565b90915060028401875260208720601f840160051c810160208510612062575b90849392915b601f830160051c82018110612054575050611aaa565b89815585945060010161203e565b5080612038565b634e487b7160e01b83526011600452602483fd5b634e487b7160e01b82526011600452602482fd5b61209a90614058565b61040a57815f6118bd565b6040513d85823e3d90fd5b6120b990614058565b61143b57825f61186e565b6040513d86823e3d90fd5b6120d890614058565b61143b57825f61181c565b50604051903d90823e3d90fd5b634e487b7160e01b82526041600452602482fd5b50603c6116fb565b6107d061012435101580612159575b6116ea5760405162461bcd60e51b81526020600482015260126024820152710494c3a496e76616c696420736f66746361760741b6044820152606490fd5b5061271061012435111561211b565b60405162461bcd60e51b815260206004820152601360248201527224a61d24b73b30b634b210323ab930ba34b7b760691b6044820152606490fd5b50601e6101443511156116dc565b60405163519a33eb60e01b8152600490fd5b5081156116ca565b604051634cf6431360e01b8152600490fd5b60405163c16f3a9360e01b8152600490fd5b6040516347c47a3560e01b8152600490fd5b604051631dd59aab60e31b8152600490fd5b6040516357e4eb0960e01b8152600490fd5b60405162461bcd60e51b815260206004820152600d60248201526c4c6f77206665652b7374616b6560981b6044820152606490fd5b60405162461bcd60e51b815260206004820152600b60248201526a109b1858dadb1a5cdd195960aa1b6044820152606490fd5b503461039d578060031936011261039d5760206040516107d08152f35b503461039d57602036600319011261039d576020906001600160a01b0390604090826122d4613f34565b16815260108452205416604051908152f35b5060208060031936011261040a576122fc613f34565b612304614683565b60018060a01b0380911690818452600183526040842060ff61232e81601084015460081c16614334565b601782015442101561286f57601882019080825460081c1661283a5734156128035784875260138652806040882054166127cb57600683016123713482546141f2565b926005850193845410612798578689526004885260408920335f52885260405f2054601186015490888b5260058a5260408b20335f528a5260405f2054916123bf600b8901549234906141f2565b1161275757421090816126f7575b506126d1575b8689526019885260408920335f5288528260405f2054166126a2578692918891848b526018835260408b20335f5283528360405f2054161561266e575b848b526004835260408b20335f52835260405f2061242f3482546141f2565b905561243c3483546141f2565b8255848b526014835260408b206124543482546141f2565b90558054938416158061265f575b612622575b50505050600483015491549050801561261a57610a4d6124889234906141c1565b80156125e9576040516370a0823160e01b8152600481018590528581602481885afa80156125de57829188916125ad575b501061257b578590843b1561040a57816124e891604051809381926307f57da760e11b83523360048401614217565b038183895af1801561257057612558575b505060010154163314612546575b7f188177a91f9b084dadc3c86215ff29aa75ddaf05ed75983c8c498c40989d58c9604051923484523393a360015f80516020615f9c8339815191525580f35b33835260078252426040842055612507565b61256190614058565b61256c57845f6124f9565b8480fd5b6040513d84823e3d90fd5b60405162461bcd60e51b815260048101869052600a6024820152694c6f7720746f6b656e7360b01b6044820152606490fd5b809250878092503d83116125d7575b6125c6818361406b565b8101031261128c578190515f6124b9565b503d6125bc565b6040513d89823e3d90fd5b60405162461bcd60e51b8152600481018690526009602482015268151bdbc81cdb585b1b60ba1b6044820152606490fd5b505084612488565b60017f127a0d60b64e68d983855c4d67e59aab432c3fded72f4317958b05a2eb1dbe0f9460ff191617905554604051908152a2835f868180612467565b50815460168801541115612462565b848b526018835260408b20335f52835260405f20600160ff198254161790556012870161269b81546144b4565b9055612410565b60405162461bcd60e51b8152600481018990526007602482015266109b1bd8dad95960ca1b6044820152606490fd5b8689526005885260408920335f52885260405f206126f03482546141f2565b90556123d3565b61270b6706f05b59d3b200009134906141f2565b11612716575f6123cd565b60405162461bcd60e51b8152600481018a90526019602482015278494c3a4d617820302e3520424e4220616e74692d736e69706560381b6044820152606490fd5b60405162461bcd60e51b8152600481018b905260196024820152780494c3a45786365656473207065722d77616c6c65742063617603c1b6044820152606490fd5b60405162461bcd60e51b815260048101899052600b60248201526a045786365656473206361760ac1b6044820152606490fd5b60405162461bcd60e51b815260048101879052601060248201526f131408185b1c9958591e48185919195960821b6044820152606490fd5b60405162461bcd60e51b815260048101879052600f60248201526e27379031b7b73a3934b13aba34b7b760891b6044820152606490fd5b60405162461bcd60e51b815260048101879052600d60248201526c105d5d1bcb5c99599d5b991959609a1b6044820152606490fd5b60405162461bcd60e51b815260048101869052600d60248201526c141c995cd85b1948195b991959609a1b6044820152606490fd5b503461039d57604036600319011261039d576128be613f34565b6024356001600160401b03811161143b576128dd903690600401613fdd565b90916128e76146b2565b6001600160a01b0316918215610fd657828452600a602052604084209182549260ff8416610fd25760015f80516020615f5c8339815191529460ff1916179055610d71604051928392602084526020840191614494565b503461039d5760208060031936011261040a576004359061295d6146b2565b600d54908390600254905b818310612a20575050508047115f14612a19576129859047614249565b81116129dd5760018060a01b038280808085858254165af16129a5614446565b501561143b5760207f4a6188559939e4ee223b5f2a5b165b7aea756e7765ce9c3a41ee92e8bfe7bcf89184541692604051908152a280f35b60405162461bcd60e51b81526020600482015260146024820152734578636565647320776974686472617761626c6560601b6044820152606490fd5b5081612985565b909192612a7a612a59600192612a3587613f9c565b929091858060a01b03809354600395861b1c168b526014875260408b2054906141f2565b91612a6388613f9c565b9054911b1c168852600c84526040882054906141f2565b93019190612968565b503461039d578060031936011261039d57612a9c6146b2565b5f80546001600160a01b0319811682556001600160a01b03165f80516020615f3c8339815191528280a380f35b503461039d578060031936011261039d576020604051605a8152f35b503461039d578060031936011261039d576020604051600a8152f35b503461039d57602036600319011261039d576004359060025482101561039d576020612b2c83613f9c565b905460405160039290921b1c6001600160a01b03168152f35b503461039d578060031936011261039d57600e546040516001600160a01b039091168152602090f35b503461039d57602036600319011261039d5760209060ff906010906040906001600160a01b03612b9c613f34565b1681526001855220015416604051908152f35b503461039d57602036600319011261039d576020906040906001600160a01b03612bd7613f34565b168152601783522054604051908152f35b503461039d57602036600319011261039d5760209060ff906040906001600160a01b03612c13613f34565b168152601384522054166040519015158152f35b503461039d578060031936011261039d57602060405160c88152f35b503461039d578060031936011261039d576020604051610bb88152f35b503461039d57602036600319011261039d57612c7a613f34565b612c826146b2565b6001600160a01b03168152600a60205260408120805460ff81161561143b5760ff1916905580f35b503461128c57602036600319011261128c57612cc4613f34565b612ccc614683565b6001600160a01b038181165f90815260016020819052604090912090810154909291161561326757600f546001600160a01b031615613255576001600160a01b0381165f9081526013602052604090205460ff16613243576006820154600583015411801590613214575b156131ff576001600160a01b0381165f908152601360205260409020805460ff19166001179055601482015480156131ef575b80156131dd576040516370a0823160e01b81526001600160a01b03831660048201819052909290602090849060249082905afa92831561318c575f936131a9575b508215613197576001600160a01b0381163b1561128c576040516307f57da760e11b81525f8180612de0873060048401614217565b0381836001600160a01b0387165af1801561318c57613179575b50600f5460405163095ea7b360e01b81529060209082908190612e2b9088906001600160a01b031660048401614217565b0381896001600160a01b0387165af1801561316e5761313f575b50600f546001600160a01b0316924261012c810191908210610b40579060c460609285604051978894859363f305d71960e01b855260018060a01b038916600486015260248501528b60448501528b606485015230608485015260a48401525af18015613134578592869487926130ef575b50600f5460405163c45a015560e01b815296906001600160a01b0316602088600481845afa9788156130bf5789986130ca575b506020600491604051928380926315ab88c960e31b82525afa80156130bf576020918a916130a2575b5060405163e6a4390560e01b81526001600160a01b03878116600483015291821660248201529889916044918391165afa968715613097578897613063575b506001600160a01b038481168952601060209081526040808b2080546001600160a01b0319169a909316998a179092556011905288208390556007015462015180808202918015908304909114171561304f579161303291612fd77f4a1a2a6176e9646d9e3157f7c2ab3c499f18337c0b0828cfb28e0a61de4a11f7969594426141f2565b6001600160a01b0385168a52601260205260408a20558610156130495760146020526130078660408a2054614249565b6001600160a01b039390931680895260146020526040808a209490945592519295929384938461400a565b0390a360015f80516020615f9c8339815191525580f35b87613007565b634e487b7160e01b88526011600452602488fd5b60079197506130899060203d602011613090575b613081818361406b565b810190614475565b9690612f52565b503d613077565b6040513d8a823e3d90fd5b6130b99150823d841161309057613081818361406b565b5f612f13565b6040513d8b823e3d90fd5b60049198506130e7602091823d841161309057613081818361406b565b989150612eea565b93509350506060823d60601161312c575b8161310d6060938361406b565b8101031261256c5781519260406020840151930151939293905f612eb7565b3d9150613100565b6040513d87823e3d90fd5b6131609060203d602011613167575b613158818361406b565b8101906141ff565b505f612e45565b503d61314e565b6040513d88823e3d90fd5b613184919550614058565b5f935f612dfa565b6040513d5f823e3d90fd5b60405163c4961dd160e01b8152600490fd5b9092506020813d6020116131d5575b816131c56020938361406b565b8101031261128c5751915f612dab565b3d91506131b8565b60405163f727cdc360e01b8152600490fd5b50601460205260405f2054612d6a565b6040516001620b806b60e21b03198152600490fd5b50600a82015462278d00810180911161322f57421015612d37565b634e487b7160e01b5f52601160045260245ffd5b604051630fd02b6d60e41b8152600490fd5b60405163179ce99f60e01b8152600490fd5b604051630cbdb7b360e41b8152600490fd5b3461128c575f36600319011261128c57602060405160b48152f35b3461128c5760208060031936011261128c576001600160a01b0390816132b8613f34565b165f526015815260405f2091604051809384918482549182815201915f52845f20935f905b868383106133075785906132f38287038361406b565b61118d604051928284938452830190613f60565b86548216855260019687019689965094019391909101906132dd565b3461128c57602036600319011261128c5761333c613f34565b6133446146b2565b6001600160a01b0316801561128c57600880546001600160a01b031916821790557fd24015cc99cc1700cafca3042840a1d8ac1e3964fd2e0e37ea29c654056ee3275f80a2005b3461128c57602036600319011261128c577fc799be5eb19a1a6d6ba7368d21e2bc367c8a335e4a07cd3d954482e6f714d3c560206004356133ca6146b2565b80600b55604051908152a1005b3461128c575f36600319011261128c5760206040516113888152f35b3461128c5760208060031936011261128c5761340d613f34565b90613416614683565b6001600160a01b039182165f8181526001835260409020601081015460ff94929091613447600884901c8716614334565b60068101549260058201548410801590613795575b1561375d57601682015461371b575b86601883015460081c166136e757600c8201936001888654160188811161322f57881697600389116136b3576001890361368d57600d84015492610ce4935b421061365e57906134bf9160101c1615614385565b60028814613621575b6134ed8392612710926015600196019081541580613618575b6135ec575b50546141c1565b04936134fa8515156143bf565b835f52601487526135118560405f205410156143f5565b835f526014875260405f20613527868254614249565b90558760ff198254161790550191838354165f52600785524260405f20555f80808084888854165af1613558614446565b50156135b95760405f80516020615f1c83398151915295967f4e5aa23f880bbca96aed4c566a1cbe6e67feb3c167b58c9936cee9cad10ba3dd92825191825288820152a2541691604051428152a260015f80516020615f9c83398151915255005b60405162461bcd60e51b815260048101869052600b60248201526a1619995c8819985a5b195960aa1b6044820152606490fd5b613610908561360361ffff60138a015416836141c1565b0490816014890155614249565b81558b6134e6565b508015156134e1565b600a601284015410156134c85760405162461bcd60e51b81526004810188905260086024820152674e6565642031302b60c01b6044820152606490fd5b60405162461bcd60e51b8152600481018a90526007602482015266139bdd081e595d60ca1b6044820152606490fd5b600289036136a457600e84015492610ce4936134aa565b600f84015492610d48936134aa565b60405162461bcd60e51b815260048101899052600c60248201526b105b1b081c995b19585cd95960a21b6044820152606490fd5b60405162461bcd60e51b815260048101879052600c60248201526b15d85cc81c99599d5b99195960a21b6044820152606490fd5b8660188301541661346b5760405162461bcd60e51b815260048101879052600f60248201526e14dbd99d18d85c081b9bdd081a1a5d608a1b6044820152606490fd5b60405162461bcd60e51b815260048101879052601060248201526f526169736520696e636f6d706c65746560801b6044820152606490fd5b50600a82015462278d00810180911161322f5742101561345c565b3461128c575f36600319011261128c57602060405160058152f35b3461128c57604036600319011261128c576137e4613f34565b6137ec613f4a565b9060018060a01b038091165f52601a60205260405f2091165f52602052602060405f2054604051908152f35b3461128c57602036600319011261128c576001600160a01b03613839613f34565b165f526014602052602060405f2054604051908152f35b3461128c57604036600319011261128c57613886613872602435600435614256565b604051928392604084526040840190613f60565b9060208301520390f35b3461128c5760208060031936011261128c576138aa613f34565b6138b2614683565b60018060a01b0380911690815f5260018352600160405f2001928184541633036139e157825f526013815260ff60405f205416156131ff57825f526012815260405f205442106139cf57825f526011815260405f2054156139bd5761395091835f526011825260405f20945f865496556010835282868360405f205416848454165f60405180998195829463a9059cbb60e01b845260048401614217565b03925af193841561318c577f9796b9c1e41a3a5adfe8c1b43d4fa0fab73b8c65c99f99ead85e6405e74f284e946139a0575b50541693604051908152a360015f80516020615f9c83398151915255005b6139b690843d861161316757613158818361406b565b5086613982565b604051630c8d9eab60e31b8152600490fd5b604051634fbae7a360e01b8152600490fd5b60405163f53bda4160e01b8152600490fd5b3461128c57602036600319011261128c576001600160a01b03613a14613f34565b165f526011602052602060405f2054604051908152f35b3461128c575f36600319011261128c576008546040516001600160a01b039091168152602090f35b3461128c575f36600319011261128c57604051600280548083525f918252602080840193927f405787fa12a823e0f2b7631cc41b3ba8828b3321ca811111fa75cd3aa3bb5ace92915b828210613ac75761118d85613ab38189038261406b565b604051918291602083526020830190613f60565b83546001600160a01b031686529485019460019384019390910190613a9c565b3461128c57604036600319011261128c57613b00613f34565b613b08613f4a565b9060018060a01b038091165f52600460205260405f2091165f52602052602060405f2054604051908152f35b3461128c575f36600319011261128c576020604051603c8152f35b3461128c57602036600319011261128c576001600160a01b03613b70613f34565b165f52600360205260405f20600160205260ff601060405f20015460101c1680613bd3575b80613ba8575b6020906040519015158152f35b50600260018201549101549060338202918083046033149015171561322f5760646020920410613b9b565b5060ff60038201541615613b95565b3461128c575f36600319011261128c5760206040516107d08152f35b3461128c57602036600319011261128c576001600160a01b03613c1f613f34565b165f526003602052608060405f2080549060018101549060ff6003600283015492015416916040519384526020840152604083015215156060820152f35b3461128c57602036600319011261128c576001600160a01b03613c7e613f34565b165f526016602052602060405f2054604051908152f35b3461128c57604036600319011261128c57613cae613f34565b602435801515810361128c5760018060a01b038216805f5260209060018252613ce360ff601060405f20015460101c16614154565b805f526003825260405f209260048401335f5280845260ff60405f205416613e2557825f526004845260405f20335f52845260405f205415613dee57613d3060ff6003870154161561418a565b335f5283528060405f20600160ff19825416179055613dc3575b15613dae57805f526004825260405f20335f5282525f80516020615f7c83398151915260405f2054925b6040519384523393a36002600182015491015460338102908082046033149015171561322f576064900410613da557005b61001990614549565b5f80516020615f7c8339815191525f92613d74565b815f526004835260405f20335f52835260405f2054613de7600186019182546141f2565b9055613d4a565b60405162461bcd60e51b815260048101859052600f60248201526e2737ba1031b7b73a3934b13aba37b960891b6044820152606490fd5b60405162461bcd60e51b815260048101859052600d60248201526c105b1c9958591e481d9bdd1959609a1b6044820152606490fd5b3461128c575f36600319011261128c57602060405160078152f35b3461128c57602036600319011261128c57613e8e613f34565b6001600160a01b0381165f818152600160205260409020601090810154613eb8911c60ff16614154565b5f52600360205260405f20613ed460ff6003830154161561418a565b6002600182015491015460338102908082046033149015171561322f57606490041015613f045761001990614549565b60405162461bcd60e51b81526020600482015260086024820152674e6565642035312560c01b6044820152606490fd5b600435906001600160a01b038216820361128c57565b602435906001600160a01b038216820361128c57565b9081518082526020808093019301915f5b828110613f7f575050505090565b83516001600160a01b031685529381019392810192600101613f71565b600254811015613fb45760025f5260205f2001905f90565b634e487b7160e01b5f52603260045260245ffd5b8054821015613fb4575f5260205f2001905f90565b9181601f8401121561128c578235916001600160401b03831161128c576020838186019501011161128c57565b6040919493926060820195825260208201520152565b90600182811c9216801561404e575b602083101461403a57565b634e487b7160e01b5f52602260045260245ffd5b91607f169161402f565b6001600160401b038111611eb357604052565b601f909101601f19168101906001600160401b03821190821017611eb357604052565b9060405191825f82546140a081614020565b908184526020946001916001811690815f1461410e57506001146140d0575b5050506140ce9250038361406b565b565b5f90815285812095935091905b8183106140f65750506140ce93508201015f80806140bf565b855488840185015294850194879450918301916140dd565b925050506140ce94925060ff191682840152151560051b8201015f80806140bf565b805180835260209291819084018484015e5f828201840152601f01601f1916010190565b1561415b57565b60405162461bcd60e51b81526020600482015260076024820152664e6f20766f746560c81b6044820152606490fd5b1561419157565b60405162461bcd60e51b8152602060048201526008602482015267115e1958dd5d195960c21b6044820152606490fd5b8181029291811591840414171561322f57565b81156141de570490565b634e487b7160e01b5f52601260045260245ffd5b9190820180921161322f57565b9081602091031261128c5751801515810361128c5790565b6001600160a01b039091168152602081019190915260400190565b6001600160401b038111611eb35760051b60200190565b9190820391821161322f57565b9160025491828410156143085761426d90846141f2565b928284116142ff575b6142808185614249565b936142a361428d86614232565b9561429b604051978861406b565b808752614232565b602090601f1901368783013785835b8381106142c0575050505050565b6142c981613f9c565b9190546142d68783614249565b908451821015613fb4576001938691858060a01b039160031b1c169160051b85010152016142b2565b92508192614276565b5060405191925090602081016001600160401b03811182821017611eb3576040525f81525f3681379190565b1561433b57565b60405162461bcd60e51b815260206004820152601060248201526f546f6b656e206e6f742061637469766560801b6044820152606490fd5b60ff60149116019060ff821161322f57565b1561438c57565b60405162461bcd60e51b815260206004820152600b60248201526a566f74652061637469766560a81b6044820152606490fd5b156143c657565b60405162461bcd60e51b81526020600482015260076024820152664e6f7468696e6760c81b6044820152606490fd5b156143fc57565b60405162461bcd60e51b8152602060048201526007602482015266131bddc818985b60ca1b6044820152606490fd5b6001600160401b038111611eb357601f01601f191660200190565b3d15614470573d906144578261442b565b91614465604051938461406b565b82523d5f602084013e565b606090565b9081602091031261128c57516001600160a01b038116810361128c5790565b908060209392818452848401375f828201840152601f01601f1916010190565b5f19811461322f5760010190565b9291926144ce8261442b565b916144dc604051938461406b565b82948184528183011161128c578281602093845f960137010152565b9061ff00825491151560081b169061ff001916179055565b1561451757565b60405162461bcd60e51b815260206004820152600a6024820152694e6f742061637469766560b01b6044820152606490fd5b60018060a01b0380911690815f526017602060018152604092835f206003835260016003865f20019160ff199282848254161790556010810161ff001981541690550190828254165f52600a8452855f209081549060ff82161561463f575b505050855f52600c8352845f20805490816145f9575b505054165f52525f206145d181546144b4565b90557fae7f97db0b8177e27e4396c4575565840aa5920187184c9568c3b5d47f8eba8a5f80a2565b5f905561460881600d546141f2565b600d557f06e238cf96f0c12e531d3336078c024f62deadfcf747156940fbafdeced98f348484845416928851908152a25f806145be565b60019116179055818154165f80516020615f5c83398151915260608751868152600d878201526c1499599d5b99081c185cdcd959609a1b89820152a25f80806145a8565b5f80516020615f9c83398151915260028154146146a05760029055565b604051633ee5aeb560e01b8152600490fd5b5f546001600160a01b031633036146c557565b60405163118cdaa760e01b8152336004820152602490fd5b90801561484c5780421161481757805f5260209160098352604094855f209460018060a01b039283811696875f52865260ff885f2054166147e6579161477b6147819261478a95948a51614747816147398b8d83019586614217565b03601f19810183528261406b565b5190207b0ca2ba3432b932bab69029b4b3b732b21026b2b9b9b0b3b29d05199960211b5f52601c52603c5f209236916144c2565b90614852565b9093919361488c565b80600854169116036147b2575f5260098152825f20915f52525f20600160ff19825416179055565b835162461bcd60e51b815260048101839052600d60248201526c24b73b30b634b210383937b7b360991b6044820152606490fd5b875162461bcd60e51b815260048101879052600a602482015269141c9bdbd9881d5cd95960b21b6044820152606490fd5b60405162461bcd60e51b815260206004820152600d60248201526c141c9bdbd988195e1c1a5c9959609a1b6044820152606490fd5b50505050565b81519190604183036148825761487b9250602082015190606060408401519301515f1a9061490f565b9192909190565b50505f9160029190565b60048110156148fb578061489e575050565b600181036148b85760405163f645eedf60e01b8152600490fd5b600281036148d95760405163fce698f760e01b815260048101839052602490fd5b6003146148e35750565b602490604051906335e2f38360e21b82526004820152fd5b634e487b7160e01b5f52602160045260245ffd5b91906fa2a8918ca85bafe22016d0b997e4df60600160ff1b03841161497c579160209360809260ff5f9560405194855216868401526040830152606082015282805260015afa1561318c575f516001600160a01b0381161561497257905f905f90565b505f906001905f90565b5050505f916003919056fe604060808152346103c5576115948038038061001a816103c9565b92833981016080828203126103c55781516001600160401b03908181116103c557826100479185016103ee565b9060209283850151908282116103c5576100629186016103ee565b8585015160609095015190926001600160a01b0392838316928390036103c55781518181116102da576003908154906001948583811c931680156103bb575b8a8410146103a7578190601f93848111610359575b508a908483116001146102f9575f926102ee575b50505f1982851b1c191690851b1782555b86519283116102da5760049687548581811c911680156102d0575b8a8210146102bd5782811161027a575b5088918411600114610218579383949184925f9561020d575b50501b925f19911b1c19161783555b80156101f757600580546001600160a01b031981168317909155865192167f8be0079c531659141344cd1fd0a4f28419497f9722a3daafe3b4186f6b6457e05f80a330156101e45750600254908382018092116101d157505f917fddf252ad1be2c89b69c2b068fc378daa952ba7f163c4a11628f55a4df523b3ef9160025530835282815284832084815401905584519384523093a35161115490816104408239f35b601190634e487b7160e01b5f525260245ffd5b5f60249263ec442f0560e01b8352820152fd5b8551631e4fbdf760e01b81525f81850152602490fd5b015193505f8061011f565b9190601f19841692885f52848a5f20945f5b8c89838310610263575050501061024a575b50505050811b01835561012e565b01519060f8845f19921b161c191690555f80808061023c565b86860151895590970196948501948893500161022a565b885f52895f208380870160051c8201928c88106102b4575b0160051c019086905b8281106102a9575050610106565b5f815501869061029b565b92508192610292565b602289634e487b7160e01b5f525260245ffd5b90607f16906100f6565b634e487b7160e01b5f52604160045260245ffd5b015190505f806100ca565b5f8681528c8120899550929190601f198516908e5b828210610342575050841161032b575b505050811b0182556100db565b01515f1983871b60f8161c191690555f808061031e565b8385015186558b979095019493840193018e61030e565b909150845f528a5f208480850160051c8201928d861061039e575b918991869594930160051c01915b8281106103905750506100b6565b5f8155859450899101610382565b92508192610374565b634e487b7160e01b5f52602260045260245ffd5b92607f16926100a1565b5f80fd5b6040519190601f01601f191682016001600160401b038111838210176102da57604052565b81601f820112156103c5578051906001600160401b0382116102da5761041d601f8301601f19166020016103c9565b92828452602083830101116103c557815f9260208093018386015e830101529056fe608060409080825260049081361015610016575f80fd5b5f3560e01c90816306fdde03146108a857508063095ea7b3146107ff5780630e48fb1c146107e15780630feafb4e146107b45780631514617e1461079657806318160ddd1461077857806323b872dd1461073c578063254800d41461071e578063274c5f52146106d2578063313ce567146106b75780633608fe0c1461056c57806340c10f19146104e757806342966c68146104ca57806344b1231f146104ae5780634c20179e146104905780636d515c9f1461047257806370a0823114610446578063710820ed14610424578063715018a6146103dc57806379cc6790146103ab5780638da5cb5b1461038357806391cca3db1461035b57806395d89b4114610258578063a9059cbb14610228578063b4a7a1871461020a578063dd62ed3e146101c15763f2fde38b14610149575f80fd5b346101bd5760203660031901126101bd576101626109aa565b9061016b6109f0565b6001600160a01b039182169283156101a7575050600580546001600160a01b031981168417909155165f805160206110bf8339815191525f80a3005b905f6024925191631e4fbdf760e01b8352820152fd5b5f80fd5b82346101bd57806003193601126101bd576020906101dd6109aa565b6101e56109c0565b9060018060a01b038091165f5260018452825f2091165f528252805f20549051908152f35b82346101bd575f3660031901126101bd57602090600d549051908152f35b82346101bd57806003193601126101bd576020906102516102476109aa565b6024359033610a1c565b5160018152f35b5090346101bd575f3660031901126101bd578051905f835460018160011c9060018316928315610351575b602093848410811461033e5783885290811561032257506001146102ea575b505050829003601f01601f19168201926001600160401b038411838510176102d757508291826102d3925282610980565b0390f35b604190634e487b7160e01b5f525260245ffd5b919250855f52825f2091835f935b83851061030e57505050508301015f80806102a2565b8054888601830152930192849082016102f8565b60ff1916878501525050151560051b84010190505f80806102a2565b602289634e487b7160e01b5f525260245ffd5b91607f1691610283565b82346101bd575f3660031901126101bd5760065490516001600160a01b039091168152602090f35b82346101bd575f3660031901126101bd5760055490516001600160a01b039091168152602090f35b82346101bd573660031901126101bd576103da6103c66109aa565b602435906103d5823383610a8e565b610b4d565b005b346101bd575f3660031901126101bd576103f46109f0565b600580546001600160a01b031981169091555f906001600160a01b03165f805160206110bf8339815191528280a3005b82346101bd575f3660031901126101bd5760209061ffff600b54169051908152f35b82346101bd5760203660031901126101bd5760209061046b6104666109aa565b6109d6565b9051908152f35b82346101bd575f3660031901126101bd57602090600c549051908152f35b82346101bd575f3660031901126101bd576020906008549051908152f35b82346101bd575f3660031901126101bd5760209061046b610ba7565b50346101bd5760203660031901126101bd576103da903533610b4d565b5090346101bd57806003193601126101bd576105016109aa565b906024359161050e6109f0565b6001600160a01b031692831561055757506020825f805160206110df8339815191529261053e5f95600254610b66565b60025585855284835280852082815401905551908152a3005b5f602492519163ec442f0560e01b8352820152fd5b50346101bd5760a03660031901126101bd576105866109aa565b60243590604435606435906084359261ffff84168094036101bd576105a96109f0565b600654906001600160a01b0390818316610674571695861561063157506001600160a01b031916851760065560088490556009819055600a829055600b805461ffff191684179055600d819055855193845260208401528285015260608201527fa081934bdd1ce0c982f003f443899b864936fcb9d9df105ca79a618fe3b03f2f90608090a2005b606490602089519162461bcd60e51b8352820152601f60248201527f49726f6e4c6f636b546f6b656e3a205a65726f206465762061646472657373006044820152fd5b885162461bcd60e51b81526020818a0152601e60248201527f49726f6e4c6f636b546f6b656e3a2044657620616c72656164792073657400006044820152606490fd5b82346101bd575f3660031901126101bd576020905160128152f35b50346101bd5760203660031901126101bd577ff8cc6c80b57c6abe70b0fdada2b8c21e6f11779d0efbf266f0b87f38c149bc509160209135906107136109f0565b8160075551908152a1005b82346101bd575f3660031901126101bd576020906009549051908152f35b82346101bd5760603660031901126101bd5760209061025161075c6109aa565b6107646109c0565b60443591610773833383610a8e565b610a1c565b82346101bd575f3660031901126101bd576020906002549051908152f35b82346101bd575f3660031901126101bd57602090600a549051908152f35b82346101bd573660031901126101bd576103da6107cf6109aa565b6107d76109f0565b6024359030610a1c565b82346101bd575f3660031901126101bd576020906007549051908152f35b5090346101bd57806003193601126101bd576108196109aa565b602435903315610892576001600160a01b031690811561087c5760209350335f5260018452825f20825f52845280835f205582519081527f8c5be1e5ebec7d5bd14f71427d1e84f3dd0314c0f7b2291e5b200ac8c7c3b925843392a35160018152f35b8251634a1406b160e11b81525f81860152602490fd5b825163e602df0560e01b81525f81860152602490fd5b905082346101bd575f3660031901126101bd575f60035460018160011c9060018316928315610976575b602093848410811461033e5783885290811561095a575060011461092157505050829003601f01601f19168201926001600160401b038411838510176102d757508291826102d3925282610980565b91925060035f52825f2091835f935b83851061094657505050508301018480806102a2565b805488860183015293019284908201610930565b60ff1916878501525050151560051b84010190508480806102a2565b91607f16916108d2565b602060409281835280519182918282860152018484015e5f828201840152601f01601f1916010190565b600435906001600160a01b03821682036101bd57565b602435906001600160a01b03821682036101bd57565b6001600160a01b03165f9081526020819052604090205490565b6005546001600160a01b03163303610a0457565b60405163118cdaa760e01b8152336004820152602490fd5b91906001600160a01b0380841615610a5857811615610a4057610a3e92610d9d565b565b60405163ec442f0560e01b81525f6004820152602490fd5b604051634b637e8f60e11b81525f6004820152602490fd5b604091949392606082019560018060a01b0316825260208201520152565b919060018060a01b0380931692835f526001602052604093845f2091831691825f52602052845f2054925f198410610ac9575b505050505050565b848410610b2b57508015610b14578115610afd575f526001602052835f20905f5260205203905f20555f8080808080610ac1565b8451634a1406b160e11b81525f6004820152602490fd5b845163e602df0560e01b81525f6004820152602490fd5b8390610b49868851938493637dc7a0d960e11b855260048501610a70565b0390fd5b906001600160a01b03821615610a5857610a3e91610c08565b91908201809211610b7357565b634e487b7160e01b5f52601160045260245ffd5b91908203918211610b7357565b81810292918115918404141715610b7357565b600954804210610c0357600a5490610bbf8282610b66565b421015610bfb57610bdd90610bd76008549142610b87565b90610b94565b8115610be7570490565b634e487b7160e01b5f52601260045260245ffd5b505060085490565b505f90565b6001600160a01b038181169081158015610d95575b610c33576006541680821480610d8a575b610c3f575b505090610a3e91610f41565b600d54620151808101809111610b7357421015610d7d575b610c68610c62610ba7565b916109d6565b80821015610d755750905b612710610c8960085461ffff600b541690610b94565b0491600c5492838082115f14610d6d57610ca291610b87565b80821015610d6657505b8411610ccd575090610cc283610a3e9493610b66565b600c5590915f610c33565b60c05f805160206110ff83398151915291856040519182525f6020830152604082015260806060820152601a608082015279115e18d959591cc819195d881d1c985b9cd9995c881b1a5b5a5d60321b60a0820152a160405162461bcd60e51b815260206004820152602960248201525f8051602061109f83398151915260448201526819995c881b1a5b5a5d60ba1b6064820152608490fd5b9050610cac565b50505f610ca2565b905090610c73565b5f600c5542600d55610c57565b506008541515610c2e565b506001610c1d565b6001600160a01b039392919084811680158015610f37575b610f2b57856006541680821480610f20575b610dd9575b5050610a3e939450610fe3565b600d54620151808101809111610b7357421015610f13575b610dfc610c62610ba7565b80821015610f0b5750955b612710610e1d60085461ffff600b541690610b94565b0496600c5497888082115f14610f0357610e3691610b87565b80821015610efc57505b8511610e61575050610e5683610a3e9596610b66565b600c5584935f610dcc565b5f805160206110ff833981519152918560c09286604051938452166020830152604082015260806060820152601a608082015279115e18d959591cc819195d881d1c985b9cd9995c881b1a5b5a5d60321b60a0820152a160405162461bcd60e51b815260206004820152602960248201525f8051602061109f83398151915260448201526819995c881b1a5b5a5d60ba1b6064820152608490fd5b9050610e40565b50505f610e36565b905095610e07565b5f600c5542600d55610df1565b506008541515610dc7565b50610a3e939450610fe3565b5085831615610db5565b9091906001600160a01b0381169081610f8957505f805160206110df833981519152602084610f745f9596600254610b66565b6002555b8060025403600255604051908152a3565b92815f525f60205260405f205493818510610fc557506020815f805160206110df833981519152925f9596858752868452036040862055610f78565b610b49859260405193849363391434e360e21b855260048501610a70565b6001600160a01b038082169290918361104757505f805160206110df8339815191529160209161101586600254610b66565b6002555b1693846110325780600254036002555b604051908152a3565b845f525f825260405f20818154019055611029565b835f525f60205260405f205490858210611081575091602091855f805160206110df83398151915294865f525f85520360405f2055611019565b610b498660405193849363391434e360e21b855260048501610a7056fe49726f6e4c6f636b546f6b656e3a204578636565647320646576207472616e738be0079c531659141344cd1fd0a4f28419497f9722a3daafe3b4186f6b6457e0ddf252ad1be2c89b69c2b068fc378daa952ba7f163c4a11628f55a4df523b3ef2b08c6f86b1a55f24e77e45bc6c9c3d6aac5d17fc6e7fb5a954bc01345d0b1dea2646970667358221220164985aa5f9af694d12b1ec0c3f2386dc14ea6f5c6f64ab50383bf53163829e364736f6c634300081900332af048e62453efffc10fab1340dab57fa5c7c2e72dc30df457608651277d1ea58be0079c531659141344cd1fd0a4f28419497f9722a3daafe3b4186f6b6457e0c9f6d06bcae55cf8956320be2ef6f7d1c0191f96fd8f1220dace4ead8c51c60566d6ef777e81da2dc556ec0f46d73ab675e34930a794564f805e09ce6065e1889b779b17422d0df92223018b32b4d1fa46e071723d6817e2486d003becc55f00a264697066735822122043111cae28203393f7e8218d18a8055368375ba5bfa65a601cefda7bec009a8d64736f6c63430008190033","opcodes":"PUSH1 0x80 DUP1 PUSH1 0x40 MSTORE CALLVALUE PUSH1 0xBA JUMPI CALLER ISZERO PUSH1 0xA5 JUMPI PUSH0 DUP1 SLOAD CALLER PUSH1 0x1 PUSH1 0x1 PUSH1 0xA0 SHL SUB NOT DUP1 DUP4 AND DUP3 OR DUP5 SSTORE PUSH1 0x40 MLOAD SWAP4 SWAP1 SWAP3 PUSH1 0x1 PUSH1 0x1 PUSH1 0xA0 SHL SUB AND SWAP1 PUSH32 0x8BE0079C531659141344CD1FD0A4F28419497F9722A3DAAFE3B4186F6B6457E0 SWAP1 DUP1 LOG3 PUSH1 0x1 PUSH32 0x9B779B17422D0DF92223018B32B4D1FA46E071723D6817E2486D003BECC55F00 SSTORE PUSH7 0x2386F26FC10000 PUSH1 0xB SSTORE CALLER DUP2 PUSH1 0x8 SLOAD AND OR PUSH1 0x8 SSTORE CALLER SWAP1 PUSH1 0xE SLOAD AND OR PUSH1 0xE SSTORE PUSH2 0x5FF1 SWAP1 DUP2 PUSH2 0xBF DUP3 CODECOPY RETURN JUMPDEST PUSH4 0x1E4FBDF7 PUSH1 0xE0 SHL DUP2 MSTORE PUSH0 PUSH1 0x4 DUP3 ADD MSTORE PUSH1 0x24 SWAP1 REVERT JUMPDEST PUSH0 DUP1 REVERT INVALID PUSH2 0x240 PUSH1 0x40 MSTORE PUSH1 0x4 CALLDATASIZE LT ISZERO PUSH2 0x1B JUMPI JUMPDEST CALLDATASIZE ISZERO PUSH2 0x19 JUMPI PUSH0 DUP1 REVERT JUMPDEST STOP JUMPDEST PUSH0 DUP1 CALLDATALOAD PUSH1 0xE0 SHR DUP1 PUSH4 0x37C4886 EQ PUSH2 0x3E75 JUMPI DUP1 PUSH4 0x57E729E EQ PUSH2 0x3E5A JUMPI DUP1 PUSH4 0x788A8A7 EQ PUSH2 0x3C95 JUMPI DUP1 PUSH4 0xC91D19C EQ PUSH2 0x3C5D JUMPI DUP1 PUSH4 0x1B8028FB EQ PUSH2 0x3BFE JUMPI DUP1 PUSH4 0x212D25A6 EQ PUSH2 0x3BE2 JUMPI DUP1 PUSH4 0x222E0CF1 EQ PUSH2 0x3B4F JUMPI DUP1 PUSH4 0x242FEFD7 EQ PUSH2 0x3B34 JUMPI DUP1 PUSH4 0x29369CCF EQ PUSH2 0x3AE7 JUMPI DUP1 PUSH4 0x2A5C792A EQ PUSH2 0x3A53 JUMPI DUP1 PUSH4 0x2B7AC3F3 EQ PUSH2 0x3A2B JUMPI DUP1 PUSH4 0x391DF7C9 EQ PUSH2 0x39F3 JUMPI DUP1 PUSH4 0x3F58CF1F EQ PUSH2 0x3890 JUMPI DUP1 PUSH4 0x4238B692 EQ PUSH2 0x3850 JUMPI DUP1 PUSH4 0x43237D4A EQ PUSH2 0x3818 JUMPI DUP1 PUSH4 0x4871B64A EQ PUSH2 0x37CB JUMPI DUP1 PUSH4 0x4AA06447 EQ PUSH2 0x37B0 JUMPI DUP1 PUSH4 0x4ADABE09 EQ PUSH2 0x33F3 JUMPI DUP1 PUSH4 0x4E576DEA EQ PUSH2 0x33D7 JUMPI DUP1 PUSH4 0x5313BE2C EQ PUSH2 0x338B JUMPI DUP1 PUSH4 0x5437988D EQ PUSH2 0x3323 JUMPI DUP1 PUSH4 0x5578732B EQ PUSH2 0x3294 JUMPI DUP1 PUSH4 0x5712455F EQ PUSH2 0x3279 JUMPI DUP1 PUSH4 0x58A4CBD7 EQ PUSH2 0x2CAA JUMPI DUP1 PUSH4 0x5B34BC41 EQ PUSH2 0x2C60 JUMPI DUP1 PUSH4 0x5B9605EA EQ PUSH2 0x2C43 JUMPI DUP1 PUSH4 0x5D35E54F EQ PUSH2 0x2C27 JUMPI DUP1 PUSH4 0x5DD8BA88 EQ PUSH2 0x2BE8 JUMPI DUP1 PUSH4 0x5FF51A9F EQ PUSH2 0x2BAF JUMPI DUP1 PUSH4 0x60BB3979 EQ PUSH2 0x2B6E JUMPI DUP1 PUSH4 0x61D027B3 EQ PUSH2 0x2B45 JUMPI DUP1 PUSH4 0x634282AF EQ PUSH2 0x2B01 JUMPI DUP1 PUSH4 0x63B8CE5F EQ PUSH2 0x2AE5 JUMPI DUP1 PUSH4 0x685E4236 EQ PUSH2 0x2AC9 JUMPI DUP1 PUSH4 0x715018A6 EQ PUSH2 0x2A83 JUMPI DUP1 PUSH4 0x71AFE1B6 EQ PUSH2 0x293E JUMPI DUP1 PUSH4 0x73458D10 EQ PUSH2 0x28A4 JUMPI DUP1 PUSH4 0x73E888FD EQ PUSH2 0x22E6 JUMPI DUP1 PUSH4 0x74E47336 EQ PUSH2 0x22AA JUMPI DUP1 PUSH4 0x75F0C2F0 EQ PUSH2 0x228D JUMPI DUP1 PUSH4 0x84D232B5 EQ PUSH2 0x15C4 JUMPI DUP1 PUSH4 0x84F047D5 EQ PUSH2 0x1510 JUMPI DUP1 PUSH4 0x887813B2 EQ PUSH2 0x14D1 JUMPI DUP1 PUSH4 0x8AFB309C EQ PUSH2 0x135C JUMPI DUP1 PUSH4 0x8DA5CB5B EQ PUSH2 0x1335 JUMPI DUP1 PUSH4 0x907BA72E EQ PUSH2 0x12FA JUMPI DUP1 PUSH4 0x91CB32A7 EQ PUSH2 0x12AD JUMPI DUP1 PUSH4 0x96C6CE0E EQ PUSH2 0x1290 JUMPI DUP1 PUSH4 0x9B0B26A2 EQ PUSH2 0x1220 JUMPI DUP1 PUSH4 0x9C271174 EQ PUSH2 0x11CB JUMPI DUP1 PUSH4 0x9F181B5E EQ PUSH2 0x11AD JUMPI DUP1 PUSH4 0xA4883286 EQ PUSH2 0x1191 JUMPI DUP1 PUSH4 0xAA180CD6 EQ PUSH2 0x113C JUMPI DUP1 PUSH4 0xAB2ADC00 EQ PUSH2 0x111E JUMPI DUP1 PUSH4 0xB31E6087 EQ PUSH2 0xFDA JUMPI DUP1 PUSH4 0xB65F1927 EQ PUSH2 0xE0D JUMPI DUP1 PUSH4 0xB9148EEE EQ PUSH2 0xDEA JUMPI DUP1 PUSH4 0xB9AF648C EQ PUSH2 0xC9F JUMPI DUP1 PUSH4 0xBB2061B2 EQ PUSH2 0xC4D JUMPI DUP1 PUSH4 0xBEE884D2 EQ PUSH2 0xBF2 JUMPI DUP1 PUSH4 0xBFFA55D5 EQ PUSH2 0x954 JUMPI DUP1 PUSH4 0xC1F7F9AC EQ PUSH2 0x91B JUMPI DUP1 PUSH4 0xC21EBD07 EQ PUSH2 0x8F2 JUMPI DUP1 PUSH4 0xCF3CF573 EQ PUSH2 0x8D4 JUMPI DUP1 PUSH4 0xD79ECF90 EQ PUSH2 0x88A JUMPI DUP1 PUSH4 0xDC67195F EQ PUSH2 0x838 JUMPI DUP1 PUSH4 0xE1A6AE38 EQ PUSH2 0x7FF JUMPI DUP1 PUSH4 0xE4860339 EQ PUSH2 0x563 JUMPI DUP1 PUSH4 0xE6CF8134 EQ PUSH2 0x540 JUMPI DUP1 PUSH4 0xF0F44260 EQ PUSH2 0x4D6 JUMPI DUP1 PUSH4 0xF25EA8B5 EQ PUSH2 0x4B9 JUMPI DUP1 PUSH4 0xF2FDE38B EQ PUSH2 0x447 JUMPI DUP1 PUSH4 0xF67CD9CD EQ PUSH2 0x40E JUMPI DUP1 PUSH4 0xF8316C90 EQ PUSH2 0x3A0 JUMPI PUSH4 0xFE575A87 EQ PUSH2 0x35F JUMPI POP PUSH2 0xF JUMP JUMPDEST CALLVALUE PUSH2 0x39D JUMPI PUSH1 0x20 CALLDATASIZE PUSH1 0x3 NOT ADD SLT PUSH2 0x39D JUMPI PUSH1 0x20 SWAP1 PUSH1 0xFF SWAP1 PUSH1 0x40 SWAP1 PUSH1 0x1 PUSH1 0x1 PUSH1 0xA0 SHL SUB PUSH2 0x389 PUSH2 0x3F34 JUMP JUMPDEST AND DUP2 MSTORE PUSH1 0xA DUP5 MSTORE KECCAK256 SLOAD AND PUSH1 0x40 MLOAD SWAP1 ISZERO ISZERO DUP2 MSTORE RETURN JUMPDEST DUP1 REVERT JUMPDEST POP CALLVALUE PUSH2 0x39D JUMPI PUSH1 0x20 CALLDATASIZE PUSH1 0x3 NOT ADD SLT PUSH2 0x39D JUMPI PUSH2 0x3BA PUSH2 0x3F34 JUMP JUMPDEST PUSH2 0x3C2 PUSH2 0x46B2 JUMP JUMPDEST PUSH1 0x1 PUSH1 0x1 PUSH1 0xA0 SHL SUB AND DUP1 ISZERO PUSH2 0x40A JUMPI PUSH1 0xF DUP1 SLOAD PUSH1 0x1 PUSH1 0x1 PUSH1 0xA0 SHL SUB NOT AND DUP3 OR SWAP1 SSTORE PUSH32 0x7CD91BB102D5B88808255AA4B0877F151C1C4D2E61DEEF286B983F293EEA60AB DUP3 DUP1 LOG2 DUP1 RETURN JUMPDEST POP DUP1 REVERT JUMPDEST POP CALLVALUE PUSH2 0x39D JUMPI PUSH1 0x20 CALLDATASIZE PUSH1 0x3 NOT ADD SLT PUSH2 0x39D JUMPI PUSH1 0x20 SWAP1 PUSH1 0x40 SWAP1 PUSH1 0x1 PUSH1 0x1 PUSH1 0xA0 SHL SUB PUSH2 0x436 PUSH2 0x3F34 JUMP JUMPDEST AND DUP2 MSTORE PUSH1 0x12 DUP4 MSTORE KECCAK256 SLOAD PUSH1 0x40 MLOAD SWAP1 DUP2 MSTORE RETURN JUMPDEST POP CALLVALUE PUSH2 0x39D JUMPI PUSH1 0x20 CALLDATASIZE PUSH1 0x3 NOT ADD SLT PUSH2 0x39D JUMPI PUSH2 0x461 PUSH2 0x3F34 JUMP JUMPDEST PUSH2 0x469 PUSH2 0x46B2 JUMP JUMPDEST PUSH1 0x1 PUSH1 0x1 PUSH1 0xA0 SHL SUB SWAP1 DUP2 AND SWAP1 DUP2 ISZERO PUSH2 0x4A0 JUMPI PUSH0 SLOAD DUP3 PUSH1 0x1 DUP1 PUSH1 0xA0 SHL SUB NOT DUP3 AND OR PUSH0 SSTORE AND PUSH0 DUP1 MLOAD PUSH1 0x20 PUSH2 0x5F3C DUP4 CODECOPY DUP2 MLOAD SWAP2 MSTORE PUSH0 DUP1 LOG3 DUP1 RETURN JUMPDEST PUSH1 0x40 MLOAD PUSH4 0x1E4FBDF7 PUSH1 0xE0 SHL DUP2 MSTORE PUSH1 0x4 DUP2 ADD DUP5 SWAP1 MSTORE PUSH1 0x24 SWAP1 REVERT JUMPDEST POP CALLVALUE PUSH2 0x39D JUMPI DUP1 PUSH1 0x3 NOT CALLDATASIZE ADD SLT PUSH2 0x39D JUMPI PUSH1 0x20 PUSH1 0x40 MLOAD PUSH2 0x3E8 DUP2 MSTORE RETURN JUMPDEST POP CALLVALUE PUSH2 0x39D JUMPI PUSH1 0x20 CALLDATASIZE PUSH1 0x3 NOT ADD SLT PUSH2 0x39D JUMPI PUSH2 0x4F0 PUSH2 0x3F34 JUMP JUMPDEST PUSH2 0x4F8 PUSH2 0x46B2 JUMP JUMPDEST PUSH1 0x1 PUSH1 0x1 PUSH1 0xA0 SHL SUB AND DUP1 ISZERO PUSH2 0x40A JUMPI PUSH1 0xE DUP1 SLOAD PUSH1 0x1 PUSH1 0x1 PUSH1 0xA0 SHL SUB NOT AND DUP3 OR SWAP1 SSTORE PUSH32 0x7DAE230F18360D76A040C81F050AA14EB9D6DC7901B20FC5D855E2A20FE814D1 DUP3 DUP1 LOG2 DUP1 RETURN JUMPDEST POP CALLVALUE PUSH2 0x39D JUMPI DUP1 PUSH1 0x3 NOT CALLDATASIZE ADD SLT PUSH2 0x39D JUMPI PUSH1 0x20 PUSH1 0x40 MLOAD PUSH8 0x16345785D8A0000 DUP2 MSTORE RETURN JUMPDEST POP CALLVALUE PUSH2 0x39D JUMPI PUSH1 0x20 CALLDATASIZE PUSH1 0x3 NOT ADD SLT PUSH2 0x39D JUMPI PUSH1 0x1 PUSH1 0x1 PUSH1 0xA0 SHL SUB SWAP1 PUSH1 0x40 SWAP1 DUP3 PUSH2 0x58A PUSH2 0x3F34 JUMP JUMPDEST AND DUP2 MSTORE PUSH1 0x1 PUSH1 0x20 MSTORE KECCAK256 PUSH2 0x220 MSTORE DUP1 PUSH2 0x220 MLOAD SLOAD AND PUSH2 0x140 MSTORE PUSH1 0x1 PUSH2 0x220 MLOAD ADD SLOAD AND PUSH2 0x5BA PUSH1 0x2 PUSH2 0x220 MLOAD ADD PUSH2 0x408E JUMP JUMPDEST PUSH2 0x160 MSTORE PUSH2 0x5CD PUSH1 0x3 PUSH2 0x220 MLOAD ADD PUSH2 0x408E JUMP JUMPDEST PUSH2 0x1A0 MSTORE PUSH1 0x4 PUSH2 0x220 MLOAD ADD SLOAD PUSH2 0x120 MSTORE PUSH1 0xFF PUSH1 0x5 PUSH2 0x220 MLOAD ADD SLOAD SWAP2 PUSH1 0x6 PUSH2 0x220 MLOAD ADD SLOAD PUSH1 0x7 PUSH2 0x220 MLOAD ADD SLOAD PUSH1 0x8 PUSH2 0x220 MLOAD ADD SLOAD PUSH2 0xFFFF PUSH1 0x9 PUSH2 0x220 MLOAD ADD SLOAD AND PUSH1 0xA PUSH2 0x220 MLOAD ADD SLOAD PUSH1 0xB PUSH2 0x220 MLOAD ADD SLOAD SWAP1 DUP8 PUSH1 0xC PUSH2 0x220 MLOAD ADD SLOAD AND SWAP3 PUSH1 0xD PUSH2 0x220 MLOAD ADD SLOAD SWAP5 PUSH1 0xE PUSH2 0x220 MLOAD ADD SLOAD SWAP7 PUSH1 0xF PUSH2 0x220 MLOAD ADD SLOAD SWAP9 PUSH2 0x6F6 PUSH2 0x6E1 PUSH1 0x10 PUSH2 0x220 MLOAD ADD SLOAD SWAP13 PUSH1 0x11 PUSH2 0x220 MLOAD ADD SLOAD PUSH1 0x80 MSTORE PUSH1 0x12 PUSH2 0x220 MLOAD ADD SLOAD PUSH1 0xA0 MSTORE PUSH2 0xFFFF PUSH1 0x13 PUSH2 0x220 MLOAD ADD SLOAD AND PUSH1 0xE0 MSTORE PUSH1 0x14 PUSH2 0x220 MLOAD ADD SLOAD PUSH2 0x200 MSTORE PUSH1 0x15 PUSH2 0x220 MLOAD ADD SLOAD PUSH2 0x1E0 MSTORE PUSH1 0x16 PUSH2 0x220 MLOAD ADD SLOAD PUSH2 0x1C0 MSTORE PUSH1 0x17 PUSH2 0x220 MLOAD ADD SLOAD PUSH2 0x180 MSTORE PUSH1 0x18 PUSH2 0x220 MLOAD ADD SLOAD PUSH2 0x100 MSTORE PUSH1 0x40 MLOAD PUSH1 0xC0 MSTORE PUSH2 0x380 SWAP1 PUSH2 0x140 MLOAD PUSH1 0xC0 MLOAD MSTORE PUSH1 0x20 PUSH1 0xC0 MLOAD ADD MSTORE DUP1 PUSH1 0x40 PUSH1 0xC0 MLOAD ADD MSTORE PUSH1 0xC0 MLOAD ADD PUSH2 0x160 MLOAD PUSH2 0x4130 JUMP JUMPDEST PUSH1 0xC0 MLOAD DUP2 SUB PUSH1 0x60 PUSH1 0xC0 MLOAD ADD MSTORE PUSH2 0x1A0 MLOAD PUSH2 0x4130 JUMP JUMPDEST SWAP13 PUSH2 0x120 MLOAD PUSH1 0x80 PUSH1 0xC0 MLOAD ADD MSTORE PUSH1 0xA0 PUSH1 0xC0 MLOAD ADD MSTORE PUSH1 0xC0 DUP1 MLOAD ADD MSTORE PUSH1 0xE0 PUSH1 0xC0 MLOAD ADD MSTORE PUSH2 0x100 PUSH1 0xC0 MLOAD ADD MSTORE PUSH2 0x120 PUSH1 0xC0 MLOAD ADD MSTORE PUSH2 0x140 PUSH1 0xC0 MLOAD ADD MSTORE PUSH2 0x160 PUSH1 0xC0 MLOAD ADD MSTORE PUSH2 0x180 PUSH1 0xC0 MLOAD ADD MSTORE PUSH2 0x1A0 PUSH1 0xC0 MLOAD ADD MSTORE PUSH2 0x1C0 PUSH1 0xC0 MLOAD ADD MSTORE PUSH2 0x1E0 PUSH1 0xC0 MLOAD ADD MSTORE DUP2 DUP2 AND PUSH2 0x200 PUSH1 0xC0 MLOAD ADD MSTORE DUP2 DUP2 PUSH1 0x8 SHR AND ISZERO ISZERO PUSH2 0x220 PUSH1 0xC0 MLOAD ADD MSTORE PUSH1 0x10 SHR AND ISZERO ISZERO PUSH2 0x240 PUSH1 0xC0 MLOAD ADD MSTORE PUSH1 0x80 MLOAD PUSH2 0x260 PUSH1 0xC0 MLOAD ADD MSTORE PUSH1 0xA0 MLOAD PUSH2 0x280 PUSH1 0xC0 MLOAD ADD MSTORE PUSH1 0xE0 MLOAD PUSH2 0x2A0 PUSH1 0xC0 MLOAD ADD MSTORE PUSH2 0x200 MLOAD PUSH2 0x2C0 PUSH1 0xC0 MLOAD ADD MSTORE PUSH2 0x1E0 MLOAD PUSH2 0x2E0 PUSH1 0xC0 MLOAD ADD MSTORE PUSH2 0x1C0 MLOAD PUSH2 0x300 PUSH1 0xC0 MLOAD ADD MSTORE PUSH2 0x180 MLOAD PUSH2 0x320 PUSH1 0xC0 MLOAD ADD MSTORE PUSH1 0xFF PUSH2 0x100 MLOAD AND ISZERO ISZERO PUSH2 0x340 PUSH1 0xC0 MLOAD ADD MSTORE PUSH1 0xFF PUSH2 0x100 MLOAD PUSH1 0x8 SHR AND ISZERO ISZERO PUSH2 0x360 PUSH1 0xC0 MLOAD ADD MSTORE PUSH1 0xC0 MLOAD SWAP1 SUB PUSH1 0xC0 MLOAD RETURN JUMPDEST POP CALLVALUE PUSH2 0x39D JUMPI PUSH1 0x20 CALLDATASIZE PUSH1 0x3 NOT ADD SLT PUSH2 0x39D JUMPI PUSH1 0x20 SWAP1 PUSH1 0x40 SWAP1 PUSH1 0x1 PUSH1 0x1 PUSH1 0xA0 SHL SUB PUSH2 0x827 PUSH2 0x3F34 JUMP JUMPDEST AND DUP2 MSTORE PUSH1 0xC DUP4 MSTORE KECCAK256 SLOAD PUSH1 0x40 MLOAD SWAP1 DUP2 MSTORE RETURN JUMPDEST POP CALLVALUE PUSH2 0x39D JUMPI PUSH1 0x40 CALLDATASIZE PUSH1 0x3 NOT ADD SLT PUSH2 0x39D JUMPI PUSH2 0x852 PUSH2 0x3F34 JUMP JUMPDEST PUSH1 0x40 PUSH2 0x85C PUSH2 0x3F4A JUMP JUMPDEST SWAP3 PUSH1 0x1 DUP1 PUSH1 0xA0 SHL SUB DUP1 SWAP4 AND DUP2 MSTORE PUSH1 0x19 PUSH1 0x20 MSTORE KECCAK256 SWAP2 AND PUSH0 MSTORE PUSH1 0x20 MSTORE PUSH1 0x20 PUSH1 0xFF PUSH1 0x40 PUSH0 KECCAK256 SLOAD AND PUSH1 0x40 MLOAD SWAP1 ISZERO ISZERO DUP2 MSTORE RETURN JUMPDEST POP CALLVALUE PUSH2 0x39D JUMPI PUSH1 0x40 CALLDATASIZE PUSH1 0x3 NOT ADD SLT PUSH2 0x39D JUMPI PUSH1 0x40 PUSH2 0x8A6 PUSH2 0x3F4A JUMP JUMPDEST SWAP2 PUSH1 0x4 CALLDATALOAD DUP2 MSTORE PUSH1 0x9 PUSH1 0x20 MSTORE KECCAK256 SWAP1 PUSH1 0x1 DUP1 PUSH1 0xA0 SHL SUB AND PUSH0 MSTORE PUSH1 0x20 MSTORE PUSH1 0x20 PUSH1 0xFF PUSH1 0x40 PUSH0 KECCAK256 SLOAD AND PUSH1 0x40 MLOAD SWAP1 ISZERO ISZERO DUP2 MSTORE RETURN JUMPDEST POP CALLVALUE PUSH2 0x39D JUMPI DUP1 PUSH1 0x3 NOT CALLDATASIZE ADD SLT PUSH2 0x39D JUMPI PUSH1 0x20 PUSH1 0xB SLOAD PUSH1 0x40 MLOAD SWAP1 DUP2 MSTORE RETURN JUMPDEST POP CALLVALUE PUSH2 0x39D JUMPI DUP1 PUSH1 0x3 NOT CALLDATASIZE ADD SLT PUSH2 0x39D JUMPI PUSH1 0xF SLOAD PUSH1 0x40 MLOAD PUSH1 0x1 PUSH1 0x1 PUSH1 0xA0 SHL SUB SWAP1 SWAP2 AND DUP2 MSTORE PUSH1 0x20 SWAP1 RETURN JUMPDEST POP CALLVALUE PUSH2 0x39D JUMPI PUSH1 0x20 CALLDATASIZE PUSH1 0x3 NOT ADD SLT PUSH2 0x39D JUMPI PUSH1 0x20 SWAP1 PUSH1 0x40 SWAP1 PUSH1 0x1 PUSH1 0x1 PUSH1 0xA0 SHL SUB PUSH2 0x943 PUSH2 0x3F34 JUMP JUMPDEST AND DUP2 MSTORE PUSH1 0x7 DUP4 MSTORE KECCAK256 SLOAD PUSH1 0x40 MLOAD SWAP1 DUP2 MSTORE RETURN JUMPDEST POP CALLVALUE PUSH2 0x39D JUMPI PUSH1 0x20 DUP1 PUSH1 0x3 NOT CALLDATASIZE ADD SLT PUSH2 0x40A JUMPI PUSH2 0x96F PUSH2 0x3F34 JUMP JUMPDEST PUSH2 0x977 PUSH2 0x4683 JUMP JUMPDEST PUSH1 0x1 PUSH1 0x1 PUSH1 0xA0 SHL SUB AND DUP1 DUP4 MSTORE PUSH1 0x1 DUP3 MSTORE PUSH1 0x40 DUP4 KECCAK256 PUSH1 0x10 DUP2 ADD SLOAD PUSH1 0x8 SHR PUSH1 0xFF AND PUSH2 0xBC4 JUMPI DUP2 DUP5 MSTORE PUSH1 0x3 DUP4 MSTORE PUSH1 0xFF PUSH1 0x3 PUSH1 0x40 DUP7 KECCAK256 ADD SLOAD AND ISZERO PUSH2 0xB90 JUMPI DUP2 DUP5 MSTORE PUSH1 0x4 DUP4 MSTORE PUSH1 0x40 DUP5 KECCAK256 CALLER PUSH0 MSTORE DUP4 MSTORE PUSH1 0x40 PUSH0 KECCAK256 SLOAD SWAP1 DUP2 ISZERO PUSH2 0xB5E JUMPI SWAP1 DUP5 SWAP2 DUP4 DUP4 MSTORE PUSH1 0x4 DUP6 MSTORE PUSH1 0x40 DUP4 KECCAK256 CALLER PUSH0 MSTORE DUP6 MSTORE DUP3 PUSH1 0x40 PUSH0 KECCAK256 SSTORE DUP3 SWAP1 PUSH1 0xFF PUSH1 0xC DUP3 ADD SLOAD AND PUSH1 0x1 DUP2 LT ISZERO PUSH2 0xB54 JUMPI JUMPDEST PUSH1 0x2 DUP2 LT ISZERO PUSH2 0xB25 JUMPI JUMPDEST PUSH1 0x3 GT ISZERO PUSH2 0xAFA JUMPI JUMPDEST SWAP4 DUP4 SWAP5 SWAP3 DUP5 SWAP4 SWAP3 PUSH2 0xA31 PUSH2 0x2710 PUSH2 0xA2A PUSH1 0x6 DUP9 SWAP8 ADD SLOAD SWAP4 DUP5 PUSH2 0x41C1 JUMP JUMPDEST DIV DUP3 PUSH2 0x4249 JUMP JUMPDEST SWAP2 DUP3 ISZERO ISZERO DUP1 PUSH2 0xAF1 JUMPI JUMPDEST ISZERO PUSH2 0xAE7 JUMPI PUSH2 0xA52 SWAP3 PUSH2 0xA4D SWAP2 PUSH2 0x41C1 JUMP JUMPDEST PUSH2 0x41D4 JUMP JUMPDEST SWAP1 JUMPDEST PUSH2 0xA5F DUP3 ISZERO ISZERO PUSH2 0x43BF JUMP JUMPDEST DUP1 DUP4 MSTORE PUSH1 0x14 DUP8 MSTORE PUSH2 0xA76 DUP3 PUSH1 0x40 DUP6 KECCAK256 SLOAD LT ISZERO PUSH2 0x43F5 JUMP JUMPDEST DUP3 MSTORE PUSH1 0x14 DUP7 MSTORE PUSH1 0x40 DUP3 KECCAK256 PUSH2 0xA8B DUP3 DUP3 SLOAD PUSH2 0x4249 JUMP JUMPDEST SWAP1 SSTORE CALLER GAS CALL PUSH2 0xA98 PUSH2 0x4446 JUMP JUMPDEST POP ISZERO PUSH2 0xAB3 JUMPI POP PUSH1 0x1 PUSH0 DUP1 MLOAD PUSH1 0x20 PUSH2 0x5F9C DUP4 CODECOPY DUP2 MLOAD SWAP2 MSTORE SSTORE DUP1 RETURN JUMPDEST PUSH1 0x64 SWAP1 PUSH1 0x40 MLOAD SWAP1 PUSH3 0x461BCD PUSH1 0xE5 SHL DUP3 MSTORE PUSH1 0x4 DUP3 ADD MSTORE PUSH1 0xD PUSH1 0x24 DUP3 ADD MSTORE PUSH13 0x1499599D5B990819985A5B1959 PUSH1 0x9A SHL PUSH1 0x44 DUP3 ADD MSTORE REVERT JUMPDEST POP POP POP DUP2 SWAP1 PUSH2 0xA54 JUMP JUMPDEST POP DUP2 ISZERO ISZERO PUSH2 0xA3B JUMP JUMPDEST SWAP2 SWAP3 POP PUSH2 0xD48 DUP2 ADD DUP1 SWAP2 GT PUSH2 0xB11 JUMPI DUP6 SWAP3 SWAP2 PUSH2 0xA0D JUMP JUMPDEST PUSH4 0x4E487B71 PUSH1 0xE0 SHL DUP7 MSTORE PUSH1 0x11 PUSH1 0x4 MSTORE PUSH1 0x24 DUP7 REVERT JUMPDEST SWAP3 SWAP4 POP SWAP1 PUSH2 0xCE4 DUP2 ADD DUP1 SWAP2 GT PUSH2 0xB40 JUMPI DUP7 SWAP4 SWAP3 SWAP1 SWAP2 SWAP1 PUSH2 0xA04 JUMP JUMPDEST PUSH4 0x4E487B71 PUSH1 0xE0 SHL DUP8 MSTORE PUSH1 0x11 PUSH1 0x4 MSTORE PUSH1 0x24 DUP8 REVERT JUMPDEST PUSH2 0xCE4 SWAP3 POP PUSH2 0x9FA JUMP JUMPDEST PUSH1 0x40 MLOAD PUSH3 0x461BCD PUSH1 0xE5 SHL DUP2 MSTORE PUSH1 0x4 DUP2 ADD DUP6 SWAP1 MSTORE PUSH1 0xA PUSH1 0x24 DUP3 ADD MSTORE PUSH10 0x27379031B7B73A3934B1 PUSH1 0xB1 SHL PUSH1 0x44 DUP3 ADD MSTORE PUSH1 0x64 SWAP1 REVERT JUMPDEST PUSH1 0x40 MLOAD PUSH3 0x461BCD PUSH1 0xE5 SHL DUP2 MSTORE PUSH1 0x4 DUP2 ADD DUP5 SWAP1 MSTORE PUSH1 0xC PUSH1 0x24 DUP3 ADD MSTORE PUSH12 0x139BDD08195E1958DD5D1959 PUSH1 0xA2 SHL PUSH1 0x44 DUP3 ADD MSTORE PUSH1 0x64 SWAP1 REVERT JUMPDEST PUSH1 0x40 MLOAD PUSH3 0x461BCD PUSH1 0xE5 SHL DUP2 MSTORE PUSH1 0x4 DUP2 ADD DUP5 SWAP1 MSTORE PUSH1 0x6 PUSH1 0x24 DUP3 ADD MSTORE PUSH6 0x416374697665 PUSH1 0xD0 SHL PUSH1 0x44 DUP3 ADD MSTORE PUSH1 0x64 SWAP1 REVERT JUMPDEST POP CALLVALUE PUSH2 0x39D JUMPI PUSH1 0x40 CALLDATASIZE PUSH1 0x3 NOT ADD SLT PUSH2 0x39D JUMPI PUSH2 0xC0C PUSH2 0x3F34 JUMP JUMPDEST PUSH1 0x1 PUSH1 0x1 PUSH1 0xA0 SHL SUB SWAP1 DUP2 AND DUP3 MSTORE PUSH1 0x15 PUSH1 0x20 MSTORE PUSH1 0x40 DUP3 KECCAK256 DUP1 SLOAD PUSH1 0x24 CALLDATALOAD SWAP4 SWAP1 DUP5 LT ISZERO PUSH2 0x39D JUMPI POP PUSH1 0x20 SWAP3 PUSH2 0xC3D SWAP2 PUSH2 0x3FC8 JUMP JUMPDEST SWAP2 SWAP1 SLOAD PUSH1 0x40 MLOAD SWAP3 PUSH1 0x3 SHL SHR AND DUP2 MSTORE RETURN JUMPDEST POP CALLVALUE PUSH2 0x39D JUMPI PUSH1 0x40 CALLDATASIZE PUSH1 0x3 NOT ADD SLT PUSH2 0x39D JUMPI PUSH2 0xC67 PUSH2 0x3F34 JUMP JUMPDEST PUSH1 0x40 PUSH2 0xC71 PUSH2 0x3F4A JUMP JUMPDEST SWAP3 PUSH1 0x1 DUP1 PUSH1 0xA0 SHL SUB DUP1 SWAP4 AND DUP2 MSTORE PUSH1 0x18 PUSH1 0x20 MSTORE KECCAK256 SWAP2 AND PUSH0 MSTORE PUSH1 0x20 MSTORE PUSH1 0x20 PUSH1 0xFF PUSH1 0x40 PUSH0 KECCAK256 SLOAD AND PUSH1 0x40 MLOAD SWAP1 ISZERO ISZERO DUP2 MSTORE RETURN JUMPDEST POP CALLVALUE PUSH2 0x39D JUMPI PUSH1 0x20 DUP1 PUSH1 0x3 NOT CALLDATASIZE ADD SLT PUSH2 0x40A JUMPI PUSH1 0x1 PUSH1 0x1 PUSH1 0xA0 SHL SUB DUP1 PUSH2 0xCC3 PUSH2 0x3F34 JUMP JUMPDEST AND DUP4 MSTORE PUSH1 0x1 DUP3 MSTORE PUSH1 0x40 DUP4 KECCAK256 PUSH1 0xA DUP2 ADD SLOAD PUSH3 0x76A700 DUP2 ADD DUP1 SWAP2 GT PUSH2 0xDD6 JUMPI TIMESTAMP LT PUSH2 0xDA7 JUMPI PUSH1 0x10 DUP2 ADD DUP1 SLOAD PUSH1 0xFF DUP2 PUSH1 0x8 SHR AND ISZERO PUSH2 0xD77 JUMPI SWAP2 PUSH1 0x1 SWAP2 PUSH32 0x4E2738C0439B38C78E2D8E54BFFB925F2949894F0EED5C60B7772B5DA77EDEC SWAP5 SWAP4 PUSH2 0xFF00 NOT AND SWAP1 SSTORE ADD DUP2 DUP2 SLOAD AND DUP6 MSTORE PUSH1 0x16 DUP5 MSTORE PUSH1 0x40 DUP6 KECCAK256 PUSH2 0xD3F DUP2 SLOAD PUSH2 0x44B4 JUMP JUMPDEST SWAP1 SSTORE SLOAD AND SWAP2 DUP3 DUP5 MSTORE PUSH1 0x15 DUP2 MSTORE PUSH1 0x40 DUP5 KECCAK256 SLOAD PUSH1 0x16 DUP3 MSTORE PUSH1 0x17 PUSH1 0x40 DUP7 KECCAK256 SLOAD SWAP3 MSTORE PUSH2 0xD71 PUSH1 0x40 DUP7 KECCAK256 SLOAD PUSH1 0x40 MLOAD SWAP4 DUP5 SWAP4 DUP5 PUSH2 0x400A JUMP JUMPDEST SUB SWAP1 LOG2 DUP1 RETURN JUMPDEST PUSH1 0x40 MLOAD PUSH3 0x461BCD PUSH1 0xE5 SHL DUP2 MSTORE PUSH1 0x4 DUP2 ADD DUP7 SWAP1 MSTORE PUSH1 0x8 PUSH1 0x24 DUP3 ADD MSTORE PUSH8 0x1499599D5B991959 PUSH1 0xC2 SHL PUSH1 0x44 DUP3 ADD MSTORE PUSH1 0x64 SWAP1 REVERT JUMPDEST PUSH1 0x40 MLOAD PUSH3 0x461BCD PUSH1 0xE5 SHL DUP2 MSTORE PUSH1 0x4 DUP2 ADD DUP5 SWAP1 MSTORE PUSH1 0x7 PUSH1 0x24 DUP3 ADD MSTORE PUSH7 0x139BDD080E4C19 PUSH1 0xCA SHL PUSH1 0x44 DUP3 ADD MSTORE PUSH1 0x64 SWAP1 REVERT JUMPDEST PUSH4 0x4E487B71 PUSH1 0xE0 SHL DUP6 MSTORE PUSH1 0x11 PUSH1 0x4 MSTORE PUSH1 0x24 DUP6 REVERT JUMPDEST POP CALLVALUE PUSH2 0x39D JUMPI DUP1 PUSH1 0x3 NOT CALLDATASIZE ADD SLT PUSH2 0x39D JUMPI PUSH1 0x20 PUSH1 0x40 MLOAD PUSH8 0x6F05B59D3B20000 DUP2 MSTORE RETURN JUMPDEST POP CALLVALUE PUSH2 0x39D JUMPI PUSH1 0x60 CALLDATASIZE PUSH1 0x3 NOT ADD SLT PUSH2 0x39D JUMPI PUSH2 0xE27 PUSH2 0x3F34 JUMP JUMPDEST PUSH2 0xE2F PUSH2 0x3F4A JUMP JUMPDEST SWAP1 PUSH1 0x44 CALLDATALOAD PUSH1 0x1 PUSH1 0x1 PUSH1 0x40 SHL SUB DUP2 GT PUSH2 0xFD6 JUMPI PUSH2 0xE4F SWAP1 CALLDATASIZE SWAP1 PUSH1 0x4 ADD PUSH2 0x3FDD JUMP JUMPDEST SWAP3 PUSH1 0x1 DUP1 PUSH1 0xA0 SHL SUB DUP1 SWAP4 AND SWAP3 DUP4 DUP7 MSTORE PUSH1 0x20 SWAP2 PUSH1 0x1 DUP4 MSTORE PUSH2 0xE7B PUSH1 0xFF PUSH1 0x10 PUSH1 0x40 DUP11 KECCAK256 ADD SLOAD PUSH1 0x8 SHR AND PUSH2 0x4510 JUMP JUMPDEST AND SWAP4 DUP5 ISZERO PUSH2 0xFD2 JUMPI CALLER DUP6 EQ PUSH2 0xFD2 JUMPI DUP4 DUP7 MSTORE PUSH1 0x1B DUP3 MSTORE PUSH1 0x40 DUP7 KECCAK256 CALLER PUSH0 MSTORE DUP3 MSTORE PUSH1 0x40 PUSH0 KECCAK256 DUP6 PUSH0 MSTORE DUP3 MSTORE PUSH1 0xFF PUSH1 0x40 PUSH0 KECCAK256 SLOAD AND PUSH2 0xFA2 JUMPI DUP5 SWAP1 DUP5 DUP8 MSTORE PUSH1 0x1B DUP4 MSTORE PUSH1 0x40 DUP8 KECCAK256 CALLER PUSH0 MSTORE DUP4 MSTORE PUSH1 0x40 PUSH0 KECCAK256 DUP3 PUSH0 MSTORE DUP4 MSTORE DUP5 PUSH32 0x1D0233127B9EE34261FA558AAFD3001A764F70F77FC3BBA2F9EDC8219517DB84 PUSH2 0xF35 PUSH1 0x40 PUSH0 KECCAK256 SWAP7 PUSH1 0xFF NOT SWAP8 PUSH1 0x1 DUP10 DUP3 SLOAD AND OR SWAP1 SSTORE DUP4 DUP12 MSTORE PUSH1 0x1A DUP8 MSTORE PUSH1 0x40 DUP12 KECCAK256 DUP7 PUSH0 MSTORE DUP8 MSTORE PUSH1 0x40 PUSH0 KECCAK256 PUSH2 0xF1F DUP2 SLOAD PUSH2 0x44B4 JUMP JUMPDEST SWAP1 SSTORE PUSH1 0x40 MLOAD SWAP2 DUP3 SWAP2 DUP9 DUP4 MSTORE CALLER SWAP7 DUP10 DUP5 ADD SWAP2 PUSH2 0x4494 JUMP JUMPDEST SUB SWAP1 LOG4 DUP3 DUP6 MSTORE PUSH1 0x1A DUP2 MSTORE PUSH1 0x40 DUP6 KECCAK256 DUP5 PUSH0 MSTORE DUP2 MSTORE PUSH1 0x5 PUSH1 0x40 PUSH0 KECCAK256 SLOAD LT ISZERO PUSH2 0xF59 JUMPI DUP5 DUP1 RETURN JUMPDEST DUP3 DUP6 MSTORE PUSH1 0x19 DUP2 MSTORE PUSH1 0x40 DUP6 KECCAK256 SWAP1 DUP5 PUSH0 MSTORE MSTORE PUSH1 0x1 PUSH1 0x40 PUSH0 KECCAK256 SWAP2 DUP3 SLOAD AND OR SWAP1 SSTORE PUSH32 0xD579C7D4BFB21D06C84A7D5C919B63A886C23FB57457C2DA53117E7843EF0BD0 DUP4 DUP1 LOG3 PUSH0 DUP1 DUP1 DUP1 DUP5 DUP1 RETURN JUMPDEST PUSH1 0x40 MLOAD PUSH3 0x461BCD PUSH1 0xE5 SHL DUP2 MSTORE PUSH1 0x4 DUP2 ADD DUP4 SWAP1 MSTORE PUSH1 0x8 PUSH1 0x24 DUP3 ADD MSTORE PUSH8 0x14995C1BDC9D1959 PUSH1 0xC2 SHL PUSH1 0x44 DUP3 ADD MSTORE PUSH1 0x64 SWAP1 REVERT JUMPDEST DUP6 DUP1 REVERT JUMPDEST DUP4 DUP1 REVERT JUMPDEST POP CALLVALUE PUSH2 0x39D JUMPI PUSH1 0x20 DUP1 PUSH1 0x3 NOT CALLDATASIZE ADD SLT PUSH2 0x40A JUMPI PUSH1 0x1 PUSH1 0x1 PUSH1 0xA0 SHL SUB DUP1 PUSH2 0xFFE PUSH2 0x3F34 JUMP JUMPDEST AND SWAP2 DUP3 DUP5 MSTORE PUSH1 0x1 DUP2 MSTORE PUSH1 0x40 DUP5 KECCAK256 PUSH1 0x10 DUP2 ADD SWAP1 DUP2 SLOAD SWAP4 PUSH2 0x1022 PUSH1 0xFF DUP7 PUSH1 0x8 SHR AND PUSH2 0x4334 JUMP JUMPDEST PUSH2 0x1032 PUSH1 0xFF DUP7 PUSH1 0x10 SHR AND ISZERO PUSH2 0x4385 JUMP JUMPDEST PUSH1 0x1 DUP3 ADD SLOAD AND DUP7 MSTORE PUSH1 0x7 DUP4 MSTORE PUSH1 0x40 DUP7 KECCAK256 SLOAD PUSH3 0x127500 DUP2 ADD DUP1 SWAP2 GT PUSH2 0xB40 JUMPI TIMESTAMP LT PUSH2 0x10EC JUMPI PUSH1 0x6 ADD SWAP3 DUP4 SLOAD ISZERO PUSH2 0x10BC JUMPI PUSH3 0xFF0000 NOT AND PUSH3 0x10000 OR SWAP1 SSTORE DUP3 DUP5 MSTORE PUSH1 0x3 SWAP1 DUP2 SWAP1 MSTORE PUSH1 0x40 DUP5 KECCAK256 TIMESTAMP DUP2 SSTORE PUSH1 0x1 DUP2 ADD DUP6 SWAP1 SSTORE SWAP2 SLOAD PUSH1 0x2 DUP4 ADD SSTORE ADD DUP1 SLOAD PUSH1 0xFF NOT AND SWAP1 SSTORE PUSH32 0x334735B0C8438283143AFCB13D4C2B5E01C6BBE0EAE4C6433BDE5008A5D9A861 DUP3 DUP1 LOG2 DUP1 RETURN JUMPDEST PUSH1 0x40 MLOAD PUSH3 0x461BCD PUSH1 0xE5 SHL DUP2 MSTORE PUSH1 0x4 DUP2 ADD DUP5 SWAP1 MSTORE PUSH1 0x8 PUSH1 0x24 DUP3 ADD MSTORE PUSH8 0x4E6F2066756E6473 PUSH1 0xC0 SHL PUSH1 0x44 DUP3 ADD MSTORE PUSH1 0x64 SWAP1 REVERT JUMPDEST PUSH1 0x40 MLOAD PUSH3 0x461BCD PUSH1 0xE5 SHL DUP2 MSTORE PUSH1 0x4 DUP2 ADD DUP5 SWAP1 MSTORE PUSH1 0xA PUSH1 0x24 DUP3 ADD MSTORE PUSH10 0x44657620616374697665 PUSH1 0xB0 SHL PUSH1 0x44 DUP3 ADD MSTORE PUSH1 0x64 SWAP1 REVERT JUMPDEST POP CALLVALUE PUSH2 0x39D JUMPI DUP1 PUSH1 0x3 NOT CALLDATASIZE ADD SLT PUSH2 0x39D JUMPI PUSH1 0x20 PUSH1 0xD SLOAD PUSH1 0x40 MLOAD SWAP1 DUP2 MSTORE RETURN JUMPDEST POP CALLVALUE PUSH2 0x39D JUMPI PUSH1 0x20 CALLDATASIZE PUSH1 0x3 NOT ADD SLT PUSH2 0x39D JUMPI PUSH1 0x1 PUSH1 0x1 PUSH1 0xA0 SHL SUB PUSH2 0x115E PUSH2 0x3F34 JUMP JUMPDEST AND DUP2 MSTORE PUSH1 0x15 PUSH1 0x20 MSTORE PUSH1 0x40 DUP2 KECCAK256 SLOAD PUSH1 0x16 PUSH1 0x20 MSTORE PUSH2 0x118D PUSH1 0x40 DUP1 DUP5 KECCAK256 SLOAD SWAP4 PUSH1 0x17 PUSH1 0x20 MSTORE KECCAK256 SLOAD PUSH1 0x40 MLOAD SWAP4 DUP5 SWAP4 DUP5 PUSH2 0x400A JUMP JUMPDEST SUB SWAP1 RETURN JUMPDEST POP CALLVALUE PUSH2 0x39D JUMPI DUP1 PUSH1 0x3 NOT CALLDATASIZE ADD SLT PUSH2 0x39D JUMPI PUSH1 0x20 PUSH1 0x40 MLOAD PUSH1 0x1E DUP2 MSTORE RETURN JUMPDEST POP CALLVALUE PUSH2 0x39D JUMPI DUP1 PUSH1 0x3 NOT CALLDATASIZE ADD SLT PUSH2 0x39D JUMPI PUSH1 0x20 PUSH1 0x2 SLOAD PUSH1 0x40 MLOAD SWAP1 DUP2 MSTORE RETURN JUMPDEST POP CALLVALUE PUSH2 0x39D JUMPI PUSH1 0x20 CALLDATASIZE PUSH1 0x3 NOT ADD SLT PUSH2 0x39D JUMPI PUSH1 0x1 PUSH1 0x1 PUSH1 0xA0 SHL SUB PUSH2 0x11ED PUSH2 0x3F34 JUMP JUMPDEST AND DUP2 MSTORE PUSH1 0x1 PUSH1 0x20 MSTORE PUSH1 0x40 PUSH1 0x6 DUP2 DUP4 KECCAK256 ADD SLOAD SWAP2 PUSH1 0x14 PUSH1 0x20 MSTORE KECCAK256 SLOAD SWAP1 PUSH2 0x118D PUSH2 0x1214 DUP4 DUP4 PUSH2 0x4249 JUMP JUMPDEST PUSH1 0x40 MLOAD SWAP4 DUP5 SWAP4 DUP5 PUSH2 0x400A JUMP JUMPDEST POP CALLVALUE PUSH2 0x39D JUMPI PUSH1 0x60 CALLDATASIZE PUSH1 0x3 NOT ADD SLT PUSH2 0x39D JUMPI PUSH2 0x123A PUSH2 0x3F34 JUMP JUMPDEST SWAP1 PUSH2 0x1243 PUSH2 0x3F4A JUMP JUMPDEST SWAP1 PUSH1 0x44 CALLDATALOAD SWAP3 PUSH1 0x1 DUP1 PUSH1 0xA0 SHL SUB SWAP2 DUP3 DUP6 AND DUP1 SWAP6 SUB PUSH2 0x128C JUMPI DUP3 PUSH1 0x40 SWAP3 AND DUP2 MSTORE PUSH1 0x1B PUSH1 0x20 MSTORE KECCAK256 SWAP2 AND PUSH0 MSTORE PUSH1 0x20 MSTORE PUSH1 0x40 PUSH0 KECCAK256 SWAP1 PUSH0 MSTORE PUSH1 0x20 MSTORE PUSH1 0x20 PUSH1 0xFF PUSH1 0x40 PUSH0 KECCAK256 SLOAD AND PUSH1 0x40 MLOAD SWAP1 ISZERO ISZERO DUP2 MSTORE RETURN JUMPDEST PUSH0 DUP1 REVERT JUMPDEST POP CALLVALUE PUSH2 0x39D JUMPI DUP1 PUSH1 0x3 NOT CALLDATASIZE ADD SLT PUSH2 0x39D JUMPI PUSH1 0x20 PUSH1 0x40 MLOAD PUSH2 0xE10 DUP2 MSTORE RETURN JUMPDEST POP CALLVALUE PUSH2 0x39D JUMPI PUSH1 0x40 CALLDATASIZE PUSH1 0x3 NOT ADD SLT PUSH2 0x39D JUMPI PUSH2 0x12C7 PUSH2 0x3F34 JUMP JUMPDEST PUSH1 0x40 PUSH2 0x12D1 PUSH2 0x3F4A JUMP JUMPDEST SWAP3 PUSH1 0x1 DUP1 PUSH1 0xA0 SHL SUB DUP1 SWAP4 AND DUP2 MSTORE PUSH1 0x5 PUSH1 0x20 MSTORE KECCAK256 SWAP2 AND PUSH0 MSTORE PUSH1 0x20 MSTORE PUSH1 0x20 PUSH1 0x40 PUSH0 KECCAK256 SLOAD PUSH1 0x40 MLOAD SWAP1 DUP2 MSTORE RETURN JUMPDEST POP CALLVALUE PUSH2 0x39D JUMPI DUP1 PUSH1 0x3 NOT CALLDATASIZE ADD SLT PUSH2 0x39D JUMPI CALLER DUP2 MSTORE PUSH1 0x7 PUSH1 0x20 MSTORE TIMESTAMP PUSH1 0x40 DUP3 KECCAK256 SSTORE PUSH1 0x40 MLOAD TIMESTAMP DUP2 MSTORE PUSH0 DUP1 MLOAD PUSH1 0x20 PUSH2 0x5F1C DUP4 CODECOPY DUP2 MLOAD SWAP2 MSTORE PUSH1 0x20 CALLER SWAP3 LOG2 DUP1 RETURN JUMPDEST POP CALLVALUE PUSH2 0x39D JUMPI DUP1 PUSH1 0x3 NOT CALLDATASIZE ADD SLT PUSH2 0x39D JUMPI SLOAD PUSH1 0x40 MLOAD PUSH1 0x1 PUSH1 0x1 PUSH1 0xA0 SHL SUB SWAP1 SWAP2 AND DUP2 MSTORE PUSH1 0x20 SWAP1 RETURN JUMPDEST POP CALLVALUE PUSH2 0x39D JUMPI PUSH1 0x20 DUP1 PUSH1 0x3 NOT CALLDATASIZE ADD SLT PUSH2 0x40A JUMPI PUSH2 0x1377 PUSH2 0x3F34 JUMP JUMPDEST SWAP1 PUSH2 0x1380 PUSH2 0x4683 JUMP JUMPDEST PUSH1 0x1 PUSH1 0x1 PUSH1 0xA0 SHL SUB SWAP2 DUP3 AND DUP1 DUP5 MSTORE PUSH1 0x1 DUP1 DUP4 MSTORE PUSH1 0x40 DUP6 KECCAK256 SWAP1 DUP2 ADD SLOAD SWAP2 SWAP4 SWAP1 SWAP2 AND CALLER SUB PUSH2 0x14A2 JUMPI PUSH1 0xFF PUSH1 0xC DUP3 PUSH2 0x13BF DUP4 PUSH1 0x10 PUSH1 0x3 SWAP7 ADD SLOAD PUSH1 0x8 SHR AND PUSH2 0x4510 JUMP JUMPDEST ADD SLOAD AND SUB PUSH2 0x146F JUMPI DUP2 DUP4 MSTORE PUSH1 0xC DUP2 MSTORE PUSH1 0x40 DUP4 KECCAK256 SLOAD SWAP2 DUP3 ISZERO PUSH2 0x143F JUMPI DUP4 MSTORE PUSH1 0xC DUP2 MSTORE DUP3 PUSH1 0x40 DUP2 KECCAK256 SSTORE DUP3 DUP1 DUP1 DUP1 DUP6 CALLER GAS CALL PUSH2 0x13F6 PUSH2 0x4446 JUMP JUMPDEST POP ISZERO PUSH2 0x143B JUMPI PUSH32 0x623AAF84687869EFE3B904DD42BC0BD45020D407984041C86F9FE076BE224708 SWAP1 PUSH1 0x40 MLOAD SWAP3 DUP4 MSTORE CALLER SWAP3 LOG2 PUSH1 0x1 PUSH0 DUP1 MLOAD PUSH1 0x20 PUSH2 0x5F9C DUP4 CODECOPY DUP2 MLOAD SWAP2 MSTORE SSTORE DUP1 RETURN JUMPDEST DUP3 DUP1 REVERT JUMPDEST PUSH1 0x40 MLOAD PUSH3 0x461BCD PUSH1 0xE5 SHL DUP2 MSTORE PUSH1 0x4 DUP2 ADD DUP4 SWAP1 MSTORE PUSH1 0x8 PUSH1 0x24 DUP3 ADD MSTORE PUSH8 0x4E6F207374616B65 PUSH1 0xC0 SHL PUSH1 0x44 DUP3 ADD MSTORE PUSH1 0x64 SWAP1 REVERT JUMPDEST PUSH1 0x64 SWAP1 PUSH1 0x40 MLOAD SWAP1 PUSH3 0x461BCD PUSH1 0xE5 SHL DUP3 MSTORE PUSH1 0x4 DUP3 ADD MSTORE PUSH1 0xC PUSH1 0x24 DUP3 ADD MSTORE PUSH12 0x4E6F7420636F6D706C657465 PUSH1 0xA0 SHL PUSH1 0x44 DUP3 ADD MSTORE REVERT JUMPDEST PUSH1 0x40 MLOAD PUSH3 0x461BCD PUSH1 0xE5 SHL DUP2 MSTORE PUSH1 0x4 DUP2 ADD DUP4 SWAP1 MSTORE PUSH1 0x7 PUSH1 0x24 DUP3 ADD MSTORE PUSH7 0x2737BA103232BB PUSH1 0xC9 SHL PUSH1 0x44 DUP3 ADD MSTORE PUSH1 0x64 SWAP1 REVERT JUMPDEST POP CALLVALUE PUSH2 0x39D JUMPI PUSH1 0x20 CALLDATASIZE PUSH1 0x3 NOT ADD SLT PUSH2 0x39D JUMPI PUSH1 0x20 SWAP1 PUSH1 0xFF SWAP1 PUSH1 0x40 SWAP1 PUSH1 0x1 PUSH1 0x1 PUSH1 0xA0 SHL SUB PUSH2 0x14FC PUSH2 0x3F34 JUMP JUMPDEST AND DUP2 MSTORE PUSH1 0x6 DUP5 MSTORE KECCAK256 SLOAD AND PUSH1 0x40 MLOAD SWAP1 ISZERO ISZERO DUP2 MSTORE RETURN JUMPDEST POP CALLVALUE PUSH2 0x39D JUMPI PUSH1 0x20 DUP1 PUSH1 0x3 NOT CALLDATASIZE ADD SLT PUSH2 0x40A JUMPI PUSH1 0xA0 SWAP2 PUSH1 0x1 PUSH1 0x1 PUSH1 0xA0 SHL SUB SWAP2 DUP3 PUSH2 0x1538 PUSH2 0x3F34 JUMP JUMPDEST AND DUP3 MSTORE PUSH1 0x13 DUP2 MSTORE PUSH1 0xFF PUSH1 0x40 DUP4 KECCAK256 SLOAD AND SWAP3 PUSH1 0x10 DUP3 MSTORE PUSH1 0x40 DUP4 KECCAK256 SLOAD AND PUSH1 0x11 DUP3 MSTORE PUSH1 0x40 DUP4 KECCAK256 SLOAD SWAP1 PUSH1 0x12 DUP4 MSTORE PUSH1 0x40 DUP5 KECCAK256 SLOAD SWAP3 PUSH1 0x13 DUP2 MSTORE PUSH1 0xFF PUSH1 0x40 DUP7 KECCAK256 SLOAD AND SWAP5 DUP6 PUSH2 0x15B1 JUMPI JUMPDEST DUP6 PUSH2 0x159E JUMPI JUMPDEST POP PUSH1 0x40 MLOAD SWAP6 ISZERO ISZERO DUP7 MSTORE DUP6 ADD MSTORE PUSH1 0x40 DUP5 ADD MSTORE PUSH1 0x60 DUP4 ADD MSTORE ISZERO ISZERO PUSH1 0x80 DUP3 ADD MSTORE RETURN JUMPDEST PUSH1 0x11 DUP3 MSTORE PUSH1 0x40 SWAP1 KECCAK256 SLOAD ISZERO ISZERO SWAP5 POP PUSH0 PUSH2 0x157F JUMP JUMPDEST PUSH1 0x12 DUP3 MSTORE PUSH1 0x40 DUP2 KECCAK256 SLOAD TIMESTAMP LT ISZERO SWAP6 POP PUSH2 0x1579 JUMP JUMPDEST POP PUSH2 0x160 CALLDATASIZE PUSH1 0x3 NOT ADD SLT PUSH2 0x39D JUMPI PUSH1 0x4 CALLDATALOAD PUSH1 0x1 PUSH1 0x1 PUSH1 0x40 SHL SUB DUP2 GT PUSH2 0x40A JUMPI PUSH2 0x15F1 SWAP1 CALLDATASIZE SWAP1 PUSH1 0x4 ADD PUSH2 0x3FDD JUMP JUMPDEST PUSH1 0x24 CALLDATALOAD PUSH1 0x1 PUSH1 0x1 PUSH1 0x40 SHL SUB DUP2 GT PUSH2 0xFD6 JUMPI PUSH2 0x1610 SWAP1 CALLDATASIZE SWAP1 PUSH1 0x4 ADD PUSH2 0x3FDD JUMP JUMPDEST SWAP1 PUSH1 0xC4 CALLDATALOAD SWAP2 PUSH2 0xFFFF DUP4 AND DUP4 SUB PUSH2 0xFD2 JUMPI PUSH1 0x1 PUSH1 0x1 PUSH1 0x40 SHL SUB PUSH2 0x104 CALLDATALOAD GT PUSH2 0xFD2 JUMPI PUSH2 0x1656 PUSH2 0x1644 CALLDATASIZE PUSH2 0x104 CALLDATALOAD PUSH1 0x4 ADD PUSH2 0x3FDD JUMP JUMPDEST SWAP1 PUSH2 0x164D PUSH2 0x4683 JUMP JUMPDEST PUSH1 0xE4 CALLDATALOAD CALLER PUSH2 0x46DD JUMP JUMPDEST CALLER DUP7 MSTORE PUSH1 0xA PUSH1 0x20 MSTORE PUSH1 0xFF PUSH1 0x40 DUP8 KECCAK256 SLOAD AND PUSH2 0x225A JUMPI PUSH1 0xB SLOAD SWAP5 PUSH8 0x16345785D8A0000 DUP7 ADD DUP7 GT PUSH2 0xB40 JUMPI PUSH8 0x16345785D8A0000 DUP7 ADD CALLVALUE LT PUSH2 0x2225 JUMPI PUSH1 0xB4 PUSH1 0x84 CALLDATALOAD LT PUSH2 0x2213 JUMPI PUSH1 0x5A PUSH1 0xA4 CALLDATALOAD LT PUSH2 0x2201 JUMPI PUSH2 0x3E8 PUSH2 0xFFFF DUP6 AND GT PUSH2 0x21EF JUMPI PUSH1 0x44 CALLDATALOAD ISZERO PUSH2 0x21DD JUMPI PUSH1 0x64 CALLDATALOAD ISZERO PUSH2 0x21CB JUMPI DUP5 ISZERO DUP1 ISZERO PUSH2 0x21C3 JUMPI JUMPDEST PUSH2 0x21B1 JUMPI PUSH1 0x7 PUSH2 0x144 CALLDATALOAD LT ISZERO DUP1 PUSH2 0x21A3 JUMPI JUMPDEST ISZERO PUSH2 0x2168 JUMPI PUSH2 0x124 CALLDATALOAD PUSH2 0x210C JUMPI JUMPDEST PUSH1 0x28 PUSH2 0x1F4 PUSH2 0xFFFF DUP7 AND GT ISZERO PUSH2 0x2104 JUMPI JUMPDEST PUSH2 0x1707 PUSH2 0x170C SWAP2 PUSH2 0x4373 JUMP JUMPDEST PUSH2 0x4373 JUMP JUMPDEST PUSH1 0x40 MLOAD SWAP1 SWAP8 SWAP1 PUSH1 0x1 PUSH1 0x1 PUSH1 0x40 SHL SUB PUSH2 0x1594 DUP3 ADD SWAP1 DUP2 GT SWAP1 DUP3 GT OR PUSH2 0x20F0 JUMPI PUSH2 0x1594 PUSH2 0x4988 DUP3 CODECOPY PUSH1 0x80 PUSH2 0x1594 DUP3 ADD MSTORE DUP1 PUSH2 0x1767 PUSH2 0x1750 PUSH1 0x80 PUSH2 0x1594 DUP5 ADD ADD DUP11 DUP8 PUSH2 0x4494 JUMP JUMPDEST PUSH2 0x1594 DUP4 ADD DUP2 SUB PUSH1 0x20 PUSH2 0x1594 DUP6 ADD ADD MSTORE DUP7 DUP9 PUSH2 0x4494 JUMP JUMPDEST PUSH1 0x44 CALLDATALOAD PUSH1 0x40 PUSH2 0x1594 DUP5 ADD ADD MSTORE ADDRESS PUSH1 0x60 PUSH2 0x1594 DUP5 ADD ADD MSTORE SUB SWAP1 DUP3 CREATE SWAP7 DUP8 ISZERO PUSH2 0x20E3 JUMPI PUSH2 0x2710 PUSH2 0x179B PUSH2 0xFFFF DUP9 AND PUSH1 0x44 CALLDATALOAD PUSH2 0x41C1 JUMP JUMPDEST DIV PUSH1 0xA4 CALLDATALOAD PUSH3 0x15180 PUSH1 0xA4 CALLDATALOAD MUL DIV PUSH3 0x15180 EQ PUSH1 0xA4 CALLDATALOAD ISZERO OR ISZERO PUSH2 0x2069 JUMPI PUSH1 0x1 PUSH1 0x1 PUSH1 0xA0 SHL SUB DUP10 AND EXTCODESIZE ISZERO PUSH2 0x143B JUMPI PUSH1 0x40 MLOAD PUSH4 0xD823F83 PUSH1 0xE2 SHL DUP2 MSTORE CALLER PUSH1 0x4 DUP3 ADD MSTORE PUSH1 0x24 DUP2 ADD DUP3 SWAP1 MSTORE TIMESTAMP PUSH1 0x44 DUP3 ADD MSTORE PUSH1 0xA4 DUP1 CALLDATALOAD PUSH3 0x15180 MUL PUSH1 0x64 DUP4 ADD MSTORE PUSH1 0xC8 PUSH1 0x84 DUP4 ADD MSTORE DUP5 SWAP1 DUP3 SWAP1 DUP2 DUP4 PUSH1 0x1 PUSH1 0x1 PUSH1 0xA0 SHL SUB DUP16 AND GAS CALL DUP1 ISZERO PUSH2 0x20C4 JUMPI SWAP1 DUP5 SWAP2 PUSH2 0x20CF JUMPI JUMPDEST POP POP PUSH1 0x3C TIMESTAMP ADD TIMESTAMP GT PUSH2 0x2069 JUMPI PUSH1 0x1 PUSH1 0x1 PUSH1 0xA0 SHL SUB DUP10 AND EXTCODESIZE ISZERO PUSH2 0x143B JUMPI PUSH1 0x40 MLOAD PUSH4 0x13A62FA9 PUSH1 0xE1 SHL DUP2 MSTORE TIMESTAMP PUSH1 0x3C ADD PUSH1 0x4 DUP3 ADD MSTORE DUP4 DUP2 PUSH1 0x24 DUP2 DUP4 PUSH1 0x1 PUSH1 0x1 PUSH1 0xA0 SHL SUB DUP16 AND GAS CALL DUP1 ISZERO PUSH2 0x20C4 JUMPI SWAP1 DUP5 SWAP2 PUSH2 0x20B0 JUMPI JUMPDEST POP POP PUSH1 0x1 PUSH1 0x1 PUSH1 0xA0 SHL SUB DUP10 AND EXTCODESIZE ISZERO PUSH2 0x143B JUMPI DUP3 PUSH2 0x18A0 SWAP2 PUSH1 0x40 MLOAD DUP1 SWAP4 DUP2 SWAP3 PUSH4 0x40C10F19 PUSH1 0xE0 SHL DUP4 MSTORE CALLER PUSH1 0x4 DUP5 ADD PUSH2 0x4217 JUMP JUMPDEST SUB DUP2 DUP4 PUSH1 0x1 PUSH1 0x1 PUSH1 0xA0 SHL SUB DUP15 AND GAS CALL DUP1 ISZERO PUSH2 0x20A5 JUMPI SWAP1 DUP4 SWAP2 PUSH2 0x2091 JUMPI JUMPDEST POP POP PUSH3 0x278D00 TIMESTAMP ADD TIMESTAMP GT PUSH2 0x207D JUMPI PUSH3 0x76A700 TIMESTAMP ADD TIMESTAMP GT PUSH2 0x207D JUMPI PUSH2 0x2710 PUSH2 0x18E9 PUSH2 0x124 CALLDATALOAD PUSH1 0x64 CALLDATALOAD PUSH2 0x41C1 JUMP JUMPDEST DIV PUSH2 0x144 CALLDATALOAD PUSH3 0x15180 PUSH2 0x144 CALLDATALOAD MUL DIV PUSH3 0x15180 EQ PUSH2 0x144 CALLDATALOAD ISZERO OR ISZERO PUSH2 0x2069 JUMPI PUSH2 0x191A PUSH3 0x15180 PUSH2 0x144 CALLDATALOAD MUL TIMESTAMP PUSH2 0x41F2 JUMP JUMPDEST PUSH1 0x40 MLOAD SWAP2 PUSH1 0x1 PUSH1 0x1 PUSH1 0x40 SHL SUB PUSH2 0x380 DUP5 ADD SWAP1 DUP2 GT SWAP1 DUP5 GT OR PUSH2 0x1EB3 JUMPI PUSH2 0x380 DUP4 ADD PUSH1 0x40 MSTORE PUSH1 0x1 PUSH1 0x1 PUSH1 0xA0 SHL SUB DUP12 AND DUP4 MSTORE CALLER PUSH1 0x20 DUP5 ADD MSTORE PUSH2 0x195B CALLDATASIZE DUP12 DUP9 PUSH2 0x44C2 JUMP JUMPDEST PUSH1 0x40 DUP5 ADD MSTORE PUSH2 0x196B CALLDATASIZE DUP9 DUP11 PUSH2 0x44C2 JUMP JUMPDEST PUSH1 0x60 DUP5 ADD MSTORE PUSH1 0x44 CALLDATALOAD PUSH1 0x80 DUP5 ADD MSTORE PUSH1 0x64 CALLDATALOAD PUSH1 0xA0 DUP5 ADD MSTORE DUP5 PUSH1 0xC0 DUP5 ADD MSTORE PUSH1 0x84 CALLDATALOAD PUSH1 0xE0 DUP5 ADD MSTORE PUSH1 0xA4 CALLDATALOAD PUSH2 0x100 DUP5 ADD MSTORE PUSH2 0xFFFF DUP10 AND PUSH2 0x120 DUP5 ADD MSTORE TIMESTAMP PUSH2 0x140 DUP5 ADD MSTORE PUSH1 0x3C TIMESTAMP ADD PUSH2 0x160 DUP5 ADD MSTORE DUP5 PUSH2 0x180 DUP5 ADD MSTORE TIMESTAMP PUSH2 0x1A0 DUP5 ADD MSTORE PUSH3 0x278D00 TIMESTAMP ADD PUSH2 0x1C0 DUP5 ADD MSTORE PUSH3 0x76A700 TIMESTAMP ADD PUSH2 0x1E0 DUP5 ADD MSTORE PUSH1 0xFF DUP13 AND PUSH2 0x200 DUP5 ADD MSTORE PUSH1 0x1 PUSH2 0x220 DUP5 ADD MSTORE DUP5 PUSH2 0x240 DUP5 ADD MSTORE PUSH1 0x14 PUSH1 0x64 CALLDATALOAD DIV PUSH2 0x260 DUP5 ADD MSTORE DUP5 PUSH2 0x280 DUP5 ADD MSTORE PUSH2 0xBB8 PUSH2 0x2A0 DUP5 ADD MSTORE DUP5 PUSH2 0x2C0 DUP5 ADD MSTORE DUP5 PUSH2 0x2E0 DUP5 ADD MSTORE PUSH2 0x300 DUP4 ADD MSTORE PUSH2 0x320 DUP3 ADD MSTORE DUP3 PUSH2 0x340 DUP3 ADD MSTORE DUP3 PUSH2 0x360 DUP3 ADD MSTORE PUSH1 0x1 DUP1 PUSH1 0xA0 SHL SUB DUP10 AND DUP4 MSTORE PUSH1 0x1 PUSH1 0x20 MSTORE PUSH1 0x40 DUP4 KECCAK256 PUSH1 0x1 DUP1 PUSH1 0xA0 SHL SUB DUP3 MLOAD AND PUSH1 0x1 DUP1 PUSH1 0xA0 SHL SUB NOT SWAP1 DUP2 DUP4 SLOAD AND OR DUP3 SSTORE PUSH1 0x1 DUP3 ADD SWAP1 PUSH1 0x1 DUP1 PUSH1 0xA0 SHL SUB PUSH1 0x20 DUP6 ADD MLOAD AND SWAP1 DUP3 SLOAD AND OR SWAP1 SSTORE PUSH1 0x40 DUP3 ADD MLOAD DUP1 MLOAD SWAP1 PUSH1 0x1 DUP1 PUSH1 0x40 SHL SUB DUP3 GT PUSH2 0x1F8C JUMPI DUP2 SWAP1 PUSH2 0x1AA1 PUSH1 0x2 DUP6 ADD SLOAD PUSH2 0x4020 JUMP JUMPDEST PUSH1 0x1F DUP2 GT PUSH2 0x2019 JUMPI JUMPDEST POP PUSH1 0x20 SWAP1 PUSH1 0x1F DUP4 GT PUSH1 0x1 EQ PUSH2 0x1FAB JUMPI DUP8 SWAP3 PUSH2 0x1FA0 JUMPI JUMPDEST POP POP DUP2 PUSH1 0x1 SHL SWAP2 PUSH0 NOT SWAP1 PUSH1 0x3 SHL SHR NOT AND OR PUSH1 0x2 DUP3 ADD SSTORE JUMPDEST PUSH1 0x60 DUP3 ADD MLOAD DUP1 MLOAD SWAP1 PUSH1 0x1 PUSH1 0x1 PUSH1 0x40 SHL SUB DUP3 GT PUSH2 0x1F8C JUMPI PUSH2 0x1AFA PUSH1 0x3 DUP5 ADD SLOAD PUSH2 0x4020 JUMP JUMPDEST PUSH1 0x1F DUP2 GT PUSH2 0x1F48 JUMPI JUMPDEST POP PUSH1 0x20 SWAP1 PUSH1 0x1F DUP4 GT PUSH1 0x1 EQ PUSH2 0x1ED2 JUMPI SWAP3 DUP3 PUSH2 0x360 SWAP4 PUSH1 0x18 SWAP4 PUSH2 0x1C96 SWAP8 SWAP7 DUP11 SWAP3 PUSH2 0x1EC7 JUMPI JUMPDEST POP POP DUP2 PUSH1 0x1 SHL SWAP2 PUSH0 NOT SWAP1 PUSH1 0x3 SHL SHR NOT AND OR PUSH1 0x3 DUP3 ADD SSTORE JUMPDEST PUSH1 0x80 DUP5 ADD MLOAD PUSH1 0x4 DUP3 ADD SSTORE PUSH1 0xA0 DUP5 ADD MLOAD PUSH1 0x5 DUP3 ADD SSTORE PUSH1 0xC0 DUP5 ADD MLOAD PUSH1 0x6 DUP3 ADD SSTORE PUSH1 0xE0 DUP5 ADD MLOAD PUSH1 0x7 DUP3 ADD SSTORE PUSH2 0x100 DUP5 ADD MLOAD PUSH1 0x8 DUP3 ADD SSTORE PUSH1 0x9 DUP2 ADD PUSH2 0xFFFF PUSH2 0x120 DUP7 ADD MLOAD AND PUSH2 0xFFFF NOT DUP3 SLOAD AND OR SWAP1 SSTORE PUSH2 0x140 DUP5 ADD MLOAD PUSH1 0xA DUP3 ADD SSTORE PUSH2 0x160 DUP5 ADD MLOAD PUSH1 0xB DUP3 ADD SSTORE PUSH1 0xFF PUSH2 0x180 DUP6 ADD MLOAD AND PUSH1 0xFF NOT PUSH1 0xC DUP4 ADD SLOAD AND OR PUSH1 0xC DUP3 ADD SSTORE PUSH2 0x1A0 DUP5 ADD MLOAD PUSH1 0xD DUP3 ADD SSTORE PUSH2 0x1C0 DUP5 ADD MLOAD PUSH1 0xE DUP3 ADD SSTORE PUSH2 0x1E0 DUP5 ADD MLOAD PUSH1 0xF DUP3 ADD SSTORE PUSH1 0x10 DUP2 ADD PUSH1 0xFF PUSH2 0x200 DUP7 ADD MLOAD AND PUSH1 0xFF NOT DUP3 SLOAD AND OR DUP2 SSTORE PUSH2 0x1BFF PUSH2 0x220 DUP7 ADD MLOAD ISZERO ISZERO DUP3 PUSH2 0x44F8 JUMP JUMPDEST PUSH2 0x240 DUP6 ADD MLOAD ISZERO ISZERO PUSH3 0xFF0000 DUP3 SLOAD SWAP2 PUSH1 0x10 SHL AND SWAP1 PUSH3 0xFF0000 NOT AND OR SWAP1 SSTORE PUSH2 0x260 DUP5 ADD MLOAD PUSH1 0x11 DUP3 ADD SSTORE PUSH2 0x280 DUP5 ADD MLOAD PUSH1 0x12 DUP3 ADD SSTORE PUSH1 0x13 DUP2 ADD PUSH2 0xFFFF PUSH2 0x2A0 DUP7 ADD MLOAD AND PUSH2 0xFFFF NOT DUP3 SLOAD AND OR SWAP1 SSTORE PUSH2 0x2C0 DUP5 ADD MLOAD PUSH1 0x14 DUP3 ADD SSTORE PUSH2 0x2E0 DUP5 ADD MLOAD PUSH1 0x15 DUP3 ADD SSTORE PUSH2 0x300 DUP5 ADD MLOAD PUSH1 0x16 DUP3 ADD SSTORE PUSH2 0x320 DUP5 ADD MLOAD PUSH1 0x17 DUP3 ADD SSTORE ADD SWAP2 PUSH2 0x340 DUP2 ADD MLOAD ISZERO ISZERO PUSH1 0xFF DUP1 NOT DUP6 SLOAD AND SWAP2 AND OR DUP4 SSTORE ADD MLOAD ISZERO ISZERO SWAP1 PUSH2 0x44F8 JUMP JUMPDEST PUSH1 0x1 PUSH1 0x1 PUSH1 0xA0 SHL SUB DUP9 AND DUP1 DUP4 MSTORE PUSH1 0x19 PUSH1 0x20 SWAP1 DUP2 MSTORE PUSH1 0x40 DUP1 DUP6 KECCAK256 CALLER PUSH0 SWAP1 DUP2 MSTORE SWAP1 DUP4 MSTORE DUP2 SWAP1 KECCAK256 DUP1 SLOAD PUSH1 0x1 PUSH1 0xFF NOT SWAP2 DUP3 AND DUP2 OR SWAP1 SWAP3 SSTORE SWAP4 DUP7 MSTORE PUSH1 0x6 SWAP1 SWAP3 MSTORE DUP5 KECCAK256 DUP1 SLOAD SWAP1 SWAP3 AND OR SWAP1 SSTORE PUSH1 0x2 SLOAD PUSH1 0x1 PUSH1 0x40 SHL DUP2 LT ISZERO PUSH2 0x1EB3 JUMPI DUP1 PUSH1 0x1 PUSH2 0x1CFA SWAP3 ADD PUSH1 0x2 SSTORE PUSH2 0x3F9C JUMP JUMPDEST DUP2 SLOAD PUSH1 0x1 PUSH1 0x1 PUSH1 0xA0 SHL SUB DUP12 DUP2 AND PUSH1 0x3 SWAP4 SWAP1 SWAP4 SHL SWAP3 DUP4 SHL SWAP3 SHL NOT AND OR SWAP1 SSTORE CALLER DUP3 MSTORE PUSH1 0x15 PUSH1 0x20 MSTORE PUSH1 0x40 DUP3 KECCAK256 DUP1 SLOAD SWAP1 SWAP2 PUSH1 0x1 PUSH1 0x40 SHL DUP3 LT ISZERO PUSH2 0x1EB3 JUMPI PUSH2 0x1D4F DUP3 PUSH2 0x1D82 SWAP5 PUSH1 0x1 PUSH8 0x16345785D8A0000 SWAP6 ADD DUP2 SSTORE PUSH2 0x3FC8 JUMP JUMPDEST DUP2 SLOAD PUSH1 0x1 PUSH1 0x1 PUSH1 0xA0 SHL SUB DUP14 DUP2 AND PUSH1 0x3 SWAP4 SWAP1 SWAP4 SHL SWAP3 DUP4 SHL SWAP3 SHL NOT AND OR SWAP1 SSTORE CALLER DUP5 MSTORE PUSH1 0x7 PUSH1 0x20 MSTORE PUSH1 0x40 DUP5 KECCAK256 TIMESTAMP SWAP1 SSTORE ADD CALLVALUE PUSH2 0x4249 JUMP JUMPDEST DUP2 PUSH1 0xB SLOAD DUP1 PUSH2 0x1E89 JUMPI JUMPDEST POP POP PUSH1 0x1 PUSH1 0x1 PUSH1 0xA0 SHL SUB DUP9 AND DUP3 MSTORE PUSH1 0xC PUSH1 0x20 MSTORE PUSH1 0x40 DUP3 KECCAK256 PUSH8 0x16345785D8A0000 SWAP1 SSTORE DUP1 PUSH2 0x1E6D JUMPI JUMPDEST POP POP PUSH2 0x1DE8 PUSH1 0xFF SWAP4 PUSH1 0x20 SWAP9 SWAP4 PUSH2 0x1DDB PUSH2 0xFFFF SWAP5 PUSH1 0x40 MLOAD SWAP10 PUSH2 0x100 DUP12 MSTORE PUSH2 0x100 DUP12 ADD SWAP2 PUSH2 0x4494 JUMP JUMPDEST SWAP2 DUP9 DUP4 SUB DUP12 DUP11 ADD MSTORE PUSH2 0x4494 JUMP JUMPDEST PUSH1 0x44 CALLDATALOAD PUSH1 0x40 DUP8 ADD MSTORE PUSH1 0x64 CALLDATALOAD PUSH1 0x60 DUP8 ADD MSTORE PUSH1 0x84 CALLDATALOAD PUSH1 0x80 DUP8 ADD MSTORE PUSH1 0xA4 CALLDATALOAD PUSH1 0xA0 DUP8 ADD MSTORE SWAP4 AND PUSH1 0xC0 DUP6 ADD MSTORE AND PUSH1 0xE0 DUP4 ADD MSTORE CALLER SWAP2 PUSH1 0x1 PUSH1 0x1 PUSH1 0xA0 SHL SUB DUP5 AND SWAP2 PUSH32 0x174B1C441C7E1607660F9AD04CE58CC91786C18B1431B4814B707F3F6F8B3236 SWAP2 SWAP1 DUP2 SWAP1 SUB SWAP1 LOG3 PUSH1 0x1 PUSH0 DUP1 MLOAD PUSH1 0x20 PUSH2 0x5F9C DUP4 CODECOPY DUP2 MLOAD SWAP2 MSTORE SSTORE PUSH1 0x40 MLOAD PUSH1 0x1 PUSH1 0x1 PUSH1 0xA0 SHL SUB SWAP1 SWAP2 AND DUP2 MSTORE RETURN JUMPDEST DUP2 DUP1 DUP1 DUP1 SWAP4 CALLER GAS CALL PUSH2 0x1E7D PUSH2 0x4446 JUMP JUMPDEST POP ISZERO PUSH2 0x39D JUMPI DUP1 PUSH2 0x1DB4 JUMP JUMPDEST PUSH1 0xE SLOAD DUP3 SWAP2 DUP3 SWAP2 DUP3 SWAP2 SWAP1 PUSH1 0x1 PUSH1 0x1 PUSH1 0xA0 SHL SUB AND GAS CALL PUSH2 0x1EA6 PUSH2 0x4446 JUMP JUMPDEST POP ISZERO PUSH2 0x40A JUMPI DUP2 PUSH0 PUSH2 0x1D8C JUMP JUMPDEST PUSH4 0x4E487B71 PUSH1 0xE0 SHL PUSH0 MSTORE PUSH1 0x41 PUSH1 0x4 MSTORE PUSH1 0x24 PUSH0 REVERT JUMPDEST ADD MLOAD SWAP1 POP PUSH0 DUP1 PUSH2 0x1B27 JUMP JUMPDEST SWAP1 PUSH1 0x3 DUP5 ADD DUP8 MSTORE PUSH1 0x20 DUP8 KECCAK256 SWAP2 DUP8 JUMPDEST PUSH1 0x1F NOT DUP6 AND DUP2 LT PUSH2 0x1F30 JUMPI POP DUP4 PUSH1 0x18 SWAP4 PUSH2 0x1C96 SWAP8 SWAP7 SWAP4 PUSH1 0x1 SWAP4 PUSH2 0x360 SWAP8 PUSH1 0x1F NOT DUP2 AND LT PUSH2 0x1F18 JUMPI JUMPDEST POP POP POP DUP2 SHL ADD PUSH1 0x3 DUP3 ADD SSTORE PUSH2 0x1B3E JUMP JUMPDEST ADD MLOAD PUSH0 NOT PUSH1 0xF8 DUP5 PUSH1 0x3 SHL AND SHR NOT AND SWAP1 SSTORE PUSH0 DUP1 DUP1 PUSH2 0x1F08 JUMP JUMPDEST SWAP2 SWAP3 PUSH1 0x20 PUSH1 0x1 DUP2 SWAP3 DUP7 DUP6 ADD MLOAD DUP2 SSTORE ADD SWAP5 ADD SWAP3 ADD PUSH2 0x1EE0 JUMP JUMPDEST PUSH1 0x3 DUP5 ADD DUP8 MSTORE PUSH1 0x20 DUP8 KECCAK256 PUSH1 0x1F DUP5 ADD PUSH1 0x5 SHR DUP2 ADD PUSH1 0x20 DUP6 LT PUSH2 0x1F85 JUMPI JUMPDEST PUSH1 0x1F DUP4 ADD PUSH1 0x5 SHR DUP3 ADD DUP2 LT PUSH2 0x1F7A JUMPI POP POP PUSH2 0x1B03 JUMP JUMPDEST DUP9 DUP2 SSTORE PUSH1 0x1 ADD PUSH2 0x1F64 JUMP JUMPDEST POP DUP1 PUSH2 0x1F64 JUMP JUMPDEST PUSH4 0x4E487B71 PUSH1 0xE0 SHL DUP7 MSTORE PUSH1 0x41 PUSH1 0x4 MSTORE PUSH1 0x24 DUP7 REVERT JUMPDEST ADD MLOAD SWAP1 POP PUSH0 DUP1 PUSH2 0x1AC0 JUMP JUMPDEST SWAP3 POP PUSH1 0x2 DUP5 ADD DUP8 MSTORE PUSH1 0x20 DUP8 KECCAK256 SWAP1 DUP8 SWAP4 JUMPDEST PUSH1 0x1F NOT DUP5 AND DUP6 LT PUSH2 0x1FFE JUMPI PUSH1 0x1 SWAP5 POP DUP4 PUSH1 0x1F NOT DUP2 AND LT PUSH2 0x1FE6 JUMPI JUMPDEST POP POP POP DUP2 SHL ADD PUSH1 0x2 DUP3 ADD SSTORE PUSH2 0x1AD7 JUMP JUMPDEST ADD MLOAD PUSH0 NOT PUSH1 0xF8 DUP5 PUSH1 0x3 SHL AND SHR NOT AND SWAP1 SSTORE PUSH0 DUP1 DUP1 PUSH2 0x1FD6 JUMP JUMPDEST DUP2 DUP2 ADD MLOAD DUP4 SSTORE PUSH1 0x20 SWAP5 DUP6 ADD SWAP5 PUSH1 0x1 SWAP1 SWAP4 ADD SWAP3 SWAP1 SWAP2 ADD SWAP1 PUSH2 0x1FBB JUMP JUMPDEST SWAP1 SWAP2 POP PUSH1 0x2 DUP5 ADD DUP8 MSTORE PUSH1 0x20 DUP8 KECCAK256 PUSH1 0x1F DUP5 ADD PUSH1 0x5 SHR DUP2 ADD PUSH1 0x20 DUP6 LT PUSH2 0x2062 JUMPI JUMPDEST SWAP1 DUP5 SWAP4 SWAP3 SWAP2 JUMPDEST PUSH1 0x1F DUP4 ADD PUSH1 0x5 SHR DUP3 ADD DUP2 LT PUSH2 0x2054 JUMPI POP POP PUSH2 0x1AAA JUMP JUMPDEST DUP10 DUP2 SSTORE DUP6 SWAP5 POP PUSH1 0x1 ADD PUSH2 0x203E JUMP JUMPDEST POP DUP1 PUSH2 0x2038 JUMP JUMPDEST PUSH4 0x4E487B71 PUSH1 0xE0 SHL DUP4 MSTORE PUSH1 0x11 PUSH1 0x4 MSTORE PUSH1 0x24 DUP4 REVERT JUMPDEST PUSH4 0x4E487B71 PUSH1 0xE0 SHL DUP3 MSTORE PUSH1 0x11 PUSH1 0x4 MSTORE PUSH1 0x24 DUP3 REVERT JUMPDEST PUSH2 0x209A SWAP1 PUSH2 0x4058 JUMP JUMPDEST PUSH2 0x40A JUMPI DUP2 PUSH0 PUSH2 0x18BD JUMP JUMPDEST PUSH1 0x40 MLOAD RETURNDATASIZE DUP6 DUP3 RETURNDATACOPY RETURNDATASIZE SWAP1 REVERT JUMPDEST PUSH2 0x20B9 SWAP1 PUSH2 0x4058 JUMP JUMPDEST PUSH2 0x143B JUMPI DUP3 PUSH0 PUSH2 0x186E JUMP JUMPDEST PUSH1 0x40 MLOAD RETURNDATASIZE DUP7 DUP3 RETURNDATACOPY RETURNDATASIZE SWAP1 REVERT JUMPDEST PUSH2 0x20D8 SWAP1 PUSH2 0x4058 JUMP JUMPDEST PUSH2 0x143B JUMPI DUP3 PUSH0 PUSH2 0x181C JUMP JUMPDEST POP PUSH1 0x40 MLOAD SWAP1 RETURNDATASIZE SWAP1 DUP3 RETURNDATACOPY RETURNDATASIZE SWAP1 REVERT JUMPDEST PUSH4 0x4E487B71 PUSH1 0xE0 SHL DUP3 MSTORE PUSH1 0x41 PUSH1 0x4 MSTORE PUSH1 0x24 DUP3 REVERT JUMPDEST POP PUSH1 0x3C PUSH2 0x16FB JUMP JUMPDEST PUSH2 0x7D0 PUSH2 0x124 CALLDATALOAD LT ISZERO DUP1 PUSH2 0x2159 JUMPI JUMPDEST PUSH2 0x16EA JUMPI PUSH1 0x40 MLOAD PUSH3 0x461BCD PUSH1 0xE5 SHL DUP2 MSTORE PUSH1 0x20 PUSH1 0x4 DUP3 ADD MSTORE PUSH1 0x12 PUSH1 0x24 DUP3 ADD MSTORE PUSH18 0x494C3A496E76616C696420736F667463617 PUSH1 0x74 SHL PUSH1 0x44 DUP3 ADD MSTORE PUSH1 0x64 SWAP1 REVERT JUMPDEST POP PUSH2 0x2710 PUSH2 0x124 CALLDATALOAD GT ISZERO PUSH2 0x211B JUMP JUMPDEST PUSH1 0x40 MLOAD PUSH3 0x461BCD PUSH1 0xE5 SHL DUP2 MSTORE PUSH1 0x20 PUSH1 0x4 DUP3 ADD MSTORE PUSH1 0x13 PUSH1 0x24 DUP3 ADD MSTORE PUSH19 0x24A61D24B73B30B634B210323AB930BA34B7B7 PUSH1 0x69 SHL PUSH1 0x44 DUP3 ADD MSTORE PUSH1 0x64 SWAP1 REVERT JUMPDEST POP PUSH1 0x1E PUSH2 0x144 CALLDATALOAD GT ISZERO PUSH2 0x16DC JUMP JUMPDEST PUSH1 0x40 MLOAD PUSH4 0x519A33EB PUSH1 0xE0 SHL DUP2 MSTORE PUSH1 0x4 SWAP1 REVERT JUMPDEST POP DUP2 ISZERO PUSH2 0x16CA JUMP JUMPDEST PUSH1 0x40 MLOAD PUSH4 0x4CF64313 PUSH1 0xE0 SHL DUP2 MSTORE PUSH1 0x4 SWAP1 REVERT JUMPDEST PUSH1 0x40 MLOAD PUSH4 0xC16F3A93 PUSH1 0xE0 SHL DUP2 MSTORE PUSH1 0x4 SWAP1 REVERT JUMPDEST PUSH1 0x40 MLOAD PUSH4 0x47C47A35 PUSH1 0xE0 SHL DUP2 MSTORE PUSH1 0x4 SWAP1 REVERT JUMPDEST PUSH1 0x40 MLOAD PUSH4 0x1DD59AAB PUSH1 0xE3 SHL DUP2 MSTORE PUSH1 0x4 SWAP1 REVERT JUMPDEST PUSH1 0x40 MLOAD PUSH4 0x57E4EB09 PUSH1 0xE0 SHL DUP2 MSTORE PUSH1 0x4 SWAP1 REVERT JUMPDEST PUSH1 0x40 MLOAD PUSH3 0x461BCD PUSH1 0xE5 SHL DUP2 MSTORE PUSH1 0x20 PUSH1 0x4 DUP3 ADD MSTORE PUSH1 0xD PUSH1 0x24 DUP3 ADD MSTORE PUSH13 0x4C6F77206665652B7374616B65 PUSH1 0x98 SHL PUSH1 0x44 DUP3 ADD MSTORE PUSH1 0x64 SWAP1 REVERT JUMPDEST PUSH1 0x40 MLOAD PUSH3 0x461BCD PUSH1 0xE5 SHL DUP2 MSTORE PUSH1 0x20 PUSH1 0x4 DUP3 ADD MSTORE PUSH1 0xB PUSH1 0x24 DUP3 ADD MSTORE PUSH11 0x109B1858DADB1A5CDD1959 PUSH1 0xAA SHL PUSH1 0x44 DUP3 ADD MSTORE PUSH1 0x64 SWAP1 REVERT JUMPDEST POP CALLVALUE PUSH2 0x39D JUMPI DUP1 PUSH1 0x3 NOT CALLDATASIZE ADD SLT PUSH2 0x39D JUMPI PUSH1 0x20 PUSH1 0x40 MLOAD PUSH2 0x7D0 DUP2 MSTORE RETURN JUMPDEST POP CALLVALUE PUSH2 0x39D JUMPI PUSH1 0x20 CALLDATASIZE PUSH1 0x3 NOT ADD SLT PUSH2 0x39D JUMPI PUSH1 0x20 SWAP1 PUSH1 0x1 PUSH1 0x1 PUSH1 0xA0 SHL SUB SWAP1 PUSH1 0x40 SWAP1 DUP3 PUSH2 0x22D4 PUSH2 0x3F34 JUMP JUMPDEST AND DUP2 MSTORE PUSH1 0x10 DUP5 MSTORE KECCAK256 SLOAD AND PUSH1 0x40 MLOAD SWAP1 DUP2 MSTORE RETURN JUMPDEST POP PUSH1 0x20 DUP1 PUSH1 0x3 NOT CALLDATASIZE ADD SLT PUSH2 0x40A JUMPI PUSH2 0x22FC PUSH2 0x3F34 JUMP JUMPDEST PUSH2 0x2304 PUSH2 0x4683 JUMP JUMPDEST PUSH1 0x1 DUP1 PUSH1 0xA0 SHL SUB DUP1 SWAP2 AND SWAP1 DUP2 DUP5 MSTORE PUSH1 0x1 DUP4 MSTORE PUSH1 0x40 DUP5 KECCAK256 PUSH1 0xFF PUSH2 0x232E DUP2 PUSH1 0x10 DUP5 ADD SLOAD PUSH1 0x8 SHR AND PUSH2 0x4334 JUMP JUMPDEST PUSH1 0x17 DUP3 ADD SLOAD TIMESTAMP LT ISZERO PUSH2 0x286F JUMPI PUSH1 0x18 DUP3 ADD SWAP1 DUP1 DUP3 SLOAD PUSH1 0x8 SHR AND PUSH2 0x283A JUMPI CALLVALUE ISZERO PUSH2 0x2803 JUMPI DUP5 DUP8 MSTORE PUSH1 0x13 DUP7 MSTORE DUP1 PUSH1 0x40 DUP9 KECCAK256 SLOAD AND PUSH2 0x27CB JUMPI PUSH1 0x6 DUP4 ADD PUSH2 0x2371 CALLVALUE DUP3 SLOAD PUSH2 0x41F2 JUMP JUMPDEST SWAP3 PUSH1 0x5 DUP6 ADD SWAP4 DUP5 SLOAD LT PUSH2 0x2798 JUMPI DUP7 DUP10 MSTORE PUSH1 0x4 DUP9 MSTORE PUSH1 0x40 DUP10 KECCAK256 CALLER PUSH0 MSTORE DUP9 MSTORE PUSH1 0x40 PUSH0 KECCAK256 SLOAD PUSH1 0x11 DUP7 ADD SLOAD SWAP1 DUP9 DUP12 MSTORE PUSH1 0x5 DUP11 MSTORE PUSH1 0x40 DUP12 KECCAK256 CALLER PUSH0 MSTORE DUP11 MSTORE PUSH1 0x40 PUSH0 KECCAK256 SLOAD SWAP2 PUSH2 0x23BF PUSH1 0xB DUP10 ADD SLOAD SWAP3 CALLVALUE SWAP1 PUSH2 0x41F2 JUMP JUMPDEST GT PUSH2 0x2757 JUMPI TIMESTAMP LT SWAP1 DUP2 PUSH2 0x26F7 JUMPI JUMPDEST POP PUSH2 0x26D1 JUMPI JUMPDEST DUP7 DUP10 MSTORE PUSH1 0x19 DUP9 MSTORE PUSH1 0x40 DUP10 KECCAK256 CALLER PUSH0 MSTORE DUP9 MSTORE DUP3 PUSH1 0x40 PUSH0 KECCAK256 SLOAD AND PUSH2 0x26A2 JUMPI DUP7 SWAP3 SWAP2 DUP9 SWAP2 DUP5 DUP12 MSTORE PUSH1 0x18 DUP4 MSTORE PUSH1 0x40 DUP12 KECCAK256 CALLER PUSH0 MSTORE DUP4 MSTORE DUP4 PUSH1 0x40 PUSH0 KECCAK256 SLOAD AND ISZERO PUSH2 0x266E JUMPI JUMPDEST DUP5 DUP12 MSTORE PUSH1 0x4 DUP4 MSTORE PUSH1 0x40 DUP12 KECCAK256 CALLER PUSH0 MSTORE DUP4 MSTORE PUSH1 0x40 PUSH0 KECCAK256 PUSH2 0x242F CALLVALUE DUP3 SLOAD PUSH2 0x41F2 JUMP JUMPDEST SWAP1 SSTORE PUSH2 0x243C CALLVALUE DUP4 SLOAD PUSH2 0x41F2 JUMP JUMPDEST DUP3 SSTORE DUP5 DUP12 MSTORE PUSH1 0x14 DUP4 MSTORE PUSH1 0x40 DUP12 KECCAK256 PUSH2 0x2454 CALLVALUE DUP3 SLOAD PUSH2 0x41F2 JUMP JUMPDEST SWAP1 SSTORE DUP1 SLOAD SWAP4 DUP5 AND ISZERO DUP1 PUSH2 0x265F JUMPI JUMPDEST PUSH2 0x2622 JUMPI JUMPDEST POP POP POP POP PUSH1 0x4 DUP4 ADD SLOAD SWAP2 SLOAD SWAP1 POP DUP1 ISZERO PUSH2 0x261A JUMPI PUSH2 0xA4D PUSH2 0x2488 SWAP3 CALLVALUE SWAP1 PUSH2 0x41C1 JUMP JUMPDEST DUP1 ISZERO PUSH2 0x25E9 JUMPI PUSH1 0x40 MLOAD PUSH4 0x70A08231 PUSH1 0xE0 SHL DUP2 MSTORE PUSH1 0x4 DUP2 ADD DUP6 SWAP1 MSTORE DUP6 DUP2 PUSH1 0x24 DUP2 DUP9 GAS STATICCALL DUP1 ISZERO PUSH2 0x25DE JUMPI DUP3 SWAP2 DUP9 SWAP2 PUSH2 0x25AD JUMPI JUMPDEST POP LT PUSH2 0x257B JUMPI DUP6 SWAP1 DUP5 EXTCODESIZE ISZERO PUSH2 0x40A JUMPI DUP2 PUSH2 0x24E8 SWAP2 PUSH1 0x40 MLOAD DUP1 SWAP4 DUP2 SWAP3 PUSH4 0x7F57DA7 PUSH1 0xE1 SHL DUP4 MSTORE CALLER PUSH1 0x4 DUP5 ADD PUSH2 0x4217 JUMP JUMPDEST SUB DUP2 DUP4 DUP10 GAS CALL DUP1 ISZERO PUSH2 0x2570 JUMPI PUSH2 0x2558 JUMPI JUMPDEST POP POP PUSH1 0x1 ADD SLOAD AND CALLER EQ PUSH2 0x2546 JUMPI JUMPDEST PUSH32 0x188177A91F9B084DADC3C86215FF29AA75DDAF05ED75983C8C498C40989D58C9 PUSH1 0x40 MLOAD SWAP3 CALLVALUE DUP5 MSTORE CALLER SWAP4 LOG3 PUSH1 0x1 PUSH0 DUP1 MLOAD PUSH1 0x20 PUSH2 0x5F9C DUP4 CODECOPY DUP2 MLOAD SWAP2 MSTORE SSTORE DUP1 RETURN JUMPDEST CALLER DUP4 MSTORE PUSH1 0x7 DUP3 MSTORE TIMESTAMP PUSH1 0x40 DUP5 KECCAK256 SSTORE PUSH2 0x2507 JUMP JUMPDEST PUSH2 0x2561 SWAP1 PUSH2 0x4058 JUMP JUMPDEST PUSH2 0x256C JUMPI DUP5 PUSH0 PUSH2 0x24F9 JUMP JUMPDEST DUP5 DUP1 REVERT JUMPDEST PUSH1 0x40 MLOAD RETURNDATASIZE DUP5 DUP3 RETURNDATACOPY RETURNDATASIZE SWAP1 REVERT JUMPDEST PUSH1 0x40 MLOAD PUSH3 0x461BCD PUSH1 0xE5 SHL DUP2 MSTORE PUSH1 0x4 DUP2 ADD DUP7 SWAP1 MSTORE PUSH1 0xA PUSH1 0x24 DUP3 ADD MSTORE PUSH10 0x4C6F7720746F6B656E73 PUSH1 0xB0 SHL PUSH1 0x44 DUP3 ADD MSTORE PUSH1 0x64 SWAP1 REVERT JUMPDEST DUP1 SWAP3 POP DUP8 DUP1 SWAP3 POP RETURNDATASIZE DUP4 GT PUSH2 0x25D7 JUMPI JUMPDEST PUSH2 0x25C6 DUP2 DUP4 PUSH2 0x406B JUMP JUMPDEST DUP2 ADD SUB SLT PUSH2 0x128C JUMPI DUP2 SWAP1 MLOAD PUSH0 PUSH2 0x24B9 JUMP JUMPDEST POP RETURNDATASIZE PUSH2 0x25BC JUMP JUMPDEST PUSH1 0x40 MLOAD RETURNDATASIZE DUP10 DUP3 RETURNDATACOPY RETURNDATASIZE SWAP1 REVERT JUMPDEST PUSH1 0x40 MLOAD PUSH3 0x461BCD PUSH1 0xE5 SHL DUP2 MSTORE PUSH1 0x4 DUP2 ADD DUP7 SWAP1 MSTORE PUSH1 0x9 PUSH1 0x24 DUP3 ADD MSTORE PUSH9 0x151BDBC81CDB585B1B PUSH1 0xBA SHL PUSH1 0x44 DUP3 ADD MSTORE PUSH1 0x64 SWAP1 REVERT JUMPDEST POP POP DUP5 PUSH2 0x2488 JUMP JUMPDEST PUSH1 0x1 PUSH32 0x127A0D60B64E68D983855C4D67E59AAB432C3FDED72F4317958B05A2EB1DBE0F SWAP5 PUSH1 0xFF NOT AND OR SWAP1 SSTORE SLOAD PUSH1 0x40 MLOAD SWAP1 DUP2 MSTORE LOG2 DUP4 PUSH0 DUP7 DUP2 DUP1 PUSH2 0x2467 JUMP JUMPDEST POP DUP2 SLOAD PUSH1 0x16 DUP9 ADD SLOAD GT ISZERO PUSH2 0x2462 JUMP JUMPDEST DUP5 DUP12 MSTORE PUSH1 0x18 DUP4 MSTORE PUSH1 0x40 DUP12 KECCAK256 CALLER PUSH0 MSTORE DUP4 MSTORE PUSH1 0x40 PUSH0 KECCAK256 PUSH1 0x1 PUSH1 0xFF NOT DUP3 SLOAD AND OR SWAP1 SSTORE PUSH1 0x12 DUP8 ADD PUSH2 0x269B DUP2 SLOAD PUSH2 0x44B4 JUMP JUMPDEST SWAP1 SSTORE PUSH2 0x2410 JUMP JUMPDEST PUSH1 0x40 MLOAD PUSH3 0x461BCD PUSH1 0xE5 SHL DUP2 MSTORE PUSH1 0x4 DUP2 ADD DUP10 SWAP1 MSTORE PUSH1 0x7 PUSH1 0x24 DUP3 ADD MSTORE PUSH7 0x109B1BD8DAD959 PUSH1 0xCA SHL PUSH1 0x44 DUP3 ADD MSTORE PUSH1 0x64 SWAP1 REVERT JUMPDEST DUP7 DUP10 MSTORE PUSH1 0x5 DUP9 MSTORE PUSH1 0x40 DUP10 KECCAK256 CALLER PUSH0 MSTORE DUP9 MSTORE PUSH1 0x40 PUSH0 KECCAK256 PUSH2 0x26F0 CALLVALUE DUP3 SLOAD PUSH2 0x41F2 JUMP JUMPDEST SWAP1 SSTORE PUSH2 0x23D3 JUMP JUMPDEST PUSH2 0x270B PUSH8 0x6F05B59D3B20000 SWAP2 CALLVALUE SWAP1 PUSH2 0x41F2 JUMP JUMPDEST GT PUSH2 0x2716 JUMPI PUSH0 PUSH2 0x23CD JUMP JUMPDEST PUSH1 0x40 MLOAD PUSH3 0x461BCD PUSH1 0xE5 SHL DUP2 MSTORE PUSH1 0x4 DUP2 ADD DUP11 SWAP1 MSTORE PUSH1 0x19 PUSH1 0x24 DUP3 ADD MSTORE PUSH25 0x494C3A4D617820302E3520424E4220616E74692D736E697065 PUSH1 0x38 SHL PUSH1 0x44 DUP3 ADD MSTORE PUSH1 0x64 SWAP1 REVERT JUMPDEST PUSH1 0x40 MLOAD PUSH3 0x461BCD PUSH1 0xE5 SHL DUP2 MSTORE PUSH1 0x4 DUP2 ADD DUP12 SWAP1 MSTORE PUSH1 0x19 PUSH1 0x24 DUP3 ADD MSTORE PUSH25 0x494C3A45786365656473207065722D77616C6C65742063617 PUSH1 0x3C SHL PUSH1 0x44 DUP3 ADD MSTORE PUSH1 0x64 SWAP1 REVERT JUMPDEST PUSH1 0x40 MLOAD PUSH3 0x461BCD PUSH1 0xE5 SHL DUP2 MSTORE PUSH1 0x4 DUP2 ADD DUP10 SWAP1 MSTORE PUSH1 0xB PUSH1 0x24 DUP3 ADD MSTORE PUSH11 0x457863656564732063617 PUSH1 0xAC SHL PUSH1 0x44 DUP3 ADD MSTORE PUSH1 0x64 SWAP1 REVERT JUMPDEST PUSH1 0x40 MLOAD PUSH3 0x461BCD PUSH1 0xE5 SHL DUP2 MSTORE PUSH1 0x4 DUP2 ADD DUP8 SWAP1 MSTORE PUSH1 0x10 PUSH1 0x24 DUP3 ADD MSTORE PUSH16 0x131408185B1C9958591E481859191959 PUSH1 0x82 SHL PUSH1 0x44 DUP3 ADD MSTORE PUSH1 0x64 SWAP1 REVERT JUMPDEST PUSH1 0x40 MLOAD PUSH3 0x461BCD PUSH1 0xE5 SHL DUP2 MSTORE PUSH1 0x4 DUP2 ADD DUP8 SWAP1 MSTORE PUSH1 0xF PUSH1 0x24 DUP3 ADD MSTORE PUSH15 0x27379031B7B73A3934B13ABA34B7B7 PUSH1 0x89 SHL PUSH1 0x44 DUP3 ADD MSTORE PUSH1 0x64 SWAP1 REVERT JUMPDEST PUSH1 0x40 MLOAD PUSH3 0x461BCD PUSH1 0xE5 SHL DUP2 MSTORE PUSH1 0x4 DUP2 ADD DUP8 SWAP1 MSTORE PUSH1 0xD PUSH1 0x24 DUP3 ADD MSTORE PUSH13 0x105D5D1BCB5C99599D5B991959 PUSH1 0x9A SHL PUSH1 0x44 DUP3 ADD MSTORE PUSH1 0x64 SWAP1 REVERT JUMPDEST PUSH1 0x40 MLOAD PUSH3 0x461BCD PUSH1 0xE5 SHL DUP2 MSTORE PUSH1 0x4 DUP2 ADD DUP7 SWAP1 MSTORE PUSH1 0xD PUSH1 0x24 DUP3 ADD MSTORE PUSH13 0x141C995CD85B1948195B991959 PUSH1 0x9A SHL PUSH1 0x44 DUP3 ADD MSTORE PUSH1 0x64 SWAP1 REVERT JUMPDEST POP CALLVALUE PUSH2 0x39D JUMPI PUSH1 0x40 CALLDATASIZE PUSH1 0x3 NOT ADD SLT PUSH2 0x39D JUMPI PUSH2 0x28BE PUSH2 0x3F34 JUMP JUMPDEST PUSH1 0x24 CALLDATALOAD PUSH1 0x1 PUSH1 0x1 PUSH1 0x40 SHL SUB DUP2 GT PUSH2 0x143B JUMPI PUSH2 0x28DD SWAP1 CALLDATASIZE SWAP1 PUSH1 0x4 ADD PUSH2 0x3FDD JUMP JUMPDEST SWAP1 SWAP2 PUSH2 0x28E7 PUSH2 0x46B2 JUMP JUMPDEST PUSH1 0x1 PUSH1 0x1 PUSH1 0xA0 SHL SUB AND SWAP2 DUP3 ISZERO PUSH2 0xFD6 JUMPI DUP3 DUP5 MSTORE PUSH1 0xA PUSH1 0x20 MSTORE PUSH1 0x40 DUP5 KECCAK256 SWAP2 DUP3 SLOAD SWAP3 PUSH1 0xFF DUP5 AND PUSH2 0xFD2 JUMPI PUSH1 0x1 PUSH0 DUP1 MLOAD PUSH1 0x20 PUSH2 0x5F5C DUP4 CODECOPY DUP2 MLOAD SWAP2 MSTORE SWAP5 PUSH1 0xFF NOT AND OR SWAP1 SSTORE PUSH2 0xD71 PUSH1 0x40 MLOAD SWAP3 DUP4 SWAP3 PUSH1 0x20 DUP5 MSTORE PUSH1 0x20 DUP5 ADD SWAP2 PUSH2 0x4494 JUMP JUMPDEST POP CALLVALUE PUSH2 0x39D JUMPI PUSH1 0x20 DUP1 PUSH1 0x3 NOT CALLDATASIZE ADD SLT PUSH2 0x40A JUMPI PUSH1 0x4 CALLDATALOAD SWAP1 PUSH2 0x295D PUSH2 0x46B2 JUMP JUMPDEST PUSH1 0xD SLOAD SWAP1 DUP4 SWAP1 PUSH1 0x2 SLOAD SWAP1 JUMPDEST DUP2 DUP4 LT PUSH2 0x2A20 JUMPI POP POP POP DUP1 SELFBALANCE GT PUSH0 EQ PUSH2 0x2A19 JUMPI PUSH2 0x2985 SWAP1 SELFBALANCE PUSH2 0x4249 JUMP JUMPDEST DUP2 GT PUSH2 0x29DD JUMPI PUSH1 0x1 DUP1 PUSH1 0xA0 SHL SUB DUP3 DUP1 DUP1 DUP1 DUP6 DUP6 DUP3 SLOAD AND GAS CALL PUSH2 0x29A5 PUSH2 0x4446 JUMP JUMPDEST POP ISZERO PUSH2 0x143B JUMPI PUSH1 0x20 PUSH32 0x4A6188559939E4EE223B5F2A5B165B7AEA756E7765CE9C3A41EE92E8BFE7BCF8 SWAP2 DUP5 SLOAD AND SWAP3 PUSH1 0x40 MLOAD SWAP1 DUP2 MSTORE LOG2 DUP1 RETURN JUMPDEST PUSH1 0x40 MLOAD PUSH3 0x461BCD PUSH1 0xE5 SHL DUP2 MSTORE PUSH1 0x20 PUSH1 0x4 DUP3 ADD MSTORE PUSH1 0x14 PUSH1 0x24 DUP3 ADD MSTORE PUSH20 0x4578636565647320776974686472617761626C65 PUSH1 0x60 SHL PUSH1 0x44 DUP3 ADD MSTORE PUSH1 0x64 SWAP1 REVERT JUMPDEST POP DUP2 PUSH2 0x2985 JUMP JUMPDEST SWAP1 SWAP2 SWAP3 PUSH2 0x2A7A PUSH2 0x2A59 PUSH1 0x1 SWAP3 PUSH2 0x2A35 DUP8 PUSH2 0x3F9C JUMP JUMPDEST SWAP3 SWAP1 SWAP2 DUP6 DUP1 PUSH1 0xA0 SHL SUB DUP1 SWAP4 SLOAD PUSH1 0x3 SWAP6 DUP7 SHL SHR AND DUP12 MSTORE PUSH1 0x14 DUP8 MSTORE PUSH1 0x40 DUP12 KECCAK256 SLOAD SWAP1 PUSH2 0x41F2 JUMP JUMPDEST SWAP2 PUSH2 0x2A63 DUP9 PUSH2 0x3F9C JUMP JUMPDEST SWAP1 SLOAD SWAP2 SHL SHR AND DUP9 MSTORE PUSH1 0xC DUP5 MSTORE PUSH1 0x40 DUP9 KECCAK256 SLOAD SWAP1 PUSH2 0x41F2 JUMP JUMPDEST SWAP4 ADD SWAP2 SWAP1 PUSH2 0x2968 JUMP JUMPDEST POP CALLVALUE PUSH2 0x39D JUMPI DUP1 PUSH1 0x3 NOT CALLDATASIZE ADD SLT PUSH2 0x39D JUMPI PUSH2 0x2A9C PUSH2 0x46B2 JUMP JUMPDEST PUSH0 DUP1 SLOAD PUSH1 0x1 PUSH1 0x1 PUSH1 0xA0 SHL SUB NOT DUP2 AND DUP3 SSTORE PUSH1 0x1 PUSH1 0x1 PUSH1 0xA0 SHL SUB AND PUSH0 DUP1 MLOAD PUSH1 0x20 PUSH2 0x5F3C DUP4 CODECOPY DUP2 MLOAD SWAP2 MSTORE DUP3 DUP1 LOG3 DUP1 RETURN JUMPDEST POP CALLVALUE PUSH2 0x39D JUMPI DUP1 PUSH1 0x3 NOT CALLDATASIZE ADD SLT PUSH2 0x39D JUMPI PUSH1 0x20 PUSH1 0x40 MLOAD PUSH1 0x5A DUP2 MSTORE RETURN JUMPDEST POP CALLVALUE PUSH2 0x39D JUMPI DUP1 PUSH1 0x3 NOT CALLDATASIZE ADD SLT PUSH2 0x39D JUMPI PUSH1 0x20 PUSH1 0x40 MLOAD PUSH1 0xA DUP2 MSTORE RETURN JUMPDEST POP CALLVALUE PUSH2 0x39D JUMPI PUSH1 0x20 CALLDATASIZE PUSH1 0x3 NOT ADD SLT PUSH2 0x39D JUMPI PUSH1 0x4 CALLDATALOAD SWAP1 PUSH1 0x2 SLOAD DUP3 LT ISZERO PUSH2 0x39D JUMPI PUSH1 0x20 PUSH2 0x2B2C DUP4 PUSH2 0x3F9C JUMP JUMPDEST SWAP1 SLOAD PUSH1 0x40 MLOAD PUSH1 0x3 SWAP3 SWAP1 SWAP3 SHL SHR PUSH1 0x1 PUSH1 0x1 PUSH1 0xA0 SHL SUB AND DUP2 MSTORE RETURN JUMPDEST POP CALLVALUE PUSH2 0x39D JUMPI DUP1 PUSH1 0x3 NOT CALLDATASIZE ADD SLT PUSH2 0x39D JUMPI PUSH1 0xE SLOAD PUSH1 0x40 MLOAD PUSH1 0x1 PUSH1 0x1 PUSH1 0xA0 SHL SUB SWAP1 SWAP2 AND DUP2 MSTORE PUSH1 0x20 SWAP1 RETURN JUMPDEST POP CALLVALUE PUSH2 0x39D JUMPI PUSH1 0x20 CALLDATASIZE PUSH1 0x3 NOT ADD SLT PUSH2 0x39D JUMPI PUSH1 0x20 SWAP1 PUSH1 0xFF SWAP1 PUSH1 0x10 SWAP1 PUSH1 0x40 SWAP1 PUSH1 0x1 PUSH1 0x1 PUSH1 0xA0 SHL SUB PUSH2 0x2B9C PUSH2 0x3F34 JUMP JUMPDEST AND DUP2 MSTORE PUSH1 0x1 DUP6 MSTORE KECCAK256 ADD SLOAD AND PUSH1 0x40 MLOAD SWAP1 DUP2 MSTORE RETURN JUMPDEST POP CALLVALUE PUSH2 0x39D JUMPI PUSH1 0x20 CALLDATASIZE PUSH1 0x3 NOT ADD SLT PUSH2 0x39D JUMPI PUSH1 0x20 SWAP1 PUSH1 0x40 SWAP1 PUSH1 0x1 PUSH1 0x1 PUSH1 0xA0 SHL SUB PUSH2 0x2BD7 PUSH2 0x3F34 JUMP JUMPDEST AND DUP2 MSTORE PUSH1 0x17 DUP4 MSTORE KECCAK256 SLOAD PUSH1 0x40 MLOAD SWAP1 DUP2 MSTORE RETURN JUMPDEST POP CALLVALUE PUSH2 0x39D JUMPI PUSH1 0x20 CALLDATASIZE PUSH1 0x3 NOT ADD SLT PUSH2 0x39D JUMPI PUSH1 0x20 SWAP1 PUSH1 0xFF SWAP1 PUSH1 0x40 SWAP1 PUSH1 0x1 PUSH1 0x1 PUSH1 0xA0 SHL SUB PUSH2 0x2C13 PUSH2 0x3F34 JUMP JUMPDEST AND DUP2 MSTORE PUSH1 0x13 DUP5 MSTORE KECCAK256 SLOAD AND PUSH1 0x40 MLOAD SWAP1 ISZERO ISZERO DUP2 MSTORE RETURN JUMPDEST POP CALLVALUE PUSH2 0x39D JUMPI DUP1 PUSH1 0x3 NOT CALLDATASIZE ADD SLT PUSH2 0x39D JUMPI PUSH1 0x20 PUSH1 0x40 MLOAD PUSH1 0xC8 DUP2 MSTORE RETURN JUMPDEST POP CALLVALUE PUSH2 0x39D JUMPI DUP1 PUSH1 0x3 NOT CALLDATASIZE ADD SLT PUSH2 0x39D JUMPI PUSH1 0x20 PUSH1 0x40 MLOAD PUSH2 0xBB8 DUP2 MSTORE RETURN JUMPDEST POP CALLVALUE PUSH2 0x39D JUMPI PUSH1 0x20 CALLDATASIZE PUSH1 0x3 NOT ADD SLT PUSH2 0x39D JUMPI PUSH2 0x2C7A PUSH2 0x3F34 JUMP JUMPDEST PUSH2 0x2C82 PUSH2 0x46B2 JUMP JUMPDEST PUSH1 0x1 PUSH1 0x1 PUSH1 0xA0 SHL SUB AND DUP2 MSTORE PUSH1 0xA PUSH1 0x20 MSTORE PUSH1 0x40 DUP2 KECCAK256 DUP1 SLOAD PUSH1 0xFF DUP2 AND ISZERO PUSH2 0x143B JUMPI PUSH1 0xFF NOT AND SWAP1 SSTORE DUP1 RETURN JUMPDEST POP CALLVALUE PUSH2 0x128C JUMPI PUSH1 0x20 CALLDATASIZE PUSH1 0x3 NOT ADD SLT PUSH2 0x128C JUMPI PUSH2 0x2CC4 PUSH2 0x3F34 JUMP JUMPDEST PUSH2 0x2CCC PUSH2 0x4683 JUMP JUMPDEST PUSH1 0x1 PUSH1 0x1 PUSH1 0xA0 SHL SUB DUP2 DUP2 AND PUSH0 SWAP1 DUP2 MSTORE PUSH1 0x1 PUSH1 0x20 DUP2 SWAP1 MSTORE PUSH1 0x40 SWAP1 SWAP2 KECCAK256 SWAP1 DUP2 ADD SLOAD SWAP1 SWAP3 SWAP2 AND ISZERO PUSH2 0x3267 JUMPI PUSH1 0xF SLOAD PUSH1 0x1 PUSH1 0x1 PUSH1 0xA0 SHL SUB AND ISZERO PUSH2 0x3255 JUMPI PUSH1 0x1 PUSH1 0x1 PUSH1 0xA0 SHL SUB DUP2 AND PUSH0 SWAP1 DUP2 MSTORE PUSH1 0x13 PUSH1 0x20 MSTORE PUSH1 0x40 SWAP1 KECCAK256 SLOAD PUSH1 0xFF AND PUSH2 0x3243 JUMPI PUSH1 0x6 DUP3 ADD SLOAD PUSH1 0x5 DUP4 ADD SLOAD GT DUP1 ISZERO SWAP1 PUSH2 0x3214 JUMPI JUMPDEST ISZERO PUSH2 0x31FF JUMPI PUSH1 0x1 PUSH1 0x1 PUSH1 0xA0 SHL SUB DUP2 AND PUSH0 SWAP1 DUP2 MSTORE PUSH1 0x13 PUSH1 0x20 MSTORE PUSH1 0x40 SWAP1 KECCAK256 DUP1 SLOAD PUSH1 0xFF NOT AND PUSH1 0x1 OR SWAP1 SSTORE PUSH1 0x14 DUP3 ADD SLOAD DUP1 ISZERO PUSH2 0x31EF JUMPI JUMPDEST DUP1 ISZERO PUSH2 0x31DD JUMPI PUSH1 0x40 MLOAD PUSH4 0x70A08231 PUSH1 0xE0 SHL DUP2 MSTORE PUSH1 0x1 PUSH1 0x1 PUSH1 0xA0 SHL SUB DUP4 AND PUSH1 0x4 DUP3 ADD DUP2 SWAP1 MSTORE SWAP1 SWAP3 SWAP1 PUSH1 0x20 SWAP1 DUP5 SWAP1 PUSH1 0x24 SWAP1 DUP3 SWAP1 GAS STATICCALL SWAP3 DUP4 ISZERO PUSH2 0x318C JUMPI PUSH0 SWAP4 PUSH2 0x31A9 JUMPI JUMPDEST POP DUP3 ISZERO PUSH2 0x3197 JUMPI PUSH1 0x1 PUSH1 0x1 PUSH1 0xA0 SHL SUB DUP2 AND EXTCODESIZE ISZERO PUSH2 0x128C JUMPI PUSH1 0x40 MLOAD PUSH4 0x7F57DA7 PUSH1 0xE1 SHL DUP2 MSTORE PUSH0 DUP2 DUP1 PUSH2 0x2DE0 DUP8 ADDRESS PUSH1 0x4 DUP5 ADD PUSH2 0x4217 JUMP JUMPDEST SUB DUP2 DUP4 PUSH1 0x1 PUSH1 0x1 PUSH1 0xA0 SHL SUB DUP8 AND GAS CALL DUP1 ISZERO PUSH2 0x318C JUMPI PUSH2 0x3179 JUMPI JUMPDEST POP PUSH1 0xF SLOAD PUSH1 0x40 MLOAD PUSH4 0x95EA7B3 PUSH1 0xE0 SHL DUP2 MSTORE SWAP1 PUSH1 0x20 SWAP1 DUP3 SWAP1 DUP2 SWAP1 PUSH2 0x2E2B SWAP1 DUP9 SWAP1 PUSH1 0x1 PUSH1 0x1 PUSH1 0xA0 SHL SUB AND PUSH1 0x4 DUP5 ADD PUSH2 0x4217 JUMP JUMPDEST SUB DUP2 DUP10 PUSH1 0x1 PUSH1 0x1 PUSH1 0xA0 SHL SUB DUP8 AND GAS CALL DUP1 ISZERO PUSH2 0x316E JUMPI PUSH2 0x313F JUMPI JUMPDEST POP PUSH1 0xF SLOAD PUSH1 0x1 PUSH1 0x1 PUSH1 0xA0 SHL SUB AND SWAP3 TIMESTAMP PUSH2 0x12C DUP2 ADD SWAP2 SWAP1 DUP3 LT PUSH2 0xB40 JUMPI SWAP1 PUSH1 0xC4 PUSH1 0x60 SWAP3 DUP6 PUSH1 0x40 MLOAD SWAP8 DUP9 SWAP5 DUP6 SWAP4 PUSH4 0xF305D719 PUSH1 0xE0 SHL DUP6 MSTORE PUSH1 0x1 DUP1 PUSH1 0xA0 SHL SUB DUP10 AND PUSH1 0x4 DUP7 ADD MSTORE PUSH1 0x24 DUP6 ADD MSTORE DUP12 PUSH1 0x44 DUP6 ADD MSTORE DUP12 PUSH1 0x64 DUP6 ADD MSTORE ADDRESS PUSH1 0x84 DUP6 ADD MSTORE PUSH1 0xA4 DUP5 ADD MSTORE GAS CALL DUP1 ISZERO PUSH2 0x3134 JUMPI DUP6 SWAP3 DUP7 SWAP5 DUP8 SWAP3 PUSH2 0x30EF JUMPI JUMPDEST POP PUSH1 0xF SLOAD PUSH1 0x40 MLOAD PUSH4 0xC45A0155 PUSH1 0xE0 SHL DUP2 MSTORE SWAP7 SWAP1 PUSH1 0x1 PUSH1 0x1 PUSH1 0xA0 SHL SUB AND PUSH1 0x20 DUP9 PUSH1 0x4 DUP2 DUP5 GAS STATICCALL SWAP8 DUP9 ISZERO PUSH2 0x30BF JUMPI DUP10 SWAP9 PUSH2 0x30CA JUMPI JUMPDEST POP PUSH1 0x20 PUSH1 0x4 SWAP2 PUSH1 0x40 MLOAD SWAP3 DUP4 DUP1 SWAP3 PUSH4 0x15AB88C9 PUSH1 0xE3 SHL DUP3 MSTORE GAS STATICCALL DUP1 ISZERO PUSH2 0x30BF JUMPI PUSH1 0x20 SWAP2 DUP11 SWAP2 PUSH2 0x30A2 JUMPI JUMPDEST POP PUSH1 0x40 MLOAD PUSH4 0xE6A43905 PUSH1 0xE0 SHL DUP2 MSTORE PUSH1 0x1 PUSH1 0x1 PUSH1 0xA0 SHL SUB DUP8 DUP2 AND PUSH1 0x4 DUP4 ADD MSTORE SWAP2 DUP3 AND PUSH1 0x24 DUP3 ADD MSTORE SWAP9 DUP10 SWAP2 PUSH1 0x44 SWAP2 DUP4 SWAP2 AND GAS STATICCALL SWAP7 DUP8 ISZERO PUSH2 0x3097 JUMPI DUP9 SWAP8 PUSH2 0x3063 JUMPI JUMPDEST POP PUSH1 0x1 PUSH1 0x1 PUSH1 0xA0 SHL SUB DUP5 DUP2 AND DUP10 MSTORE PUSH1 0x10 PUSH1 0x20 SWAP1 DUP2 MSTORE PUSH1 0x40 DUP1 DUP12 KECCAK256 DUP1 SLOAD PUSH1 0x1 PUSH1 0x1 PUSH1 0xA0 SHL SUB NOT AND SWAP11 SWAP1 SWAP4 AND SWAP10 DUP11 OR SWAP1 SWAP3 SSTORE PUSH1 0x11 SWAP1 MSTORE DUP9 KECCAK256 DUP4 SWAP1 SSTORE PUSH1 0x7 ADD SLOAD PUSH3 0x15180 DUP1 DUP3 MUL SWAP2 DUP1 ISZERO SWAP1 DUP4 DIV SWAP1 SWAP2 EQ OR ISZERO PUSH2 0x304F JUMPI SWAP2 PUSH2 0x3032 SWAP2 PUSH2 0x2FD7 PUSH32 0x4A1A2A6176E9646D9E3157F7C2AB3C499F18337C0B0828CFB28E0A61DE4A11F7 SWAP7 SWAP6 SWAP5 TIMESTAMP PUSH2 0x41F2 JUMP JUMPDEST PUSH1 0x1 PUSH1 0x1 PUSH1 0xA0 SHL SUB DUP6 AND DUP11 MSTORE PUSH1 0x12 PUSH1 0x20 MSTORE PUSH1 0x40 DUP11 KECCAK256 SSTORE DUP7 LT ISZERO PUSH2 0x3049 JUMPI PUSH1 0x14 PUSH1 0x20 MSTORE PUSH2 0x3007 DUP7 PUSH1 0x40 DUP11 KECCAK256 SLOAD PUSH2 0x4249 JUMP JUMPDEST PUSH1 0x1 PUSH1 0x1 PUSH1 0xA0 SHL SUB SWAP4 SWAP1 SWAP4 AND DUP1 DUP10 MSTORE PUSH1 0x14 PUSH1 0x20 MSTORE PUSH1 0x40 DUP1 DUP11 KECCAK256 SWAP5 SWAP1 SWAP5 SSTORE SWAP3 MLOAD SWAP3 SWAP6 SWAP3 SWAP4 DUP5 SWAP4 DUP5 PUSH2 0x400A JUMP JUMPDEST SUB SWAP1 LOG3 PUSH1 0x1 PUSH0 DUP1 MLOAD PUSH1 0x20 PUSH2 0x5F9C DUP4 CODECOPY DUP2 MLOAD SWAP2 MSTORE SSTORE DUP1 RETURN JUMPDEST DUP8 PUSH2 0x3007 JUMP JUMPDEST PUSH4 0x4E487B71 PUSH1 0xE0 SHL DUP9 MSTORE PUSH1 0x11 PUSH1 0x4 MSTORE PUSH1 0x24 DUP9 REVERT JUMPDEST PUSH1 0x7 SWAP2 SWAP8 POP PUSH2 0x3089 SWAP1 PUSH1 0x20 RETURNDATASIZE PUSH1 0x20 GT PUSH2 0x3090 JUMPI JUMPDEST PUSH2 0x3081 DUP2 DUP4 PUSH2 0x406B JUMP JUMPDEST DUP2 ADD SWAP1 PUSH2 0x4475 JUMP JUMPDEST SWAP7 SWAP1 PUSH2 0x2F52 JUMP JUMPDEST POP RETURNDATASIZE PUSH2 0x3077 JUMP JUMPDEST PUSH1 0x40 MLOAD RETURNDATASIZE DUP11 DUP3 RETURNDATACOPY RETURNDATASIZE SWAP1 REVERT JUMPDEST PUSH2 0x30B9 SWAP2 POP DUP3 RETURNDATASIZE DUP5 GT PUSH2 0x3090 JUMPI PUSH2 0x3081 DUP2 DUP4 PUSH2 0x406B JUMP JUMPDEST PUSH0 PUSH2 0x2F13 JUMP JUMPDEST PUSH1 0x40 MLOAD RETURNDATASIZE DUP12 DUP3 RETURNDATACOPY RETURNDATASIZE SWAP1 REVERT JUMPDEST PUSH1 0x4 SWAP2 SWAP9 POP PUSH2 0x30E7 PUSH1 0x20 SWAP2 DUP3 RETURNDATASIZE DUP5 GT PUSH2 0x3090 JUMPI PUSH2 0x3081 DUP2 DUP4 PUSH2 0x406B JUMP JUMPDEST SWAP9 SWAP2 POP PUSH2 0x2EEA JUMP JUMPDEST SWAP4 POP SWAP4 POP POP PUSH1 0x60 DUP3 RETURNDATASIZE PUSH1 0x60 GT PUSH2 0x312C JUMPI JUMPDEST DUP2 PUSH2 0x310D PUSH1 0x60 SWAP4 DUP4 PUSH2 0x406B JUMP JUMPDEST DUP2 ADD SUB SLT PUSH2 0x256C JUMPI DUP2 MLOAD SWAP3 PUSH1 0x40 PUSH1 0x20 DUP5 ADD MLOAD SWAP4 ADD MLOAD SWAP4 SWAP3 SWAP4 SWAP1 PUSH0 PUSH2 0x2EB7 JUMP JUMPDEST RETURNDATASIZE SWAP2 POP PUSH2 0x3100 JUMP JUMPDEST PUSH1 0x40 MLOAD RETURNDATASIZE DUP8 DUP3 RETURNDATACOPY RETURNDATASIZE SWAP1 REVERT JUMPDEST PUSH2 0x3160 SWAP1 PUSH1 0x20 RETURNDATASIZE PUSH1 0x20 GT PUSH2 0x3167 JUMPI JUMPDEST PUSH2 0x3158 DUP2 DUP4 PUSH2 0x406B JUMP JUMPDEST DUP2 ADD SWAP1 PUSH2 0x41FF JUMP JUMPDEST POP PUSH0 PUSH2 0x2E45 JUMP JUMPDEST POP RETURNDATASIZE PUSH2 0x314E JUMP JUMPDEST PUSH1 0x40 MLOAD RETURNDATASIZE DUP9 DUP3 RETURNDATACOPY RETURNDATASIZE SWAP1 REVERT JUMPDEST PUSH2 0x3184 SWAP2 SWAP6 POP PUSH2 0x4058 JUMP JUMPDEST PUSH0 SWAP4 PUSH0 PUSH2 0x2DFA JUMP JUMPDEST PUSH1 0x40 MLOAD RETURNDATASIZE PUSH0 DUP3 RETURNDATACOPY RETURNDATASIZE SWAP1 REVERT JUMPDEST PUSH1 0x40 MLOAD PUSH4 0xC4961DD1 PUSH1 0xE0 SHL DUP2 MSTORE PUSH1 0x4 SWAP1 REVERT JUMPDEST SWAP1 SWAP3 POP PUSH1 0x20 DUP2 RETURNDATASIZE PUSH1 0x20 GT PUSH2 0x31D5 JUMPI JUMPDEST DUP2 PUSH2 0x31C5 PUSH1 0x20 SWAP4 DUP4 PUSH2 0x406B JUMP JUMPDEST DUP2 ADD SUB SLT PUSH2 0x128C JUMPI MLOAD SWAP2 PUSH0 PUSH2 0x2DAB JUMP JUMPDEST RETURNDATASIZE SWAP2 POP PUSH2 0x31B8 JUMP JUMPDEST PUSH1 0x40 MLOAD PUSH4 0xF727CDC3 PUSH1 0xE0 SHL DUP2 MSTORE PUSH1 0x4 SWAP1 REVERT JUMPDEST POP PUSH1 0x14 PUSH1 0x20 MSTORE PUSH1 0x40 PUSH0 KECCAK256 SLOAD PUSH2 0x2D6A JUMP JUMPDEST PUSH1 0x40 MLOAD PUSH1 0x1 PUSH3 0xB806B PUSH1 0xE2 SHL SUB NOT DUP2 MSTORE PUSH1 0x4 SWAP1 REVERT JUMPDEST POP PUSH1 0xA DUP3 ADD SLOAD PUSH3 0x278D00 DUP2 ADD DUP1 SWAP2 GT PUSH2 0x322F JUMPI TIMESTAMP LT ISZERO PUSH2 0x2D37 JUMP JUMPDEST PUSH4 0x4E487B71 PUSH1 0xE0 SHL PUSH0 MSTORE PUSH1 0x11 PUSH1 0x4 MSTORE PUSH1 0x24 PUSH0 REVERT JUMPDEST PUSH1 0x40 MLOAD PUSH4 0xFD02B6D PUSH1 0xE4 SHL DUP2 MSTORE PUSH1 0x4 SWAP1 REVERT JUMPDEST PUSH1 0x40 MLOAD PUSH4 0x179CE99F PUSH1 0xE0 SHL DUP2 MSTORE PUSH1 0x4 SWAP1 REVERT JUMPDEST PUSH1 0x40 MLOAD PUSH4 0xCBDB7B3 PUSH1 0xE4 SHL DUP2 MSTORE PUSH1 0x4 SWAP1 REVERT JUMPDEST CALLVALUE PUSH2 0x128C JUMPI PUSH0 CALLDATASIZE PUSH1 0x3 NOT ADD SLT PUSH2 0x128C JUMPI PUSH1 0x20 PUSH1 0x40 MLOAD PUSH1 0xB4 DUP2 MSTORE RETURN JUMPDEST CALLVALUE PUSH2 0x128C JUMPI PUSH1 0x20 DUP1 PUSH1 0x3 NOT CALLDATASIZE ADD SLT PUSH2 0x128C JUMPI PUSH1 0x1 PUSH1 0x1 PUSH1 0xA0 SHL SUB SWAP1 DUP2 PUSH2 0x32B8 PUSH2 0x3F34 JUMP JUMPDEST AND PUSH0 MSTORE PUSH1 0x15 DUP2 MSTORE PUSH1 0x40 PUSH0 KECCAK256 SWAP2 PUSH1 0x40 MLOAD DUP1 SWAP4 DUP5 SWAP2 DUP5 DUP3 SLOAD SWAP2 DUP3 DUP2 MSTORE ADD SWAP2 PUSH0 MSTORE DUP5 PUSH0 KECCAK256 SWAP4 PUSH0 SWAP1 JUMPDEST DUP7 DUP4 DUP4 LT PUSH2 0x3307 JUMPI DUP6 SWAP1 PUSH2 0x32F3 DUP3 DUP8 SUB DUP4 PUSH2 0x406B JUMP JUMPDEST PUSH2 0x118D PUSH1 0x40 MLOAD SWAP3 DUP3 DUP5 SWAP4 DUP5 MSTORE DUP4 ADD SWAP1 PUSH2 0x3F60 JUMP JUMPDEST DUP7 SLOAD DUP3 AND DUP6 MSTORE PUSH1 0x1 SWAP7 DUP8 ADD SWAP7 DUP10 SWAP7 POP SWAP5 ADD SWAP4 SWAP2 SWAP1 SWAP2 ADD SWAP1 PUSH2 0x32DD JUMP JUMPDEST CALLVALUE PUSH2 0x128C JUMPI PUSH1 0x20 CALLDATASIZE PUSH1 0x3 NOT ADD SLT PUSH2 0x128C JUMPI PUSH2 0x333C PUSH2 0x3F34 JUMP JUMPDEST PUSH2 0x3344 PUSH2 0x46B2 JUMP JUMPDEST PUSH1 0x1 PUSH1 0x1 PUSH1 0xA0 SHL SUB AND DUP1 ISZERO PUSH2 0x128C JUMPI PUSH1 0x8 DUP1 SLOAD PUSH1 0x1 PUSH1 0x1 PUSH1 0xA0 SHL SUB NOT AND DUP3 OR SWAP1 SSTORE PUSH32 0xD24015CC99CC1700CAFCA3042840A1D8AC1E3964FD2E0E37EA29C654056EE327 PUSH0 DUP1 LOG2 STOP JUMPDEST CALLVALUE PUSH2 0x128C JUMPI PUSH1 0x20 CALLDATASIZE PUSH1 0x3 NOT ADD SLT PUSH2 0x128C JUMPI PUSH32 0xC799BE5EB19A1A6D6BA7368D21E2BC367C8A335E4A07CD3D954482E6F714D3C5 PUSH1 0x20 PUSH1 0x4 CALLDATALOAD PUSH2 0x33CA PUSH2 0x46B2 JUMP JUMPDEST DUP1 PUSH1 0xB SSTORE PUSH1 0x40 MLOAD SWAP1 DUP2 MSTORE LOG1 STOP JUMPDEST CALLVALUE PUSH2 0x128C JUMPI PUSH0 CALLDATASIZE PUSH1 0x3 NOT ADD SLT PUSH2 0x128C JUMPI PUSH1 0x20 PUSH1 0x40 MLOAD PUSH2 0x1388 DUP2 MSTORE RETURN JUMPDEST CALLVALUE PUSH2 0x128C JUMPI PUSH1 0x20 DUP1 PUSH1 0x3 NOT CALLDATASIZE ADD SLT PUSH2 0x128C JUMPI PUSH2 0x340D PUSH2 0x3F34 JUMP JUMPDEST SWAP1 PUSH2 0x3416 PUSH2 0x4683 JUMP JUMPDEST PUSH1 0x1 PUSH1 0x1 PUSH1 0xA0 SHL SUB SWAP2 DUP3 AND PUSH0 DUP2 DUP2 MSTORE PUSH1 0x1 DUP4 MSTORE PUSH1 0x40 SWAP1 KECCAK256 PUSH1 0x10 DUP2 ADD SLOAD PUSH1 0xFF SWAP5 SWAP3 SWAP1 SWAP2 PUSH2 0x3447 PUSH1 0x8 DUP5 SWAP1 SHR DUP8 AND PUSH2 0x4334 JUMP JUMPDEST PUSH1 0x6 DUP2 ADD SLOAD SWAP3 PUSH1 0x5 DUP3 ADD SLOAD DUP5 LT DUP1 ISZERO SWAP1 PUSH2 0x3795 JUMPI JUMPDEST ISZERO PUSH2 0x375D JUMPI PUSH1 0x16 DUP3 ADD SLOAD PUSH2 0x371B JUMPI JUMPDEST DUP7 PUSH1 0x18 DUP4 ADD SLOAD PUSH1 0x8 SHR AND PUSH2 0x36E7 JUMPI PUSH1 0xC DUP3 ADD SWAP4 PUSH1 0x1 DUP9 DUP7 SLOAD AND ADD DUP9 DUP2 GT PUSH2 0x322F JUMPI DUP9 AND SWAP8 PUSH1 0x3 DUP10 GT PUSH2 0x36B3 JUMPI PUSH1 0x1 DUP10 SUB PUSH2 0x368D JUMPI PUSH1 0xD DUP5 ADD SLOAD SWAP3 PUSH2 0xCE4 SWAP4 JUMPDEST TIMESTAMP LT PUSH2 0x365E JUMPI SWAP1 PUSH2 0x34BF SWAP2 PUSH1 0x10 SHR AND ISZERO PUSH2 0x4385 JUMP JUMPDEST PUSH1 0x2 DUP9 EQ PUSH2 0x3621 JUMPI JUMPDEST PUSH2 0x34ED DUP4 SWAP3 PUSH2 0x2710 SWAP3 PUSH1 0x15 PUSH1 0x1 SWAP7 ADD SWAP1 DUP2 SLOAD ISZERO DUP1 PUSH2 0x3618 JUMPI JUMPDEST PUSH2 0x35EC JUMPI JUMPDEST POP SLOAD PUSH2 0x41C1 JUMP JUMPDEST DIV SWAP4 PUSH2 0x34FA DUP6 ISZERO ISZERO PUSH2 0x43BF JUMP JUMPDEST DUP4 PUSH0 MSTORE PUSH1 0x14 DUP8 MSTORE PUSH2 0x3511 DUP6 PUSH1 0x40 PUSH0 KECCAK256 SLOAD LT ISZERO PUSH2 0x43F5 JUMP JUMPDEST DUP4 PUSH0 MSTORE PUSH1 0x14 DUP8 MSTORE PUSH1 0x40 PUSH0 KECCAK256 PUSH2 0x3527 DUP7 DUP3 SLOAD PUSH2 0x4249 JUMP JUMPDEST SWAP1 SSTORE DUP8 PUSH1 0xFF NOT DUP3 SLOAD AND OR SWAP1 SSTORE ADD SWAP2 DUP4 DUP4 SLOAD AND PUSH0 MSTORE PUSH1 0x7 DUP6 MSTORE TIMESTAMP PUSH1 0x40 PUSH0 KECCAK256 SSTORE PUSH0 DUP1 DUP1 DUP1 DUP5 DUP9 DUP9 SLOAD AND GAS CALL PUSH2 0x3558 PUSH2 0x4446 JUMP JUMPDEST POP ISZERO PUSH2 0x35B9 JUMPI PUSH1 0x40 PUSH0 DUP1 MLOAD PUSH1 0x20 PUSH2 0x5F1C DUP4 CODECOPY DUP2 MLOAD SWAP2 MSTORE SWAP6 SWAP7 PUSH32 0x4E5AA23F880BBCA96AED4C566A1CBE6E67FEB3C167B58C9936CEE9CAD10BA3DD SWAP3 DUP3 MLOAD SWAP2 DUP3 MSTORE DUP9 DUP3 ADD MSTORE LOG2 SLOAD AND SWAP2 PUSH1 0x40 MLOAD TIMESTAMP DUP2 MSTORE LOG2 PUSH1 0x1 PUSH0 DUP1 MLOAD PUSH1 0x20 PUSH2 0x5F9C DUP4 CODECOPY DUP2 MLOAD SWAP2 MSTORE SSTORE STOP JUMPDEST PUSH1 0x40 MLOAD PUSH3 0x461BCD PUSH1 0xE5 SHL DUP2 MSTORE PUSH1 0x4 DUP2 ADD DUP7 SWAP1 MSTORE PUSH1 0xB PUSH1 0x24 DUP3 ADD MSTORE PUSH11 0x1619995C8819985A5B1959 PUSH1 0xAA SHL PUSH1 0x44 DUP3 ADD MSTORE PUSH1 0x64 SWAP1 REVERT JUMPDEST PUSH2 0x3610 SWAP1 DUP6 PUSH2 0x3603 PUSH2 0xFFFF PUSH1 0x13 DUP11 ADD SLOAD AND DUP4 PUSH2 0x41C1 JUMP JUMPDEST DIV SWAP1 DUP2 PUSH1 0x14 DUP10 ADD SSTORE PUSH2 0x4249 JUMP JUMPDEST DUP2 SSTORE DUP12 PUSH2 0x34E6 JUMP JUMPDEST POP DUP1 ISZERO ISZERO PUSH2 0x34E1 JUMP JUMPDEST PUSH1 0xA PUSH1 0x12 DUP5 ADD SLOAD LT ISZERO PUSH2 0x34C8 JUMPI PUSH1 0x40 MLOAD PUSH3 0x461BCD PUSH1 0xE5 SHL DUP2 MSTORE PUSH1 0x4 DUP2 ADD DUP9 SWAP1 MSTORE PUSH1 0x8 PUSH1 0x24 DUP3 ADD MSTORE PUSH8 0x4E6565642031302B PUSH1 0xC0 SHL PUSH1 0x44 DUP3 ADD MSTORE PUSH1 0x64 SWAP1 REVERT JUMPDEST PUSH1 0x40 MLOAD PUSH3 0x461BCD PUSH1 0xE5 SHL DUP2 MSTORE PUSH1 0x4 DUP2 ADD DUP11 SWAP1 MSTORE PUSH1 0x7 PUSH1 0x24 DUP3 ADD MSTORE PUSH7 0x139BDD081E595D PUSH1 0xCA SHL PUSH1 0x44 DUP3 ADD MSTORE PUSH1 0x64 SWAP1 REVERT JUMPDEST PUSH1 0x2 DUP10 SUB PUSH2 0x36A4 JUMPI PUSH1 0xE DUP5 ADD SLOAD SWAP3 PUSH2 0xCE4 SWAP4 PUSH2 0x34AA JUMP JUMPDEST PUSH1 0xF DUP5 ADD SLOAD SWAP3 PUSH2 0xD48 SWAP4 PUSH2 0x34AA JUMP JUMPDEST PUSH1 0x40 MLOAD PUSH3 0x461BCD PUSH1 0xE5 SHL DUP2 MSTORE PUSH1 0x4 DUP2 ADD DUP10 SWAP1 MSTORE PUSH1 0xC PUSH1 0x24 DUP3 ADD MSTORE PUSH12 0x105B1B081C995B19585CD959 PUSH1 0xA2 SHL PUSH1 0x44 DUP3 ADD MSTORE PUSH1 0x64 SWAP1 REVERT JUMPDEST PUSH1 0x40 MLOAD PUSH3 0x461BCD PUSH1 0xE5 SHL DUP2 MSTORE PUSH1 0x4 DUP2 ADD DUP8 SWAP1 MSTORE PUSH1 0xC PUSH1 0x24 DUP3 ADD MSTORE PUSH12 0x15D85CC81C99599D5B991959 PUSH1 0xA2 SHL PUSH1 0x44 DUP3 ADD MSTORE PUSH1 0x64 SWAP1 REVERT JUMPDEST DUP7 PUSH1 0x18 DUP4 ADD SLOAD AND PUSH2 0x346B JUMPI PUSH1 0x40 MLOAD PUSH3 0x461BCD PUSH1 0xE5 SHL DUP2 MSTORE PUSH1 0x4 DUP2 ADD DUP8 SWAP1 MSTORE PUSH1 0xF PUSH1 0x24 DUP3 ADD MSTORE PUSH15 0x14DBD99D18D85C081B9BDD081A1A5D PUSH1 0x8A SHL PUSH1 0x44 DUP3 ADD MSTORE PUSH1 0x64 SWAP1 REVERT JUMPDEST PUSH1 0x40 MLOAD PUSH3 0x461BCD PUSH1 0xE5 SHL DUP2 MSTORE PUSH1 0x4 DUP2 ADD DUP8 SWAP1 MSTORE PUSH1 0x10 PUSH1 0x24 DUP3 ADD MSTORE PUSH16 0x526169736520696E636F6D706C657465 PUSH1 0x80 SHL PUSH1 0x44 DUP3 ADD MSTORE PUSH1 0x64 SWAP1 REVERT JUMPDEST POP PUSH1 0xA DUP3 ADD SLOAD PUSH3 0x278D00 DUP2 ADD DUP1 SWAP2 GT PUSH2 0x322F JUMPI TIMESTAMP LT ISZERO PUSH2 0x345C JUMP JUMPDEST CALLVALUE PUSH2 0x128C JUMPI PUSH0 CALLDATASIZE PUSH1 0x3 NOT ADD SLT PUSH2 0x128C JUMPI PUSH1 0x20 PUSH1 0x40 MLOAD PUSH1 0x5 DUP2 MSTORE RETURN JUMPDEST CALLVALUE PUSH2 0x128C JUMPI PUSH1 0x40 CALLDATASIZE PUSH1 0x3 NOT ADD SLT PUSH2 0x128C JUMPI PUSH2 0x37E4 PUSH2 0x3F34 JUMP JUMPDEST PUSH2 0x37EC PUSH2 0x3F4A JUMP JUMPDEST SWAP1 PUSH1 0x1 DUP1 PUSH1 0xA0 SHL SUB DUP1 SWAP2 AND PUSH0 MSTORE PUSH1 0x1A PUSH1 0x20 MSTORE PUSH1 0x40 PUSH0 KECCAK256 SWAP2 AND PUSH0 MSTORE PUSH1 0x20 MSTORE PUSH1 0x20 PUSH1 0x40 PUSH0 KECCAK256 SLOAD PUSH1 0x40 MLOAD SWAP1 DUP2 MSTORE RETURN JUMPDEST CALLVALUE PUSH2 0x128C JUMPI PUSH1 0x20 CALLDATASIZE PUSH1 0x3 NOT ADD SLT PUSH2 0x128C JUMPI PUSH1 0x1 PUSH1 0x1 PUSH1 0xA0 SHL SUB PUSH2 0x3839 PUSH2 0x3F34 JUMP JUMPDEST AND PUSH0 MSTORE PUSH1 0x14 PUSH1 0x20 MSTORE PUSH1 0x20 PUSH1 0x40 PUSH0 KECCAK256 SLOAD PUSH1 0x40 MLOAD SWAP1 DUP2 MSTORE RETURN JUMPDEST CALLVALUE PUSH2 0x128C JUMPI PUSH1 0x40 CALLDATASIZE PUSH1 0x3 NOT ADD SLT PUSH2 0x128C JUMPI PUSH2 0x3886 PUSH2 0x3872 PUSH1 0x24 CALLDATALOAD PUSH1 0x4 CALLDATALOAD PUSH2 0x4256 JUMP JUMPDEST PUSH1 0x40 MLOAD SWAP3 DUP4 SWAP3 PUSH1 0x40 DUP5 MSTORE PUSH1 0x40 DUP5 ADD SWAP1 PUSH2 0x3F60 JUMP JUMPDEST SWAP1 PUSH1 0x20 DUP4 ADD MSTORE SUB SWAP1 RETURN JUMPDEST CALLVALUE PUSH2 0x128C JUMPI PUSH1 0x20 DUP1 PUSH1 0x3 NOT CALLDATASIZE ADD SLT PUSH2 0x128C JUMPI PUSH2 0x38AA PUSH2 0x3F34 JUMP JUMPDEST PUSH2 0x38B2 PUSH2 0x4683 JUMP JUMPDEST PUSH1 0x1 DUP1 PUSH1 0xA0 SHL SUB DUP1 SWAP2 AND SWAP1 DUP2 PUSH0 MSTORE PUSH1 0x1 DUP4 MSTORE PUSH1 0x1 PUSH1 0x40 PUSH0 KECCAK256 ADD SWAP3 DUP2 DUP5 SLOAD AND CALLER SUB PUSH2 0x39E1 JUMPI DUP3 PUSH0 MSTORE PUSH1 0x13 DUP2 MSTORE PUSH1 0xFF PUSH1 0x40 PUSH0 KECCAK256 SLOAD AND ISZERO PUSH2 0x31FF JUMPI DUP3 PUSH0 MSTORE PUSH1 0x12 DUP2 MSTORE PUSH1 0x40 PUSH0 KECCAK256 SLOAD TIMESTAMP LT PUSH2 0x39CF JUMPI DUP3 PUSH0 MSTORE PUSH1 0x11 DUP2 MSTORE PUSH1 0x40 PUSH0 KECCAK256 SLOAD ISZERO PUSH2 0x39BD JUMPI PUSH2 0x3950 SWAP2 DUP4 PUSH0 MSTORE PUSH1 0x11 DUP3 MSTORE PUSH1 0x40 PUSH0 KECCAK256 SWAP5 PUSH0 DUP7 SLOAD SWAP7 SSTORE PUSH1 0x10 DUP4 MSTORE DUP3 DUP7 DUP4 PUSH1 0x40 PUSH0 KECCAK256 SLOAD AND DUP5 DUP5 SLOAD AND PUSH0 PUSH1 0x40 MLOAD DUP1 SWAP10 DUP2 SWAP6 DUP3 SWAP5 PUSH4 0xA9059CBB PUSH1 0xE0 SHL DUP5 MSTORE PUSH1 0x4 DUP5 ADD PUSH2 0x4217 JUMP JUMPDEST SUB SWAP3 GAS CALL SWAP4 DUP5 ISZERO PUSH2 0x318C JUMPI PUSH32 0x9796B9C1E41A3A5ADFE8C1B43D4FA0FAB73B8C65C99F99EAD85E6405E74F284E SWAP5 PUSH2 0x39A0 JUMPI JUMPDEST POP SLOAD AND SWAP4 PUSH1 0x40 MLOAD SWAP1 DUP2 MSTORE LOG3 PUSH1 0x1 PUSH0 DUP1 MLOAD PUSH1 0x20 PUSH2 0x5F9C DUP4 CODECOPY DUP2 MLOAD SWAP2 MSTORE SSTORE STOP JUMPDEST PUSH2 0x39B6 SWAP1 DUP5 RETURNDATASIZE DUP7 GT PUSH2 0x3167 JUMPI PUSH2 0x3158 DUP2 DUP4 PUSH2 0x406B JUMP JUMPDEST POP DUP7 PUSH2 0x3982 JUMP JUMPDEST PUSH1 0x40 MLOAD PUSH4 0xC8D9EAB PUSH1 0xE3 SHL DUP2 MSTORE PUSH1 0x4 SWAP1 REVERT JUMPDEST PUSH1 0x40 MLOAD PUSH4 0x4FBAE7A3 PUSH1 0xE0 SHL DUP2 MSTORE PUSH1 0x4 SWAP1 REVERT JUMPDEST PUSH1 0x40 MLOAD PUSH4 0xF53BDA41 PUSH1 0xE0 SHL DUP2 MSTORE PUSH1 0x4 SWAP1 REVERT JUMPDEST CALLVALUE PUSH2 0x128C JUMPI PUSH1 0x20 CALLDATASIZE PUSH1 0x3 NOT ADD SLT PUSH2 0x128C JUMPI PUSH1 0x1 PUSH1 0x1 PUSH1 0xA0 SHL SUB PUSH2 0x3A14 PUSH2 0x3F34 JUMP JUMPDEST AND PUSH0 MSTORE PUSH1 0x11 PUSH1 0x20 MSTORE PUSH1 0x20 PUSH1 0x40 PUSH0 KECCAK256 SLOAD PUSH1 0x40 MLOAD SWAP1 DUP2 MSTORE RETURN JUMPDEST CALLVALUE PUSH2 0x128C JUMPI PUSH0 CALLDATASIZE PUSH1 0x3 NOT ADD SLT PUSH2 0x128C JUMPI PUSH1 0x8 SLOAD PUSH1 0x40 MLOAD PUSH1 0x1 PUSH1 0x1 PUSH1 0xA0 SHL SUB SWAP1 SWAP2 AND DUP2 MSTORE PUSH1 0x20 SWAP1 RETURN JUMPDEST CALLVALUE PUSH2 0x128C JUMPI PUSH0 CALLDATASIZE PUSH1 0x3 NOT ADD SLT PUSH2 0x128C JUMPI PUSH1 0x40 MLOAD PUSH1 0x2 DUP1 SLOAD DUP1 DUP4 MSTORE PUSH0 SWAP2 DUP3 MSTORE PUSH1 0x20 DUP1 DUP5 ADD SWAP4 SWAP3 PUSH32 0x405787FA12A823E0F2B7631CC41B3BA8828B3321CA811111FA75CD3AA3BB5ACE SWAP3 SWAP2 JUMPDEST DUP3 DUP3 LT PUSH2 0x3AC7 JUMPI PUSH2 0x118D DUP6 PUSH2 0x3AB3 DUP2 DUP10 SUB DUP3 PUSH2 0x406B JUMP JUMPDEST PUSH1 0x40 MLOAD SWAP2 DUP3 SWAP2 PUSH1 0x20 DUP4 MSTORE PUSH1 0x20 DUP4 ADD SWAP1 PUSH2 0x3F60 JUMP JUMPDEST DUP4 SLOAD PUSH1 0x1 PUSH1 0x1 PUSH1 0xA0 SHL SUB AND DUP7 MSTORE SWAP5 DUP6 ADD SWAP5 PUSH1 0x1 SWAP4 DUP5 ADD SWAP4 SWAP1 SWAP2 ADD SWAP1 PUSH2 0x3A9C JUMP JUMPDEST CALLVALUE PUSH2 0x128C JUMPI PUSH1 0x40 CALLDATASIZE PUSH1 0x3 NOT ADD SLT PUSH2 0x128C JUMPI PUSH2 0x3B00 PUSH2 0x3F34 JUMP JUMPDEST PUSH2 0x3B08 PUSH2 0x3F4A JUMP JUMPDEST SWAP1 PUSH1 0x1 DUP1 PUSH1 0xA0 SHL SUB DUP1 SWAP2 AND PUSH0 MSTORE PUSH1 0x4 PUSH1 0x20 MSTORE PUSH1 0x40 PUSH0 KECCAK256 SWAP2 AND PUSH0 MSTORE PUSH1 0x20 MSTORE PUSH1 0x20 PUSH1 0x40 PUSH0 KECCAK256 SLOAD PUSH1 0x40 MLOAD SWAP1 DUP2 MSTORE RETURN JUMPDEST CALLVALUE PUSH2 0x128C JUMPI PUSH0 CALLDATASIZE PUSH1 0x3 NOT ADD SLT PUSH2 0x128C JUMPI PUSH1 0x20 PUSH1 0x40 MLOAD PUSH1 0x3C DUP2 MSTORE RETURN JUMPDEST CALLVALUE PUSH2 0x128C JUMPI PUSH1 0x20 CALLDATASIZE PUSH1 0x3 NOT ADD SLT PUSH2 0x128C JUMPI PUSH1 0x1 PUSH1 0x1 PUSH1 0xA0 SHL SUB PUSH2 0x3B70 PUSH2 0x3F34 JUMP JUMPDEST AND PUSH0 MSTORE PUSH1 0x3 PUSH1 0x20 MSTORE PUSH1 0x40 PUSH0 KECCAK256 PUSH1 0x1 PUSH1 0x20 MSTORE PUSH1 0xFF PUSH1 0x10 PUSH1 0x40 PUSH0 KECCAK256 ADD SLOAD PUSH1 0x10 SHR AND DUP1 PUSH2 0x3BD3 JUMPI JUMPDEST DUP1 PUSH2 0x3BA8 JUMPI JUMPDEST PUSH1 0x20 SWAP1 PUSH1 0x40 MLOAD SWAP1 ISZERO ISZERO DUP2 MSTORE RETURN JUMPDEST POP PUSH1 0x2 PUSH1 0x1 DUP3 ADD SLOAD SWAP2 ADD SLOAD SWAP1 PUSH1 0x33 DUP3 MUL SWAP2 DUP1 DUP4 DIV PUSH1 0x33 EQ SWAP1 ISZERO OR ISZERO PUSH2 0x322F JUMPI PUSH1 0x64 PUSH1 0x20 SWAP3 DIV LT PUSH2 0x3B9B JUMP JUMPDEST POP PUSH1 0xFF PUSH1 0x3 DUP3 ADD SLOAD AND ISZERO PUSH2 0x3B95 JUMP JUMPDEST CALLVALUE PUSH2 0x128C JUMPI PUSH0 CALLDATASIZE PUSH1 0x3 NOT ADD SLT PUSH2 0x128C JUMPI PUSH1 0x20 PUSH1 0x40 MLOAD PUSH2 0x7D0 DUP2 MSTORE RETURN JUMPDEST CALLVALUE PUSH2 0x128C JUMPI PUSH1 0x20 CALLDATASIZE PUSH1 0x3 NOT ADD SLT PUSH2 0x128C JUMPI PUSH1 0x1 PUSH1 0x1 PUSH1 0xA0 SHL SUB PUSH2 0x3C1F PUSH2 0x3F34 JUMP JUMPDEST AND PUSH0 MSTORE PUSH1 0x3 PUSH1 0x20 MSTORE PUSH1 0x80 PUSH1 0x40 PUSH0 KECCAK256 DUP1 SLOAD SWAP1 PUSH1 0x1 DUP2 ADD SLOAD SWAP1 PUSH1 0xFF PUSH1 0x3 PUSH1 0x2 DUP4 ADD SLOAD SWAP3 ADD SLOAD AND SWAP2 PUSH1 0x40 MLOAD SWAP4 DUP5 MSTORE PUSH1 0x20 DUP5 ADD MSTORE PUSH1 0x40 DUP4 ADD MSTORE ISZERO ISZERO PUSH1 0x60 DUP3 ADD MSTORE RETURN JUMPDEST CALLVALUE PUSH2 0x128C JUMPI PUSH1 0x20 CALLDATASIZE PUSH1 0x3 NOT ADD SLT PUSH2 0x128C JUMPI PUSH1 0x1 PUSH1 0x1 PUSH1 0xA0 SHL SUB PUSH2 0x3C7E PUSH2 0x3F34 JUMP JUMPDEST AND PUSH0 MSTORE PUSH1 0x16 PUSH1 0x20 MSTORE PUSH1 0x20 PUSH1 0x40 PUSH0 KECCAK256 SLOAD PUSH1 0x40 MLOAD SWAP1 DUP2 MSTORE RETURN JUMPDEST CALLVALUE PUSH2 0x128C JUMPI PUSH1 0x40 CALLDATASIZE PUSH1 0x3 NOT ADD SLT PUSH2 0x128C JUMPI PUSH2 0x3CAE PUSH2 0x3F34 JUMP JUMPDEST PUSH1 0x24 CALLDATALOAD DUP1 ISZERO ISZERO DUP2 SUB PUSH2 0x128C JUMPI PUSH1 0x1 DUP1 PUSH1 0xA0 SHL SUB DUP3 AND DUP1 PUSH0 MSTORE PUSH1 0x20 SWAP1 PUSH1 0x1 DUP3 MSTORE PUSH2 0x3CE3 PUSH1 0xFF PUSH1 0x10 PUSH1 0x40 PUSH0 KECCAK256 ADD SLOAD PUSH1 0x10 SHR AND PUSH2 0x4154 JUMP JUMPDEST DUP1 PUSH0 MSTORE PUSH1 0x3 DUP3 MSTORE PUSH1 0x40 PUSH0 KECCAK256 SWAP3 PUSH1 0x4 DUP5 ADD CALLER PUSH0 MSTORE DUP1 DUP5 MSTORE PUSH1 0xFF PUSH1 0x40 PUSH0 KECCAK256 SLOAD AND PUSH2 0x3E25 JUMPI DUP3 PUSH0 MSTORE PUSH1 0x4 DUP5 MSTORE PUSH1 0x40 PUSH0 KECCAK256 CALLER PUSH0 MSTORE DUP5 MSTORE PUSH1 0x40 PUSH0 KECCAK256 SLOAD ISZERO PUSH2 0x3DEE JUMPI PUSH2 0x3D30 PUSH1 0xFF PUSH1 0x3 DUP8 ADD SLOAD AND ISZERO PUSH2 0x418A JUMP JUMPDEST CALLER PUSH0 MSTORE DUP4 MSTORE DUP1 PUSH1 0x40 PUSH0 KECCAK256 PUSH1 0x1 PUSH1 0xFF NOT DUP3 SLOAD AND OR SWAP1 SSTORE PUSH2 0x3DC3 JUMPI JUMPDEST ISZERO PUSH2 0x3DAE JUMPI DUP1 PUSH0 MSTORE PUSH1 0x4 DUP3 MSTORE PUSH1 0x40 PUSH0 KECCAK256 CALLER PUSH0 MSTORE DUP3 MSTORE PUSH0 DUP1 MLOAD PUSH1 0x20 PUSH2 0x5F7C DUP4 CODECOPY DUP2 MLOAD SWAP2 MSTORE PUSH1 0x40 PUSH0 KECCAK256 SLOAD SWAP3 JUMPDEST PUSH1 0x40 MLOAD SWAP4 DUP5 MSTORE CALLER SWAP4 LOG3 PUSH1 0x2 PUSH1 0x1 DUP3 ADD SLOAD SWAP2 ADD SLOAD PUSH1 0x33 DUP2 MUL SWAP1 DUP1 DUP3 DIV PUSH1 0x33 EQ SWAP1 ISZERO OR ISZERO PUSH2 0x322F JUMPI PUSH1 0x64 SWAP1 DIV LT PUSH2 0x3DA5 JUMPI STOP JUMPDEST PUSH2 0x19 SWAP1 PUSH2 0x4549 JUMP JUMPDEST PUSH0 DUP1 MLOAD PUSH1 0x20 PUSH2 0x5F7C DUP4 CODECOPY DUP2 MLOAD SWAP2 MSTORE PUSH0 SWAP3 PUSH2 0x3D74 JUMP JUMPDEST DUP2 PUSH0 MSTORE PUSH1 0x4 DUP4 MSTORE PUSH1 0x40 PUSH0 KECCAK256 CALLER PUSH0 MSTORE DUP4 MSTORE PUSH1 0x40 PUSH0 KECCAK256 SLOAD PUSH2 0x3DE7 PUSH1 0x1 DUP7 ADD SWAP2 DUP3 SLOAD PUSH2 0x41F2 JUMP JUMPDEST SWAP1 SSTORE PUSH2 0x3D4A JUMP JUMPDEST PUSH1 0x40 MLOAD PUSH3 0x461BCD PUSH1 0xE5 SHL DUP2 MSTORE PUSH1 0x4 DUP2 ADD DUP6 SWAP1 MSTORE PUSH1 0xF PUSH1 0x24 DUP3 ADD MSTORE PUSH15 0x2737BA1031B7B73A3934B13ABA37B9 PUSH1 0x89 SHL PUSH1 0x44 DUP3 ADD MSTORE PUSH1 0x64 SWAP1 REVERT JUMPDEST PUSH1 0x40 MLOAD PUSH3 0x461BCD PUSH1 0xE5 SHL DUP2 MSTORE PUSH1 0x4 DUP2 ADD DUP6 SWAP1 MSTORE PUSH1 0xD PUSH1 0x24 DUP3 ADD MSTORE PUSH13 0x105B1C9958591E481D9BDD1959 PUSH1 0x9A SHL PUSH1 0x44 DUP3 ADD MSTORE PUSH1 0x64 SWAP1 REVERT JUMPDEST CALLVALUE PUSH2 0x128C JUMPI PUSH0 CALLDATASIZE PUSH1 0x3 NOT ADD SLT PUSH2 0x128C JUMPI PUSH1 0x20 PUSH1 0x40 MLOAD PUSH1 0x7 DUP2 MSTORE RETURN JUMPDEST CALLVALUE PUSH2 0x128C JUMPI PUSH1 0x20 CALLDATASIZE PUSH1 0x3 NOT ADD SLT PUSH2 0x128C JUMPI PUSH2 0x3E8E PUSH2 0x3F34 JUMP JUMPDEST PUSH1 0x1 PUSH1 0x1 PUSH1 0xA0 SHL SUB DUP2 AND PUSH0 DUP2 DUP2 MSTORE PUSH1 0x1 PUSH1 0x20 MSTORE PUSH1 0x40 SWAP1 KECCAK256 PUSH1 0x10 SWAP1 DUP2 ADD SLOAD PUSH2 0x3EB8 SWAP2 SHR PUSH1 0xFF AND PUSH2 0x4154 JUMP JUMPDEST PUSH0 MSTORE PUSH1 0x3 PUSH1 0x20 MSTORE PUSH1 0x40 PUSH0 KECCAK256 PUSH2 0x3ED4 PUSH1 0xFF PUSH1 0x3 DUP4 ADD SLOAD AND ISZERO PUSH2 0x418A JUMP JUMPDEST PUSH1 0x2 PUSH1 0x1 DUP3 ADD SLOAD SWAP2 ADD SLOAD PUSH1 0x33 DUP2 MUL SWAP1 DUP1 DUP3 DIV PUSH1 0x33 EQ SWAP1 ISZERO OR ISZERO PUSH2 0x322F JUMPI PUSH1 0x64 SWAP1 DIV LT ISZERO PUSH2 0x3F04 JUMPI PUSH2 0x19 SWAP1 PUSH2 0x4549 JUMP JUMPDEST PUSH1 0x40 MLOAD PUSH3 0x461BCD PUSH1 0xE5 SHL DUP2 MSTORE PUSH1 0x20 PUSH1 0x4 DUP3 ADD MSTORE PUSH1 0x8 PUSH1 0x24 DUP3 ADD MSTORE PUSH8 0x4E65656420353125 PUSH1 0xC0 SHL PUSH1 0x44 DUP3 ADD MSTORE PUSH1 0x64 SWAP1 REVERT JUMPDEST PUSH1 0x4 CALLDATALOAD SWAP1 PUSH1 0x1 PUSH1 0x1 PUSH1 0xA0 SHL SUB DUP3 AND DUP3 SUB PUSH2 0x128C JUMPI JUMP JUMPDEST PUSH1 0x24 CALLDATALOAD SWAP1 PUSH1 0x1 PUSH1 0x1 PUSH1 0xA0 SHL SUB DUP3 AND DUP3 SUB PUSH2 0x128C JUMPI JUMP JUMPDEST SWAP1 DUP2 MLOAD DUP1 DUP3 MSTORE PUSH1 0x20 DUP1 DUP1 SWAP4 ADD SWAP4 ADD SWAP2 PUSH0 JUMPDEST DUP3 DUP2 LT PUSH2 0x3F7F JUMPI POP POP POP POP SWAP1 JUMP JUMPDEST DUP4 MLOAD PUSH1 0x1 PUSH1 0x1 PUSH1 0xA0 SHL SUB AND DUP6 MSTORE SWAP4 DUP2 ADD SWAP4 SWAP3 DUP2 ADD SWAP3 PUSH1 0x1 ADD PUSH2 0x3F71 JUMP JUMPDEST PUSH1 0x2 SLOAD DUP2 LT ISZERO PUSH2 0x3FB4 JUMPI PUSH1 0x2 PUSH0 MSTORE PUSH1 0x20 PUSH0 KECCAK256 ADD SWAP1 PUSH0 SWAP1 JUMP JUMPDEST PUSH4 0x4E487B71 PUSH1 0xE0 SHL PUSH0 MSTORE PUSH1 0x32 PUSH1 0x4 MSTORE PUSH1 0x24 PUSH0 REVERT JUMPDEST DUP1 SLOAD DUP3 LT ISZERO PUSH2 0x3FB4 JUMPI PUSH0 MSTORE PUSH1 0x20 PUSH0 KECCAK256 ADD SWAP1 PUSH0 SWAP1 JUMP JUMPDEST SWAP2 DUP2 PUSH1 0x1F DUP5 ADD SLT ISZERO PUSH2 0x128C JUMPI DUP3 CALLDATALOAD SWAP2 PUSH1 0x1 PUSH1 0x1 PUSH1 0x40 SHL SUB DUP4 GT PUSH2 0x128C JUMPI PUSH1 0x20 DUP4 DUP2 DUP7 ADD SWAP6 ADD ADD GT PUSH2 0x128C JUMPI JUMP JUMPDEST PUSH1 0x40 SWAP2 SWAP5 SWAP4 SWAP3 PUSH1 0x60 DUP3 ADD SWAP6 DUP3 MSTORE PUSH1 0x20 DUP3 ADD MSTORE ADD MSTORE JUMP JUMPDEST SWAP1 PUSH1 0x1 DUP3 DUP2 SHR SWAP3 AND DUP1 ISZERO PUSH2 0x404E JUMPI JUMPDEST PUSH1 0x20 DUP4 LT EQ PUSH2 0x403A JUMPI JUMP JUMPDEST PUSH4 0x4E487B71 PUSH1 0xE0 SHL PUSH0 MSTORE PUSH1 0x22 PUSH1 0x4 MSTORE PUSH1 0x24 PUSH0 REVERT JUMPDEST SWAP2 PUSH1 0x7F AND SWAP2 PUSH2 0x402F JUMP JUMPDEST PUSH1 0x1 PUSH1 0x1 PUSH1 0x40 SHL SUB DUP2 GT PUSH2 0x1EB3 JUMPI PUSH1 0x40 MSTORE JUMP JUMPDEST PUSH1 0x1F SWAP1 SWAP2 ADD PUSH1 0x1F NOT AND DUP2 ADD SWAP1 PUSH1 0x1 PUSH1 0x1 PUSH1 0x40 SHL SUB DUP3 GT SWAP1 DUP3 LT OR PUSH2 0x1EB3 JUMPI PUSH1 0x40 MSTORE JUMP JUMPDEST SWAP1 PUSH1 0x40 MLOAD SWAP2 DUP3 PUSH0 DUP3 SLOAD PUSH2 0x40A0 DUP2 PUSH2 0x4020 JUMP JUMPDEST SWAP1 DUP2 DUP5 MSTORE PUSH1 0x20 SWAP5 PUSH1 0x1 SWAP2 PUSH1 0x1 DUP2 AND SWAP1 DUP2 PUSH0 EQ PUSH2 0x410E JUMPI POP PUSH1 0x1 EQ PUSH2 0x40D0 JUMPI JUMPDEST POP POP POP PUSH2 0x40CE SWAP3 POP SUB DUP4 PUSH2 0x406B JUMP JUMPDEST JUMP JUMPDEST PUSH0 SWAP1 DUP2 MSTORE DUP6 DUP2 KECCAK256 SWAP6 SWAP4 POP SWAP2 SWAP1 JUMPDEST DUP2 DUP4 LT PUSH2 0x40F6 JUMPI POP POP PUSH2 0x40CE SWAP4 POP DUP3 ADD ADD PUSH0 DUP1 DUP1 PUSH2 0x40BF JUMP JUMPDEST DUP6 SLOAD DUP9 DUP5 ADD DUP6 ADD MSTORE SWAP5 DUP6 ADD SWAP5 DUP8 SWAP5 POP SWAP2 DUP4 ADD SWAP2 PUSH2 0x40DD JUMP JUMPDEST SWAP3 POP POP POP PUSH2 0x40CE SWAP5 SWAP3 POP PUSH1 0xFF NOT AND DUP3 DUP5 ADD MSTORE ISZERO ISZERO PUSH1 0x5 SHL DUP3 ADD ADD PUSH0 DUP1 DUP1 PUSH2 0x40BF JUMP JUMPDEST DUP1 MLOAD DUP1 DUP4 MSTORE PUSH1 0x20 SWAP3 SWAP2 DUP2 SWAP1 DUP5 ADD DUP5 DUP5 ADD MCOPY PUSH0 DUP3 DUP3 ADD DUP5 ADD MSTORE PUSH1 0x1F ADD PUSH1 0x1F NOT AND ADD ADD SWAP1 JUMP JUMPDEST ISZERO PUSH2 0x415B JUMPI JUMP JUMPDEST PUSH1 0x40 MLOAD PUSH3 0x461BCD PUSH1 0xE5 SHL DUP2 MSTORE PUSH1 0x20 PUSH1 0x4 DUP3 ADD MSTORE PUSH1 0x7 PUSH1 0x24 DUP3 ADD MSTORE PUSH7 0x4E6F20766F7465 PUSH1 0xC8 SHL PUSH1 0x44 DUP3 ADD MSTORE PUSH1 0x64 SWAP1 REVERT JUMPDEST ISZERO PUSH2 0x4191 JUMPI JUMP JUMPDEST PUSH1 0x40 MLOAD PUSH3 0x461BCD PUSH1 0xE5 SHL DUP2 MSTORE PUSH1 0x20 PUSH1 0x4 DUP3 ADD MSTORE PUSH1 0x8 PUSH1 0x24 DUP3 ADD MSTORE PUSH8 0x115E1958DD5D1959 PUSH1 0xC2 SHL PUSH1 0x44 DUP3 ADD MSTORE PUSH1 0x64 SWAP1 REVERT JUMPDEST DUP2 DUP2 MUL SWAP3 SWAP2 DUP2 ISZERO SWAP2 DUP5 DIV EQ OR ISZERO PUSH2 0x322F JUMPI JUMP JUMPDEST DUP2 ISZERO PUSH2 0x41DE JUMPI DIV SWAP1 JUMP JUMPDEST PUSH4 0x4E487B71 PUSH1 0xE0 SHL PUSH0 MSTORE PUSH1 0x12 PUSH1 0x4 MSTORE PUSH1 0x24 PUSH0 REVERT JUMPDEST SWAP2 SWAP1 DUP3 ADD DUP1 SWAP3 GT PUSH2 0x322F JUMPI JUMP JUMPDEST SWAP1 DUP2 PUSH1 0x20 SWAP2 SUB SLT PUSH2 0x128C JUMPI MLOAD DUP1 ISZERO ISZERO DUP2 SUB PUSH2 0x128C JUMPI SWAP1 JUMP JUMPDEST PUSH1 0x1 PUSH1 0x1 PUSH1 0xA0 SHL SUB SWAP1 SWAP2 AND DUP2 MSTORE PUSH1 0x20 DUP2 ADD SWAP2 SWAP1 SWAP2 MSTORE PUSH1 0x40 ADD SWAP1 JUMP JUMPDEST PUSH1 0x1 PUSH1 0x1 PUSH1 0x40 SHL SUB DUP2 GT PUSH2 0x1EB3 JUMPI PUSH1 0x5 SHL PUSH1 0x20 ADD SWAP1 JUMP JUMPDEST SWAP2 SWAP1 DUP3 SUB SWAP2 DUP3 GT PUSH2 0x322F JUMPI JUMP JUMPDEST SWAP2 PUSH1 0x2 SLOAD SWAP2 DUP3 DUP5 LT ISZERO PUSH2 0x4308 JUMPI PUSH2 0x426D SWAP1 DUP5 PUSH2 0x41F2 JUMP JUMPDEST SWAP3 DUP3 DUP5 GT PUSH2 0x42FF JUMPI JUMPDEST PUSH2 0x4280 DUP2 DUP6 PUSH2 0x4249 JUMP JUMPDEST SWAP4 PUSH2 0x42A3 PUSH2 0x428D DUP7 PUSH2 0x4232 JUMP JUMPDEST SWAP6 PUSH2 0x429B PUSH1 0x40 MLOAD SWAP8 DUP9 PUSH2 0x406B JUMP JUMPDEST DUP1 DUP8 MSTORE PUSH2 0x4232 JUMP JUMPDEST PUSH1 0x20 SWAP1 PUSH1 0x1F NOT ADD CALLDATASIZE DUP8 DUP4 ADD CALLDATACOPY DUP6 DUP4 JUMPDEST DUP4 DUP2 LT PUSH2 0x42C0 JUMPI POP POP POP POP POP JUMP JUMPDEST PUSH2 0x42C9 DUP2 PUSH2 0x3F9C JUMP JUMPDEST SWAP2 SWAP1 SLOAD PUSH2 0x42D6 DUP8 DUP4 PUSH2 0x4249 JUMP JUMPDEST SWAP1 DUP5 MLOAD DUP3 LT ISZERO PUSH2 0x3FB4 JUMPI PUSH1 0x1 SWAP4 DUP7 SWAP2 DUP6 DUP1 PUSH1 0xA0 SHL SUB SWAP2 PUSH1 0x3 SHL SHR AND SWAP2 PUSH1 0x5 SHL DUP6 ADD ADD MSTORE ADD PUSH2 0x42B2 JUMP JUMPDEST SWAP3 POP DUP2 SWAP3 PUSH2 0x4276 JUMP JUMPDEST POP PUSH1 0x40 MLOAD SWAP2 SWAP3 POP SWAP1 PUSH1 0x20 DUP2 ADD PUSH1 0x1 PUSH1 0x1 PUSH1 0x40 SHL SUB DUP2 GT DUP3 DUP3 LT OR PUSH2 0x1EB3 JUMPI PUSH1 0x40 MSTORE PUSH0 DUP2 MSTORE PUSH0 CALLDATASIZE DUP2 CALLDATACOPY SWAP2 SWAP1 JUMP JUMPDEST ISZERO PUSH2 0x433B JUMPI JUMP JUMPDEST PUSH1 0x40 MLOAD PUSH3 0x461BCD PUSH1 0xE5 SHL DUP2 MSTORE PUSH1 0x20 PUSH1 0x4 DUP3 ADD MSTORE PUSH1 0x10 PUSH1 0x24 DUP3 ADD MSTORE PUSH16 0x546F6B656E206E6F7420616374697665 PUSH1 0x80 SHL PUSH1 0x44 DUP3 ADD MSTORE PUSH1 0x64 SWAP1 REVERT JUMPDEST PUSH1 0xFF PUSH1 0x14 SWAP2 AND ADD SWAP1 PUSH1 0xFF DUP3 GT PUSH2 0x322F JUMPI JUMP JUMPDEST ISZERO PUSH2 0x438C JUMPI JUMP JUMPDEST PUSH1 0x40 MLOAD PUSH3 0x461BCD PUSH1 0xE5 SHL DUP2 MSTORE PUSH1 0x20 PUSH1 0x4 DUP3 ADD MSTORE PUSH1 0xB PUSH1 0x24 DUP3 ADD MSTORE PUSH11 0x566F746520616374697665 PUSH1 0xA8 SHL PUSH1 0x44 DUP3 ADD MSTORE PUSH1 0x64 SWAP1 REVERT JUMPDEST ISZERO PUSH2 0x43C6 JUMPI JUMP JUMPDEST PUSH1 0x40 MLOAD PUSH3 0x461BCD PUSH1 0xE5 SHL DUP2 MSTORE PUSH1 0x20 PUSH1 0x4 DUP3 ADD MSTORE PUSH1 0x7 PUSH1 0x24 DUP3 ADD MSTORE PUSH7 0x4E6F7468696E67 PUSH1 0xC8 SHL PUSH1 0x44 DUP3 ADD MSTORE PUSH1 0x64 SWAP1 REVERT JUMPDEST ISZERO PUSH2 0x43FC JUMPI JUMP JUMPDEST PUSH1 0x40 MLOAD PUSH3 0x461BCD PUSH1 0xE5 SHL DUP2 MSTORE PUSH1 0x20 PUSH1 0x4 DUP3 ADD MSTORE PUSH1 0x7 PUSH1 0x24 DUP3 ADD MSTORE PUSH7 0x131BDDC818985B PUSH1 0xCA SHL PUSH1 0x44 DUP3 ADD MSTORE PUSH1 0x64 SWAP1 REVERT JUMPDEST PUSH1 0x1 PUSH1 0x1 PUSH1 0x40 SHL SUB DUP2 GT PUSH2 0x1EB3 JUMPI PUSH1 0x1F ADD PUSH1 0x1F NOT AND PUSH1 0x20 ADD SWAP1 JUMP JUMPDEST RETURNDATASIZE ISZERO PUSH2 0x4470 JUMPI RETURNDATASIZE SWAP1 PUSH2 0x4457 DUP3 PUSH2 0x442B JUMP JUMPDEST SWAP2 PUSH2 0x4465 PUSH1 0x40 MLOAD SWAP4 DUP5 PUSH2 0x406B JUMP JUMPDEST DUP3 MSTORE RETURNDATASIZE PUSH0 PUSH1 0x20 DUP5 ADD RETURNDATACOPY JUMP JUMPDEST PUSH1 0x60 SWAP1 JUMP JUMPDEST SWAP1 DUP2 PUSH1 0x20 SWAP2 SUB SLT PUSH2 0x128C JUMPI MLOAD PUSH1 0x1 PUSH1 0x1 PUSH1 0xA0 SHL SUB DUP2 AND DUP2 SUB PUSH2 0x128C JUMPI SWAP1 JUMP JUMPDEST SWAP1 DUP1 PUSH1 0x20 SWAP4 SWAP3 DUP2 DUP5 MSTORE DUP5 DUP5 ADD CALLDATACOPY PUSH0 DUP3 DUP3 ADD DUP5 ADD MSTORE PUSH1 0x1F ADD PUSH1 0x1F NOT AND ADD ADD SWAP1 JUMP JUMPDEST PUSH0 NOT DUP2 EQ PUSH2 0x322F JUMPI PUSH1 0x1 ADD SWAP1 JUMP JUMPDEST SWAP3 SWAP2 SWAP3 PUSH2 0x44CE DUP3 PUSH2 0x442B JUMP JUMPDEST SWAP2 PUSH2 0x44DC PUSH1 0x40 MLOAD SWAP4 DUP5 PUSH2 0x406B JUMP JUMPDEST DUP3 SWAP5 DUP2 DUP5 MSTORE DUP2 DUP4 ADD GT PUSH2 0x128C JUMPI DUP3 DUP2 PUSH1 0x20 SWAP4 DUP5 PUSH0 SWAP7 ADD CALLDATACOPY ADD ADD MSTORE JUMP JUMPDEST SWAP1 PUSH2 0xFF00 DUP3 SLOAD SWAP2 ISZERO ISZERO PUSH1 0x8 SHL AND SWAP1 PUSH2 0xFF00 NOT AND OR SWAP1 SSTORE JUMP JUMPDEST ISZERO PUSH2 0x4517 JUMPI JUMP JUMPDEST PUSH1 0x40 MLOAD PUSH3 0x461BCD PUSH1 0xE5 SHL DUP2 MSTORE PUSH1 0x20 PUSH1 0x4 DUP3 ADD MSTORE PUSH1 0xA PUSH1 0x24 DUP3 ADD MSTORE PUSH10 0x4E6F7420616374697665 PUSH1 0xB0 SHL PUSH1 0x44 DUP3 ADD MSTORE PUSH1 0x64 SWAP1 REVERT JUMPDEST PUSH1 0x1 DUP1 PUSH1 0xA0 SHL SUB DUP1 SWAP2 AND SWAP1 DUP2 PUSH0 MSTORE PUSH1 0x17 PUSH1 0x20 PUSH1 0x1 DUP2 MSTORE PUSH1 0x40 SWAP3 DUP4 PUSH0 KECCAK256 PUSH1 0x3 DUP4 MSTORE PUSH1 0x1 PUSH1 0x3 DUP7 PUSH0 KECCAK256 ADD SWAP2 PUSH1 0xFF NOT SWAP3 DUP3 DUP5 DUP3 SLOAD AND OR SWAP1 SSTORE PUSH1 0x10 DUP2 ADD PUSH2 0xFF00 NOT DUP2 SLOAD AND SWAP1 SSTORE ADD SWAP1 DUP3 DUP3 SLOAD AND PUSH0 MSTORE PUSH1 0xA DUP5 MSTORE DUP6 PUSH0 KECCAK256 SWAP1 DUP2 SLOAD SWAP1 PUSH1 0xFF DUP3 AND ISZERO PUSH2 0x463F JUMPI JUMPDEST POP POP POP DUP6 PUSH0 MSTORE PUSH1 0xC DUP4 MSTORE DUP5 PUSH0 KECCAK256 DUP1 SLOAD SWAP1 DUP2 PUSH2 0x45F9 JUMPI JUMPDEST POP POP SLOAD AND PUSH0 MSTORE MSTORE PUSH0 KECCAK256 PUSH2 0x45D1 DUP2 SLOAD PUSH2 0x44B4 JUMP JUMPDEST SWAP1 SSTORE PUSH32 0xAE7F97DB0B8177E27E4396C4575565840AA5920187184C9568C3B5D47F8EBA8A PUSH0 DUP1 LOG2 JUMP JUMPDEST PUSH0 SWAP1 SSTORE PUSH2 0x4608 DUP2 PUSH1 0xD SLOAD PUSH2 0x41F2 JUMP JUMPDEST PUSH1 0xD SSTORE PUSH32 0x6E238CF96F0C12E531D3336078C024F62DEADFCF747156940FBAFDECED98F34 DUP5 DUP5 DUP5 SLOAD AND SWAP3 DUP9 MLOAD SWAP1 DUP2 MSTORE LOG2 PUSH0 DUP1 PUSH2 0x45BE JUMP JUMPDEST PUSH1 0x1 SWAP2 AND OR SWAP1 SSTORE DUP2 DUP2 SLOAD AND PUSH0 DUP1 MLOAD PUSH1 0x20 PUSH2 0x5F5C DUP4 CODECOPY DUP2 MLOAD SWAP2 MSTORE PUSH1 0x60 DUP8 MLOAD DUP7 DUP2 MSTORE PUSH1 0xD DUP8 DUP3 ADD MSTORE PUSH13 0x1499599D5B99081C185CDCD959 PUSH1 0x9A SHL DUP10 DUP3 ADD MSTORE LOG2 PUSH0 DUP1 DUP1 PUSH2 0x45A8 JUMP JUMPDEST PUSH0 DUP1 MLOAD PUSH1 0x20 PUSH2 0x5F9C DUP4 CODECOPY DUP2 MLOAD SWAP2 MSTORE PUSH1 0x2 DUP2 SLOAD EQ PUSH2 0x46A0 JUMPI PUSH1 0x2 SWAP1 SSTORE JUMP JUMPDEST PUSH1 0x40 MLOAD PUSH4 0x3EE5AEB5 PUSH1 0xE0 SHL DUP2 MSTORE PUSH1 0x4 SWAP1 REVERT JUMPDEST PUSH0 SLOAD PUSH1 0x1 PUSH1 0x1 PUSH1 0xA0 SHL SUB AND CALLER SUB PUSH2 0x46C5 JUMPI JUMP JUMPDEST PUSH1 0x40 MLOAD PUSH4 0x118CDAA7 PUSH1 0xE0 SHL DUP2 MSTORE CALLER PUSH1 0x4 DUP3 ADD MSTORE PUSH1 0x24 SWAP1 REVERT JUMPDEST SWAP1 DUP1 ISZERO PUSH2 0x484C JUMPI DUP1 TIMESTAMP GT PUSH2 0x4817 JUMPI DUP1 PUSH0 MSTORE PUSH1 0x20 SWAP2 PUSH1 0x9 DUP4 MSTORE PUSH1 0x40 SWAP5 DUP6 PUSH0 KECCAK256 SWAP5 PUSH1 0x1 DUP1 PUSH1 0xA0 SHL SUB SWAP3 DUP4 DUP2 AND SWAP7 DUP8 PUSH0 MSTORE DUP7 MSTORE PUSH1 0xFF DUP9 PUSH0 KECCAK256 SLOAD AND PUSH2 0x47E6 JUMPI SWAP2 PUSH2 0x477B PUSH2 0x4781 SWAP3 PUSH2 0x478A SWAP6 SWAP5 DUP11 MLOAD PUSH2 0x4747 DUP2 PUSH2 0x4739 DUP12 DUP14 DUP4 ADD SWAP6 DUP7 PUSH2 0x4217 JUMP JUMPDEST SUB PUSH1 0x1F NOT DUP2 ADD DUP4 MSTORE DUP3 PUSH2 0x406B JUMP JUMPDEST MLOAD SWAP1 KECCAK256 PUSH28 0xCA2BA3432B932BAB69029B4B3B732B21026B2B9B9B0B3B29D051999 PUSH1 0x21 SHL PUSH0 MSTORE PUSH1 0x1C MSTORE PUSH1 0x3C PUSH0 KECCAK256 SWAP3 CALLDATASIZE SWAP2 PUSH2 0x44C2 JUMP JUMPDEST SWAP1 PUSH2 0x4852 JUMP JUMPDEST SWAP1 SWAP4 SWAP2 SWAP4 PUSH2 0x488C JUMP JUMPDEST DUP1 PUSH1 0x8 SLOAD AND SWAP2 AND SUB PUSH2 0x47B2 JUMPI PUSH0 MSTORE PUSH1 0x9 DUP2 MSTORE DUP3 PUSH0 KECCAK256 SWAP2 PUSH0 MSTORE MSTORE PUSH0 KECCAK256 PUSH1 0x1 PUSH1 0xFF NOT DUP3 SLOAD AND OR SWAP1 SSTORE JUMP JUMPDEST DUP4 MLOAD PUSH3 0x461BCD PUSH1 0xE5 SHL DUP2 MSTORE PUSH1 0x4 DUP2 ADD DUP4 SWAP1 MSTORE PUSH1 0xD PUSH1 0x24 DUP3 ADD MSTORE PUSH13 0x24B73B30B634B210383937B7B3 PUSH1 0x99 SHL PUSH1 0x44 DUP3 ADD MSTORE PUSH1 0x64 SWAP1 REVERT JUMPDEST DUP8 MLOAD PUSH3 0x461BCD PUSH1 0xE5 SHL DUP2 MSTORE PUSH1 0x4 DUP2 ADD DUP8 SWAP1 MSTORE PUSH1 0xA PUSH1 0x24 DUP3 ADD MSTORE PUSH10 0x141C9BDBD9881D5CD959 PUSH1 0xB2 SHL PUSH1 0x44 DUP3 ADD MSTORE PUSH1 0x64 SWAP1 REVERT JUMPDEST PUSH1 0x40 MLOAD PUSH3 0x461BCD PUSH1 0xE5 SHL DUP2 MSTORE PUSH1 0x20 PUSH1 0x4 DUP3 ADD MSTORE PUSH1 0xD PUSH1 0x24 DUP3 ADD MSTORE PUSH13 0x141C9BDBD988195E1C1A5C9959 PUSH1 0x9A SHL PUSH1 0x44 DUP3 ADD MSTORE PUSH1 0x64 SWAP1 REVERT JUMPDEST POP POP POP POP JUMP JUMPDEST DUP2 MLOAD SWAP2 SWAP1 PUSH1 0x41 DUP4 SUB PUSH2 0x4882 JUMPI PUSH2 0x487B SWAP3 POP PUSH1 0x20 DUP3 ADD MLOAD SWAP1 PUSH1 0x60 PUSH1 0x40 DUP5 ADD MLOAD SWAP4 ADD MLOAD PUSH0 BYTE SWAP1 PUSH2 0x490F JUMP JUMPDEST SWAP2 SWAP3 SWAP1 SWAP2 SWAP1 JUMP JUMPDEST POP POP PUSH0 SWAP2 PUSH1 0x2 SWAP2 SWAP1 JUMP JUMPDEST PUSH1 0x4 DUP2 LT ISZERO PUSH2 0x48FB JUMPI DUP1 PUSH2 0x489E JUMPI POP POP JUMP JUMPDEST PUSH1 0x1 DUP2 SUB PUSH2 0x48B8 JUMPI PUSH1 0x40 MLOAD PUSH4 0xF645EEDF PUSH1 0xE0 SHL DUP2 MSTORE PUSH1 0x4 SWAP1 REVERT JUMPDEST PUSH1 0x2 DUP2 SUB PUSH2 0x48D9 JUMPI PUSH1 0x40 MLOAD PUSH4 0xFCE698F7 PUSH1 0xE0 SHL DUP2 MSTORE PUSH1 0x4 DUP2 ADD DUP4 SWAP1 MSTORE PUSH1 0x24 SWAP1 REVERT JUMPDEST PUSH1 0x3 EQ PUSH2 0x48E3 JUMPI POP JUMP JUMPDEST PUSH1 0x24 SWAP1 PUSH1 0x40 MLOAD SWAP1 PUSH4 0x35E2F383 PUSH1 0xE2 SHL DUP3 MSTORE PUSH1 0x4 DUP3 ADD MSTORE REVERT JUMPDEST PUSH4 0x4E487B71 PUSH1 0xE0 SHL PUSH0 MSTORE PUSH1 0x21 PUSH1 0x4 MSTORE PUSH1 0x24 PUSH0 REVERT JUMPDEST SWAP2 SWAP1 PUSH16 0xA2A8918CA85BAFE22016D0B997E4DF60 PUSH1 0x1 PUSH1 0xFF SHL SUB DUP5 GT PUSH2 0x497C JUMPI SWAP2 PUSH1 0x20 SWAP4 PUSH1 0x80 SWAP3 PUSH1 0xFF PUSH0 SWAP6 PUSH1 0x40 MLOAD SWAP5 DUP6 MSTORE AND DUP7 DUP5 ADD MSTORE PUSH1 0x40 DUP4 ADD MSTORE PUSH1 0x60 DUP3 ADD MSTORE DUP3 DUP1 MSTORE PUSH1 0x1 GAS STATICCALL ISZERO PUSH2 0x318C JUMPI PUSH0 MLOAD PUSH1 0x1 PUSH1 0x1 PUSH1 0xA0 SHL SUB DUP2 AND ISZERO PUSH2 0x4972 JUMPI SWAP1 PUSH0 SWAP1 PUSH0 SWAP1 JUMP JUMPDEST POP PUSH0 SWAP1 PUSH1 0x1 SWAP1 PUSH0 SWAP1 JUMP JUMPDEST POP POP POP PUSH0 SWAP2 PUSH1 0x3 SWAP2 SWAP1 JUMP INVALID PUSH1 0x40 PUSH1 0x80 DUP2 MSTORE CALLVALUE PUSH2 0x3C5 JUMPI PUSH2 0x1594 DUP1 CODESIZE SUB DUP1 PUSH2 0x1A DUP2 PUSH2 0x3C9 JUMP JUMPDEST SWAP3 DUP4 CODECOPY DUP2 ADD PUSH1 0x80 DUP3 DUP3 SUB SLT PUSH2 0x3C5 JUMPI DUP2 MLOAD PUSH1 0x1 PUSH1 0x1 PUSH1 0x40 SHL SUB SWAP1 DUP2 DUP2 GT PUSH2 0x3C5 JUMPI DUP3 PUSH2 0x47 SWAP2 DUP6 ADD PUSH2 0x3EE JUMP JUMPDEST SWAP1 PUSH1 0x20 SWAP3 DUP4 DUP6 ADD MLOAD SWAP1 DUP3 DUP3 GT PUSH2 0x3C5 JUMPI PUSH2 0x62 SWAP2 DUP7 ADD PUSH2 0x3EE JUMP JUMPDEST DUP6 DUP6 ADD MLOAD PUSH1 0x60 SWAP1 SWAP6 ADD MLOAD SWAP1 SWAP3 PUSH1 0x1 PUSH1 0x1 PUSH1 0xA0 SHL SUB SWAP3 DUP4 DUP4 AND SWAP3 DUP4 SWAP1 SUB PUSH2 0x3C5 JUMPI DUP2 MLOAD DUP2 DUP2 GT PUSH2 0x2DA JUMPI PUSH1 0x3 SWAP1 DUP2 SLOAD SWAP1 PUSH1 0x1 SWAP5 DUP6 DUP4 DUP2 SHR SWAP4 AND DUP1 ISZERO PUSH2 0x3BB JUMPI JUMPDEST DUP11 DUP5 LT EQ PUSH2 0x3A7 JUMPI DUP2 SWAP1 PUSH1 0x1F SWAP4 DUP5 DUP2 GT PUSH2 0x359 JUMPI JUMPDEST POP DUP11 SWAP1 DUP5 DUP4 GT PUSH1 0x1 EQ PUSH2 0x2F9 JUMPI PUSH0 SWAP3 PUSH2 0x2EE JUMPI JUMPDEST POP POP PUSH0 NOT DUP3 DUP6 SHL SHR NOT AND SWAP1 DUP6 SHL OR DUP3 SSTORE JUMPDEST DUP7 MLOAD SWAP3 DUP4 GT PUSH2 0x2DA JUMPI PUSH1 0x4 SWAP7 DUP8 SLOAD DUP6 DUP2 DUP2 SHR SWAP2 AND DUP1 ISZERO PUSH2 0x2D0 JUMPI JUMPDEST DUP11 DUP3 LT EQ PUSH2 0x2BD JUMPI DUP3 DUP2 GT PUSH2 0x27A JUMPI JUMPDEST POP DUP9 SWAP2 DUP5 GT PUSH1 0x1 EQ PUSH2 0x218 JUMPI SWAP4 DUP4 SWAP5 SWAP2 DUP5 SWAP3 PUSH0 SWAP6 PUSH2 0x20D JUMPI JUMPDEST POP POP SHL SWAP3 PUSH0 NOT SWAP2 SHL SHR NOT AND OR DUP4 SSTORE JUMPDEST DUP1 ISZERO PUSH2 0x1F7 JUMPI PUSH1 0x5 DUP1 SLOAD PUSH1 0x1 PUSH1 0x1 PUSH1 0xA0 SHL SUB NOT DUP2 AND DUP4 OR SWAP1 SWAP2 SSTORE DUP7 MLOAD SWAP3 AND PUSH32 0x8BE0079C531659141344CD1FD0A4F28419497F9722A3DAAFE3B4186F6B6457E0 PUSH0 DUP1 LOG3 ADDRESS ISZERO PUSH2 0x1E4 JUMPI POP PUSH1 0x2 SLOAD SWAP1 DUP4 DUP3 ADD DUP1 SWAP3 GT PUSH2 0x1D1 JUMPI POP PUSH0 SWAP2 PUSH32 0xDDF252AD1BE2C89B69C2B068FC378DAA952BA7F163C4A11628F55A4DF523B3EF SWAP2 PUSH1 0x2 SSTORE ADDRESS DUP4 MSTORE DUP3 DUP2 MSTORE DUP5 DUP4 KECCAK256 DUP5 DUP2 SLOAD ADD SWAP1 SSTORE DUP5 MLOAD SWAP4 DUP5 MSTORE ADDRESS SWAP4 LOG3 MLOAD PUSH2 0x1154 SWAP1 DUP2 PUSH2 0x440 DUP3 CODECOPY RETURN JUMPDEST PUSH1 0x11 SWAP1 PUSH4 0x4E487B71 PUSH1 0xE0 SHL PUSH0 MSTORE MSTORE PUSH1 0x24 PUSH0 REVERT JUMPDEST PUSH0 PUSH1 0x24 SWAP3 PUSH4 0xEC442F05 PUSH1 0xE0 SHL DUP4 MSTORE DUP3 ADD MSTORE REVERT JUMPDEST DUP6 MLOAD PUSH4 0x1E4FBDF7 PUSH1 0xE0 SHL DUP2 MSTORE PUSH0 DUP2 DUP6 ADD MSTORE PUSH1 0x24 SWAP1 REVERT JUMPDEST ADD MLOAD SWAP4 POP PUSH0 DUP1 PUSH2 0x11F JUMP JUMPDEST SWAP2 SWAP1 PUSH1 0x1F NOT DUP5 AND SWAP3 DUP9 PUSH0 MSTORE DUP5 DUP11 PUSH0 KECCAK256 SWAP5 PUSH0 JUMPDEST DUP13 DUP10 DUP4 DUP4 LT PUSH2 0x263 JUMPI POP POP POP LT PUSH2 0x24A JUMPI JUMPDEST POP POP POP POP DUP2 SHL ADD DUP4 SSTORE PUSH2 0x12E JUMP JUMPDEST ADD MLOAD SWAP1 PUSH1 0xF8 DUP5 PUSH0 NOT SWAP3 SHL AND SHR NOT AND SWAP1 SSTORE PUSH0 DUP1 DUP1 DUP1 PUSH2 0x23C JUMP JUMPDEST DUP7 DUP7 ADD MLOAD DUP10 SSTORE SWAP1 SWAP8 ADD SWAP7 SWAP5 DUP6 ADD SWAP5 DUP9 SWAP4 POP ADD PUSH2 0x22A JUMP JUMPDEST DUP9 PUSH0 MSTORE DUP10 PUSH0 KECCAK256 DUP4 DUP1 DUP8 ADD PUSH1 0x5 SHR DUP3 ADD SWAP3 DUP13 DUP9 LT PUSH2 0x2B4 JUMPI JUMPDEST ADD PUSH1 0x5 SHR ADD SWAP1 DUP7 SWAP1 JUMPDEST DUP3 DUP2 LT PUSH2 0x2A9 JUMPI POP POP PUSH2 0x106 JUMP JUMPDEST PUSH0 DUP2 SSTORE ADD DUP7 SWAP1 PUSH2 0x29B JUMP JUMPDEST SWAP3 POP DUP2 SWAP3 PUSH2 0x292 JUMP JUMPDEST PUSH1 0x22 DUP10 PUSH4 0x4E487B71 PUSH1 0xE0 SHL PUSH0 MSTORE MSTORE PUSH1 0x24 PUSH0 REVERT JUMPDEST SWAP1 PUSH1 0x7F AND SWAP1 PUSH2 0xF6 JUMP JUMPDEST PUSH4 0x4E487B71 PUSH1 0xE0 SHL PUSH0 MSTORE PUSH1 0x41 PUSH1 0x4 MSTORE PUSH1 0x24 PUSH0 REVERT JUMPDEST ADD MLOAD SWAP1 POP PUSH0 DUP1 PUSH2 0xCA JUMP JUMPDEST PUSH0 DUP7 DUP2 MSTORE DUP13 DUP2 KECCAK256 DUP10 SWAP6 POP SWAP3 SWAP2 SWAP1 PUSH1 0x1F NOT DUP6 AND SWAP1 DUP15 JUMPDEST DUP3 DUP3 LT PUSH2 0x342 JUMPI POP POP DUP5 GT PUSH2 0x32B JUMPI JUMPDEST POP POP POP DUP2 SHL ADD DUP3 SSTORE PUSH2 0xDB JUMP JUMPDEST ADD MLOAD PUSH0 NOT DUP4 DUP8 SHL PUSH1 0xF8 AND SHR NOT AND SWAP1 SSTORE PUSH0 DUP1 DUP1 PUSH2 0x31E JUMP JUMPDEST DUP4 DUP6 ADD MLOAD DUP7 SSTORE DUP12 SWAP8 SWAP1 SWAP6 ADD SWAP5 SWAP4 DUP5 ADD SWAP4 ADD DUP15 PUSH2 0x30E JUMP JUMPDEST SWAP1 SWAP2 POP DUP5 PUSH0 MSTORE DUP11 PUSH0 KECCAK256 DUP5 DUP1 DUP6 ADD PUSH1 0x5 SHR DUP3 ADD SWAP3 DUP14 DUP7 LT PUSH2 0x39E JUMPI JUMPDEST SWAP2 DUP10 SWAP2 DUP7 SWAP6 SWAP5 SWAP4 ADD PUSH1 0x5 SHR ADD SWAP2 JUMPDEST DUP3 DUP2 LT PUSH2 0x390 JUMPI POP POP PUSH2 0xB6 JUMP JUMPDEST PUSH0 DUP2 SSTORE DUP6 SWAP5 POP DUP10 SWAP2 ADD PUSH2 0x382 JUMP JUMPDEST SWAP3 POP DUP2 SWAP3 PUSH2 0x374 JUMP JUMPDEST PUSH4 0x4E487B71 PUSH1 0xE0 SHL PUSH0 MSTORE PUSH1 0x22 PUSH1 0x4 MSTORE PUSH1 0x24 PUSH0 REVERT JUMPDEST SWAP3 PUSH1 0x7F AND SWAP3 PUSH2 0xA1 JUMP JUMPDEST PUSH0 DUP1 REVERT JUMPDEST PUSH1 0x40 MLOAD SWAP2 SWAP1 PUSH1 0x1F ADD PUSH1 0x1F NOT AND DUP3 ADD PUSH1 0x1 PUSH1 0x1 PUSH1 0x40 SHL SUB DUP2 GT DUP4 DUP3 LT OR PUSH2 0x2DA JUMPI PUSH1 0x40 MSTORE JUMP JUMPDEST DUP2 PUSH1 0x1F DUP3 ADD SLT ISZERO PUSH2 0x3C5 JUMPI DUP1 MLOAD SWAP1 PUSH1 0x1 PUSH1 0x1 PUSH1 0x40 SHL SUB DUP3 GT PUSH2 0x2DA JUMPI PUSH2 0x41D PUSH1 0x1F DUP4 ADD PUSH1 0x1F NOT AND PUSH1 0x20 ADD PUSH2 0x3C9 JUMP JUMPDEST SWAP3 DUP3 DUP5 MSTORE PUSH1 0x20 DUP4 DUP4 ADD ADD GT PUSH2 0x3C5 JUMPI DUP2 PUSH0 SWAP3 PUSH1 0x20 DUP1 SWAP4 ADD DUP4 DUP7 ADD MCOPY DUP4 ADD ADD MSTORE SWAP1 JUMP INVALID PUSH1 0x80 PUSH1 0x40 SWAP1 DUP1 DUP3 MSTORE PUSH1 0x4 SWAP1 DUP2 CALLDATASIZE LT ISZERO PUSH2 0x16 JUMPI PUSH0 DUP1 REVERT JUMPDEST PUSH0 CALLDATALOAD PUSH1 0xE0 SHR SWAP1 DUP2 PUSH4 0x6FDDE03 EQ PUSH2 0x8A8 JUMPI POP DUP1 PUSH4 0x95EA7B3 EQ PUSH2 0x7FF JUMPI DUP1 PUSH4 0xE48FB1C EQ PUSH2 0x7E1 JUMPI DUP1 PUSH4 0xFEAFB4E EQ PUSH2 0x7B4 JUMPI DUP1 PUSH4 0x1514617E EQ PUSH2 0x796 JUMPI DUP1 PUSH4 0x18160DDD EQ PUSH2 0x778 JUMPI DUP1 PUSH4 0x23B872DD EQ PUSH2 0x73C JUMPI DUP1 PUSH4 0x254800D4 EQ PUSH2 0x71E JUMPI DUP1 PUSH4 0x274C5F52 EQ PUSH2 0x6D2 JUMPI DUP1 PUSH4 0x313CE567 EQ PUSH2 0x6B7 JUMPI DUP1 PUSH4 0x3608FE0C EQ PUSH2 0x56C JUMPI DUP1 PUSH4 0x40C10F19 EQ PUSH2 0x4E7 JUMPI DUP1 PUSH4 0x42966C68 EQ PUSH2 0x4CA JUMPI DUP1 PUSH4 0x44B1231F EQ PUSH2 0x4AE JUMPI DUP1 PUSH4 0x4C20179E EQ PUSH2 0x490 JUMPI DUP1 PUSH4 0x6D515C9F EQ PUSH2 0x472 JUMPI DUP1 PUSH4 0x70A08231 EQ PUSH2 0x446 JUMPI DUP1 PUSH4 0x710820ED EQ PUSH2 0x424 JUMPI DUP1 PUSH4 0x715018A6 EQ PUSH2 0x3DC JUMPI DUP1 PUSH4 0x79CC6790 EQ PUSH2 0x3AB JUMPI DUP1 PUSH4 0x8DA5CB5B EQ PUSH2 0x383 JUMPI DUP1 PUSH4 0x91CCA3DB EQ PUSH2 0x35B JUMPI DUP1 PUSH4 0x95D89B41 EQ PUSH2 0x258 JUMPI DUP1 PUSH4 0xA9059CBB EQ PUSH2 0x228 JUMPI DUP1 PUSH4 0xB4A7A187 EQ PUSH2 0x20A JUMPI DUP1 PUSH4 0xDD62ED3E EQ PUSH2 0x1C1 JUMPI PUSH4 0xF2FDE38B EQ PUSH2 0x149 JUMPI PUSH0 DUP1 REVERT JUMPDEST CALLVALUE PUSH2 0x1BD JUMPI PUSH1 0x20 CALLDATASIZE PUSH1 0x3 NOT ADD SLT PUSH2 0x1BD JUMPI PUSH2 0x162 PUSH2 0x9AA JUMP JUMPDEST SWAP1 PUSH2 0x16B PUSH2 0x9F0 JUMP JUMPDEST PUSH1 0x1 PUSH1 0x1 PUSH1 0xA0 SHL SUB SWAP2 DUP3 AND SWAP3 DUP4 ISZERO PUSH2 0x1A7 JUMPI POP POP PUSH1 0x5 DUP1 SLOAD PUSH1 0x1 PUSH1 0x1 PUSH1 0xA0 SHL SUB NOT DUP2 AND DUP5 OR SWAP1 SWAP2 SSTORE AND PUSH0 DUP1 MLOAD PUSH1 0x20 PUSH2 0x10BF DUP4 CODECOPY DUP2 MLOAD SWAP2 MSTORE PUSH0 DUP1 LOG3 STOP JUMPDEST SWAP1 PUSH0 PUSH1 0x24 SWAP3 MLOAD SWAP2 PUSH4 0x1E4FBDF7 PUSH1 0xE0 SHL DUP4 MSTORE DUP3 ADD MSTORE REVERT JUMPDEST PUSH0 DUP1 REVERT JUMPDEST DUP3 CALLVALUE PUSH2 0x1BD JUMPI DUP1 PUSH1 0x3 NOT CALLDATASIZE ADD SLT PUSH2 0x1BD JUMPI PUSH1 0x20 SWAP1 PUSH2 0x1DD PUSH2 0x9AA JUMP JUMPDEST PUSH2 0x1E5 PUSH2 0x9C0 JUMP JUMPDEST SWAP1 PUSH1 0x1 DUP1 PUSH1 0xA0 SHL SUB DUP1 SWAP2 AND PUSH0 MSTORE PUSH1 0x1 DUP5 MSTORE DUP3 PUSH0 KECCAK256 SWAP2 AND PUSH0 MSTORE DUP3 MSTORE DUP1 PUSH0 KECCAK256 SLOAD SWAP1 MLOAD SWAP1 DUP2 MSTORE RETURN JUMPDEST DUP3 CALLVALUE PUSH2 0x1BD JUMPI PUSH0 CALLDATASIZE PUSH1 0x3 NOT ADD SLT PUSH2 0x1BD JUMPI PUSH1 0x20 SWAP1 PUSH1 0xD SLOAD SWAP1 MLOAD SWAP1 DUP2 MSTORE RETURN JUMPDEST DUP3 CALLVALUE PUSH2 0x1BD JUMPI DUP1 PUSH1 0x3 NOT CALLDATASIZE ADD SLT PUSH2 0x1BD JUMPI PUSH1 0x20 SWAP1 PUSH2 0x251 PUSH2 0x247 PUSH2 0x9AA JUMP JUMPDEST PUSH1 0x24 CALLDATALOAD SWAP1 CALLER PUSH2 0xA1C JUMP JUMPDEST MLOAD PUSH1 0x1 DUP2 MSTORE RETURN JUMPDEST POP SWAP1 CALLVALUE PUSH2 0x1BD JUMPI PUSH0 CALLDATASIZE PUSH1 0x3 NOT ADD SLT PUSH2 0x1BD JUMPI DUP1 MLOAD SWAP1 PUSH0 DUP4 SLOAD PUSH1 0x1 DUP2 PUSH1 0x1 SHR SWAP1 PUSH1 0x1 DUP4 AND SWAP3 DUP4 ISZERO PUSH2 0x351 JUMPI JUMPDEST PUSH1 0x20 SWAP4 DUP5 DUP5 LT DUP2 EQ PUSH2 0x33E JUMPI DUP4 DUP9 MSTORE SWAP1 DUP2 ISZERO PUSH2 0x322 JUMPI POP PUSH1 0x1 EQ PUSH2 0x2EA JUMPI JUMPDEST POP POP POP DUP3 SWAP1 SUB PUSH1 0x1F ADD PUSH1 0x1F NOT AND DUP3 ADD SWAP3 PUSH1 0x1 PUSH1 0x1 PUSH1 0x40 SHL SUB DUP5 GT DUP4 DUP6 LT OR PUSH2 0x2D7 JUMPI POP DUP3 SWAP2 DUP3 PUSH2 0x2D3 SWAP3 MSTORE DUP3 PUSH2 0x980 JUMP JUMPDEST SUB SWAP1 RETURN JUMPDEST PUSH1 0x41 SWAP1 PUSH4 0x4E487B71 PUSH1 0xE0 SHL PUSH0 MSTORE MSTORE PUSH1 0x24 PUSH0 REVERT JUMPDEST SWAP2 SWAP3 POP DUP6 PUSH0 MSTORE DUP3 PUSH0 KECCAK256 SWAP2 DUP4 PUSH0 SWAP4 JUMPDEST DUP4 DUP6 LT PUSH2 0x30E JUMPI POP POP POP POP DUP4 ADD ADD PUSH0 DUP1 DUP1 PUSH2 0x2A2 JUMP JUMPDEST DUP1 SLOAD DUP9 DUP7 ADD DUP4 ADD MSTORE SWAP4 ADD SWAP3 DUP5 SWAP1 DUP3 ADD PUSH2 0x2F8 JUMP JUMPDEST PUSH1 0xFF NOT AND DUP8 DUP6 ADD MSTORE POP POP ISZERO ISZERO PUSH1 0x5 SHL DUP5 ADD ADD SWAP1 POP PUSH0 DUP1 DUP1 PUSH2 0x2A2 JUMP JUMPDEST PUSH1 0x22 DUP10 PUSH4 0x4E487B71 PUSH1 0xE0 SHL PUSH0 MSTORE MSTORE PUSH1 0x24 PUSH0 REVERT JUMPDEST SWAP2 PUSH1 0x7F AND SWAP2 PUSH2 0x283 JUMP JUMPDEST DUP3 CALLVALUE PUSH2 0x1BD JUMPI PUSH0 CALLDATASIZE PUSH1 0x3 NOT ADD SLT PUSH2 0x1BD JUMPI PUSH1 0x6 SLOAD SWAP1 MLOAD PUSH1 0x1 PUSH1 0x1 PUSH1 0xA0 SHL SUB SWAP1 SWAP2 AND DUP2 MSTORE PUSH1 0x20 SWAP1 RETURN JUMPDEST DUP3 CALLVALUE PUSH2 0x1BD JUMPI PUSH0 CALLDATASIZE PUSH1 0x3 NOT ADD SLT PUSH2 0x1BD JUMPI PUSH1 0x5 SLOAD SWAP1 MLOAD PUSH1 0x1 PUSH1 0x1 PUSH1 0xA0 SHL SUB SWAP1 SWAP2 AND DUP2 MSTORE PUSH1 0x20 SWAP1 RETURN JUMPDEST DUP3 CALLVALUE PUSH2 0x1BD JUMPI CALLDATASIZE PUSH1 0x3 NOT ADD SLT PUSH2 0x1BD JUMPI PUSH2 0x3DA PUSH2 0x3C6 PUSH2 0x9AA JUMP JUMPDEST PUSH1 0x24 CALLDATALOAD SWAP1 PUSH2 0x3D5 DUP3 CALLER DUP4 PUSH2 0xA8E JUMP JUMPDEST PUSH2 0xB4D JUMP JUMPDEST STOP JUMPDEST CALLVALUE PUSH2 0x1BD JUMPI PUSH0 CALLDATASIZE PUSH1 0x3 NOT ADD SLT PUSH2 0x1BD JUMPI PUSH2 0x3F4 PUSH2 0x9F0 JUMP JUMPDEST PUSH1 0x5 DUP1 SLOAD PUSH1 0x1 PUSH1 0x1 PUSH1 0xA0 SHL SUB NOT DUP2 AND SWAP1 SWAP2 SSTORE PUSH0 SWAP1 PUSH1 0x1 PUSH1 0x1 PUSH1 0xA0 SHL SUB AND PUSH0 DUP1 MLOAD PUSH1 0x20 PUSH2 0x10BF DUP4 CODECOPY DUP2 MLOAD SWAP2 MSTORE DUP3 DUP1 LOG3 STOP JUMPDEST DUP3 CALLVALUE PUSH2 0x1BD JUMPI PUSH0 CALLDATASIZE PUSH1 0x3 NOT ADD SLT PUSH2 0x1BD JUMPI PUSH1 0x20 SWAP1 PUSH2 0xFFFF PUSH1 0xB SLOAD AND SWAP1 MLOAD SWAP1 DUP2 MSTORE RETURN JUMPDEST DUP3 CALLVALUE PUSH2 0x1BD JUMPI PUSH1 0x20 CALLDATASIZE PUSH1 0x3 NOT ADD SLT PUSH2 0x1BD JUMPI PUSH1 0x20 SWAP1 PUSH2 0x46B PUSH2 0x466 PUSH2 0x9AA JUMP JUMPDEST PUSH2 0x9D6 JUMP JUMPDEST SWAP1 MLOAD SWAP1 DUP2 MSTORE RETURN JUMPDEST DUP3 CALLVALUE PUSH2 0x1BD JUMPI PUSH0 CALLDATASIZE PUSH1 0x3 NOT ADD SLT PUSH2 0x1BD JUMPI PUSH1 0x20 SWAP1 PUSH1 0xC SLOAD SWAP1 MLOAD SWAP1 DUP2 MSTORE RETURN JUMPDEST DUP3 CALLVALUE PUSH2 0x1BD JUMPI PUSH0 CALLDATASIZE PUSH1 0x3 NOT ADD SLT PUSH2 0x1BD JUMPI PUSH1 0x20 SWAP1 PUSH1 0x8 SLOAD SWAP1 MLOAD SWAP1 DUP2 MSTORE RETURN JUMPDEST DUP3 CALLVALUE PUSH2 0x1BD JUMPI PUSH0 CALLDATASIZE PUSH1 0x3 NOT ADD SLT PUSH2 0x1BD JUMPI PUSH1 0x20 SWAP1 PUSH2 0x46B PUSH2 0xBA7 JUMP JUMPDEST POP CALLVALUE PUSH2 0x1BD JUMPI PUSH1 0x20 CALLDATASIZE PUSH1 0x3 NOT ADD SLT PUSH2 0x1BD JUMPI PUSH2 0x3DA SWAP1 CALLDATALOAD CALLER PUSH2 0xB4D JUMP JUMPDEST POP SWAP1 CALLVALUE PUSH2 0x1BD JUMPI DUP1 PUSH1 0x3 NOT CALLDATASIZE ADD SLT PUSH2 0x1BD JUMPI PUSH2 0x501 PUSH2 0x9AA JUMP JUMPDEST SWAP1 PUSH1 0x24 CALLDATALOAD SWAP2 PUSH2 0x50E PUSH2 0x9F0 JUMP JUMPDEST PUSH1 0x1 PUSH1 0x1 PUSH1 0xA0 SHL SUB AND SWAP3 DUP4 ISZERO PUSH2 0x557 JUMPI POP PUSH1 0x20 DUP3 PUSH0 DUP1 MLOAD PUSH1 0x20 PUSH2 0x10DF DUP4 CODECOPY DUP2 MLOAD SWAP2 MSTORE SWAP3 PUSH2 0x53E PUSH0 SWAP6 PUSH1 0x2 SLOAD PUSH2 0xB66 JUMP JUMPDEST PUSH1 0x2 SSTORE DUP6 DUP6 MSTORE DUP5 DUP4 MSTORE DUP1 DUP6 KECCAK256 DUP3 DUP2 SLOAD ADD SWAP1 SSTORE MLOAD SWAP1 DUP2 MSTORE LOG3 STOP JUMPDEST PUSH0 PUSH1 0x24 SWAP3 MLOAD SWAP2 PUSH4 0xEC442F05 PUSH1 0xE0 SHL DUP4 MSTORE DUP3 ADD MSTORE REVERT JUMPDEST POP CALLVALUE PUSH2 0x1BD JUMPI PUSH1 0xA0 CALLDATASIZE PUSH1 0x3 NOT ADD SLT PUSH2 0x1BD JUMPI PUSH2 0x586 PUSH2 0x9AA JUMP JUMPDEST PUSH1 0x24 CALLDATALOAD SWAP1 PUSH1 0x44 CALLDATALOAD PUSH1 0x64 CALLDATALOAD SWAP1 PUSH1 0x84 CALLDATALOAD SWAP3 PUSH2 0xFFFF DUP5 AND DUP1 SWAP5 SUB PUSH2 0x1BD JUMPI PUSH2 0x5A9 PUSH2 0x9F0 JUMP JUMPDEST PUSH1 0x6 SLOAD SWAP1 PUSH1 0x1 PUSH1 0x1 PUSH1 0xA0 SHL SUB SWAP1 DUP2 DUP4 AND PUSH2 0x674 JUMPI AND SWAP6 DUP7 ISZERO PUSH2 0x631 JUMPI POP PUSH1 0x1 PUSH1 0x1 PUSH1 0xA0 SHL SUB NOT AND DUP6 OR PUSH1 0x6 SSTORE PUSH1 0x8 DUP5 SWAP1 SSTORE PUSH1 0x9 DUP2 SWAP1 SSTORE PUSH1 0xA DUP3 SWAP1 SSTORE PUSH1 0xB DUP1 SLOAD PUSH2 0xFFFF NOT AND DUP5 OR SWAP1 SSTORE PUSH1 0xD DUP2 SWAP1 SSTORE DUP6 MLOAD SWAP4 DUP5 MSTORE PUSH1 0x20 DUP5 ADD MSTORE DUP3 DUP6 ADD MSTORE PUSH1 0x60 DUP3 ADD MSTORE PUSH32 0xA081934BDD1CE0C982F003F443899B864936FCB9D9DF105CA79A618FE3B03F2F SWAP1 PUSH1 0x80 SWAP1 LOG2 STOP JUMPDEST PUSH1 0x64 SWAP1 PUSH1 0x20 DUP10 MLOAD SWAP2 PUSH3 0x461BCD PUSH1 0xE5 SHL DUP4 MSTORE DUP3 ADD MSTORE PUSH1 0x1F PUSH1 0x24 DUP3 ADD MSTORE PUSH32 0x49726F6E4C6F636B546F6B656E3A205A65726F20646576206164647265737300 PUSH1 0x44 DUP3 ADD MSTORE REVERT JUMPDEST DUP9 MLOAD PUSH3 0x461BCD PUSH1 0xE5 SHL DUP2 MSTORE PUSH1 0x20 DUP2 DUP11 ADD MSTORE PUSH1 0x1E PUSH1 0x24 DUP3 ADD MSTORE PUSH32 0x49726F6E4C6F636B546F6B656E3A2044657620616C7265616479207365740000 PUSH1 0x44 DUP3 ADD MSTORE PUSH1 0x64 SWAP1 REVERT JUMPDEST DUP3 CALLVALUE PUSH2 0x1BD JUMPI PUSH0 CALLDATASIZE PUSH1 0x3 NOT ADD SLT PUSH2 0x1BD JUMPI PUSH1 0x20 SWAP1 MLOAD PUSH1 0x12 DUP2 MSTORE RETURN JUMPDEST POP CALLVALUE PUSH2 0x1BD JUMPI PUSH1 0x20 CALLDATASIZE PUSH1 0x3 NOT ADD SLT PUSH2 0x1BD JUMPI PUSH32 0xF8CC6C80B57C6ABE70B0FDADA2B8C21E6F11779D0EFBF266F0B87F38C149BC50 SWAP2 PUSH1 0x20 SWAP2 CALLDATALOAD SWAP1 PUSH2 0x713 PUSH2 0x9F0 JUMP JUMPDEST DUP2 PUSH1 0x7 SSTORE MLOAD SWAP1 DUP2 MSTORE LOG1 STOP JUMPDEST DUP3 CALLVALUE PUSH2 0x1BD JUMPI PUSH0 CALLDATASIZE PUSH1 0x3 NOT ADD SLT PUSH2 0x1BD JUMPI PUSH1 0x20 SWAP1 PUSH1 0x9 SLOAD SWAP1 MLOAD SWAP1 DUP2 MSTORE RETURN JUMPDEST DUP3 CALLVALUE PUSH2 0x1BD JUMPI PUSH1 0x60 CALLDATASIZE PUSH1 0x3 NOT ADD SLT PUSH2 0x1BD JUMPI PUSH1 0x20 SWAP1 PUSH2 0x251 PUSH2 0x75C PUSH2 0x9AA JUMP JUMPDEST PUSH2 0x764 PUSH2 0x9C0 JUMP JUMPDEST PUSH1 0x44 CALLDATALOAD SWAP2 PUSH2 0x773 DUP4 CALLER DUP4 PUSH2 0xA8E JUMP JUMPDEST PUSH2 0xA1C JUMP JUMPDEST DUP3 CALLVALUE PUSH2 0x1BD JUMPI PUSH0 CALLDATASIZE PUSH1 0x3 NOT ADD SLT PUSH2 0x1BD JUMPI PUSH1 0x20 SWAP1 PUSH1 0x2 SLOAD SWAP1 MLOAD SWAP1 DUP2 MSTORE RETURN JUMPDEST DUP3 CALLVALUE PUSH2 0x1BD JUMPI PUSH0 CALLDATASIZE PUSH1 0x3 NOT ADD SLT PUSH2 0x1BD JUMPI PUSH1 0x20 SWAP1 PUSH1 0xA SLOAD SWAP1 MLOAD SWAP1 DUP2 MSTORE RETURN JUMPDEST DUP3 CALLVALUE PUSH2 0x1BD JUMPI CALLDATASIZE PUSH1 0x3 NOT ADD SLT PUSH2 0x1BD JUMPI PUSH2 0x3DA PUSH2 0x7CF PUSH2 0x9AA JUMP JUMPDEST PUSH2 0x7D7 PUSH2 0x9F0 JUMP JUMPDEST PUSH1 0x24 CALLDATALOAD SWAP1 ADDRESS PUSH2 0xA1C JUMP JUMPDEST DUP3 CALLVALUE PUSH2 0x1BD JUMPI PUSH0 CALLDATASIZE PUSH1 0x3 NOT ADD SLT PUSH2 0x1BD JUMPI PUSH1 0x20 SWAP1 PUSH1 0x7 SLOAD SWAP1 MLOAD SWAP1 DUP2 MSTORE RETURN JUMPDEST POP SWAP1 CALLVALUE PUSH2 0x1BD JUMPI DUP1 PUSH1 0x3 NOT CALLDATASIZE ADD SLT PUSH2 0x1BD JUMPI PUSH2 0x819 PUSH2 0x9AA JUMP JUMPDEST PUSH1 0x24 CALLDATALOAD SWAP1 CALLER ISZERO PUSH2 0x892 JUMPI PUSH1 0x1 PUSH1 0x1 PUSH1 0xA0 SHL SUB AND SWAP1 DUP2 ISZERO PUSH2 0x87C JUMPI PUSH1 0x20 SWAP4 POP CALLER PUSH0 MSTORE PUSH1 0x1 DUP5 MSTORE DUP3 PUSH0 KECCAK256 DUP3 PUSH0 MSTORE DUP5 MSTORE DUP1 DUP4 PUSH0 KECCAK256 SSTORE DUP3 MLOAD SWAP1 DUP2 MSTORE PUSH32 0x8C5BE1E5EBEC7D5BD14F71427D1E84F3DD0314C0F7B2291E5B200AC8C7C3B925 DUP5 CALLER SWAP3 LOG3 MLOAD PUSH1 0x1 DUP2 MSTORE RETURN JUMPDEST DUP3 MLOAD PUSH4 0x4A1406B1 PUSH1 0xE1 SHL DUP2 MSTORE PUSH0 DUP2 DUP7 ADD MSTORE PUSH1 0x24 SWAP1 REVERT JUMPDEST DUP3 MLOAD PUSH4 0xE602DF05 PUSH1 0xE0 SHL DUP2 MSTORE PUSH0 DUP2 DUP7 ADD MSTORE PUSH1 0x24 SWAP1 REVERT JUMPDEST SWAP1 POP DUP3 CALLVALUE PUSH2 0x1BD JUMPI PUSH0 CALLDATASIZE PUSH1 0x3 NOT ADD SLT PUSH2 0x1BD JUMPI PUSH0 PUSH1 0x3 SLOAD PUSH1 0x1 DUP2 PUSH1 0x1 SHR SWAP1 PUSH1 0x1 DUP4 AND SWAP3 DUP4 ISZERO PUSH2 0x976 JUMPI JUMPDEST PUSH1 0x20 SWAP4 DUP5 DUP5 LT DUP2 EQ PUSH2 0x33E JUMPI DUP4 DUP9 MSTORE SWAP1 DUP2 ISZERO PUSH2 0x95A JUMPI POP PUSH1 0x1 EQ PUSH2 0x921 JUMPI POP POP POP DUP3 SWAP1 SUB PUSH1 0x1F ADD PUSH1 0x1F NOT AND DUP3 ADD SWAP3 PUSH1 0x1 PUSH1 0x1 PUSH1 0x40 SHL SUB DUP5 GT DUP4 DUP6 LT OR PUSH2 0x2D7 JUMPI POP DUP3 SWAP2 DUP3 PUSH2 0x2D3 SWAP3 MSTORE DUP3 PUSH2 0x980 JUMP JUMPDEST SWAP2 SWAP3 POP PUSH1 0x3 PUSH0 MSTORE DUP3 PUSH0 KECCAK256 SWAP2 DUP4 PUSH0 SWAP4 JUMPDEST DUP4 DUP6 LT PUSH2 0x946 JUMPI POP POP POP POP DUP4 ADD ADD DUP5 DUP1 DUP1 PUSH2 0x2A2 JUMP JUMPDEST DUP1 SLOAD DUP9 DUP7 ADD DUP4 ADD MSTORE SWAP4 ADD SWAP3 DUP5 SWAP1 DUP3 ADD PUSH2 0x930 JUMP JUMPDEST PUSH1 0xFF NOT AND DUP8 DUP6 ADD MSTORE POP POP ISZERO ISZERO PUSH1 0x5 SHL DUP5 ADD ADD SWAP1 POP DUP5 DUP1 DUP1 PUSH2 0x2A2 JUMP JUMPDEST SWAP2 PUSH1 0x7F AND SWAP2 PUSH2 0x8D2 JUMP JUMPDEST PUSH1 0x20 PUSH1 0x40 SWAP3 DUP2 DUP4 MSTORE DUP1 MLOAD SWAP2 DUP3 SWAP2 DUP3 DUP3 DUP7 ADD MSTORE ADD DUP5 DUP5 ADD MCOPY PUSH0 DUP3 DUP3 ADD DUP5 ADD MSTORE PUSH1 0x1F ADD PUSH1 0x1F NOT AND ADD ADD SWAP1 JUMP JUMPDEST PUSH1 0x4 CALLDATALOAD SWAP1 PUSH1 0x1 PUSH1 0x1 PUSH1 0xA0 SHL SUB DUP3 AND DUP3 SUB PUSH2 0x1BD JUMPI JUMP JUMPDEST PUSH1 0x24 CALLDATALOAD SWAP1 PUSH1 0x1 PUSH1 0x1 PUSH1 0xA0 SHL SUB DUP3 AND DUP3 SUB PUSH2 0x1BD JUMPI JUMP JUMPDEST PUSH1 0x1 PUSH1 0x1 PUSH1 0xA0 SHL SUB AND PUSH0 SWAP1 DUP2 MSTORE PUSH1 0x20 DUP2 SWAP1 MSTORE PUSH1 0x40 SWAP1 KECCAK256 SLOAD SWAP1 JUMP JUMPDEST PUSH1 0x5 SLOAD PUSH1 0x1 PUSH1 0x1 PUSH1 0xA0 SHL SUB AND CALLER SUB PUSH2 0xA04 JUMPI JUMP JUMPDEST PUSH1 0x40 MLOAD PUSH4 0x118CDAA7 PUSH1 0xE0 SHL DUP2 MSTORE CALLER PUSH1 0x4 DUP3 ADD MSTORE PUSH1 0x24 SWAP1 REVERT JUMPDEST SWAP2 SWAP1 PUSH1 0x1 PUSH1 0x1 PUSH1 0xA0 SHL SUB DUP1 DUP5 AND ISZERO PUSH2 0xA58 JUMPI DUP2 AND ISZERO PUSH2 0xA40 JUMPI PUSH2 0xA3E SWAP3 PUSH2 0xD9D JUMP JUMPDEST JUMP JUMPDEST PUSH1 0x40 MLOAD PUSH4 0xEC442F05 PUSH1 0xE0 SHL DUP2 MSTORE PUSH0 PUSH1 0x4 DUP3 ADD MSTORE PUSH1 0x24 SWAP1 REVERT JUMPDEST PUSH1 0x40 MLOAD PUSH4 0x4B637E8F PUSH1 0xE1 SHL DUP2 MSTORE PUSH0 PUSH1 0x4 DUP3 ADD MSTORE PUSH1 0x24 SWAP1 REVERT JUMPDEST PUSH1 0x40 SWAP2 SWAP5 SWAP4 SWAP3 PUSH1 0x60 DUP3 ADD SWAP6 PUSH1 0x1 DUP1 PUSH1 0xA0 SHL SUB AND DUP3 MSTORE PUSH1 0x20 DUP3 ADD MSTORE ADD MSTORE JUMP JUMPDEST SWAP2 SWAP1 PUSH1 0x1 DUP1 PUSH1 0xA0 SHL SUB DUP1 SWAP4 AND SWAP3 DUP4 PUSH0 MSTORE PUSH1 0x1 PUSH1 0x20 MSTORE PUSH1 0x40 SWAP4 DUP5 PUSH0 KECCAK256 SWAP2 DUP4 AND SWAP2 DUP3 PUSH0 MSTORE PUSH1 0x20 MSTORE DUP5 PUSH0 KECCAK256 SLOAD SWAP3 PUSH0 NOT DUP5 LT PUSH2 0xAC9 JUMPI JUMPDEST POP POP POP POP POP POP JUMP JUMPDEST DUP5 DUP5 LT PUSH2 0xB2B JUMPI POP DUP1 ISZERO PUSH2 0xB14 JUMPI DUP2 ISZERO PUSH2 0xAFD JUMPI PUSH0 MSTORE PUSH1 0x1 PUSH1 0x20 MSTORE DUP4 PUSH0 KECCAK256 SWAP1 PUSH0 MSTORE PUSH1 0x20 MSTORE SUB SWAP1 PUSH0 KECCAK256 SSTORE PUSH0 DUP1 DUP1 DUP1 DUP1 DUP1 PUSH2 0xAC1 JUMP JUMPDEST DUP5 MLOAD PUSH4 0x4A1406B1 PUSH1 0xE1 SHL DUP2 MSTORE PUSH0 PUSH1 0x4 DUP3 ADD MSTORE PUSH1 0x24 SWAP1 REVERT JUMPDEST DUP5 MLOAD PUSH4 0xE602DF05 PUSH1 0xE0 SHL DUP2 MSTORE PUSH0 PUSH1 0x4 DUP3 ADD MSTORE PUSH1 0x24 SWAP1 REVERT JUMPDEST DUP4 SWAP1 PUSH2 0xB49 DUP7 DUP9 MLOAD SWAP4 DUP5 SWAP4 PUSH4 0x7DC7A0D9 PUSH1 0xE1 SHL DUP6 MSTORE PUSH1 0x4 DUP6 ADD PUSH2 0xA70 JUMP JUMPDEST SUB SWAP1 REVERT JUMPDEST SWAP1 PUSH1 0x1 PUSH1 0x1 PUSH1 0xA0 SHL SUB DUP3 AND ISZERO PUSH2 0xA58 JUMPI PUSH2 0xA3E SWAP2 PUSH2 0xC08 JUMP JUMPDEST SWAP2 SWAP1 DUP3 ADD DUP1 SWAP3 GT PUSH2 0xB73 JUMPI JUMP JUMPDEST PUSH4 0x4E487B71 PUSH1 0xE0 SHL PUSH0 MSTORE PUSH1 0x11 PUSH1 0x4 MSTORE PUSH1 0x24 PUSH0 REVERT JUMPDEST SWAP2 SWAP1 DUP3 SUB SWAP2 DUP3 GT PUSH2 0xB73 JUMPI JUMP JUMPDEST DUP2 DUP2 MUL SWAP3 SWAP2 DUP2 ISZERO SWAP2 DUP5 DIV EQ OR ISZERO PUSH2 0xB73 JUMPI JUMP JUMPDEST PUSH1 0x9 SLOAD DUP1 TIMESTAMP LT PUSH2 0xC03 JUMPI PUSH1 0xA SLOAD SWAP1 PUSH2 0xBBF DUP3 DUP3 PUSH2 0xB66 JUMP JUMPDEST TIMESTAMP LT ISZERO PUSH2 0xBFB JUMPI PUSH2 0xBDD SWAP1 PUSH2 0xBD7 PUSH1 0x8 SLOAD SWAP2 TIMESTAMP PUSH2 0xB87 JUMP JUMPDEST SWAP1 PUSH2 0xB94 JUMP JUMPDEST DUP2 ISZERO PUSH2 0xBE7 JUMPI DIV SWAP1 JUMP JUMPDEST PUSH4 0x4E487B71 PUSH1 0xE0 SHL PUSH0 MSTORE PUSH1 0x12 PUSH1 0x4 MSTORE PUSH1 0x24 PUSH0 REVERT JUMPDEST POP POP PUSH1 0x8 SLOAD SWAP1 JUMP JUMPDEST POP PUSH0 SWAP1 JUMP JUMPDEST PUSH1 0x1 PUSH1 0x1 PUSH1 0xA0 SHL SUB DUP2 DUP2 AND SWAP1 DUP2 ISZERO DUP1 ISZERO PUSH2 0xD95 JUMPI JUMPDEST PUSH2 0xC33 JUMPI PUSH1 0x6 SLOAD AND DUP1 DUP3 EQ DUP1 PUSH2 0xD8A JUMPI JUMPDEST PUSH2 0xC3F JUMPI JUMPDEST POP POP SWAP1 PUSH2 0xA3E SWAP2 PUSH2 0xF41 JUMP JUMPDEST PUSH1 0xD SLOAD PUSH3 0x15180 DUP2 ADD DUP1 SWAP2 GT PUSH2 0xB73 JUMPI TIMESTAMP LT ISZERO PUSH2 0xD7D JUMPI JUMPDEST PUSH2 0xC68 PUSH2 0xC62 PUSH2 0xBA7 JUMP JUMPDEST SWAP2 PUSH2 0x9D6 JUMP JUMPDEST DUP1 DUP3 LT ISZERO PUSH2 0xD75 JUMPI POP SWAP1 JUMPDEST PUSH2 0x2710 PUSH2 0xC89 PUSH1 0x8 SLOAD PUSH2 0xFFFF PUSH1 0xB SLOAD AND SWAP1 PUSH2 0xB94 JUMP JUMPDEST DIV SWAP2 PUSH1 0xC SLOAD SWAP3 DUP4 DUP1 DUP3 GT PUSH0 EQ PUSH2 0xD6D JUMPI PUSH2 0xCA2 SWAP2 PUSH2 0xB87 JUMP JUMPDEST DUP1 DUP3 LT ISZERO PUSH2 0xD66 JUMPI POP JUMPDEST DUP5 GT PUSH2 0xCCD JUMPI POP SWAP1 PUSH2 0xCC2 DUP4 PUSH2 0xA3E SWAP5 SWAP4 PUSH2 0xB66 JUMP JUMPDEST PUSH1 0xC SSTORE SWAP1 SWAP2 PUSH0 PUSH2 0xC33 JUMP JUMPDEST PUSH1 0xC0 PUSH0 DUP1 MLOAD PUSH1 0x20 PUSH2 0x10FF DUP4 CODECOPY DUP2 MLOAD SWAP2 MSTORE SWAP2 DUP6 PUSH1 0x40 MLOAD SWAP2 DUP3 MSTORE PUSH0 PUSH1 0x20 DUP4 ADD MSTORE PUSH1 0x40 DUP3 ADD MSTORE PUSH1 0x80 PUSH1 0x60 DUP3 ADD MSTORE PUSH1 0x1A PUSH1 0x80 DUP3 ADD MSTORE PUSH26 0x115E18D959591CC819195D881D1C985B9CD9995C881B1A5B5A5D PUSH1 0x32 SHL PUSH1 0xA0 DUP3 ADD MSTORE LOG1 PUSH1 0x40 MLOAD PUSH3 0x461BCD PUSH1 0xE5 SHL DUP2 MSTORE PUSH1 0x20 PUSH1 0x4 DUP3 ADD MSTORE PUSH1 0x29 PUSH1 0x24 DUP3 ADD MSTORE PUSH0 DUP1 MLOAD PUSH1 0x20 PUSH2 0x109F DUP4 CODECOPY DUP2 MLOAD SWAP2 MSTORE PUSH1 0x44 DUP3 ADD MSTORE PUSH9 0x19995C881B1A5B5A5D PUSH1 0xBA SHL PUSH1 0x64 DUP3 ADD MSTORE PUSH1 0x84 SWAP1 REVERT JUMPDEST SWAP1 POP PUSH2 0xCAC JUMP JUMPDEST POP POP PUSH0 PUSH2 0xCA2 JUMP JUMPDEST SWAP1 POP SWAP1 PUSH2 0xC73 JUMP JUMPDEST PUSH0 PUSH1 0xC SSTORE TIMESTAMP PUSH1 0xD SSTORE PUSH2 0xC57 JUMP JUMPDEST POP PUSH1 0x8 SLOAD ISZERO ISZERO PUSH2 0xC2E JUMP JUMPDEST POP PUSH1 0x1 PUSH2 0xC1D JUMP JUMPDEST PUSH1 0x1 PUSH1 0x1 PUSH1 0xA0 SHL SUB SWAP4 SWAP3 SWAP2 SWAP1 DUP5 DUP2 AND DUP1 ISZERO DUP1 ISZERO PUSH2 0xF37 JUMPI JUMPDEST PUSH2 0xF2B JUMPI DUP6 PUSH1 0x6 SLOAD AND DUP1 DUP3 EQ DUP1 PUSH2 0xF20 JUMPI JUMPDEST PUSH2 0xDD9 JUMPI JUMPDEST POP POP PUSH2 0xA3E SWAP4 SWAP5 POP PUSH2 0xFE3 JUMP JUMPDEST PUSH1 0xD SLOAD PUSH3 0x15180 DUP2 ADD DUP1 SWAP2 GT PUSH2 0xB73 JUMPI TIMESTAMP LT ISZERO PUSH2 0xF13 JUMPI JUMPDEST PUSH2 0xDFC PUSH2 0xC62 PUSH2 0xBA7 JUMP JUMPDEST DUP1 DUP3 LT ISZERO PUSH2 0xF0B JUMPI POP SWAP6 JUMPDEST PUSH2 0x2710 PUSH2 0xE1D PUSH1 0x8 SLOAD PUSH2 0xFFFF PUSH1 0xB SLOAD AND SWAP1 PUSH2 0xB94 JUMP JUMPDEST DIV SWAP7 PUSH1 0xC SLOAD SWAP8 DUP9 DUP1 DUP3 GT PUSH0 EQ PUSH2 0xF03 JUMPI PUSH2 0xE36 SWAP2 PUSH2 0xB87 JUMP JUMPDEST DUP1 DUP3 LT ISZERO PUSH2 0xEFC JUMPI POP JUMPDEST DUP6 GT PUSH2 0xE61 JUMPI POP POP PUSH2 0xE56 DUP4 PUSH2 0xA3E SWAP6 SWAP7 PUSH2 0xB66 JUMP JUMPDEST PUSH1 0xC SSTORE DUP5 SWAP4 PUSH0 PUSH2 0xDCC JUMP JUMPDEST PUSH0 DUP1 MLOAD PUSH1 0x20 PUSH2 0x10FF DUP4 CODECOPY DUP2 MLOAD SWAP2 MSTORE SWAP2 DUP6 PUSH1 0xC0 SWAP3 DUP7 PUSH1 0x40 MLOAD SWAP4 DUP5 MSTORE AND PUSH1 0x20 DUP4 ADD MSTORE PUSH1 0x40 DUP3 ADD MSTORE PUSH1 0x80 PUSH1 0x60 DUP3 ADD MSTORE PUSH1 0x1A PUSH1 0x80 DUP3 ADD MSTORE PUSH26 0x115E18D959591CC819195D881D1C985B9CD9995C881B1A5B5A5D PUSH1 0x32 SHL PUSH1 0xA0 DUP3 ADD MSTORE LOG1 PUSH1 0x40 MLOAD PUSH3 0x461BCD PUSH1 0xE5 SHL DUP2 MSTORE PUSH1 0x20 PUSH1 0x4 DUP3 ADD MSTORE PUSH1 0x29 PUSH1 0x24 DUP3 ADD MSTORE PUSH0 DUP1 MLOAD PUSH1 0x20 PUSH2 0x109F DUP4 CODECOPY DUP2 MLOAD SWAP2 MSTORE PUSH1 0x44 DUP3 ADD MSTORE PUSH9 0x19995C881B1A5B5A5D PUSH1 0xBA SHL PUSH1 0x64 DUP3 ADD MSTORE PUSH1 0x84 SWAP1 REVERT JUMPDEST SWAP1 POP PUSH2 0xE40 JUMP JUMPDEST POP POP PUSH0 PUSH2 0xE36 JUMP JUMPDEST SWAP1 POP SWAP6 PUSH2 0xE07 JUMP JUMPDEST PUSH0 PUSH1 0xC SSTORE TIMESTAMP PUSH1 0xD SSTORE PUSH2 0xDF1 JUMP JUMPDEST POP PUSH1 0x8 SLOAD ISZERO ISZERO PUSH2 0xDC7 JUMP JUMPDEST POP PUSH2 0xA3E SWAP4 SWAP5 POP PUSH2 0xFE3 JUMP JUMPDEST POP DUP6 DUP4 AND ISZERO PUSH2 0xDB5 JUMP JUMPDEST SWAP1 SWAP2 SWAP1 PUSH1 0x1 PUSH1 0x1 PUSH1 0xA0 SHL SUB DUP2 AND SWAP1 DUP2 PUSH2 0xF89 JUMPI POP PUSH0 DUP1 MLOAD PUSH1 0x20 PUSH2 0x10DF DUP4 CODECOPY DUP2 MLOAD SWAP2 MSTORE PUSH1 0x20 DUP5 PUSH2 0xF74 PUSH0 SWAP6 SWAP7 PUSH1 0x2 SLOAD PUSH2 0xB66 JUMP JUMPDEST PUSH1 0x2 SSTORE JUMPDEST DUP1 PUSH1 0x2 SLOAD SUB PUSH1 0x2 SSTORE PUSH1 0x40 MLOAD SWAP1 DUP2 MSTORE LOG3 JUMP JUMPDEST SWAP3 DUP2 PUSH0 MSTORE PUSH0 PUSH1 0x20 MSTORE PUSH1 0x40 PUSH0 KECCAK256 SLOAD SWAP4 DUP2 DUP6 LT PUSH2 0xFC5 JUMPI POP PUSH1 0x20 DUP2 PUSH0 DUP1 MLOAD PUSH1 0x20 PUSH2 0x10DF DUP4 CODECOPY DUP2 MLOAD SWAP2 MSTORE SWAP3 PUSH0 SWAP6 SWAP7 DUP6 DUP8 MSTORE DUP7 DUP5 MSTORE SUB PUSH1 0x40 DUP7 KECCAK256 SSTORE PUSH2 0xF78 JUMP JUMPDEST PUSH2 0xB49 DUP6 SWAP3 PUSH1 0x40 MLOAD SWAP4 DUP5 SWAP4 PUSH4 0x391434E3 PUSH1 0xE2 SHL DUP6 MSTORE PUSH1 0x4 DUP6 ADD PUSH2 0xA70 JUMP JUMPDEST PUSH1 0x1 PUSH1 0x1 PUSH1 0xA0 SHL SUB DUP1 DUP3 AND SWAP3 SWAP1 SWAP2 DUP4 PUSH2 0x1047 JUMPI POP PUSH0 DUP1 MLOAD PUSH1 0x20 PUSH2 0x10DF DUP4 CODECOPY DUP2 MLOAD SWAP2 MSTORE SWAP2 PUSH1 0x20 SWAP2 PUSH2 0x1015 DUP7 PUSH1 0x2 SLOAD PUSH2 0xB66 JUMP JUMPDEST PUSH1 0x2 SSTORE JUMPDEST AND SWAP4 DUP5 PUSH2 0x1032 JUMPI DUP1 PUSH1 0x2 SLOAD SUB PUSH1 0x2 SSTORE JUMPDEST PUSH1 0x40 MLOAD SWAP1 DUP2 MSTORE LOG3 JUMP JUMPDEST DUP5 PUSH0 MSTORE PUSH0 DUP3 MSTORE PUSH1 0x40 PUSH0 KECCAK256 DUP2 DUP2 SLOAD ADD SWAP1 SSTORE PUSH2 0x1029 JUMP JUMPDEST DUP4 PUSH0 MSTORE PUSH0 PUSH1 0x20 MSTORE PUSH1 0x40 PUSH0 KECCAK256 SLOAD SWAP1 DUP6 DUP3 LT PUSH2 0x1081 JUMPI POP SWAP2 PUSH1 0x20 SWAP2 DUP6 PUSH0 DUP1 MLOAD PUSH1 0x20 PUSH2 0x10DF DUP4 CODECOPY DUP2 MLOAD SWAP2 MSTORE SWAP5 DUP7 PUSH0 MSTORE PUSH0 DUP6 MSTORE SUB PUSH1 0x40 PUSH0 KECCAK256 SSTORE PUSH2 0x1019 JUMP JUMPDEST PUSH2 0xB49 DUP7 PUSH1 0x40 MLOAD SWAP4 DUP5 SWAP4 PUSH4 0x391434E3 PUSH1 0xE2 SHL DUP6 MSTORE PUSH1 0x4 DUP6 ADD PUSH2 0xA70 JUMP INVALID BLOBHASH PUSH19 0x6F6E4C6F636B546F6B656E3A20457863656564 PUSH20 0x20646576207472616E738BE0079C531659141344 0xCD 0x1F 0xD0 LOG4 CALLCODE DUP5 NOT BLOBHASH PUSH32 0x9722A3DAAFE3B4186F6B6457E0DDF252AD1BE2C89B69C2B068FC378DAA952BA7 CALL PUSH4 0xC4A11628 CREATE2 GAS 0x4D CREATE2 0x23 0xB3 0xEF 0x2B ADDMOD 0xC6 0xF8 PUSH12 0x1A55F24E77E45BC6C9C3D6AA 0xC5 0xD1 PUSH32 0xC6E7FB5A954BC01345D0B1DEA2646970667358221220164985AA5F9AF694D12B 0x1E 0xC0 0xC3 CALLCODE CODESIZE PUSH14 0xC14EA6F5C6F64AB50383BF531638 0x29 0xE3 PUSH5 0x736F6C6343 STOP ADDMOD NOT STOP CALLER 0x2A CREATE BASEFEE 0xE6 0x24 MSTORE8 0xEF SELFDESTRUCT 0xC1 0xF 0xAB SGT BLOCKHASH 0xDA 0xB5 PUSH32 0xA5C7C2E72DC30DF457608651277D1EA58BE0079C531659141344CD1FD0A4F284 NOT BLOBHASH PUSH32 0x9722A3DAAFE3B4186F6B6457E0C9F6D06BCAE55CF8956320BE2EF6F7D1C0191F SWAP7 REVERT DUP16 SLT KECCAK256 0xDA 0xCE 0x4E 0xAD DUP13 MLOAD 0xC6 SDIV PUSH7 0xD6EF777E81DA2D 0xC5 JUMP 0xEC 0xF CHAINID 0xD7 GASPRICE 0xB6 PUSH22 0xE34930A794564F805E09CE6065E1889B779B17422D0D 0xF9 0x22 0x23 ADD DUP12 ORIGIN 0xB4 0xD1 STATICCALL CHAINID 0xE0 PUSH18 0x723D6817E2486D003BECC55F00A264697066 PUSH20 0x5822122043111CAE28203393F7E8218D18A80553 PUSH9 0x375BA5BFA65A601CEF 0xDA PUSH28 0xEC009A8D64736F6C6343000819003300000000000000000000000000 "},"methodIdentifiers":{"ANTI_SNIPE_MAX_BNB()":"b9148eee","ANTI_SNIPE_SECONDS()":"242fefd7","DAILY_SELL_CAP_BPS()":"5d35e54f","DEFAULT_LIQUIDITY_BPS()":"5b9605ea","DEV_STAKE_AMOUNT()":"e6cf8134","ELIGIBILITY_PROOF_TTL()":"96c6ce0e","MAX_DEV_BPS()":"f25ea8b5","MAX_LIQUIDITY_BPS()":"4e576dea","MAX_PRESALE_DAYS()":"a4883286","MIN_LIQUIDITY_BPS()":"75f0c2f0","MIN_LP_LOCK_DAYS()":"5712455f","MIN_PRESALE_DAYS()":"057e729e","MIN_SOFTCAP_BPS()":"212d25a6","MIN_UNIQUE_CONTRIBUTORS()":"63b8ce5f","MIN_VESTING_DAYS()":"685e4236","REPORT_THRESHOLD()":"4aa06447","addLiquidityToPancakeSwap(address)":"58a4cbd7","allTokens(uint256)":"634282af","antiSnipeContribs(address,address)":"91cb32a7","blacklistWallet(address,string)":"73458d10","castRefundVote(address,bool)":"0788a8a7","checkLaunchSuccess(address)":"b9af648c","claimDevStake(address)":"8afb309c","claimLPTokens(address)":"3f58cf1f","claimRefund(address)":"bffa55d5","contribute(address)":"73e888fd","contributions(address,address)":"29369ccf","devLastActivity(address)":"c1f7f9ac","devLaunchHistory(address,uint256)":"bee884d2","devRefundedLaunches(address)":"5ff51a9f","devStakes(address)":"e1a6ae38","devSuccessfulLaunches(address)":"0c91d19c","executeRefund(address)":"037c4886","getAllTokens()":"2a5c792a","getDevLaunchHistory(address)":"5578732b","getDevStats(address)":"aa180cd6","getLPStatus(address)":"84f047d5","getSafetyScore(address)":"60bb3979","getTokenAccountingStatus(address)":"9c271174","getTokensPaginated(uint256,uint256)":"4238b692","hasContributed(address,address)":"bb2061b2","hasReported(address,address,address)":"9b0b26a2","insurancePool()":"ab2adc00","isBlacklisted(address)":"fe575a87","isBlockedContributor(address,address)":"dc67195f","isIronLockToken(address)":"887813b2","isRefundVotePassed(address)":"222e0cf1","launchFee()":"cf3cf573","launchToken(string,string,uint256,uint256,uint256,uint256,uint16,uint256,bytes,uint256,uint256)":"84d232b5","liquidityAdded(address)":"5dd8ba88","lpLockedAmount(address)":"391df7c9","lpUnlockTime(address)":"f67cd9cd","owner()":"8da5cb5b","pancakeRouter()":"c21ebd07","refundVotes(address)":"1b8028fb","releaseMilestone(address)":"4adabe09","renounceOwnership()":"715018a6","reportSuspiciousWallet(address,address,string)":"b65f1927","setLaunchFee(uint256)":"5313be2c","setPancakeRouter(address)":"f8316c90","setTreasury(address)":"f0f44260","setVerifier(address)":"5437988d","startRefundVote(address)":"b31e6087","suspiciousReportCount(address,address)":"4871b64a","tokenBnbBalance(address)":"43237d4a","tokenCount()":"9f181b5e","tokenLPPair(address)":"74e47336","tokens(address)":"e4860339","transferOwnership(address)":"f2fde38b","treasury()":"61d027b3","unblacklistWallet(address)":"5b34bc41","updateDevActivity()":"907ba72e","usedEligibilityProofs(uint256,address)":"d79ecf90","verifier()":"2b7ac3f3","withdrawStuckBNB(uint256)":"71afe1b6"}},"storageLayout":{"storage":[{"astId":8,"contract":"contracts/IronLockFactory.sol:IronLockFactory","label":"_owner","offset":0,"slot":"0","type":"t_address"},{"astId":7996,"contract":"contracts/IronLockFactory.sol:IronLockFactory","label":"tokens","offset":0,"slot":"1","type":"t_mapping(t_address,t_struct(TokenInfo)7978_storage)"},{"astId":7999,"contract":"contracts/IronLockFactory.sol:IronLockFactory","label":"allTokens","offset":0,"slot":"2","type":"t_array(t_address)dyn_storage"},{"astId":8004,"contract":"contracts/IronLockFactory.sol:IronLockFactory","label":"refundVotes","offset":0,"slot":"3","type":"t_mapping(t_address,t_struct(RefundVote)7991_storage)"},{"astId":8010,"contract":"contracts/IronLockFactory.sol:IronLockFactory","label":"contributions","offset":0,"slot":"4","type":"t_mapping(t_address,t_mapping(t_address,t_uint256))"},{"astId":8016,"contract":"contracts/IronLockFactory.sol:IronLockFactory","label":"antiSnipeContribs","offset":0,"slot":"5","type":"t_mapping(t_address,t_mapping(t_address,t_uint256))"},{"astId":8020,"contract":"contracts/IronLockFactory.sol:IronLockFactory","label":"isIronLockToken","offset":0,"slot":"6","type":"t_mapping(t_address,t_bool)"},{"astId":8024,"contract":"contracts/IronLockFactory.sol:IronLockFactory","label":"devLastActivity","offset":0,"slot":"7","type":"t_mapping(t_address,t_uint256)"},{"astId":8026,"contract":"contracts/IronLockFactory.sol:IronLockFactory","label":"verifier","offset":0,"slot":"8","type":"t_address"},{"astId":8032,"contract":"contracts/IronLockFactory.sol:IronLockFactory","label":"usedEligibilityProofs","offset":0,"slot":"9","type":"t_mapping(t_uint256,t_mapping(t_address,t_bool))"},{"astId":8036,"contract":"contracts/IronLockFactory.sol:IronLockFactory","label":"isBlacklisted","offset":0,"slot":"10","type":"t_mapping(t_address,t_bool)"},{"astId":8039,"contract":"contracts/IronLockFactory.sol:IronLockFactory","label":"launchFee","offset":0,"slot":"11","type":"t_uint256"},{"astId":8046,"contract":"contracts/IronLockFactory.sol:IronLockFactory","label":"devStakes","offset":0,"slot":"12","type":"t_mapping(t_address,t_uint256)"},{"astId":8048,"contract":"contracts/IronLockFactory.sol:IronLockFactory","label":"insurancePool","offset":0,"slot":"13","type":"t_uint256"},{"astId":8050,"contract":"contracts/IronLockFactory.sol:IronLockFactory","label":"treasury","offset":0,"slot":"14","type":"t_address"},{"astId":8052,"contract":"contracts/IronLockFactory.sol:IronLockFactory","label":"pancakeRouter","offset":0,"slot":"15","type":"t_address"},{"astId":8056,"contract":"contracts/IronLockFactory.sol:IronLockFactory","label":"tokenLPPair","offset":0,"slot":"16","type":"t_mapping(t_address,t_address)"},{"astId":8060,"contract":"contracts/IronLockFactory.sol:IronLockFactory","label":"lpLockedAmount","offset":0,"slot":"17","type":"t_mapping(t_address,t_uint256)"},{"astId":8064,"contract":"contracts/IronLockFactory.sol:IronLockFactory","label":"lpUnlockTime","offset":0,"slot":"18","type":"t_mapping(t_address,t_uint256)"},{"astId":8068,"contract":"contracts/IronLockFactory.sol:IronLockFactory","label":"liquidityAdded","offset":0,"slot":"19","type":"t_mapping(t_address,t_bool)"},{"astId":8072,"contract":"contracts/IronLockFactory.sol:IronLockFactory","label":"tokenBnbBalance","offset":0,"slot":"20","type":"t_mapping(t_address,t_uint256)"},{"astId":8077,"contract":"contracts/IronLockFactory.sol:IronLockFactory","label":"devLaunchHistory","offset":0,"slot":"21","type":"t_mapping(t_address,t_array(t_address)dyn_storage)"},{"astId":8081,"contract":"contracts/IronLockFactory.sol:IronLockFactory","label":"devSuccessfulLaunches","offset":0,"slot":"22","type":"t_mapping(t_address,t_uint256)"},{"astId":8085,"contract":"contracts/IronLockFactory.sol:IronLockFactory","label":"devRefundedLaunches","offset":0,"slot":"23","type":"t_mapping(t_address,t_uint256)"},{"astId":8091,"contract":"contracts/IronLockFactory.sol:IronLockFactory","label":"hasContributed","offset":0,"slot":"24","type":"t_mapping(t_address,t_mapping(t_address,t_bool))"},{"astId":8097,"contract":"contracts/IronLockFactory.sol:IronLockFactory","label":"isBlockedContributor","offset":0,"slot":"25","type":"t_mapping(t_address,t_mapping(t_address,t_bool))"},{"astId":8103,"contract":"contracts/IronLockFactory.sol:IronLockFactory","label":"suspiciousReportCount","offset":0,"slot":"26","type":"t_mapping(t_address,t_mapping(t_address,t_uint256))"},{"astId":8111,"contract":"contracts/IronLockFactory.sol:IronLockFactory","label":"hasReported","offset":0,"slot":"27","type":"t_mapping(t_address,t_mapping(t_address,t_mapping(t_address,t_bool)))"}],"types":{"t_address":{"encoding":"inplace","label":"address","numberOfBytes":"20"},"t_array(t_address)dyn_storage":{"base":"t_address","encoding":"dynamic_array","label":"address[]","numberOfBytes":"32"},"t_bool":{"encoding":"inplace","label":"bool","numberOfBytes":"1"},"t_mapping(t_address,t_address)":{"encoding":"mapping","key":"t_address","label":"mapping(address => address)","numberOfBytes":"32","value":"t_address"},"t_mapping(t_address,t_array(t_address)dyn_storage)":{"encoding":"mapping","key":"t_address","label":"mapping(address => address[])","numberOfBytes":"32","value":"t_array(t_address)dyn_storage"},"t_mapping(t_address,t_bool)":{"encoding":"mapping","key":"t_address","label":"mapping(address => bool)","numberOfBytes":"32","value":"t_bool"},"t_mapping(t_address,t_mapping(t_address,t_bool))":{"encoding":"mapping","key":"t_address","label":"mapping(address => mapping(address => bool))","numberOfBytes":"32","value":"t_mapping(t_address,t_bool)"},"t_mapping(t_address,t_mapping(t_address,t_mapping(t_address,t_bool)))":{"encoding":"mapping","key":"t_address","label":"mapping(address => mapping(address => mapping(address => bool)))","numberOfBytes":"32","value":"t_mapping(t_address,t_mapping(t_address,t_bool))"},"t_mapping(t_address,t_mapping(t_address,t_uint256))":{"encoding":"mapping","key":"t_address","label":"mapping(address => mapping(address => uint256))","numberOfBytes":"32","value":"t_mapping(t_address,t_uint256)"},"t_mapping(t_address,t_struct(RefundVote)7991_storage)":{"encoding":"mapping","key":"t_address","label":"mapping(address => struct IronLockFactory.RefundVote)","numberOfBytes":"32","value":"t_struct(RefundVote)7991_storage"},"t_mapping(t_address,t_struct(TokenInfo)7978_storage)":{"encoding":"mapping","key":"t_address","label":"mapping(address => struct IronLockFactory.TokenInfo)","numberOfBytes":"32","value":"t_struct(TokenInfo)7978_storage"},"t_mapping(t_address,t_uint256)":{"encoding":"mapping","key":"t_address","label":"mapping(address => uint256)","numberOfBytes":"32","value":"t_uint256"},"t_mapping(t_uint256,t_mapping(t_address,t_bool))":{"encoding":"mapping","key":"t_uint256","label":"mapping(uint256 => mapping(address => bool))","numberOfBytes":"32","value":"t_mapping(t_address,t_bool)"},"t_string_storage":{"encoding":"bytes","label":"string","numberOfBytes":"32"},"t_struct(RefundVote)7991_storage":{"encoding":"inplace","label":"struct IronLockFactory.RefundVote","members":[{"astId":7980,"contract":"contracts/IronLockFactory.sol:IronLockFactory","label":"startTime","offset":0,"slot":"0","type":"t_uint256"},{"astId":7982,"contract":"contracts/IronLockFactory.sol:IronLockFactory","label":"yesVotes","offset":0,"slot":"1","type":"t_uint256"},{"astId":7984,"contract":"contracts/IronLockFactory.sol:IronLockFactory","label":"totalVotes","offset":0,"slot":"2","type":"t_uint256"},{"astId":7986,"contract":"contracts/IronLockFactory.sol:IronLockFactory","label":"executed","offset":0,"slot":"3","type":"t_bool"},{"astId":7990,"contract":"contracts/IronLockFactory.sol:IronLockFactory","label":"hasVoted","offset":0,"slot":"4","type":"t_mapping(t_address,t_bool)"}],"numberOfBytes":"160"},"t_struct(TokenInfo)7978_storage":{"encoding":"inplace","label":"struct IronLockFactory.TokenInfo","members":[{"astId":7923,"contract":"contracts/IronLockFactory.sol:IronLockFactory","label":"tokenAddress","offset":0,"slot":"0","type":"t_address"},{"astId":7925,"contract":"contracts/IronLockFactory.sol:IronLockFactory","label":"dev","offset":0,"slot":"1","type":"t_address"},{"astId":7927,"contract":"contracts/IronLockFactory.sol:IronLockFactory","label":"name","offset":0,"slot":"2","type":"t_string_storage"},{"astId":7929,"contract":"contracts/IronLockFactory.sol:IronLockFactory","label":"symbol","offset":0,"slot":"3","type":"t_string_storage"},{"astId":7931,"contract":"contracts/IronLockFactory.sol:IronLockFactory","label":"totalSupply","offset":0,"slot":"4","type":"t_uint256"},{"astId":7933,"contract":"contracts/IronLockFactory.sol:IronLockFactory","label":"raiseCap","offset":0,"slot":"5","type":"t_uint256"},{"astId":7935,"contract":"contracts/IronLockFactory.sol:IronLockFactory","label":"totalRaised","offset":0,"slot":"6","type":"t_uint256"},{"astId":7937,"contract":"contracts/IronLockFactory.sol:IronLockFactory","label":"lpLockDays","offset":0,"slot":"7","type":"t_uint256"},{"astId":7939,"contract":"contracts/IronLockFactory.sol:IronLockFactory","label":"vestingDays","offset":0,"slot":"8","type":"t_uint256"},{"astId":7941,"contract":"contracts/IronLockFactory.sol:IronLockFactory","label":"devAllocationBps","offset":0,"slot":"9","type":"t_uint16"},{"astId":7943,"contract":"contracts/IronLockFactory.sol:IronLockFactory","label":"launchTime","offset":0,"slot":"10","type":"t_uint256"},{"astId":7945,"contract":"contracts/IronLockFactory.sol:IronLockFactory","label":"antiSnipeEnd","offset":0,"slot":"11","type":"t_uint256"},{"astId":7947,"contract":"contracts/IronLockFactory.sol:IronLockFactory","label":"milestoneReleased","offset":0,"slot":"12","type":"t_uint8"},{"astId":7949,"contract":"contracts/IronLockFactory.sol:IronLockFactory","label":"milestone1Time","offset":0,"slot":"13","type":"t_uint256"},{"astId":7951,"contract":"contracts/IronLockFactory.sol:IronLockFactory","label":"milestone2Time","offset":0,"slot":"14","type":"t_uint256"},{"astId":7953,"contract":"contracts/IronLockFactory.sol:IronLockFactory","label":"milestone3Time","offset":0,"slot":"15","type":"t_uint256"},{"astId":7955,"contract":"contracts/IronLockFactory.sol:IronLockFactory","label":"safetyScore","offset":0,"slot":"16","type":"t_uint8"},{"astId":7957,"contract":"contracts/IronLockFactory.sol:IronLockFactory","label":"active","offset":1,"slot":"16","type":"t_bool"},{"astId":7959,"contract":"contracts/IronLockFactory.sol:IronLockFactory","label":"refundVoteActive","offset":2,"slot":"16","type":"t_bool"},{"astId":7961,"contract":"contracts/IronLockFactory.sol:IronLockFactory","label":"maxContributionPerWallet","offset":0,"slot":"17","type":"t_uint256"},{"astId":7963,"contract":"contracts/IronLockFactory.sol:IronLockFactory","label":"uniqueContributorCount","offset":0,"slot":"18","type":"t_uint256"},{"astId":7965,"contract":"contracts/IronLockFactory.sol:IronLockFactory","label":"liquidityBps","offset":0,"slot":"19","type":"t_uint16"},{"astId":7967,"contract":"contracts/IronLockFactory.sol:IronLockFactory","label":"liquidityBNB","offset":0,"slot":"20","type":"t_uint256"},{"astId":7969,"contract":"contracts/IronLockFactory.sol:IronLockFactory","label":"devBNB","offset":0,"slot":"21","type":"t_uint256"},{"astId":7971,"contract":"contracts/IronLockFactory.sol:IronLockFactory","label":"softCap","offset":0,"slot":"22","type":"t_uint256"},{"astId":7973,"contract":"contracts/IronLockFactory.sol:IronLockFactory","label":"presaleEnd","offset":0,"slot":"23","type":"t_uint256"},{"astId":7975,"contract":"contracts/IronLockFactory.sol:IronLockFactory","label":"softCapHit","offset":0,"slot":"24","type":"t_bool"},{"astId":7977,"contract":"contracts/IronLockFactory.sol:IronLockFactory","label":"autoRefunded","offset":1,"slot":"24","type":"t_bool"}],"numberOfBytes":"800"},"t_uint16":{"encoding":"inplace","label":"uint16","numberOfBytes":"2"},"t_uint256":{"encoding":"inplace","label":"uint256","numberOfBytes":"32"},"t_uint8":{"encoding":"inplace","label":"uint8","numberOfBytes":"1"}}}}}}