{"contracts/mocks/MockPancakeRouter.sol":{"MockPancakeFactory":{"abi":[{"inputs":[{"internalType":"address","name":"_lp","type":"address"}],"stateMutability":"nonpayable","type":"constructor"},{"inputs":[{"internalType":"address","name":"","type":"address"},{"internalType":"address","name":"","type":"address"}],"name":"getPair","outputs":[{"internalType":"address","name":"","type":"address"}],"stateMutability":"view","type":"function"},{"inputs":[],"name":"lpAddress","outputs":[{"internalType":"address","name":"","type":"address"}],"stateMutability":"view","type":"function"}],"evm":{"bytecode":{"linkReferences":{},"object":"60a034606b57601f61018438819003918201601f19168301916001600160401b03831184841017606f57808492602094604052833981010312606b57516001600160a01b0381168103606b576080526040516101009081610084823960805181818160630152609b0152f35b5f80fd5b634e487b7160e01b5f52604160045260245ffdfe60808060405260043610156011575f80fd5b5f3560e01c9081639b4dc8cc14608b575063e6a4390514602f575f80fd5b3460875760403660031901126087576001600160a01b036004358181160360875760243581811603608757602090604051907f0000000000000000000000000000000000000000000000000000000000000000168152f35b5f80fd5b346087575f3660031901126087577f00000000000000000000000000000000000000000000000000000000000000006001600160a01b03168152602090f3fea26469706673582212202026fe1e85f5be8ad153419e551d7978b070c4d6a64f21ebc36d5eeacfaecbb464736f6c63430008190033","opcodes":"PUSH1 0xA0 CALLVALUE PUSH1 0x6B JUMPI PUSH1 0x1F PUSH2 0x184 CODESIZE DUP2 SWAP1 SUB SWAP2 DUP3 ADD PUSH1 0x1F NOT AND DUP4 ADD SWAP2 PUSH1 0x1 PUSH1 0x1 PUSH1 0x40 SHL SUB DUP4 GT DUP5 DUP5 LT OR PUSH1 0x6F JUMPI DUP1 DUP5 SWAP3 PUSH1 0x20 SWAP5 PUSH1 0x40 MSTORE DUP4 CODECOPY DUP2 ADD SUB SLT PUSH1 0x6B JUMPI MLOAD PUSH1 0x1 PUSH1 0x1 PUSH1 0xA0 SHL SUB DUP2 AND DUP2 SUB PUSH1 0x6B JUMPI PUSH1 0x80 MSTORE PUSH1 0x40 MLOAD PUSH2 0x100 SWAP1 DUP2 PUSH2 0x84 DUP3 CODECOPY PUSH1 0x80 MLOAD DUP2 DUP2 DUP2 PUSH1 0x63 ADD MSTORE PUSH1 0x9B ADD MSTORE RETURN JUMPDEST PUSH0 DUP1 REVERT JUMPDEST PUSH4 0x4E487B71 PUSH1 0xE0 SHL PUSH0 MSTORE PUSH1 0x41 PUSH1 0x4 MSTORE PUSH1 0x24 PUSH0 REVERT INVALID PUSH1 0x80 DUP1 PUSH1 0x40 MSTORE PUSH1 0x4 CALLDATASIZE LT ISZERO PUSH1 0x11 JUMPI PUSH0 DUP1 REVERT JUMPDEST PUSH0 CALLDATALOAD PUSH1 0xE0 SHR SWAP1 DUP2 PUSH4 0x9B4DC8CC EQ PUSH1 0x8B JUMPI POP PUSH4 0xE6A43905 EQ PUSH1 0x2F JUMPI PUSH0 DUP1 REVERT JUMPDEST CALLVALUE PUSH1 0x87 JUMPI PUSH1 0x40 CALLDATASIZE PUSH1 0x3 NOT ADD SLT PUSH1 0x87 JUMPI PUSH1 0x1 PUSH1 0x1 PUSH1 0xA0 SHL SUB PUSH1 0x4 CALLDATALOAD DUP2 DUP2 AND SUB PUSH1 0x87 JUMPI PUSH1 0x24 CALLDATALOAD DUP2 DUP2 AND SUB PUSH1 0x87 JUMPI PUSH1 0x20 SWAP1 PUSH1 0x40 MLOAD SWAP1 PUSH32 0x0 AND DUP2 MSTORE RETURN JUMPDEST PUSH0 DUP1 REVERT JUMPDEST CALLVALUE PUSH1 0x87 JUMPI PUSH0 CALLDATASIZE PUSH1 0x3 NOT ADD SLT PUSH1 0x87 JUMPI PUSH32 0x0 PUSH1 0x1 PUSH1 0x1 PUSH1 0xA0 SHL SUB AND DUP2 MSTORE PUSH1 0x20 SWAP1 RETURN INVALID LOG2 PUSH5 0x6970667358 0x22 SLT KECCAK256 KECCAK256 0x26 INVALID 0x1E DUP6 CREATE2 0xBE DUP11 0xD1 MSTORE8 COINBASE SWAP15 SSTORE SAR PUSH26 0x78B070C4D6A64F21EBC36D5EEACFAECBB464736F6C6343000819 STOP CALLER "},"methodIdentifiers":{"getPair(address,address)":"e6a43905","lpAddress()":"9b4dc8cc"}},"storageLayout":{"storage":[],"types":null}}}}