{"contracts/MetadataRegistry.sol":{"IronLockMetadataRegistry":{"abi":[{"inputs":[{"internalType":"address","name":"_factory","type":"address"}],"stateMutability":"nonpayable","type":"constructor"},{"anonymous":false,"inputs":[{"indexed":true,"internalType":"address","name":"token","type":"address"},{"indexed":true,"internalType":"address","name":"updater","type":"address"}],"name":"MetadataUpdated","type":"event"},{"inputs":[],"name":"factory","outputs":[{"internalType":"contract IIronLockFactory","name":"","type":"address"}],"stateMutability":"view","type":"function"},{"inputs":[{"internalType":"address","name":"tokenAddr","type":"address"}],"name":"getMetadata","outputs":[{"components":[{"internalType":"string","name":"logoUrl","type":"string"},{"internalType":"string","name":"description","type":"string"},{"internalType":"string","name":"website","type":"string"},{"internalType":"string","name":"twitter","type":"string"},{"internalType":"string","name":"telegram","type":"string"},{"internalType":"string","name":"category","type":"string"}],"internalType":"struct IronLockMetadataRegistry.TokenMetadata","name":"","type":"tuple"}],"stateMutability":"view","type":"function"},{"inputs":[{"internalType":"address","name":"tokenAddr","type":"address"},{"internalType":"string","name":"logoUrl","type":"string"},{"internalType":"string","name":"description","type":"string"},{"internalType":"string","name":"website","type":"string"},{"internalType":"string","name":"twitter","type":"string"},{"internalType":"string","name":"telegram","type":"string"},{"internalType":"string","name":"category","type":"string"}],"name":"setMetadata","outputs":[],"stateMutability":"nonpayable","type":"function"}],"evm":{"bytecode":{"linkReferences":{},"object":"60a034606e57601f61102638819003918201601f19168301916001600160401b03831184841017607257808492602094604052833981010312606e57516001600160a01b03811690819003606e57608052604051610f9f90816100878239608051818181605201526101910152f35b5f80fd5b634e487b7160e01b5f52604160045260245ffdfe6080806040526004361015610012575f80fd5b5f3560e01c9081632a50c14614610b97575080638c41690b146100855763c45a01551461003d575f80fd5b34610081575f366003190112610081576040517f00000000000000000000000000000000000000000000000000000000000000006001600160a01b03168152602090f35b5f80fd5b346100815760e03660031901126100815761009e610cfa565b6024356001600160401b038111610081576100bd903690600401610d34565b91906044356001600160401b038111610081576100de903690600401610d34565b9091906064356001600160401b03811161008157610100903690600401610d34565b93906084356001600160401b03811161008157610121903690600401610d34565b60a4356001600160401b03811161008157610140903690600401610d34565b909490939060c4356001600160401b03811161008157610164903690600401610d34565b60405163e486033960e01b81526001600160a01b038d81166004830152929a9199925f90829060249082907f0000000000000000000000000000000000000000000000000000000000000000165afa908115610b8c575f91610a9e575b506001600160a01b03163303610a67576101188211610a2e576101e5368a8c610f33565b60208151910120600460206040516101fc81610d7c565b82815201636d656d6560e01b8152208114908115610a05575b81156109da575b81156109b1575b5015610979576040519c6102368e610d61565b369061024192610f33565b8c52369061024e92610f33565b9760208b01988952369061026192610f33565b60408a0152369061027192610f33565b6060880152369061028192610f33565b6080860152369061029192610f33565b60a084019081526001600160a01b0383165f9081526020819052604090208451805192939192906001600160401b0382116105a65781906102d28554610dba565b601f8111610929575b50602090601f83116001146108c5575f926108ba575b50508160011b915f199060031b1c19161782555b518051906001600160401b0382116105a65781906103266001850154610dba565b601f8111610867575b50602090601f83116001146107f9575f926107ee575b50508160011b915f199060031b1c19161760018201555b6040840151805160028301916001600160401b0382116105a65781906103828454610dba565b601f811161079e575b50602090601f831160011461073a575f9261072f575b50508160011b915f199060031b1c19161790555b606084015180516003959183870191906001600160401b0382116105a65781906103df8454610dba565b601f81116106df575b50602090601f831160011461067c575f92610671575b50508160011b915f1990891b1c19161790555b60800151805160048301916001600160401b0382116105a6576104348354610dba565b601f811161062c575b50602090601f83116001146105c5576005949392915f91836105ba575b50508160011b915f1990891b1c19161790555b0190519283519060018060401b0382116105a65761048b8354610dba565b601f8111610561575b50602094601f83116001146104fd5794829394955f936104f2575b50508260011b925f19911b1c19161790555b33906001600160a01b03167f4322befadca758edc2a0285b8184185f7bb363811ef3d9f3c646293a1fb448df5f80a3005b0151915085806104af565b90601f19831695845f5260205f20925f5b888110610549575084600196979810610530575b50505050811b0190556104c1565b01519060f8845f19921b161c1916905584808080610522565b9193602060018192878501518155019501920161050e565b835f5260205f20601f840160051c8101916020851061059c575b601f0160051c01905b8181106105915750610494565b5f8155600101610584565b909150819061057b565b634e487b7160e01b5f52604160045260245ffd5b01519050888061045a565b90601f19831691845f5260205f20925f5b8181106106145750916001939185600598979694106105fd575b505050811b01905561046d565b01515f19838b1b60f8161c191690558880806105f0565b929360206001819287860151815501950193016105d6565b835f5260205f20601f840160051c81019160208510610667575b601f0160051c01905b81811061065c575061043d565b5f815560010161064f565b9091508190610646565b0151905088806103fe565b5f858152602081209350601f198516905b8181106106c757509084600195949392106106b0575b505050811b019055610411565b01515f19838b1b60f8161c191690558880806106a3565b9293602060018192878601518155019501930161068d565b909150835f5260205f20601f840160051c81019160208510610725575b90601f859493920160051c01905b81811061071757506103e8565b5f815584935060010161070a565b90915081906106fc565b0151905087806103a1565b5f858152602081209350601f198516905b818110610786575090846001959493921061076e575b505050811b0190556103b5565b01515f1960f88460031b161c19169055878080610761565b9293602060018192878601518155019501930161074b565b909150835f5260205f20601f840160051c810191602085106107e4575b90601f859493920160051c01905b8181106107d6575061038b565b5f81558493506001016107c9565b90915081906107bb565b015190508680610345565b9250600184015f5260205f20905f935b601f198416851061084c576001945083601f19811610610834575b505050811b01600182015561035c565b01515f1960f88460031b161c19169055868080610824565b81810151835560209485019460019093019290910190610809565b909150600184015f5260205f20601f840160051c810191602085106108b0575b90601f859493920160051c01905b8181106108a2575061032f565b5f8155849350600101610895565b9091508190610887565b0151905087806102f1565b5f868152602081209350601f198516905b81811061091157509084600195949392106108f9575b505050811b018255610305565b01515f1960f88460031b161c191690558780806108ec565b929360206001819287860151815501950193016108d6565b909150845f5260205f20601f840160051c8101916020851061096f575b90601f859493920160051c01905b81811061096157506102db565b5f8155849350600101610954565b9091508190610946565b60405162461bcd60e51b815260206004820152601060248201526f4d523a204261642063617465676f727960801b6044820152606490fd5b9050600560206040516109c381610d7c565b828152016437ba3432b960d91b815220148e610223565b9050600660206040516109ec81610d7c565b828152016567616d696e6760d01b81522081149061021c565b905060046020604051610a1781610d7c565b82815201636465666960e01b815220811490610215565b60405162461bcd60e51b81526020600482015260116024820152704d523a204465736320746f6f206c6f6e6760781b6044820152606490fd5b60405162461bcd60e51b815260206004820152600f60248201526e26a91d102737ba1031b932b0ba37b960891b6044820152606490fd5b90503d805f833e610aaf8183610d97565b8101906103808183031261008157610ac681610e94565b50610ad360208201610e94565b60408201519092906001600160401b0381116100815781610af5918401610ec3565b506060820151916001600160401b03831161008157610b1c61036092610b85948301610ec3565b50610b2a6101208201610f09565b50610b386101808201610f18565b50610b466102008201610f18565b50610b546102208201610f26565b50610b626102408201610f26565b50610b706102a08201610f09565b50610b7e6103408201610f26565b5001610f26565b508e6101c1565b6040513d5f823e3d90fd5b34610081576020908160031936011261008157610bb2610cfa565b610bbb82610d61565b606082818094528185820152816040820152818082015281608082015260a00152600160a01b60019003165f525f825260405f2060405191610bfc83610d61565b610c0582610df2565b8352610c1360018301610df2565b83850190815291610c2660028201610df2565b6040850190815291610c3a60038301610df2565b85820190815290610c4d60048401610df2565b9260808701938452600501610c6190610df2565b9360a087019485526040519788978189525190880160c0905260e08801610c8791610d10565b9551601f1996878982030160408a0152610ca091610d10565b905191868883030190880152610cb591610d10565b90519084868203016080870152610ccb91610d10565b905190838582030160a0860152610ce191610d10565b9051918382030160c0840152610cf691610d10565b0390f35b600435906001600160a01b038216820361008157565b805180835260209291819084018484015e5f828201840152601f01601f1916010190565b9181601f84011215610081578235916001600160401b038311610081576020838186019501011161008157565b60c081019081106001600160401b038211176105a657604052565b604081019081106001600160401b038211176105a657604052565b601f909101601f19168101906001600160401b038211908210176105a657604052565b90600182811c92168015610de8575b6020831014610dd457565b634e487b7160e01b5f52602260045260245ffd5b91607f1691610dc9565b9060405191825f8254610e0481610dba565b908184526020946001916001811690815f14610e725750600114610e34575b505050610e3292500383610d97565b565b5f90815285812095935091905b818310610e5a575050610e3293508201015f8080610e23565b85548884018501529485019487945091830191610e41565b92505050610e3294925060ff191682840152151560051b8201015f8080610e23565b51906001600160a01b038216820361008157565b6001600160401b0381116105a657601f01601f191660200190565b81601f8201121561008157805190610eda82610ea8565b92610ee86040519485610d97565b8284526020838301011161008157815f9260208093018386015e8301015290565b519061ffff8216820361008157565b519060ff8216820361008157565b5190811515820361008157565b929192610f3f82610ea8565b91610f4d6040519384610d97565b829481845281830111610081578281602093845f96013701015256fea26469706673582212200a316f936ef9ea57466ef25716a7fca284cdb2e69c826175df08769d1ceb37c364736f6c63430008190033","opcodes":"PUSH1 0xA0 CALLVALUE PUSH1 0x6E JUMPI PUSH1 0x1F PUSH2 0x1026 CODESIZE DUP2 SWAP1 SUB SWAP2 DUP3 ADD PUSH1 0x1F NOT AND DUP4 ADD SWAP2 PUSH1 0x1 PUSH1 0x1 PUSH1 0x40 SHL SUB DUP4 GT DUP5 DUP5 LT OR PUSH1 0x72 JUMPI DUP1 DUP5 SWAP3 PUSH1 0x20 SWAP5 PUSH1 0x40 MSTORE DUP4 CODECOPY DUP2 ADD SUB SLT PUSH1 0x6E JUMPI MLOAD PUSH1 0x1 PUSH1 0x1 PUSH1 0xA0 SHL SUB DUP2 AND SWAP1 DUP2 SWAP1 SUB PUSH1 0x6E JUMPI PUSH1 0x80 MSTORE PUSH1 0x40 MLOAD PUSH2 0xF9F SWAP1 DUP2 PUSH2 0x87 DUP3 CODECOPY PUSH1 0x80 MLOAD DUP2 DUP2 DUP2 PUSH1 0x52 ADD MSTORE PUSH2 0x191 ADD MSTORE RETURN JUMPDEST PUSH0 DUP1 REVERT JUMPDEST PUSH4 0x4E487B71 PUSH1 0xE0 SHL PUSH0 MSTORE PUSH1 0x41 PUSH1 0x4 MSTORE PUSH1 0x24 PUSH0 REVERT INVALID PUSH1 0x80 DUP1 PUSH1 0x40 MSTORE PUSH1 0x4 CALLDATASIZE LT ISZERO PUSH2 0x12 JUMPI PUSH0 DUP1 REVERT JUMPDEST PUSH0 CALLDATALOAD PUSH1 0xE0 SHR SWAP1 DUP2 PUSH4 0x2A50C146 EQ PUSH2 0xB97 JUMPI POP DUP1 PUSH4 0x8C41690B EQ PUSH2 0x85 JUMPI PUSH4 0xC45A0155 EQ PUSH2 0x3D JUMPI PUSH0 DUP1 REVERT JUMPDEST CALLVALUE PUSH2 0x81 JUMPI PUSH0 CALLDATASIZE PUSH1 0x3 NOT ADD SLT PUSH2 0x81 JUMPI PUSH1 0x40 MLOAD PUSH32 0x0 PUSH1 0x1 PUSH1 0x1 PUSH1 0xA0 SHL SUB AND DUP2 MSTORE PUSH1 0x20 SWAP1 RETURN JUMPDEST PUSH0 DUP1 REVERT JUMPDEST CALLVALUE PUSH2 0x81 JUMPI PUSH1 0xE0 CALLDATASIZE PUSH1 0x3 NOT ADD SLT PUSH2 0x81 JUMPI PUSH2 0x9E PUSH2 0xCFA JUMP JUMPDEST PUSH1 0x24 CALLDATALOAD PUSH1 0x1 PUSH1 0x1 PUSH1 0x40 SHL SUB DUP2 GT PUSH2 0x81 JUMPI PUSH2 0xBD SWAP1 CALLDATASIZE SWAP1 PUSH1 0x4 ADD PUSH2 0xD34 JUMP JUMPDEST SWAP2 SWAP1 PUSH1 0x44 CALLDATALOAD PUSH1 0x1 PUSH1 0x1 PUSH1 0x40 SHL SUB DUP2 GT PUSH2 0x81 JUMPI PUSH2 0xDE SWAP1 CALLDATASIZE SWAP1 PUSH1 0x4 ADD PUSH2 0xD34 JUMP JUMPDEST SWAP1 SWAP2 SWAP1 PUSH1 0x64 CALLDATALOAD PUSH1 0x1 PUSH1 0x1 PUSH1 0x40 SHL SUB DUP2 GT PUSH2 0x81 JUMPI PUSH2 0x100 SWAP1 CALLDATASIZE SWAP1 PUSH1 0x4 ADD PUSH2 0xD34 JUMP JUMPDEST SWAP4 SWAP1 PUSH1 0x84 CALLDATALOAD PUSH1 0x1 PUSH1 0x1 PUSH1 0x40 SHL SUB DUP2 GT PUSH2 0x81 JUMPI PUSH2 0x121 SWAP1 CALLDATASIZE SWAP1 PUSH1 0x4 ADD PUSH2 0xD34 JUMP JUMPDEST PUSH1 0xA4 CALLDATALOAD PUSH1 0x1 PUSH1 0x1 PUSH1 0x40 SHL SUB DUP2 GT PUSH2 0x81 JUMPI PUSH2 0x140 SWAP1 CALLDATASIZE SWAP1 PUSH1 0x4 ADD PUSH2 0xD34 JUMP JUMPDEST SWAP1 SWAP5 SWAP1 SWAP4 SWAP1 PUSH1 0xC4 CALLDATALOAD PUSH1 0x1 PUSH1 0x1 PUSH1 0x40 SHL SUB DUP2 GT PUSH2 0x81 JUMPI PUSH2 0x164 SWAP1 CALLDATASIZE SWAP1 PUSH1 0x4 ADD PUSH2 0xD34 JUMP JUMPDEST PUSH1 0x40 MLOAD PUSH4 0xE4860339 PUSH1 0xE0 SHL DUP2 MSTORE PUSH1 0x1 PUSH1 0x1 PUSH1 0xA0 SHL SUB DUP14 DUP2 AND PUSH1 0x4 DUP4 ADD MSTORE SWAP3 SWAP11 SWAP2 SWAP10 SWAP3 PUSH0 SWAP1 DUP3 SWAP1 PUSH1 0x24 SWAP1 DUP3 SWAP1 PUSH32 0x0 AND GAS STATICCALL SWAP1 DUP2 ISZERO PUSH2 0xB8C JUMPI PUSH0 SWAP2 PUSH2 0xA9E JUMPI JUMPDEST POP PUSH1 0x1 PUSH1 0x1 PUSH1 0xA0 SHL SUB AND CALLER SUB PUSH2 0xA67 JUMPI PUSH2 0x118 DUP3 GT PUSH2 0xA2E JUMPI PUSH2 0x1E5 CALLDATASIZE DUP11 DUP13 PUSH2 0xF33 JUMP JUMPDEST PUSH1 0x20 DUP2 MLOAD SWAP2 ADD KECCAK256 PUSH1 0x4 PUSH1 0x20 PUSH1 0x40 MLOAD PUSH2 0x1FC DUP2 PUSH2 0xD7C JUMP JUMPDEST DUP3 DUP2 MSTORE ADD PUSH4 0x6D656D65 PUSH1 0xE0 SHL DUP2 MSTORE KECCAK256 DUP2 EQ SWAP1 DUP2 ISZERO PUSH2 0xA05 JUMPI JUMPDEST DUP2 ISZERO PUSH2 0x9DA JUMPI JUMPDEST DUP2 ISZERO PUSH2 0x9B1 JUMPI JUMPDEST POP ISZERO PUSH2 0x979 JUMPI PUSH1 0x40 MLOAD SWAP13 PUSH2 0x236 DUP15 PUSH2 0xD61 JUMP JUMPDEST CALLDATASIZE SWAP1 PUSH2 0x241 SWAP3 PUSH2 0xF33 JUMP JUMPDEST DUP13 MSTORE CALLDATASIZE SWAP1 PUSH2 0x24E SWAP3 PUSH2 0xF33 JUMP JUMPDEST SWAP8 PUSH1 0x20 DUP12 ADD SWAP9 DUP10 MSTORE CALLDATASIZE SWAP1 PUSH2 0x261 SWAP3 PUSH2 0xF33 JUMP JUMPDEST PUSH1 0x40 DUP11 ADD MSTORE CALLDATASIZE SWAP1 PUSH2 0x271 SWAP3 PUSH2 0xF33 JUMP JUMPDEST PUSH1 0x60 DUP9 ADD MSTORE CALLDATASIZE SWAP1 PUSH2 0x281 SWAP3 PUSH2 0xF33 JUMP JUMPDEST PUSH1 0x80 DUP7 ADD MSTORE CALLDATASIZE SWAP1 PUSH2 0x291 SWAP3 PUSH2 0xF33 JUMP JUMPDEST PUSH1 0xA0 DUP5 ADD SWAP1 DUP2 MSTORE PUSH1 0x1 PUSH1 0x1 PUSH1 0xA0 SHL SUB DUP4 AND PUSH0 SWAP1 DUP2 MSTORE PUSH1 0x20 DUP2 SWAP1 MSTORE PUSH1 0x40 SWAP1 KECCAK256 DUP5 MLOAD DUP1 MLOAD SWAP3 SWAP4 SWAP2 SWAP3 SWAP1 PUSH1 0x1 PUSH1 0x1 PUSH1 0x40 SHL SUB DUP3 GT PUSH2 0x5A6 JUMPI DUP2 SWAP1 PUSH2 0x2D2 DUP6 SLOAD PUSH2 0xDBA JUMP JUMPDEST PUSH1 0x1F DUP2 GT PUSH2 0x929 JUMPI JUMPDEST POP PUSH1 0x20 SWAP1 PUSH1 0x1F DUP4 GT PUSH1 0x1 EQ PUSH2 0x8C5 JUMPI PUSH0 SWAP3 PUSH2 0x8BA JUMPI JUMPDEST POP POP DUP2 PUSH1 0x1 SHL SWAP2 PUSH0 NOT SWAP1 PUSH1 0x3 SHL SHR NOT AND OR DUP3 SSTORE JUMPDEST MLOAD DUP1 MLOAD SWAP1 PUSH1 0x1 PUSH1 0x1 PUSH1 0x40 SHL SUB DUP3 GT PUSH2 0x5A6 JUMPI DUP2 SWAP1 PUSH2 0x326 PUSH1 0x1 DUP6 ADD SLOAD PUSH2 0xDBA JUMP JUMPDEST PUSH1 0x1F DUP2 GT PUSH2 0x867 JUMPI JUMPDEST POP PUSH1 0x20 SWAP1 PUSH1 0x1F DUP4 GT PUSH1 0x1 EQ PUSH2 0x7F9 JUMPI PUSH0 SWAP3 PUSH2 0x7EE JUMPI JUMPDEST POP POP DUP2 PUSH1 0x1 SHL SWAP2 PUSH0 NOT SWAP1 PUSH1 0x3 SHL SHR NOT AND OR PUSH1 0x1 DUP3 ADD SSTORE JUMPDEST PUSH1 0x40 DUP5 ADD MLOAD DUP1 MLOAD PUSH1 0x2 DUP4 ADD SWAP2 PUSH1 0x1 PUSH1 0x1 PUSH1 0x40 SHL SUB DUP3 GT PUSH2 0x5A6 JUMPI DUP2 SWAP1 PUSH2 0x382 DUP5 SLOAD PUSH2 0xDBA JUMP JUMPDEST PUSH1 0x1F DUP2 GT PUSH2 0x79E JUMPI JUMPDEST POP PUSH1 0x20 SWAP1 PUSH1 0x1F DUP4 GT PUSH1 0x1 EQ PUSH2 0x73A JUMPI PUSH0 SWAP3 PUSH2 0x72F JUMPI JUMPDEST POP POP DUP2 PUSH1 0x1 SHL SWAP2 PUSH0 NOT SWAP1 PUSH1 0x3 SHL SHR NOT AND OR SWAP1 SSTORE JUMPDEST PUSH1 0x60 DUP5 ADD MLOAD DUP1 MLOAD PUSH1 0x3 SWAP6 SWAP2 DUP4 DUP8 ADD SWAP2 SWAP1 PUSH1 0x1 PUSH1 0x1 PUSH1 0x40 SHL SUB DUP3 GT PUSH2 0x5A6 JUMPI DUP2 SWAP1 PUSH2 0x3DF DUP5 SLOAD PUSH2 0xDBA JUMP JUMPDEST PUSH1 0x1F DUP2 GT PUSH2 0x6DF JUMPI JUMPDEST POP PUSH1 0x20 SWAP1 PUSH1 0x1F DUP4 GT PUSH1 0x1 EQ PUSH2 0x67C JUMPI PUSH0 SWAP3 PUSH2 0x671 JUMPI JUMPDEST POP POP DUP2 PUSH1 0x1 SHL SWAP2 PUSH0 NOT SWAP1 DUP10 SHL SHR NOT AND OR SWAP1 SSTORE JUMPDEST PUSH1 0x80 ADD MLOAD DUP1 MLOAD PUSH1 0x4 DUP4 ADD SWAP2 PUSH1 0x1 PUSH1 0x1 PUSH1 0x40 SHL SUB DUP3 GT PUSH2 0x5A6 JUMPI PUSH2 0x434 DUP4 SLOAD PUSH2 0xDBA JUMP JUMPDEST PUSH1 0x1F DUP2 GT PUSH2 0x62C JUMPI JUMPDEST POP PUSH1 0x20 SWAP1 PUSH1 0x1F DUP4 GT PUSH1 0x1 EQ PUSH2 0x5C5 JUMPI PUSH1 0x5 SWAP5 SWAP4 SWAP3 SWAP2 PUSH0 SWAP2 DUP4 PUSH2 0x5BA JUMPI JUMPDEST POP POP DUP2 PUSH1 0x1 SHL SWAP2 PUSH0 NOT SWAP1 DUP10 SHL SHR NOT AND OR SWAP1 SSTORE JUMPDEST ADD SWAP1 MLOAD SWAP3 DUP4 MLOAD SWAP1 PUSH1 0x1 DUP1 PUSH1 0x40 SHL SUB DUP3 GT PUSH2 0x5A6 JUMPI PUSH2 0x48B DUP4 SLOAD PUSH2 0xDBA JUMP JUMPDEST PUSH1 0x1F DUP2 GT PUSH2 0x561 JUMPI JUMPDEST POP PUSH1 0x20 SWAP5 PUSH1 0x1F DUP4 GT PUSH1 0x1 EQ PUSH2 0x4FD JUMPI SWAP5 DUP3 SWAP4 SWAP5 SWAP6 PUSH0 SWAP4 PUSH2 0x4F2 JUMPI JUMPDEST POP POP DUP3 PUSH1 0x1 SHL SWAP3 PUSH0 NOT SWAP2 SHL SHR NOT AND OR SWAP1 SSTORE JUMPDEST CALLER SWAP1 PUSH1 0x1 PUSH1 0x1 PUSH1 0xA0 SHL SUB AND PUSH32 0x4322BEFADCA758EDC2A0285B8184185F7BB363811EF3D9F3C646293A1FB448DF PUSH0 DUP1 LOG3 STOP JUMPDEST ADD MLOAD SWAP2 POP DUP6 DUP1 PUSH2 0x4AF JUMP JUMPDEST SWAP1 PUSH1 0x1F NOT DUP4 AND SWAP6 DUP5 PUSH0 MSTORE PUSH1 0x20 PUSH0 KECCAK256 SWAP3 PUSH0 JUMPDEST DUP9 DUP2 LT PUSH2 0x549 JUMPI POP DUP5 PUSH1 0x1 SWAP7 SWAP8 SWAP9 LT PUSH2 0x530 JUMPI JUMPDEST POP POP POP POP DUP2 SHL ADD SWAP1 SSTORE PUSH2 0x4C1 JUMP JUMPDEST ADD MLOAD SWAP1 PUSH1 0xF8 DUP5 PUSH0 NOT SWAP3 SHL AND SHR NOT AND SWAP1 SSTORE DUP5 DUP1 DUP1 DUP1 PUSH2 0x522 JUMP JUMPDEST SWAP2 SWAP4 PUSH1 0x20 PUSH1 0x1 DUP2 SWAP3 DUP8 DUP6 ADD MLOAD DUP2 SSTORE ADD SWAP6 ADD SWAP3 ADD PUSH2 0x50E JUMP JUMPDEST DUP4 PUSH0 MSTORE PUSH1 0x20 PUSH0 KECCAK256 PUSH1 0x1F DUP5 ADD PUSH1 0x5 SHR DUP2 ADD SWAP2 PUSH1 0x20 DUP6 LT PUSH2 0x59C JUMPI JUMPDEST PUSH1 0x1F ADD PUSH1 0x5 SHR ADD SWAP1 JUMPDEST DUP2 DUP2 LT PUSH2 0x591 JUMPI POP PUSH2 0x494 JUMP JUMPDEST PUSH0 DUP2 SSTORE PUSH1 0x1 ADD PUSH2 0x584 JUMP JUMPDEST SWAP1 SWAP2 POP DUP2 SWAP1 PUSH2 0x57B JUMP JUMPDEST PUSH4 0x4E487B71 PUSH1 0xE0 SHL PUSH0 MSTORE PUSH1 0x41 PUSH1 0x4 MSTORE PUSH1 0x24 PUSH0 REVERT JUMPDEST ADD MLOAD SWAP1 POP DUP9 DUP1 PUSH2 0x45A JUMP JUMPDEST SWAP1 PUSH1 0x1F NOT DUP4 AND SWAP2 DUP5 PUSH0 MSTORE PUSH1 0x20 PUSH0 KECCAK256 SWAP3 PUSH0 JUMPDEST DUP2 DUP2 LT PUSH2 0x614 JUMPI POP SWAP2 PUSH1 0x1 SWAP4 SWAP2 DUP6 PUSH1 0x5 SWAP9 SWAP8 SWAP7 SWAP5 LT PUSH2 0x5FD JUMPI JUMPDEST POP POP POP DUP2 SHL ADD SWAP1 SSTORE PUSH2 0x46D JUMP JUMPDEST ADD MLOAD PUSH0 NOT DUP4 DUP12 SHL PUSH1 0xF8 AND SHR NOT AND SWAP1 SSTORE DUP9 DUP1 DUP1 PUSH2 0x5F0 JUMP JUMPDEST SWAP3 SWAP4 PUSH1 0x20 PUSH1 0x1 DUP2 SWAP3 DUP8 DUP7 ADD MLOAD DUP2 SSTORE ADD SWAP6 ADD SWAP4 ADD PUSH2 0x5D6 JUMP JUMPDEST DUP4 PUSH0 MSTORE PUSH1 0x20 PUSH0 KECCAK256 PUSH1 0x1F DUP5 ADD PUSH1 0x5 SHR DUP2 ADD SWAP2 PUSH1 0x20 DUP6 LT PUSH2 0x667 JUMPI JUMPDEST PUSH1 0x1F ADD PUSH1 0x5 SHR ADD SWAP1 JUMPDEST DUP2 DUP2 LT PUSH2 0x65C JUMPI POP PUSH2 0x43D JUMP JUMPDEST PUSH0 DUP2 SSTORE PUSH1 0x1 ADD PUSH2 0x64F JUMP JUMPDEST SWAP1 SWAP2 POP DUP2 SWAP1 PUSH2 0x646 JUMP JUMPDEST ADD MLOAD SWAP1 POP DUP9 DUP1 PUSH2 0x3FE JUMP JUMPDEST PUSH0 DUP6 DUP2 MSTORE PUSH1 0x20 DUP2 KECCAK256 SWAP4 POP PUSH1 0x1F NOT DUP6 AND SWAP1 JUMPDEST DUP2 DUP2 LT PUSH2 0x6C7 JUMPI POP SWAP1 DUP5 PUSH1 0x1 SWAP6 SWAP5 SWAP4 SWAP3 LT PUSH2 0x6B0 JUMPI JUMPDEST POP POP POP DUP2 SHL ADD SWAP1 SSTORE PUSH2 0x411 JUMP JUMPDEST ADD MLOAD PUSH0 NOT DUP4 DUP12 SHL PUSH1 0xF8 AND SHR NOT AND SWAP1 SSTORE DUP9 DUP1 DUP1 PUSH2 0x6A3 JUMP JUMPDEST SWAP3 SWAP4 PUSH1 0x20 PUSH1 0x1 DUP2 SWAP3 DUP8 DUP7 ADD MLOAD DUP2 SSTORE ADD SWAP6 ADD SWAP4 ADD PUSH2 0x68D JUMP JUMPDEST SWAP1 SWAP2 POP DUP4 PUSH0 MSTORE PUSH1 0x20 PUSH0 KECCAK256 PUSH1 0x1F DUP5 ADD PUSH1 0x5 SHR DUP2 ADD SWAP2 PUSH1 0x20 DUP6 LT PUSH2 0x725 JUMPI JUMPDEST SWAP1 PUSH1 0x1F DUP6 SWAP5 SWAP4 SWAP3 ADD PUSH1 0x5 SHR ADD SWAP1 JUMPDEST DUP2 DUP2 LT PUSH2 0x717 JUMPI POP PUSH2 0x3E8 JUMP JUMPDEST PUSH0 DUP2 SSTORE DUP5 SWAP4 POP PUSH1 0x1 ADD PUSH2 0x70A JUMP JUMPDEST SWAP1 SWAP2 POP DUP2 SWAP1 PUSH2 0x6FC JUMP JUMPDEST ADD MLOAD SWAP1 POP DUP8 DUP1 PUSH2 0x3A1 JUMP JUMPDEST PUSH0 DUP6 DUP2 MSTORE PUSH1 0x20 DUP2 KECCAK256 SWAP4 POP PUSH1 0x1F NOT DUP6 AND SWAP1 JUMPDEST DUP2 DUP2 LT PUSH2 0x786 JUMPI POP SWAP1 DUP5 PUSH1 0x1 SWAP6 SWAP5 SWAP4 SWAP3 LT PUSH2 0x76E JUMPI JUMPDEST POP POP POP DUP2 SHL ADD SWAP1 SSTORE PUSH2 0x3B5 JUMP JUMPDEST ADD MLOAD PUSH0 NOT PUSH1 0xF8 DUP5 PUSH1 0x3 SHL AND SHR NOT AND SWAP1 SSTORE DUP8 DUP1 DUP1 PUSH2 0x761 JUMP JUMPDEST SWAP3 SWAP4 PUSH1 0x20 PUSH1 0x1 DUP2 SWAP3 DUP8 DUP7 ADD MLOAD DUP2 SSTORE ADD SWAP6 ADD SWAP4 ADD PUSH2 0x74B JUMP JUMPDEST SWAP1 SWAP2 POP DUP4 PUSH0 MSTORE PUSH1 0x20 PUSH0 KECCAK256 PUSH1 0x1F DUP5 ADD PUSH1 0x5 SHR DUP2 ADD SWAP2 PUSH1 0x20 DUP6 LT PUSH2 0x7E4 JUMPI JUMPDEST SWAP1 PUSH1 0x1F DUP6 SWAP5 SWAP4 SWAP3 ADD PUSH1 0x5 SHR ADD SWAP1 JUMPDEST DUP2 DUP2 LT PUSH2 0x7D6 JUMPI POP PUSH2 0x38B JUMP JUMPDEST PUSH0 DUP2 SSTORE DUP5 SWAP4 POP PUSH1 0x1 ADD PUSH2 0x7C9 JUMP JUMPDEST SWAP1 SWAP2 POP DUP2 SWAP1 PUSH2 0x7BB JUMP JUMPDEST ADD MLOAD SWAP1 POP DUP7 DUP1 PUSH2 0x345 JUMP JUMPDEST SWAP3 POP PUSH1 0x1 DUP5 ADD PUSH0 MSTORE PUSH1 0x20 PUSH0 KECCAK256 SWAP1 PUSH0 SWAP4 JUMPDEST PUSH1 0x1F NOT DUP5 AND DUP6 LT PUSH2 0x84C JUMPI PUSH1 0x1 SWAP5 POP DUP4 PUSH1 0x1F NOT DUP2 AND LT PUSH2 0x834 JUMPI JUMPDEST POP POP POP DUP2 SHL ADD PUSH1 0x1 DUP3 ADD SSTORE PUSH2 0x35C JUMP JUMPDEST ADD MLOAD PUSH0 NOT PUSH1 0xF8 DUP5 PUSH1 0x3 SHL AND SHR NOT AND SWAP1 SSTORE DUP7 DUP1 DUP1 PUSH2 0x824 JUMP JUMPDEST DUP2 DUP2 ADD MLOAD DUP4 SSTORE PUSH1 0x20 SWAP5 DUP6 ADD SWAP5 PUSH1 0x1 SWAP1 SWAP4 ADD SWAP3 SWAP1 SWAP2 ADD SWAP1 PUSH2 0x809 JUMP JUMPDEST SWAP1 SWAP2 POP PUSH1 0x1 DUP5 ADD PUSH0 MSTORE PUSH1 0x20 PUSH0 KECCAK256 PUSH1 0x1F DUP5 ADD PUSH1 0x5 SHR DUP2 ADD SWAP2 PUSH1 0x20 DUP6 LT PUSH2 0x8B0 JUMPI JUMPDEST SWAP1 PUSH1 0x1F DUP6 SWAP5 SWAP4 SWAP3 ADD PUSH1 0x5 SHR ADD SWAP1 JUMPDEST DUP2 DUP2 LT PUSH2 0x8A2 JUMPI POP PUSH2 0x32F JUMP JUMPDEST PUSH0 DUP2 SSTORE DUP5 SWAP4 POP PUSH1 0x1 ADD PUSH2 0x895 JUMP JUMPDEST SWAP1 SWAP2 POP DUP2 SWAP1 PUSH2 0x887 JUMP JUMPDEST ADD MLOAD SWAP1 POP DUP8 DUP1 PUSH2 0x2F1 JUMP JUMPDEST PUSH0 DUP7 DUP2 MSTORE PUSH1 0x20 DUP2 KECCAK256 SWAP4 POP PUSH1 0x1F NOT DUP6 AND SWAP1 JUMPDEST DUP2 DUP2 LT PUSH2 0x911 JUMPI POP SWAP1 DUP5 PUSH1 0x1 SWAP6 SWAP5 SWAP4 SWAP3 LT PUSH2 0x8F9 JUMPI JUMPDEST POP POP POP DUP2 SHL ADD DUP3 SSTORE PUSH2 0x305 JUMP JUMPDEST ADD MLOAD PUSH0 NOT PUSH1 0xF8 DUP5 PUSH1 0x3 SHL AND SHR NOT AND SWAP1 SSTORE DUP8 DUP1 DUP1 PUSH2 0x8EC JUMP JUMPDEST SWAP3 SWAP4 PUSH1 0x20 PUSH1 0x1 DUP2 SWAP3 DUP8 DUP7 ADD MLOAD DUP2 SSTORE ADD SWAP6 ADD SWAP4 ADD PUSH2 0x8D6 JUMP JUMPDEST SWAP1 SWAP2 POP DUP5 PUSH0 MSTORE PUSH1 0x20 PUSH0 KECCAK256 PUSH1 0x1F DUP5 ADD PUSH1 0x5 SHR DUP2 ADD SWAP2 PUSH1 0x20 DUP6 LT PUSH2 0x96F JUMPI JUMPDEST SWAP1 PUSH1 0x1F DUP6 SWAP5 SWAP4 SWAP3 ADD PUSH1 0x5 SHR ADD SWAP1 JUMPDEST DUP2 DUP2 LT PUSH2 0x961 JUMPI POP PUSH2 0x2DB JUMP JUMPDEST PUSH0 DUP2 SSTORE DUP5 SWAP4 POP PUSH1 0x1 ADD PUSH2 0x954 JUMP JUMPDEST SWAP1 SWAP2 POP DUP2 SWAP1 PUSH2 0x946 JUMP JUMPDEST PUSH1 0x40 MLOAD PUSH3 0x461BCD PUSH1 0xE5 SHL DUP2 MSTORE PUSH1 0x20 PUSH1 0x4 DUP3 ADD MSTORE PUSH1 0x10 PUSH1 0x24 DUP3 ADD MSTORE PUSH16 0x4D523A204261642063617465676F7279 PUSH1 0x80 SHL PUSH1 0x44 DUP3 ADD MSTORE PUSH1 0x64 SWAP1 REVERT JUMPDEST SWAP1 POP PUSH1 0x5 PUSH1 0x20 PUSH1 0x40 MLOAD PUSH2 0x9C3 DUP2 PUSH2 0xD7C JUMP JUMPDEST DUP3 DUP2 MSTORE ADD PUSH5 0x37BA3432B9 PUSH1 0xD9 SHL DUP2 MSTORE KECCAK256 EQ DUP15 PUSH2 0x223 JUMP JUMPDEST SWAP1 POP PUSH1 0x6 PUSH1 0x20 PUSH1 0x40 MLOAD PUSH2 0x9EC DUP2 PUSH2 0xD7C JUMP JUMPDEST DUP3 DUP2 MSTORE ADD PUSH6 0x67616D696E67 PUSH1 0xD0 SHL DUP2 MSTORE KECCAK256 DUP2 EQ SWAP1 PUSH2 0x21C JUMP JUMPDEST SWAP1 POP PUSH1 0x4 PUSH1 0x20 PUSH1 0x40 MLOAD PUSH2 0xA17 DUP2 PUSH2 0xD7C JUMP JUMPDEST DUP3 DUP2 MSTORE ADD PUSH4 0x64656669 PUSH1 0xE0 SHL DUP2 MSTORE KECCAK256 DUP2 EQ SWAP1 PUSH2 0x215 JUMP JUMPDEST PUSH1 0x40 MLOAD PUSH3 0x461BCD PUSH1 0xE5 SHL DUP2 MSTORE PUSH1 0x20 PUSH1 0x4 DUP3 ADD MSTORE PUSH1 0x11 PUSH1 0x24 DUP3 ADD MSTORE PUSH17 0x4D523A204465736320746F6F206C6F6E67 PUSH1 0x78 SHL PUSH1 0x44 DUP3 ADD MSTORE PUSH1 0x64 SWAP1 REVERT JUMPDEST PUSH1 0x40 MLOAD PUSH3 0x461BCD PUSH1 0xE5 SHL DUP2 MSTORE PUSH1 0x20 PUSH1 0x4 DUP3 ADD MSTORE PUSH1 0xF PUSH1 0x24 DUP3 ADD MSTORE PUSH15 0x26A91D102737BA1031B932B0BA37B9 PUSH1 0x89 SHL PUSH1 0x44 DUP3 ADD MSTORE PUSH1 0x64 SWAP1 REVERT JUMPDEST SWAP1 POP RETURNDATASIZE DUP1 PUSH0 DUP4 RETURNDATACOPY PUSH2 0xAAF DUP2 DUP4 PUSH2 0xD97 JUMP JUMPDEST DUP2 ADD SWAP1 PUSH2 0x380 DUP2 DUP4 SUB SLT PUSH2 0x81 JUMPI PUSH2 0xAC6 DUP2 PUSH2 0xE94 JUMP JUMPDEST POP PUSH2 0xAD3 PUSH1 0x20 DUP3 ADD PUSH2 0xE94 JUMP JUMPDEST PUSH1 0x40 DUP3 ADD MLOAD SWAP1 SWAP3 SWAP1 PUSH1 0x1 PUSH1 0x1 PUSH1 0x40 SHL SUB DUP2 GT PUSH2 0x81 JUMPI DUP2 PUSH2 0xAF5 SWAP2 DUP5 ADD PUSH2 0xEC3 JUMP JUMPDEST POP PUSH1 0x60 DUP3 ADD MLOAD SWAP2 PUSH1 0x1 PUSH1 0x1 PUSH1 0x40 SHL SUB DUP4 GT PUSH2 0x81 JUMPI PUSH2 0xB1C PUSH2 0x360 SWAP3 PUSH2 0xB85 SWAP5 DUP4 ADD PUSH2 0xEC3 JUMP JUMPDEST POP PUSH2 0xB2A PUSH2 0x120 DUP3 ADD PUSH2 0xF09 JUMP JUMPDEST POP PUSH2 0xB38 PUSH2 0x180 DUP3 ADD PUSH2 0xF18 JUMP JUMPDEST POP PUSH2 0xB46 PUSH2 0x200 DUP3 ADD PUSH2 0xF18 JUMP JUMPDEST POP PUSH2 0xB54 PUSH2 0x220 DUP3 ADD PUSH2 0xF26 JUMP JUMPDEST POP PUSH2 0xB62 PUSH2 0x240 DUP3 ADD PUSH2 0xF26 JUMP JUMPDEST POP PUSH2 0xB70 PUSH2 0x2A0 DUP3 ADD PUSH2 0xF09 JUMP JUMPDEST POP PUSH2 0xB7E PUSH2 0x340 DUP3 ADD PUSH2 0xF26 JUMP JUMPDEST POP ADD PUSH2 0xF26 JUMP JUMPDEST POP DUP15 PUSH2 0x1C1 JUMP JUMPDEST PUSH1 0x40 MLOAD RETURNDATASIZE PUSH0 DUP3 RETURNDATACOPY RETURNDATASIZE SWAP1 REVERT JUMPDEST CALLVALUE PUSH2 0x81 JUMPI PUSH1 0x20 SWAP1 DUP2 PUSH1 0x3 NOT CALLDATASIZE ADD SLT PUSH2 0x81 JUMPI PUSH2 0xBB2 PUSH2 0xCFA JUMP JUMPDEST PUSH2 0xBBB DUP3 PUSH2 0xD61 JUMP JUMPDEST PUSH1 0x60 DUP3 DUP2 DUP1 SWAP5 MSTORE DUP2 DUP6 DUP3 ADD MSTORE DUP2 PUSH1 0x40 DUP3 ADD MSTORE DUP2 DUP1 DUP3 ADD MSTORE DUP2 PUSH1 0x80 DUP3 ADD MSTORE PUSH1 0xA0 ADD MSTORE PUSH1 0x1 PUSH1 0xA0 SHL PUSH1 0x1 SWAP1 SUB AND PUSH0 MSTORE PUSH0 DUP3 MSTORE PUSH1 0x40 PUSH0 KECCAK256 PUSH1 0x40 MLOAD SWAP2 PUSH2 0xBFC DUP4 PUSH2 0xD61 JUMP JUMPDEST PUSH2 0xC05 DUP3 PUSH2 0xDF2 JUMP JUMPDEST DUP4 MSTORE PUSH2 0xC13 PUSH1 0x1 DUP4 ADD PUSH2 0xDF2 JUMP JUMPDEST DUP4 DUP6 ADD SWAP1 DUP2 MSTORE SWAP2 PUSH2 0xC26 PUSH1 0x2 DUP3 ADD PUSH2 0xDF2 JUMP JUMPDEST PUSH1 0x40 DUP6 ADD SWAP1 DUP2 MSTORE SWAP2 PUSH2 0xC3A PUSH1 0x3 DUP4 ADD PUSH2 0xDF2 JUMP JUMPDEST DUP6 DUP3 ADD SWAP1 DUP2 MSTORE SWAP1 PUSH2 0xC4D PUSH1 0x4 DUP5 ADD PUSH2 0xDF2 JUMP JUMPDEST SWAP3 PUSH1 0x80 DUP8 ADD SWAP4 DUP5 MSTORE PUSH1 0x5 ADD PUSH2 0xC61 SWAP1 PUSH2 0xDF2 JUMP JUMPDEST SWAP4 PUSH1 0xA0 DUP8 ADD SWAP5 DUP6 MSTORE PUSH1 0x40 MLOAD SWAP8 DUP9 SWAP8 DUP2 DUP10 MSTORE MLOAD SWAP1 DUP9 ADD PUSH1 0xC0 SWAP1 MSTORE PUSH1 0xE0 DUP9 ADD PUSH2 0xC87 SWAP2 PUSH2 0xD10 JUMP JUMPDEST SWAP6 MLOAD PUSH1 0x1F NOT SWAP7 DUP8 DUP10 DUP3 SUB ADD PUSH1 0x40 DUP11 ADD MSTORE PUSH2 0xCA0 SWAP2 PUSH2 0xD10 JUMP JUMPDEST SWAP1 MLOAD SWAP2 DUP7 DUP9 DUP4 SUB ADD SWAP1 DUP9 ADD MSTORE PUSH2 0xCB5 SWAP2 PUSH2 0xD10 JUMP JUMPDEST SWAP1 MLOAD SWAP1 DUP5 DUP7 DUP3 SUB ADD PUSH1 0x80 DUP8 ADD MSTORE PUSH2 0xCCB SWAP2 PUSH2 0xD10 JUMP JUMPDEST SWAP1 MLOAD SWAP1 DUP4 DUP6 DUP3 SUB ADD PUSH1 0xA0 DUP7 ADD MSTORE PUSH2 0xCE1 SWAP2 PUSH2 0xD10 JUMP JUMPDEST SWAP1 MLOAD SWAP2 DUP4 DUP3 SUB ADD PUSH1 0xC0 DUP5 ADD MSTORE PUSH2 0xCF6 SWAP2 PUSH2 0xD10 JUMP JUMPDEST SUB SWAP1 RETURN JUMPDEST PUSH1 0x4 CALLDATALOAD SWAP1 PUSH1 0x1 PUSH1 0x1 PUSH1 0xA0 SHL SUB DUP3 AND DUP3 SUB PUSH2 0x81 JUMPI JUMP JUMPDEST DUP1 MLOAD DUP1 DUP4 MSTORE PUSH1 0x20 SWAP3 SWAP2 DUP2 SWAP1 DUP5 ADD DUP5 DUP5 ADD MCOPY PUSH0 DUP3 DUP3 ADD DUP5 ADD MSTORE PUSH1 0x1F ADD PUSH1 0x1F NOT AND ADD ADD SWAP1 JUMP JUMPDEST SWAP2 DUP2 PUSH1 0x1F DUP5 ADD SLT ISZERO PUSH2 0x81 JUMPI DUP3 CALLDATALOAD SWAP2 PUSH1 0x1 PUSH1 0x1 PUSH1 0x40 SHL SUB DUP4 GT PUSH2 0x81 JUMPI PUSH1 0x20 DUP4 DUP2 DUP7 ADD SWAP6 ADD ADD GT PUSH2 0x81 JUMPI JUMP JUMPDEST PUSH1 0xC0 DUP2 ADD SWAP1 DUP2 LT PUSH1 0x1 PUSH1 0x1 PUSH1 0x40 SHL SUB DUP3 GT OR PUSH2 0x5A6 JUMPI PUSH1 0x40 MSTORE JUMP JUMPDEST PUSH1 0x40 DUP2 ADD SWAP1 DUP2 LT PUSH1 0x1 PUSH1 0x1 PUSH1 0x40 SHL SUB DUP3 GT OR PUSH2 0x5A6 JUMPI PUSH1 0x40 MSTORE JUMP JUMPDEST PUSH1 0x1F SWAP1 SWAP2 ADD PUSH1 0x1F NOT AND DUP2 ADD SWAP1 PUSH1 0x1 PUSH1 0x1 PUSH1 0x40 SHL SUB DUP3 GT SWAP1 DUP3 LT OR PUSH2 0x5A6 JUMPI PUSH1 0x40 MSTORE JUMP JUMPDEST SWAP1 PUSH1 0x1 DUP3 DUP2 SHR SWAP3 AND DUP1 ISZERO PUSH2 0xDE8 JUMPI JUMPDEST PUSH1 0x20 DUP4 LT EQ PUSH2 0xDD4 JUMPI JUMP JUMPDEST PUSH4 0x4E487B71 PUSH1 0xE0 SHL PUSH0 MSTORE PUSH1 0x22 PUSH1 0x4 MSTORE PUSH1 0x24 PUSH0 REVERT JUMPDEST SWAP2 PUSH1 0x7F AND SWAP2 PUSH2 0xDC9 JUMP JUMPDEST SWAP1 PUSH1 0x40 MLOAD SWAP2 DUP3 PUSH0 DUP3 SLOAD PUSH2 0xE04 DUP2 PUSH2 0xDBA JUMP JUMPDEST SWAP1 DUP2 DUP5 MSTORE PUSH1 0x20 SWAP5 PUSH1 0x1 SWAP2 PUSH1 0x1 DUP2 AND SWAP1 DUP2 PUSH0 EQ PUSH2 0xE72 JUMPI POP PUSH1 0x1 EQ PUSH2 0xE34 JUMPI JUMPDEST POP POP POP PUSH2 0xE32 SWAP3 POP SUB DUP4 PUSH2 0xD97 JUMP JUMPDEST JUMP JUMPDEST PUSH0 SWAP1 DUP2 MSTORE DUP6 DUP2 KECCAK256 SWAP6 SWAP4 POP SWAP2 SWAP1 JUMPDEST DUP2 DUP4 LT PUSH2 0xE5A JUMPI POP POP PUSH2 0xE32 SWAP4 POP DUP3 ADD ADD PUSH0 DUP1 DUP1 PUSH2 0xE23 JUMP JUMPDEST DUP6 SLOAD DUP9 DUP5 ADD DUP6 ADD MSTORE SWAP5 DUP6 ADD SWAP5 DUP8 SWAP5 POP SWAP2 DUP4 ADD SWAP2 PUSH2 0xE41 JUMP JUMPDEST SWAP3 POP POP POP PUSH2 0xE32 SWAP5 SWAP3 POP PUSH1 0xFF NOT AND DUP3 DUP5 ADD MSTORE ISZERO ISZERO PUSH1 0x5 SHL DUP3 ADD ADD PUSH0 DUP1 DUP1 PUSH2 0xE23 JUMP JUMPDEST MLOAD SWAP1 PUSH1 0x1 PUSH1 0x1 PUSH1 0xA0 SHL SUB DUP3 AND DUP3 SUB PUSH2 0x81 JUMPI JUMP JUMPDEST PUSH1 0x1 PUSH1 0x1 PUSH1 0x40 SHL SUB DUP2 GT PUSH2 0x5A6 JUMPI PUSH1 0x1F ADD PUSH1 0x1F NOT AND PUSH1 0x20 ADD SWAP1 JUMP JUMPDEST DUP2 PUSH1 0x1F DUP3 ADD SLT ISZERO PUSH2 0x81 JUMPI DUP1 MLOAD SWAP1 PUSH2 0xEDA DUP3 PUSH2 0xEA8 JUMP JUMPDEST SWAP3 PUSH2 0xEE8 PUSH1 0x40 MLOAD SWAP5 DUP6 PUSH2 0xD97 JUMP JUMPDEST DUP3 DUP5 MSTORE PUSH1 0x20 DUP4 DUP4 ADD ADD GT PUSH2 0x81 JUMPI DUP2 PUSH0 SWAP3 PUSH1 0x20 DUP1 SWAP4 ADD DUP4 DUP7 ADD MCOPY DUP4 ADD ADD MSTORE SWAP1 JUMP JUMPDEST MLOAD SWAP1 PUSH2 0xFFFF DUP3 AND DUP3 SUB PUSH2 0x81 JUMPI JUMP JUMPDEST MLOAD SWAP1 PUSH1 0xFF DUP3 AND DUP3 SUB PUSH2 0x81 JUMPI JUMP JUMPDEST MLOAD SWAP1 DUP2 ISZERO ISZERO DUP3 SUB PUSH2 0x81 JUMPI JUMP JUMPDEST SWAP3 SWAP2 SWAP3 PUSH2 0xF3F DUP3 PUSH2 0xEA8 JUMP JUMPDEST SWAP2 PUSH2 0xF4D PUSH1 0x40 MLOAD SWAP4 DUP5 PUSH2 0xD97 JUMP JUMPDEST DUP3 SWAP5 DUP2 DUP5 MSTORE DUP2 DUP4 ADD GT PUSH2 0x81 JUMPI DUP3 DUP2 PUSH1 0x20 SWAP4 DUP5 PUSH0 SWAP7 ADD CALLDATACOPY ADD ADD MSTORE JUMP INVALID LOG2 PUSH5 0x6970667358 0x22 SLT KECCAK256 EXP BALANCE PUSH16 0x936EF9EA57466EF25716A7FCA284CDB2 0xE6 SWAP13 DUP3 PUSH2 0x75DF ADDMOD PUSH23 0x9D1CEB37C364736F6C6343000819003300000000000000 "},"methodIdentifiers":{"factory()":"c45a0155","getMetadata(address)":"2a50c146","setMetadata(address,string,string,string,string,string,string)":"8c41690b"}},"storageLayout":{"storage":[{"astId":11351,"contract":"contracts/MetadataRegistry.sol:IronLockMetadataRegistry","label":"_metadata","offset":0,"slot":"0","type":"t_mapping(t_address,t_struct(TokenMetadata)11343_storage)"}],"types":{"t_address":{"encoding":"inplace","label":"address","numberOfBytes":"20"},"t_mapping(t_address,t_struct(TokenMetadata)11343_storage)":{"encoding":"mapping","key":"t_address","label":"mapping(address => struct IronLockMetadataRegistry.TokenMetadata)","numberOfBytes":"32","value":"t_struct(TokenMetadata)11343_storage"},"t_string_storage":{"encoding":"bytes","label":"string","numberOfBytes":"32"},"t_struct(TokenMetadata)11343_storage":{"encoding":"inplace","label":"struct IronLockMetadataRegistry.TokenMetadata","members":[{"astId":11332,"contract":"contracts/MetadataRegistry.sol:IronLockMetadataRegistry","label":"logoUrl","offset":0,"slot":"0","type":"t_string_storage"},{"astId":11334,"contract":"contracts/MetadataRegistry.sol:IronLockMetadataRegistry","label":"description","offset":0,"slot":"1","type":"t_string_storage"},{"astId":11336,"contract":"contracts/MetadataRegistry.sol:IronLockMetadataRegistry","label":"website","offset":0,"slot":"2","type":"t_string_storage"},{"astId":11338,"contract":"contracts/MetadataRegistry.sol:IronLockMetadataRegistry","label":"twitter","offset":0,"slot":"3","type":"t_string_storage"},{"astId":11340,"contract":"contracts/MetadataRegistry.sol:IronLockMetadataRegistry","label":"telegram","offset":0,"slot":"4","type":"t_string_storage"},{"astId":11342,"contract":"contracts/MetadataRegistry.sol:IronLockMetadataRegistry","label":"category","offset":0,"slot":"5","type":"t_string_storage"}],"numberOfBytes":"192"}}}}}}