{"contracts/IronLockToken.sol":{"IronLockToken":{"abi":[{"inputs":[{"internalType":"string","name":"name_","type":"string"},{"internalType":"string","name":"symbol_","type":"string"},{"internalType":"uint256","name":"totalSupply_","type":"uint256"},{"internalType":"address","name":"factory_","type":"address"}],"stateMutability":"nonpayable","type":"constructor"},{"inputs":[{"internalType":"address","name":"spender","type":"address"},{"internalType":"uint256","name":"allowance","type":"uint256"},{"internalType":"uint256","name":"needed","type":"uint256"}],"name":"ERC20InsufficientAllowance","type":"error"},{"inputs":[{"internalType":"address","name":"sender","type":"address"},{"internalType":"uint256","name":"balance","type":"uint256"},{"internalType":"uint256","name":"needed","type":"uint256"}],"name":"ERC20InsufficientBalance","type":"error"},{"inputs":[{"internalType":"address","name":"approver","type":"address"}],"name":"ERC20InvalidApprover","type":"error"},{"inputs":[{"internalType":"address","name":"receiver","type":"address"}],"name":"ERC20InvalidReceiver","type":"error"},{"inputs":[{"internalType":"address","name":"sender","type":"address"}],"name":"ERC20InvalidSender","type":"error"},{"inputs":[{"internalType":"address","name":"spender","type":"address"}],"name":"ERC20InvalidSpender","type":"error"},{"inputs":[{"internalType":"address","name":"owner","type":"address"}],"name":"OwnableInvalidOwner","type":"error"},{"inputs":[{"internalType":"address","name":"account","type":"address"}],"name":"OwnableUnauthorizedAccount","type":"error"},{"anonymous":false,"inputs":[{"indexed":false,"internalType":"uint256","name":"endTime","type":"uint256"}],"name":"AntiSnipeUpdated","type":"event"},{"anonymous":false,"inputs":[{"indexed":true,"internalType":"address","name":"owner","type":"address"},{"indexed":true,"internalType":"address","name":"spender","type":"address"},{"indexed":false,"internalType":"uint256","name":"value","type":"uint256"}],"name":"Approval","type":"event"},{"anonymous":false,"inputs":[{"indexed":true,"internalType":"address","name":"dev_","type":"address"},{"indexed":false,"internalType":"uint256","name":"amount","type":"uint256"},{"indexed":false,"internalType":"uint256","name":"vestingStart_","type":"uint256"},{"indexed":false,"internalType":"uint256","name":"vestingDuration_","type":"uint256"},{"indexed":false,"internalType":"uint16","name":"dailySellCapBps_","type":"uint16"}],"name":"DevAllocationSet","type":"event"},{"anonymous":false,"inputs":[{"indexed":false,"internalType":"address","name":"from","type":"address"},{"indexed":false,"internalType":"address","name":"to","type":"address"},{"indexed":false,"internalType":"uint256","name":"amount","type":"uint256"},{"indexed":false,"internalType":"string","name":"reason","type":"string"}],"name":"DevTransferBlocked","type":"event"},{"anonymous":false,"inputs":[{"indexed":true,"internalType":"address","name":"previousOwner","type":"address"},{"indexed":true,"internalType":"address","name":"newOwner","type":"address"}],"name":"OwnershipTransferred","type":"event"},{"anonymous":false,"inputs":[{"indexed":true,"internalType":"address","name":"from","type":"address"},{"indexed":true,"internalType":"address","name":"to","type":"address"},{"indexed":false,"internalType":"uint256","name":"value","type":"uint256"}],"name":"Transfer","type":"event"},{"inputs":[{"internalType":"address","name":"owner","type":"address"},{"internalType":"address","name":"spender","type":"address"}],"name":"allowance","outputs":[{"internalType":"uint256","name":"","type":"uint256"}],"stateMutability":"view","type":"function"},{"inputs":[],"name":"antiSnipeEnd","outputs":[{"internalType":"uint256","name":"","type":"uint256"}],"stateMutability":"view","type":"function"},{"inputs":[{"internalType":"address","name":"spender","type":"address"},{"internalType":"uint256","name":"value","type":"uint256"}],"name":"approve","outputs":[{"internalType":"bool","name":"","type":"bool"}],"stateMutability":"nonpayable","type":"function"},{"inputs":[{"internalType":"address","name":"account","type":"address"}],"name":"balanceOf","outputs":[{"internalType":"uint256","name":"","type":"uint256"}],"stateMutability":"view","type":"function"},{"inputs":[{"internalType":"uint256","name":"value","type":"uint256"}],"name":"burn","outputs":[],"stateMutability":"nonpayable","type":"function"},{"inputs":[{"internalType":"address","name":"account","type":"address"},{"internalType":"uint256","name":"value","type":"uint256"}],"name":"burnFrom","outputs":[],"stateMutability":"nonpayable","type":"function"},{"inputs":[],"name":"dailySellCapBps","outputs":[{"internalType":"uint16","name":"","type":"uint16"}],"stateMutability":"view","type":"function"},{"inputs":[],"name":"decimals","outputs":[{"internalType":"uint8","name":"","type":"uint8"}],"stateMutability":"view","type":"function"},{"inputs":[],"name":"dev","outputs":[{"internalType":"address","name":"","type":"address"}],"stateMutability":"view","type":"function"},{"inputs":[],"name":"devAllocation","outputs":[{"internalType":"uint256","name":"","type":"uint256"}],"stateMutability":"view","type":"function"},{"inputs":[],"name":"devSoldToday","outputs":[{"internalType":"uint256","name":"","type":"uint256"}],"stateMutability":"view","type":"function"},{"inputs":[{"internalType":"address","name":"to","type":"address"},{"internalType":"uint256","name":"amount","type":"uint256"}],"name":"factoryTransfer","outputs":[],"stateMutability":"nonpayable","type":"function"},{"inputs":[],"name":"lastDailyReset","outputs":[{"internalType":"uint256","name":"","type":"uint256"}],"stateMutability":"view","type":"function"},{"inputs":[{"internalType":"address","name":"to","type":"address"},{"internalType":"uint256","name":"amount","type":"uint256"}],"name":"mint","outputs":[],"stateMutability":"nonpayable","type":"function"},{"inputs":[],"name":"name","outputs":[{"internalType":"string","name":"","type":"string"}],"stateMutability":"view","type":"function"},{"inputs":[],"name":"owner","outputs":[{"internalType":"address","name":"","type":"address"}],"stateMutability":"view","type":"function"},{"inputs":[],"name":"renounceOwnership","outputs":[],"stateMutability":"nonpayable","type":"function"},{"inputs":[{"internalType":"uint256","name":"endTime","type":"uint256"}],"name":"setAntiSnipe","outputs":[],"stateMutability":"nonpayable","type":"function"},{"inputs":[{"internalType":"address","name":"dev_","type":"address"},{"internalType":"uint256","name":"amount","type":"uint256"},{"internalType":"uint256","name":"vestingStart_","type":"uint256"},{"internalType":"uint256","name":"vestingDuration_","type":"uint256"},{"internalType":"uint16","name":"dailySellCapBps_","type":"uint16"}],"name":"setDevAllocation","outputs":[],"stateMutability":"nonpayable","type":"function"},{"inputs":[],"name":"symbol","outputs":[{"internalType":"string","name":"","type":"string"}],"stateMutability":"view","type":"function"},{"inputs":[],"name":"totalSupply","outputs":[{"internalType":"uint256","name":"","type":"uint256"}],"stateMutability":"view","type":"function"},{"inputs":[{"internalType":"address","name":"to","type":"address"},{"internalType":"uint256","name":"value","type":"uint256"}],"name":"transfer","outputs":[{"internalType":"bool","name":"","type":"bool"}],"stateMutability":"nonpayable","type":"function"},{"inputs":[{"internalType":"address","name":"from","type":"address"},{"internalType":"address","name":"to","type":"address"},{"internalType":"uint256","name":"value","type":"uint256"}],"name":"transferFrom","outputs":[{"internalType":"bool","name":"","type":"bool"}],"stateMutability":"nonpayable","type":"function"},{"inputs":[{"internalType":"address","name":"newOwner","type":"address"}],"name":"transferOwnership","outputs":[],"stateMutability":"nonpayable","type":"function"},{"inputs":[],"name":"vestedAmount","outputs":[{"internalType":"uint256","name":"","type":"uint256"}],"stateMutability":"view","type":"function"},{"inputs":[],"name":"vestingDuration","outputs":[{"internalType":"uint256","name":"","type":"uint256"}],"stateMutability":"view","type":"function"},{"inputs":[],"name":"vestingStart","outputs":[{"internalType":"uint256","name":"","type":"uint256"}],"stateMutability":"view","type":"function"}],"evm":{"bytecode":{"linkReferences":{},"object":"604060808152346103c5576115948038038061001a816103c9565b92833981016080828203126103c55781516001600160401b03908181116103c557826100479185016103ee565b9060209283850151908282116103c5576100629186016103ee565b8585015160609095015190926001600160a01b0392838316928390036103c55781518181116102da576003908154906001948583811c931680156103bb575b8a8410146103a7578190601f93848111610359575b508a908483116001146102f9575f926102ee575b50505f1982851b1c191690851b1782555b86519283116102da5760049687548581811c911680156102d0575b8a8210146102bd5782811161027a575b5088918411600114610218579383949184925f9561020d575b50501b925f19911b1c19161783555b80156101f757600580546001600160a01b031981168317909155865192167f8be0079c531659141344cd1fd0a4f28419497f9722a3daafe3b4186f6b6457e05f80a330156101e45750600254908382018092116101d157505f917fddf252ad1be2c89b69c2b068fc378daa952ba7f163c4a11628f55a4df523b3ef9160025530835282815284832084815401905584519384523093a35161115490816104408239f35b601190634e487b7160e01b5f525260245ffd5b5f60249263ec442f0560e01b8352820152fd5b8551631e4fbdf760e01b81525f81850152602490fd5b015193505f8061011f565b9190601f19841692885f52848a5f20945f5b8c89838310610263575050501061024a575b50505050811b01835561012e565b01519060f8845f19921b161c191690555f80808061023c565b86860151895590970196948501948893500161022a565b885f52895f208380870160051c8201928c88106102b4575b0160051c019086905b8281106102a9575050610106565b5f815501869061029b565b92508192610292565b602289634e487b7160e01b5f525260245ffd5b90607f16906100f6565b634e487b7160e01b5f52604160045260245ffd5b015190505f806100ca565b5f8681528c8120899550929190601f198516908e5b828210610342575050841161032b575b505050811b0182556100db565b01515f1983871b60f8161c191690555f808061031e565b8385015186558b979095019493840193018e61030e565b909150845f528a5f208480850160051c8201928d861061039e575b918991869594930160051c01915b8281106103905750506100b6565b5f8155859450899101610382565b92508192610374565b634e487b7160e01b5f52602260045260245ffd5b92607f16926100a1565b5f80fd5b6040519190601f01601f191682016001600160401b038111838210176102da57604052565b81601f820112156103c5578051906001600160401b0382116102da5761041d601f8301601f19166020016103c9565b92828452602083830101116103c557815f9260208093018386015e830101529056fe608060409080825260049081361015610016575f80fd5b5f3560e01c90816306fdde03146108a857508063095ea7b3146107ff5780630e48fb1c146107e15780630feafb4e146107b45780631514617e1461079657806318160ddd1461077857806323b872dd1461073c578063254800d41461071e578063274c5f52146106d2578063313ce567146106b75780633608fe0c1461056c57806340c10f19146104e757806342966c68146104ca57806344b1231f146104ae5780634c20179e146104905780636d515c9f1461047257806370a0823114610446578063710820ed14610424578063715018a6146103dc57806379cc6790146103ab5780638da5cb5b1461038357806391cca3db1461035b57806395d89b4114610258578063a9059cbb14610228578063b4a7a1871461020a578063dd62ed3e146101c15763f2fde38b14610149575f80fd5b346101bd5760203660031901126101bd576101626109aa565b9061016b6109f0565b6001600160a01b039182169283156101a7575050600580546001600160a01b031981168417909155165f805160206110bf8339815191525f80a3005b905f6024925191631e4fbdf760e01b8352820152fd5b5f80fd5b82346101bd57806003193601126101bd576020906101dd6109aa565b6101e56109c0565b9060018060a01b038091165f5260018452825f2091165f528252805f20549051908152f35b82346101bd575f3660031901126101bd57602090600d549051908152f35b82346101bd57806003193601126101bd576020906102516102476109aa565b6024359033610a1c565b5160018152f35b5090346101bd575f3660031901126101bd578051905f835460018160011c9060018316928315610351575b602093848410811461033e5783885290811561032257506001146102ea575b505050829003601f01601f19168201926001600160401b038411838510176102d757508291826102d3925282610980565b0390f35b604190634e487b7160e01b5f525260245ffd5b919250855f52825f2091835f935b83851061030e57505050508301015f80806102a2565b8054888601830152930192849082016102f8565b60ff1916878501525050151560051b84010190505f80806102a2565b602289634e487b7160e01b5f525260245ffd5b91607f1691610283565b82346101bd575f3660031901126101bd5760065490516001600160a01b039091168152602090f35b82346101bd575f3660031901126101bd5760055490516001600160a01b039091168152602090f35b82346101bd573660031901126101bd576103da6103c66109aa565b602435906103d5823383610a8e565b610b4d565b005b346101bd575f3660031901126101bd576103f46109f0565b600580546001600160a01b031981169091555f906001600160a01b03165f805160206110bf8339815191528280a3005b82346101bd575f3660031901126101bd5760209061ffff600b54169051908152f35b82346101bd5760203660031901126101bd5760209061046b6104666109aa565b6109d6565b9051908152f35b82346101bd575f3660031901126101bd57602090600c549051908152f35b82346101bd575f3660031901126101bd576020906008549051908152f35b82346101bd575f3660031901126101bd5760209061046b610ba7565b50346101bd5760203660031901126101bd576103da903533610b4d565b5090346101bd57806003193601126101bd576105016109aa565b906024359161050e6109f0565b6001600160a01b031692831561055757506020825f805160206110df8339815191529261053e5f95600254610b66565b60025585855284835280852082815401905551908152a3005b5f602492519163ec442f0560e01b8352820152fd5b50346101bd5760a03660031901126101bd576105866109aa565b60243590604435606435906084359261ffff84168094036101bd576105a96109f0565b600654906001600160a01b0390818316610674571695861561063157506001600160a01b031916851760065560088490556009819055600a829055600b805461ffff191684179055600d819055855193845260208401528285015260608201527fa081934bdd1ce0c982f003f443899b864936fcb9d9df105ca79a618fe3b03f2f90608090a2005b606490602089519162461bcd60e51b8352820152601f60248201527f49726f6e4c6f636b546f6b656e3a205a65726f206465762061646472657373006044820152fd5b885162461bcd60e51b81526020818a0152601e60248201527f49726f6e4c6f636b546f6b656e3a2044657620616c72656164792073657400006044820152606490fd5b82346101bd575f3660031901126101bd576020905160128152f35b50346101bd5760203660031901126101bd577ff8cc6c80b57c6abe70b0fdada2b8c21e6f11779d0efbf266f0b87f38c149bc509160209135906107136109f0565b8160075551908152a1005b82346101bd575f3660031901126101bd576020906009549051908152f35b82346101bd5760603660031901126101bd5760209061025161075c6109aa565b6107646109c0565b60443591610773833383610a8e565b610a1c565b82346101bd575f3660031901126101bd576020906002549051908152f35b82346101bd575f3660031901126101bd57602090600a549051908152f35b82346101bd573660031901126101bd576103da6107cf6109aa565b6107d76109f0565b6024359030610a1c565b82346101bd575f3660031901126101bd576020906007549051908152f35b5090346101bd57806003193601126101bd576108196109aa565b602435903315610892576001600160a01b031690811561087c5760209350335f5260018452825f20825f52845280835f205582519081527f8c5be1e5ebec7d5bd14f71427d1e84f3dd0314c0f7b2291e5b200ac8c7c3b925843392a35160018152f35b8251634a1406b160e11b81525f81860152602490fd5b825163e602df0560e01b81525f81860152602490fd5b905082346101bd575f3660031901126101bd575f60035460018160011c9060018316928315610976575b602093848410811461033e5783885290811561095a575060011461092157505050829003601f01601f19168201926001600160401b038411838510176102d757508291826102d3925282610980565b91925060035f52825f2091835f935b83851061094657505050508301018480806102a2565b805488860183015293019284908201610930565b60ff1916878501525050151560051b84010190508480806102a2565b91607f16916108d2565b602060409281835280519182918282860152018484015e5f828201840152601f01601f1916010190565b600435906001600160a01b03821682036101bd57565b602435906001600160a01b03821682036101bd57565b6001600160a01b03165f9081526020819052604090205490565b6005546001600160a01b03163303610a0457565b60405163118cdaa760e01b8152336004820152602490fd5b91906001600160a01b0380841615610a5857811615610a4057610a3e92610d9d565b565b60405163ec442f0560e01b81525f6004820152602490fd5b604051634b637e8f60e11b81525f6004820152602490fd5b604091949392606082019560018060a01b0316825260208201520152565b919060018060a01b0380931692835f526001602052604093845f2091831691825f52602052845f2054925f198410610ac9575b505050505050565b848410610b2b57508015610b14578115610afd575f526001602052835f20905f5260205203905f20555f8080808080610ac1565b8451634a1406b160e11b81525f6004820152602490fd5b845163e602df0560e01b81525f6004820152602490fd5b8390610b49868851938493637dc7a0d960e11b855260048501610a70565b0390fd5b906001600160a01b03821615610a5857610a3e91610c08565b91908201809211610b7357565b634e487b7160e01b5f52601160045260245ffd5b91908203918211610b7357565b81810292918115918404141715610b7357565b600954804210610c0357600a5490610bbf8282610b66565b421015610bfb57610bdd90610bd76008549142610b87565b90610b94565b8115610be7570490565b634e487b7160e01b5f52601260045260245ffd5b505060085490565b505f90565b6001600160a01b038181169081158015610d95575b610c33576006541680821480610d8a575b610c3f575b505090610a3e91610f41565b600d54620151808101809111610b7357421015610d7d575b610c68610c62610ba7565b916109d6565b80821015610d755750905b612710610c8960085461ffff600b541690610b94565b0491600c5492838082115f14610d6d57610ca291610b87565b80821015610d6657505b8411610ccd575090610cc283610a3e9493610b66565b600c5590915f610c33565b60c05f805160206110ff83398151915291856040519182525f6020830152604082015260806060820152601a608082015279115e18d959591cc819195d881d1c985b9cd9995c881b1a5b5a5d60321b60a0820152a160405162461bcd60e51b815260206004820152602960248201525f8051602061109f83398151915260448201526819995c881b1a5b5a5d60ba1b6064820152608490fd5b9050610cac565b50505f610ca2565b905090610c73565b5f600c5542600d55610c57565b506008541515610c2e565b506001610c1d565b6001600160a01b039392919084811680158015610f37575b610f2b57856006541680821480610f20575b610dd9575b5050610a3e939450610fe3565b600d54620151808101809111610b7357421015610f13575b610dfc610c62610ba7565b80821015610f0b5750955b612710610e1d60085461ffff600b541690610b94565b0496600c5497888082115f14610f0357610e3691610b87565b80821015610efc57505b8511610e61575050610e5683610a3e9596610b66565b600c5584935f610dcc565b5f805160206110ff833981519152918560c09286604051938452166020830152604082015260806060820152601a608082015279115e18d959591cc819195d881d1c985b9cd9995c881b1a5b5a5d60321b60a0820152a160405162461bcd60e51b815260206004820152602960248201525f8051602061109f83398151915260448201526819995c881b1a5b5a5d60ba1b6064820152608490fd5b9050610e40565b50505f610e36565b905095610e07565b5f600c5542600d55610df1565b506008541515610dc7565b50610a3e939450610fe3565b5085831615610db5565b9091906001600160a01b0381169081610f8957505f805160206110df833981519152602084610f745f9596600254610b66565b6002555b8060025403600255604051908152a3565b92815f525f60205260405f205493818510610fc557506020815f805160206110df833981519152925f9596858752868452036040862055610f78565b610b49859260405193849363391434e360e21b855260048501610a70565b6001600160a01b038082169290918361104757505f805160206110df8339815191529160209161101586600254610b66565b6002555b1693846110325780600254036002555b604051908152a3565b845f525f825260405f20818154019055611029565b835f525f60205260405f205490858210611081575091602091855f805160206110df83398151915294865f525f85520360405f2055611019565b610b498660405193849363391434e360e21b855260048501610a7056fe49726f6e4c6f636b546f6b656e3a204578636565647320646576207472616e738be0079c531659141344cd1fd0a4f28419497f9722a3daafe3b4186f6b6457e0ddf252ad1be2c89b69c2b068fc378daa952ba7f163c4a11628f55a4df523b3ef2b08c6f86b1a55f24e77e45bc6c9c3d6aac5d17fc6e7fb5a954bc01345d0b1dea2646970667358221220d2749a0f8ded50f90c25917f4d2ac978f475054797fb7f72cf5c7eebba1d07d164736f6c63430008190033","opcodes":"PUSH1 0x40 PUSH1 0x80 DUP2 MSTORE CALLVALUE PUSH2 0x3C5 JUMPI PUSH2 0x1594 DUP1 CODESIZE SUB DUP1 PUSH2 0x1A DUP2 PUSH2 0x3C9 JUMP JUMPDEST SWAP3 DUP4 CODECOPY DUP2 ADD PUSH1 0x80 DUP3 DUP3 SUB SLT PUSH2 0x3C5 JUMPI DUP2 MLOAD PUSH1 0x1 PUSH1 0x1 PUSH1 0x40 SHL SUB SWAP1 DUP2 DUP2 GT PUSH2 0x3C5 JUMPI DUP3 PUSH2 0x47 SWAP2 DUP6 ADD PUSH2 0x3EE JUMP JUMPDEST SWAP1 PUSH1 0x20 SWAP3 DUP4 DUP6 ADD MLOAD SWAP1 DUP3 DUP3 GT PUSH2 0x3C5 JUMPI PUSH2 0x62 SWAP2 DUP7 ADD PUSH2 0x3EE JUMP JUMPDEST DUP6 DUP6 ADD MLOAD PUSH1 0x60 SWAP1 SWAP6 ADD MLOAD SWAP1 SWAP3 PUSH1 0x1 PUSH1 0x1 PUSH1 0xA0 SHL SUB SWAP3 DUP4 DUP4 AND SWAP3 DUP4 SWAP1 SUB PUSH2 0x3C5 JUMPI DUP2 MLOAD DUP2 DUP2 GT PUSH2 0x2DA JUMPI PUSH1 0x3 SWAP1 DUP2 SLOAD SWAP1 PUSH1 0x1 SWAP5 DUP6 DUP4 DUP2 SHR SWAP4 AND DUP1 ISZERO PUSH2 0x3BB JUMPI JUMPDEST DUP11 DUP5 LT EQ PUSH2 0x3A7 JUMPI DUP2 SWAP1 PUSH1 0x1F SWAP4 DUP5 DUP2 GT PUSH2 0x359 JUMPI JUMPDEST POP DUP11 SWAP1 DUP5 DUP4 GT PUSH1 0x1 EQ PUSH2 0x2F9 JUMPI PUSH0 SWAP3 PUSH2 0x2EE JUMPI JUMPDEST POP POP PUSH0 NOT DUP3 DUP6 SHL SHR NOT AND SWAP1 DUP6 SHL OR DUP3 SSTORE JUMPDEST DUP7 MLOAD SWAP3 DUP4 GT PUSH2 0x2DA JUMPI PUSH1 0x4 SWAP7 DUP8 SLOAD DUP6 DUP2 DUP2 SHR SWAP2 AND DUP1 ISZERO PUSH2 0x2D0 JUMPI JUMPDEST DUP11 DUP3 LT EQ PUSH2 0x2BD JUMPI DUP3 DUP2 GT PUSH2 0x27A JUMPI JUMPDEST POP DUP9 SWAP2 DUP5 GT PUSH1 0x1 EQ PUSH2 0x218 JUMPI SWAP4 DUP4 SWAP5 SWAP2 DUP5 SWAP3 PUSH0 SWAP6 PUSH2 0x20D JUMPI JUMPDEST POP POP SHL SWAP3 PUSH0 NOT SWAP2 SHL SHR NOT AND OR DUP4 SSTORE JUMPDEST DUP1 ISZERO PUSH2 0x1F7 JUMPI PUSH1 0x5 DUP1 SLOAD PUSH1 0x1 PUSH1 0x1 PUSH1 0xA0 SHL SUB NOT DUP2 AND DUP4 OR SWAP1 SWAP2 SSTORE DUP7 MLOAD SWAP3 AND PUSH32 0x8BE0079C531659141344CD1FD0A4F28419497F9722A3DAAFE3B4186F6B6457E0 PUSH0 DUP1 LOG3 ADDRESS ISZERO PUSH2 0x1E4 JUMPI POP PUSH1 0x2 SLOAD SWAP1 DUP4 DUP3 ADD DUP1 SWAP3 GT PUSH2 0x1D1 JUMPI POP PUSH0 SWAP2 PUSH32 0xDDF252AD1BE2C89B69C2B068FC378DAA952BA7F163C4A11628F55A4DF523B3EF SWAP2 PUSH1 0x2 SSTORE ADDRESS DUP4 MSTORE DUP3 DUP2 MSTORE DUP5 DUP4 KECCAK256 DUP5 DUP2 SLOAD ADD SWAP1 SSTORE DUP5 MLOAD SWAP4 DUP5 MSTORE ADDRESS SWAP4 LOG3 MLOAD PUSH2 0x1154 SWAP1 DUP2 PUSH2 0x440 DUP3 CODECOPY RETURN JUMPDEST PUSH1 0x11 SWAP1 PUSH4 0x4E487B71 PUSH1 0xE0 SHL PUSH0 MSTORE MSTORE PUSH1 0x24 PUSH0 REVERT JUMPDEST PUSH0 PUSH1 0x24 SWAP3 PUSH4 0xEC442F05 PUSH1 0xE0 SHL DUP4 MSTORE DUP3 ADD MSTORE REVERT JUMPDEST DUP6 MLOAD PUSH4 0x1E4FBDF7 PUSH1 0xE0 SHL DUP2 MSTORE PUSH0 DUP2 DUP6 ADD MSTORE PUSH1 0x24 SWAP1 REVERT JUMPDEST ADD MLOAD SWAP4 POP PUSH0 DUP1 PUSH2 0x11F JUMP JUMPDEST SWAP2 SWAP1 PUSH1 0x1F NOT DUP5 AND SWAP3 DUP9 PUSH0 MSTORE DUP5 DUP11 PUSH0 KECCAK256 SWAP5 PUSH0 JUMPDEST DUP13 DUP10 DUP4 DUP4 LT PUSH2 0x263 JUMPI POP POP POP LT PUSH2 0x24A JUMPI JUMPDEST POP POP POP POP DUP2 SHL ADD DUP4 SSTORE PUSH2 0x12E JUMP JUMPDEST ADD MLOAD SWAP1 PUSH1 0xF8 DUP5 PUSH0 NOT SWAP3 SHL AND SHR NOT AND SWAP1 SSTORE PUSH0 DUP1 DUP1 DUP1 PUSH2 0x23C JUMP JUMPDEST DUP7 DUP7 ADD MLOAD DUP10 SSTORE SWAP1 SWAP8 ADD SWAP7 SWAP5 DUP6 ADD SWAP5 DUP9 SWAP4 POP ADD PUSH2 0x22A JUMP JUMPDEST DUP9 PUSH0 MSTORE DUP10 PUSH0 KECCAK256 DUP4 DUP1 DUP8 ADD PUSH1 0x5 SHR DUP3 ADD SWAP3 DUP13 DUP9 LT PUSH2 0x2B4 JUMPI JUMPDEST ADD PUSH1 0x5 SHR ADD SWAP1 DUP7 SWAP1 JUMPDEST DUP3 DUP2 LT PUSH2 0x2A9 JUMPI POP POP PUSH2 0x106 JUMP JUMPDEST PUSH0 DUP2 SSTORE ADD DUP7 SWAP1 PUSH2 0x29B JUMP JUMPDEST SWAP3 POP DUP2 SWAP3 PUSH2 0x292 JUMP JUMPDEST PUSH1 0x22 DUP10 PUSH4 0x4E487B71 PUSH1 0xE0 SHL PUSH0 MSTORE MSTORE PUSH1 0x24 PUSH0 REVERT JUMPDEST SWAP1 PUSH1 0x7F AND SWAP1 PUSH2 0xF6 JUMP JUMPDEST PUSH4 0x4E487B71 PUSH1 0xE0 SHL PUSH0 MSTORE PUSH1 0x41 PUSH1 0x4 MSTORE PUSH1 0x24 PUSH0 REVERT JUMPDEST ADD MLOAD SWAP1 POP PUSH0 DUP1 PUSH2 0xCA JUMP JUMPDEST PUSH0 DUP7 DUP2 MSTORE DUP13 DUP2 KECCAK256 DUP10 SWAP6 POP SWAP3 SWAP2 SWAP1 PUSH1 0x1F NOT DUP6 AND SWAP1 DUP15 JUMPDEST DUP3 DUP3 LT PUSH2 0x342 JUMPI POP POP DUP5 GT PUSH2 0x32B JUMPI JUMPDEST POP POP POP DUP2 SHL ADD DUP3 SSTORE PUSH2 0xDB JUMP JUMPDEST ADD MLOAD PUSH0 NOT DUP4 DUP8 SHL PUSH1 0xF8 AND SHR NOT AND SWAP1 SSTORE PUSH0 DUP1 DUP1 PUSH2 0x31E JUMP JUMPDEST DUP4 DUP6 ADD MLOAD DUP7 SSTORE DUP12 SWAP8 SWAP1 SWAP6 ADD SWAP5 SWAP4 DUP5 ADD SWAP4 ADD DUP15 PUSH2 0x30E JUMP JUMPDEST SWAP1 SWAP2 POP DUP5 PUSH0 MSTORE DUP11 PUSH0 KECCAK256 DUP5 DUP1 DUP6 ADD PUSH1 0x5 SHR DUP3 ADD SWAP3 DUP14 DUP7 LT PUSH2 0x39E JUMPI JUMPDEST SWAP2 DUP10 SWAP2 DUP7 SWAP6 SWAP5 SWAP4 ADD PUSH1 0x5 SHR ADD SWAP2 JUMPDEST DUP3 DUP2 LT PUSH2 0x390 JUMPI POP POP PUSH2 0xB6 JUMP JUMPDEST PUSH0 DUP2 SSTORE DUP6 SWAP5 POP DUP10 SWAP2 ADD PUSH2 0x382 JUMP JUMPDEST SWAP3 POP DUP2 SWAP3 PUSH2 0x374 JUMP JUMPDEST PUSH4 0x4E487B71 PUSH1 0xE0 SHL PUSH0 MSTORE PUSH1 0x22 PUSH1 0x4 MSTORE PUSH1 0x24 PUSH0 REVERT JUMPDEST SWAP3 PUSH1 0x7F AND SWAP3 PUSH2 0xA1 JUMP JUMPDEST PUSH0 DUP1 REVERT JUMPDEST PUSH1 0x40 MLOAD SWAP2 SWAP1 PUSH1 0x1F ADD PUSH1 0x1F NOT AND DUP3 ADD PUSH1 0x1 PUSH1 0x1 PUSH1 0x40 SHL SUB DUP2 GT DUP4 DUP3 LT OR PUSH2 0x2DA JUMPI PUSH1 0x40 MSTORE JUMP JUMPDEST DUP2 PUSH1 0x1F DUP3 ADD SLT ISZERO PUSH2 0x3C5 JUMPI DUP1 MLOAD SWAP1 PUSH1 0x1 PUSH1 0x1 PUSH1 0x40 SHL SUB DUP3 GT PUSH2 0x2DA JUMPI PUSH2 0x41D PUSH1 0x1F DUP4 ADD PUSH1 0x1F NOT AND PUSH1 0x20 ADD PUSH2 0x3C9 JUMP JUMPDEST SWAP3 DUP3 DUP5 MSTORE PUSH1 0x20 DUP4 DUP4 ADD ADD GT PUSH2 0x3C5 JUMPI DUP2 PUSH0 SWAP3 PUSH1 0x20 DUP1 SWAP4 ADD DUP4 DUP7 ADD MCOPY DUP4 ADD ADD MSTORE SWAP1 JUMP INVALID PUSH1 0x80 PUSH1 0x40 SWAP1 DUP1 DUP3 MSTORE PUSH1 0x4 SWAP1 DUP2 CALLDATASIZE LT ISZERO PUSH2 0x16 JUMPI PUSH0 DUP1 REVERT JUMPDEST PUSH0 CALLDATALOAD PUSH1 0xE0 SHR SWAP1 DUP2 PUSH4 0x6FDDE03 EQ PUSH2 0x8A8 JUMPI POP DUP1 PUSH4 0x95EA7B3 EQ PUSH2 0x7FF JUMPI DUP1 PUSH4 0xE48FB1C EQ PUSH2 0x7E1 JUMPI DUP1 PUSH4 0xFEAFB4E EQ PUSH2 0x7B4 JUMPI DUP1 PUSH4 0x1514617E EQ PUSH2 0x796 JUMPI DUP1 PUSH4 0x18160DDD EQ PUSH2 0x778 JUMPI DUP1 PUSH4 0x23B872DD EQ PUSH2 0x73C JUMPI DUP1 PUSH4 0x254800D4 EQ PUSH2 0x71E JUMPI DUP1 PUSH4 0x274C5F52 EQ PUSH2 0x6D2 JUMPI DUP1 PUSH4 0x313CE567 EQ PUSH2 0x6B7 JUMPI DUP1 PUSH4 0x3608FE0C EQ PUSH2 0x56C JUMPI DUP1 PUSH4 0x40C10F19 EQ PUSH2 0x4E7 JUMPI DUP1 PUSH4 0x42966C68 EQ PUSH2 0x4CA JUMPI DUP1 PUSH4 0x44B1231F EQ PUSH2 0x4AE JUMPI DUP1 PUSH4 0x4C20179E EQ PUSH2 0x490 JUMPI DUP1 PUSH4 0x6D515C9F EQ PUSH2 0x472 JUMPI DUP1 PUSH4 0x70A08231 EQ PUSH2 0x446 JUMPI DUP1 PUSH4 0x710820ED EQ PUSH2 0x424 JUMPI DUP1 PUSH4 0x715018A6 EQ PUSH2 0x3DC JUMPI DUP1 PUSH4 0x79CC6790 EQ PUSH2 0x3AB JUMPI DUP1 PUSH4 0x8DA5CB5B EQ PUSH2 0x383 JUMPI DUP1 PUSH4 0x91CCA3DB EQ PUSH2 0x35B JUMPI DUP1 PUSH4 0x95D89B41 EQ PUSH2 0x258 JUMPI DUP1 PUSH4 0xA9059CBB EQ PUSH2 0x228 JUMPI DUP1 PUSH4 0xB4A7A187 EQ PUSH2 0x20A JUMPI DUP1 PUSH4 0xDD62ED3E EQ PUSH2 0x1C1 JUMPI PUSH4 0xF2FDE38B EQ PUSH2 0x149 JUMPI PUSH0 DUP1 REVERT JUMPDEST CALLVALUE PUSH2 0x1BD JUMPI PUSH1 0x20 CALLDATASIZE PUSH1 0x3 NOT ADD SLT PUSH2 0x1BD JUMPI PUSH2 0x162 PUSH2 0x9AA JUMP JUMPDEST SWAP1 PUSH2 0x16B PUSH2 0x9F0 JUMP JUMPDEST PUSH1 0x1 PUSH1 0x1 PUSH1 0xA0 SHL SUB SWAP2 DUP3 AND SWAP3 DUP4 ISZERO PUSH2 0x1A7 JUMPI POP POP PUSH1 0x5 DUP1 SLOAD PUSH1 0x1 PUSH1 0x1 PUSH1 0xA0 SHL SUB NOT DUP2 AND DUP5 OR SWAP1 SWAP2 SSTORE AND PUSH0 DUP1 MLOAD PUSH1 0x20 PUSH2 0x10BF DUP4 CODECOPY DUP2 MLOAD SWAP2 MSTORE PUSH0 DUP1 LOG3 STOP JUMPDEST SWAP1 PUSH0 PUSH1 0x24 SWAP3 MLOAD SWAP2 PUSH4 0x1E4FBDF7 PUSH1 0xE0 SHL DUP4 MSTORE DUP3 ADD MSTORE REVERT JUMPDEST PUSH0 DUP1 REVERT JUMPDEST DUP3 CALLVALUE PUSH2 0x1BD JUMPI DUP1 PUSH1 0x3 NOT CALLDATASIZE ADD SLT PUSH2 0x1BD JUMPI PUSH1 0x20 SWAP1 PUSH2 0x1DD PUSH2 0x9AA JUMP JUMPDEST PUSH2 0x1E5 PUSH2 0x9C0 JUMP JUMPDEST SWAP1 PUSH1 0x1 DUP1 PUSH1 0xA0 SHL SUB DUP1 SWAP2 AND PUSH0 MSTORE PUSH1 0x1 DUP5 MSTORE DUP3 PUSH0 KECCAK256 SWAP2 AND PUSH0 MSTORE DUP3 MSTORE DUP1 PUSH0 KECCAK256 SLOAD SWAP1 MLOAD SWAP1 DUP2 MSTORE RETURN JUMPDEST DUP3 CALLVALUE PUSH2 0x1BD JUMPI PUSH0 CALLDATASIZE PUSH1 0x3 NOT ADD SLT PUSH2 0x1BD JUMPI PUSH1 0x20 SWAP1 PUSH1 0xD SLOAD SWAP1 MLOAD SWAP1 DUP2 MSTORE RETURN JUMPDEST DUP3 CALLVALUE PUSH2 0x1BD JUMPI DUP1 PUSH1 0x3 NOT CALLDATASIZE ADD SLT PUSH2 0x1BD JUMPI PUSH1 0x20 SWAP1 PUSH2 0x251 PUSH2 0x247 PUSH2 0x9AA JUMP JUMPDEST PUSH1 0x24 CALLDATALOAD SWAP1 CALLER PUSH2 0xA1C JUMP JUMPDEST MLOAD PUSH1 0x1 DUP2 MSTORE RETURN JUMPDEST POP SWAP1 CALLVALUE PUSH2 0x1BD JUMPI PUSH0 CALLDATASIZE PUSH1 0x3 NOT ADD SLT PUSH2 0x1BD JUMPI DUP1 MLOAD SWAP1 PUSH0 DUP4 SLOAD PUSH1 0x1 DUP2 PUSH1 0x1 SHR SWAP1 PUSH1 0x1 DUP4 AND SWAP3 DUP4 ISZERO PUSH2 0x351 JUMPI JUMPDEST PUSH1 0x20 SWAP4 DUP5 DUP5 LT DUP2 EQ PUSH2 0x33E JUMPI DUP4 DUP9 MSTORE SWAP1 DUP2 ISZERO PUSH2 0x322 JUMPI POP PUSH1 0x1 EQ PUSH2 0x2EA JUMPI JUMPDEST POP POP POP DUP3 SWAP1 SUB PUSH1 0x1F ADD PUSH1 0x1F NOT AND DUP3 ADD SWAP3 PUSH1 0x1 PUSH1 0x1 PUSH1 0x40 SHL SUB DUP5 GT DUP4 DUP6 LT OR PUSH2 0x2D7 JUMPI POP DUP3 SWAP2 DUP3 PUSH2 0x2D3 SWAP3 MSTORE DUP3 PUSH2 0x980 JUMP JUMPDEST SUB SWAP1 RETURN JUMPDEST PUSH1 0x41 SWAP1 PUSH4 0x4E487B71 PUSH1 0xE0 SHL PUSH0 MSTORE MSTORE PUSH1 0x24 PUSH0 REVERT JUMPDEST SWAP2 SWAP3 POP DUP6 PUSH0 MSTORE DUP3 PUSH0 KECCAK256 SWAP2 DUP4 PUSH0 SWAP4 JUMPDEST DUP4 DUP6 LT PUSH2 0x30E JUMPI POP POP POP POP DUP4 ADD ADD PUSH0 DUP1 DUP1 PUSH2 0x2A2 JUMP JUMPDEST DUP1 SLOAD DUP9 DUP7 ADD DUP4 ADD MSTORE SWAP4 ADD SWAP3 DUP5 SWAP1 DUP3 ADD PUSH2 0x2F8 JUMP JUMPDEST PUSH1 0xFF NOT AND DUP8 DUP6 ADD MSTORE POP POP ISZERO ISZERO PUSH1 0x5 SHL DUP5 ADD ADD SWAP1 POP PUSH0 DUP1 DUP1 PUSH2 0x2A2 JUMP JUMPDEST PUSH1 0x22 DUP10 PUSH4 0x4E487B71 PUSH1 0xE0 SHL PUSH0 MSTORE MSTORE PUSH1 0x24 PUSH0 REVERT JUMPDEST SWAP2 PUSH1 0x7F AND SWAP2 PUSH2 0x283 JUMP JUMPDEST DUP3 CALLVALUE PUSH2 0x1BD JUMPI PUSH0 CALLDATASIZE PUSH1 0x3 NOT ADD SLT PUSH2 0x1BD JUMPI PUSH1 0x6 SLOAD SWAP1 MLOAD PUSH1 0x1 PUSH1 0x1 PUSH1 0xA0 SHL SUB SWAP1 SWAP2 AND DUP2 MSTORE PUSH1 0x20 SWAP1 RETURN JUMPDEST DUP3 CALLVALUE PUSH2 0x1BD JUMPI PUSH0 CALLDATASIZE PUSH1 0x3 NOT ADD SLT PUSH2 0x1BD JUMPI PUSH1 0x5 SLOAD SWAP1 MLOAD PUSH1 0x1 PUSH1 0x1 PUSH1 0xA0 SHL SUB SWAP1 SWAP2 AND DUP2 MSTORE PUSH1 0x20 SWAP1 RETURN JUMPDEST DUP3 CALLVALUE PUSH2 0x1BD JUMPI CALLDATASIZE PUSH1 0x3 NOT ADD SLT PUSH2 0x1BD JUMPI PUSH2 0x3DA PUSH2 0x3C6 PUSH2 0x9AA JUMP JUMPDEST PUSH1 0x24 CALLDATALOAD SWAP1 PUSH2 0x3D5 DUP3 CALLER DUP4 PUSH2 0xA8E JUMP JUMPDEST PUSH2 0xB4D JUMP JUMPDEST STOP JUMPDEST CALLVALUE PUSH2 0x1BD JUMPI PUSH0 CALLDATASIZE PUSH1 0x3 NOT ADD SLT PUSH2 0x1BD JUMPI PUSH2 0x3F4 PUSH2 0x9F0 JUMP JUMPDEST PUSH1 0x5 DUP1 SLOAD PUSH1 0x1 PUSH1 0x1 PUSH1 0xA0 SHL SUB NOT DUP2 AND SWAP1 SWAP2 SSTORE PUSH0 SWAP1 PUSH1 0x1 PUSH1 0x1 PUSH1 0xA0 SHL SUB AND PUSH0 DUP1 MLOAD PUSH1 0x20 PUSH2 0x10BF DUP4 CODECOPY DUP2 MLOAD SWAP2 MSTORE DUP3 DUP1 LOG3 STOP JUMPDEST DUP3 CALLVALUE PUSH2 0x1BD JUMPI PUSH0 CALLDATASIZE PUSH1 0x3 NOT ADD SLT PUSH2 0x1BD JUMPI PUSH1 0x20 SWAP1 PUSH2 0xFFFF PUSH1 0xB SLOAD AND SWAP1 MLOAD SWAP1 DUP2 MSTORE RETURN JUMPDEST DUP3 CALLVALUE PUSH2 0x1BD JUMPI PUSH1 0x20 CALLDATASIZE PUSH1 0x3 NOT ADD SLT PUSH2 0x1BD JUMPI PUSH1 0x20 SWAP1 PUSH2 0x46B PUSH2 0x466 PUSH2 0x9AA JUMP JUMPDEST PUSH2 0x9D6 JUMP JUMPDEST SWAP1 MLOAD SWAP1 DUP2 MSTORE RETURN JUMPDEST DUP3 CALLVALUE PUSH2 0x1BD JUMPI PUSH0 CALLDATASIZE PUSH1 0x3 NOT ADD SLT PUSH2 0x1BD JUMPI PUSH1 0x20 SWAP1 PUSH1 0xC SLOAD SWAP1 MLOAD SWAP1 DUP2 MSTORE RETURN JUMPDEST DUP3 CALLVALUE PUSH2 0x1BD JUMPI PUSH0 CALLDATASIZE PUSH1 0x3 NOT ADD SLT PUSH2 0x1BD JUMPI PUSH1 0x20 SWAP1 PUSH1 0x8 SLOAD SWAP1 MLOAD SWAP1 DUP2 MSTORE RETURN JUMPDEST DUP3 CALLVALUE PUSH2 0x1BD JUMPI PUSH0 CALLDATASIZE PUSH1 0x3 NOT ADD SLT PUSH2 0x1BD JUMPI PUSH1 0x20 SWAP1 PUSH2 0x46B PUSH2 0xBA7 JUMP JUMPDEST POP CALLVALUE PUSH2 0x1BD JUMPI PUSH1 0x20 CALLDATASIZE PUSH1 0x3 NOT ADD SLT PUSH2 0x1BD JUMPI PUSH2 0x3DA SWAP1 CALLDATALOAD CALLER PUSH2 0xB4D JUMP JUMPDEST POP SWAP1 CALLVALUE PUSH2 0x1BD JUMPI DUP1 PUSH1 0x3 NOT CALLDATASIZE ADD SLT PUSH2 0x1BD JUMPI PUSH2 0x501 PUSH2 0x9AA JUMP JUMPDEST SWAP1 PUSH1 0x24 CALLDATALOAD SWAP2 PUSH2 0x50E PUSH2 0x9F0 JUMP JUMPDEST PUSH1 0x1 PUSH1 0x1 PUSH1 0xA0 SHL SUB AND SWAP3 DUP4 ISZERO PUSH2 0x557 JUMPI POP PUSH1 0x20 DUP3 PUSH0 DUP1 MLOAD PUSH1 0x20 PUSH2 0x10DF DUP4 CODECOPY DUP2 MLOAD SWAP2 MSTORE SWAP3 PUSH2 0x53E PUSH0 SWAP6 PUSH1 0x2 SLOAD PUSH2 0xB66 JUMP JUMPDEST PUSH1 0x2 SSTORE DUP6 DUP6 MSTORE DUP5 DUP4 MSTORE DUP1 DUP6 KECCAK256 DUP3 DUP2 SLOAD ADD SWAP1 SSTORE MLOAD SWAP1 DUP2 MSTORE LOG3 STOP JUMPDEST PUSH0 PUSH1 0x24 SWAP3 MLOAD SWAP2 PUSH4 0xEC442F05 PUSH1 0xE0 SHL DUP4 MSTORE DUP3 ADD MSTORE REVERT JUMPDEST POP CALLVALUE PUSH2 0x1BD JUMPI PUSH1 0xA0 CALLDATASIZE PUSH1 0x3 NOT ADD SLT PUSH2 0x1BD JUMPI PUSH2 0x586 PUSH2 0x9AA JUMP JUMPDEST PUSH1 0x24 CALLDATALOAD SWAP1 PUSH1 0x44 CALLDATALOAD PUSH1 0x64 CALLDATALOAD SWAP1 PUSH1 0x84 CALLDATALOAD SWAP3 PUSH2 0xFFFF DUP5 AND DUP1 SWAP5 SUB PUSH2 0x1BD JUMPI PUSH2 0x5A9 PUSH2 0x9F0 JUMP JUMPDEST PUSH1 0x6 SLOAD SWAP1 PUSH1 0x1 PUSH1 0x1 PUSH1 0xA0 SHL SUB SWAP1 DUP2 DUP4 AND PUSH2 0x674 JUMPI AND SWAP6 DUP7 ISZERO PUSH2 0x631 JUMPI POP PUSH1 0x1 PUSH1 0x1 PUSH1 0xA0 SHL SUB NOT AND DUP6 OR PUSH1 0x6 SSTORE PUSH1 0x8 DUP5 SWAP1 SSTORE PUSH1 0x9 DUP2 SWAP1 SSTORE PUSH1 0xA DUP3 SWAP1 SSTORE PUSH1 0xB DUP1 SLOAD PUSH2 0xFFFF NOT AND DUP5 OR SWAP1 SSTORE PUSH1 0xD DUP2 SWAP1 SSTORE DUP6 MLOAD SWAP4 DUP5 MSTORE PUSH1 0x20 DUP5 ADD MSTORE DUP3 DUP6 ADD MSTORE PUSH1 0x60 DUP3 ADD MSTORE PUSH32 0xA081934BDD1CE0C982F003F443899B864936FCB9D9DF105CA79A618FE3B03F2F SWAP1 PUSH1 0x80 SWAP1 LOG2 STOP JUMPDEST PUSH1 0x64 SWAP1 PUSH1 0x20 DUP10 MLOAD SWAP2 PUSH3 0x461BCD PUSH1 0xE5 SHL DUP4 MSTORE DUP3 ADD MSTORE PUSH1 0x1F PUSH1 0x24 DUP3 ADD MSTORE PUSH32 0x49726F6E4C6F636B546F6B656E3A205A65726F20646576206164647265737300 PUSH1 0x44 DUP3 ADD MSTORE REVERT JUMPDEST DUP9 MLOAD PUSH3 0x461BCD PUSH1 0xE5 SHL DUP2 MSTORE PUSH1 0x20 DUP2 DUP11 ADD MSTORE PUSH1 0x1E PUSH1 0x24 DUP3 ADD MSTORE PUSH32 0x49726F6E4C6F636B546F6B656E3A2044657620616C7265616479207365740000 PUSH1 0x44 DUP3 ADD MSTORE PUSH1 0x64 SWAP1 REVERT JUMPDEST DUP3 CALLVALUE PUSH2 0x1BD JUMPI PUSH0 CALLDATASIZE PUSH1 0x3 NOT ADD SLT PUSH2 0x1BD JUMPI PUSH1 0x20 SWAP1 MLOAD PUSH1 0x12 DUP2 MSTORE RETURN JUMPDEST POP CALLVALUE PUSH2 0x1BD JUMPI PUSH1 0x20 CALLDATASIZE PUSH1 0x3 NOT ADD SLT PUSH2 0x1BD JUMPI PUSH32 0xF8CC6C80B57C6ABE70B0FDADA2B8C21E6F11779D0EFBF266F0B87F38C149BC50 SWAP2 PUSH1 0x20 SWAP2 CALLDATALOAD SWAP1 PUSH2 0x713 PUSH2 0x9F0 JUMP JUMPDEST DUP2 PUSH1 0x7 SSTORE MLOAD SWAP1 DUP2 MSTORE LOG1 STOP JUMPDEST DUP3 CALLVALUE PUSH2 0x1BD JUMPI PUSH0 CALLDATASIZE PUSH1 0x3 NOT ADD SLT PUSH2 0x1BD JUMPI PUSH1 0x20 SWAP1 PUSH1 0x9 SLOAD SWAP1 MLOAD SWAP1 DUP2 MSTORE RETURN JUMPDEST DUP3 CALLVALUE PUSH2 0x1BD JUMPI PUSH1 0x60 CALLDATASIZE PUSH1 0x3 NOT ADD SLT PUSH2 0x1BD JUMPI PUSH1 0x20 SWAP1 PUSH2 0x251 PUSH2 0x75C PUSH2 0x9AA JUMP JUMPDEST PUSH2 0x764 PUSH2 0x9C0 JUMP JUMPDEST PUSH1 0x44 CALLDATALOAD SWAP2 PUSH2 0x773 DUP4 CALLER DUP4 PUSH2 0xA8E JUMP JUMPDEST PUSH2 0xA1C JUMP JUMPDEST DUP3 CALLVALUE PUSH2 0x1BD JUMPI PUSH0 CALLDATASIZE PUSH1 0x3 NOT ADD SLT PUSH2 0x1BD JUMPI PUSH1 0x20 SWAP1 PUSH1 0x2 SLOAD SWAP1 MLOAD SWAP1 DUP2 MSTORE RETURN JUMPDEST DUP3 CALLVALUE PUSH2 0x1BD JUMPI PUSH0 CALLDATASIZE PUSH1 0x3 NOT ADD SLT PUSH2 0x1BD JUMPI PUSH1 0x20 SWAP1 PUSH1 0xA SLOAD SWAP1 MLOAD SWAP1 DUP2 MSTORE RETURN JUMPDEST DUP3 CALLVALUE PUSH2 0x1BD JUMPI CALLDATASIZE PUSH1 0x3 NOT ADD SLT PUSH2 0x1BD JUMPI PUSH2 0x3DA PUSH2 0x7CF PUSH2 0x9AA JUMP JUMPDEST PUSH2 0x7D7 PUSH2 0x9F0 JUMP JUMPDEST PUSH1 0x24 CALLDATALOAD SWAP1 ADDRESS PUSH2 0xA1C JUMP JUMPDEST DUP3 CALLVALUE PUSH2 0x1BD JUMPI PUSH0 CALLDATASIZE PUSH1 0x3 NOT ADD SLT PUSH2 0x1BD JUMPI PUSH1 0x20 SWAP1 PUSH1 0x7 SLOAD SWAP1 MLOAD SWAP1 DUP2 MSTORE RETURN JUMPDEST POP SWAP1 CALLVALUE PUSH2 0x1BD JUMPI DUP1 PUSH1 0x3 NOT CALLDATASIZE ADD SLT PUSH2 0x1BD JUMPI PUSH2 0x819 PUSH2 0x9AA JUMP JUMPDEST PUSH1 0x24 CALLDATALOAD SWAP1 CALLER ISZERO PUSH2 0x892 JUMPI PUSH1 0x1 PUSH1 0x1 PUSH1 0xA0 SHL SUB AND SWAP1 DUP2 ISZERO PUSH2 0x87C JUMPI PUSH1 0x20 SWAP4 POP CALLER PUSH0 MSTORE PUSH1 0x1 DUP5 MSTORE DUP3 PUSH0 KECCAK256 DUP3 PUSH0 MSTORE DUP5 MSTORE DUP1 DUP4 PUSH0 KECCAK256 SSTORE DUP3 MLOAD SWAP1 DUP2 MSTORE PUSH32 0x8C5BE1E5EBEC7D5BD14F71427D1E84F3DD0314C0F7B2291E5B200AC8C7C3B925 DUP5 CALLER SWAP3 LOG3 MLOAD PUSH1 0x1 DUP2 MSTORE RETURN JUMPDEST DUP3 MLOAD PUSH4 0x4A1406B1 PUSH1 0xE1 SHL DUP2 MSTORE PUSH0 DUP2 DUP7 ADD MSTORE PUSH1 0x24 SWAP1 REVERT JUMPDEST DUP3 MLOAD PUSH4 0xE602DF05 PUSH1 0xE0 SHL DUP2 MSTORE PUSH0 DUP2 DUP7 ADD MSTORE PUSH1 0x24 SWAP1 REVERT JUMPDEST SWAP1 POP DUP3 CALLVALUE PUSH2 0x1BD JUMPI PUSH0 CALLDATASIZE PUSH1 0x3 NOT ADD SLT PUSH2 0x1BD JUMPI PUSH0 PUSH1 0x3 SLOAD PUSH1 0x1 DUP2 PUSH1 0x1 SHR SWAP1 PUSH1 0x1 DUP4 AND SWAP3 DUP4 ISZERO PUSH2 0x976 JUMPI JUMPDEST PUSH1 0x20 SWAP4 DUP5 DUP5 LT DUP2 EQ PUSH2 0x33E JUMPI DUP4 DUP9 MSTORE SWAP1 DUP2 ISZERO PUSH2 0x95A JUMPI POP PUSH1 0x1 EQ PUSH2 0x921 JUMPI POP POP POP DUP3 SWAP1 SUB PUSH1 0x1F ADD PUSH1 0x1F NOT AND DUP3 ADD SWAP3 PUSH1 0x1 PUSH1 0x1 PUSH1 0x40 SHL SUB DUP5 GT DUP4 DUP6 LT OR PUSH2 0x2D7 JUMPI POP DUP3 SWAP2 DUP3 PUSH2 0x2D3 SWAP3 MSTORE DUP3 PUSH2 0x980 JUMP JUMPDEST SWAP2 SWAP3 POP PUSH1 0x3 PUSH0 MSTORE DUP3 PUSH0 KECCAK256 SWAP2 DUP4 PUSH0 SWAP4 JUMPDEST DUP4 DUP6 LT PUSH2 0x946 JUMPI POP POP POP POP DUP4 ADD ADD DUP5 DUP1 DUP1 PUSH2 0x2A2 JUMP JUMPDEST DUP1 SLOAD DUP9 DUP7 ADD DUP4 ADD MSTORE SWAP4 ADD SWAP3 DUP5 SWAP1 DUP3 ADD PUSH2 0x930 JUMP JUMPDEST PUSH1 0xFF NOT AND DUP8 DUP6 ADD MSTORE POP POP ISZERO ISZERO PUSH1 0x5 SHL DUP5 ADD ADD SWAP1 POP DUP5 DUP1 DUP1 PUSH2 0x2A2 JUMP JUMPDEST SWAP2 PUSH1 0x7F AND SWAP2 PUSH2 0x8D2 JUMP JUMPDEST PUSH1 0x20 PUSH1 0x40 SWAP3 DUP2 DUP4 MSTORE DUP1 MLOAD SWAP2 DUP3 SWAP2 DUP3 DUP3 DUP7 ADD MSTORE ADD DUP5 DUP5 ADD MCOPY PUSH0 DUP3 DUP3 ADD DUP5 ADD MSTORE PUSH1 0x1F ADD PUSH1 0x1F NOT AND ADD ADD SWAP1 JUMP JUMPDEST PUSH1 0x4 CALLDATALOAD SWAP1 PUSH1 0x1 PUSH1 0x1 PUSH1 0xA0 SHL SUB DUP3 AND DUP3 SUB PUSH2 0x1BD JUMPI JUMP JUMPDEST PUSH1 0x24 CALLDATALOAD SWAP1 PUSH1 0x1 PUSH1 0x1 PUSH1 0xA0 SHL SUB DUP3 AND DUP3 SUB PUSH2 0x1BD JUMPI JUMP JUMPDEST PUSH1 0x1 PUSH1 0x1 PUSH1 0xA0 SHL SUB AND PUSH0 SWAP1 DUP2 MSTORE PUSH1 0x20 DUP2 SWAP1 MSTORE PUSH1 0x40 SWAP1 KECCAK256 SLOAD SWAP1 JUMP JUMPDEST PUSH1 0x5 SLOAD PUSH1 0x1 PUSH1 0x1 PUSH1 0xA0 SHL SUB AND CALLER SUB PUSH2 0xA04 JUMPI JUMP JUMPDEST PUSH1 0x40 MLOAD PUSH4 0x118CDAA7 PUSH1 0xE0 SHL DUP2 MSTORE CALLER PUSH1 0x4 DUP3 ADD MSTORE PUSH1 0x24 SWAP1 REVERT JUMPDEST SWAP2 SWAP1 PUSH1 0x1 PUSH1 0x1 PUSH1 0xA0 SHL SUB DUP1 DUP5 AND ISZERO PUSH2 0xA58 JUMPI DUP2 AND ISZERO PUSH2 0xA40 JUMPI PUSH2 0xA3E SWAP3 PUSH2 0xD9D JUMP JUMPDEST JUMP JUMPDEST PUSH1 0x40 MLOAD PUSH4 0xEC442F05 PUSH1 0xE0 SHL DUP2 MSTORE PUSH0 PUSH1 0x4 DUP3 ADD MSTORE PUSH1 0x24 SWAP1 REVERT JUMPDEST PUSH1 0x40 MLOAD PUSH4 0x4B637E8F PUSH1 0xE1 SHL DUP2 MSTORE PUSH0 PUSH1 0x4 DUP3 ADD MSTORE PUSH1 0x24 SWAP1 REVERT JUMPDEST PUSH1 0x40 SWAP2 SWAP5 SWAP4 SWAP3 PUSH1 0x60 DUP3 ADD SWAP6 PUSH1 0x1 DUP1 PUSH1 0xA0 SHL SUB AND DUP3 MSTORE PUSH1 0x20 DUP3 ADD MSTORE ADD MSTORE JUMP JUMPDEST SWAP2 SWAP1 PUSH1 0x1 DUP1 PUSH1 0xA0 SHL SUB DUP1 SWAP4 AND SWAP3 DUP4 PUSH0 MSTORE PUSH1 0x1 PUSH1 0x20 MSTORE PUSH1 0x40 SWAP4 DUP5 PUSH0 KECCAK256 SWAP2 DUP4 AND SWAP2 DUP3 PUSH0 MSTORE PUSH1 0x20 MSTORE DUP5 PUSH0 KECCAK256 SLOAD SWAP3 PUSH0 NOT DUP5 LT PUSH2 0xAC9 JUMPI JUMPDEST POP POP POP POP POP POP JUMP JUMPDEST DUP5 DUP5 LT PUSH2 0xB2B JUMPI POP DUP1 ISZERO PUSH2 0xB14 JUMPI DUP2 ISZERO PUSH2 0xAFD JUMPI PUSH0 MSTORE PUSH1 0x1 PUSH1 0x20 MSTORE DUP4 PUSH0 KECCAK256 SWAP1 PUSH0 MSTORE PUSH1 0x20 MSTORE SUB SWAP1 PUSH0 KECCAK256 SSTORE PUSH0 DUP1 DUP1 DUP1 DUP1 DUP1 PUSH2 0xAC1 JUMP JUMPDEST DUP5 MLOAD PUSH4 0x4A1406B1 PUSH1 0xE1 SHL DUP2 MSTORE PUSH0 PUSH1 0x4 DUP3 ADD MSTORE PUSH1 0x24 SWAP1 REVERT JUMPDEST DUP5 MLOAD PUSH4 0xE602DF05 PUSH1 0xE0 SHL DUP2 MSTORE PUSH0 PUSH1 0x4 DUP3 ADD MSTORE PUSH1 0x24 SWAP1 REVERT JUMPDEST DUP4 SWAP1 PUSH2 0xB49 DUP7 DUP9 MLOAD SWAP4 DUP5 SWAP4 PUSH4 0x7DC7A0D9 PUSH1 0xE1 SHL DUP6 MSTORE PUSH1 0x4 DUP6 ADD PUSH2 0xA70 JUMP JUMPDEST SUB SWAP1 REVERT JUMPDEST SWAP1 PUSH1 0x1 PUSH1 0x1 PUSH1 0xA0 SHL SUB DUP3 AND ISZERO PUSH2 0xA58 JUMPI PUSH2 0xA3E SWAP2 PUSH2 0xC08 JUMP JUMPDEST SWAP2 SWAP1 DUP3 ADD DUP1 SWAP3 GT PUSH2 0xB73 JUMPI JUMP JUMPDEST PUSH4 0x4E487B71 PUSH1 0xE0 SHL PUSH0 MSTORE PUSH1 0x11 PUSH1 0x4 MSTORE PUSH1 0x24 PUSH0 REVERT JUMPDEST SWAP2 SWAP1 DUP3 SUB SWAP2 DUP3 GT PUSH2 0xB73 JUMPI JUMP JUMPDEST DUP2 DUP2 MUL SWAP3 SWAP2 DUP2 ISZERO SWAP2 DUP5 DIV EQ OR ISZERO PUSH2 0xB73 JUMPI JUMP JUMPDEST PUSH1 0x9 SLOAD DUP1 TIMESTAMP LT PUSH2 0xC03 JUMPI PUSH1 0xA SLOAD SWAP1 PUSH2 0xBBF DUP3 DUP3 PUSH2 0xB66 JUMP JUMPDEST TIMESTAMP LT ISZERO PUSH2 0xBFB JUMPI PUSH2 0xBDD SWAP1 PUSH2 0xBD7 PUSH1 0x8 SLOAD SWAP2 TIMESTAMP PUSH2 0xB87 JUMP JUMPDEST SWAP1 PUSH2 0xB94 JUMP JUMPDEST DUP2 ISZERO PUSH2 0xBE7 JUMPI DIV SWAP1 JUMP JUMPDEST PUSH4 0x4E487B71 PUSH1 0xE0 SHL PUSH0 MSTORE PUSH1 0x12 PUSH1 0x4 MSTORE PUSH1 0x24 PUSH0 REVERT JUMPDEST POP POP PUSH1 0x8 SLOAD SWAP1 JUMP JUMPDEST POP PUSH0 SWAP1 JUMP JUMPDEST PUSH1 0x1 PUSH1 0x1 PUSH1 0xA0 SHL SUB DUP2 DUP2 AND SWAP1 DUP2 ISZERO DUP1 ISZERO PUSH2 0xD95 JUMPI JUMPDEST PUSH2 0xC33 JUMPI PUSH1 0x6 SLOAD AND DUP1 DUP3 EQ DUP1 PUSH2 0xD8A JUMPI JUMPDEST PUSH2 0xC3F JUMPI JUMPDEST POP POP SWAP1 PUSH2 0xA3E SWAP2 PUSH2 0xF41 JUMP JUMPDEST PUSH1 0xD SLOAD PUSH3 0x15180 DUP2 ADD DUP1 SWAP2 GT PUSH2 0xB73 JUMPI TIMESTAMP LT ISZERO PUSH2 0xD7D JUMPI JUMPDEST PUSH2 0xC68 PUSH2 0xC62 PUSH2 0xBA7 JUMP JUMPDEST SWAP2 PUSH2 0x9D6 JUMP JUMPDEST DUP1 DUP3 LT ISZERO PUSH2 0xD75 JUMPI POP SWAP1 JUMPDEST PUSH2 0x2710 PUSH2 0xC89 PUSH1 0x8 SLOAD PUSH2 0xFFFF PUSH1 0xB SLOAD AND SWAP1 PUSH2 0xB94 JUMP JUMPDEST DIV SWAP2 PUSH1 0xC SLOAD SWAP3 DUP4 DUP1 DUP3 GT PUSH0 EQ PUSH2 0xD6D JUMPI PUSH2 0xCA2 SWAP2 PUSH2 0xB87 JUMP JUMPDEST DUP1 DUP3 LT ISZERO PUSH2 0xD66 JUMPI POP JUMPDEST DUP5 GT PUSH2 0xCCD JUMPI POP SWAP1 PUSH2 0xCC2 DUP4 PUSH2 0xA3E SWAP5 SWAP4 PUSH2 0xB66 JUMP JUMPDEST PUSH1 0xC SSTORE SWAP1 SWAP2 PUSH0 PUSH2 0xC33 JUMP JUMPDEST PUSH1 0xC0 PUSH0 DUP1 MLOAD PUSH1 0x20 PUSH2 0x10FF DUP4 CODECOPY DUP2 MLOAD SWAP2 MSTORE SWAP2 DUP6 PUSH1 0x40 MLOAD SWAP2 DUP3 MSTORE PUSH0 PUSH1 0x20 DUP4 ADD MSTORE PUSH1 0x40 DUP3 ADD MSTORE PUSH1 0x80 PUSH1 0x60 DUP3 ADD MSTORE PUSH1 0x1A PUSH1 0x80 DUP3 ADD MSTORE PUSH26 0x115E18D959591CC819195D881D1C985B9CD9995C881B1A5B5A5D PUSH1 0x32 SHL PUSH1 0xA0 DUP3 ADD MSTORE LOG1 PUSH1 0x40 MLOAD PUSH3 0x461BCD PUSH1 0xE5 SHL DUP2 MSTORE PUSH1 0x20 PUSH1 0x4 DUP3 ADD MSTORE PUSH1 0x29 PUSH1 0x24 DUP3 ADD MSTORE PUSH0 DUP1 MLOAD PUSH1 0x20 PUSH2 0x109F DUP4 CODECOPY DUP2 MLOAD SWAP2 MSTORE PUSH1 0x44 DUP3 ADD MSTORE PUSH9 0x19995C881B1A5B5A5D PUSH1 0xBA SHL PUSH1 0x64 DUP3 ADD MSTORE PUSH1 0x84 SWAP1 REVERT JUMPDEST SWAP1 POP PUSH2 0xCAC JUMP JUMPDEST POP POP PUSH0 PUSH2 0xCA2 JUMP JUMPDEST SWAP1 POP SWAP1 PUSH2 0xC73 JUMP JUMPDEST PUSH0 PUSH1 0xC SSTORE TIMESTAMP PUSH1 0xD SSTORE PUSH2 0xC57 JUMP JUMPDEST POP PUSH1 0x8 SLOAD ISZERO ISZERO PUSH2 0xC2E JUMP JUMPDEST POP PUSH1 0x1 PUSH2 0xC1D JUMP JUMPDEST PUSH1 0x1 PUSH1 0x1 PUSH1 0xA0 SHL SUB SWAP4 SWAP3 SWAP2 SWAP1 DUP5 DUP2 AND DUP1 ISZERO DUP1 ISZERO PUSH2 0xF37 JUMPI JUMPDEST PUSH2 0xF2B JUMPI DUP6 PUSH1 0x6 SLOAD AND DUP1 DUP3 EQ DUP1 PUSH2 0xF20 JUMPI JUMPDEST PUSH2 0xDD9 JUMPI JUMPDEST POP POP PUSH2 0xA3E SWAP4 SWAP5 POP PUSH2 0xFE3 JUMP JUMPDEST PUSH1 0xD SLOAD PUSH3 0x15180 DUP2 ADD DUP1 SWAP2 GT PUSH2 0xB73 JUMPI TIMESTAMP LT ISZERO PUSH2 0xF13 JUMPI JUMPDEST PUSH2 0xDFC PUSH2 0xC62 PUSH2 0xBA7 JUMP JUMPDEST DUP1 DUP3 LT ISZERO PUSH2 0xF0B JUMPI POP SWAP6 JUMPDEST PUSH2 0x2710 PUSH2 0xE1D PUSH1 0x8 SLOAD PUSH2 0xFFFF PUSH1 0xB SLOAD AND SWAP1 PUSH2 0xB94 JUMP JUMPDEST DIV SWAP7 PUSH1 0xC SLOAD SWAP8 DUP9 DUP1 DUP3 GT PUSH0 EQ PUSH2 0xF03 JUMPI PUSH2 0xE36 SWAP2 PUSH2 0xB87 JUMP JUMPDEST DUP1 DUP3 LT ISZERO PUSH2 0xEFC JUMPI POP JUMPDEST DUP6 GT PUSH2 0xE61 JUMPI POP POP PUSH2 0xE56 DUP4 PUSH2 0xA3E SWAP6 SWAP7 PUSH2 0xB66 JUMP JUMPDEST PUSH1 0xC SSTORE DUP5 SWAP4 PUSH0 PUSH2 0xDCC JUMP JUMPDEST PUSH0 DUP1 MLOAD PUSH1 0x20 PUSH2 0x10FF DUP4 CODECOPY DUP2 MLOAD SWAP2 MSTORE SWAP2 DUP6 PUSH1 0xC0 SWAP3 DUP7 PUSH1 0x40 MLOAD SWAP4 DUP5 MSTORE AND PUSH1 0x20 DUP4 ADD MSTORE PUSH1 0x40 DUP3 ADD MSTORE PUSH1 0x80 PUSH1 0x60 DUP3 ADD MSTORE PUSH1 0x1A PUSH1 0x80 DUP3 ADD MSTORE PUSH26 0x115E18D959591CC819195D881D1C985B9CD9995C881B1A5B5A5D PUSH1 0x32 SHL PUSH1 0xA0 DUP3 ADD MSTORE LOG1 PUSH1 0x40 MLOAD PUSH3 0x461BCD PUSH1 0xE5 SHL DUP2 MSTORE PUSH1 0x20 PUSH1 0x4 DUP3 ADD MSTORE PUSH1 0x29 PUSH1 0x24 DUP3 ADD MSTORE PUSH0 DUP1 MLOAD PUSH1 0x20 PUSH2 0x109F DUP4 CODECOPY DUP2 MLOAD SWAP2 MSTORE PUSH1 0x44 DUP3 ADD MSTORE PUSH9 0x19995C881B1A5B5A5D PUSH1 0xBA SHL PUSH1 0x64 DUP3 ADD MSTORE PUSH1 0x84 SWAP1 REVERT JUMPDEST SWAP1 POP PUSH2 0xE40 JUMP JUMPDEST POP POP PUSH0 PUSH2 0xE36 JUMP JUMPDEST SWAP1 POP SWAP6 PUSH2 0xE07 JUMP JUMPDEST PUSH0 PUSH1 0xC SSTORE TIMESTAMP PUSH1 0xD SSTORE PUSH2 0xDF1 JUMP JUMPDEST POP PUSH1 0x8 SLOAD ISZERO ISZERO PUSH2 0xDC7 JUMP JUMPDEST POP PUSH2 0xA3E SWAP4 SWAP5 POP PUSH2 0xFE3 JUMP JUMPDEST POP DUP6 DUP4 AND ISZERO PUSH2 0xDB5 JUMP JUMPDEST SWAP1 SWAP2 SWAP1 PUSH1 0x1 PUSH1 0x1 PUSH1 0xA0 SHL SUB DUP2 AND SWAP1 DUP2 PUSH2 0xF89 JUMPI POP PUSH0 DUP1 MLOAD PUSH1 0x20 PUSH2 0x10DF DUP4 CODECOPY DUP2 MLOAD SWAP2 MSTORE PUSH1 0x20 DUP5 PUSH2 0xF74 PUSH0 SWAP6 SWAP7 PUSH1 0x2 SLOAD PUSH2 0xB66 JUMP JUMPDEST PUSH1 0x2 SSTORE JUMPDEST DUP1 PUSH1 0x2 SLOAD SUB PUSH1 0x2 SSTORE PUSH1 0x40 MLOAD SWAP1 DUP2 MSTORE LOG3 JUMP JUMPDEST SWAP3 DUP2 PUSH0 MSTORE PUSH0 PUSH1 0x20 MSTORE PUSH1 0x40 PUSH0 KECCAK256 SLOAD SWAP4 DUP2 DUP6 LT PUSH2 0xFC5 JUMPI POP PUSH1 0x20 DUP2 PUSH0 DUP1 MLOAD PUSH1 0x20 PUSH2 0x10DF DUP4 CODECOPY DUP2 MLOAD SWAP2 MSTORE SWAP3 PUSH0 SWAP6 SWAP7 DUP6 DUP8 MSTORE DUP7 DUP5 MSTORE SUB PUSH1 0x40 DUP7 KECCAK256 SSTORE PUSH2 0xF78 JUMP JUMPDEST PUSH2 0xB49 DUP6 SWAP3 PUSH1 0x40 MLOAD SWAP4 DUP5 SWAP4 PUSH4 0x391434E3 PUSH1 0xE2 SHL DUP6 MSTORE PUSH1 0x4 DUP6 ADD PUSH2 0xA70 JUMP JUMPDEST PUSH1 0x1 PUSH1 0x1 PUSH1 0xA0 SHL SUB DUP1 DUP3 AND SWAP3 SWAP1 SWAP2 DUP4 PUSH2 0x1047 JUMPI POP PUSH0 DUP1 MLOAD PUSH1 0x20 PUSH2 0x10DF DUP4 CODECOPY DUP2 MLOAD SWAP2 MSTORE SWAP2 PUSH1 0x20 SWAP2 PUSH2 0x1015 DUP7 PUSH1 0x2 SLOAD PUSH2 0xB66 JUMP JUMPDEST PUSH1 0x2 SSTORE JUMPDEST AND SWAP4 DUP5 PUSH2 0x1032 JUMPI DUP1 PUSH1 0x2 SLOAD SUB PUSH1 0x2 SSTORE JUMPDEST PUSH1 0x40 MLOAD SWAP1 DUP2 MSTORE LOG3 JUMP JUMPDEST DUP5 PUSH0 MSTORE PUSH0 DUP3 MSTORE PUSH1 0x40 PUSH0 KECCAK256 DUP2 DUP2 SLOAD ADD SWAP1 SSTORE PUSH2 0x1029 JUMP JUMPDEST DUP4 PUSH0 MSTORE PUSH0 PUSH1 0x20 MSTORE PUSH1 0x40 PUSH0 KECCAK256 SLOAD SWAP1 DUP6 DUP3 LT PUSH2 0x1081 JUMPI POP SWAP2 PUSH1 0x20 SWAP2 DUP6 PUSH0 DUP1 MLOAD PUSH1 0x20 PUSH2 0x10DF DUP4 CODECOPY DUP2 MLOAD SWAP2 MSTORE SWAP5 DUP7 PUSH0 MSTORE PUSH0 DUP6 MSTORE SUB PUSH1 0x40 PUSH0 KECCAK256 SSTORE PUSH2 0x1019 JUMP JUMPDEST PUSH2 0xB49 DUP7 PUSH1 0x40 MLOAD SWAP4 DUP5 SWAP4 PUSH4 0x391434E3 PUSH1 0xE2 SHL DUP6 MSTORE PUSH1 0x4 DUP6 ADD PUSH2 0xA70 JUMP INVALID BLOBHASH PUSH19 0x6F6E4C6F636B546F6B656E3A20457863656564 PUSH20 0x20646576207472616E738BE0079C531659141344 0xCD 0x1F 0xD0 LOG4 CALLCODE DUP5 NOT BLOBHASH PUSH32 0x9722A3DAAFE3B4186F6B6457E0DDF252AD1BE2C89B69C2B068FC378DAA952BA7 CALL PUSH4 0xC4A11628 CREATE2 GAS 0x4D CREATE2 0x23 0xB3 0xEF 0x2B ADDMOD 0xC6 0xF8 PUSH12 0x1A55F24E77E45BC6C9C3D6AA 0xC5 0xD1 PUSH32 0xC6E7FB5A954BC01345D0B1DEA2646970667358221220D2749A0F8DED50F90C25 SWAP2 PUSH32 0x4D2AC978F475054797FB7F72CF5C7EEBBA1D07D164736F6C6343000819003300 "},"methodIdentifiers":{"allowance(address,address)":"dd62ed3e","antiSnipeEnd()":"0e48fb1c","approve(address,uint256)":"095ea7b3","balanceOf(address)":"70a08231","burn(uint256)":"42966c68","burnFrom(address,uint256)":"79cc6790","dailySellCapBps()":"710820ed","decimals()":"313ce567","dev()":"91cca3db","devAllocation()":"4c20179e","devSoldToday()":"6d515c9f","factoryTransfer(address,uint256)":"0feafb4e","lastDailyReset()":"b4a7a187","mint(address,uint256)":"40c10f19","name()":"06fdde03","owner()":"8da5cb5b","renounceOwnership()":"715018a6","setAntiSnipe(uint256)":"274c5f52","setDevAllocation(address,uint256,uint256,uint256,uint16)":"3608fe0c","symbol()":"95d89b41","totalSupply()":"18160ddd","transfer(address,uint256)":"a9059cbb","transferFrom(address,address,uint256)":"23b872dd","transferOwnership(address)":"f2fde38b","vestedAmount()":"44b1231f","vestingDuration()":"1514617e","vestingStart()":"254800d4"}},"storageLayout":{"storage":[{"astId":307,"contract":"contracts/IronLockToken.sol:IronLockToken","label":"_balances","offset":0,"slot":"0","type":"t_mapping(t_address,t_uint256)"},{"astId":313,"contract":"contracts/IronLockToken.sol:IronLockToken","label":"_allowances","offset":0,"slot":"1","type":"t_mapping(t_address,t_mapping(t_address,t_uint256))"},{"astId":315,"contract":"contracts/IronLockToken.sol:IronLockToken","label":"_totalSupply","offset":0,"slot":"2","type":"t_uint256"},{"astId":317,"contract":"contracts/IronLockToken.sol:IronLockToken","label":"_name","offset":0,"slot":"3","type":"t_string_storage"},{"astId":319,"contract":"contracts/IronLockToken.sol:IronLockToken","label":"_symbol","offset":0,"slot":"4","type":"t_string_storage"},{"astId":8,"contract":"contracts/IronLockToken.sol:IronLockToken","label":"_owner","offset":0,"slot":"5","type":"t_address"},{"astId":10887,"contract":"contracts/IronLockToken.sol:IronLockToken","label":"dev","offset":0,"slot":"6","type":"t_address"},{"astId":10890,"contract":"contracts/IronLockToken.sol:IronLockToken","label":"antiSnipeEnd","offset":0,"slot":"7","type":"t_uint256"},{"astId":10893,"contract":"contracts/IronLockToken.sol:IronLockToken","label":"devAllocation","offset":0,"slot":"8","type":"t_uint256"},{"astId":10896,"contract":"contracts/IronLockToken.sol:IronLockToken","label":"vestingStart","offset":0,"slot":"9","type":"t_uint256"},{"astId":10899,"contract":"contracts/IronLockToken.sol:IronLockToken","label":"vestingDuration","offset":0,"slot":"10","type":"t_uint256"},{"astId":10902,"contract":"contracts/IronLockToken.sol:IronLockToken","label":"dailySellCapBps","offset":0,"slot":"11","type":"t_uint16"},{"astId":10905,"contract":"contracts/IronLockToken.sol:IronLockToken","label":"devSoldToday","offset":0,"slot":"12","type":"t_uint256"},{"astId":10908,"contract":"contracts/IronLockToken.sol:IronLockToken","label":"lastDailyReset","offset":0,"slot":"13","type":"t_uint256"}],"types":{"t_address":{"encoding":"inplace","label":"address","numberOfBytes":"20"},"t_mapping(t_address,t_mapping(t_address,t_uint256))":{"encoding":"mapping","key":"t_address","label":"mapping(address => mapping(address => uint256))","numberOfBytes":"32","value":"t_mapping(t_address,t_uint256)"},"t_mapping(t_address,t_uint256)":{"encoding":"mapping","key":"t_address","label":"mapping(address => uint256)","numberOfBytes":"32","value":"t_uint256"},"t_string_storage":{"encoding":"bytes","label":"string","numberOfBytes":"32"},"t_uint16":{"encoding":"inplace","label":"uint16","numberOfBytes":"2"},"t_uint256":{"encoding":"inplace","label":"uint256","numberOfBytes":"32"}}}}}}