{"contracts/IronLockFactory.sol":{"IronLockFactory":{"abi":[{"inputs":[],"stateMutability":"nonpayable","type":"constructor"},{"inputs":[],"name":"AllReleased","type":"error"},{"inputs":[],"name":"AlreadyClaimed","type":"error"},{"inputs":[],"name":"AlreadyVoted","type":"error"},{"inputs":[],"name":"AutoRefunded","type":"error"},{"inputs":[],"name":"Blacklisted","type":"error"},{"inputs":[],"name":"Blocked","type":"error"},{"inputs":[],"name":"DevActiveRecently","type":"error"},{"inputs":[],"name":"DevAllocTooHigh","type":"error"},{"inputs":[],"name":"ECDSAInvalidSignature","type":"error"},{"inputs":[{"internalType":"uint256","name":"length","type":"uint256"}],"name":"ECDSAInvalidSignatureLength","type":"error"},{"inputs":[{"internalType":"bytes32","name":"s","type":"bytes32"}],"name":"ECDSAInvalidSignatureS","type":"error"},{"inputs":[{"internalType":"uint256","name":"total","type":"uint256"},{"internalType":"uint256","name":"max","type":"uint256"}],"name":"ExceedsPerWalletCap","type":"error"},{"inputs":[],"name":"ExceedsRaiseCap","type":"error"},{"inputs":[],"name":"ExceedsWithdrawable","type":"error"},{"inputs":[],"name":"Executed","type":"error"},{"inputs":[{"internalType":"uint256","name":"days_","type":"uint256"}],"name":"InvalidDuration","type":"error"},{"inputs":[{"internalType":"uint256","name":"bps","type":"uint256"}],"name":"InvalidSoftcap","type":"error"},{"inputs":[],"name":"LPAlreadyAdded","type":"error"},{"inputs":[],"name":"LPLockTooShort","type":"error"},{"inputs":[],"name":"LPStillLocked","type":"error"},{"inputs":[],"name":"LiquidityAlreadyAdded","type":"error"},{"inputs":[],"name":"LowBalance","type":"error"},{"inputs":[],"name":"LowBalanceForRefund","type":"error"},{"inputs":[],"name":"LowFeeOrStake","type":"error"},{"inputs":[],"name":"LowTokens","type":"error"},{"inputs":[{"internalType":"uint256","name":"total","type":"uint256"},{"internalType":"uint256","name":"max","type":"uint256"}],"name":"MaxAntiSnipeBNB","type":"error"},{"inputs":[],"name":"NameSymbolRequired","type":"error"},{"inputs":[],"name":"Need51Percent","type":"error"},{"inputs":[],"name":"NeedMoreContributors","type":"error"},{"inputs":[],"name":"NoBNBForLiquidity","type":"error"},{"inputs":[],"name":"NoContribution","type":"error"},{"inputs":[],"name":"NoContributionToRefund","type":"error"},{"inputs":[],"name":"NoFunds","type":"error"},{"inputs":[],"name":"NoStake","type":"error"},{"inputs":[],"name":"NoTokensForLiquidity","type":"error"},{"inputs":[],"name":"NoVote","type":"error"},{"inputs":[],"name":"Not90Days","type":"error"},{"inputs":[],"name":"NotActive","type":"error"},{"inputs":[],"name":"NotActiveOrRefunded","type":"error"},{"inputs":[],"name":"NotComplete","type":"error"},{"inputs":[],"name":"NotContributor","type":"error"},{"inputs":[],"name":"NotDev","type":"error"},{"inputs":[],"name":"NotExecuted","type":"error"},{"inputs":[],"name":"NotYet","type":"error"},{"inputs":[],"name":"NothingToRelease","type":"error"},{"inputs":[],"name":"OnlyDevCanClaim","type":"error"},{"inputs":[{"internalType":"address","name":"owner","type":"address"}],"name":"OwnableInvalidOwner","type":"error"},{"inputs":[{"internalType":"address","name":"account","type":"address"}],"name":"OwnableUnauthorizedAccount","type":"error"},{"inputs":[],"name":"PresaleEnded","type":"error"},{"inputs":[],"name":"ProofExpired","type":"error"},{"inputs":[],"name":"ProofUsed","type":"error"},{"inputs":[],"name":"RaiseIncomplete","type":"error"},{"inputs":[],"name":"ReentrancyGuardReentrantCall","type":"error"},{"inputs":[],"name":"Refunded","type":"error"},{"inputs":[],"name":"RouterNotSet","type":"error"},{"inputs":[],"name":"SoftcapNotHit","type":"error"},{"inputs":[],"name":"TokenNotActive","type":"error"},{"inputs":[],"name":"TokenNotFound","type":"error"},{"inputs":[],"name":"TooSmall","type":"error"},{"inputs":[],"name":"TransferFailed","type":"error"},{"inputs":[],"name":"VestingTooShort","type":"error"},{"inputs":[],"name":"VoteActive","type":"error"},{"inputs":[],"name":"WasRefunded","type":"error"},{"inputs":[],"name":"ZeroAddress","type":"error"},{"inputs":[],"name":"ZeroRaiseCap","type":"error"},{"inputs":[],"name":"ZeroSupply","type":"error"},{"anonymous":false,"inputs":[{"indexed":true,"internalType":"address","name":"wallet","type":"address"},{"indexed":false,"internalType":"string","name":"reason","type":"string"}],"name":"BlacklistAdded","type":"event"},{"anonymous":false,"inputs":[{"indexed":true,"internalType":"address","name":"token","type":"address"},{"indexed":true,"internalType":"address","name":"contributor","type":"address"},{"indexed":false,"internalType":"uint256","name":"amount","type":"uint256"}],"name":"Contributed","type":"event"},{"anonymous":false,"inputs":[{"indexed":true,"internalType":"address","name":"dev","type":"address"},{"indexed":false,"internalType":"uint256","name":"timestamp","type":"uint256"}],"name":"DevActivityUpdated","type":"event"},{"anonymous":false,"inputs":[{"indexed":true,"internalType":"address","name":"dev","type":"address"},{"indexed":false,"internalType":"uint256","name":"totalLaunches","type":"uint256"},{"indexed":false,"internalType":"uint256","name":"successful","type":"uint256"},{"indexed":false,"internalType":"uint256","name":"refunded","type":"uint256"}],"name":"DevReputationUpdated","type":"event"},{"anonymous":false,"inputs":[{"indexed":true,"internalType":"address","name":"dev","type":"address"},{"indexed":false,"internalType":"uint256","name":"amount","type":"uint256"}],"name":"DevStakeClaimed","type":"event"},{"anonymous":false,"inputs":[{"indexed":true,"internalType":"address","name":"dev","type":"address"},{"indexed":false,"internalType":"uint256","name":"amount","type":"uint256"}],"name":"DevStakeSlashed","type":"event"},{"anonymous":false,"inputs":[{"indexed":false,"internalType":"uint256","name":"newFee","type":"uint256"}],"name":"LaunchFeeUpdated","type":"event"},{"anonymous":false,"inputs":[{"indexed":true,"internalType":"address","name":"token","type":"address"},{"indexed":true,"internalType":"address","name":"pair","type":"address"},{"indexed":false,"internalType":"uint256","name":"bnbAmount","type":"uint256"},{"indexed":false,"internalType":"uint256","name":"tokenAmount","type":"uint256"},{"indexed":false,"internalType":"uint256","name":"lpTokens","type":"uint256"}],"name":"LiquidityAdded","type":"event"},{"anonymous":false,"inputs":[{"indexed":true,"internalType":"address","name":"token","type":"address"},{"indexed":true,"internalType":"address","name":"dev","type":"address"},{"indexed":false,"internalType":"uint256","name":"lpTokens","type":"uint256"}],"name":"LiquidityClaimed","type":"event"},{"anonymous":false,"inputs":[{"indexed":true,"internalType":"address","name":"token","type":"address"},{"indexed":false,"internalType":"uint8","name":"milestone","type":"uint8"},{"indexed":false,"internalType":"uint256","name":"amount","type":"uint256"}],"name":"MilestoneReleased","type":"event"},{"anonymous":false,"inputs":[{"indexed":true,"internalType":"address","name":"previousOwner","type":"address"},{"indexed":true,"internalType":"address","name":"newOwner","type":"address"}],"name":"OwnershipTransferred","type":"event"},{"anonymous":false,"inputs":[{"indexed":true,"internalType":"address","name":"router","type":"address"}],"name":"PancakeRouterUpdated","type":"event"},{"anonymous":false,"inputs":[{"indexed":true,"internalType":"address","name":"token","type":"address"}],"name":"RefundExecuted","type":"event"},{"anonymous":false,"inputs":[{"indexed":true,"internalType":"address","name":"token","type":"address"},{"indexed":true,"internalType":"address","name":"voter","type":"address"},{"indexed":false,"internalType":"uint256","name":"weight","type":"uint256"}],"name":"RefundVoteCast","type":"event"},{"anonymous":false,"inputs":[{"indexed":true,"internalType":"address","name":"token","type":"address"}],"name":"RefundVoteStarted","type":"event"},{"anonymous":false,"inputs":[{"indexed":true,"internalType":"address","name":"token","type":"address"},{"indexed":false,"internalType":"uint256","name":"totalRaised","type":"uint256"}],"name":"SoftCapReached","type":"event"},{"anonymous":false,"inputs":[{"indexed":true,"internalType":"address","name":"to","type":"address"},{"indexed":false,"internalType":"uint256","name":"amount","type":"uint256"}],"name":"StuckBNBWithdrawn","type":"event"},{"anonymous":false,"inputs":[{"indexed":true,"internalType":"address","name":"token","type":"address"},{"indexed":true,"internalType":"address","name":"dev","type":"address"},{"indexed":false,"internalType":"string","name":"name","type":"string"},{"indexed":false,"internalType":"string","name":"symbol","type":"string"},{"indexed":false,"internalType":"uint256","name":"totalSupply","type":"uint256"},{"indexed":false,"internalType":"uint256","name":"raiseCap","type":"uint256"},{"indexed":false,"internalType":"uint256","name":"lpLockDays","type":"uint256"},{"indexed":false,"internalType":"uint256","name":"vestingDays","type":"uint256"},{"indexed":false,"internalType":"uint16","name":"devAllocationBps","type":"uint16"},{"indexed":false,"internalType":"uint8","name":"safetyScore","type":"uint8"}],"name":"TokenLaunched","type":"event"},{"anonymous":false,"inputs":[{"indexed":true,"internalType":"address","name":"newTreasury","type":"address"}],"name":"TreasuryUpdated","type":"event"},{"anonymous":false,"inputs":[{"indexed":true,"internalType":"address","name":"newVerifier","type":"address"}],"name":"VerifierUpdated","type":"event"},{"anonymous":false,"inputs":[{"indexed":true,"internalType":"address","name":"token","type":"address"},{"indexed":true,"internalType":"address","name":"wallet","type":"address"}],"name":"WalletBlocked","type":"event"},{"anonymous":false,"inputs":[{"indexed":true,"internalType":"address","name":"token","type":"address"},{"indexed":true,"internalType":"address","name":"reporter","type":"address"},{"indexed":true,"internalType":"address","name":"suspiciousWallet","type":"address"},{"indexed":false,"internalType":"string","name":"reason","type":"string"}],"name":"WalletReported","type":"event"},{"inputs":[],"name":"ANTI_SNIPE_MAX_BNB","outputs":[{"internalType":"uint256","name":"","type":"uint256"}],"stateMutability":"view","type":"function"},{"inputs":[],"name":"ANTI_SNIPE_SECONDS","outputs":[{"internalType":"uint256","name":"","type":"uint256"}],"stateMutability":"view","type":"function"},{"inputs":[],"name":"DAILY_SELL_CAP_BPS","outputs":[{"internalType":"uint16","name":"","type":"uint16"}],"stateMutability":"view","type":"function"},{"inputs":[],"name":"DEFAULT_LIQUIDITY_BPS","outputs":[{"internalType":"uint16","name":"","type":"uint16"}],"stateMutability":"view","type":"function"},{"inputs":[],"name":"DEV_STAKE_AMOUNT","outputs":[{"internalType":"uint256","name":"","type":"uint256"}],"stateMutability":"view","type":"function"},{"inputs":[],"name":"ELIGIBILITY_PROOF_TTL","outputs":[{"internalType":"uint256","name":"","type":"uint256"}],"stateMutability":"view","type":"function"},{"inputs":[],"name":"MAX_DEV_BPS","outputs":[{"internalType":"uint256","name":"","type":"uint256"}],"stateMutability":"view","type":"function"},{"inputs":[],"name":"MAX_LIQUIDITY_BPS","outputs":[{"internalType":"uint16","name":"","type":"uint16"}],"stateMutability":"view","type":"function"},{"inputs":[],"name":"MAX_PRESALE_DAYS","outputs":[{"internalType":"uint256","name":"","type":"uint256"}],"stateMutability":"view","type":"function"},{"inputs":[],"name":"MIN_LIQUIDITY_BPS","outputs":[{"internalType":"uint16","name":"","type":"uint16"}],"stateMutability":"view","type":"function"},{"inputs":[],"name":"MIN_LP_LOCK_DAYS","outputs":[{"internalType":"uint256","name":"","type":"uint256"}],"stateMutability":"view","type":"function"},{"inputs":[],"name":"MIN_PRESALE_DAYS","outputs":[{"internalType":"uint256","name":"","type":"uint256"}],"stateMutability":"view","type":"function"},{"inputs":[],"name":"MIN_SOFTCAP_BPS","outputs":[{"internalType":"uint256","name":"","type":"uint256"}],"stateMutability":"view","type":"function"},{"inputs":[],"name":"MIN_UNIQUE_CONTRIBUTORS","outputs":[{"internalType":"uint256","name":"","type":"uint256"}],"stateMutability":"view","type":"function"},{"inputs":[],"name":"MIN_VESTING_DAYS","outputs":[{"internalType":"uint256","name":"","type":"uint256"}],"stateMutability":"view","type":"function"},{"inputs":[],"name":"REPORT_THRESHOLD","outputs":[{"internalType":"uint256","name":"","type":"uint256"}],"stateMutability":"view","type":"function"},{"inputs":[{"internalType":"address","name":"tokenAddr","type":"address"}],"name":"addLiquidityToPancakeSwap","outputs":[],"stateMutability":"nonpayable","type":"function"},{"inputs":[{"internalType":"uint256","name":"","type":"uint256"}],"name":"allTokens","outputs":[{"internalType":"address","name":"","type":"address"}],"stateMutability":"view","type":"function"},{"inputs":[{"internalType":"address","name":"","type":"address"},{"internalType":"address","name":"","type":"address"}],"name":"antiSnipeContribs","outputs":[{"internalType":"uint256","name":"","type":"uint256"}],"stateMutability":"view","type":"function"},{"inputs":[{"internalType":"address","name":"w","type":"address"},{"internalType":"string","name":"r","type":"string"}],"name":"blacklistWallet","outputs":[],"stateMutability":"nonpayable","type":"function"},{"inputs":[{"internalType":"address","name":"tokenAddr","type":"address"},{"internalType":"bool","name":"voteYes","type":"bool"}],"name":"castRefundVote","outputs":[],"stateMutability":"nonpayable","type":"function"},{"inputs":[{"internalType":"address","name":"tokenAddr","type":"address"}],"name":"checkLaunchSuccess","outputs":[],"stateMutability":"nonpayable","type":"function"},{"inputs":[{"internalType":"address","name":"tokenAddr","type":"address"}],"name":"claimDevStake","outputs":[],"stateMutability":"nonpayable","type":"function"},{"inputs":[{"internalType":"address","name":"tokenAddr","type":"address"}],"name":"claimLPTokens","outputs":[],"stateMutability":"nonpayable","type":"function"},{"inputs":[{"internalType":"address","name":"tokenAddr","type":"address"}],"name":"claimRefund","outputs":[],"stateMutability":"nonpayable","type":"function"},{"inputs":[{"internalType":"address","name":"tokenAddr","type":"address"}],"name":"contribute","outputs":[],"stateMutability":"payable","type":"function"},{"inputs":[{"internalType":"address","name":"","type":"address"},{"internalType":"address","name":"","type":"address"}],"name":"contributions","outputs":[{"internalType":"uint256","name":"","type":"uint256"}],"stateMutability":"view","type":"function"},{"inputs":[{"internalType":"address","name":"","type":"address"}],"name":"devLastActivity","outputs":[{"internalType":"uint256","name":"","type":"uint256"}],"stateMutability":"view","type":"function"},{"inputs":[{"internalType":"address","name":"","type":"address"},{"internalType":"uint256","name":"","type":"uint256"}],"name":"devLaunchHistory","outputs":[{"internalType":"address","name":"","type":"address"}],"stateMutability":"view","type":"function"},{"inputs":[{"internalType":"address","name":"","type":"address"}],"name":"devRefundedLaunches","outputs":[{"internalType":"uint256","name":"","type":"uint256"}],"stateMutability":"view","type":"function"},{"inputs":[{"internalType":"address","name":"","type":"address"}],"name":"devStakes","outputs":[{"internalType":"uint256","name":"","type":"uint256"}],"stateMutability":"view","type":"function"},{"inputs":[{"internalType":"address","name":"","type":"address"}],"name":"devSuccessfulLaunches","outputs":[{"internalType":"uint256","name":"","type":"uint256"}],"stateMutability":"view","type":"function"},{"inputs":[{"internalType":"address","name":"tokenAddr","type":"address"}],"name":"executeRefund","outputs":[],"stateMutability":"nonpayable","type":"function"},{"inputs":[{"internalType":"address","name":"tokenAddr","type":"address"},{"internalType":"address","name":"user","type":"address"}],"name":"getContribution","outputs":[{"internalType":"uint256","name":"","type":"uint256"}],"stateMutability":"view","type":"function"},{"inputs":[{"internalType":"address","name":"tokenAddr","type":"address"}],"name":"getContributorCount","outputs":[{"internalType":"uint256","name":"","type":"uint256"}],"stateMutability":"view","type":"function"},{"inputs":[{"internalType":"address","name":"d","type":"address"},{"internalType":"uint256","name":"offset","type":"uint256"},{"internalType":"uint256","name":"limit","type":"uint256"}],"name":"getDevLaunchHistoryPaginated","outputs":[{"internalType":"address[]","name":"result","type":"address[]"},{"internalType":"uint256","name":"total","type":"uint256"}],"stateMutability":"view","type":"function"},{"inputs":[{"internalType":"address","name":"d","type":"address"}],"name":"getDevStats","outputs":[{"internalType":"uint256","name":"totalLaunches","type":"uint256"},{"internalType":"uint256","name":"successful","type":"uint256"},{"internalType":"uint256","name":"refunded","type":"uint256"}],"stateMutability":"view","type":"function"},{"inputs":[{"internalType":"address","name":"tokenAddr","type":"address"}],"name":"getLPStatus","outputs":[{"internalType":"bool","name":"added","type":"bool"},{"internalType":"address","name":"pair","type":"address"},{"internalType":"uint256","name":"lockedAmount","type":"uint256"},{"internalType":"uint256","name":"unlockTime","type":"uint256"},{"internalType":"bool","name":"claimable","type":"bool"}],"stateMutability":"view","type":"function"},{"inputs":[{"internalType":"address","name":"tokenAddr","type":"address"}],"name":"getSafetyScore","outputs":[{"internalType":"uint8","name":"","type":"uint8"}],"stateMutability":"view","type":"function"},{"inputs":[{"internalType":"address","name":"tokenAddr","type":"address"}],"name":"getTokenAccountingStatus","outputs":[{"internalType":"uint256","name":"totalRaised","type":"uint256"},{"internalType":"uint256","name":"currentTrackedBalance","type":"uint256"},{"internalType":"uint256","name":"releasedSoFar","type":"uint256"}],"stateMutability":"view","type":"function"},{"inputs":[{"internalType":"uint256","name":"offset","type":"uint256"},{"internalType":"uint256","name":"limit","type":"uint256"}],"name":"getTokensPaginated","outputs":[{"internalType":"address[]","name":"result","type":"address[]"},{"internalType":"uint256","name":"total","type":"uint256"}],"stateMutability":"view","type":"function"},{"inputs":[{"internalType":"address","name":"","type":"address"},{"internalType":"address","name":"","type":"address"}],"name":"hasContributed","outputs":[{"internalType":"bool","name":"","type":"bool"}],"stateMutability":"view","type":"function"},{"inputs":[{"internalType":"address","name":"","type":"address"},{"internalType":"address","name":"","type":"address"},{"internalType":"address","name":"","type":"address"}],"name":"hasReported","outputs":[{"internalType":"bool","name":"","type":"bool"}],"stateMutability":"view","type":"function"},{"inputs":[],"name":"insurancePool","outputs":[{"internalType":"uint256","name":"","type":"uint256"}],"stateMutability":"view","type":"function"},{"inputs":[{"internalType":"address","name":"","type":"address"}],"name":"isBlacklisted","outputs":[{"internalType":"bool","name":"","type":"bool"}],"stateMutability":"view","type":"function"},{"inputs":[{"internalType":"address","name":"","type":"address"},{"internalType":"address","name":"","type":"address"}],"name":"isBlockedContributor","outputs":[{"internalType":"bool","name":"","type":"bool"}],"stateMutability":"view","type":"function"},{"inputs":[{"internalType":"address","name":"","type":"address"}],"name":"isIronLockToken","outputs":[{"internalType":"bool","name":"","type":"bool"}],"stateMutability":"view","type":"function"},{"inputs":[{"internalType":"address","name":"tokenAddr","type":"address"}],"name":"isRefundVoteActive","outputs":[{"internalType":"bool","name":"","type":"bool"}],"stateMutability":"view","type":"function"},{"inputs":[{"internalType":"address","name":"tokenAddr","type":"address"}],"name":"isRefundVotePassed","outputs":[{"internalType":"bool","name":"","type":"bool"}],"stateMutability":"view","type":"function"},{"inputs":[],"name":"launchFee","outputs":[{"internalType":"uint256","name":"","type":"uint256"}],"stateMutability":"view","type":"function"},{"inputs":[{"internalType":"string","name":"name","type":"string"},{"internalType":"string","name":"symbol","type":"string"},{"internalType":"uint256","name":"totalSupply","type":"uint256"},{"internalType":"uint256","name":"raiseCap","type":"uint256"},{"internalType":"uint256","name":"lpLockDays","type":"uint256"},{"internalType":"uint256","name":"vestingDays","type":"uint256"},{"internalType":"uint16","name":"devAllocationBps","type":"uint16"},{"internalType":"uint256","name":"eligibilityDeadline","type":"uint256"},{"internalType":"bytes","name":"eligibilitySignature","type":"bytes"},{"internalType":"uint256","name":"softCapBps","type":"uint256"},{"internalType":"uint256","name":"presaleDays","type":"uint256"}],"name":"launchToken","outputs":[{"internalType":"address","name":"","type":"address"}],"stateMutability":"payable","type":"function"},{"inputs":[{"internalType":"address","name":"","type":"address"}],"name":"liquidityAdded","outputs":[{"internalType":"bool","name":"","type":"bool"}],"stateMutability":"view","type":"function"},{"inputs":[{"internalType":"address","name":"","type":"address"}],"name":"lpLockedAmount","outputs":[{"internalType":"uint256","name":"","type":"uint256"}],"stateMutability":"view","type":"function"},{"inputs":[{"internalType":"address","name":"","type":"address"}],"name":"lpUnlockTime","outputs":[{"internalType":"uint256","name":"","type":"uint256"}],"stateMutability":"view","type":"function"},{"inputs":[],"name":"owner","outputs":[{"internalType":"address","name":"","type":"address"}],"stateMutability":"view","type":"function"},{"inputs":[],"name":"pancakeRouter","outputs":[{"internalType":"address","name":"","type":"address"}],"stateMutability":"view","type":"function"},{"inputs":[{"internalType":"address","name":"","type":"address"}],"name":"refundVotes","outputs":[{"internalType":"uint256","name":"startTime","type":"uint256"},{"internalType":"uint256","name":"yesVotes","type":"uint256"},{"internalType":"uint256","name":"totalVotes","type":"uint256"},{"internalType":"bool","name":"executed","type":"bool"}],"stateMutability":"view","type":"function"},{"inputs":[{"internalType":"address","name":"tokenAddr","type":"address"}],"name":"releaseMilestone","outputs":[],"stateMutability":"nonpayable","type":"function"},{"inputs":[],"name":"renounceOwnership","outputs":[],"stateMutability":"nonpayable","type":"function"},{"inputs":[{"internalType":"address","name":"tokenAddr","type":"address"},{"internalType":"address","name":"suspiciousWallet","type":"address"},{"internalType":"string","name":"reason","type":"string"}],"name":"reportSuspiciousWallet","outputs":[],"stateMutability":"nonpayable","type":"function"},{"inputs":[{"internalType":"uint256","name":"_fee","type":"uint256"}],"name":"setLaunchFee","outputs":[],"stateMutability":"nonpayable","type":"function"},{"inputs":[{"internalType":"address","name":"_r","type":"address"}],"name":"setPancakeRouter","outputs":[],"stateMutability":"nonpayable","type":"function"},{"inputs":[{"internalType":"address","name":"_t","type":"address"}],"name":"setTreasury","outputs":[],"stateMutability":"nonpayable","type":"function"},{"inputs":[{"internalType":"address","name":"_v","type":"address"}],"name":"setVerifier","outputs":[],"stateMutability":"nonpayable","type":"function"},{"inputs":[{"internalType":"address","name":"tokenAddr","type":"address"}],"name":"startRefundVote","outputs":[],"stateMutability":"nonpayable","type":"function"},{"inputs":[{"internalType":"address","name":"","type":"address"},{"internalType":"address","name":"","type":"address"}],"name":"suspiciousReportCount","outputs":[{"internalType":"uint256","name":"","type":"uint256"}],"stateMutability":"view","type":"function"},{"inputs":[{"internalType":"address","name":"","type":"address"}],"name":"tokenBnbBalance","outputs":[{"internalType":"uint256","name":"","type":"uint256"}],"stateMutability":"view","type":"function"},{"inputs":[],"name":"tokenCount","outputs":[{"internalType":"uint256","name":"","type":"uint256"}],"stateMutability":"view","type":"function"},{"inputs":[{"internalType":"address","name":"","type":"address"}],"name":"tokenLPPair","outputs":[{"internalType":"address","name":"","type":"address"}],"stateMutability":"view","type":"function"},{"inputs":[{"internalType":"address","name":"","type":"address"}],"name":"tokens","outputs":[{"internalType":"address","name":"tokenAddress","type":"address"},{"internalType":"address","name":"dev","type":"address"},{"internalType":"string","name":"name","type":"string"},{"internalType":"string","name":"symbol","type":"string"},{"internalType":"uint256","name":"totalSupply","type":"uint256"},{"internalType":"uint256","name":"raiseCap","type":"uint256"},{"internalType":"uint256","name":"totalRaised","type":"uint256"},{"internalType":"uint256","name":"lpLockDays","type":"uint256"},{"internalType":"uint256","name":"vestingDays","type":"uint256"},{"internalType":"uint16","name":"devAllocationBps","type":"uint16"},{"internalType":"uint256","name":"launchTime","type":"uint256"},{"internalType":"uint256","name":"antiSnipeEnd","type":"uint256"},{"internalType":"uint8","name":"milestoneReleased","type":"uint8"},{"internalType":"uint256","name":"milestone1Time","type":"uint256"},{"internalType":"uint256","name":"milestone2Time","type":"uint256"},{"internalType":"uint256","name":"milestone3Time","type":"uint256"},{"internalType":"uint8","name":"safetyScore","type":"uint8"},{"internalType":"bool","name":"active","type":"bool"},{"internalType":"bool","name":"refundVoteActive","type":"bool"},{"internalType":"uint256","name":"maxContributionPerWallet","type":"uint256"},{"internalType":"uint256","name":"uniqueContributorCount","type":"uint256"},{"internalType":"uint16","name":"liquidityBps","type":"uint16"},{"internalType":"uint256","name":"liquidityBNB","type":"uint256"},{"internalType":"uint256","name":"devBNB","type":"uint256"},{"internalType":"uint256","name":"softCap","type":"uint256"},{"internalType":"uint256","name":"presaleEnd","type":"uint256"},{"internalType":"bool","name":"softCapHit","type":"bool"},{"internalType":"bool","name":"autoRefunded","type":"bool"}],"stateMutability":"view","type":"function"},{"inputs":[{"internalType":"address","name":"newOwner","type":"address"}],"name":"transferOwnership","outputs":[],"stateMutability":"nonpayable","type":"function"},{"inputs":[],"name":"treasury","outputs":[{"internalType":"address","name":"","type":"address"}],"stateMutability":"view","type":"function"},{"inputs":[{"internalType":"address","name":"w","type":"address"}],"name":"unblacklistWallet","outputs":[],"stateMutability":"nonpayable","type":"function"},{"inputs":[{"internalType":"uint256","name":"","type":"uint256"},{"internalType":"address","name":"","type":"address"}],"name":"usedEligibilityProofs","outputs":[{"internalType":"bool","name":"","type":"bool"}],"stateMutability":"view","type":"function"},{"inputs":[],"name":"verifier","outputs":[{"internalType":"address","name":"","type":"address"}],"stateMutability":"view","type":"function"},{"inputs":[{"internalType":"uint256","name":"amount","type":"uint256"},{"internalType":"uint256","name":"encumbered","type":"uint256"}],"name":"withdrawStuckBNB","outputs":[],"stateMutability":"nonpayable","type":"function"},{"stateMutability":"payable","type":"receive"}],"evm":{"bytecode":{"linkReferences":{},"object":"6080806040523460ba57331560a5575f8054336001600160a01b0319808316821784556040519390926001600160a01b0316907f8be0079c531659141344cd1fd0a4f28419497f9722a3daafe3b4186f6b6457e09080a360017f9b779b17422d0df92223018b32b4d1fa46e071723d6817e2486d003becc55f0055662386f26fc10000600b55338160085416176008553390600e541617600e55615a5e90816100bf8239f35b631e4fbdf760e01b81525f6004820152602490fd5b5f80fdfe61024080604052600436101561001d575b50361561001b575f80fd5b005b5f905f3560e01c908163037c4886146136c857508063057e729e146136ad5780630788a8a71461351e5780630c91d19c146134e6578063126eac43146133705780631b8028fb14613487578063212d25a61461346b578063222e0cf1146133d8578063242fefd7146133bd57806329369ccf146133705780632b7ac3f314613348578063391df7c9146133105780633f58cf1f146131ad5780634238b6921461319657806343237d4a1461315e57806344198cc51461311b5780634871b64a146130ce5780634aa06447146130b35780634adabe09146130775780634e576dea1461305b5780635313be2c1461300f5780635437988d14612fa75780635712455f14612f8c57806358a4cbd7146129ec5780635b34bc41146129965780635b9605ea146129795780635d35e54f1461295d5780635dd8ba881461291e5780635ff51a9f146128e557806360bb3979146128a457806361d027b31461287b578063634282af1461283757806363b8ce5f1461281b578063685e4236146127ff578063715018a6146127b957806373458d101461271557806373e888fd1461221f57806374e47336146121e357806375f0c2f0146121c65780637e6b64641461212b57806384d232b51461149c57806384f047d5146113e8578063887813b2146113a95780638afb309c146112b45780638da5cb5b1461128d57806391cb32a71461124057806396c6ce0e146112235780639b0b26a2146111b35780639c2711741461115e5780639f181b5e14611140578063a488328614611124578063a818fdcb146110ea578063aa180cd614611095578063ab2adc0014611077578063b31e608714610f54578063b65f192714610dbb578063b9148eee14610d98578063b9af648c14610c81578063bb2061b214610c2f578063bd2f942d14610bf2578063bee884d214610b97578063bffa55d51461096c578063c1f7f9ac14610933578063c21ebd071461090a578063cf3cf573146108ec578063d79ecf90146108a2578063dc67195f14610850578063e1a6ae3814610817578063e48603391461057b578063e6cf813414610558578063f0f44260146104ee578063f25ea8b5146104d1578063f2fde38b1461045f578063f67cd9cd14610426578063f8316c90146103aa5763fe575a870361001057346103a75760203660031901126103a75760209060ff906040906001600160a01b0361039361377d565b168152600a84522054166040519015158152f35b80fd5b50346103a75760203660031901126103a7576103c461377d565b6103cc6141a2565b6001600160a01b0316801561041457600f80546001600160a01b031916821790557f7cd91bb102d5b88808255aa4b0877f151c1c4d2e61deef286b983f293eea60ab8280a280f35b60405163d92e233d60e01b8152600490fd5b50346103a75760203660031901126103a7576020906040906001600160a01b0361044e61377d565b168152601283522054604051908152f35b50346103a75760203660031901126103a75761047961377d565b6104816141a2565b6001600160a01b039081169081156104b8575f548260018060a01b03198216175f55165f805160206159a98339815191525f80a380f35b604051631e4fbdf760e01b815260048101849052602490fd5b50346103a757806003193601126103a75760206040516103e88152f35b50346103a75760203660031901126103a75761050861377d565b6105106141a2565b6001600160a01b0316801561041457600e80546001600160a01b031916821790557f7dae230f18360d76a040c81f050aa14eb9d6dc7901b20fc5d855e2a20fe814d18280a280f35b50346103a757806003193601126103a757602060405167016345785d8a00008152f35b50346103a75760203660031901126103a7576001600160a01b0390604090826105a261377d565b1681526001602052206102205280610220515416610140526001610220510154166105d260026102205101613919565b610160526105e560036102205101613919565b6101a05260046102205101546101205260ff60056102205101549160066102205101546007610220510154600861022051015461ffff600961022051015416600a610220510154600b6102205101549087600c6102205101541692600d61022051015494600e61022051015496600f6102205101549861070e6106f960106102205101549c6011610220510154608052601261022051015460a05261ffff60136102205101541660e05260146102205101546102005260156102205101546101e05260166102205101546101c05260176102205101546101805260186102205101546101005260405160c052610380906101405160c05152602060c051015280604060c051015260c05101610160516139bb565b60c0518103606060c05101526101a0516139bb565b9c61012051608060c051015260a060c051015260c08051015260e060c051015261010060c051015261012060c051015261014060c051015261016060c051015261018060c05101526101a060c05101526101c060c05101526101e060c051015281811661020060c0510152818160081c16151561022060c051015260101c16151561024060c051015260805161026060c051015260a05161028060c051015260e0516102a060c0510152610200516102c060c05101526101e0516102e060c05101526101c05161030060c05101526101805161032060c051015260ff6101005116151561034060c051015260ff6101005160081c16151561036060c051015260c051900360c051f35b50346103a75760203660031901126103a7576020906040906001600160a01b0361083f61377d565b168152600c83522054604051908152f35b50346103a75760403660031901126103a75761086a61377d565b6040610874613793565b9260018060a01b03809316815260196020522091165f52602052602060ff60405f2054166040519015158152f35b50346103a75760403660031901126103a75760406108be613793565b9160043581526009602052209060018060a01b03165f52602052602060ff60405f2054166040519015158152f35b50346103a757806003193601126103a7576020600b54604051908152f35b50346103a757806003193601126103a757600f546040516001600160a01b039091168152602090f35b50346103a75760203660031901126103a7576020906040906001600160a01b0361095b61377d565b168152600783522054604051908152f35b50346103a757602080600319360112610b935761098761377d565b61098f614173565b6001600160a01b03168083526001825260408320601081015460081c60ff16610b81578184526003835260ff60036040862001541615610b6f578184526004835260408420335f52835260405f2054908115610b5d578285526004845260408520335f5284528460405f2055849060ff600c820154166001811015610b53575b6002811015610b2c575b60031115610b05575b612710610a376006610a3e93015493846139df565b0482613a99565b9182151580610afc575b15610af257610a5f92610a5a916139df565b6139f2565b905b818015610ad857818552601484526040852054809111610aea575b508115610ad8578380939260148294839484525260408220610a9f828254613a99565b9055335af1610aac613b7d565b5015610ac65760015f80516020615a098339815191525580f35b6040516312171d8360e31b8152600490fd5b60405163b10205ed60e01b8152600490fd5b91505f610a7c565b5050508290610a61565b50811515610a48565b90610d488101809111610b185790610a22565b634e487b7160e01b86526011600452602486fd5b91610ce48101809111610b3f5791610a19565b634e487b7160e01b87526011600452602487fd5b610ce49250610a0f565b60405163634b67f560e11b8152600490fd5b60405163764258ed60e11b8152600490fd5b60405163113ac95f60e21b8152600490fd5b5080fd5b50346103a75760403660031901126103a757610bb161377d565b6001600160a01b039081168252601560205260408220805460243593908410156103a75750602092610be291613838565b9190546040519260031b1c168152f35b50346103a75760203660031901126103a7576020906012906040906001600160a01b03610c1d61377d565b16815260018452200154604051908152f35b50346103a75760403660031901126103a757610c4961377d565b6040610c53613793565b9260018060a01b03809316815260186020522091165f52602052602060ff60405f2054166040519015158152f35b50346103a757602080600319360112610b93576001600160a01b0380610ca561377d565b1690818452600183526040842091600360ff600c8501541603610d86578452600c83526040842054610d7457601082019182549060ff8260081c1615610d62577f04e2738c0439b38c78e2d8e54bffb925f2949894f0eed5c60b7772b5da77edec9360019261ff0019169055018181541685526016845260408520610d2a8154613f0e565b905554169182845260158152604084205460168252601760408620549252610d5c60408620546040519384938461387a565b0390a280f35b604051638616bbbb60e01b8152600490fd5b604051636567cc4d60e11b8152600490fd5b604051630701727f60e01b8152600490fd5b50346103a757806003193601126103a75760206040516706f05b59d3b200008152f35b50346103a75760603660031901126103a757610dd561377d565b610ddd613793565b906044356001600160401b038111610f5057610dfd90369060040161384d565b929060018060a01b03809316928386526020926001845260ff601060408920015460081c1615610f3e57169384156104145733851461041457838652601b835260408620335f52835260405f20855f52835260ff60405f205416610f2c57837f1d0233127b9ee34261fa558aafd3001a764f70f77fc3bba2f9edc8219517db84610ede8794838a52601b875260408a20335f52875260405f20865f52875260405f20600160ff19825416179055838a52601a875260408a20865f52875260405f20610ec88154613f0e565b9055604051918291888352339689840191613eee565b0390a4818452601a81526040842090835f5252600560405f20541015610f02578280f35b7fd579c7d4bfb21d06c84a7d5c919b63a886c23fb57457c2da53117e7843ef0bd08380a35f808280f35b604051637c9a1cf960e01b8152600490fd5b604051634065aaf160e11b8152600490fd5b8380fd5b50346103a75760203660031901126103a7576001600160a01b0380610f7761377d565b1690818352600160205260408320601081019081549260ff8460081c16156110655760ff8460101c1661105357600182015416855260076020526040852054621275008101809111610b18574210611041576006019081541561102f576201000060039362ff000019161790558284528160205260408420904282558460018301555460028201550160ff1981541690557f334735b0c8438283143afcb13d4c2b5e01c6bbe0eae4c6433bde5008a5d9a8618280a280f35b60405163043f9e1160e41b8152600490fd5b604051635cb717f560e01b8152600490fd5b604051631b37a49b60e11b8152600490fd5b604051635a7cb4e960e01b8152600490fd5b50346103a757806003193601126103a7576020600d54604051908152f35b50346103a75760203660031901126103a7576001600160a01b036110b761377d565b1681526015602052604081205460166020526110e660408084205493601760205220546040519384938461387a565b0390f35b50346103a75760603660031901126103a75761111461110761377d565b6044359060243590613f6a565b906110e6604051928392836137bf565b50346103a757806003193601126103a7576020604051601e8152f35b50346103a757806003193601126103a7576020600254604051908152f35b50346103a75760203660031901126103a7576001600160a01b0361118061377d565b16815260016020526040600681832001549160146020522054906110e66111a78383613a99565b6040519384938461387a565b50346103a75760603660031901126103a7576111cd61377d565b906111d6613793565b906044359260018060a01b039182851680950361121f5782604092168152601b6020522091165f5260205260405f20905f52602052602060ff60405f2054166040519015158152f35b5f80fd5b50346103a757806003193601126103a7576020604051610e108152f35b50346103a75760403660031901126103a75761125a61377d565b6040611264613793565b9260018060a01b03809316815260056020522091165f52602052602060405f2054604051908152f35b50346103a757806003193601126103a757546040516001600160a01b039091168152602090f35b50346103a757602080600319360112610b93576112cf61377d565b906112d8614173565b6001600160a01b0391821680845260018083526040852090810154919390911633036113975760ff600c60039201541603610d86578183526003815260ff600360408520015416610d6257818352600c81526040832054918215610d74578352600c81528260408120558280808085335af1611352613b7d565b5015610ac6577f623aaf84687869efe3b904dd42bc0bd45020d407984041c86f9fe076be224708906040519283523392a260015f80516020615a098339815191525580f35b6040516308cf65e560e41b8152600490fd5b50346103a75760203660031901126103a75760209060ff906040906001600160a01b036113d461377d565b168152600684522054166040519015158152f35b50346103a757602080600319360112610b935760a0916001600160a01b03918261141061377d565b1682526013815260ff604083205416926010825260408320541660118252604083205490601283526040842054926013815260ff6040862054169485611489575b85611476575b5060405195151586528501526040840152606083015215156080820152f35b601182526040902054151594505f611457565b6012825260408120544210159550611451565b506101603660031901126103a7576004356001600160401b038111610b93576114c990369060040161384d565b9091906024356001600160401b038111611fb8576114eb90369060040161384d565b9260c4359161ffff83168303610b9357610104356001600160401b038111611fb85761151e61153091369060040161384d565b90611527614173565b60e435336141cd565b338252600a60205260ff60408320541661211957600b549467016345785d8a000086018611611f715767016345785d8a0000860134106121075760b4608435106120f557605a60a435106120e3576103e861ffff8516116120d157670de0b6b3a7640000604435106120bf57662386f26fc100006064351080156120a9575b612097578415801561208f575b61207d57600761014435108015612070575b6120555761012435612018575b60286101f461ffff86161115612010575b6115f86115fd91613b50565b613b50565b6040519093906001600160401b03611575820190811190821117611ffc57611575614414823960806115758201528061165861164160806115758401018a8d613eee565b611575830181036020611575850101528587613eee565b60443560406115758401015230606061157584010152039082f0968715611fef5761271061168c61ffff88166044356139df565b0460a4356201518060a4350204620151801460a435151715611f71576001600160a01b0389163b15611fb857604051630d823f8360e21b81523360048201526024810182905242604482015260a480356201518002606483015260c860848301528490829081836001600160a01b038f165af18015611fd057908491611fdb575b5050603c42014211611f71576001600160a01b0389163b15611fb8576040516313a62fa960e11b815242603c0160048201528381602481836001600160a01b038f165af18015611fd057908491611fbc575b50506001600160a01b0389163b15611fb8578261179191604051809381926307f57da760e11b83523360048401613a35565b0381836001600160a01b038e165af18015611fad57908391611f99575b505062278d0042014211611f8557624f1a0042014211611f85576276a70042014211611f85576127106117e6610124356064356139df565b046101443562015180610144350204620151801461014435151715611f715761181762015180610144350242613a10565b604051916001600160401b03610380840190811190841117611dbb5761038083016040526001600160a01b038b168352336020840152611858368b8e613f1c565b6040840152611868368789613f1c565b6060840152604435608084015260643560a08401528460c084015260843560e084015260a43561010084015261ffff891661012084015242610140840152603c42016101608401528461018084015262278d0042016101a0840152624f1a0042016101c08401526276a70042016101e084015260ff881661020084015260016102208401528461024084015260146064350461026084015284610280840152610bb86102a0840152846102c0840152846102e0840152610300830152610320820152826103408201528261036082015260018060a01b038916835260016020526040832060018060a01b0382511660018060a01b03199081835416178255600182019060018060a01b0360208501511690825416179055604082015180519060018060401b038211611e945781906119a36002850154613890565b601f8111611f21575b50602090601f8311600114611eb3578792611ea8575b50508160011b915f199060031b1c19161760028201555b60608201518051906001600160401b038211611e94576119fc6003840154613890565b601f8111611e50575b50602090601f8311600114611dda57928261036093601893611b9897968a92611dcf575b50508160011b915f199060031b1c19161760038201555b6080840151600482015560a0840151600582015560c0840151600682015560e0840151600782015561010084015160088201556009810161ffff6101208601511661ffff19825416179055610140840151600a820155610160840151600b82015560ff6101808501511660ff19600c8301541617600c8201556101a0840151600d8201556101c0840151600e8201556101e0840151600f8201556010810160ff6102008601511660ff19825416178155611b01610220860151151582613f52565b610240850151151562ff000082549160101b169062ff00001916179055610260840151601182015561028084015160128201556013810161ffff6102a08601511661ffff198254161790556102c084015160148201556102e08401516015820155610300840151601682015561032084015160178201550191610340810151151560ff801985541691161783550151151590613f52565b6001600160a01b038816808352601960209081526040808520335f9081529083528190208054600160ff199182168117909255938652600690925284208054909216179055600254600160401b811015611dbb57806001611bfc920160025561380c565b81546001600160a01b038b811660039390931b92831b921b191617905533825260156020526040822080549091600160401b821015611dbb57611c5182611c8494600167016345785d8a000095018155613838565b81546001600160a01b038d811660039390931b92831b921b19161790553384526007602052604084204290550134613a99565b81600b5480611d91575b50506001600160a01b0388168252600c6020526040822067016345785d8a0000905580611d6f575b5050611cea60ff939261ffff92611cdd60209a604051996101008b526101008b0191613eee565b918883038b8a0152613eee565b60443560408701526064356060870152608435608087015260a43560a0870152931660c08501521660e083015233916001600160a01b038416917f174b1c441c7e1607660f9ad04ce58cc91786c18b1431b4814b707f3f6f8b3236919081900390a360015f80516020615a09833981519152556040516001600160a01b039091168152f35b81808092969596335af1611d81613b7d565b5015610ac6575f80939293611cb6565b600e54829182918291906001600160a01b03165af1611dae613b7d565b5015610ac657815f611c8e565b634e487b7160e01b5f52604160045260245ffd5b015190505f80611a29565b906003840187526020872091875b601f1985168110611e38575083601893611b9897969360019361036097601f19811610611e20575b505050811b016003820155611a40565b01515f1960f88460031b161c191690555f8080611e10565b91926020600181928685015181550194019201611de8565b60038401875260208720601f840160051c810160208510611e8d575b601f830160051c82018110611e82575050611a05565b888155600101611e6c565b5080611e6c565b634e487b7160e01b86526041600452602486fd5b015190505f806119c2565b9250600284018752602087209087935b601f1984168510611f06576001945083601f19811610611eee575b505050811b0160028201556119d9565b01515f1960f88460031b161c191690555f8080611ede565b81810151835560209485019460019093019290910190611ec3565b90915060028401875260208720601f840160051c810160208510611f6a575b90849392915b601f830160051c82018110611f5c5750506119ac565b898155859450600101611f46565b5080611f40565b634e487b7160e01b83526011600452602483fd5b634e487b7160e01b82526011600452602482fd5b611fa2906138c8565b610b9357815f6117ae565b6040513d85823e3d90fd5b8280fd5b611fc5906138c8565b611fb857825f61175f565b6040513d86823e3d90fd5b611fe4906138c8565b611fb857825f61170d565b50604051903d90823e3d90fd5b634e487b7160e01b82526041600452602482fd5b50603c6115ec565b6107d061012435108015612047575b156115db5760405163d7c4af9f60e01b8152610124356004820152602490fd5b506127106101243511612027565b6040516313b783af60e21b8152610144356004820152602490fd5b50601e61014435116115ce565b60405163519a33eb60e01b8152600490fd5b5080156115bc565b604051634cf6431360e01b8152600490fd5b50676765c793fa10079d601b1b606435116115af565b60405163c16f3a9360e01b8152600490fd5b6040516347c47a3560e01b8152600490fd5b604051631dd59aab60e31b8152600490fd5b6040516357e4eb0960e01b8152600490fd5b60405163b6160b9b60e01b8152600490fd5b6040516309550c7760e01b8152600490fd5b50346103a75761213a366137a9565b6121426141a2565b8047115f146121bf576121559047613a99565b81116121ad5760018060a01b038280808085858254165af1612175613b7d565b5015610ac65760207f4a6188559939e4ee223b5f2a5b165b7aea756e7765ce9c3a41ee92e8bfe7bcf89184541692604051908152a280f35b604051631a82a05d60e11b8152600490fd5b5081612155565b50346103a757806003193601126103a75760206040516107d08152f35b50346103a75760203660031901126103a7576020906001600160a01b03906040908261220d61377d565b16815260108452205416604051908152f35b50602080600319360112610b935761223561377d565b61223d614173565b6001600160a01b039081168084526001835260408420601081015491929160ff9060081c81161561106557601782015442101561270357601882019080825460081c166126f15734156126df5784875260138652806040882054166126cd5760068301906122ac348354613a10565b9260058501938454106126bb578689526004885260408920335f52885260405f2054601186015490888b5260058a5260408b20335f528a5260405f205491600b88015491816122fb3483613a10565b1161269257505042109081612649575b50612623575b8689526019885260408920335f5288528160405f2054166126115786928891848b526018835260408b20335f5283528360405f2054161580612600575b6125cc575b848b526004835260408b20335f52835260405f20612372348254613a10565b905561237f348354613a10565b8255848b526014835260408b20612397348254613a10565b9055805493841615806125bd575b612580575b505050505060048201546127108082029180830482149015171561256c5761ffff908160138601541601818111612558576123e7929116906139f2565b9054801561255057610a5a6123fd9234906139df565b801561253e576040516370a0823160e01b8152600481018590528581602481885afa80156125335782918891612502575b50106124f0578590843b15610b93578161245d91604051809381926307f57da760e11b83523360048401613a35565b038183895af180156124e5576124cd575b5050600101541633146124bb575b7f188177a91f9b084dadc3c86215ff29aa75ddaf05ed75983c8c498c40989d58c9604051923484523393a360015f80516020615a098339815191525580f35b3383526007825242604084205561247c565b6124d6906138c8565b6124e157845f61246e565b8480fd5b6040513d84823e3d90fd5b60405163f16517d160e01b8152600490fd5b809250878092503d831161252c575b61251b81836138f6565b8101031261121f578190515f61242e565b503d612511565b6040513d89823e3d90fd5b604051636989e9d160e11b8152600490fd5b5050846123fd565b634e487b7160e01b89526011600452602489fd5b634e487b7160e01b88526011600452602488fd5b60017f127a0d60b64e68d983855c4d67e59aab432c3fded72f4317958b05a2eb1dbe0f9460ff191617905554604051908152a2835f8681806123aa565b508154601688015411156123a5565b848b526018835260408b20335f52835260405f20600160ff19825416179055601287016125f98154613f0e565b9055612353565b50662386f26fc1000034101561234e565b60405163a5baf15160e01b8152600490fd5b8689526005885260408920335f52885260405f20612642348254613a10565b9055612311565b6706f05b59d3b20000908161265e3483613a10565b11612669575061230b565b906126776044923490613a10565b9060405191637a0fda0560e11b835260048301526024820152fd5b906126a06044923490613a10565b90604051916301f9262160e61b835260048301526024820152fd5b60405163bed2e42d60e01b8152600490fd5b60405163394fc79160e11b8152600490fd5b604051631971fbf360e21b8152600490fd5b604051631aabe3f360e01b8152600490fd5b604051631eb1561f60e01b8152600490fd5b50346103a75760403660031901126103a75761272f61377d565b6024356001600160401b038111611fb85761274e90369060040161384d565b90916127586141a2565b6001600160a01b031691821561041457828452600a60205260ff604085205416612119575f805160206159c983398151915291838552600a60205260408520600160ff19825416179055610d5c604051928392602084526020840191613eee565b50346103a757806003193601126103a7576127d26141a2565b5f80546001600160a01b0319811682556001600160a01b03165f805160206159a98339815191528280a380f35b50346103a757806003193601126103a7576020604051605a8152f35b50346103a757806003193601126103a7576020604051600a8152f35b50346103a75760203660031901126103a757600435906002548210156103a75760206128628361380c565b905460405160039290921b1c6001600160a01b03168152f35b50346103a757806003193601126103a757600e546040516001600160a01b039091168152602090f35b50346103a75760203660031901126103a75760209060ff906010906040906001600160a01b036128d261377d565b1681526001855220015416604051908152f35b50346103a75760203660031901126103a7576020906040906001600160a01b0361290d61377d565b168152601783522054604051908152f35b50346103a75760203660031901126103a75760209060ff906040906001600160a01b0361294961377d565b168152601384522054166040519015158152f35b50346103a757806003193601126103a757602060405160c88152f35b50346103a757806003193601126103a7576020604051610bb88152f35b50346103a75760203660031901126103a7576129b061377d565b6129b86141a2565b6001600160a01b0316808252600a602052604082205460ff1615612119578152600a60205260408120805460ff1916905580f35b503461121f57602036600319011261121f57612a0661377d565b612a0e614173565b60018060a01b03908181165f52600160205260405f20918060018401541615612f7a5780600f541615612f68578082165f52601360205260ff60405f205416612f5657600683018054600585015411801590612f27575b15612f12578183165f52601360205260405f20600160ff19825416179055601584019081541580612f08575b612ed8575b50506014830154918215612ec657604051926370a0823160e01b845282821660048501526020846024818686165afa938415612e75575f94612e92575b508315612e80578282163b1561121f576040516307f57da760e11b81525f8180612b01883060048401613a35565b0381838888165af18015612e7557612e62575b50612b3b60208585600f5416604051938492839263095ea7b360e01b845260048401613a35565b03818a8888165af1801561253357612e33575b50605f8402848104605f03610b3f57605f820290828204605f0361256c5784600f54169161012c420191824211612e1f57846060948894606460c495818b966040519e8f9a8b9963f305d71960e01b8b521660048a0152602489015204604487015204606485015230608485015260a48401525af1908115612e1457869087958893612dce575b50600f5460405163c45a015560e01b815297908616602089600481845afa988915612d9e578a99612da9575b506020600491604051928380926315ab88c960e31b82525afa8015612d9e57604488916020938d91612d81575b5060405163e6a4390560e01b8152898416600482015290831660248201529a8b928391165afa978815612d76578998612d42575b508486168952601060209081526040808b2080546001600160a01b0319169a89169a8b179055601190915289208490556007015462015180808202918015908304909114171561255857917f4a1a2a6176e9646d9e3157f7c2ab3c499f18337c0b0828cfb28e0a61de4a11f795949391612cdf612d259442613a10565b8587168b52601260205260408b2055871015612d3c576014602052612d088760408b2054613a99565b8585168a52601460205260408a205560405194859416968461387a565b0390a360015f80516020615a098339815191525580f35b88612d08565b6007919850612d689060203d602011612d6f575b612d6081836138f6565b810190613ecf565b9790612c62565b503d612d56565b6040513d8b823e3d90fd5b612d989150843d8611612d6f57612d6081836138f6565b5f612c2e565b6040513d8c823e3d90fd5b6004919950612dc6602091823d8411612d6f57612d6081836138f6565b999150612c01565b95509150506060843d606011612e0c575b81612dec606093836138f6565b81010312612e085783516020850151604090950151915f612bd5565b8580fd5b3d9150612ddf565b6040513d88823e3d90fd5b634e487b7160e01b8a52601160045260248afd5b612e549060203d602011612e5b575b612e4c81836138f6565b810190613a1d565b505f612b4e565b503d612e42565b612e6d9196506138c8565b5f945f612b14565b6040513d5f823e3d90fd5b60405163c4961dd160e01b8152600490fd5b9093506020813d602011612ebe575b81612eae602093836138f6565b8101031261121f5751925f612ad3565b3d9150612ea1565b60405163f727cdc360e01b8152600490fd5b612eff9054612710612ef261ffff601389015416836139df565b0490816014880155613a99565b90555f80612a96565b5080541515612a91565b6040516001620b806b60e21b03198152600490fd5b50600a84015462278d008101809111612f4257421015612a65565b634e487b7160e01b5f52601160045260245ffd5b604051630fd02b6d60e41b8152600490fd5b60405163179ce99f60e01b8152600490fd5b604051630cbdb7b360e41b8152600490fd5b3461121f575f36600319011261121f57602060405160b48152f35b3461121f57602036600319011261121f57612fc061377d565b612fc86141a2565b6001600160a01b0316801561041457600880546001600160a01b031916821790557fd24015cc99cc1700cafca3042840a1d8ac1e3964fd2e0e37ea29c654056ee3275f80a2005b3461121f57602036600319011261121f577fc799be5eb19a1a6d6ba7368d21e2bc367c8a335e4a07cd3d954482e6f714d3c5602060043561304e6141a2565b80600b55604051908152a1005b3461121f575f36600319011261121f5760206040516113888152f35b3461121f57602036600319011261121f576130a061309361377d565b61309b614173565b613bac565b60015f80516020615a0983398151915255005b3461121f575f36600319011261121f57602060405160058152f35b3461121f57604036600319011261121f576130e761377d565b6130ef613793565b9060018060a01b038091165f52601a60205260405f2091165f52602052602060405f2054604051908152f35b3461121f57602036600319011261121f576001600160a01b0361313c61377d565b165f526001602052602060ff601060405f20015460101c166040519015158152f35b3461121f57602036600319011261121f576001600160a01b0361317f61377d565b165f526014602052602060405f2054604051908152f35b3461121f576111146131a7366137a9565b90613aba565b3461121f5760208060031936011261121f576131c761377d565b6131cf614173565b60018060a01b0380911690815f5260018352600160405f2001928184541633036132fe57825f526013815260ff60405f20541615612f1257825f526012815260405f205442106132ec57825f526011815260405f2054156132da5761326d91835f526011825260405f20945f865496556010835282868360405f205416848454165f60405180998195829463a9059cbb60e01b845260048401613a35565b03925af1938415612e75577f9796b9c1e41a3a5adfe8c1b43d4fa0fab73b8c65c99f99ead85e6405e74f284e946132bd575b50541693604051908152a360015f80516020615a0983398151915255005b6132d390843d8611612e5b57612e4c81836138f6565b508661329f565b604051630c8d9eab60e31b8152600490fd5b604051634fbae7a360e01b8152600490fd5b60405163f53bda4160e01b8152600490fd5b3461121f57602036600319011261121f576001600160a01b0361333161377d565b165f526011602052602060405f2054604051908152f35b3461121f575f36600319011261121f576008546040516001600160a01b039091168152602090f35b3461121f57604036600319011261121f5761338961377d565b613391613793565b9060018060a01b038091165f52600460205260405f2091165f52602052602060405f2054604051908152f35b3461121f575f36600319011261121f576020604051603c8152f35b3461121f57602036600319011261121f576001600160a01b036133f961377d565b165f52600360205260405f20600160205260ff601060405f20015460101c168061345c575b80613431575b6020906040519015158152f35b506002600182015491015490603382029180830460331490151715612f425760646020920410613424565b5060ff6003820154161561341e565b3461121f575f36600319011261121f5760206040516107d08152f35b3461121f57602036600319011261121f576001600160a01b036134a861377d565b165f526003602052608060405f2080549060018101549060ff6003600283015492015416916040519384526020840152604083015215156060820152f35b3461121f57602036600319011261121f576001600160a01b0361350761377d565b165f526016602052602060405f2054604051908152f35b3461121f57604036600319011261121f5761353761377d565b602435801515810361121f5760018060a01b038216805f526020906001825260405f209160ff601084015460101c161561369b57815f526003815260405f209160048301335f5280835260ff60405f205416610f2c57815f526004835260405f20335f52835260405f2054156136895760ff60038501541661367757600194600691335f52845260405f208660ff198254161790550154948086600286015561364d575b1561363857805f526004825260405f20335f5282525f805160206159e983398151915260405f2054925b6040519384523393a3015490603381029080820460331490151715612f4257606490041061362f57005b61001b90614021565b5f805160206159e98339815191525f92613605565b815f526004835260405f20335f52835260405f2054613670868601918254613a10565b90556135db565b6040516368f46c4560e01b8152600490fd5b60405163d764187d60e01b8152600490fd5b604051631ac7c05160e11b8152600490fd5b3461121f575f36600319011261121f57602060405160078152f35b3461121f57602036600319011261121f576136e161377d565b9060018060a01b03821690815f526001602052601060405f2001549060ff8260081c161561376e575060101c60ff161561369b575f52600360205260405f2060ff6003820154166136775760026001820154910154603381029080820460331490151715612f425760649004101561375c5761001b90614021565b6040516371d64f9360e01b8152600490fd5b635a7cb4e960e01b8152600490fd5b600435906001600160a01b038216820361121f57565b602435906001600160a01b038216820361121f57565b604090600319011261121f576004359060243590565b9291906040840160408552815180915260608501906020809301925f5b8281106137ef5750505060209150930152565b84516001600160a01b0316845293810193928101926001016137dc565b6002548110156138245760025f5260205f2001905f90565b634e487b7160e01b5f52603260045260245ffd5b8054821015613824575f5260205f2001905f90565b9181601f8401121561121f578235916001600160401b03831161121f576020838186019501011161121f57565b6040919493926060820195825260208201520152565b90600182811c921680156138be575b60208310146138aa57565b634e487b7160e01b5f52602260045260245ffd5b91607f169161389f565b6001600160401b038111611dbb57604052565b602081019081106001600160401b03821117611dbb57604052565b601f909101601f19168101906001600160401b03821190821017611dbb57604052565b9060405191825f825461392b81613890565b908184526020946001916001811690815f14613999575060011461395b575b505050613959925003836138f6565b565b5f90815285812095935091905b81831061398157505061395993508201015f808061394a565b85548884018501529485019487945091830191613968565b9250505061395994925060ff191682840152151560051b8201015f808061394a565b805180835260209291819084018484015e5f828201840152601f01601f1916010190565b81810292918115918404141715612f4257565b81156139fc570490565b634e487b7160e01b5f52601260045260245ffd5b91908201809211612f4257565b9081602091031261121f5751801515810361121f5790565b6001600160a01b039091168152602081019190915260400190565b6001600160401b038111611dbb5760051b60200190565b90613a7182613a50565b613a7e60405191826138f6565b8281528092613a8f601f1991613a50565b0190602036910137565b91908203918211612f4257565b80518210156138245760209160051b010190565b916002549182841015613b3557613ad19084613a10565b828111613b2e575b613aeb613ae68583613a99565b613a67565b93805b828110613afa57505050565b80613b0660019261380c565b838060a01b0391549060031b1c16613b27613b218584613a99565b89613aa6565b5201613aee565b5081613ad9565b50909150604051613b45816138db565b5f81525f3681379190565b60ff60149116019060ff8211612f4257565b6001600160401b038111611dbb57601f01601f191660200190565b3d15613ba7573d90613b8e82613b62565b91613b9c60405193846138f6565b82523d5f602084013e565b606090565b9060018060a01b0380921691825f52602060018152604091825f209460108601549060ff96878360081c1615613ebe5760068101549260058201548410801590613ea3575b15613e8f576016820154151580613e81575b613e705788601883015460081c16613e5f57600c82019081549460018b8716018b8111612f42578b169a60038c11613e4f5760018c03613e2957600d85015492610ce4935b4210613e185760101c16613e075760028b1480613df9575b613de85761271091613c8691601586019081541580613ddf575b613da1575b50546139df565b04938415613d645750825f526014865283875f205410613d53579580979860015f80516020615989833981519152937f2af048e62453efffc10fab1340dab57fa5c7c2e72dc30df457608651277d1ea599865f5260148a52845f20613cec898254613a99565b90558360ff198254161790550194868654165f526007885242835f20555f808080848b8b54165af1613d1c613b7d565b5015613d37575b825191825287820152a254169251428152a2565b845f52600c8852825f20613d4c828254613a10565b9055613d23565b865163fe382aa760e01b8152600490fd5b5f9450916001918a5f805160206159898339815191529998959a9b979460ff191617905501541682526007815242848320558351928352820152a2565b601487018054613dbb92908015613dc35780925b55613a99565b81555f613c7f565b5086613dd761ffff60138c015416836139df565b048092613db5565b50801515613c7a565b885163f66eb8e760e01b8152600490fd5b50600a601285015410613c60565b8851631b37a49b60e11b8152600490fd5b8a5163069fbbbb60e11b8152600490fd5b60028c03613e4057600e85015492610ce493613c48565b600f85015492610d4893613c48565b895162f485bd60e71b8152600490fd5b8651630174782360e71b8152600490fd5b865163cc3f25f960e01b8152600490fd5b508860188301541615613c03565b86516001620b806b60e21b03198152600490fd5b50600a82015462278d008101809111612f4257421015613bf1565b8551635a7cb4e960e01b8152600490fd5b9081602091031261121f57516001600160a01b038116810361121f5790565b908060209392818452848401375f828201840152601f01601f1916010190565b5f198114612f425760010190565b929192613f2882613b62565b91613f3660405193846138f6565b82948184528183011161121f578281602093845f960137010152565b9061ff00825491151560081b169061ff001916179055565b92909260018060a01b0380911693845f52601591602092601560205260409060405f2054968785101561400c57613fa19085613a10565b94878611614004575b613fb7613ae68688613a99565b98855b878110613fcb575050505050505050565b600190825f5284845286613fe182885f20613838565b90549060031b1c16613ffd8d613ff78b85613a99565b90613aa6565b5201613fba565b879550613faa565b505050505050909150604051613b45816138db565b60018060a01b0380911690815f526017602060018152604092835f206003835260016003865f20019160ff199282848254161790556010810161ff0019815416905560138552865f208284825416179055601185525f878120550190828254165f52600a8452855f209081549060ff82161561412f575b505050855f52600c8352845f20805490816140e9575b505054165f52525f206140c18154613f0e565b90557fae7f97db0b8177e27e4396c4575565840aa5920187184c9568c3b5d47f8eba8a5f80a2565b5f90556140f881600d54613a10565b600d557f06e238cf96f0c12e531d3336078c024f62deadfcf747156940fbafdeced98f348484845416928851908152a25f806140ae565b60019116179055818154165f805160206159c983398151915260608751868152600d878201526c1499599d5b99081c185cdcd959609a1b89820152a25f8080614098565b5f80516020615a0983398151915260028154146141905760029055565b604051633ee5aeb560e01b8152600490fd5b5f546001600160a01b031633036141b557565b60405163118cdaa760e01b8152336004820152602490fd5b81156142d8578142116142c657815f526009602052604093845f209360018060a01b039283811695865f5260205260ff875f2054166142b5579161426a6142709261427995948951614236816142288b602083019586613a35565b03601f1981018352826138f6565b5190207b0ca2ba3432b932bab69029b4b3b732b21026b2b9b9b0b3b29d05199960211b5f52601c52603c5f20923691613f1c565b906142de565b90939193614318565b80600854169116036142a4575f526009602052815f20905f526020525f20600160ff19825416179055565b82516313b3b20b60e01b8152600490fd5b86516313b3b20b60e01b8152600490fd5b60405163b67a771360e01b8152600490fd5b50505050565b815191906041830361430e576143079250602082015190606060408401519301515f1a9061439b565b9192909190565b50505f9160029190565b6004811015614387578061432a575050565b600181036143445760405163f645eedf60e01b8152600490fd5b600281036143655760405163fce698f760e01b815260048101839052602490fd5b60031461436f5750565b602490604051906335e2f38360e21b82526004820152fd5b634e487b7160e01b5f52602160045260245ffd5b91906fa2a8918ca85bafe22016d0b997e4df60600160ff1b038411614408579160209360809260ff5f9560405194855216868401526040830152606082015282805260015afa15612e75575f516001600160a01b038116156143fe57905f905f90565b505f906001905f90565b5050505f916003919056fe604060808152346103c5576115758038038061001a816103c9565b92833981016080828203126103c55781516001600160401b03908181116103c557826100479185016103ee565b9060209283850151908282116103c5576100629186016103ee565b8585015160609095015190926001600160a01b0392838316928390036103c55781518181116102da576003908154906001948583811c931680156103bb575b8a8410146103a7578190601f93848111610359575b508a908483116001146102f9575f926102ee575b50505f1982851b1c191690851b1782555b86519283116102da5760049687548581811c911680156102d0575b8a8210146102bd5782811161027a575b5088918411600114610218579383949184925f9561020d575b50501b925f19911b1c19161783555b80156101f757600580546001600160a01b031981168317909155865192167f8be0079c531659141344cd1fd0a4f28419497f9722a3daafe3b4186f6b6457e05f80a330156101e45750600254908382018092116101d157505f917fddf252ad1be2c89b69c2b068fc378daa952ba7f163c4a11628f55a4df523b3ef9160025530835282815284832084815401905584519384523093a35161113590816104408239f35b601190634e487b7160e01b5f525260245ffd5b5f60249263ec442f0560e01b8352820152fd5b8551631e4fbdf760e01b81525f81850152602490fd5b015193505f8061011f565b9190601f19841692885f52848a5f20945f5b8c89838310610263575050501061024a575b50505050811b01835561012e565b01519060f8845f19921b161c191690555f80808061023c565b86860151895590970196948501948893500161022a565b885f52895f208380870160051c8201928c88106102b4575b0160051c019086905b8281106102a9575050610106565b5f815501869061029b565b92508192610292565b602289634e487b7160e01b5f525260245ffd5b90607f16906100f6565b634e487b7160e01b5f52604160045260245ffd5b015190505f806100ca565b5f8681528c8120899550929190601f198516908e5b828210610342575050841161032b575b505050811b0182556100db565b01515f1983871b60f8161c191690555f808061031e565b8385015186558b979095019493840193018e61030e565b909150845f528a5f208480850160051c8201928d861061039e575b918991869594930160051c01915b8281106103905750506100b6565b5f8155859450899101610382565b92508192610374565b634e487b7160e01b5f52602260045260245ffd5b92607f16926100a1565b5f80fd5b6040519190601f01601f191682016001600160401b038111838210176102da57604052565b81601f820112156103c5578051906001600160401b0382116102da5761041d601f8301601f19166020016103c9565b92828452602083830101116103c557815f9260208093018386015e830101529056fe608060409080825260049081361015610016575f80fd5b5f3560e01c90816306fdde031461081857508063095ea7b31461076f5780630e48fb1c146107515780630feafb4e146107245780631514617e1461070657806318160ddd146106e857806323b872dd146106ac578063254800d41461068e578063274c5f5214610642578063313ce567146106275780633608fe0c146104dc57806342966c68146104bf57806344b1231f146104a35780634c20179e146104855780636d515c9f1461046757806370a082311461043b578063710820ed14610419578063715018a6146103d157806379cc6790146103a05780638da5cb5b1461037857806391cca3db1461035057806395d89b411461024d578063a9059cbb1461021d578063b4a7a187146101ff578063dd62ed3e146101b65763f2fde38b1461013e575f80fd5b346101b25760203660031901126101b25761015761091a565b90610160610960565b6001600160a01b0391821692831561019c575050600580546001600160a01b031981168417909155165f805160206110a08339815191525f80a3005b905f6024925191631e4fbdf760e01b8352820152fd5b5f80fd5b82346101b257806003193601126101b2576020906101d261091a565b6101da610930565b9060018060a01b038091165f5260018452825f2091165f528252805f20549051908152f35b82346101b2575f3660031901126101b257602090600d549051908152f35b82346101b257806003193601126101b25760209061024661023c61091a565b602435903361098c565b5160018152f35b5090346101b2575f3660031901126101b2578051905f835460018160011c9060018316928315610346575b60209384841081146103335783885290811561031757506001146102df575b505050829003601f01601f19168201926001600160401b038411838510176102cc57508291826102c89252826108f0565b0390f35b604190634e487b7160e01b5f525260245ffd5b919250855f52825f2091835f935b83851061030357505050508301015f8080610297565b8054888601830152930192849082016102ed565b60ff1916878501525050151560051b84010190505f8080610297565b602289634e487b7160e01b5f525260245ffd5b91607f1691610278565b82346101b2575f3660031901126101b25760065490516001600160a01b039091168152602090f35b82346101b2575f3660031901126101b25760055490516001600160a01b039091168152602090f35b82346101b2573660031901126101b2576103cf6103bb61091a565b602435906103ca8233836109fe565b610abd565b005b346101b2575f3660031901126101b2576103e9610960565b600580546001600160a01b031981169091555f906001600160a01b03165f805160206110a08339815191528280a3005b82346101b2575f3660031901126101b25760209061ffff600b54169051908152f35b82346101b25760203660031901126101b25760209061046061045b61091a565b610946565b9051908152f35b82346101b2575f3660031901126101b257602090600c549051908152f35b82346101b2575f3660031901126101b2576020906008549051908152f35b82346101b2575f3660031901126101b257602090610460610b17565b50346101b25760203660031901126101b2576103cf903533610abd565b50346101b25760a03660031901126101b2576104f661091a565b60243590604435606435906084359261ffff84168094036101b257610519610960565b600654906001600160a01b03908183166105e457169586156105a157506001600160a01b031916851760065560088490556009819055600a829055600b805461ffff191684179055600d819055855193845260208401528285015260608201527fa081934bdd1ce0c982f003f443899b864936fcb9d9df105ca79a618fe3b03f2f90608090a2005b606490602089519162461bcd60e51b8352820152601f60248201527f49726f6e4c6f636b546f6b656e3a205a65726f206465762061646472657373006044820152fd5b885162461bcd60e51b81526020818a0152601e60248201527f49726f6e4c6f636b546f6b656e3a2044657620616c72656164792073657400006044820152606490fd5b82346101b2575f3660031901126101b2576020905160128152f35b50346101b25760203660031901126101b2577ff8cc6c80b57c6abe70b0fdada2b8c21e6f11779d0efbf266f0b87f38c149bc50916020913590610683610960565b8160075551908152a1005b82346101b2575f3660031901126101b2576020906009549051908152f35b82346101b25760603660031901126101b2576020906102466106cc61091a565b6106d4610930565b604435916106e38333836109fe565b61098c565b82346101b2575f3660031901126101b2576020906002549051908152f35b82346101b2575f3660031901126101b257602090600a549051908152f35b82346101b2573660031901126101b2576103cf61073f61091a565b610747610960565b602435903061098c565b82346101b2575f3660031901126101b2576020906007549051908152f35b5090346101b257806003193601126101b25761078961091a565b602435903315610802576001600160a01b03169081156107ec5760209350335f5260018452825f20825f52845280835f205582519081527f8c5be1e5ebec7d5bd14f71427d1e84f3dd0314c0f7b2291e5b200ac8c7c3b925843392a35160018152f35b8251634a1406b160e11b81525f81860152602490fd5b825163e602df0560e01b81525f81860152602490fd5b905082346101b2575f3660031901126101b2575f60035460018160011c90600183169283156108e6575b6020938484108114610333578388529081156108ca575060011461089157505050829003601f01601f19168201926001600160401b038411838510176102cc57508291826102c89252826108f0565b91925060035f52825f2091835f935b8385106108b65750505050830101848080610297565b8054888601830152930192849082016108a0565b60ff1916878501525050151560051b8401019050848080610297565b91607f1691610842565b602060409281835280519182918282860152018484015e5f828201840152601f01601f1916010190565b600435906001600160a01b03821682036101b257565b602435906001600160a01b03821682036101b257565b6001600160a01b03165f9081526020819052604090205490565b6005546001600160a01b0316330361097457565b60405163118cdaa760e01b8152336004820152602490fd5b91906001600160a01b03808416156109c8578116156109b0576109ae92610d43565b565b60405163ec442f0560e01b81525f6004820152602490fd5b604051634b637e8f60e11b81525f6004820152602490fd5b604091949392606082019560018060a01b0316825260208201520152565b919060018060a01b0380931692835f526001602052604093845f2091831691825f52602052845f2054925f198410610a39575b505050505050565b848410610a9b57508015610a84578115610a6d575f526001602052835f20905f5260205203905f20555f8080808080610a31565b8451634a1406b160e11b81525f6004820152602490fd5b845163e602df0560e01b81525f6004820152602490fd5b8390610ab9868851938493637dc7a0d960e11b8552600485016109e0565b0390fd5b906001600160a01b038216156109c8576109ae91610b78565b91908201809211610ae357565b634e487b7160e01b5f52601160045260245ffd5b91908203918211610ae357565b81810292918115918404141715610ae357565b600954804210610b7357600a5490610b2f8282610ad6565b421015610b6b57610b4d90610b476008549142610af7565b90610b04565b8115610b57570490565b634e487b7160e01b5f52601260045260245ffd5b505060085490565b505f90565b6001600160a01b038181169081158015610d3b575b610ba457600654169081811480610d30575b610bb0575b5050906109ae91610f22565b600d54620151808101809111610ae357421015610d23575b612710610c20610bdf610bd9610b17565b94610946565b6008549481861115610d1d57610bf58287610af7565b80821115610d1457610c0691610af7565b905b80821015610d0c5750935b61ffff600b541690610b04565b0491600c5492838082115f14610d0457610c3991610af7565b80821015610cfd57505b8411610c64575090610c59836109ae9493610ad6565b600c5590915f610ba4565b60c05f805160206110e083398151915291856040519182525f6020830152604082015260806060820152601a608082015279115e18d959591cc819195d881d1c985b9cd9995c881b1a5b5a5d60321b60a0820152a160405162461bcd60e51b815260206004820152602960248201525f8051602061108083398151915260448201526819995c881b1a5b5a5d60ba1b6064820152608490fd5b9050610c43565b50505f610c39565b905093610c13565b50505f90610c08565b5f610bf5565b5f600c5542600d55610bc8565b506008541515610b9f565b506001610b8d565b6001600160a01b039392919084811680158015610f18575b610f0c5785600654169586821480610f01575b610d80575b50506109ae939450610fc4565b600d54620151808101809111610ae357421015610ef4575b612710610def610daf610da9610b17565b99610946565b60085499818b1115610eee57610dc5828c610af7565b80821115610ee557610dd691610af7565b905b80821015610edd57509861ffff600b541690610b04565b0496600c5497888082115f14610ed557610e0891610af7565b80821015610ece57505b8511610e33575050610e28836109ae9596610ad6565b600c5584935f610d73565b5f805160206110e0833981519152918560c09286604051938452166020830152604082015260806060820152601a608082015279115e18d959591cc819195d881d1c985b9cd9995c881b1a5b5a5d60321b60a0820152a160405162461bcd60e51b815260206004820152602960248201525f8051602061108083398151915260448201526819995c881b1a5b5a5d60ba1b6064820152608490fd5b9050610e12565b50505f610e08565b905098610c13565b50505f90610dd8565b5f610dc5565b5f600c5542600d55610d98565b506008541515610d6e565b506109ae939450610fc4565b5085831615610d5b565b9091906001600160a01b0381169081610f6a57505f805160206110c0833981519152602084610f555f9596600254610ad6565b6002555b8060025403600255604051908152a3565b92815f525f60205260405f205493818510610fa657506020815f805160206110c0833981519152925f9596858752868452036040862055610f59565b610ab9859260405193849363391434e360e21b8552600485016109e0565b6001600160a01b038082169290918361102857505f805160206110c083398151915291602091610ff686600254610ad6565b6002555b1693846110135780600254036002555b604051908152a3565b845f525f825260405f2081815401905561100a565b835f525f60205260405f205490858210611062575091602091855f805160206110c083398151915294865f525f85520360405f2055610ffa565b610ab98660405193849363391434e360e21b8552600485016109e056fe49726f6e4c6f636b546f6b656e3a204578636565647320646576207472616e738be0079c531659141344cd1fd0a4f28419497f9722a3daafe3b4186f6b6457e0ddf252ad1be2c89b69c2b068fc378daa952ba7f163c4a11628f55a4df523b3ef2b08c6f86b1a55f24e77e45bc6c9c3d6aac5d17fc6e7fb5a954bc01345d0b1dea264697066735822122089acaf05eeb26800c2f181a157368ae03e79788ffd31b1c00bbcb092a357d71264736f6c634300081900334e5aa23f880bbca96aed4c566a1cbe6e67feb3c167b58c9936cee9cad10ba3dd8be0079c531659141344cd1fd0a4f28419497f9722a3daafe3b4186f6b6457e0c9f6d06bcae55cf8956320be2ef6f7d1c0191f96fd8f1220dace4ead8c51c60566d6ef777e81da2dc556ec0f46d73ab675e34930a794564f805e09ce6065e1889b779b17422d0df92223018b32b4d1fa46e071723d6817e2486d003becc55f00a2646970667358221220b96c25e2f7139816e8c497fab2c958dc5cad346f21da250c8f4e5d689150b56e64736f6c63430008190033","opcodes":"PUSH1 0x80 DUP1 PUSH1 0x40 MSTORE CALLVALUE PUSH1 0xBA JUMPI CALLER ISZERO PUSH1 0xA5 JUMPI PUSH0 DUP1 SLOAD CALLER PUSH1 0x1 PUSH1 0x1 PUSH1 0xA0 SHL SUB NOT DUP1 DUP4 AND DUP3 OR DUP5 SSTORE PUSH1 0x40 MLOAD SWAP4 SWAP1 SWAP3 PUSH1 0x1 PUSH1 0x1 PUSH1 0xA0 SHL SUB AND SWAP1 PUSH32 0x8BE0079C531659141344CD1FD0A4F28419497F9722A3DAAFE3B4186F6B6457E0 SWAP1 DUP1 LOG3 PUSH1 0x1 PUSH32 0x9B779B17422D0DF92223018B32B4D1FA46E071723D6817E2486D003BECC55F00 SSTORE PUSH7 0x2386F26FC10000 PUSH1 0xB SSTORE CALLER DUP2 PUSH1 0x8 SLOAD AND OR PUSH1 0x8 SSTORE CALLER SWAP1 PUSH1 0xE SLOAD AND OR PUSH1 0xE SSTORE PUSH2 0x5A5E SWAP1 DUP2 PUSH2 0xBF DUP3 CODECOPY RETURN JUMPDEST PUSH4 0x1E4FBDF7 PUSH1 0xE0 SHL DUP2 MSTORE PUSH0 PUSH1 0x4 DUP3 ADD MSTORE PUSH1 0x24 SWAP1 REVERT JUMPDEST PUSH0 DUP1 REVERT INVALID PUSH2 0x240 DUP1 PUSH1 0x40 MSTORE PUSH1 0x4 CALLDATASIZE LT ISZERO PUSH2 0x1D JUMPI JUMPDEST POP CALLDATASIZE ISZERO PUSH2 0x1B JUMPI PUSH0 DUP1 REVERT JUMPDEST STOP JUMPDEST PUSH0 SWAP1 PUSH0 CALLDATALOAD PUSH1 0xE0 SHR SWAP1 DUP2 PUSH4 0x37C4886 EQ PUSH2 0x36C8 JUMPI POP DUP1 PUSH4 0x57E729E EQ PUSH2 0x36AD JUMPI DUP1 PUSH4 0x788A8A7 EQ PUSH2 0x351E JUMPI DUP1 PUSH4 0xC91D19C EQ PUSH2 0x34E6 JUMPI DUP1 PUSH4 0x126EAC43 EQ PUSH2 0x3370 JUMPI DUP1 PUSH4 0x1B8028FB EQ PUSH2 0x3487 JUMPI DUP1 PUSH4 0x212D25A6 EQ PUSH2 0x346B JUMPI DUP1 PUSH4 0x222E0CF1 EQ PUSH2 0x33D8 JUMPI DUP1 PUSH4 0x242FEFD7 EQ PUSH2 0x33BD JUMPI DUP1 PUSH4 0x29369CCF EQ PUSH2 0x3370 JUMPI DUP1 PUSH4 0x2B7AC3F3 EQ PUSH2 0x3348 JUMPI DUP1 PUSH4 0x391DF7C9 EQ PUSH2 0x3310 JUMPI DUP1 PUSH4 0x3F58CF1F EQ PUSH2 0x31AD JUMPI DUP1 PUSH4 0x4238B692 EQ PUSH2 0x3196 JUMPI DUP1 PUSH4 0x43237D4A EQ PUSH2 0x315E JUMPI DUP1 PUSH4 0x44198CC5 EQ PUSH2 0x311B JUMPI DUP1 PUSH4 0x4871B64A EQ PUSH2 0x30CE JUMPI DUP1 PUSH4 0x4AA06447 EQ PUSH2 0x30B3 JUMPI DUP1 PUSH4 0x4ADABE09 EQ PUSH2 0x3077 JUMPI DUP1 PUSH4 0x4E576DEA EQ PUSH2 0x305B JUMPI DUP1 PUSH4 0x5313BE2C EQ PUSH2 0x300F JUMPI DUP1 PUSH4 0x5437988D EQ PUSH2 0x2FA7 JUMPI DUP1 PUSH4 0x5712455F EQ PUSH2 0x2F8C JUMPI DUP1 PUSH4 0x58A4CBD7 EQ PUSH2 0x29EC JUMPI DUP1 PUSH4 0x5B34BC41 EQ PUSH2 0x2996 JUMPI DUP1 PUSH4 0x5B9605EA EQ PUSH2 0x2979 JUMPI DUP1 PUSH4 0x5D35E54F EQ PUSH2 0x295D JUMPI DUP1 PUSH4 0x5DD8BA88 EQ PUSH2 0x291E JUMPI DUP1 PUSH4 0x5FF51A9F EQ PUSH2 0x28E5 JUMPI DUP1 PUSH4 0x60BB3979 EQ PUSH2 0x28A4 JUMPI DUP1 PUSH4 0x61D027B3 EQ PUSH2 0x287B JUMPI DUP1 PUSH4 0x634282AF EQ PUSH2 0x2837 JUMPI DUP1 PUSH4 0x63B8CE5F EQ PUSH2 0x281B JUMPI DUP1 PUSH4 0x685E4236 EQ PUSH2 0x27FF JUMPI DUP1 PUSH4 0x715018A6 EQ PUSH2 0x27B9 JUMPI DUP1 PUSH4 0x73458D10 EQ PUSH2 0x2715 JUMPI DUP1 PUSH4 0x73E888FD EQ PUSH2 0x221F JUMPI DUP1 PUSH4 0x74E47336 EQ PUSH2 0x21E3 JUMPI DUP1 PUSH4 0x75F0C2F0 EQ PUSH2 0x21C6 JUMPI DUP1 PUSH4 0x7E6B6464 EQ PUSH2 0x212B JUMPI DUP1 PUSH4 0x84D232B5 EQ PUSH2 0x149C JUMPI DUP1 PUSH4 0x84F047D5 EQ PUSH2 0x13E8 JUMPI DUP1 PUSH4 0x887813B2 EQ PUSH2 0x13A9 JUMPI DUP1 PUSH4 0x8AFB309C EQ PUSH2 0x12B4 JUMPI DUP1 PUSH4 0x8DA5CB5B EQ PUSH2 0x128D JUMPI DUP1 PUSH4 0x91CB32A7 EQ PUSH2 0x1240 JUMPI DUP1 PUSH4 0x96C6CE0E EQ PUSH2 0x1223 JUMPI DUP1 PUSH4 0x9B0B26A2 EQ PUSH2 0x11B3 JUMPI DUP1 PUSH4 0x9C271174 EQ PUSH2 0x115E JUMPI DUP1 PUSH4 0x9F181B5E EQ PUSH2 0x1140 JUMPI DUP1 PUSH4 0xA4883286 EQ PUSH2 0x1124 JUMPI DUP1 PUSH4 0xA818FDCB EQ PUSH2 0x10EA JUMPI DUP1 PUSH4 0xAA180CD6 EQ PUSH2 0x1095 JUMPI DUP1 PUSH4 0xAB2ADC00 EQ PUSH2 0x1077 JUMPI DUP1 PUSH4 0xB31E6087 EQ PUSH2 0xF54 JUMPI DUP1 PUSH4 0xB65F1927 EQ PUSH2 0xDBB JUMPI DUP1 PUSH4 0xB9148EEE EQ PUSH2 0xD98 JUMPI DUP1 PUSH4 0xB9AF648C EQ PUSH2 0xC81 JUMPI DUP1 PUSH4 0xBB2061B2 EQ PUSH2 0xC2F JUMPI DUP1 PUSH4 0xBD2F942D EQ PUSH2 0xBF2 JUMPI DUP1 PUSH4 0xBEE884D2 EQ PUSH2 0xB97 JUMPI DUP1 PUSH4 0xBFFA55D5 EQ PUSH2 0x96C JUMPI DUP1 PUSH4 0xC1F7F9AC EQ PUSH2 0x933 JUMPI DUP1 PUSH4 0xC21EBD07 EQ PUSH2 0x90A JUMPI DUP1 PUSH4 0xCF3CF573 EQ PUSH2 0x8EC JUMPI DUP1 PUSH4 0xD79ECF90 EQ PUSH2 0x8A2 JUMPI DUP1 PUSH4 0xDC67195F EQ PUSH2 0x850 JUMPI DUP1 PUSH4 0xE1A6AE38 EQ PUSH2 0x817 JUMPI DUP1 PUSH4 0xE4860339 EQ PUSH2 0x57B JUMPI DUP1 PUSH4 0xE6CF8134 EQ PUSH2 0x558 JUMPI DUP1 PUSH4 0xF0F44260 EQ PUSH2 0x4EE JUMPI DUP1 PUSH4 0xF25EA8B5 EQ PUSH2 0x4D1 JUMPI DUP1 PUSH4 0xF2FDE38B EQ PUSH2 0x45F JUMPI DUP1 PUSH4 0xF67CD9CD EQ PUSH2 0x426 JUMPI DUP1 PUSH4 0xF8316C90 EQ PUSH2 0x3AA JUMPI PUSH4 0xFE575A87 SUB PUSH2 0x10 JUMPI CALLVALUE PUSH2 0x3A7 JUMPI PUSH1 0x20 CALLDATASIZE PUSH1 0x3 NOT ADD SLT PUSH2 0x3A7 JUMPI PUSH1 0x20 SWAP1 PUSH1 0xFF SWAP1 PUSH1 0x40 SWAP1 PUSH1 0x1 PUSH1 0x1 PUSH1 0xA0 SHL SUB PUSH2 0x393 PUSH2 0x377D JUMP JUMPDEST AND DUP2 MSTORE PUSH1 0xA DUP5 MSTORE KECCAK256 SLOAD AND PUSH1 0x40 MLOAD SWAP1 ISZERO ISZERO DUP2 MSTORE RETURN JUMPDEST DUP1 REVERT JUMPDEST POP CALLVALUE PUSH2 0x3A7 JUMPI PUSH1 0x20 CALLDATASIZE PUSH1 0x3 NOT ADD SLT PUSH2 0x3A7 JUMPI PUSH2 0x3C4 PUSH2 0x377D JUMP JUMPDEST PUSH2 0x3CC PUSH2 0x41A2 JUMP JUMPDEST PUSH1 0x1 PUSH1 0x1 PUSH1 0xA0 SHL SUB AND DUP1 ISZERO PUSH2 0x414 JUMPI PUSH1 0xF DUP1 SLOAD PUSH1 0x1 PUSH1 0x1 PUSH1 0xA0 SHL SUB NOT AND DUP3 OR SWAP1 SSTORE PUSH32 0x7CD91BB102D5B88808255AA4B0877F151C1C4D2E61DEEF286B983F293EEA60AB DUP3 DUP1 LOG2 DUP1 RETURN JUMPDEST PUSH1 0x40 MLOAD PUSH4 0xD92E233D PUSH1 0xE0 SHL DUP2 MSTORE PUSH1 0x4 SWAP1 REVERT JUMPDEST POP CALLVALUE PUSH2 0x3A7 JUMPI PUSH1 0x20 CALLDATASIZE PUSH1 0x3 NOT ADD SLT PUSH2 0x3A7 JUMPI PUSH1 0x20 SWAP1 PUSH1 0x40 SWAP1 PUSH1 0x1 PUSH1 0x1 PUSH1 0xA0 SHL SUB PUSH2 0x44E PUSH2 0x377D JUMP JUMPDEST AND DUP2 MSTORE PUSH1 0x12 DUP4 MSTORE KECCAK256 SLOAD PUSH1 0x40 MLOAD SWAP1 DUP2 MSTORE RETURN JUMPDEST POP CALLVALUE PUSH2 0x3A7 JUMPI PUSH1 0x20 CALLDATASIZE PUSH1 0x3 NOT ADD SLT PUSH2 0x3A7 JUMPI PUSH2 0x479 PUSH2 0x377D JUMP JUMPDEST PUSH2 0x481 PUSH2 0x41A2 JUMP JUMPDEST PUSH1 0x1 PUSH1 0x1 PUSH1 0xA0 SHL SUB SWAP1 DUP2 AND SWAP1 DUP2 ISZERO PUSH2 0x4B8 JUMPI PUSH0 SLOAD DUP3 PUSH1 0x1 DUP1 PUSH1 0xA0 SHL SUB NOT DUP3 AND OR PUSH0 SSTORE AND PUSH0 DUP1 MLOAD PUSH1 0x20 PUSH2 0x59A9 DUP4 CODECOPY DUP2 MLOAD SWAP2 MSTORE PUSH0 DUP1 LOG3 DUP1 RETURN JUMPDEST PUSH1 0x40 MLOAD PUSH4 0x1E4FBDF7 PUSH1 0xE0 SHL DUP2 MSTORE PUSH1 0x4 DUP2 ADD DUP5 SWAP1 MSTORE PUSH1 0x24 SWAP1 REVERT JUMPDEST POP CALLVALUE PUSH2 0x3A7 JUMPI DUP1 PUSH1 0x3 NOT CALLDATASIZE ADD SLT PUSH2 0x3A7 JUMPI PUSH1 0x20 PUSH1 0x40 MLOAD PUSH2 0x3E8 DUP2 MSTORE RETURN JUMPDEST POP CALLVALUE PUSH2 0x3A7 JUMPI PUSH1 0x20 CALLDATASIZE PUSH1 0x3 NOT ADD SLT PUSH2 0x3A7 JUMPI PUSH2 0x508 PUSH2 0x377D JUMP JUMPDEST PUSH2 0x510 PUSH2 0x41A2 JUMP JUMPDEST PUSH1 0x1 PUSH1 0x1 PUSH1 0xA0 SHL SUB AND DUP1 ISZERO PUSH2 0x414 JUMPI PUSH1 0xE DUP1 SLOAD PUSH1 0x1 PUSH1 0x1 PUSH1 0xA0 SHL SUB NOT AND DUP3 OR SWAP1 SSTORE PUSH32 0x7DAE230F18360D76A040C81F050AA14EB9D6DC7901B20FC5D855E2A20FE814D1 DUP3 DUP1 LOG2 DUP1 RETURN JUMPDEST POP CALLVALUE PUSH2 0x3A7 JUMPI DUP1 PUSH1 0x3 NOT CALLDATASIZE ADD SLT PUSH2 0x3A7 JUMPI PUSH1 0x20 PUSH1 0x40 MLOAD PUSH8 0x16345785D8A0000 DUP2 MSTORE RETURN JUMPDEST POP CALLVALUE PUSH2 0x3A7 JUMPI PUSH1 0x20 CALLDATASIZE PUSH1 0x3 NOT ADD SLT PUSH2 0x3A7 JUMPI PUSH1 0x1 PUSH1 0x1 PUSH1 0xA0 SHL SUB SWAP1 PUSH1 0x40 SWAP1 DUP3 PUSH2 0x5A2 PUSH2 0x377D JUMP JUMPDEST AND DUP2 MSTORE PUSH1 0x1 PUSH1 0x20 MSTORE KECCAK256 PUSH2 0x220 MSTORE DUP1 PUSH2 0x220 MLOAD SLOAD AND PUSH2 0x140 MSTORE PUSH1 0x1 PUSH2 0x220 MLOAD ADD SLOAD AND PUSH2 0x5D2 PUSH1 0x2 PUSH2 0x220 MLOAD ADD PUSH2 0x3919 JUMP JUMPDEST PUSH2 0x160 MSTORE PUSH2 0x5E5 PUSH1 0x3 PUSH2 0x220 MLOAD ADD PUSH2 0x3919 JUMP JUMPDEST PUSH2 0x1A0 MSTORE PUSH1 0x4 PUSH2 0x220 MLOAD ADD SLOAD PUSH2 0x120 MSTORE PUSH1 0xFF PUSH1 0x5 PUSH2 0x220 MLOAD ADD SLOAD SWAP2 PUSH1 0x6 PUSH2 0x220 MLOAD ADD SLOAD PUSH1 0x7 PUSH2 0x220 MLOAD ADD SLOAD PUSH1 0x8 PUSH2 0x220 MLOAD ADD SLOAD PUSH2 0xFFFF PUSH1 0x9 PUSH2 0x220 MLOAD ADD SLOAD AND PUSH1 0xA PUSH2 0x220 MLOAD ADD SLOAD PUSH1 0xB PUSH2 0x220 MLOAD ADD SLOAD SWAP1 DUP8 PUSH1 0xC PUSH2 0x220 MLOAD ADD SLOAD AND SWAP3 PUSH1 0xD PUSH2 0x220 MLOAD ADD SLOAD SWAP5 PUSH1 0xE PUSH2 0x220 MLOAD ADD SLOAD SWAP7 PUSH1 0xF PUSH2 0x220 MLOAD ADD SLOAD SWAP9 PUSH2 0x70E PUSH2 0x6F9 PUSH1 0x10 PUSH2 0x220 MLOAD ADD SLOAD SWAP13 PUSH1 0x11 PUSH2 0x220 MLOAD ADD SLOAD PUSH1 0x80 MSTORE PUSH1 0x12 PUSH2 0x220 MLOAD ADD SLOAD PUSH1 0xA0 MSTORE PUSH2 0xFFFF PUSH1 0x13 PUSH2 0x220 MLOAD ADD SLOAD AND PUSH1 0xE0 MSTORE PUSH1 0x14 PUSH2 0x220 MLOAD ADD SLOAD PUSH2 0x200 MSTORE PUSH1 0x15 PUSH2 0x220 MLOAD ADD SLOAD PUSH2 0x1E0 MSTORE PUSH1 0x16 PUSH2 0x220 MLOAD ADD SLOAD PUSH2 0x1C0 MSTORE PUSH1 0x17 PUSH2 0x220 MLOAD ADD SLOAD PUSH2 0x180 MSTORE PUSH1 0x18 PUSH2 0x220 MLOAD ADD SLOAD PUSH2 0x100 MSTORE PUSH1 0x40 MLOAD PUSH1 0xC0 MSTORE PUSH2 0x380 SWAP1 PUSH2 0x140 MLOAD PUSH1 0xC0 MLOAD MSTORE PUSH1 0x20 PUSH1 0xC0 MLOAD ADD MSTORE DUP1 PUSH1 0x40 PUSH1 0xC0 MLOAD ADD MSTORE PUSH1 0xC0 MLOAD ADD PUSH2 0x160 MLOAD PUSH2 0x39BB JUMP JUMPDEST PUSH1 0xC0 MLOAD DUP2 SUB PUSH1 0x60 PUSH1 0xC0 MLOAD ADD MSTORE PUSH2 0x1A0 MLOAD PUSH2 0x39BB JUMP JUMPDEST SWAP13 PUSH2 0x120 MLOAD PUSH1 0x80 PUSH1 0xC0 MLOAD ADD MSTORE PUSH1 0xA0 PUSH1 0xC0 MLOAD ADD MSTORE PUSH1 0xC0 DUP1 MLOAD ADD MSTORE PUSH1 0xE0 PUSH1 0xC0 MLOAD ADD MSTORE PUSH2 0x100 PUSH1 0xC0 MLOAD ADD MSTORE PUSH2 0x120 PUSH1 0xC0 MLOAD ADD MSTORE PUSH2 0x140 PUSH1 0xC0 MLOAD ADD MSTORE PUSH2 0x160 PUSH1 0xC0 MLOAD ADD MSTORE PUSH2 0x180 PUSH1 0xC0 MLOAD ADD MSTORE PUSH2 0x1A0 PUSH1 0xC0 MLOAD ADD MSTORE PUSH2 0x1C0 PUSH1 0xC0 MLOAD ADD MSTORE PUSH2 0x1E0 PUSH1 0xC0 MLOAD ADD MSTORE DUP2 DUP2 AND PUSH2 0x200 PUSH1 0xC0 MLOAD ADD MSTORE DUP2 DUP2 PUSH1 0x8 SHR AND ISZERO ISZERO PUSH2 0x220 PUSH1 0xC0 MLOAD ADD MSTORE PUSH1 0x10 SHR AND ISZERO ISZERO PUSH2 0x240 PUSH1 0xC0 MLOAD ADD MSTORE PUSH1 0x80 MLOAD PUSH2 0x260 PUSH1 0xC0 MLOAD ADD MSTORE PUSH1 0xA0 MLOAD PUSH2 0x280 PUSH1 0xC0 MLOAD ADD MSTORE PUSH1 0xE0 MLOAD PUSH2 0x2A0 PUSH1 0xC0 MLOAD ADD MSTORE PUSH2 0x200 MLOAD PUSH2 0x2C0 PUSH1 0xC0 MLOAD ADD MSTORE PUSH2 0x1E0 MLOAD PUSH2 0x2E0 PUSH1 0xC0 MLOAD ADD MSTORE PUSH2 0x1C0 MLOAD PUSH2 0x300 PUSH1 0xC0 MLOAD ADD MSTORE PUSH2 0x180 MLOAD PUSH2 0x320 PUSH1 0xC0 MLOAD ADD MSTORE PUSH1 0xFF PUSH2 0x100 MLOAD AND ISZERO ISZERO PUSH2 0x340 PUSH1 0xC0 MLOAD ADD MSTORE PUSH1 0xFF PUSH2 0x100 MLOAD PUSH1 0x8 SHR AND ISZERO ISZERO PUSH2 0x360 PUSH1 0xC0 MLOAD ADD MSTORE PUSH1 0xC0 MLOAD SWAP1 SUB PUSH1 0xC0 MLOAD RETURN JUMPDEST POP CALLVALUE PUSH2 0x3A7 JUMPI PUSH1 0x20 CALLDATASIZE PUSH1 0x3 NOT ADD SLT PUSH2 0x3A7 JUMPI PUSH1 0x20 SWAP1 PUSH1 0x40 SWAP1 PUSH1 0x1 PUSH1 0x1 PUSH1 0xA0 SHL SUB PUSH2 0x83F PUSH2 0x377D JUMP JUMPDEST AND DUP2 MSTORE PUSH1 0xC DUP4 MSTORE KECCAK256 SLOAD PUSH1 0x40 MLOAD SWAP1 DUP2 MSTORE RETURN JUMPDEST POP CALLVALUE PUSH2 0x3A7 JUMPI PUSH1 0x40 CALLDATASIZE PUSH1 0x3 NOT ADD SLT PUSH2 0x3A7 JUMPI PUSH2 0x86A PUSH2 0x377D JUMP JUMPDEST PUSH1 0x40 PUSH2 0x874 PUSH2 0x3793 JUMP JUMPDEST SWAP3 PUSH1 0x1 DUP1 PUSH1 0xA0 SHL SUB DUP1 SWAP4 AND DUP2 MSTORE PUSH1 0x19 PUSH1 0x20 MSTORE KECCAK256 SWAP2 AND PUSH0 MSTORE PUSH1 0x20 MSTORE PUSH1 0x20 PUSH1 0xFF PUSH1 0x40 PUSH0 KECCAK256 SLOAD AND PUSH1 0x40 MLOAD SWAP1 ISZERO ISZERO DUP2 MSTORE RETURN JUMPDEST POP CALLVALUE PUSH2 0x3A7 JUMPI PUSH1 0x40 CALLDATASIZE PUSH1 0x3 NOT ADD SLT PUSH2 0x3A7 JUMPI PUSH1 0x40 PUSH2 0x8BE PUSH2 0x3793 JUMP JUMPDEST SWAP2 PUSH1 0x4 CALLDATALOAD DUP2 MSTORE PUSH1 0x9 PUSH1 0x20 MSTORE KECCAK256 SWAP1 PUSH1 0x1 DUP1 PUSH1 0xA0 SHL SUB AND PUSH0 MSTORE PUSH1 0x20 MSTORE PUSH1 0x20 PUSH1 0xFF PUSH1 0x40 PUSH0 KECCAK256 SLOAD AND PUSH1 0x40 MLOAD SWAP1 ISZERO ISZERO DUP2 MSTORE RETURN JUMPDEST POP CALLVALUE PUSH2 0x3A7 JUMPI DUP1 PUSH1 0x3 NOT CALLDATASIZE ADD SLT PUSH2 0x3A7 JUMPI PUSH1 0x20 PUSH1 0xB SLOAD PUSH1 0x40 MLOAD SWAP1 DUP2 MSTORE RETURN JUMPDEST POP CALLVALUE PUSH2 0x3A7 JUMPI DUP1 PUSH1 0x3 NOT CALLDATASIZE ADD SLT PUSH2 0x3A7 JUMPI PUSH1 0xF SLOAD PUSH1 0x40 MLOAD PUSH1 0x1 PUSH1 0x1 PUSH1 0xA0 SHL SUB SWAP1 SWAP2 AND DUP2 MSTORE PUSH1 0x20 SWAP1 RETURN JUMPDEST POP CALLVALUE PUSH2 0x3A7 JUMPI PUSH1 0x20 CALLDATASIZE PUSH1 0x3 NOT ADD SLT PUSH2 0x3A7 JUMPI PUSH1 0x20 SWAP1 PUSH1 0x40 SWAP1 PUSH1 0x1 PUSH1 0x1 PUSH1 0xA0 SHL SUB PUSH2 0x95B PUSH2 0x377D JUMP JUMPDEST AND DUP2 MSTORE PUSH1 0x7 DUP4 MSTORE KECCAK256 SLOAD PUSH1 0x40 MLOAD SWAP1 DUP2 MSTORE RETURN JUMPDEST POP CALLVALUE PUSH2 0x3A7 JUMPI PUSH1 0x20 DUP1 PUSH1 0x3 NOT CALLDATASIZE ADD SLT PUSH2 0xB93 JUMPI PUSH2 0x987 PUSH2 0x377D JUMP JUMPDEST PUSH2 0x98F PUSH2 0x4173 JUMP JUMPDEST PUSH1 0x1 PUSH1 0x1 PUSH1 0xA0 SHL SUB AND DUP1 DUP4 MSTORE PUSH1 0x1 DUP3 MSTORE PUSH1 0x40 DUP4 KECCAK256 PUSH1 0x10 DUP2 ADD SLOAD PUSH1 0x8 SHR PUSH1 0xFF AND PUSH2 0xB81 JUMPI DUP2 DUP5 MSTORE PUSH1 0x3 DUP4 MSTORE PUSH1 0xFF PUSH1 0x3 PUSH1 0x40 DUP7 KECCAK256 ADD SLOAD AND ISZERO PUSH2 0xB6F JUMPI DUP2 DUP5 MSTORE PUSH1 0x4 DUP4 MSTORE PUSH1 0x40 DUP5 KECCAK256 CALLER PUSH0 MSTORE DUP4 MSTORE PUSH1 0x40 PUSH0 KECCAK256 SLOAD SWAP1 DUP2 ISZERO PUSH2 0xB5D JUMPI DUP3 DUP6 MSTORE PUSH1 0x4 DUP5 MSTORE PUSH1 0x40 DUP6 KECCAK256 CALLER PUSH0 MSTORE DUP5 MSTORE DUP5 PUSH1 0x40 PUSH0 KECCAK256 SSTORE DUP5 SWAP1 PUSH1 0xFF PUSH1 0xC DUP3 ADD SLOAD AND PUSH1 0x1 DUP2 LT ISZERO PUSH2 0xB53 JUMPI JUMPDEST PUSH1 0x2 DUP2 LT ISZERO PUSH2 0xB2C JUMPI JUMPDEST PUSH1 0x3 GT ISZERO PUSH2 0xB05 JUMPI JUMPDEST PUSH2 0x2710 PUSH2 0xA37 PUSH1 0x6 PUSH2 0xA3E SWAP4 ADD SLOAD SWAP4 DUP5 PUSH2 0x39DF JUMP JUMPDEST DIV DUP3 PUSH2 0x3A99 JUMP JUMPDEST SWAP2 DUP3 ISZERO ISZERO DUP1 PUSH2 0xAFC JUMPI JUMPDEST ISZERO PUSH2 0xAF2 JUMPI PUSH2 0xA5F SWAP3 PUSH2 0xA5A SWAP2 PUSH2 0x39DF JUMP JUMPDEST PUSH2 0x39F2 JUMP JUMPDEST SWAP1 JUMPDEST DUP2 DUP1 ISZERO PUSH2 0xAD8 JUMPI DUP2 DUP6 MSTORE PUSH1 0x14 DUP5 MSTORE PUSH1 0x40 DUP6 KECCAK256 SLOAD DUP1 SWAP2 GT PUSH2 0xAEA JUMPI JUMPDEST POP DUP2 ISZERO PUSH2 0xAD8 JUMPI DUP4 DUP1 SWAP4 SWAP3 PUSH1 0x14 DUP3 SWAP5 DUP4 SWAP5 DUP5 MSTORE MSTORE PUSH1 0x40 DUP3 KECCAK256 PUSH2 0xA9F DUP3 DUP3 SLOAD PUSH2 0x3A99 JUMP JUMPDEST SWAP1 SSTORE CALLER GAS CALL PUSH2 0xAAC PUSH2 0x3B7D JUMP JUMPDEST POP ISZERO PUSH2 0xAC6 JUMPI PUSH1 0x1 PUSH0 DUP1 MLOAD PUSH1 0x20 PUSH2 0x5A09 DUP4 CODECOPY DUP2 MLOAD SWAP2 MSTORE SSTORE DUP1 RETURN JUMPDEST PUSH1 0x40 MLOAD PUSH4 0x12171D83 PUSH1 0xE3 SHL DUP2 MSTORE PUSH1 0x4 SWAP1 REVERT JUMPDEST PUSH1 0x40 MLOAD PUSH4 0xB10205ED PUSH1 0xE0 SHL DUP2 MSTORE PUSH1 0x4 SWAP1 REVERT JUMPDEST SWAP2 POP PUSH0 PUSH2 0xA7C JUMP JUMPDEST POP POP POP DUP3 SWAP1 PUSH2 0xA61 JUMP JUMPDEST POP DUP2 ISZERO ISZERO PUSH2 0xA48 JUMP JUMPDEST SWAP1 PUSH2 0xD48 DUP2 ADD DUP1 SWAP2 GT PUSH2 0xB18 JUMPI SWAP1 PUSH2 0xA22 JUMP JUMPDEST PUSH4 0x4E487B71 PUSH1 0xE0 SHL DUP7 MSTORE PUSH1 0x11 PUSH1 0x4 MSTORE PUSH1 0x24 DUP7 REVERT JUMPDEST SWAP2 PUSH2 0xCE4 DUP2 ADD DUP1 SWAP2 GT PUSH2 0xB3F JUMPI SWAP2 PUSH2 0xA19 JUMP JUMPDEST PUSH4 0x4E487B71 PUSH1 0xE0 SHL DUP8 MSTORE PUSH1 0x11 PUSH1 0x4 MSTORE PUSH1 0x24 DUP8 REVERT JUMPDEST PUSH2 0xCE4 SWAP3 POP PUSH2 0xA0F JUMP JUMPDEST PUSH1 0x40 MLOAD PUSH4 0x634B67F5 PUSH1 0xE1 SHL DUP2 MSTORE PUSH1 0x4 SWAP1 REVERT JUMPDEST PUSH1 0x40 MLOAD PUSH4 0x764258ED PUSH1 0xE1 SHL DUP2 MSTORE PUSH1 0x4 SWAP1 REVERT JUMPDEST PUSH1 0x40 MLOAD PUSH4 0x113AC95F PUSH1 0xE2 SHL DUP2 MSTORE PUSH1 0x4 SWAP1 REVERT JUMPDEST POP DUP1 REVERT JUMPDEST POP CALLVALUE PUSH2 0x3A7 JUMPI PUSH1 0x40 CALLDATASIZE PUSH1 0x3 NOT ADD SLT PUSH2 0x3A7 JUMPI PUSH2 0xBB1 PUSH2 0x377D JUMP JUMPDEST PUSH1 0x1 PUSH1 0x1 PUSH1 0xA0 SHL SUB SWAP1 DUP2 AND DUP3 MSTORE PUSH1 0x15 PUSH1 0x20 MSTORE PUSH1 0x40 DUP3 KECCAK256 DUP1 SLOAD PUSH1 0x24 CALLDATALOAD SWAP4 SWAP1 DUP5 LT ISZERO PUSH2 0x3A7 JUMPI POP PUSH1 0x20 SWAP3 PUSH2 0xBE2 SWAP2 PUSH2 0x3838 JUMP JUMPDEST SWAP2 SWAP1 SLOAD PUSH1 0x40 MLOAD SWAP3 PUSH1 0x3 SHL SHR AND DUP2 MSTORE RETURN JUMPDEST POP CALLVALUE PUSH2 0x3A7 JUMPI PUSH1 0x20 CALLDATASIZE PUSH1 0x3 NOT ADD SLT PUSH2 0x3A7 JUMPI PUSH1 0x20 SWAP1 PUSH1 0x12 SWAP1 PUSH1 0x40 SWAP1 PUSH1 0x1 PUSH1 0x1 PUSH1 0xA0 SHL SUB PUSH2 0xC1D PUSH2 0x377D JUMP JUMPDEST AND DUP2 MSTORE PUSH1 0x1 DUP5 MSTORE KECCAK256 ADD SLOAD PUSH1 0x40 MLOAD SWAP1 DUP2 MSTORE RETURN JUMPDEST POP CALLVALUE PUSH2 0x3A7 JUMPI PUSH1 0x40 CALLDATASIZE PUSH1 0x3 NOT ADD SLT PUSH2 0x3A7 JUMPI PUSH2 0xC49 PUSH2 0x377D JUMP JUMPDEST PUSH1 0x40 PUSH2 0xC53 PUSH2 0x3793 JUMP JUMPDEST SWAP3 PUSH1 0x1 DUP1 PUSH1 0xA0 SHL SUB DUP1 SWAP4 AND DUP2 MSTORE PUSH1 0x18 PUSH1 0x20 MSTORE KECCAK256 SWAP2 AND PUSH0 MSTORE PUSH1 0x20 MSTORE PUSH1 0x20 PUSH1 0xFF PUSH1 0x40 PUSH0 KECCAK256 SLOAD AND PUSH1 0x40 MLOAD SWAP1 ISZERO ISZERO DUP2 MSTORE RETURN JUMPDEST POP CALLVALUE PUSH2 0x3A7 JUMPI PUSH1 0x20 DUP1 PUSH1 0x3 NOT CALLDATASIZE ADD SLT PUSH2 0xB93 JUMPI PUSH1 0x1 PUSH1 0x1 PUSH1 0xA0 SHL SUB DUP1 PUSH2 0xCA5 PUSH2 0x377D JUMP JUMPDEST AND SWAP1 DUP2 DUP5 MSTORE PUSH1 0x1 DUP4 MSTORE PUSH1 0x40 DUP5 KECCAK256 SWAP2 PUSH1 0x3 PUSH1 0xFF PUSH1 0xC DUP6 ADD SLOAD AND SUB PUSH2 0xD86 JUMPI DUP5 MSTORE PUSH1 0xC DUP4 MSTORE PUSH1 0x40 DUP5 KECCAK256 SLOAD PUSH2 0xD74 JUMPI PUSH1 0x10 DUP3 ADD SWAP2 DUP3 SLOAD SWAP1 PUSH1 0xFF DUP3 PUSH1 0x8 SHR AND ISZERO PUSH2 0xD62 JUMPI PUSH32 0x4E2738C0439B38C78E2D8E54BFFB925F2949894F0EED5C60B7772B5DA77EDEC SWAP4 PUSH1 0x1 SWAP3 PUSH2 0xFF00 NOT AND SWAP1 SSTORE ADD DUP2 DUP2 SLOAD AND DUP6 MSTORE PUSH1 0x16 DUP5 MSTORE PUSH1 0x40 DUP6 KECCAK256 PUSH2 0xD2A DUP2 SLOAD PUSH2 0x3F0E JUMP JUMPDEST SWAP1 SSTORE SLOAD AND SWAP2 DUP3 DUP5 MSTORE PUSH1 0x15 DUP2 MSTORE PUSH1 0x40 DUP5 KECCAK256 SLOAD PUSH1 0x16 DUP3 MSTORE PUSH1 0x17 PUSH1 0x40 DUP7 KECCAK256 SLOAD SWAP3 MSTORE PUSH2 0xD5C PUSH1 0x40 DUP7 KECCAK256 SLOAD PUSH1 0x40 MLOAD SWAP4 DUP5 SWAP4 DUP5 PUSH2 0x387A JUMP JUMPDEST SUB SWAP1 LOG2 DUP1 RETURN JUMPDEST PUSH1 0x40 MLOAD PUSH4 0x8616BBBB PUSH1 0xE0 SHL DUP2 MSTORE PUSH1 0x4 SWAP1 REVERT JUMPDEST PUSH1 0x40 MLOAD PUSH4 0x6567CC4D PUSH1 0xE1 SHL DUP2 MSTORE PUSH1 0x4 SWAP1 REVERT JUMPDEST PUSH1 0x40 MLOAD PUSH4 0x701727F PUSH1 0xE0 SHL DUP2 MSTORE PUSH1 0x4 SWAP1 REVERT JUMPDEST POP CALLVALUE PUSH2 0x3A7 JUMPI DUP1 PUSH1 0x3 NOT CALLDATASIZE ADD SLT PUSH2 0x3A7 JUMPI PUSH1 0x20 PUSH1 0x40 MLOAD PUSH8 0x6F05B59D3B20000 DUP2 MSTORE RETURN JUMPDEST POP CALLVALUE PUSH2 0x3A7 JUMPI PUSH1 0x60 CALLDATASIZE PUSH1 0x3 NOT ADD SLT PUSH2 0x3A7 JUMPI PUSH2 0xDD5 PUSH2 0x377D JUMP JUMPDEST PUSH2 0xDDD PUSH2 0x3793 JUMP JUMPDEST SWAP1 PUSH1 0x44 CALLDATALOAD PUSH1 0x1 PUSH1 0x1 PUSH1 0x40 SHL SUB DUP2 GT PUSH2 0xF50 JUMPI PUSH2 0xDFD SWAP1 CALLDATASIZE SWAP1 PUSH1 0x4 ADD PUSH2 0x384D JUMP JUMPDEST SWAP3 SWAP1 PUSH1 0x1 DUP1 PUSH1 0xA0 SHL SUB DUP1 SWAP4 AND SWAP3 DUP4 DUP7 MSTORE PUSH1 0x20 SWAP3 PUSH1 0x1 DUP5 MSTORE PUSH1 0xFF PUSH1 0x10 PUSH1 0x40 DUP10 KECCAK256 ADD SLOAD PUSH1 0x8 SHR AND ISZERO PUSH2 0xF3E JUMPI AND SWAP4 DUP5 ISZERO PUSH2 0x414 JUMPI CALLER DUP6 EQ PUSH2 0x414 JUMPI DUP4 DUP7 MSTORE PUSH1 0x1B DUP4 MSTORE PUSH1 0x40 DUP7 KECCAK256 CALLER PUSH0 MSTORE DUP4 MSTORE PUSH1 0x40 PUSH0 KECCAK256 DUP6 PUSH0 MSTORE DUP4 MSTORE PUSH1 0xFF PUSH1 0x40 PUSH0 KECCAK256 SLOAD AND PUSH2 0xF2C JUMPI DUP4 PUSH32 0x1D0233127B9EE34261FA558AAFD3001A764F70F77FC3BBA2F9EDC8219517DB84 PUSH2 0xEDE DUP8 SWAP5 DUP4 DUP11 MSTORE PUSH1 0x1B DUP8 MSTORE PUSH1 0x40 DUP11 KECCAK256 CALLER PUSH0 MSTORE DUP8 MSTORE PUSH1 0x40 PUSH0 KECCAK256 DUP7 PUSH0 MSTORE DUP8 MSTORE PUSH1 0x40 PUSH0 KECCAK256 PUSH1 0x1 PUSH1 0xFF NOT DUP3 SLOAD AND OR SWAP1 SSTORE DUP4 DUP11 MSTORE PUSH1 0x1A DUP8 MSTORE PUSH1 0x40 DUP11 KECCAK256 DUP7 PUSH0 MSTORE DUP8 MSTORE PUSH1 0x40 PUSH0 KECCAK256 PUSH2 0xEC8 DUP2 SLOAD PUSH2 0x3F0E JUMP JUMPDEST SWAP1 SSTORE PUSH1 0x40 MLOAD SWAP2 DUP3 SWAP2 DUP9 DUP4 MSTORE CALLER SWAP7 DUP10 DUP5 ADD SWAP2 PUSH2 0x3EEE JUMP JUMPDEST SUB SWAP1 LOG4 DUP2 DUP5 MSTORE PUSH1 0x1A DUP2 MSTORE PUSH1 0x40 DUP5 KECCAK256 SWAP1 DUP4 PUSH0 MSTORE MSTORE PUSH1 0x5 PUSH1 0x40 PUSH0 KECCAK256 SLOAD LT ISZERO PUSH2 0xF02 JUMPI DUP3 DUP1 RETURN JUMPDEST PUSH32 0xD579C7D4BFB21D06C84A7D5C919B63A886C23FB57457C2DA53117E7843EF0BD0 DUP4 DUP1 LOG3 PUSH0 DUP1 DUP3 DUP1 RETURN JUMPDEST PUSH1 0x40 MLOAD PUSH4 0x7C9A1CF9 PUSH1 0xE0 SHL DUP2 MSTORE PUSH1 0x4 SWAP1 REVERT JUMPDEST PUSH1 0x40 MLOAD PUSH4 0x4065AAF1 PUSH1 0xE1 SHL DUP2 MSTORE PUSH1 0x4 SWAP1 REVERT JUMPDEST DUP4 DUP1 REVERT JUMPDEST POP CALLVALUE PUSH2 0x3A7 JUMPI PUSH1 0x20 CALLDATASIZE PUSH1 0x3 NOT ADD SLT PUSH2 0x3A7 JUMPI PUSH1 0x1 PUSH1 0x1 PUSH1 0xA0 SHL SUB DUP1 PUSH2 0xF77 PUSH2 0x377D JUMP JUMPDEST AND SWAP1 DUP2 DUP4 MSTORE PUSH1 0x1 PUSH1 0x20 MSTORE PUSH1 0x40 DUP4 KECCAK256 PUSH1 0x10 DUP2 ADD SWAP1 DUP2 SLOAD SWAP3 PUSH1 0xFF DUP5 PUSH1 0x8 SHR AND ISZERO PUSH2 0x1065 JUMPI PUSH1 0xFF DUP5 PUSH1 0x10 SHR AND PUSH2 0x1053 JUMPI PUSH1 0x1 DUP3 ADD SLOAD AND DUP6 MSTORE PUSH1 0x7 PUSH1 0x20 MSTORE PUSH1 0x40 DUP6 KECCAK256 SLOAD PUSH3 0x127500 DUP2 ADD DUP1 SWAP2 GT PUSH2 0xB18 JUMPI TIMESTAMP LT PUSH2 0x1041 JUMPI PUSH1 0x6 ADD SWAP1 DUP2 SLOAD ISZERO PUSH2 0x102F JUMPI PUSH3 0x10000 PUSH1 0x3 SWAP4 PUSH3 0xFF0000 NOT AND OR SWAP1 SSTORE DUP3 DUP5 MSTORE DUP2 PUSH1 0x20 MSTORE PUSH1 0x40 DUP5 KECCAK256 SWAP1 TIMESTAMP DUP3 SSTORE DUP5 PUSH1 0x1 DUP4 ADD SSTORE SLOAD PUSH1 0x2 DUP3 ADD SSTORE ADD PUSH1 0xFF NOT DUP2 SLOAD AND SWAP1 SSTORE PUSH32 0x334735B0C8438283143AFCB13D4C2B5E01C6BBE0EAE4C6433BDE5008A5D9A861 DUP3 DUP1 LOG2 DUP1 RETURN JUMPDEST PUSH1 0x40 MLOAD PUSH4 0x43F9E11 PUSH1 0xE4 SHL DUP2 MSTORE PUSH1 0x4 SWAP1 REVERT JUMPDEST PUSH1 0x40 MLOAD PUSH4 0x5CB717F5 PUSH1 0xE0 SHL DUP2 MSTORE PUSH1 0x4 SWAP1 REVERT JUMPDEST PUSH1 0x40 MLOAD PUSH4 0x1B37A49B PUSH1 0xE1 SHL DUP2 MSTORE PUSH1 0x4 SWAP1 REVERT JUMPDEST PUSH1 0x40 MLOAD PUSH4 0x5A7CB4E9 PUSH1 0xE0 SHL DUP2 MSTORE PUSH1 0x4 SWAP1 REVERT JUMPDEST POP CALLVALUE PUSH2 0x3A7 JUMPI DUP1 PUSH1 0x3 NOT CALLDATASIZE ADD SLT PUSH2 0x3A7 JUMPI PUSH1 0x20 PUSH1 0xD SLOAD PUSH1 0x40 MLOAD SWAP1 DUP2 MSTORE RETURN JUMPDEST POP CALLVALUE PUSH2 0x3A7 JUMPI PUSH1 0x20 CALLDATASIZE PUSH1 0x3 NOT ADD SLT PUSH2 0x3A7 JUMPI PUSH1 0x1 PUSH1 0x1 PUSH1 0xA0 SHL SUB PUSH2 0x10B7 PUSH2 0x377D JUMP JUMPDEST AND DUP2 MSTORE PUSH1 0x15 PUSH1 0x20 MSTORE PUSH1 0x40 DUP2 KECCAK256 SLOAD PUSH1 0x16 PUSH1 0x20 MSTORE PUSH2 0x10E6 PUSH1 0x40 DUP1 DUP5 KECCAK256 SLOAD SWAP4 PUSH1 0x17 PUSH1 0x20 MSTORE KECCAK256 SLOAD PUSH1 0x40 MLOAD SWAP4 DUP5 SWAP4 DUP5 PUSH2 0x387A JUMP JUMPDEST SUB SWAP1 RETURN JUMPDEST POP CALLVALUE PUSH2 0x3A7 JUMPI PUSH1 0x60 CALLDATASIZE PUSH1 0x3 NOT ADD SLT PUSH2 0x3A7 JUMPI PUSH2 0x1114 PUSH2 0x1107 PUSH2 0x377D JUMP JUMPDEST PUSH1 0x44 CALLDATALOAD SWAP1 PUSH1 0x24 CALLDATALOAD SWAP1 PUSH2 0x3F6A JUMP JUMPDEST SWAP1 PUSH2 0x10E6 PUSH1 0x40 MLOAD SWAP3 DUP4 SWAP3 DUP4 PUSH2 0x37BF JUMP JUMPDEST POP CALLVALUE PUSH2 0x3A7 JUMPI DUP1 PUSH1 0x3 NOT CALLDATASIZE ADD SLT PUSH2 0x3A7 JUMPI PUSH1 0x20 PUSH1 0x40 MLOAD PUSH1 0x1E DUP2 MSTORE RETURN JUMPDEST POP CALLVALUE PUSH2 0x3A7 JUMPI DUP1 PUSH1 0x3 NOT CALLDATASIZE ADD SLT PUSH2 0x3A7 JUMPI PUSH1 0x20 PUSH1 0x2 SLOAD PUSH1 0x40 MLOAD SWAP1 DUP2 MSTORE RETURN JUMPDEST POP CALLVALUE PUSH2 0x3A7 JUMPI PUSH1 0x20 CALLDATASIZE PUSH1 0x3 NOT ADD SLT PUSH2 0x3A7 JUMPI PUSH1 0x1 PUSH1 0x1 PUSH1 0xA0 SHL SUB PUSH2 0x1180 PUSH2 0x377D JUMP JUMPDEST AND DUP2 MSTORE PUSH1 0x1 PUSH1 0x20 MSTORE PUSH1 0x40 PUSH1 0x6 DUP2 DUP4 KECCAK256 ADD SLOAD SWAP2 PUSH1 0x14 PUSH1 0x20 MSTORE KECCAK256 SLOAD SWAP1 PUSH2 0x10E6 PUSH2 0x11A7 DUP4 DUP4 PUSH2 0x3A99 JUMP JUMPDEST PUSH1 0x40 MLOAD SWAP4 DUP5 SWAP4 DUP5 PUSH2 0x387A JUMP JUMPDEST POP CALLVALUE PUSH2 0x3A7 JUMPI PUSH1 0x60 CALLDATASIZE PUSH1 0x3 NOT ADD SLT PUSH2 0x3A7 JUMPI PUSH2 0x11CD PUSH2 0x377D JUMP JUMPDEST SWAP1 PUSH2 0x11D6 PUSH2 0x3793 JUMP JUMPDEST SWAP1 PUSH1 0x44 CALLDATALOAD SWAP3 PUSH1 0x1 DUP1 PUSH1 0xA0 SHL SUB SWAP2 DUP3 DUP6 AND DUP1 SWAP6 SUB PUSH2 0x121F JUMPI DUP3 PUSH1 0x40 SWAP3 AND DUP2 MSTORE PUSH1 0x1B PUSH1 0x20 MSTORE KECCAK256 SWAP2 AND PUSH0 MSTORE PUSH1 0x20 MSTORE PUSH1 0x40 PUSH0 KECCAK256 SWAP1 PUSH0 MSTORE PUSH1 0x20 MSTORE PUSH1 0x20 PUSH1 0xFF PUSH1 0x40 PUSH0 KECCAK256 SLOAD AND PUSH1 0x40 MLOAD SWAP1 ISZERO ISZERO DUP2 MSTORE RETURN JUMPDEST PUSH0 DUP1 REVERT JUMPDEST POP CALLVALUE PUSH2 0x3A7 JUMPI DUP1 PUSH1 0x3 NOT CALLDATASIZE ADD SLT PUSH2 0x3A7 JUMPI PUSH1 0x20 PUSH1 0x40 MLOAD PUSH2 0xE10 DUP2 MSTORE RETURN JUMPDEST POP CALLVALUE PUSH2 0x3A7 JUMPI PUSH1 0x40 CALLDATASIZE PUSH1 0x3 NOT ADD SLT PUSH2 0x3A7 JUMPI PUSH2 0x125A PUSH2 0x377D JUMP JUMPDEST PUSH1 0x40 PUSH2 0x1264 PUSH2 0x3793 JUMP JUMPDEST SWAP3 PUSH1 0x1 DUP1 PUSH1 0xA0 SHL SUB DUP1 SWAP4 AND DUP2 MSTORE PUSH1 0x5 PUSH1 0x20 MSTORE KECCAK256 SWAP2 AND PUSH0 MSTORE PUSH1 0x20 MSTORE PUSH1 0x20 PUSH1 0x40 PUSH0 KECCAK256 SLOAD PUSH1 0x40 MLOAD SWAP1 DUP2 MSTORE RETURN JUMPDEST POP CALLVALUE PUSH2 0x3A7 JUMPI DUP1 PUSH1 0x3 NOT CALLDATASIZE ADD SLT PUSH2 0x3A7 JUMPI SLOAD PUSH1 0x40 MLOAD PUSH1 0x1 PUSH1 0x1 PUSH1 0xA0 SHL SUB SWAP1 SWAP2 AND DUP2 MSTORE PUSH1 0x20 SWAP1 RETURN JUMPDEST POP CALLVALUE PUSH2 0x3A7 JUMPI PUSH1 0x20 DUP1 PUSH1 0x3 NOT CALLDATASIZE ADD SLT PUSH2 0xB93 JUMPI PUSH2 0x12CF PUSH2 0x377D JUMP JUMPDEST SWAP1 PUSH2 0x12D8 PUSH2 0x4173 JUMP JUMPDEST PUSH1 0x1 PUSH1 0x1 PUSH1 0xA0 SHL SUB SWAP2 DUP3 AND DUP1 DUP5 MSTORE PUSH1 0x1 DUP1 DUP4 MSTORE PUSH1 0x40 DUP6 KECCAK256 SWAP1 DUP2 ADD SLOAD SWAP2 SWAP4 SWAP1 SWAP2 AND CALLER SUB PUSH2 0x1397 JUMPI PUSH1 0xFF PUSH1 0xC PUSH1 0x3 SWAP3 ADD SLOAD AND SUB PUSH2 0xD86 JUMPI DUP2 DUP4 MSTORE PUSH1 0x3 DUP2 MSTORE PUSH1 0xFF PUSH1 0x3 PUSH1 0x40 DUP6 KECCAK256 ADD SLOAD AND PUSH2 0xD62 JUMPI DUP2 DUP4 MSTORE PUSH1 0xC DUP2 MSTORE PUSH1 0x40 DUP4 KECCAK256 SLOAD SWAP2 DUP3 ISZERO PUSH2 0xD74 JUMPI DUP4 MSTORE PUSH1 0xC DUP2 MSTORE DUP3 PUSH1 0x40 DUP2 KECCAK256 SSTORE DUP3 DUP1 DUP1 DUP1 DUP6 CALLER GAS CALL PUSH2 0x1352 PUSH2 0x3B7D JUMP JUMPDEST POP ISZERO PUSH2 0xAC6 JUMPI PUSH32 0x623AAF84687869EFE3B904DD42BC0BD45020D407984041C86F9FE076BE224708 SWAP1 PUSH1 0x40 MLOAD SWAP3 DUP4 MSTORE CALLER SWAP3 LOG2 PUSH1 0x1 PUSH0 DUP1 MLOAD PUSH1 0x20 PUSH2 0x5A09 DUP4 CODECOPY DUP2 MLOAD SWAP2 MSTORE SSTORE DUP1 RETURN JUMPDEST PUSH1 0x40 MLOAD PUSH4 0x8CF65E5 PUSH1 0xE4 SHL DUP2 MSTORE PUSH1 0x4 SWAP1 REVERT JUMPDEST POP CALLVALUE PUSH2 0x3A7 JUMPI PUSH1 0x20 CALLDATASIZE PUSH1 0x3 NOT ADD SLT PUSH2 0x3A7 JUMPI PUSH1 0x20 SWAP1 PUSH1 0xFF SWAP1 PUSH1 0x40 SWAP1 PUSH1 0x1 PUSH1 0x1 PUSH1 0xA0 SHL SUB PUSH2 0x13D4 PUSH2 0x377D JUMP JUMPDEST AND DUP2 MSTORE PUSH1 0x6 DUP5 MSTORE KECCAK256 SLOAD AND PUSH1 0x40 MLOAD SWAP1 ISZERO ISZERO DUP2 MSTORE RETURN JUMPDEST POP CALLVALUE PUSH2 0x3A7 JUMPI PUSH1 0x20 DUP1 PUSH1 0x3 NOT CALLDATASIZE ADD SLT PUSH2 0xB93 JUMPI PUSH1 0xA0 SWAP2 PUSH1 0x1 PUSH1 0x1 PUSH1 0xA0 SHL SUB SWAP2 DUP3 PUSH2 0x1410 PUSH2 0x377D JUMP JUMPDEST AND DUP3 MSTORE PUSH1 0x13 DUP2 MSTORE PUSH1 0xFF PUSH1 0x40 DUP4 KECCAK256 SLOAD AND SWAP3 PUSH1 0x10 DUP3 MSTORE PUSH1 0x40 DUP4 KECCAK256 SLOAD AND PUSH1 0x11 DUP3 MSTORE PUSH1 0x40 DUP4 KECCAK256 SLOAD SWAP1 PUSH1 0x12 DUP4 MSTORE PUSH1 0x40 DUP5 KECCAK256 SLOAD SWAP3 PUSH1 0x13 DUP2 MSTORE PUSH1 0xFF PUSH1 0x40 DUP7 KECCAK256 SLOAD AND SWAP5 DUP6 PUSH2 0x1489 JUMPI JUMPDEST DUP6 PUSH2 0x1476 JUMPI JUMPDEST POP PUSH1 0x40 MLOAD SWAP6 ISZERO ISZERO DUP7 MSTORE DUP6 ADD MSTORE PUSH1 0x40 DUP5 ADD MSTORE PUSH1 0x60 DUP4 ADD MSTORE ISZERO ISZERO PUSH1 0x80 DUP3 ADD MSTORE RETURN JUMPDEST PUSH1 0x11 DUP3 MSTORE PUSH1 0x40 SWAP1 KECCAK256 SLOAD ISZERO ISZERO SWAP5 POP PUSH0 PUSH2 0x1457 JUMP JUMPDEST PUSH1 0x12 DUP3 MSTORE PUSH1 0x40 DUP2 KECCAK256 SLOAD TIMESTAMP LT ISZERO SWAP6 POP PUSH2 0x1451 JUMP JUMPDEST POP PUSH2 0x160 CALLDATASIZE PUSH1 0x3 NOT ADD SLT PUSH2 0x3A7 JUMPI PUSH1 0x4 CALLDATALOAD PUSH1 0x1 PUSH1 0x1 PUSH1 0x40 SHL SUB DUP2 GT PUSH2 0xB93 JUMPI PUSH2 0x14C9 SWAP1 CALLDATASIZE SWAP1 PUSH1 0x4 ADD PUSH2 0x384D JUMP JUMPDEST SWAP1 SWAP2 SWAP1 PUSH1 0x24 CALLDATALOAD PUSH1 0x1 PUSH1 0x1 PUSH1 0x40 SHL SUB DUP2 GT PUSH2 0x1FB8 JUMPI PUSH2 0x14EB SWAP1 CALLDATASIZE SWAP1 PUSH1 0x4 ADD PUSH2 0x384D JUMP JUMPDEST SWAP3 PUSH1 0xC4 CALLDATALOAD SWAP2 PUSH2 0xFFFF DUP4 AND DUP4 SUB PUSH2 0xB93 JUMPI PUSH2 0x104 CALLDATALOAD PUSH1 0x1 PUSH1 0x1 PUSH1 0x40 SHL SUB DUP2 GT PUSH2 0x1FB8 JUMPI PUSH2 0x151E PUSH2 0x1530 SWAP2 CALLDATASIZE SWAP1 PUSH1 0x4 ADD PUSH2 0x384D JUMP JUMPDEST SWAP1 PUSH2 0x1527 PUSH2 0x4173 JUMP JUMPDEST PUSH1 0xE4 CALLDATALOAD CALLER PUSH2 0x41CD JUMP JUMPDEST CALLER DUP3 MSTORE PUSH1 0xA PUSH1 0x20 MSTORE PUSH1 0xFF PUSH1 0x40 DUP4 KECCAK256 SLOAD AND PUSH2 0x2119 JUMPI PUSH1 0xB SLOAD SWAP5 PUSH8 0x16345785D8A0000 DUP7 ADD DUP7 GT PUSH2 0x1F71 JUMPI PUSH8 0x16345785D8A0000 DUP7 ADD CALLVALUE LT PUSH2 0x2107 JUMPI PUSH1 0xB4 PUSH1 0x84 CALLDATALOAD LT PUSH2 0x20F5 JUMPI PUSH1 0x5A PUSH1 0xA4 CALLDATALOAD LT PUSH2 0x20E3 JUMPI PUSH2 0x3E8 PUSH2 0xFFFF DUP6 AND GT PUSH2 0x20D1 JUMPI PUSH8 0xDE0B6B3A7640000 PUSH1 0x44 CALLDATALOAD LT PUSH2 0x20BF JUMPI PUSH7 0x2386F26FC10000 PUSH1 0x64 CALLDATALOAD LT DUP1 ISZERO PUSH2 0x20A9 JUMPI JUMPDEST PUSH2 0x2097 JUMPI DUP5 ISZERO DUP1 ISZERO PUSH2 0x208F JUMPI JUMPDEST PUSH2 0x207D JUMPI PUSH1 0x7 PUSH2 0x144 CALLDATALOAD LT DUP1 ISZERO PUSH2 0x2070 JUMPI JUMPDEST PUSH2 0x2055 JUMPI PUSH2 0x124 CALLDATALOAD PUSH2 0x2018 JUMPI JUMPDEST PUSH1 0x28 PUSH2 0x1F4 PUSH2 0xFFFF DUP7 AND GT ISZERO PUSH2 0x2010 JUMPI JUMPDEST PUSH2 0x15F8 PUSH2 0x15FD SWAP2 PUSH2 0x3B50 JUMP JUMPDEST PUSH2 0x3B50 JUMP JUMPDEST PUSH1 0x40 MLOAD SWAP1 SWAP4 SWAP1 PUSH1 0x1 PUSH1 0x1 PUSH1 0x40 SHL SUB PUSH2 0x1575 DUP3 ADD SWAP1 DUP2 GT SWAP1 DUP3 GT OR PUSH2 0x1FFC JUMPI PUSH2 0x1575 PUSH2 0x4414 DUP3 CODECOPY PUSH1 0x80 PUSH2 0x1575 DUP3 ADD MSTORE DUP1 PUSH2 0x1658 PUSH2 0x1641 PUSH1 0x80 PUSH2 0x1575 DUP5 ADD ADD DUP11 DUP14 PUSH2 0x3EEE JUMP JUMPDEST PUSH2 0x1575 DUP4 ADD DUP2 SUB PUSH1 0x20 PUSH2 0x1575 DUP6 ADD ADD MSTORE DUP6 DUP8 PUSH2 0x3EEE JUMP JUMPDEST PUSH1 0x44 CALLDATALOAD PUSH1 0x40 PUSH2 0x1575 DUP5 ADD ADD MSTORE ADDRESS PUSH1 0x60 PUSH2 0x1575 DUP5 ADD ADD MSTORE SUB SWAP1 DUP3 CREATE SWAP7 DUP8 ISZERO PUSH2 0x1FEF JUMPI PUSH2 0x2710 PUSH2 0x168C PUSH2 0xFFFF DUP9 AND PUSH1 0x44 CALLDATALOAD PUSH2 0x39DF JUMP JUMPDEST DIV PUSH1 0xA4 CALLDATALOAD PUSH3 0x15180 PUSH1 0xA4 CALLDATALOAD MUL DIV PUSH3 0x15180 EQ PUSH1 0xA4 CALLDATALOAD ISZERO OR ISZERO PUSH2 0x1F71 JUMPI PUSH1 0x1 PUSH1 0x1 PUSH1 0xA0 SHL SUB DUP10 AND EXTCODESIZE ISZERO PUSH2 0x1FB8 JUMPI PUSH1 0x40 MLOAD PUSH4 0xD823F83 PUSH1 0xE2 SHL DUP2 MSTORE CALLER PUSH1 0x4 DUP3 ADD MSTORE PUSH1 0x24 DUP2 ADD DUP3 SWAP1 MSTORE TIMESTAMP PUSH1 0x44 DUP3 ADD MSTORE PUSH1 0xA4 DUP1 CALLDATALOAD PUSH3 0x15180 MUL PUSH1 0x64 DUP4 ADD MSTORE PUSH1 0xC8 PUSH1 0x84 DUP4 ADD MSTORE DUP5 SWAP1 DUP3 SWAP1 DUP2 DUP4 PUSH1 0x1 PUSH1 0x1 PUSH1 0xA0 SHL SUB DUP16 AND GAS CALL DUP1 ISZERO PUSH2 0x1FD0 JUMPI SWAP1 DUP5 SWAP2 PUSH2 0x1FDB JUMPI JUMPDEST POP POP PUSH1 0x3C TIMESTAMP ADD TIMESTAMP GT PUSH2 0x1F71 JUMPI PUSH1 0x1 PUSH1 0x1 PUSH1 0xA0 SHL SUB DUP10 AND EXTCODESIZE ISZERO PUSH2 0x1FB8 JUMPI PUSH1 0x40 MLOAD PUSH4 0x13A62FA9 PUSH1 0xE1 SHL DUP2 MSTORE TIMESTAMP PUSH1 0x3C ADD PUSH1 0x4 DUP3 ADD MSTORE DUP4 DUP2 PUSH1 0x24 DUP2 DUP4 PUSH1 0x1 PUSH1 0x1 PUSH1 0xA0 SHL SUB DUP16 AND GAS CALL DUP1 ISZERO PUSH2 0x1FD0 JUMPI SWAP1 DUP5 SWAP2 PUSH2 0x1FBC JUMPI JUMPDEST POP POP PUSH1 0x1 PUSH1 0x1 PUSH1 0xA0 SHL SUB DUP10 AND EXTCODESIZE ISZERO PUSH2 0x1FB8 JUMPI DUP3 PUSH2 0x1791 SWAP2 PUSH1 0x40 MLOAD DUP1 SWAP4 DUP2 SWAP3 PUSH4 0x7F57DA7 PUSH1 0xE1 SHL DUP4 MSTORE CALLER PUSH1 0x4 DUP5 ADD PUSH2 0x3A35 JUMP JUMPDEST SUB DUP2 DUP4 PUSH1 0x1 PUSH1 0x1 PUSH1 0xA0 SHL SUB DUP15 AND GAS CALL DUP1 ISZERO PUSH2 0x1FAD JUMPI SWAP1 DUP4 SWAP2 PUSH2 0x1F99 JUMPI JUMPDEST POP POP PUSH3 0x278D00 TIMESTAMP ADD TIMESTAMP GT PUSH2 0x1F85 JUMPI PUSH3 0x4F1A00 TIMESTAMP ADD TIMESTAMP GT PUSH2 0x1F85 JUMPI PUSH3 0x76A700 TIMESTAMP ADD TIMESTAMP GT PUSH2 0x1F85 JUMPI PUSH2 0x2710 PUSH2 0x17E6 PUSH2 0x124 CALLDATALOAD PUSH1 0x64 CALLDATALOAD PUSH2 0x39DF JUMP JUMPDEST DIV PUSH2 0x144 CALLDATALOAD PUSH3 0x15180 PUSH2 0x144 CALLDATALOAD MUL DIV PUSH3 0x15180 EQ PUSH2 0x144 CALLDATALOAD ISZERO OR ISZERO PUSH2 0x1F71 JUMPI PUSH2 0x1817 PUSH3 0x15180 PUSH2 0x144 CALLDATALOAD MUL TIMESTAMP PUSH2 0x3A10 JUMP JUMPDEST PUSH1 0x40 MLOAD SWAP2 PUSH1 0x1 PUSH1 0x1 PUSH1 0x40 SHL SUB PUSH2 0x380 DUP5 ADD SWAP1 DUP2 GT SWAP1 DUP5 GT OR PUSH2 0x1DBB JUMPI PUSH2 0x380 DUP4 ADD PUSH1 0x40 MSTORE PUSH1 0x1 PUSH1 0x1 PUSH1 0xA0 SHL SUB DUP12 AND DUP4 MSTORE CALLER PUSH1 0x20 DUP5 ADD MSTORE PUSH2 0x1858 CALLDATASIZE DUP12 DUP15 PUSH2 0x3F1C JUMP JUMPDEST PUSH1 0x40 DUP5 ADD MSTORE PUSH2 0x1868 CALLDATASIZE DUP8 DUP10 PUSH2 0x3F1C JUMP JUMPDEST PUSH1 0x60 DUP5 ADD MSTORE PUSH1 0x44 CALLDATALOAD PUSH1 0x80 DUP5 ADD MSTORE PUSH1 0x64 CALLDATALOAD PUSH1 0xA0 DUP5 ADD MSTORE DUP5 PUSH1 0xC0 DUP5 ADD MSTORE PUSH1 0x84 CALLDATALOAD PUSH1 0xE0 DUP5 ADD MSTORE PUSH1 0xA4 CALLDATALOAD PUSH2 0x100 DUP5 ADD MSTORE PUSH2 0xFFFF DUP10 AND PUSH2 0x120 DUP5 ADD MSTORE TIMESTAMP PUSH2 0x140 DUP5 ADD MSTORE PUSH1 0x3C TIMESTAMP ADD PUSH2 0x160 DUP5 ADD MSTORE DUP5 PUSH2 0x180 DUP5 ADD MSTORE PUSH3 0x278D00 TIMESTAMP ADD PUSH2 0x1A0 DUP5 ADD MSTORE PUSH3 0x4F1A00 TIMESTAMP ADD PUSH2 0x1C0 DUP5 ADD MSTORE PUSH3 0x76A700 TIMESTAMP ADD PUSH2 0x1E0 DUP5 ADD MSTORE PUSH1 0xFF DUP9 AND PUSH2 0x200 DUP5 ADD MSTORE PUSH1 0x1 PUSH2 0x220 DUP5 ADD MSTORE DUP5 PUSH2 0x240 DUP5 ADD MSTORE PUSH1 0x14 PUSH1 0x64 CALLDATALOAD DIV PUSH2 0x260 DUP5 ADD MSTORE DUP5 PUSH2 0x280 DUP5 ADD MSTORE PUSH2 0xBB8 PUSH2 0x2A0 DUP5 ADD MSTORE DUP5 PUSH2 0x2C0 DUP5 ADD MSTORE DUP5 PUSH2 0x2E0 DUP5 ADD MSTORE PUSH2 0x300 DUP4 ADD MSTORE PUSH2 0x320 DUP3 ADD MSTORE DUP3 PUSH2 0x340 DUP3 ADD MSTORE DUP3 PUSH2 0x360 DUP3 ADD MSTORE PUSH1 0x1 DUP1 PUSH1 0xA0 SHL SUB DUP10 AND DUP4 MSTORE PUSH1 0x1 PUSH1 0x20 MSTORE PUSH1 0x40 DUP4 KECCAK256 PUSH1 0x1 DUP1 PUSH1 0xA0 SHL SUB DUP3 MLOAD AND PUSH1 0x1 DUP1 PUSH1 0xA0 SHL SUB NOT SWAP1 DUP2 DUP4 SLOAD AND OR DUP3 SSTORE PUSH1 0x1 DUP3 ADD SWAP1 PUSH1 0x1 DUP1 PUSH1 0xA0 SHL SUB PUSH1 0x20 DUP6 ADD MLOAD AND SWAP1 DUP3 SLOAD AND OR SWAP1 SSTORE PUSH1 0x40 DUP3 ADD MLOAD DUP1 MLOAD SWAP1 PUSH1 0x1 DUP1 PUSH1 0x40 SHL SUB DUP3 GT PUSH2 0x1E94 JUMPI DUP2 SWAP1 PUSH2 0x19A3 PUSH1 0x2 DUP6 ADD SLOAD PUSH2 0x3890 JUMP JUMPDEST PUSH1 0x1F DUP2 GT PUSH2 0x1F21 JUMPI JUMPDEST POP PUSH1 0x20 SWAP1 PUSH1 0x1F DUP4 GT PUSH1 0x1 EQ PUSH2 0x1EB3 JUMPI DUP8 SWAP3 PUSH2 0x1EA8 JUMPI JUMPDEST POP POP DUP2 PUSH1 0x1 SHL SWAP2 PUSH0 NOT SWAP1 PUSH1 0x3 SHL SHR NOT AND OR PUSH1 0x2 DUP3 ADD SSTORE JUMPDEST PUSH1 0x60 DUP3 ADD MLOAD DUP1 MLOAD SWAP1 PUSH1 0x1 PUSH1 0x1 PUSH1 0x40 SHL SUB DUP3 GT PUSH2 0x1E94 JUMPI PUSH2 0x19FC PUSH1 0x3 DUP5 ADD SLOAD PUSH2 0x3890 JUMP JUMPDEST PUSH1 0x1F DUP2 GT PUSH2 0x1E50 JUMPI JUMPDEST POP PUSH1 0x20 SWAP1 PUSH1 0x1F DUP4 GT PUSH1 0x1 EQ PUSH2 0x1DDA JUMPI SWAP3 DUP3 PUSH2 0x360 SWAP4 PUSH1 0x18 SWAP4 PUSH2 0x1B98 SWAP8 SWAP7 DUP11 SWAP3 PUSH2 0x1DCF JUMPI JUMPDEST POP POP DUP2 PUSH1 0x1 SHL SWAP2 PUSH0 NOT SWAP1 PUSH1 0x3 SHL SHR NOT AND OR PUSH1 0x3 DUP3 ADD SSTORE JUMPDEST PUSH1 0x80 DUP5 ADD MLOAD PUSH1 0x4 DUP3 ADD SSTORE PUSH1 0xA0 DUP5 ADD MLOAD PUSH1 0x5 DUP3 ADD SSTORE PUSH1 0xC0 DUP5 ADD MLOAD PUSH1 0x6 DUP3 ADD SSTORE PUSH1 0xE0 DUP5 ADD MLOAD PUSH1 0x7 DUP3 ADD SSTORE PUSH2 0x100 DUP5 ADD MLOAD PUSH1 0x8 DUP3 ADD SSTORE PUSH1 0x9 DUP2 ADD PUSH2 0xFFFF PUSH2 0x120 DUP7 ADD MLOAD AND PUSH2 0xFFFF NOT DUP3 SLOAD AND OR SWAP1 SSTORE PUSH2 0x140 DUP5 ADD MLOAD PUSH1 0xA DUP3 ADD SSTORE PUSH2 0x160 DUP5 ADD MLOAD PUSH1 0xB DUP3 ADD SSTORE PUSH1 0xFF PUSH2 0x180 DUP6 ADD MLOAD AND PUSH1 0xFF NOT PUSH1 0xC DUP4 ADD SLOAD AND OR PUSH1 0xC DUP3 ADD SSTORE PUSH2 0x1A0 DUP5 ADD MLOAD PUSH1 0xD DUP3 ADD SSTORE PUSH2 0x1C0 DUP5 ADD MLOAD PUSH1 0xE DUP3 ADD SSTORE PUSH2 0x1E0 DUP5 ADD MLOAD PUSH1 0xF DUP3 ADD SSTORE PUSH1 0x10 DUP2 ADD PUSH1 0xFF PUSH2 0x200 DUP7 ADD MLOAD AND PUSH1 0xFF NOT DUP3 SLOAD AND OR DUP2 SSTORE PUSH2 0x1B01 PUSH2 0x220 DUP7 ADD MLOAD ISZERO ISZERO DUP3 PUSH2 0x3F52 JUMP JUMPDEST PUSH2 0x240 DUP6 ADD MLOAD ISZERO ISZERO PUSH3 0xFF0000 DUP3 SLOAD SWAP2 PUSH1 0x10 SHL AND SWAP1 PUSH3 0xFF0000 NOT AND OR SWAP1 SSTORE PUSH2 0x260 DUP5 ADD MLOAD PUSH1 0x11 DUP3 ADD SSTORE PUSH2 0x280 DUP5 ADD MLOAD PUSH1 0x12 DUP3 ADD SSTORE PUSH1 0x13 DUP2 ADD PUSH2 0xFFFF PUSH2 0x2A0 DUP7 ADD MLOAD AND PUSH2 0xFFFF NOT DUP3 SLOAD AND OR SWAP1 SSTORE PUSH2 0x2C0 DUP5 ADD MLOAD PUSH1 0x14 DUP3 ADD SSTORE PUSH2 0x2E0 DUP5 ADD MLOAD PUSH1 0x15 DUP3 ADD SSTORE PUSH2 0x300 DUP5 ADD MLOAD PUSH1 0x16 DUP3 ADD SSTORE PUSH2 0x320 DUP5 ADD MLOAD PUSH1 0x17 DUP3 ADD SSTORE ADD SWAP2 PUSH2 0x340 DUP2 ADD MLOAD ISZERO ISZERO PUSH1 0xFF DUP1 NOT DUP6 SLOAD AND SWAP2 AND OR DUP4 SSTORE ADD MLOAD ISZERO ISZERO SWAP1 PUSH2 0x3F52 JUMP JUMPDEST PUSH1 0x1 PUSH1 0x1 PUSH1 0xA0 SHL SUB DUP9 AND DUP1 DUP4 MSTORE PUSH1 0x19 PUSH1 0x20 SWAP1 DUP2 MSTORE PUSH1 0x40 DUP1 DUP6 KECCAK256 CALLER PUSH0 SWAP1 DUP2 MSTORE SWAP1 DUP4 MSTORE DUP2 SWAP1 KECCAK256 DUP1 SLOAD PUSH1 0x1 PUSH1 0xFF NOT SWAP2 DUP3 AND DUP2 OR SWAP1 SWAP3 SSTORE SWAP4 DUP7 MSTORE PUSH1 0x6 SWAP1 SWAP3 MSTORE DUP5 KECCAK256 DUP1 SLOAD SWAP1 SWAP3 AND OR SWAP1 SSTORE PUSH1 0x2 SLOAD PUSH1 0x1 PUSH1 0x40 SHL DUP2 LT ISZERO PUSH2 0x1DBB JUMPI DUP1 PUSH1 0x1 PUSH2 0x1BFC SWAP3 ADD PUSH1 0x2 SSTORE PUSH2 0x380C JUMP JUMPDEST DUP2 SLOAD PUSH1 0x1 PUSH1 0x1 PUSH1 0xA0 SHL SUB DUP12 DUP2 AND PUSH1 0x3 SWAP4 SWAP1 SWAP4 SHL SWAP3 DUP4 SHL SWAP3 SHL NOT AND OR SWAP1 SSTORE CALLER DUP3 MSTORE PUSH1 0x15 PUSH1 0x20 MSTORE PUSH1 0x40 DUP3 KECCAK256 DUP1 SLOAD SWAP1 SWAP2 PUSH1 0x1 PUSH1 0x40 SHL DUP3 LT ISZERO PUSH2 0x1DBB JUMPI PUSH2 0x1C51 DUP3 PUSH2 0x1C84 SWAP5 PUSH1 0x1 PUSH8 0x16345785D8A0000 SWAP6 ADD DUP2 SSTORE PUSH2 0x3838 JUMP JUMPDEST DUP2 SLOAD PUSH1 0x1 PUSH1 0x1 PUSH1 0xA0 SHL SUB DUP14 DUP2 AND PUSH1 0x3 SWAP4 SWAP1 SWAP4 SHL SWAP3 DUP4 SHL SWAP3 SHL NOT AND OR SWAP1 SSTORE CALLER DUP5 MSTORE PUSH1 0x7 PUSH1 0x20 MSTORE PUSH1 0x40 DUP5 KECCAK256 TIMESTAMP SWAP1 SSTORE ADD CALLVALUE PUSH2 0x3A99 JUMP JUMPDEST DUP2 PUSH1 0xB SLOAD DUP1 PUSH2 0x1D91 JUMPI JUMPDEST POP POP PUSH1 0x1 PUSH1 0x1 PUSH1 0xA0 SHL SUB DUP9 AND DUP3 MSTORE PUSH1 0xC PUSH1 0x20 MSTORE PUSH1 0x40 DUP3 KECCAK256 PUSH8 0x16345785D8A0000 SWAP1 SSTORE DUP1 PUSH2 0x1D6F JUMPI JUMPDEST POP POP PUSH2 0x1CEA PUSH1 0xFF SWAP4 SWAP3 PUSH2 0xFFFF SWAP3 PUSH2 0x1CDD PUSH1 0x20 SWAP11 PUSH1 0x40 MLOAD SWAP10 PUSH2 0x100 DUP12 MSTORE PUSH2 0x100 DUP12 ADD SWAP2 PUSH2 0x3EEE JUMP JUMPDEST SWAP2 DUP9 DUP4 SUB DUP12 DUP11 ADD MSTORE PUSH2 0x3EEE JUMP JUMPDEST PUSH1 0x44 CALLDATALOAD PUSH1 0x40 DUP8 ADD MSTORE PUSH1 0x64 CALLDATALOAD PUSH1 0x60 DUP8 ADD MSTORE PUSH1 0x84 CALLDATALOAD PUSH1 0x80 DUP8 ADD MSTORE PUSH1 0xA4 CALLDATALOAD PUSH1 0xA0 DUP8 ADD MSTORE SWAP4 AND PUSH1 0xC0 DUP6 ADD MSTORE AND PUSH1 0xE0 DUP4 ADD MSTORE CALLER SWAP2 PUSH1 0x1 PUSH1 0x1 PUSH1 0xA0 SHL SUB DUP5 AND SWAP2 PUSH32 0x174B1C441C7E1607660F9AD04CE58CC91786C18B1431B4814B707F3F6F8B3236 SWAP2 SWAP1 DUP2 SWAP1 SUB SWAP1 LOG3 PUSH1 0x1 PUSH0 DUP1 MLOAD PUSH1 0x20 PUSH2 0x5A09 DUP4 CODECOPY DUP2 MLOAD SWAP2 MSTORE SSTORE PUSH1 0x40 MLOAD PUSH1 0x1 PUSH1 0x1 PUSH1 0xA0 SHL SUB SWAP1 SWAP2 AND DUP2 MSTORE RETURN JUMPDEST DUP2 DUP1 DUP1 SWAP3 SWAP7 SWAP6 SWAP7 CALLER GAS CALL PUSH2 0x1D81 PUSH2 0x3B7D JUMP JUMPDEST POP ISZERO PUSH2 0xAC6 JUMPI PUSH0 DUP1 SWAP4 SWAP3 SWAP4 PUSH2 0x1CB6 JUMP JUMPDEST PUSH1 0xE SLOAD DUP3 SWAP2 DUP3 SWAP2 DUP3 SWAP2 SWAP1 PUSH1 0x1 PUSH1 0x1 PUSH1 0xA0 SHL SUB AND GAS CALL PUSH2 0x1DAE PUSH2 0x3B7D JUMP JUMPDEST POP ISZERO PUSH2 0xAC6 JUMPI DUP2 PUSH0 PUSH2 0x1C8E JUMP JUMPDEST PUSH4 0x4E487B71 PUSH1 0xE0 SHL PUSH0 MSTORE PUSH1 0x41 PUSH1 0x4 MSTORE PUSH1 0x24 PUSH0 REVERT JUMPDEST ADD MLOAD SWAP1 POP PUSH0 DUP1 PUSH2 0x1A29 JUMP JUMPDEST SWAP1 PUSH1 0x3 DUP5 ADD DUP8 MSTORE PUSH1 0x20 DUP8 KECCAK256 SWAP2 DUP8 JUMPDEST PUSH1 0x1F NOT DUP6 AND DUP2 LT PUSH2 0x1E38 JUMPI POP DUP4 PUSH1 0x18 SWAP4 PUSH2 0x1B98 SWAP8 SWAP7 SWAP4 PUSH1 0x1 SWAP4 PUSH2 0x360 SWAP8 PUSH1 0x1F NOT DUP2 AND LT PUSH2 0x1E20 JUMPI JUMPDEST POP POP POP DUP2 SHL ADD PUSH1 0x3 DUP3 ADD SSTORE PUSH2 0x1A40 JUMP JUMPDEST ADD MLOAD PUSH0 NOT PUSH1 0xF8 DUP5 PUSH1 0x3 SHL AND SHR NOT AND SWAP1 SSTORE PUSH0 DUP1 DUP1 PUSH2 0x1E10 JUMP JUMPDEST SWAP2 SWAP3 PUSH1 0x20 PUSH1 0x1 DUP2 SWAP3 DUP7 DUP6 ADD MLOAD DUP2 SSTORE ADD SWAP5 ADD SWAP3 ADD PUSH2 0x1DE8 JUMP JUMPDEST PUSH1 0x3 DUP5 ADD DUP8 MSTORE PUSH1 0x20 DUP8 KECCAK256 PUSH1 0x1F DUP5 ADD PUSH1 0x5 SHR DUP2 ADD PUSH1 0x20 DUP6 LT PUSH2 0x1E8D JUMPI JUMPDEST PUSH1 0x1F DUP4 ADD PUSH1 0x5 SHR DUP3 ADD DUP2 LT PUSH2 0x1E82 JUMPI POP POP PUSH2 0x1A05 JUMP JUMPDEST DUP9 DUP2 SSTORE PUSH1 0x1 ADD PUSH2 0x1E6C JUMP JUMPDEST POP DUP1 PUSH2 0x1E6C JUMP JUMPDEST PUSH4 0x4E487B71 PUSH1 0xE0 SHL DUP7 MSTORE PUSH1 0x41 PUSH1 0x4 MSTORE PUSH1 0x24 DUP7 REVERT JUMPDEST ADD MLOAD SWAP1 POP PUSH0 DUP1 PUSH2 0x19C2 JUMP JUMPDEST SWAP3 POP PUSH1 0x2 DUP5 ADD DUP8 MSTORE PUSH1 0x20 DUP8 KECCAK256 SWAP1 DUP8 SWAP4 JUMPDEST PUSH1 0x1F NOT DUP5 AND DUP6 LT PUSH2 0x1F06 JUMPI PUSH1 0x1 SWAP5 POP DUP4 PUSH1 0x1F NOT DUP2 AND LT PUSH2 0x1EEE JUMPI JUMPDEST POP POP POP DUP2 SHL ADD PUSH1 0x2 DUP3 ADD SSTORE PUSH2 0x19D9 JUMP JUMPDEST ADD MLOAD PUSH0 NOT PUSH1 0xF8 DUP5 PUSH1 0x3 SHL AND SHR NOT AND SWAP1 SSTORE PUSH0 DUP1 DUP1 PUSH2 0x1EDE JUMP JUMPDEST DUP2 DUP2 ADD MLOAD DUP4 SSTORE PUSH1 0x20 SWAP5 DUP6 ADD SWAP5 PUSH1 0x1 SWAP1 SWAP4 ADD SWAP3 SWAP1 SWAP2 ADD SWAP1 PUSH2 0x1EC3 JUMP JUMPDEST SWAP1 SWAP2 POP PUSH1 0x2 DUP5 ADD DUP8 MSTORE PUSH1 0x20 DUP8 KECCAK256 PUSH1 0x1F DUP5 ADD PUSH1 0x5 SHR DUP2 ADD PUSH1 0x20 DUP6 LT PUSH2 0x1F6A JUMPI JUMPDEST SWAP1 DUP5 SWAP4 SWAP3 SWAP2 JUMPDEST PUSH1 0x1F DUP4 ADD PUSH1 0x5 SHR DUP3 ADD DUP2 LT PUSH2 0x1F5C JUMPI POP POP PUSH2 0x19AC JUMP JUMPDEST DUP10 DUP2 SSTORE DUP6 SWAP5 POP PUSH1 0x1 ADD PUSH2 0x1F46 JUMP JUMPDEST POP DUP1 PUSH2 0x1F40 JUMP JUMPDEST PUSH4 0x4E487B71 PUSH1 0xE0 SHL DUP4 MSTORE PUSH1 0x11 PUSH1 0x4 MSTORE PUSH1 0x24 DUP4 REVERT JUMPDEST PUSH4 0x4E487B71 PUSH1 0xE0 SHL DUP3 MSTORE PUSH1 0x11 PUSH1 0x4 MSTORE PUSH1 0x24 DUP3 REVERT JUMPDEST PUSH2 0x1FA2 SWAP1 PUSH2 0x38C8 JUMP JUMPDEST PUSH2 0xB93 JUMPI DUP2 PUSH0 PUSH2 0x17AE JUMP JUMPDEST PUSH1 0x40 MLOAD RETURNDATASIZE DUP6 DUP3 RETURNDATACOPY RETURNDATASIZE SWAP1 REVERT JUMPDEST DUP3 DUP1 REVERT JUMPDEST PUSH2 0x1FC5 SWAP1 PUSH2 0x38C8 JUMP JUMPDEST PUSH2 0x1FB8 JUMPI DUP3 PUSH0 PUSH2 0x175F JUMP JUMPDEST PUSH1 0x40 MLOAD RETURNDATASIZE DUP7 DUP3 RETURNDATACOPY RETURNDATASIZE SWAP1 REVERT JUMPDEST PUSH2 0x1FE4 SWAP1 PUSH2 0x38C8 JUMP JUMPDEST PUSH2 0x1FB8 JUMPI DUP3 PUSH0 PUSH2 0x170D JUMP JUMPDEST POP PUSH1 0x40 MLOAD SWAP1 RETURNDATASIZE SWAP1 DUP3 RETURNDATACOPY RETURNDATASIZE SWAP1 REVERT JUMPDEST PUSH4 0x4E487B71 PUSH1 0xE0 SHL DUP3 MSTORE PUSH1 0x41 PUSH1 0x4 MSTORE PUSH1 0x24 DUP3 REVERT JUMPDEST POP PUSH1 0x3C PUSH2 0x15EC JUMP JUMPDEST PUSH2 0x7D0 PUSH2 0x124 CALLDATALOAD LT DUP1 ISZERO PUSH2 0x2047 JUMPI JUMPDEST ISZERO PUSH2 0x15DB JUMPI PUSH1 0x40 MLOAD PUSH4 0xD7C4AF9F PUSH1 0xE0 SHL DUP2 MSTORE PUSH2 0x124 CALLDATALOAD PUSH1 0x4 DUP3 ADD MSTORE PUSH1 0x24 SWAP1 REVERT JUMPDEST POP PUSH2 0x2710 PUSH2 0x124 CALLDATALOAD GT PUSH2 0x2027 JUMP JUMPDEST PUSH1 0x40 MLOAD PUSH4 0x13B783AF PUSH1 0xE2 SHL DUP2 MSTORE PUSH2 0x144 CALLDATALOAD PUSH1 0x4 DUP3 ADD MSTORE PUSH1 0x24 SWAP1 REVERT JUMPDEST POP PUSH1 0x1E PUSH2 0x144 CALLDATALOAD GT PUSH2 0x15CE JUMP JUMPDEST PUSH1 0x40 MLOAD PUSH4 0x519A33EB PUSH1 0xE0 SHL DUP2 MSTORE PUSH1 0x4 SWAP1 REVERT JUMPDEST POP DUP1 ISZERO PUSH2 0x15BC JUMP JUMPDEST PUSH1 0x40 MLOAD PUSH4 0x4CF64313 PUSH1 0xE0 SHL DUP2 MSTORE PUSH1 0x4 SWAP1 REVERT JUMPDEST POP PUSH8 0x6765C793FA10079D PUSH1 0x1B SHL PUSH1 0x64 CALLDATALOAD GT PUSH2 0x15AF JUMP JUMPDEST PUSH1 0x40 MLOAD PUSH4 0xC16F3A93 PUSH1 0xE0 SHL DUP2 MSTORE PUSH1 0x4 SWAP1 REVERT JUMPDEST PUSH1 0x40 MLOAD PUSH4 0x47C47A35 PUSH1 0xE0 SHL DUP2 MSTORE PUSH1 0x4 SWAP1 REVERT JUMPDEST PUSH1 0x40 MLOAD PUSH4 0x1DD59AAB PUSH1 0xE3 SHL DUP2 MSTORE PUSH1 0x4 SWAP1 REVERT JUMPDEST PUSH1 0x40 MLOAD PUSH4 0x57E4EB09 PUSH1 0xE0 SHL DUP2 MSTORE PUSH1 0x4 SWAP1 REVERT JUMPDEST PUSH1 0x40 MLOAD PUSH4 0xB6160B9B PUSH1 0xE0 SHL DUP2 MSTORE PUSH1 0x4 SWAP1 REVERT JUMPDEST PUSH1 0x40 MLOAD PUSH4 0x9550C77 PUSH1 0xE0 SHL DUP2 MSTORE PUSH1 0x4 SWAP1 REVERT JUMPDEST POP CALLVALUE PUSH2 0x3A7 JUMPI PUSH2 0x213A CALLDATASIZE PUSH2 0x37A9 JUMP JUMPDEST PUSH2 0x2142 PUSH2 0x41A2 JUMP JUMPDEST DUP1 SELFBALANCE GT PUSH0 EQ PUSH2 0x21BF JUMPI PUSH2 0x2155 SWAP1 SELFBALANCE PUSH2 0x3A99 JUMP JUMPDEST DUP2 GT PUSH2 0x21AD JUMPI PUSH1 0x1 DUP1 PUSH1 0xA0 SHL SUB DUP3 DUP1 DUP1 DUP1 DUP6 DUP6 DUP3 SLOAD AND GAS CALL PUSH2 0x2175 PUSH2 0x3B7D JUMP JUMPDEST POP ISZERO PUSH2 0xAC6 JUMPI PUSH1 0x20 PUSH32 0x4A6188559939E4EE223B5F2A5B165B7AEA756E7765CE9C3A41EE92E8BFE7BCF8 SWAP2 DUP5 SLOAD AND SWAP3 PUSH1 0x40 MLOAD SWAP1 DUP2 MSTORE LOG2 DUP1 RETURN JUMPDEST PUSH1 0x40 MLOAD PUSH4 0x1A82A05D PUSH1 0xE1 SHL DUP2 MSTORE PUSH1 0x4 SWAP1 REVERT JUMPDEST POP DUP2 PUSH2 0x2155 JUMP JUMPDEST POP CALLVALUE PUSH2 0x3A7 JUMPI DUP1 PUSH1 0x3 NOT CALLDATASIZE ADD SLT PUSH2 0x3A7 JUMPI PUSH1 0x20 PUSH1 0x40 MLOAD PUSH2 0x7D0 DUP2 MSTORE RETURN JUMPDEST POP CALLVALUE PUSH2 0x3A7 JUMPI PUSH1 0x20 CALLDATASIZE PUSH1 0x3 NOT ADD SLT PUSH2 0x3A7 JUMPI PUSH1 0x20 SWAP1 PUSH1 0x1 PUSH1 0x1 PUSH1 0xA0 SHL SUB SWAP1 PUSH1 0x40 SWAP1 DUP3 PUSH2 0x220D PUSH2 0x377D JUMP JUMPDEST AND DUP2 MSTORE PUSH1 0x10 DUP5 MSTORE KECCAK256 SLOAD AND PUSH1 0x40 MLOAD SWAP1 DUP2 MSTORE RETURN JUMPDEST POP PUSH1 0x20 DUP1 PUSH1 0x3 NOT CALLDATASIZE ADD SLT PUSH2 0xB93 JUMPI PUSH2 0x2235 PUSH2 0x377D JUMP JUMPDEST PUSH2 0x223D PUSH2 0x4173 JUMP JUMPDEST PUSH1 0x1 PUSH1 0x1 PUSH1 0xA0 SHL SUB SWAP1 DUP2 AND DUP1 DUP5 MSTORE PUSH1 0x1 DUP4 MSTORE PUSH1 0x40 DUP5 KECCAK256 PUSH1 0x10 DUP2 ADD SLOAD SWAP2 SWAP3 SWAP2 PUSH1 0xFF SWAP1 PUSH1 0x8 SHR DUP2 AND ISZERO PUSH2 0x1065 JUMPI PUSH1 0x17 DUP3 ADD SLOAD TIMESTAMP LT ISZERO PUSH2 0x2703 JUMPI PUSH1 0x18 DUP3 ADD SWAP1 DUP1 DUP3 SLOAD PUSH1 0x8 SHR AND PUSH2 0x26F1 JUMPI CALLVALUE ISZERO PUSH2 0x26DF JUMPI DUP5 DUP8 MSTORE PUSH1 0x13 DUP7 MSTORE DUP1 PUSH1 0x40 DUP9 KECCAK256 SLOAD AND PUSH2 0x26CD JUMPI PUSH1 0x6 DUP4 ADD SWAP1 PUSH2 0x22AC CALLVALUE DUP4 SLOAD PUSH2 0x3A10 JUMP JUMPDEST SWAP3 PUSH1 0x5 DUP6 ADD SWAP4 DUP5 SLOAD LT PUSH2 0x26BB JUMPI DUP7 DUP10 MSTORE PUSH1 0x4 DUP9 MSTORE PUSH1 0x40 DUP10 KECCAK256 CALLER PUSH0 MSTORE DUP9 MSTORE PUSH1 0x40 PUSH0 KECCAK256 SLOAD PUSH1 0x11 DUP7 ADD SLOAD SWAP1 DUP9 DUP12 MSTORE PUSH1 0x5 DUP11 MSTORE PUSH1 0x40 DUP12 KECCAK256 CALLER PUSH0 MSTORE DUP11 MSTORE PUSH1 0x40 PUSH0 KECCAK256 SLOAD SWAP2 PUSH1 0xB DUP9 ADD SLOAD SWAP2 DUP2 PUSH2 0x22FB CALLVALUE DUP4 PUSH2 0x3A10 JUMP JUMPDEST GT PUSH2 0x2692 JUMPI POP POP TIMESTAMP LT SWAP1 DUP2 PUSH2 0x2649 JUMPI JUMPDEST POP PUSH2 0x2623 JUMPI JUMPDEST DUP7 DUP10 MSTORE PUSH1 0x19 DUP9 MSTORE PUSH1 0x40 DUP10 KECCAK256 CALLER PUSH0 MSTORE DUP9 MSTORE DUP2 PUSH1 0x40 PUSH0 KECCAK256 SLOAD AND PUSH2 0x2611 JUMPI DUP7 SWAP3 DUP9 SWAP2 DUP5 DUP12 MSTORE PUSH1 0x18 DUP4 MSTORE PUSH1 0x40 DUP12 KECCAK256 CALLER PUSH0 MSTORE DUP4 MSTORE DUP4 PUSH1 0x40 PUSH0 KECCAK256 SLOAD AND ISZERO DUP1 PUSH2 0x2600 JUMPI JUMPDEST PUSH2 0x25CC JUMPI JUMPDEST DUP5 DUP12 MSTORE PUSH1 0x4 DUP4 MSTORE PUSH1 0x40 DUP12 KECCAK256 CALLER PUSH0 MSTORE DUP4 MSTORE PUSH1 0x40 PUSH0 KECCAK256 PUSH2 0x2372 CALLVALUE DUP3 SLOAD PUSH2 0x3A10 JUMP JUMPDEST SWAP1 SSTORE PUSH2 0x237F CALLVALUE DUP4 SLOAD PUSH2 0x3A10 JUMP JUMPDEST DUP3 SSTORE DUP5 DUP12 MSTORE PUSH1 0x14 DUP4 MSTORE PUSH1 0x40 DUP12 KECCAK256 PUSH2 0x2397 CALLVALUE DUP3 SLOAD PUSH2 0x3A10 JUMP JUMPDEST SWAP1 SSTORE DUP1 SLOAD SWAP4 DUP5 AND ISZERO DUP1 PUSH2 0x25BD JUMPI JUMPDEST PUSH2 0x2580 JUMPI JUMPDEST POP POP POP POP POP PUSH1 0x4 DUP3 ADD SLOAD PUSH2 0x2710 DUP1 DUP3 MUL SWAP2 DUP1 DUP4 DIV DUP3 EQ SWAP1 ISZERO OR ISZERO PUSH2 0x256C JUMPI PUSH2 0xFFFF SWAP1 DUP2 PUSH1 0x13 DUP7 ADD SLOAD AND ADD DUP2 DUP2 GT PUSH2 0x2558 JUMPI PUSH2 0x23E7 SWAP3 SWAP2 AND SWAP1 PUSH2 0x39F2 JUMP JUMPDEST SWAP1 SLOAD DUP1 ISZERO PUSH2 0x2550 JUMPI PUSH2 0xA5A PUSH2 0x23FD SWAP3 CALLVALUE SWAP1 PUSH2 0x39DF JUMP JUMPDEST DUP1 ISZERO PUSH2 0x253E JUMPI PUSH1 0x40 MLOAD PUSH4 0x70A08231 PUSH1 0xE0 SHL DUP2 MSTORE PUSH1 0x4 DUP2 ADD DUP6 SWAP1 MSTORE DUP6 DUP2 PUSH1 0x24 DUP2 DUP9 GAS STATICCALL DUP1 ISZERO PUSH2 0x2533 JUMPI DUP3 SWAP2 DUP9 SWAP2 PUSH2 0x2502 JUMPI JUMPDEST POP LT PUSH2 0x24F0 JUMPI DUP6 SWAP1 DUP5 EXTCODESIZE ISZERO PUSH2 0xB93 JUMPI DUP2 PUSH2 0x245D SWAP2 PUSH1 0x40 MLOAD DUP1 SWAP4 DUP2 SWAP3 PUSH4 0x7F57DA7 PUSH1 0xE1 SHL DUP4 MSTORE CALLER PUSH1 0x4 DUP5 ADD PUSH2 0x3A35 JUMP JUMPDEST SUB DUP2 DUP4 DUP10 GAS CALL DUP1 ISZERO PUSH2 0x24E5 JUMPI PUSH2 0x24CD JUMPI JUMPDEST POP POP PUSH1 0x1 ADD SLOAD AND CALLER EQ PUSH2 0x24BB JUMPI JUMPDEST PUSH32 0x188177A91F9B084DADC3C86215FF29AA75DDAF05ED75983C8C498C40989D58C9 PUSH1 0x40 MLOAD SWAP3 CALLVALUE DUP5 MSTORE CALLER SWAP4 LOG3 PUSH1 0x1 PUSH0 DUP1 MLOAD PUSH1 0x20 PUSH2 0x5A09 DUP4 CODECOPY DUP2 MLOAD SWAP2 MSTORE SSTORE DUP1 RETURN JUMPDEST CALLER DUP4 MSTORE PUSH1 0x7 DUP3 MSTORE TIMESTAMP PUSH1 0x40 DUP5 KECCAK256 SSTORE PUSH2 0x247C JUMP JUMPDEST PUSH2 0x24D6 SWAP1 PUSH2 0x38C8 JUMP JUMPDEST PUSH2 0x24E1 JUMPI DUP5 PUSH0 PUSH2 0x246E JUMP JUMPDEST DUP5 DUP1 REVERT JUMPDEST PUSH1 0x40 MLOAD RETURNDATASIZE DUP5 DUP3 RETURNDATACOPY RETURNDATASIZE SWAP1 REVERT JUMPDEST PUSH1 0x40 MLOAD PUSH4 0xF16517D1 PUSH1 0xE0 SHL DUP2 MSTORE PUSH1 0x4 SWAP1 REVERT JUMPDEST DUP1 SWAP3 POP DUP8 DUP1 SWAP3 POP RETURNDATASIZE DUP4 GT PUSH2 0x252C JUMPI JUMPDEST PUSH2 0x251B DUP2 DUP4 PUSH2 0x38F6 JUMP JUMPDEST DUP2 ADD SUB SLT PUSH2 0x121F JUMPI DUP2 SWAP1 MLOAD PUSH0 PUSH2 0x242E JUMP JUMPDEST POP RETURNDATASIZE PUSH2 0x2511 JUMP JUMPDEST PUSH1 0x40 MLOAD RETURNDATASIZE DUP10 DUP3 RETURNDATACOPY RETURNDATASIZE SWAP1 REVERT JUMPDEST PUSH1 0x40 MLOAD PUSH4 0x6989E9D1 PUSH1 0xE1 SHL DUP2 MSTORE PUSH1 0x4 SWAP1 REVERT JUMPDEST POP POP DUP5 PUSH2 0x23FD JUMP JUMPDEST PUSH4 0x4E487B71 PUSH1 0xE0 SHL DUP10 MSTORE PUSH1 0x11 PUSH1 0x4 MSTORE PUSH1 0x24 DUP10 REVERT JUMPDEST PUSH4 0x4E487B71 PUSH1 0xE0 SHL DUP9 MSTORE PUSH1 0x11 PUSH1 0x4 MSTORE PUSH1 0x24 DUP9 REVERT JUMPDEST PUSH1 0x1 PUSH32 0x127A0D60B64E68D983855C4D67E59AAB432C3FDED72F4317958B05A2EB1DBE0F SWAP5 PUSH1 0xFF NOT AND OR SWAP1 SSTORE SLOAD PUSH1 0x40 MLOAD SWAP1 DUP2 MSTORE LOG2 DUP4 PUSH0 DUP7 DUP2 DUP1 PUSH2 0x23AA JUMP JUMPDEST POP DUP2 SLOAD PUSH1 0x16 DUP9 ADD SLOAD GT ISZERO PUSH2 0x23A5 JUMP JUMPDEST DUP5 DUP12 MSTORE PUSH1 0x18 DUP4 MSTORE PUSH1 0x40 DUP12 KECCAK256 CALLER PUSH0 MSTORE DUP4 MSTORE PUSH1 0x40 PUSH0 KECCAK256 PUSH1 0x1 PUSH1 0xFF NOT DUP3 SLOAD AND OR SWAP1 SSTORE PUSH1 0x12 DUP8 ADD PUSH2 0x25F9 DUP2 SLOAD PUSH2 0x3F0E JUMP JUMPDEST SWAP1 SSTORE PUSH2 0x2353 JUMP JUMPDEST POP PUSH7 0x2386F26FC10000 CALLVALUE LT ISZERO PUSH2 0x234E JUMP JUMPDEST PUSH1 0x40 MLOAD PUSH4 0xA5BAF151 PUSH1 0xE0 SHL DUP2 MSTORE PUSH1 0x4 SWAP1 REVERT JUMPDEST DUP7 DUP10 MSTORE PUSH1 0x5 DUP9 MSTORE PUSH1 0x40 DUP10 KECCAK256 CALLER PUSH0 MSTORE DUP9 MSTORE PUSH1 0x40 PUSH0 KECCAK256 PUSH2 0x2642 CALLVALUE DUP3 SLOAD PUSH2 0x3A10 JUMP JUMPDEST SWAP1 SSTORE PUSH2 0x2311 JUMP JUMPDEST PUSH8 0x6F05B59D3B20000 SWAP1 DUP2 PUSH2 0x265E CALLVALUE DUP4 PUSH2 0x3A10 JUMP JUMPDEST GT PUSH2 0x2669 JUMPI POP PUSH2 0x230B JUMP JUMPDEST SWAP1 PUSH2 0x2677 PUSH1 0x44 SWAP3 CALLVALUE SWAP1 PUSH2 0x3A10 JUMP JUMPDEST SWAP1 PUSH1 0x40 MLOAD SWAP2 PUSH4 0x7A0FDA05 PUSH1 0xE1 SHL DUP4 MSTORE PUSH1 0x4 DUP4 ADD MSTORE PUSH1 0x24 DUP3 ADD MSTORE REVERT JUMPDEST SWAP1 PUSH2 0x26A0 PUSH1 0x44 SWAP3 CALLVALUE SWAP1 PUSH2 0x3A10 JUMP JUMPDEST SWAP1 PUSH1 0x40 MLOAD SWAP2 PUSH4 0x1F92621 PUSH1 0xE6 SHL DUP4 MSTORE PUSH1 0x4 DUP4 ADD MSTORE PUSH1 0x24 DUP3 ADD MSTORE REVERT JUMPDEST PUSH1 0x40 MLOAD PUSH4 0xBED2E42D PUSH1 0xE0 SHL DUP2 MSTORE PUSH1 0x4 SWAP1 REVERT JUMPDEST PUSH1 0x40 MLOAD PUSH4 0x394FC791 PUSH1 0xE1 SHL DUP2 MSTORE PUSH1 0x4 SWAP1 REVERT JUMPDEST PUSH1 0x40 MLOAD PUSH4 0x1971FBF3 PUSH1 0xE2 SHL DUP2 MSTORE PUSH1 0x4 SWAP1 REVERT JUMPDEST PUSH1 0x40 MLOAD PUSH4 0x1AABE3F3 PUSH1 0xE0 SHL DUP2 MSTORE PUSH1 0x4 SWAP1 REVERT JUMPDEST PUSH1 0x40 MLOAD PUSH4 0x1EB1561F PUSH1 0xE0 SHL DUP2 MSTORE PUSH1 0x4 SWAP1 REVERT JUMPDEST POP CALLVALUE PUSH2 0x3A7 JUMPI PUSH1 0x40 CALLDATASIZE PUSH1 0x3 NOT ADD SLT PUSH2 0x3A7 JUMPI PUSH2 0x272F PUSH2 0x377D JUMP JUMPDEST PUSH1 0x24 CALLDATALOAD PUSH1 0x1 PUSH1 0x1 PUSH1 0x40 SHL SUB DUP2 GT PUSH2 0x1FB8 JUMPI PUSH2 0x274E SWAP1 CALLDATASIZE SWAP1 PUSH1 0x4 ADD PUSH2 0x384D JUMP JUMPDEST SWAP1 SWAP2 PUSH2 0x2758 PUSH2 0x41A2 JUMP JUMPDEST PUSH1 0x1 PUSH1 0x1 PUSH1 0xA0 SHL SUB AND SWAP2 DUP3 ISZERO PUSH2 0x414 JUMPI DUP3 DUP5 MSTORE PUSH1 0xA PUSH1 0x20 MSTORE PUSH1 0xFF PUSH1 0x40 DUP6 KECCAK256 SLOAD AND PUSH2 0x2119 JUMPI PUSH0 DUP1 MLOAD PUSH1 0x20 PUSH2 0x59C9 DUP4 CODECOPY DUP2 MLOAD SWAP2 MSTORE SWAP2 DUP4 DUP6 MSTORE PUSH1 0xA PUSH1 0x20 MSTORE PUSH1 0x40 DUP6 KECCAK256 PUSH1 0x1 PUSH1 0xFF NOT DUP3 SLOAD AND OR SWAP1 SSTORE PUSH2 0xD5C PUSH1 0x40 MLOAD SWAP3 DUP4 SWAP3 PUSH1 0x20 DUP5 MSTORE PUSH1 0x20 DUP5 ADD SWAP2 PUSH2 0x3EEE JUMP JUMPDEST POP CALLVALUE PUSH2 0x3A7 JUMPI DUP1 PUSH1 0x3 NOT CALLDATASIZE ADD SLT PUSH2 0x3A7 JUMPI PUSH2 0x27D2 PUSH2 0x41A2 JUMP JUMPDEST PUSH0 DUP1 SLOAD PUSH1 0x1 PUSH1 0x1 PUSH1 0xA0 SHL SUB NOT DUP2 AND DUP3 SSTORE PUSH1 0x1 PUSH1 0x1 PUSH1 0xA0 SHL SUB AND PUSH0 DUP1 MLOAD PUSH1 0x20 PUSH2 0x59A9 DUP4 CODECOPY DUP2 MLOAD SWAP2 MSTORE DUP3 DUP1 LOG3 DUP1 RETURN JUMPDEST POP CALLVALUE PUSH2 0x3A7 JUMPI DUP1 PUSH1 0x3 NOT CALLDATASIZE ADD SLT PUSH2 0x3A7 JUMPI PUSH1 0x20 PUSH1 0x40 MLOAD PUSH1 0x5A DUP2 MSTORE RETURN JUMPDEST POP CALLVALUE PUSH2 0x3A7 JUMPI DUP1 PUSH1 0x3 NOT CALLDATASIZE ADD SLT PUSH2 0x3A7 JUMPI PUSH1 0x20 PUSH1 0x40 MLOAD PUSH1 0xA DUP2 MSTORE RETURN JUMPDEST POP CALLVALUE PUSH2 0x3A7 JUMPI PUSH1 0x20 CALLDATASIZE PUSH1 0x3 NOT ADD SLT PUSH2 0x3A7 JUMPI PUSH1 0x4 CALLDATALOAD SWAP1 PUSH1 0x2 SLOAD DUP3 LT ISZERO PUSH2 0x3A7 JUMPI PUSH1 0x20 PUSH2 0x2862 DUP4 PUSH2 0x380C JUMP JUMPDEST SWAP1 SLOAD PUSH1 0x40 MLOAD PUSH1 0x3 SWAP3 SWAP1 SWAP3 SHL SHR PUSH1 0x1 PUSH1 0x1 PUSH1 0xA0 SHL SUB AND DUP2 MSTORE RETURN JUMPDEST POP CALLVALUE PUSH2 0x3A7 JUMPI DUP1 PUSH1 0x3 NOT CALLDATASIZE ADD SLT PUSH2 0x3A7 JUMPI PUSH1 0xE SLOAD PUSH1 0x40 MLOAD PUSH1 0x1 PUSH1 0x1 PUSH1 0xA0 SHL SUB SWAP1 SWAP2 AND DUP2 MSTORE PUSH1 0x20 SWAP1 RETURN JUMPDEST POP CALLVALUE PUSH2 0x3A7 JUMPI PUSH1 0x20 CALLDATASIZE PUSH1 0x3 NOT ADD SLT PUSH2 0x3A7 JUMPI PUSH1 0x20 SWAP1 PUSH1 0xFF SWAP1 PUSH1 0x10 SWAP1 PUSH1 0x40 SWAP1 PUSH1 0x1 PUSH1 0x1 PUSH1 0xA0 SHL SUB PUSH2 0x28D2 PUSH2 0x377D JUMP JUMPDEST AND DUP2 MSTORE PUSH1 0x1 DUP6 MSTORE KECCAK256 ADD SLOAD AND PUSH1 0x40 MLOAD SWAP1 DUP2 MSTORE RETURN JUMPDEST POP CALLVALUE PUSH2 0x3A7 JUMPI PUSH1 0x20 CALLDATASIZE PUSH1 0x3 NOT ADD SLT PUSH2 0x3A7 JUMPI PUSH1 0x20 SWAP1 PUSH1 0x40 SWAP1 PUSH1 0x1 PUSH1 0x1 PUSH1 0xA0 SHL SUB PUSH2 0x290D PUSH2 0x377D JUMP JUMPDEST AND DUP2 MSTORE PUSH1 0x17 DUP4 MSTORE KECCAK256 SLOAD PUSH1 0x40 MLOAD SWAP1 DUP2 MSTORE RETURN JUMPDEST POP CALLVALUE PUSH2 0x3A7 JUMPI PUSH1 0x20 CALLDATASIZE PUSH1 0x3 NOT ADD SLT PUSH2 0x3A7 JUMPI PUSH1 0x20 SWAP1 PUSH1 0xFF SWAP1 PUSH1 0x40 SWAP1 PUSH1 0x1 PUSH1 0x1 PUSH1 0xA0 SHL SUB PUSH2 0x2949 PUSH2 0x377D JUMP JUMPDEST AND DUP2 MSTORE PUSH1 0x13 DUP5 MSTORE KECCAK256 SLOAD AND PUSH1 0x40 MLOAD SWAP1 ISZERO ISZERO DUP2 MSTORE RETURN JUMPDEST POP CALLVALUE PUSH2 0x3A7 JUMPI DUP1 PUSH1 0x3 NOT CALLDATASIZE ADD SLT PUSH2 0x3A7 JUMPI PUSH1 0x20 PUSH1 0x40 MLOAD PUSH1 0xC8 DUP2 MSTORE RETURN JUMPDEST POP CALLVALUE PUSH2 0x3A7 JUMPI DUP1 PUSH1 0x3 NOT CALLDATASIZE ADD SLT PUSH2 0x3A7 JUMPI PUSH1 0x20 PUSH1 0x40 MLOAD PUSH2 0xBB8 DUP2 MSTORE RETURN JUMPDEST POP CALLVALUE PUSH2 0x3A7 JUMPI PUSH1 0x20 CALLDATASIZE PUSH1 0x3 NOT ADD SLT PUSH2 0x3A7 JUMPI PUSH2 0x29B0 PUSH2 0x377D JUMP JUMPDEST PUSH2 0x29B8 PUSH2 0x41A2 JUMP JUMPDEST PUSH1 0x1 PUSH1 0x1 PUSH1 0xA0 SHL SUB AND DUP1 DUP3 MSTORE PUSH1 0xA PUSH1 0x20 MSTORE PUSH1 0x40 DUP3 KECCAK256 SLOAD PUSH1 0xFF AND ISZERO PUSH2 0x2119 JUMPI DUP2 MSTORE PUSH1 0xA PUSH1 0x20 MSTORE PUSH1 0x40 DUP2 KECCAK256 DUP1 SLOAD PUSH1 0xFF NOT AND SWAP1 SSTORE DUP1 RETURN JUMPDEST POP CALLVALUE PUSH2 0x121F JUMPI PUSH1 0x20 CALLDATASIZE PUSH1 0x3 NOT ADD SLT PUSH2 0x121F JUMPI PUSH2 0x2A06 PUSH2 0x377D JUMP JUMPDEST PUSH2 0x2A0E PUSH2 0x4173 JUMP JUMPDEST PUSH1 0x1 DUP1 PUSH1 0xA0 SHL SUB SWAP1 DUP2 DUP2 AND PUSH0 MSTORE PUSH1 0x1 PUSH1 0x20 MSTORE PUSH1 0x40 PUSH0 KECCAK256 SWAP2 DUP1 PUSH1 0x1 DUP5 ADD SLOAD AND ISZERO PUSH2 0x2F7A JUMPI DUP1 PUSH1 0xF SLOAD AND ISZERO PUSH2 0x2F68 JUMPI DUP1 DUP3 AND PUSH0 MSTORE PUSH1 0x13 PUSH1 0x20 MSTORE PUSH1 0xFF PUSH1 0x40 PUSH0 KECCAK256 SLOAD AND PUSH2 0x2F56 JUMPI PUSH1 0x6 DUP4 ADD DUP1 SLOAD PUSH1 0x5 DUP6 ADD SLOAD GT DUP1 ISZERO SWAP1 PUSH2 0x2F27 JUMPI JUMPDEST ISZERO PUSH2 0x2F12 JUMPI DUP2 DUP4 AND PUSH0 MSTORE PUSH1 0x13 PUSH1 0x20 MSTORE PUSH1 0x40 PUSH0 KECCAK256 PUSH1 0x1 PUSH1 0xFF NOT DUP3 SLOAD AND OR SWAP1 SSTORE PUSH1 0x15 DUP5 ADD SWAP1 DUP2 SLOAD ISZERO DUP1 PUSH2 0x2F08 JUMPI JUMPDEST PUSH2 0x2ED8 JUMPI JUMPDEST POP POP PUSH1 0x14 DUP4 ADD SLOAD SWAP2 DUP3 ISZERO PUSH2 0x2EC6 JUMPI PUSH1 0x40 MLOAD SWAP3 PUSH4 0x70A08231 PUSH1 0xE0 SHL DUP5 MSTORE DUP3 DUP3 AND PUSH1 0x4 DUP6 ADD MSTORE PUSH1 0x20 DUP5 PUSH1 0x24 DUP2 DUP7 DUP7 AND GAS STATICCALL SWAP4 DUP5 ISZERO PUSH2 0x2E75 JUMPI PUSH0 SWAP5 PUSH2 0x2E92 JUMPI JUMPDEST POP DUP4 ISZERO PUSH2 0x2E80 JUMPI DUP3 DUP3 AND EXTCODESIZE ISZERO PUSH2 0x121F JUMPI PUSH1 0x40 MLOAD PUSH4 0x7F57DA7 PUSH1 0xE1 SHL DUP2 MSTORE PUSH0 DUP2 DUP1 PUSH2 0x2B01 DUP9 ADDRESS PUSH1 0x4 DUP5 ADD PUSH2 0x3A35 JUMP JUMPDEST SUB DUP2 DUP4 DUP9 DUP9 AND GAS CALL DUP1 ISZERO PUSH2 0x2E75 JUMPI PUSH2 0x2E62 JUMPI JUMPDEST POP PUSH2 0x2B3B PUSH1 0x20 DUP6 DUP6 PUSH1 0xF SLOAD AND PUSH1 0x40 MLOAD SWAP4 DUP5 SWAP3 DUP4 SWAP3 PUSH4 0x95EA7B3 PUSH1 0xE0 SHL DUP5 MSTORE PUSH1 0x4 DUP5 ADD PUSH2 0x3A35 JUMP JUMPDEST SUB DUP2 DUP11 DUP9 DUP9 AND GAS CALL DUP1 ISZERO PUSH2 0x2533 JUMPI PUSH2 0x2E33 JUMPI JUMPDEST POP PUSH1 0x5F DUP5 MUL DUP5 DUP2 DIV PUSH1 0x5F SUB PUSH2 0xB3F JUMPI PUSH1 0x5F DUP3 MUL SWAP1 DUP3 DUP3 DIV PUSH1 0x5F SUB PUSH2 0x256C JUMPI DUP5 PUSH1 0xF SLOAD AND SWAP2 PUSH2 0x12C TIMESTAMP ADD SWAP2 DUP3 TIMESTAMP GT PUSH2 0x2E1F JUMPI DUP5 PUSH1 0x60 SWAP5 DUP9 SWAP5 PUSH1 0x64 PUSH1 0xC4 SWAP6 DUP2 DUP12 SWAP7 PUSH1 0x40 MLOAD SWAP15 DUP16 SWAP11 DUP12 SWAP10 PUSH4 0xF305D719 PUSH1 0xE0 SHL DUP12 MSTORE AND PUSH1 0x4 DUP11 ADD MSTORE PUSH1 0x24 DUP10 ADD MSTORE DIV PUSH1 0x44 DUP8 ADD MSTORE DIV PUSH1 0x64 DUP6 ADD MSTORE ADDRESS PUSH1 0x84 DUP6 ADD MSTORE PUSH1 0xA4 DUP5 ADD MSTORE GAS CALL SWAP1 DUP2 ISZERO PUSH2 0x2E14 JUMPI DUP7 SWAP1 DUP8 SWAP6 DUP9 SWAP4 PUSH2 0x2DCE JUMPI JUMPDEST POP PUSH1 0xF SLOAD PUSH1 0x40 MLOAD PUSH4 0xC45A0155 PUSH1 0xE0 SHL DUP2 MSTORE SWAP8 SWAP1 DUP7 AND PUSH1 0x20 DUP10 PUSH1 0x4 DUP2 DUP5 GAS STATICCALL SWAP9 DUP10 ISZERO PUSH2 0x2D9E JUMPI DUP11 SWAP10 PUSH2 0x2DA9 JUMPI JUMPDEST POP PUSH1 0x20 PUSH1 0x4 SWAP2 PUSH1 0x40 MLOAD SWAP3 DUP4 DUP1 SWAP3 PUSH4 0x15AB88C9 PUSH1 0xE3 SHL DUP3 MSTORE GAS STATICCALL DUP1 ISZERO PUSH2 0x2D9E JUMPI PUSH1 0x44 DUP9 SWAP2 PUSH1 0x20 SWAP4 DUP14 SWAP2 PUSH2 0x2D81 JUMPI JUMPDEST POP PUSH1 0x40 MLOAD PUSH4 0xE6A43905 PUSH1 0xE0 SHL DUP2 MSTORE DUP10 DUP5 AND PUSH1 0x4 DUP3 ADD MSTORE SWAP1 DUP4 AND PUSH1 0x24 DUP3 ADD MSTORE SWAP11 DUP12 SWAP3 DUP4 SWAP2 AND GAS STATICCALL SWAP8 DUP9 ISZERO PUSH2 0x2D76 JUMPI DUP10 SWAP9 PUSH2 0x2D42 JUMPI JUMPDEST POP DUP5 DUP7 AND DUP10 MSTORE PUSH1 0x10 PUSH1 0x20 SWAP1 DUP2 MSTORE PUSH1 0x40 DUP1 DUP12 KECCAK256 DUP1 SLOAD PUSH1 0x1 PUSH1 0x1 PUSH1 0xA0 SHL SUB NOT AND SWAP11 DUP10 AND SWAP11 DUP12 OR SWAP1 SSTORE PUSH1 0x11 SWAP1 SWAP2 MSTORE DUP10 KECCAK256 DUP5 SWAP1 SSTORE PUSH1 0x7 ADD SLOAD PUSH3 0x15180 DUP1 DUP3 MUL SWAP2 DUP1 ISZERO SWAP1 DUP4 DIV SWAP1 SWAP2 EQ OR ISZERO PUSH2 0x2558 JUMPI SWAP2 PUSH32 0x4A1A2A6176E9646D9E3157F7C2AB3C499F18337C0B0828CFB28E0A61DE4A11F7 SWAP6 SWAP5 SWAP4 SWAP2 PUSH2 0x2CDF PUSH2 0x2D25 SWAP5 TIMESTAMP PUSH2 0x3A10 JUMP JUMPDEST DUP6 DUP8 AND DUP12 MSTORE PUSH1 0x12 PUSH1 0x20 MSTORE PUSH1 0x40 DUP12 KECCAK256 SSTORE DUP8 LT ISZERO PUSH2 0x2D3C JUMPI PUSH1 0x14 PUSH1 0x20 MSTORE PUSH2 0x2D08 DUP8 PUSH1 0x40 DUP12 KECCAK256 SLOAD PUSH2 0x3A99 JUMP JUMPDEST DUP6 DUP6 AND DUP11 MSTORE PUSH1 0x14 PUSH1 0x20 MSTORE PUSH1 0x40 DUP11 KECCAK256 SSTORE PUSH1 0x40 MLOAD SWAP5 DUP6 SWAP5 AND SWAP7 DUP5 PUSH2 0x387A JUMP JUMPDEST SUB SWAP1 LOG3 PUSH1 0x1 PUSH0 DUP1 MLOAD PUSH1 0x20 PUSH2 0x5A09 DUP4 CODECOPY DUP2 MLOAD SWAP2 MSTORE SSTORE DUP1 RETURN JUMPDEST DUP9 PUSH2 0x2D08 JUMP JUMPDEST PUSH1 0x7 SWAP2 SWAP9 POP PUSH2 0x2D68 SWAP1 PUSH1 0x20 RETURNDATASIZE PUSH1 0x20 GT PUSH2 0x2D6F JUMPI JUMPDEST PUSH2 0x2D60 DUP2 DUP4 PUSH2 0x38F6 JUMP JUMPDEST DUP2 ADD SWAP1 PUSH2 0x3ECF JUMP JUMPDEST SWAP8 SWAP1 PUSH2 0x2C62 JUMP JUMPDEST POP RETURNDATASIZE PUSH2 0x2D56 JUMP JUMPDEST PUSH1 0x40 MLOAD RETURNDATASIZE DUP12 DUP3 RETURNDATACOPY RETURNDATASIZE SWAP1 REVERT JUMPDEST PUSH2 0x2D98 SWAP2 POP DUP5 RETURNDATASIZE DUP7 GT PUSH2 0x2D6F JUMPI PUSH2 0x2D60 DUP2 DUP4 PUSH2 0x38F6 JUMP JUMPDEST PUSH0 PUSH2 0x2C2E JUMP JUMPDEST PUSH1 0x40 MLOAD RETURNDATASIZE DUP13 DUP3 RETURNDATACOPY RETURNDATASIZE SWAP1 REVERT JUMPDEST PUSH1 0x4 SWAP2 SWAP10 POP PUSH2 0x2DC6 PUSH1 0x20 SWAP2 DUP3 RETURNDATASIZE DUP5 GT PUSH2 0x2D6F JUMPI PUSH2 0x2D60 DUP2 DUP4 PUSH2 0x38F6 JUMP JUMPDEST SWAP10 SWAP2 POP PUSH2 0x2C01 JUMP JUMPDEST SWAP6 POP SWAP2 POP POP PUSH1 0x60 DUP5 RETURNDATASIZE PUSH1 0x60 GT PUSH2 0x2E0C JUMPI JUMPDEST DUP2 PUSH2 0x2DEC PUSH1 0x60 SWAP4 DUP4 PUSH2 0x38F6 JUMP JUMPDEST DUP2 ADD SUB SLT PUSH2 0x2E08 JUMPI DUP4 MLOAD PUSH1 0x20 DUP6 ADD MLOAD PUSH1 0x40 SWAP1 SWAP6 ADD MLOAD SWAP2 PUSH0 PUSH2 0x2BD5 JUMP JUMPDEST DUP6 DUP1 REVERT JUMPDEST RETURNDATASIZE SWAP2 POP PUSH2 0x2DDF JUMP JUMPDEST PUSH1 0x40 MLOAD RETURNDATASIZE DUP9 DUP3 RETURNDATACOPY RETURNDATASIZE SWAP1 REVERT JUMPDEST PUSH4 0x4E487B71 PUSH1 0xE0 SHL DUP11 MSTORE PUSH1 0x11 PUSH1 0x4 MSTORE PUSH1 0x24 DUP11 REVERT JUMPDEST PUSH2 0x2E54 SWAP1 PUSH1 0x20 RETURNDATASIZE PUSH1 0x20 GT PUSH2 0x2E5B JUMPI JUMPDEST PUSH2 0x2E4C DUP2 DUP4 PUSH2 0x38F6 JUMP JUMPDEST DUP2 ADD SWAP1 PUSH2 0x3A1D JUMP JUMPDEST POP PUSH0 PUSH2 0x2B4E JUMP JUMPDEST POP RETURNDATASIZE PUSH2 0x2E42 JUMP JUMPDEST PUSH2 0x2E6D SWAP2 SWAP7 POP PUSH2 0x38C8 JUMP JUMPDEST PUSH0 SWAP5 PUSH0 PUSH2 0x2B14 JUMP JUMPDEST PUSH1 0x40 MLOAD RETURNDATASIZE PUSH0 DUP3 RETURNDATACOPY RETURNDATASIZE SWAP1 REVERT JUMPDEST PUSH1 0x40 MLOAD PUSH4 0xC4961DD1 PUSH1 0xE0 SHL DUP2 MSTORE PUSH1 0x4 SWAP1 REVERT JUMPDEST SWAP1 SWAP4 POP PUSH1 0x20 DUP2 RETURNDATASIZE PUSH1 0x20 GT PUSH2 0x2EBE JUMPI JUMPDEST DUP2 PUSH2 0x2EAE PUSH1 0x20 SWAP4 DUP4 PUSH2 0x38F6 JUMP JUMPDEST DUP2 ADD SUB SLT PUSH2 0x121F JUMPI MLOAD SWAP3 PUSH0 PUSH2 0x2AD3 JUMP JUMPDEST RETURNDATASIZE SWAP2 POP PUSH2 0x2EA1 JUMP JUMPDEST PUSH1 0x40 MLOAD PUSH4 0xF727CDC3 PUSH1 0xE0 SHL DUP2 MSTORE PUSH1 0x4 SWAP1 REVERT JUMPDEST PUSH2 0x2EFF SWAP1 SLOAD PUSH2 0x2710 PUSH2 0x2EF2 PUSH2 0xFFFF PUSH1 0x13 DUP10 ADD SLOAD AND DUP4 PUSH2 0x39DF JUMP JUMPDEST DIV SWAP1 DUP2 PUSH1 0x14 DUP9 ADD SSTORE PUSH2 0x3A99 JUMP JUMPDEST SWAP1 SSTORE PUSH0 DUP1 PUSH2 0x2A96 JUMP JUMPDEST POP DUP1 SLOAD ISZERO ISZERO PUSH2 0x2A91 JUMP JUMPDEST PUSH1 0x40 MLOAD PUSH1 0x1 PUSH3 0xB806B PUSH1 0xE2 SHL SUB NOT DUP2 MSTORE PUSH1 0x4 SWAP1 REVERT JUMPDEST POP PUSH1 0xA DUP5 ADD SLOAD PUSH3 0x278D00 DUP2 ADD DUP1 SWAP2 GT PUSH2 0x2F42 JUMPI TIMESTAMP LT ISZERO PUSH2 0x2A65 JUMP JUMPDEST PUSH4 0x4E487B71 PUSH1 0xE0 SHL PUSH0 MSTORE PUSH1 0x11 PUSH1 0x4 MSTORE PUSH1 0x24 PUSH0 REVERT JUMPDEST PUSH1 0x40 MLOAD PUSH4 0xFD02B6D PUSH1 0xE4 SHL DUP2 MSTORE PUSH1 0x4 SWAP1 REVERT JUMPDEST PUSH1 0x40 MLOAD PUSH4 0x179CE99F PUSH1 0xE0 SHL DUP2 MSTORE PUSH1 0x4 SWAP1 REVERT JUMPDEST PUSH1 0x40 MLOAD PUSH4 0xCBDB7B3 PUSH1 0xE4 SHL DUP2 MSTORE PUSH1 0x4 SWAP1 REVERT JUMPDEST CALLVALUE PUSH2 0x121F JUMPI PUSH0 CALLDATASIZE PUSH1 0x3 NOT ADD SLT PUSH2 0x121F JUMPI PUSH1 0x20 PUSH1 0x40 MLOAD PUSH1 0xB4 DUP2 MSTORE RETURN JUMPDEST CALLVALUE PUSH2 0x121F JUMPI PUSH1 0x20 CALLDATASIZE PUSH1 0x3 NOT ADD SLT PUSH2 0x121F JUMPI PUSH2 0x2FC0 PUSH2 0x377D JUMP JUMPDEST PUSH2 0x2FC8 PUSH2 0x41A2 JUMP JUMPDEST PUSH1 0x1 PUSH1 0x1 PUSH1 0xA0 SHL SUB AND DUP1 ISZERO PUSH2 0x414 JUMPI PUSH1 0x8 DUP1 SLOAD PUSH1 0x1 PUSH1 0x1 PUSH1 0xA0 SHL SUB NOT AND DUP3 OR SWAP1 SSTORE PUSH32 0xD24015CC99CC1700CAFCA3042840A1D8AC1E3964FD2E0E37EA29C654056EE327 PUSH0 DUP1 LOG2 STOP JUMPDEST CALLVALUE PUSH2 0x121F JUMPI PUSH1 0x20 CALLDATASIZE PUSH1 0x3 NOT ADD SLT PUSH2 0x121F JUMPI PUSH32 0xC799BE5EB19A1A6D6BA7368D21E2BC367C8A335E4A07CD3D954482E6F714D3C5 PUSH1 0x20 PUSH1 0x4 CALLDATALOAD PUSH2 0x304E PUSH2 0x41A2 JUMP JUMPDEST DUP1 PUSH1 0xB SSTORE PUSH1 0x40 MLOAD SWAP1 DUP2 MSTORE LOG1 STOP JUMPDEST CALLVALUE PUSH2 0x121F JUMPI PUSH0 CALLDATASIZE PUSH1 0x3 NOT ADD SLT PUSH2 0x121F JUMPI PUSH1 0x20 PUSH1 0x40 MLOAD PUSH2 0x1388 DUP2 MSTORE RETURN JUMPDEST CALLVALUE PUSH2 0x121F JUMPI PUSH1 0x20 CALLDATASIZE PUSH1 0x3 NOT ADD SLT PUSH2 0x121F JUMPI PUSH2 0x30A0 PUSH2 0x3093 PUSH2 0x377D JUMP JUMPDEST PUSH2 0x309B PUSH2 0x4173 JUMP JUMPDEST PUSH2 0x3BAC JUMP JUMPDEST PUSH1 0x1 PUSH0 DUP1 MLOAD PUSH1 0x20 PUSH2 0x5A09 DUP4 CODECOPY DUP2 MLOAD SWAP2 MSTORE SSTORE STOP JUMPDEST CALLVALUE PUSH2 0x121F JUMPI PUSH0 CALLDATASIZE PUSH1 0x3 NOT ADD SLT PUSH2 0x121F JUMPI PUSH1 0x20 PUSH1 0x40 MLOAD PUSH1 0x5 DUP2 MSTORE RETURN JUMPDEST CALLVALUE PUSH2 0x121F JUMPI PUSH1 0x40 CALLDATASIZE PUSH1 0x3 NOT ADD SLT PUSH2 0x121F JUMPI PUSH2 0x30E7 PUSH2 0x377D JUMP JUMPDEST PUSH2 0x30EF PUSH2 0x3793 JUMP JUMPDEST SWAP1 PUSH1 0x1 DUP1 PUSH1 0xA0 SHL SUB DUP1 SWAP2 AND PUSH0 MSTORE PUSH1 0x1A PUSH1 0x20 MSTORE PUSH1 0x40 PUSH0 KECCAK256 SWAP2 AND PUSH0 MSTORE PUSH1 0x20 MSTORE PUSH1 0x20 PUSH1 0x40 PUSH0 KECCAK256 SLOAD PUSH1 0x40 MLOAD SWAP1 DUP2 MSTORE RETURN JUMPDEST CALLVALUE PUSH2 0x121F JUMPI PUSH1 0x20 CALLDATASIZE PUSH1 0x3 NOT ADD SLT PUSH2 0x121F JUMPI PUSH1 0x1 PUSH1 0x1 PUSH1 0xA0 SHL SUB PUSH2 0x313C PUSH2 0x377D JUMP JUMPDEST AND PUSH0 MSTORE PUSH1 0x1 PUSH1 0x20 MSTORE PUSH1 0x20 PUSH1 0xFF PUSH1 0x10 PUSH1 0x40 PUSH0 KECCAK256 ADD SLOAD PUSH1 0x10 SHR AND PUSH1 0x40 MLOAD SWAP1 ISZERO ISZERO DUP2 MSTORE RETURN JUMPDEST CALLVALUE PUSH2 0x121F JUMPI PUSH1 0x20 CALLDATASIZE PUSH1 0x3 NOT ADD SLT PUSH2 0x121F JUMPI PUSH1 0x1 PUSH1 0x1 PUSH1 0xA0 SHL SUB PUSH2 0x317F PUSH2 0x377D JUMP JUMPDEST AND PUSH0 MSTORE PUSH1 0x14 PUSH1 0x20 MSTORE PUSH1 0x20 PUSH1 0x40 PUSH0 KECCAK256 SLOAD PUSH1 0x40 MLOAD SWAP1 DUP2 MSTORE RETURN JUMPDEST CALLVALUE PUSH2 0x121F JUMPI PUSH2 0x1114 PUSH2 0x31A7 CALLDATASIZE PUSH2 0x37A9 JUMP JUMPDEST SWAP1 PUSH2 0x3ABA JUMP JUMPDEST CALLVALUE PUSH2 0x121F JUMPI PUSH1 0x20 DUP1 PUSH1 0x3 NOT CALLDATASIZE ADD SLT PUSH2 0x121F JUMPI PUSH2 0x31C7 PUSH2 0x377D JUMP JUMPDEST PUSH2 0x31CF PUSH2 0x4173 JUMP JUMPDEST PUSH1 0x1 DUP1 PUSH1 0xA0 SHL SUB DUP1 SWAP2 AND SWAP1 DUP2 PUSH0 MSTORE PUSH1 0x1 DUP4 MSTORE PUSH1 0x1 PUSH1 0x40 PUSH0 KECCAK256 ADD SWAP3 DUP2 DUP5 SLOAD AND CALLER SUB PUSH2 0x32FE JUMPI DUP3 PUSH0 MSTORE PUSH1 0x13 DUP2 MSTORE PUSH1 0xFF PUSH1 0x40 PUSH0 KECCAK256 SLOAD AND ISZERO PUSH2 0x2F12 JUMPI DUP3 PUSH0 MSTORE PUSH1 0x12 DUP2 MSTORE PUSH1 0x40 PUSH0 KECCAK256 SLOAD TIMESTAMP LT PUSH2 0x32EC JUMPI DUP3 PUSH0 MSTORE PUSH1 0x11 DUP2 MSTORE PUSH1 0x40 PUSH0 KECCAK256 SLOAD ISZERO PUSH2 0x32DA JUMPI PUSH2 0x326D SWAP2 DUP4 PUSH0 MSTORE PUSH1 0x11 DUP3 MSTORE PUSH1 0x40 PUSH0 KECCAK256 SWAP5 PUSH0 DUP7 SLOAD SWAP7 SSTORE PUSH1 0x10 DUP4 MSTORE DUP3 DUP7 DUP4 PUSH1 0x40 PUSH0 KECCAK256 SLOAD AND DUP5 DUP5 SLOAD AND PUSH0 PUSH1 0x40 MLOAD DUP1 SWAP10 DUP2 SWAP6 DUP3 SWAP5 PUSH4 0xA9059CBB PUSH1 0xE0 SHL DUP5 MSTORE PUSH1 0x4 DUP5 ADD PUSH2 0x3A35 JUMP JUMPDEST SUB SWAP3 GAS CALL SWAP4 DUP5 ISZERO PUSH2 0x2E75 JUMPI PUSH32 0x9796B9C1E41A3A5ADFE8C1B43D4FA0FAB73B8C65C99F99EAD85E6405E74F284E SWAP5 PUSH2 0x32BD JUMPI JUMPDEST POP SLOAD AND SWAP4 PUSH1 0x40 MLOAD SWAP1 DUP2 MSTORE LOG3 PUSH1 0x1 PUSH0 DUP1 MLOAD PUSH1 0x20 PUSH2 0x5A09 DUP4 CODECOPY DUP2 MLOAD SWAP2 MSTORE SSTORE STOP JUMPDEST PUSH2 0x32D3 SWAP1 DUP5 RETURNDATASIZE DUP7 GT PUSH2 0x2E5B JUMPI PUSH2 0x2E4C DUP2 DUP4 PUSH2 0x38F6 JUMP JUMPDEST POP DUP7 PUSH2 0x329F JUMP JUMPDEST PUSH1 0x40 MLOAD PUSH4 0xC8D9EAB PUSH1 0xE3 SHL DUP2 MSTORE PUSH1 0x4 SWAP1 REVERT JUMPDEST PUSH1 0x40 MLOAD PUSH4 0x4FBAE7A3 PUSH1 0xE0 SHL DUP2 MSTORE PUSH1 0x4 SWAP1 REVERT JUMPDEST PUSH1 0x40 MLOAD PUSH4 0xF53BDA41 PUSH1 0xE0 SHL DUP2 MSTORE PUSH1 0x4 SWAP1 REVERT JUMPDEST CALLVALUE PUSH2 0x121F JUMPI PUSH1 0x20 CALLDATASIZE PUSH1 0x3 NOT ADD SLT PUSH2 0x121F JUMPI PUSH1 0x1 PUSH1 0x1 PUSH1 0xA0 SHL SUB PUSH2 0x3331 PUSH2 0x377D JUMP JUMPDEST AND PUSH0 MSTORE PUSH1 0x11 PUSH1 0x20 MSTORE PUSH1 0x20 PUSH1 0x40 PUSH0 KECCAK256 SLOAD PUSH1 0x40 MLOAD SWAP1 DUP2 MSTORE RETURN JUMPDEST CALLVALUE PUSH2 0x121F JUMPI PUSH0 CALLDATASIZE PUSH1 0x3 NOT ADD SLT PUSH2 0x121F JUMPI PUSH1 0x8 SLOAD PUSH1 0x40 MLOAD PUSH1 0x1 PUSH1 0x1 PUSH1 0xA0 SHL SUB SWAP1 SWAP2 AND DUP2 MSTORE PUSH1 0x20 SWAP1 RETURN JUMPDEST CALLVALUE PUSH2 0x121F JUMPI PUSH1 0x40 CALLDATASIZE PUSH1 0x3 NOT ADD SLT PUSH2 0x121F JUMPI PUSH2 0x3389 PUSH2 0x377D JUMP JUMPDEST PUSH2 0x3391 PUSH2 0x3793 JUMP JUMPDEST SWAP1 PUSH1 0x1 DUP1 PUSH1 0xA0 SHL SUB DUP1 SWAP2 AND PUSH0 MSTORE PUSH1 0x4 PUSH1 0x20 MSTORE PUSH1 0x40 PUSH0 KECCAK256 SWAP2 AND PUSH0 MSTORE PUSH1 0x20 MSTORE PUSH1 0x20 PUSH1 0x40 PUSH0 KECCAK256 SLOAD PUSH1 0x40 MLOAD SWAP1 DUP2 MSTORE RETURN JUMPDEST CALLVALUE PUSH2 0x121F JUMPI PUSH0 CALLDATASIZE PUSH1 0x3 NOT ADD SLT PUSH2 0x121F JUMPI PUSH1 0x20 PUSH1 0x40 MLOAD PUSH1 0x3C DUP2 MSTORE RETURN JUMPDEST CALLVALUE PUSH2 0x121F JUMPI PUSH1 0x20 CALLDATASIZE PUSH1 0x3 NOT ADD SLT PUSH2 0x121F JUMPI PUSH1 0x1 PUSH1 0x1 PUSH1 0xA0 SHL SUB PUSH2 0x33F9 PUSH2 0x377D JUMP JUMPDEST AND PUSH0 MSTORE PUSH1 0x3 PUSH1 0x20 MSTORE PUSH1 0x40 PUSH0 KECCAK256 PUSH1 0x1 PUSH1 0x20 MSTORE PUSH1 0xFF PUSH1 0x10 PUSH1 0x40 PUSH0 KECCAK256 ADD SLOAD PUSH1 0x10 SHR AND DUP1 PUSH2 0x345C JUMPI JUMPDEST DUP1 PUSH2 0x3431 JUMPI JUMPDEST PUSH1 0x20 SWAP1 PUSH1 0x40 MLOAD SWAP1 ISZERO ISZERO DUP2 MSTORE RETURN JUMPDEST POP PUSH1 0x2 PUSH1 0x1 DUP3 ADD SLOAD SWAP2 ADD SLOAD SWAP1 PUSH1 0x33 DUP3 MUL SWAP2 DUP1 DUP4 DIV PUSH1 0x33 EQ SWAP1 ISZERO OR ISZERO PUSH2 0x2F42 JUMPI PUSH1 0x64 PUSH1 0x20 SWAP3 DIV LT PUSH2 0x3424 JUMP JUMPDEST POP PUSH1 0xFF PUSH1 0x3 DUP3 ADD SLOAD AND ISZERO PUSH2 0x341E JUMP JUMPDEST CALLVALUE PUSH2 0x121F JUMPI PUSH0 CALLDATASIZE PUSH1 0x3 NOT ADD SLT PUSH2 0x121F JUMPI PUSH1 0x20 PUSH1 0x40 MLOAD PUSH2 0x7D0 DUP2 MSTORE RETURN JUMPDEST CALLVALUE PUSH2 0x121F JUMPI PUSH1 0x20 CALLDATASIZE PUSH1 0x3 NOT ADD SLT PUSH2 0x121F JUMPI PUSH1 0x1 PUSH1 0x1 PUSH1 0xA0 SHL SUB PUSH2 0x34A8 PUSH2 0x377D JUMP JUMPDEST AND PUSH0 MSTORE PUSH1 0x3 PUSH1 0x20 MSTORE PUSH1 0x80 PUSH1 0x40 PUSH0 KECCAK256 DUP1 SLOAD SWAP1 PUSH1 0x1 DUP2 ADD SLOAD SWAP1 PUSH1 0xFF PUSH1 0x3 PUSH1 0x2 DUP4 ADD SLOAD SWAP3 ADD SLOAD AND SWAP2 PUSH1 0x40 MLOAD SWAP4 DUP5 MSTORE PUSH1 0x20 DUP5 ADD MSTORE PUSH1 0x40 DUP4 ADD MSTORE ISZERO ISZERO PUSH1 0x60 DUP3 ADD MSTORE RETURN JUMPDEST CALLVALUE PUSH2 0x121F JUMPI PUSH1 0x20 CALLDATASIZE PUSH1 0x3 NOT ADD SLT PUSH2 0x121F JUMPI PUSH1 0x1 PUSH1 0x1 PUSH1 0xA0 SHL SUB PUSH2 0x3507 PUSH2 0x377D JUMP JUMPDEST AND PUSH0 MSTORE PUSH1 0x16 PUSH1 0x20 MSTORE PUSH1 0x20 PUSH1 0x40 PUSH0 KECCAK256 SLOAD PUSH1 0x40 MLOAD SWAP1 DUP2 MSTORE RETURN JUMPDEST CALLVALUE PUSH2 0x121F JUMPI PUSH1 0x40 CALLDATASIZE PUSH1 0x3 NOT ADD SLT PUSH2 0x121F JUMPI PUSH2 0x3537 PUSH2 0x377D JUMP JUMPDEST PUSH1 0x24 CALLDATALOAD DUP1 ISZERO ISZERO DUP2 SUB PUSH2 0x121F JUMPI PUSH1 0x1 DUP1 PUSH1 0xA0 SHL SUB DUP3 AND DUP1 PUSH0 MSTORE PUSH1 0x20 SWAP1 PUSH1 0x1 DUP3 MSTORE PUSH1 0x40 PUSH0 KECCAK256 SWAP2 PUSH1 0xFF PUSH1 0x10 DUP5 ADD SLOAD PUSH1 0x10 SHR AND ISZERO PUSH2 0x369B JUMPI DUP2 PUSH0 MSTORE PUSH1 0x3 DUP2 MSTORE PUSH1 0x40 PUSH0 KECCAK256 SWAP2 PUSH1 0x4 DUP4 ADD CALLER PUSH0 MSTORE DUP1 DUP4 MSTORE PUSH1 0xFF PUSH1 0x40 PUSH0 KECCAK256 SLOAD AND PUSH2 0xF2C JUMPI DUP2 PUSH0 MSTORE PUSH1 0x4 DUP4 MSTORE PUSH1 0x40 PUSH0 KECCAK256 CALLER PUSH0 MSTORE DUP4 MSTORE PUSH1 0x40 PUSH0 KECCAK256 SLOAD ISZERO PUSH2 0x3689 JUMPI PUSH1 0xFF PUSH1 0x3 DUP6 ADD SLOAD AND PUSH2 0x3677 JUMPI PUSH1 0x1 SWAP5 PUSH1 0x6 SWAP2 CALLER PUSH0 MSTORE DUP5 MSTORE PUSH1 0x40 PUSH0 KECCAK256 DUP7 PUSH1 0xFF NOT DUP3 SLOAD AND OR SWAP1 SSTORE ADD SLOAD SWAP5 DUP1 DUP7 PUSH1 0x2 DUP7 ADD SSTORE PUSH2 0x364D JUMPI JUMPDEST ISZERO PUSH2 0x3638 JUMPI DUP1 PUSH0 MSTORE PUSH1 0x4 DUP3 MSTORE PUSH1 0x40 PUSH0 KECCAK256 CALLER PUSH0 MSTORE DUP3 MSTORE PUSH0 DUP1 MLOAD PUSH1 0x20 PUSH2 0x59E9 DUP4 CODECOPY DUP2 MLOAD SWAP2 MSTORE PUSH1 0x40 PUSH0 KECCAK256 SLOAD SWAP3 JUMPDEST PUSH1 0x40 MLOAD SWAP4 DUP5 MSTORE CALLER SWAP4 LOG3 ADD SLOAD SWAP1 PUSH1 0x33 DUP2 MUL SWAP1 DUP1 DUP3 DIV PUSH1 0x33 EQ SWAP1 ISZERO OR ISZERO PUSH2 0x2F42 JUMPI PUSH1 0x64 SWAP1 DIV LT PUSH2 0x362F JUMPI STOP JUMPDEST PUSH2 0x1B SWAP1 PUSH2 0x4021 JUMP JUMPDEST PUSH0 DUP1 MLOAD PUSH1 0x20 PUSH2 0x59E9 DUP4 CODECOPY DUP2 MLOAD SWAP2 MSTORE PUSH0 SWAP3 PUSH2 0x3605 JUMP JUMPDEST DUP2 PUSH0 MSTORE PUSH1 0x4 DUP4 MSTORE PUSH1 0x40 PUSH0 KECCAK256 CALLER PUSH0 MSTORE DUP4 MSTORE PUSH1 0x40 PUSH0 KECCAK256 SLOAD PUSH2 0x3670 DUP7 DUP7 ADD SWAP2 DUP3 SLOAD PUSH2 0x3A10 JUMP JUMPDEST SWAP1 SSTORE PUSH2 0x35DB JUMP JUMPDEST PUSH1 0x40 MLOAD PUSH4 0x68F46C45 PUSH1 0xE0 SHL DUP2 MSTORE PUSH1 0x4 SWAP1 REVERT JUMPDEST PUSH1 0x40 MLOAD PUSH4 0xD764187D PUSH1 0xE0 SHL DUP2 MSTORE PUSH1 0x4 SWAP1 REVERT JUMPDEST PUSH1 0x40 MLOAD PUSH4 0x1AC7C051 PUSH1 0xE1 SHL DUP2 MSTORE PUSH1 0x4 SWAP1 REVERT JUMPDEST CALLVALUE PUSH2 0x121F JUMPI PUSH0 CALLDATASIZE PUSH1 0x3 NOT ADD SLT PUSH2 0x121F JUMPI PUSH1 0x20 PUSH1 0x40 MLOAD PUSH1 0x7 DUP2 MSTORE RETURN JUMPDEST CALLVALUE PUSH2 0x121F JUMPI PUSH1 0x20 CALLDATASIZE PUSH1 0x3 NOT ADD SLT PUSH2 0x121F JUMPI PUSH2 0x36E1 PUSH2 0x377D JUMP JUMPDEST SWAP1 PUSH1 0x1 DUP1 PUSH1 0xA0 SHL SUB DUP3 AND SWAP1 DUP2 PUSH0 MSTORE PUSH1 0x1 PUSH1 0x20 MSTORE PUSH1 0x10 PUSH1 0x40 PUSH0 KECCAK256 ADD SLOAD SWAP1 PUSH1 0xFF DUP3 PUSH1 0x8 SHR AND ISZERO PUSH2 0x376E JUMPI POP PUSH1 0x10 SHR PUSH1 0xFF AND ISZERO PUSH2 0x369B JUMPI PUSH0 MSTORE PUSH1 0x3 PUSH1 0x20 MSTORE PUSH1 0x40 PUSH0 KECCAK256 PUSH1 0xFF PUSH1 0x3 DUP3 ADD SLOAD AND PUSH2 0x3677 JUMPI PUSH1 0x2 PUSH1 0x1 DUP3 ADD SLOAD SWAP2 ADD SLOAD PUSH1 0x33 DUP2 MUL SWAP1 DUP1 DUP3 DIV PUSH1 0x33 EQ SWAP1 ISZERO OR ISZERO PUSH2 0x2F42 JUMPI PUSH1 0x64 SWAP1 DIV LT ISZERO PUSH2 0x375C JUMPI PUSH2 0x1B SWAP1 PUSH2 0x4021 JUMP JUMPDEST PUSH1 0x40 MLOAD PUSH4 0x71D64F93 PUSH1 0xE0 SHL DUP2 MSTORE PUSH1 0x4 SWAP1 REVERT JUMPDEST PUSH4 0x5A7CB4E9 PUSH1 0xE0 SHL DUP2 MSTORE PUSH1 0x4 SWAP1 REVERT JUMPDEST PUSH1 0x4 CALLDATALOAD SWAP1 PUSH1 0x1 PUSH1 0x1 PUSH1 0xA0 SHL SUB DUP3 AND DUP3 SUB PUSH2 0x121F JUMPI JUMP JUMPDEST PUSH1 0x24 CALLDATALOAD SWAP1 PUSH1 0x1 PUSH1 0x1 PUSH1 0xA0 SHL SUB DUP3 AND DUP3 SUB PUSH2 0x121F JUMPI JUMP JUMPDEST PUSH1 0x40 SWAP1 PUSH1 0x3 NOT ADD SLT PUSH2 0x121F JUMPI PUSH1 0x4 CALLDATALOAD SWAP1 PUSH1 0x24 CALLDATALOAD SWAP1 JUMP JUMPDEST SWAP3 SWAP2 SWAP1 PUSH1 0x40 DUP5 ADD PUSH1 0x40 DUP6 MSTORE DUP2 MLOAD DUP1 SWAP2 MSTORE PUSH1 0x60 DUP6 ADD SWAP1 PUSH1 0x20 DUP1 SWAP4 ADD SWAP3 PUSH0 JUMPDEST DUP3 DUP2 LT PUSH2 0x37EF JUMPI POP POP POP PUSH1 0x20 SWAP2 POP SWAP4 ADD MSTORE JUMP JUMPDEST DUP5 MLOAD PUSH1 0x1 PUSH1 0x1 PUSH1 0xA0 SHL SUB AND DUP5 MSTORE SWAP4 DUP2 ADD SWAP4 SWAP3 DUP2 ADD SWAP3 PUSH1 0x1 ADD PUSH2 0x37DC JUMP JUMPDEST PUSH1 0x2 SLOAD DUP2 LT ISZERO PUSH2 0x3824 JUMPI PUSH1 0x2 PUSH0 MSTORE PUSH1 0x20 PUSH0 KECCAK256 ADD SWAP1 PUSH0 SWAP1 JUMP JUMPDEST PUSH4 0x4E487B71 PUSH1 0xE0 SHL PUSH0 MSTORE PUSH1 0x32 PUSH1 0x4 MSTORE PUSH1 0x24 PUSH0 REVERT JUMPDEST DUP1 SLOAD DUP3 LT ISZERO PUSH2 0x3824 JUMPI PUSH0 MSTORE PUSH1 0x20 PUSH0 KECCAK256 ADD SWAP1 PUSH0 SWAP1 JUMP JUMPDEST SWAP2 DUP2 PUSH1 0x1F DUP5 ADD SLT ISZERO PUSH2 0x121F JUMPI DUP3 CALLDATALOAD SWAP2 PUSH1 0x1 PUSH1 0x1 PUSH1 0x40 SHL SUB DUP4 GT PUSH2 0x121F JUMPI PUSH1 0x20 DUP4 DUP2 DUP7 ADD SWAP6 ADD ADD GT PUSH2 0x121F JUMPI JUMP JUMPDEST PUSH1 0x40 SWAP2 SWAP5 SWAP4 SWAP3 PUSH1 0x60 DUP3 ADD SWAP6 DUP3 MSTORE PUSH1 0x20 DUP3 ADD MSTORE ADD MSTORE JUMP JUMPDEST SWAP1 PUSH1 0x1 DUP3 DUP2 SHR SWAP3 AND DUP1 ISZERO PUSH2 0x38BE JUMPI JUMPDEST PUSH1 0x20 DUP4 LT EQ PUSH2 0x38AA JUMPI JUMP JUMPDEST PUSH4 0x4E487B71 PUSH1 0xE0 SHL PUSH0 MSTORE PUSH1 0x22 PUSH1 0x4 MSTORE PUSH1 0x24 PUSH0 REVERT JUMPDEST SWAP2 PUSH1 0x7F AND SWAP2 PUSH2 0x389F JUMP JUMPDEST PUSH1 0x1 PUSH1 0x1 PUSH1 0x40 SHL SUB DUP2 GT PUSH2 0x1DBB JUMPI PUSH1 0x40 MSTORE JUMP JUMPDEST PUSH1 0x20 DUP2 ADD SWAP1 DUP2 LT PUSH1 0x1 PUSH1 0x1 PUSH1 0x40 SHL SUB DUP3 GT OR PUSH2 0x1DBB JUMPI PUSH1 0x40 MSTORE JUMP JUMPDEST PUSH1 0x1F SWAP1 SWAP2 ADD PUSH1 0x1F NOT AND DUP2 ADD SWAP1 PUSH1 0x1 PUSH1 0x1 PUSH1 0x40 SHL SUB DUP3 GT SWAP1 DUP3 LT OR PUSH2 0x1DBB JUMPI PUSH1 0x40 MSTORE JUMP JUMPDEST SWAP1 PUSH1 0x40 MLOAD SWAP2 DUP3 PUSH0 DUP3 SLOAD PUSH2 0x392B DUP2 PUSH2 0x3890 JUMP JUMPDEST SWAP1 DUP2 DUP5 MSTORE PUSH1 0x20 SWAP5 PUSH1 0x1 SWAP2 PUSH1 0x1 DUP2 AND SWAP1 DUP2 PUSH0 EQ PUSH2 0x3999 JUMPI POP PUSH1 0x1 EQ PUSH2 0x395B JUMPI JUMPDEST POP POP POP PUSH2 0x3959 SWAP3 POP SUB DUP4 PUSH2 0x38F6 JUMP JUMPDEST JUMP JUMPDEST PUSH0 SWAP1 DUP2 MSTORE DUP6 DUP2 KECCAK256 SWAP6 SWAP4 POP SWAP2 SWAP1 JUMPDEST DUP2 DUP4 LT PUSH2 0x3981 JUMPI POP POP PUSH2 0x3959 SWAP4 POP DUP3 ADD ADD PUSH0 DUP1 DUP1 PUSH2 0x394A JUMP JUMPDEST DUP6 SLOAD DUP9 DUP5 ADD DUP6 ADD MSTORE SWAP5 DUP6 ADD SWAP5 DUP8 SWAP5 POP SWAP2 DUP4 ADD SWAP2 PUSH2 0x3968 JUMP JUMPDEST SWAP3 POP POP POP PUSH2 0x3959 SWAP5 SWAP3 POP PUSH1 0xFF NOT AND DUP3 DUP5 ADD MSTORE ISZERO ISZERO PUSH1 0x5 SHL DUP3 ADD ADD PUSH0 DUP1 DUP1 PUSH2 0x394A JUMP JUMPDEST DUP1 MLOAD DUP1 DUP4 MSTORE PUSH1 0x20 SWAP3 SWAP2 DUP2 SWAP1 DUP5 ADD DUP5 DUP5 ADD MCOPY PUSH0 DUP3 DUP3 ADD DUP5 ADD MSTORE PUSH1 0x1F ADD PUSH1 0x1F NOT AND ADD ADD SWAP1 JUMP JUMPDEST DUP2 DUP2 MUL SWAP3 SWAP2 DUP2 ISZERO SWAP2 DUP5 DIV EQ OR ISZERO PUSH2 0x2F42 JUMPI JUMP JUMPDEST DUP2 ISZERO PUSH2 0x39FC JUMPI DIV SWAP1 JUMP JUMPDEST PUSH4 0x4E487B71 PUSH1 0xE0 SHL PUSH0 MSTORE PUSH1 0x12 PUSH1 0x4 MSTORE PUSH1 0x24 PUSH0 REVERT JUMPDEST SWAP2 SWAP1 DUP3 ADD DUP1 SWAP3 GT PUSH2 0x2F42 JUMPI JUMP JUMPDEST SWAP1 DUP2 PUSH1 0x20 SWAP2 SUB SLT PUSH2 0x121F JUMPI MLOAD DUP1 ISZERO ISZERO DUP2 SUB PUSH2 0x121F JUMPI SWAP1 JUMP JUMPDEST PUSH1 0x1 PUSH1 0x1 PUSH1 0xA0 SHL SUB SWAP1 SWAP2 AND DUP2 MSTORE PUSH1 0x20 DUP2 ADD SWAP2 SWAP1 SWAP2 MSTORE PUSH1 0x40 ADD SWAP1 JUMP JUMPDEST PUSH1 0x1 PUSH1 0x1 PUSH1 0x40 SHL SUB DUP2 GT PUSH2 0x1DBB JUMPI PUSH1 0x5 SHL PUSH1 0x20 ADD SWAP1 JUMP JUMPDEST SWAP1 PUSH2 0x3A71 DUP3 PUSH2 0x3A50 JUMP JUMPDEST PUSH2 0x3A7E PUSH1 0x40 MLOAD SWAP2 DUP3 PUSH2 0x38F6 JUMP JUMPDEST DUP3 DUP2 MSTORE DUP1 SWAP3 PUSH2 0x3A8F PUSH1 0x1F NOT SWAP2 PUSH2 0x3A50 JUMP JUMPDEST ADD SWAP1 PUSH1 0x20 CALLDATASIZE SWAP2 ADD CALLDATACOPY JUMP JUMPDEST SWAP2 SWAP1 DUP3 SUB SWAP2 DUP3 GT PUSH2 0x2F42 JUMPI JUMP JUMPDEST DUP1 MLOAD DUP3 LT ISZERO PUSH2 0x3824 JUMPI PUSH1 0x20 SWAP2 PUSH1 0x5 SHL ADD ADD SWAP1 JUMP JUMPDEST SWAP2 PUSH1 0x2 SLOAD SWAP2 DUP3 DUP5 LT ISZERO PUSH2 0x3B35 JUMPI PUSH2 0x3AD1 SWAP1 DUP5 PUSH2 0x3A10 JUMP JUMPDEST DUP3 DUP2 GT PUSH2 0x3B2E JUMPI JUMPDEST PUSH2 0x3AEB PUSH2 0x3AE6 DUP6 DUP4 PUSH2 0x3A99 JUMP JUMPDEST PUSH2 0x3A67 JUMP JUMPDEST SWAP4 DUP1 JUMPDEST DUP3 DUP2 LT PUSH2 0x3AFA JUMPI POP POP POP JUMP JUMPDEST DUP1 PUSH2 0x3B06 PUSH1 0x1 SWAP3 PUSH2 0x380C JUMP JUMPDEST DUP4 DUP1 PUSH1 0xA0 SHL SUB SWAP2 SLOAD SWAP1 PUSH1 0x3 SHL SHR AND PUSH2 0x3B27 PUSH2 0x3B21 DUP6 DUP5 PUSH2 0x3A99 JUMP JUMPDEST DUP10 PUSH2 0x3AA6 JUMP JUMPDEST MSTORE ADD PUSH2 0x3AEE JUMP JUMPDEST POP DUP2 PUSH2 0x3AD9 JUMP JUMPDEST POP SWAP1 SWAP2 POP PUSH1 0x40 MLOAD PUSH2 0x3B45 DUP2 PUSH2 0x38DB JUMP JUMPDEST PUSH0 DUP2 MSTORE PUSH0 CALLDATASIZE DUP2 CALLDATACOPY SWAP2 SWAP1 JUMP JUMPDEST PUSH1 0xFF PUSH1 0x14 SWAP2 AND ADD SWAP1 PUSH1 0xFF DUP3 GT PUSH2 0x2F42 JUMPI JUMP JUMPDEST PUSH1 0x1 PUSH1 0x1 PUSH1 0x40 SHL SUB DUP2 GT PUSH2 0x1DBB JUMPI PUSH1 0x1F ADD PUSH1 0x1F NOT AND PUSH1 0x20 ADD SWAP1 JUMP JUMPDEST RETURNDATASIZE ISZERO PUSH2 0x3BA7 JUMPI RETURNDATASIZE SWAP1 PUSH2 0x3B8E DUP3 PUSH2 0x3B62 JUMP JUMPDEST SWAP2 PUSH2 0x3B9C PUSH1 0x40 MLOAD SWAP4 DUP5 PUSH2 0x38F6 JUMP JUMPDEST DUP3 MSTORE RETURNDATASIZE PUSH0 PUSH1 0x20 DUP5 ADD RETURNDATACOPY JUMP JUMPDEST PUSH1 0x60 SWAP1 JUMP JUMPDEST SWAP1 PUSH1 0x1 DUP1 PUSH1 0xA0 SHL SUB DUP1 SWAP3 AND SWAP2 DUP3 PUSH0 MSTORE PUSH1 0x20 PUSH1 0x1 DUP2 MSTORE PUSH1 0x40 SWAP2 DUP3 PUSH0 KECCAK256 SWAP5 PUSH1 0x10 DUP7 ADD SLOAD SWAP1 PUSH1 0xFF SWAP7 DUP8 DUP4 PUSH1 0x8 SHR AND ISZERO PUSH2 0x3EBE JUMPI PUSH1 0x6 DUP2 ADD SLOAD SWAP3 PUSH1 0x5 DUP3 ADD SLOAD DUP5 LT DUP1 ISZERO SWAP1 PUSH2 0x3EA3 JUMPI JUMPDEST ISZERO PUSH2 0x3E8F JUMPI PUSH1 0x16 DUP3 ADD SLOAD ISZERO ISZERO DUP1 PUSH2 0x3E81 JUMPI JUMPDEST PUSH2 0x3E70 JUMPI DUP9 PUSH1 0x18 DUP4 ADD SLOAD PUSH1 0x8 SHR AND PUSH2 0x3E5F JUMPI PUSH1 0xC DUP3 ADD SWAP1 DUP2 SLOAD SWAP5 PUSH1 0x1 DUP12 DUP8 AND ADD DUP12 DUP2 GT PUSH2 0x2F42 JUMPI DUP12 AND SWAP11 PUSH1 0x3 DUP13 GT PUSH2 0x3E4F JUMPI PUSH1 0x1 DUP13 SUB PUSH2 0x3E29 JUMPI PUSH1 0xD DUP6 ADD SLOAD SWAP3 PUSH2 0xCE4 SWAP4 JUMPDEST TIMESTAMP LT PUSH2 0x3E18 JUMPI PUSH1 0x10 SHR AND PUSH2 0x3E07 JUMPI PUSH1 0x2 DUP12 EQ DUP1 PUSH2 0x3DF9 JUMPI JUMPDEST PUSH2 0x3DE8 JUMPI PUSH2 0x2710 SWAP2 PUSH2 0x3C86 SWAP2 PUSH1 0x15 DUP7 ADD SWAP1 DUP2 SLOAD ISZERO DUP1 PUSH2 0x3DDF JUMPI JUMPDEST PUSH2 0x3DA1 JUMPI JUMPDEST POP SLOAD PUSH2 0x39DF JUMP JUMPDEST DIV SWAP4 DUP5 ISZERO PUSH2 0x3D64 JUMPI POP DUP3 PUSH0 MSTORE PUSH1 0x14 DUP7 MSTORE DUP4 DUP8 PUSH0 KECCAK256 SLOAD LT PUSH2 0x3D53 JUMPI SWAP6 DUP1 SWAP8 SWAP9 PUSH1 0x1 PUSH0 DUP1 MLOAD PUSH1 0x20 PUSH2 0x5989 DUP4 CODECOPY DUP2 MLOAD SWAP2 MSTORE SWAP4 PUSH32 0x2AF048E62453EFFFC10FAB1340DAB57FA5C7C2E72DC30DF457608651277D1EA5 SWAP10 DUP7 PUSH0 MSTORE PUSH1 0x14 DUP11 MSTORE DUP5 PUSH0 KECCAK256 PUSH2 0x3CEC DUP10 DUP3 SLOAD PUSH2 0x3A99 JUMP JUMPDEST SWAP1 SSTORE DUP4 PUSH1 0xFF NOT DUP3 SLOAD AND OR SWAP1 SSTORE ADD SWAP5 DUP7 DUP7 SLOAD AND PUSH0 MSTORE PUSH1 0x7 DUP9 MSTORE TIMESTAMP DUP4 PUSH0 KECCAK256 SSTORE PUSH0 DUP1 DUP1 DUP1 DUP5 DUP12 DUP12 SLOAD AND GAS CALL PUSH2 0x3D1C PUSH2 0x3B7D JUMP JUMPDEST POP ISZERO PUSH2 0x3D37 JUMPI JUMPDEST DUP3 MLOAD SWAP2 DUP3 MSTORE DUP8 DUP3 ADD MSTORE LOG2 SLOAD AND SWAP3 MLOAD TIMESTAMP DUP2 MSTORE LOG2 JUMP JUMPDEST DUP5 PUSH0 MSTORE PUSH1 0xC DUP9 MSTORE DUP3 PUSH0 KECCAK256 PUSH2 0x3D4C DUP3 DUP3 SLOAD PUSH2 0x3A10 JUMP JUMPDEST SWAP1 SSTORE PUSH2 0x3D23 JUMP JUMPDEST DUP7 MLOAD PUSH4 0xFE382AA7 PUSH1 0xE0 SHL DUP2 MSTORE PUSH1 0x4 SWAP1 REVERT JUMPDEST PUSH0 SWAP5 POP SWAP2 PUSH1 0x1 SWAP2 DUP11 PUSH0 DUP1 MLOAD PUSH1 0x20 PUSH2 0x5989 DUP4 CODECOPY DUP2 MLOAD SWAP2 MSTORE SWAP10 SWAP9 SWAP6 SWAP11 SWAP12 SWAP8 SWAP5 PUSH1 0xFF NOT AND OR SWAP1 SSTORE ADD SLOAD AND DUP3 MSTORE PUSH1 0x7 DUP2 MSTORE TIMESTAMP DUP5 DUP4 KECCAK256 SSTORE DUP4 MLOAD SWAP3 DUP4 MSTORE DUP3 ADD MSTORE LOG2 JUMP JUMPDEST PUSH1 0x14 DUP8 ADD DUP1 SLOAD PUSH2 0x3DBB SWAP3 SWAP1 DUP1 ISZERO PUSH2 0x3DC3 JUMPI DUP1 SWAP3 JUMPDEST SSTORE PUSH2 0x3A99 JUMP JUMPDEST DUP2 SSTORE PUSH0 PUSH2 0x3C7F JUMP JUMPDEST POP DUP7 PUSH2 0x3DD7 PUSH2 0xFFFF PUSH1 0x13 DUP13 ADD SLOAD AND DUP4 PUSH2 0x39DF JUMP JUMPDEST DIV DUP1 SWAP3 PUSH2 0x3DB5 JUMP JUMPDEST POP DUP1 ISZERO ISZERO PUSH2 0x3C7A JUMP JUMPDEST DUP9 MLOAD PUSH4 0xF66EB8E7 PUSH1 0xE0 SHL DUP2 MSTORE PUSH1 0x4 SWAP1 REVERT JUMPDEST POP PUSH1 0xA PUSH1 0x12 DUP6 ADD SLOAD LT PUSH2 0x3C60 JUMP JUMPDEST DUP9 MLOAD PUSH4 0x1B37A49B PUSH1 0xE1 SHL DUP2 MSTORE PUSH1 0x4 SWAP1 REVERT JUMPDEST DUP11 MLOAD PUSH4 0x69FBBBB PUSH1 0xE1 SHL DUP2 MSTORE PUSH1 0x4 SWAP1 REVERT JUMPDEST PUSH1 0x2 DUP13 SUB PUSH2 0x3E40 JUMPI PUSH1 0xE DUP6 ADD SLOAD SWAP3 PUSH2 0xCE4 SWAP4 PUSH2 0x3C48 JUMP JUMPDEST PUSH1 0xF DUP6 ADD SLOAD SWAP3 PUSH2 0xD48 SWAP4 PUSH2 0x3C48 JUMP JUMPDEST DUP10 MLOAD PUSH3 0xF485BD PUSH1 0xE7 SHL DUP2 MSTORE PUSH1 0x4 SWAP1 REVERT JUMPDEST DUP7 MLOAD PUSH4 0x1747823 PUSH1 0xE7 SHL DUP2 MSTORE PUSH1 0x4 SWAP1 REVERT JUMPDEST DUP7 MLOAD PUSH4 0xCC3F25F9 PUSH1 0xE0 SHL DUP2 MSTORE PUSH1 0x4 SWAP1 REVERT JUMPDEST POP DUP9 PUSH1 0x18 DUP4 ADD SLOAD AND ISZERO PUSH2 0x3C03 JUMP JUMPDEST DUP7 MLOAD PUSH1 0x1 PUSH3 0xB806B PUSH1 0xE2 SHL SUB NOT DUP2 MSTORE PUSH1 0x4 SWAP1 REVERT JUMPDEST POP PUSH1 0xA DUP3 ADD SLOAD PUSH3 0x278D00 DUP2 ADD DUP1 SWAP2 GT PUSH2 0x2F42 JUMPI TIMESTAMP LT ISZERO PUSH2 0x3BF1 JUMP JUMPDEST DUP6 MLOAD PUSH4 0x5A7CB4E9 PUSH1 0xE0 SHL DUP2 MSTORE PUSH1 0x4 SWAP1 REVERT JUMPDEST SWAP1 DUP2 PUSH1 0x20 SWAP2 SUB SLT PUSH2 0x121F JUMPI MLOAD PUSH1 0x1 PUSH1 0x1 PUSH1 0xA0 SHL SUB DUP2 AND DUP2 SUB PUSH2 0x121F JUMPI SWAP1 JUMP JUMPDEST SWAP1 DUP1 PUSH1 0x20 SWAP4 SWAP3 DUP2 DUP5 MSTORE DUP5 DUP5 ADD CALLDATACOPY PUSH0 DUP3 DUP3 ADD DUP5 ADD MSTORE PUSH1 0x1F ADD PUSH1 0x1F NOT AND ADD ADD SWAP1 JUMP JUMPDEST PUSH0 NOT DUP2 EQ PUSH2 0x2F42 JUMPI PUSH1 0x1 ADD SWAP1 JUMP JUMPDEST SWAP3 SWAP2 SWAP3 PUSH2 0x3F28 DUP3 PUSH2 0x3B62 JUMP JUMPDEST SWAP2 PUSH2 0x3F36 PUSH1 0x40 MLOAD SWAP4 DUP5 PUSH2 0x38F6 JUMP JUMPDEST DUP3 SWAP5 DUP2 DUP5 MSTORE DUP2 DUP4 ADD GT PUSH2 0x121F JUMPI DUP3 DUP2 PUSH1 0x20 SWAP4 DUP5 PUSH0 SWAP7 ADD CALLDATACOPY ADD ADD MSTORE JUMP JUMPDEST SWAP1 PUSH2 0xFF00 DUP3 SLOAD SWAP2 ISZERO ISZERO PUSH1 0x8 SHL AND SWAP1 PUSH2 0xFF00 NOT AND OR SWAP1 SSTORE JUMP JUMPDEST SWAP3 SWAP1 SWAP3 PUSH1 0x1 DUP1 PUSH1 0xA0 SHL SUB DUP1 SWAP2 AND SWAP4 DUP5 PUSH0 MSTORE PUSH1 0x15 SWAP2 PUSH1 0x20 SWAP3 PUSH1 0x15 PUSH1 0x20 MSTORE PUSH1 0x40 SWAP1 PUSH1 0x40 PUSH0 KECCAK256 SLOAD SWAP7 DUP8 DUP6 LT ISZERO PUSH2 0x400C JUMPI PUSH2 0x3FA1 SWAP1 DUP6 PUSH2 0x3A10 JUMP JUMPDEST SWAP5 DUP8 DUP7 GT PUSH2 0x4004 JUMPI JUMPDEST PUSH2 0x3FB7 PUSH2 0x3AE6 DUP7 DUP9 PUSH2 0x3A99 JUMP JUMPDEST SWAP9 DUP6 JUMPDEST DUP8 DUP2 LT PUSH2 0x3FCB JUMPI POP POP POP POP POP POP POP POP JUMP JUMPDEST PUSH1 0x1 SWAP1 DUP3 PUSH0 MSTORE DUP5 DUP5 MSTORE DUP7 PUSH2 0x3FE1 DUP3 DUP9 PUSH0 KECCAK256 PUSH2 0x3838 JUMP JUMPDEST SWAP1 SLOAD SWAP1 PUSH1 0x3 SHL SHR AND PUSH2 0x3FFD DUP14 PUSH2 0x3FF7 DUP12 DUP6 PUSH2 0x3A99 JUMP JUMPDEST SWAP1 PUSH2 0x3AA6 JUMP JUMPDEST MSTORE ADD PUSH2 0x3FBA JUMP JUMPDEST DUP8 SWAP6 POP PUSH2 0x3FAA JUMP JUMPDEST POP POP POP POP POP POP SWAP1 SWAP2 POP PUSH1 0x40 MLOAD PUSH2 0x3B45 DUP2 PUSH2 0x38DB JUMP JUMPDEST PUSH1 0x1 DUP1 PUSH1 0xA0 SHL SUB DUP1 SWAP2 AND SWAP1 DUP2 PUSH0 MSTORE PUSH1 0x17 PUSH1 0x20 PUSH1 0x1 DUP2 MSTORE PUSH1 0x40 SWAP3 DUP4 PUSH0 KECCAK256 PUSH1 0x3 DUP4 MSTORE PUSH1 0x1 PUSH1 0x3 DUP7 PUSH0 KECCAK256 ADD SWAP2 PUSH1 0xFF NOT SWAP3 DUP3 DUP5 DUP3 SLOAD AND OR SWAP1 SSTORE PUSH1 0x10 DUP2 ADD PUSH2 0xFF00 NOT DUP2 SLOAD AND SWAP1 SSTORE PUSH1 0x13 DUP6 MSTORE DUP7 PUSH0 KECCAK256 DUP3 DUP5 DUP3 SLOAD AND OR SWAP1 SSTORE PUSH1 0x11 DUP6 MSTORE PUSH0 DUP8 DUP2 KECCAK256 SSTORE ADD SWAP1 DUP3 DUP3 SLOAD AND PUSH0 MSTORE PUSH1 0xA DUP5 MSTORE DUP6 PUSH0 KECCAK256 SWAP1 DUP2 SLOAD SWAP1 PUSH1 0xFF DUP3 AND ISZERO PUSH2 0x412F JUMPI JUMPDEST POP POP POP DUP6 PUSH0 MSTORE PUSH1 0xC DUP4 MSTORE DUP5 PUSH0 KECCAK256 DUP1 SLOAD SWAP1 DUP2 PUSH2 0x40E9 JUMPI JUMPDEST POP POP SLOAD AND PUSH0 MSTORE MSTORE PUSH0 KECCAK256 PUSH2 0x40C1 DUP2 SLOAD PUSH2 0x3F0E JUMP JUMPDEST SWAP1 SSTORE PUSH32 0xAE7F97DB0B8177E27E4396C4575565840AA5920187184C9568C3B5D47F8EBA8A PUSH0 DUP1 LOG2 JUMP JUMPDEST PUSH0 SWAP1 SSTORE PUSH2 0x40F8 DUP2 PUSH1 0xD SLOAD PUSH2 0x3A10 JUMP JUMPDEST PUSH1 0xD SSTORE PUSH32 0x6E238CF96F0C12E531D3336078C024F62DEADFCF747156940FBAFDECED98F34 DUP5 DUP5 DUP5 SLOAD AND SWAP3 DUP9 MLOAD SWAP1 DUP2 MSTORE LOG2 PUSH0 DUP1 PUSH2 0x40AE JUMP JUMPDEST PUSH1 0x1 SWAP2 AND OR SWAP1 SSTORE DUP2 DUP2 SLOAD AND PUSH0 DUP1 MLOAD PUSH1 0x20 PUSH2 0x59C9 DUP4 CODECOPY DUP2 MLOAD SWAP2 MSTORE PUSH1 0x60 DUP8 MLOAD DUP7 DUP2 MSTORE PUSH1 0xD DUP8 DUP3 ADD MSTORE PUSH13 0x1499599D5B99081C185CDCD959 PUSH1 0x9A SHL DUP10 DUP3 ADD MSTORE LOG2 PUSH0 DUP1 DUP1 PUSH2 0x4098 JUMP JUMPDEST PUSH0 DUP1 MLOAD PUSH1 0x20 PUSH2 0x5A09 DUP4 CODECOPY DUP2 MLOAD SWAP2 MSTORE PUSH1 0x2 DUP2 SLOAD EQ PUSH2 0x4190 JUMPI PUSH1 0x2 SWAP1 SSTORE JUMP JUMPDEST PUSH1 0x40 MLOAD PUSH4 0x3EE5AEB5 PUSH1 0xE0 SHL DUP2 MSTORE PUSH1 0x4 SWAP1 REVERT JUMPDEST PUSH0 SLOAD PUSH1 0x1 PUSH1 0x1 PUSH1 0xA0 SHL SUB AND CALLER SUB PUSH2 0x41B5 JUMPI JUMP JUMPDEST PUSH1 0x40 MLOAD PUSH4 0x118CDAA7 PUSH1 0xE0 SHL DUP2 MSTORE CALLER PUSH1 0x4 DUP3 ADD MSTORE PUSH1 0x24 SWAP1 REVERT JUMPDEST DUP2 ISZERO PUSH2 0x42D8 JUMPI DUP2 TIMESTAMP GT PUSH2 0x42C6 JUMPI DUP2 PUSH0 MSTORE PUSH1 0x9 PUSH1 0x20 MSTORE PUSH1 0x40 SWAP4 DUP5 PUSH0 KECCAK256 SWAP4 PUSH1 0x1 DUP1 PUSH1 0xA0 SHL SUB SWAP3 DUP4 DUP2 AND SWAP6 DUP7 PUSH0 MSTORE PUSH1 0x20 MSTORE PUSH1 0xFF DUP8 PUSH0 KECCAK256 SLOAD AND PUSH2 0x42B5 JUMPI SWAP2 PUSH2 0x426A PUSH2 0x4270 SWAP3 PUSH2 0x4279 SWAP6 SWAP5 DUP10 MLOAD PUSH2 0x4236 DUP2 PUSH2 0x4228 DUP12 PUSH1 0x20 DUP4 ADD SWAP6 DUP7 PUSH2 0x3A35 JUMP JUMPDEST SUB PUSH1 0x1F NOT DUP2 ADD DUP4 MSTORE DUP3 PUSH2 0x38F6 JUMP JUMPDEST MLOAD SWAP1 KECCAK256 PUSH28 0xCA2BA3432B932BAB69029B4B3B732B21026B2B9B9B0B3B29D051999 PUSH1 0x21 SHL PUSH0 MSTORE PUSH1 0x1C MSTORE PUSH1 0x3C PUSH0 KECCAK256 SWAP3 CALLDATASIZE SWAP2 PUSH2 0x3F1C JUMP JUMPDEST SWAP1 PUSH2 0x42DE JUMP JUMPDEST SWAP1 SWAP4 SWAP2 SWAP4 PUSH2 0x4318 JUMP JUMPDEST DUP1 PUSH1 0x8 SLOAD AND SWAP2 AND SUB PUSH2 0x42A4 JUMPI PUSH0 MSTORE PUSH1 0x9 PUSH1 0x20 MSTORE DUP2 PUSH0 KECCAK256 SWAP1 PUSH0 MSTORE PUSH1 0x20 MSTORE PUSH0 KECCAK256 PUSH1 0x1 PUSH1 0xFF NOT DUP3 SLOAD AND OR SWAP1 SSTORE JUMP JUMPDEST DUP3 MLOAD PUSH4 0x13B3B20B PUSH1 0xE0 SHL DUP2 MSTORE PUSH1 0x4 SWAP1 REVERT JUMPDEST DUP7 MLOAD PUSH4 0x13B3B20B PUSH1 0xE0 SHL DUP2 MSTORE PUSH1 0x4 SWAP1 REVERT JUMPDEST PUSH1 0x40 MLOAD PUSH4 0xB67A7713 PUSH1 0xE0 SHL DUP2 MSTORE PUSH1 0x4 SWAP1 REVERT JUMPDEST POP POP POP POP JUMP JUMPDEST DUP2 MLOAD SWAP2 SWAP1 PUSH1 0x41 DUP4 SUB PUSH2 0x430E JUMPI PUSH2 0x4307 SWAP3 POP PUSH1 0x20 DUP3 ADD MLOAD SWAP1 PUSH1 0x60 PUSH1 0x40 DUP5 ADD MLOAD SWAP4 ADD MLOAD PUSH0 BYTE SWAP1 PUSH2 0x439B JUMP JUMPDEST SWAP2 SWAP3 SWAP1 SWAP2 SWAP1 JUMP JUMPDEST POP POP PUSH0 SWAP2 PUSH1 0x2 SWAP2 SWAP1 JUMP JUMPDEST PUSH1 0x4 DUP2 LT ISZERO PUSH2 0x4387 JUMPI DUP1 PUSH2 0x432A JUMPI POP POP JUMP JUMPDEST PUSH1 0x1 DUP2 SUB PUSH2 0x4344 JUMPI PUSH1 0x40 MLOAD PUSH4 0xF645EEDF PUSH1 0xE0 SHL DUP2 MSTORE PUSH1 0x4 SWAP1 REVERT JUMPDEST PUSH1 0x2 DUP2 SUB PUSH2 0x4365 JUMPI PUSH1 0x40 MLOAD PUSH4 0xFCE698F7 PUSH1 0xE0 SHL DUP2 MSTORE PUSH1 0x4 DUP2 ADD DUP4 SWAP1 MSTORE PUSH1 0x24 SWAP1 REVERT JUMPDEST PUSH1 0x3 EQ PUSH2 0x436F JUMPI POP JUMP JUMPDEST PUSH1 0x24 SWAP1 PUSH1 0x40 MLOAD SWAP1 PUSH4 0x35E2F383 PUSH1 0xE2 SHL DUP3 MSTORE PUSH1 0x4 DUP3 ADD MSTORE REVERT JUMPDEST PUSH4 0x4E487B71 PUSH1 0xE0 SHL PUSH0 MSTORE PUSH1 0x21 PUSH1 0x4 MSTORE PUSH1 0x24 PUSH0 REVERT JUMPDEST SWAP2 SWAP1 PUSH16 0xA2A8918CA85BAFE22016D0B997E4DF60 PUSH1 0x1 PUSH1 0xFF SHL SUB DUP5 GT PUSH2 0x4408 JUMPI SWAP2 PUSH1 0x20 SWAP4 PUSH1 0x80 SWAP3 PUSH1 0xFF PUSH0 SWAP6 PUSH1 0x40 MLOAD SWAP5 DUP6 MSTORE AND DUP7 DUP5 ADD MSTORE PUSH1 0x40 DUP4 ADD MSTORE PUSH1 0x60 DUP3 ADD MSTORE DUP3 DUP1 MSTORE PUSH1 0x1 GAS STATICCALL ISZERO PUSH2 0x2E75 JUMPI PUSH0 MLOAD PUSH1 0x1 PUSH1 0x1 PUSH1 0xA0 SHL SUB DUP2 AND ISZERO PUSH2 0x43FE JUMPI SWAP1 PUSH0 SWAP1 PUSH0 SWAP1 JUMP JUMPDEST POP PUSH0 SWAP1 PUSH1 0x1 SWAP1 PUSH0 SWAP1 JUMP JUMPDEST POP POP POP PUSH0 SWAP2 PUSH1 0x3 SWAP2 SWAP1 JUMP INVALID PUSH1 0x40 PUSH1 0x80 DUP2 MSTORE CALLVALUE PUSH2 0x3C5 JUMPI PUSH2 0x1575 DUP1 CODESIZE SUB DUP1 PUSH2 0x1A DUP2 PUSH2 0x3C9 JUMP JUMPDEST SWAP3 DUP4 CODECOPY DUP2 ADD PUSH1 0x80 DUP3 DUP3 SUB SLT PUSH2 0x3C5 JUMPI DUP2 MLOAD PUSH1 0x1 PUSH1 0x1 PUSH1 0x40 SHL SUB SWAP1 DUP2 DUP2 GT PUSH2 0x3C5 JUMPI DUP3 PUSH2 0x47 SWAP2 DUP6 ADD PUSH2 0x3EE JUMP JUMPDEST SWAP1 PUSH1 0x20 SWAP3 DUP4 DUP6 ADD MLOAD SWAP1 DUP3 DUP3 GT PUSH2 0x3C5 JUMPI PUSH2 0x62 SWAP2 DUP7 ADD PUSH2 0x3EE JUMP JUMPDEST DUP6 DUP6 ADD MLOAD PUSH1 0x60 SWAP1 SWAP6 ADD MLOAD SWAP1 SWAP3 PUSH1 0x1 PUSH1 0x1 PUSH1 0xA0 SHL SUB SWAP3 DUP4 DUP4 AND SWAP3 DUP4 SWAP1 SUB PUSH2 0x3C5 JUMPI DUP2 MLOAD DUP2 DUP2 GT PUSH2 0x2DA JUMPI PUSH1 0x3 SWAP1 DUP2 SLOAD SWAP1 PUSH1 0x1 SWAP5 DUP6 DUP4 DUP2 SHR SWAP4 AND DUP1 ISZERO PUSH2 0x3BB JUMPI JUMPDEST DUP11 DUP5 LT EQ PUSH2 0x3A7 JUMPI DUP2 SWAP1 PUSH1 0x1F SWAP4 DUP5 DUP2 GT PUSH2 0x359 JUMPI JUMPDEST POP DUP11 SWAP1 DUP5 DUP4 GT PUSH1 0x1 EQ PUSH2 0x2F9 JUMPI PUSH0 SWAP3 PUSH2 0x2EE JUMPI JUMPDEST POP POP PUSH0 NOT DUP3 DUP6 SHL SHR NOT AND SWAP1 DUP6 SHL OR DUP3 SSTORE JUMPDEST DUP7 MLOAD SWAP3 DUP4 GT PUSH2 0x2DA JUMPI PUSH1 0x4 SWAP7 DUP8 SLOAD DUP6 DUP2 DUP2 SHR SWAP2 AND DUP1 ISZERO PUSH2 0x2D0 JUMPI JUMPDEST DUP11 DUP3 LT EQ PUSH2 0x2BD JUMPI DUP3 DUP2 GT PUSH2 0x27A JUMPI JUMPDEST POP DUP9 SWAP2 DUP5 GT PUSH1 0x1 EQ PUSH2 0x218 JUMPI SWAP4 DUP4 SWAP5 SWAP2 DUP5 SWAP3 PUSH0 SWAP6 PUSH2 0x20D JUMPI JUMPDEST POP POP SHL SWAP3 PUSH0 NOT SWAP2 SHL SHR NOT AND OR DUP4 SSTORE JUMPDEST DUP1 ISZERO PUSH2 0x1F7 JUMPI PUSH1 0x5 DUP1 SLOAD PUSH1 0x1 PUSH1 0x1 PUSH1 0xA0 SHL SUB NOT DUP2 AND DUP4 OR SWAP1 SWAP2 SSTORE DUP7 MLOAD SWAP3 AND PUSH32 0x8BE0079C531659141344CD1FD0A4F28419497F9722A3DAAFE3B4186F6B6457E0 PUSH0 DUP1 LOG3 ADDRESS ISZERO PUSH2 0x1E4 JUMPI POP PUSH1 0x2 SLOAD SWAP1 DUP4 DUP3 ADD DUP1 SWAP3 GT PUSH2 0x1D1 JUMPI POP PUSH0 SWAP2 PUSH32 0xDDF252AD1BE2C89B69C2B068FC378DAA952BA7F163C4A11628F55A4DF523B3EF SWAP2 PUSH1 0x2 SSTORE ADDRESS DUP4 MSTORE DUP3 DUP2 MSTORE DUP5 DUP4 KECCAK256 DUP5 DUP2 SLOAD ADD SWAP1 SSTORE DUP5 MLOAD SWAP4 DUP5 MSTORE ADDRESS SWAP4 LOG3 MLOAD PUSH2 0x1135 SWAP1 DUP2 PUSH2 0x440 DUP3 CODECOPY RETURN JUMPDEST PUSH1 0x11 SWAP1 PUSH4 0x4E487B71 PUSH1 0xE0 SHL PUSH0 MSTORE MSTORE PUSH1 0x24 PUSH0 REVERT JUMPDEST PUSH0 PUSH1 0x24 SWAP3 PUSH4 0xEC442F05 PUSH1 0xE0 SHL DUP4 MSTORE DUP3 ADD MSTORE REVERT JUMPDEST DUP6 MLOAD PUSH4 0x1E4FBDF7 PUSH1 0xE0 SHL DUP2 MSTORE PUSH0 DUP2 DUP6 ADD MSTORE PUSH1 0x24 SWAP1 REVERT JUMPDEST ADD MLOAD SWAP4 POP PUSH0 DUP1 PUSH2 0x11F JUMP JUMPDEST SWAP2 SWAP1 PUSH1 0x1F NOT DUP5 AND SWAP3 DUP9 PUSH0 MSTORE DUP5 DUP11 PUSH0 KECCAK256 SWAP5 PUSH0 JUMPDEST DUP13 DUP10 DUP4 DUP4 LT PUSH2 0x263 JUMPI POP POP POP LT PUSH2 0x24A JUMPI JUMPDEST POP POP POP POP DUP2 SHL ADD DUP4 SSTORE PUSH2 0x12E JUMP JUMPDEST ADD MLOAD SWAP1 PUSH1 0xF8 DUP5 PUSH0 NOT SWAP3 SHL AND SHR NOT AND SWAP1 SSTORE PUSH0 DUP1 DUP1 DUP1 PUSH2 0x23C JUMP JUMPDEST DUP7 DUP7 ADD MLOAD DUP10 SSTORE SWAP1 SWAP8 ADD SWAP7 SWAP5 DUP6 ADD SWAP5 DUP9 SWAP4 POP ADD PUSH2 0x22A JUMP JUMPDEST DUP9 PUSH0 MSTORE DUP10 PUSH0 KECCAK256 DUP4 DUP1 DUP8 ADD PUSH1 0x5 SHR DUP3 ADD SWAP3 DUP13 DUP9 LT PUSH2 0x2B4 JUMPI JUMPDEST ADD PUSH1 0x5 SHR ADD SWAP1 DUP7 SWAP1 JUMPDEST DUP3 DUP2 LT PUSH2 0x2A9 JUMPI POP POP PUSH2 0x106 JUMP JUMPDEST PUSH0 DUP2 SSTORE ADD DUP7 SWAP1 PUSH2 0x29B JUMP JUMPDEST SWAP3 POP DUP2 SWAP3 PUSH2 0x292 JUMP JUMPDEST PUSH1 0x22 DUP10 PUSH4 0x4E487B71 PUSH1 0xE0 SHL PUSH0 MSTORE MSTORE PUSH1 0x24 PUSH0 REVERT JUMPDEST SWAP1 PUSH1 0x7F AND SWAP1 PUSH2 0xF6 JUMP JUMPDEST PUSH4 0x4E487B71 PUSH1 0xE0 SHL PUSH0 MSTORE PUSH1 0x41 PUSH1 0x4 MSTORE PUSH1 0x24 PUSH0 REVERT JUMPDEST ADD MLOAD SWAP1 POP PUSH0 DUP1 PUSH2 0xCA JUMP JUMPDEST PUSH0 DUP7 DUP2 MSTORE DUP13 DUP2 KECCAK256 DUP10 SWAP6 POP SWAP3 SWAP2 SWAP1 PUSH1 0x1F NOT DUP6 AND SWAP1 DUP15 JUMPDEST DUP3 DUP3 LT PUSH2 0x342 JUMPI POP POP DUP5 GT PUSH2 0x32B JUMPI JUMPDEST POP POP POP DUP2 SHL ADD DUP3 SSTORE PUSH2 0xDB JUMP JUMPDEST ADD MLOAD PUSH0 NOT DUP4 DUP8 SHL PUSH1 0xF8 AND SHR NOT AND SWAP1 SSTORE PUSH0 DUP1 DUP1 PUSH2 0x31E JUMP JUMPDEST DUP4 DUP6 ADD MLOAD DUP7 SSTORE DUP12 SWAP8 SWAP1 SWAP6 ADD SWAP5 SWAP4 DUP5 ADD SWAP4 ADD DUP15 PUSH2 0x30E JUMP JUMPDEST SWAP1 SWAP2 POP DUP5 PUSH0 MSTORE DUP11 PUSH0 KECCAK256 DUP5 DUP1 DUP6 ADD PUSH1 0x5 SHR DUP3 ADD SWAP3 DUP14 DUP7 LT PUSH2 0x39E JUMPI JUMPDEST SWAP2 DUP10 SWAP2 DUP7 SWAP6 SWAP5 SWAP4 ADD PUSH1 0x5 SHR ADD SWAP2 JUMPDEST DUP3 DUP2 LT PUSH2 0x390 JUMPI POP POP PUSH2 0xB6 JUMP JUMPDEST PUSH0 DUP2 SSTORE DUP6 SWAP5 POP DUP10 SWAP2 ADD PUSH2 0x382 JUMP JUMPDEST SWAP3 POP DUP2 SWAP3 PUSH2 0x374 JUMP JUMPDEST PUSH4 0x4E487B71 PUSH1 0xE0 SHL PUSH0 MSTORE PUSH1 0x22 PUSH1 0x4 MSTORE PUSH1 0x24 PUSH0 REVERT JUMPDEST SWAP3 PUSH1 0x7F AND SWAP3 PUSH2 0xA1 JUMP JUMPDEST PUSH0 DUP1 REVERT JUMPDEST PUSH1 0x40 MLOAD SWAP2 SWAP1 PUSH1 0x1F ADD PUSH1 0x1F NOT AND DUP3 ADD PUSH1 0x1 PUSH1 0x1 PUSH1 0x40 SHL SUB DUP2 GT DUP4 DUP3 LT OR PUSH2 0x2DA JUMPI PUSH1 0x40 MSTORE JUMP JUMPDEST DUP2 PUSH1 0x1F DUP3 ADD SLT ISZERO PUSH2 0x3C5 JUMPI DUP1 MLOAD SWAP1 PUSH1 0x1 PUSH1 0x1 PUSH1 0x40 SHL SUB DUP3 GT PUSH2 0x2DA JUMPI PUSH2 0x41D PUSH1 0x1F DUP4 ADD PUSH1 0x1F NOT AND PUSH1 0x20 ADD PUSH2 0x3C9 JUMP JUMPDEST SWAP3 DUP3 DUP5 MSTORE PUSH1 0x20 DUP4 DUP4 ADD ADD GT PUSH2 0x3C5 JUMPI DUP2 PUSH0 SWAP3 PUSH1 0x20 DUP1 SWAP4 ADD DUP4 DUP7 ADD MCOPY DUP4 ADD ADD MSTORE SWAP1 JUMP INVALID PUSH1 0x80 PUSH1 0x40 SWAP1 DUP1 DUP3 MSTORE PUSH1 0x4 SWAP1 DUP2 CALLDATASIZE LT ISZERO PUSH2 0x16 JUMPI PUSH0 DUP1 REVERT JUMPDEST PUSH0 CALLDATALOAD PUSH1 0xE0 SHR SWAP1 DUP2 PUSH4 0x6FDDE03 EQ PUSH2 0x818 JUMPI POP DUP1 PUSH4 0x95EA7B3 EQ PUSH2 0x76F JUMPI DUP1 PUSH4 0xE48FB1C EQ PUSH2 0x751 JUMPI DUP1 PUSH4 0xFEAFB4E EQ PUSH2 0x724 JUMPI DUP1 PUSH4 0x1514617E EQ PUSH2 0x706 JUMPI DUP1 PUSH4 0x18160DDD EQ PUSH2 0x6E8 JUMPI DUP1 PUSH4 0x23B872DD EQ PUSH2 0x6AC JUMPI DUP1 PUSH4 0x254800D4 EQ PUSH2 0x68E JUMPI DUP1 PUSH4 0x274C5F52 EQ PUSH2 0x642 JUMPI DUP1 PUSH4 0x313CE567 EQ PUSH2 0x627 JUMPI DUP1 PUSH4 0x3608FE0C EQ PUSH2 0x4DC JUMPI DUP1 PUSH4 0x42966C68 EQ PUSH2 0x4BF JUMPI DUP1 PUSH4 0x44B1231F EQ PUSH2 0x4A3 JUMPI DUP1 PUSH4 0x4C20179E EQ PUSH2 0x485 JUMPI DUP1 PUSH4 0x6D515C9F EQ PUSH2 0x467 JUMPI DUP1 PUSH4 0x70A08231 EQ PUSH2 0x43B JUMPI DUP1 PUSH4 0x710820ED EQ PUSH2 0x419 JUMPI DUP1 PUSH4 0x715018A6 EQ PUSH2 0x3D1 JUMPI DUP1 PUSH4 0x79CC6790 EQ PUSH2 0x3A0 JUMPI DUP1 PUSH4 0x8DA5CB5B EQ PUSH2 0x378 JUMPI DUP1 PUSH4 0x91CCA3DB EQ PUSH2 0x350 JUMPI DUP1 PUSH4 0x95D89B41 EQ PUSH2 0x24D JUMPI DUP1 PUSH4 0xA9059CBB EQ PUSH2 0x21D JUMPI DUP1 PUSH4 0xB4A7A187 EQ PUSH2 0x1FF JUMPI DUP1 PUSH4 0xDD62ED3E EQ PUSH2 0x1B6 JUMPI PUSH4 0xF2FDE38B EQ PUSH2 0x13E JUMPI PUSH0 DUP1 REVERT JUMPDEST CALLVALUE PUSH2 0x1B2 JUMPI PUSH1 0x20 CALLDATASIZE PUSH1 0x3 NOT ADD SLT PUSH2 0x1B2 JUMPI PUSH2 0x157 PUSH2 0x91A JUMP JUMPDEST SWAP1 PUSH2 0x160 PUSH2 0x960 JUMP JUMPDEST PUSH1 0x1 PUSH1 0x1 PUSH1 0xA0 SHL SUB SWAP2 DUP3 AND SWAP3 DUP4 ISZERO PUSH2 0x19C JUMPI POP POP PUSH1 0x5 DUP1 SLOAD PUSH1 0x1 PUSH1 0x1 PUSH1 0xA0 SHL SUB NOT DUP2 AND DUP5 OR SWAP1 SWAP2 SSTORE AND PUSH0 DUP1 MLOAD PUSH1 0x20 PUSH2 0x10A0 DUP4 CODECOPY DUP2 MLOAD SWAP2 MSTORE PUSH0 DUP1 LOG3 STOP JUMPDEST SWAP1 PUSH0 PUSH1 0x24 SWAP3 MLOAD SWAP2 PUSH4 0x1E4FBDF7 PUSH1 0xE0 SHL DUP4 MSTORE DUP3 ADD MSTORE REVERT JUMPDEST PUSH0 DUP1 REVERT JUMPDEST DUP3 CALLVALUE PUSH2 0x1B2 JUMPI DUP1 PUSH1 0x3 NOT CALLDATASIZE ADD SLT PUSH2 0x1B2 JUMPI PUSH1 0x20 SWAP1 PUSH2 0x1D2 PUSH2 0x91A JUMP JUMPDEST PUSH2 0x1DA PUSH2 0x930 JUMP JUMPDEST SWAP1 PUSH1 0x1 DUP1 PUSH1 0xA0 SHL SUB DUP1 SWAP2 AND PUSH0 MSTORE PUSH1 0x1 DUP5 MSTORE DUP3 PUSH0 KECCAK256 SWAP2 AND PUSH0 MSTORE DUP3 MSTORE DUP1 PUSH0 KECCAK256 SLOAD SWAP1 MLOAD SWAP1 DUP2 MSTORE RETURN JUMPDEST DUP3 CALLVALUE PUSH2 0x1B2 JUMPI PUSH0 CALLDATASIZE PUSH1 0x3 NOT ADD SLT PUSH2 0x1B2 JUMPI PUSH1 0x20 SWAP1 PUSH1 0xD SLOAD SWAP1 MLOAD SWAP1 DUP2 MSTORE RETURN JUMPDEST DUP3 CALLVALUE PUSH2 0x1B2 JUMPI DUP1 PUSH1 0x3 NOT CALLDATASIZE ADD SLT PUSH2 0x1B2 JUMPI PUSH1 0x20 SWAP1 PUSH2 0x246 PUSH2 0x23C PUSH2 0x91A JUMP JUMPDEST PUSH1 0x24 CALLDATALOAD SWAP1 CALLER PUSH2 0x98C JUMP JUMPDEST MLOAD PUSH1 0x1 DUP2 MSTORE RETURN JUMPDEST POP SWAP1 CALLVALUE PUSH2 0x1B2 JUMPI PUSH0 CALLDATASIZE PUSH1 0x3 NOT ADD SLT PUSH2 0x1B2 JUMPI DUP1 MLOAD SWAP1 PUSH0 DUP4 SLOAD PUSH1 0x1 DUP2 PUSH1 0x1 SHR SWAP1 PUSH1 0x1 DUP4 AND SWAP3 DUP4 ISZERO PUSH2 0x346 JUMPI JUMPDEST PUSH1 0x20 SWAP4 DUP5 DUP5 LT DUP2 EQ PUSH2 0x333 JUMPI DUP4 DUP9 MSTORE SWAP1 DUP2 ISZERO PUSH2 0x317 JUMPI POP PUSH1 0x1 EQ PUSH2 0x2DF JUMPI JUMPDEST POP POP POP DUP3 SWAP1 SUB PUSH1 0x1F ADD PUSH1 0x1F NOT AND DUP3 ADD SWAP3 PUSH1 0x1 PUSH1 0x1 PUSH1 0x40 SHL SUB DUP5 GT DUP4 DUP6 LT OR PUSH2 0x2CC JUMPI POP DUP3 SWAP2 DUP3 PUSH2 0x2C8 SWAP3 MSTORE DUP3 PUSH2 0x8F0 JUMP JUMPDEST SUB SWAP1 RETURN JUMPDEST PUSH1 0x41 SWAP1 PUSH4 0x4E487B71 PUSH1 0xE0 SHL PUSH0 MSTORE MSTORE PUSH1 0x24 PUSH0 REVERT JUMPDEST SWAP2 SWAP3 POP DUP6 PUSH0 MSTORE DUP3 PUSH0 KECCAK256 SWAP2 DUP4 PUSH0 SWAP4 JUMPDEST DUP4 DUP6 LT PUSH2 0x303 JUMPI POP POP POP POP DUP4 ADD ADD PUSH0 DUP1 DUP1 PUSH2 0x297 JUMP JUMPDEST DUP1 SLOAD DUP9 DUP7 ADD DUP4 ADD MSTORE SWAP4 ADD SWAP3 DUP5 SWAP1 DUP3 ADD PUSH2 0x2ED JUMP JUMPDEST PUSH1 0xFF NOT AND DUP8 DUP6 ADD MSTORE POP POP ISZERO ISZERO PUSH1 0x5 SHL DUP5 ADD ADD SWAP1 POP PUSH0 DUP1 DUP1 PUSH2 0x297 JUMP JUMPDEST PUSH1 0x22 DUP10 PUSH4 0x4E487B71 PUSH1 0xE0 SHL PUSH0 MSTORE MSTORE PUSH1 0x24 PUSH0 REVERT JUMPDEST SWAP2 PUSH1 0x7F AND SWAP2 PUSH2 0x278 JUMP JUMPDEST DUP3 CALLVALUE PUSH2 0x1B2 JUMPI PUSH0 CALLDATASIZE PUSH1 0x3 NOT ADD SLT PUSH2 0x1B2 JUMPI PUSH1 0x6 SLOAD SWAP1 MLOAD PUSH1 0x1 PUSH1 0x1 PUSH1 0xA0 SHL SUB SWAP1 SWAP2 AND DUP2 MSTORE PUSH1 0x20 SWAP1 RETURN JUMPDEST DUP3 CALLVALUE PUSH2 0x1B2 JUMPI PUSH0 CALLDATASIZE PUSH1 0x3 NOT ADD SLT PUSH2 0x1B2 JUMPI PUSH1 0x5 SLOAD SWAP1 MLOAD PUSH1 0x1 PUSH1 0x1 PUSH1 0xA0 SHL SUB SWAP1 SWAP2 AND DUP2 MSTORE PUSH1 0x20 SWAP1 RETURN JUMPDEST DUP3 CALLVALUE PUSH2 0x1B2 JUMPI CALLDATASIZE PUSH1 0x3 NOT ADD SLT PUSH2 0x1B2 JUMPI PUSH2 0x3CF PUSH2 0x3BB PUSH2 0x91A JUMP JUMPDEST PUSH1 0x24 CALLDATALOAD SWAP1 PUSH2 0x3CA DUP3 CALLER DUP4 PUSH2 0x9FE JUMP JUMPDEST PUSH2 0xABD JUMP JUMPDEST STOP JUMPDEST CALLVALUE PUSH2 0x1B2 JUMPI PUSH0 CALLDATASIZE PUSH1 0x3 NOT ADD SLT PUSH2 0x1B2 JUMPI PUSH2 0x3E9 PUSH2 0x960 JUMP JUMPDEST PUSH1 0x5 DUP1 SLOAD PUSH1 0x1 PUSH1 0x1 PUSH1 0xA0 SHL SUB NOT DUP2 AND SWAP1 SWAP2 SSTORE PUSH0 SWAP1 PUSH1 0x1 PUSH1 0x1 PUSH1 0xA0 SHL SUB AND PUSH0 DUP1 MLOAD PUSH1 0x20 PUSH2 0x10A0 DUP4 CODECOPY DUP2 MLOAD SWAP2 MSTORE DUP3 DUP1 LOG3 STOP JUMPDEST DUP3 CALLVALUE PUSH2 0x1B2 JUMPI PUSH0 CALLDATASIZE PUSH1 0x3 NOT ADD SLT PUSH2 0x1B2 JUMPI PUSH1 0x20 SWAP1 PUSH2 0xFFFF PUSH1 0xB SLOAD AND SWAP1 MLOAD SWAP1 DUP2 MSTORE RETURN JUMPDEST DUP3 CALLVALUE PUSH2 0x1B2 JUMPI PUSH1 0x20 CALLDATASIZE PUSH1 0x3 NOT ADD SLT PUSH2 0x1B2 JUMPI PUSH1 0x20 SWAP1 PUSH2 0x460 PUSH2 0x45B PUSH2 0x91A JUMP JUMPDEST PUSH2 0x946 JUMP JUMPDEST SWAP1 MLOAD SWAP1 DUP2 MSTORE RETURN JUMPDEST DUP3 CALLVALUE PUSH2 0x1B2 JUMPI PUSH0 CALLDATASIZE PUSH1 0x3 NOT ADD SLT PUSH2 0x1B2 JUMPI PUSH1 0x20 SWAP1 PUSH1 0xC SLOAD SWAP1 MLOAD SWAP1 DUP2 MSTORE RETURN JUMPDEST DUP3 CALLVALUE PUSH2 0x1B2 JUMPI PUSH0 CALLDATASIZE PUSH1 0x3 NOT ADD SLT PUSH2 0x1B2 JUMPI PUSH1 0x20 SWAP1 PUSH1 0x8 SLOAD SWAP1 MLOAD SWAP1 DUP2 MSTORE RETURN JUMPDEST DUP3 CALLVALUE PUSH2 0x1B2 JUMPI PUSH0 CALLDATASIZE PUSH1 0x3 NOT ADD SLT PUSH2 0x1B2 JUMPI PUSH1 0x20 SWAP1 PUSH2 0x460 PUSH2 0xB17 JUMP JUMPDEST POP CALLVALUE PUSH2 0x1B2 JUMPI PUSH1 0x20 CALLDATASIZE PUSH1 0x3 NOT ADD SLT PUSH2 0x1B2 JUMPI PUSH2 0x3CF SWAP1 CALLDATALOAD CALLER PUSH2 0xABD JUMP JUMPDEST POP CALLVALUE PUSH2 0x1B2 JUMPI PUSH1 0xA0 CALLDATASIZE PUSH1 0x3 NOT ADD SLT PUSH2 0x1B2 JUMPI PUSH2 0x4F6 PUSH2 0x91A JUMP JUMPDEST PUSH1 0x24 CALLDATALOAD SWAP1 PUSH1 0x44 CALLDATALOAD PUSH1 0x64 CALLDATALOAD SWAP1 PUSH1 0x84 CALLDATALOAD SWAP3 PUSH2 0xFFFF DUP5 AND DUP1 SWAP5 SUB PUSH2 0x1B2 JUMPI PUSH2 0x519 PUSH2 0x960 JUMP JUMPDEST PUSH1 0x6 SLOAD SWAP1 PUSH1 0x1 PUSH1 0x1 PUSH1 0xA0 SHL SUB SWAP1 DUP2 DUP4 AND PUSH2 0x5E4 JUMPI AND SWAP6 DUP7 ISZERO PUSH2 0x5A1 JUMPI POP PUSH1 0x1 PUSH1 0x1 PUSH1 0xA0 SHL SUB NOT AND DUP6 OR PUSH1 0x6 SSTORE PUSH1 0x8 DUP5 SWAP1 SSTORE PUSH1 0x9 DUP2 SWAP1 SSTORE PUSH1 0xA DUP3 SWAP1 SSTORE PUSH1 0xB DUP1 SLOAD PUSH2 0xFFFF NOT AND DUP5 OR SWAP1 SSTORE PUSH1 0xD DUP2 SWAP1 SSTORE DUP6 MLOAD SWAP4 DUP5 MSTORE PUSH1 0x20 DUP5 ADD MSTORE DUP3 DUP6 ADD MSTORE PUSH1 0x60 DUP3 ADD MSTORE PUSH32 0xA081934BDD1CE0C982F003F443899B864936FCB9D9DF105CA79A618FE3B03F2F SWAP1 PUSH1 0x80 SWAP1 LOG2 STOP JUMPDEST PUSH1 0x64 SWAP1 PUSH1 0x20 DUP10 MLOAD SWAP2 PUSH3 0x461BCD PUSH1 0xE5 SHL DUP4 MSTORE DUP3 ADD MSTORE PUSH1 0x1F PUSH1 0x24 DUP3 ADD MSTORE PUSH32 0x49726F6E4C6F636B546F6B656E3A205A65726F20646576206164647265737300 PUSH1 0x44 DUP3 ADD MSTORE REVERT JUMPDEST DUP9 MLOAD PUSH3 0x461BCD PUSH1 0xE5 SHL DUP2 MSTORE PUSH1 0x20 DUP2 DUP11 ADD MSTORE PUSH1 0x1E PUSH1 0x24 DUP3 ADD MSTORE PUSH32 0x49726F6E4C6F636B546F6B656E3A2044657620616C7265616479207365740000 PUSH1 0x44 DUP3 ADD MSTORE PUSH1 0x64 SWAP1 REVERT JUMPDEST DUP3 CALLVALUE PUSH2 0x1B2 JUMPI PUSH0 CALLDATASIZE PUSH1 0x3 NOT ADD SLT PUSH2 0x1B2 JUMPI PUSH1 0x20 SWAP1 MLOAD PUSH1 0x12 DUP2 MSTORE RETURN JUMPDEST POP CALLVALUE PUSH2 0x1B2 JUMPI PUSH1 0x20 CALLDATASIZE PUSH1 0x3 NOT ADD SLT PUSH2 0x1B2 JUMPI PUSH32 0xF8CC6C80B57C6ABE70B0FDADA2B8C21E6F11779D0EFBF266F0B87F38C149BC50 SWAP2 PUSH1 0x20 SWAP2 CALLDATALOAD SWAP1 PUSH2 0x683 PUSH2 0x960 JUMP JUMPDEST DUP2 PUSH1 0x7 SSTORE MLOAD SWAP1 DUP2 MSTORE LOG1 STOP JUMPDEST DUP3 CALLVALUE PUSH2 0x1B2 JUMPI PUSH0 CALLDATASIZE PUSH1 0x3 NOT ADD SLT PUSH2 0x1B2 JUMPI PUSH1 0x20 SWAP1 PUSH1 0x9 SLOAD SWAP1 MLOAD SWAP1 DUP2 MSTORE RETURN JUMPDEST DUP3 CALLVALUE PUSH2 0x1B2 JUMPI PUSH1 0x60 CALLDATASIZE PUSH1 0x3 NOT ADD SLT PUSH2 0x1B2 JUMPI PUSH1 0x20 SWAP1 PUSH2 0x246 PUSH2 0x6CC PUSH2 0x91A JUMP JUMPDEST PUSH2 0x6D4 PUSH2 0x930 JUMP JUMPDEST PUSH1 0x44 CALLDATALOAD SWAP2 PUSH2 0x6E3 DUP4 CALLER DUP4 PUSH2 0x9FE JUMP JUMPDEST PUSH2 0x98C JUMP JUMPDEST DUP3 CALLVALUE PUSH2 0x1B2 JUMPI PUSH0 CALLDATASIZE PUSH1 0x3 NOT ADD SLT PUSH2 0x1B2 JUMPI PUSH1 0x20 SWAP1 PUSH1 0x2 SLOAD SWAP1 MLOAD SWAP1 DUP2 MSTORE RETURN JUMPDEST DUP3 CALLVALUE PUSH2 0x1B2 JUMPI PUSH0 CALLDATASIZE PUSH1 0x3 NOT ADD SLT PUSH2 0x1B2 JUMPI PUSH1 0x20 SWAP1 PUSH1 0xA SLOAD SWAP1 MLOAD SWAP1 DUP2 MSTORE RETURN JUMPDEST DUP3 CALLVALUE PUSH2 0x1B2 JUMPI CALLDATASIZE PUSH1 0x3 NOT ADD SLT PUSH2 0x1B2 JUMPI PUSH2 0x3CF PUSH2 0x73F PUSH2 0x91A JUMP JUMPDEST PUSH2 0x747 PUSH2 0x960 JUMP JUMPDEST PUSH1 0x24 CALLDATALOAD SWAP1 ADDRESS PUSH2 0x98C JUMP JUMPDEST DUP3 CALLVALUE PUSH2 0x1B2 JUMPI PUSH0 CALLDATASIZE PUSH1 0x3 NOT ADD SLT PUSH2 0x1B2 JUMPI PUSH1 0x20 SWAP1 PUSH1 0x7 SLOAD SWAP1 MLOAD SWAP1 DUP2 MSTORE RETURN JUMPDEST POP SWAP1 CALLVALUE PUSH2 0x1B2 JUMPI DUP1 PUSH1 0x3 NOT CALLDATASIZE ADD SLT PUSH2 0x1B2 JUMPI PUSH2 0x789 PUSH2 0x91A JUMP JUMPDEST PUSH1 0x24 CALLDATALOAD SWAP1 CALLER ISZERO PUSH2 0x802 JUMPI PUSH1 0x1 PUSH1 0x1 PUSH1 0xA0 SHL SUB AND SWAP1 DUP2 ISZERO PUSH2 0x7EC JUMPI PUSH1 0x20 SWAP4 POP CALLER PUSH0 MSTORE PUSH1 0x1 DUP5 MSTORE DUP3 PUSH0 KECCAK256 DUP3 PUSH0 MSTORE DUP5 MSTORE DUP1 DUP4 PUSH0 KECCAK256 SSTORE DUP3 MLOAD SWAP1 DUP2 MSTORE PUSH32 0x8C5BE1E5EBEC7D5BD14F71427D1E84F3DD0314C0F7B2291E5B200AC8C7C3B925 DUP5 CALLER SWAP3 LOG3 MLOAD PUSH1 0x1 DUP2 MSTORE RETURN JUMPDEST DUP3 MLOAD PUSH4 0x4A1406B1 PUSH1 0xE1 SHL DUP2 MSTORE PUSH0 DUP2 DUP7 ADD MSTORE PUSH1 0x24 SWAP1 REVERT JUMPDEST DUP3 MLOAD PUSH4 0xE602DF05 PUSH1 0xE0 SHL DUP2 MSTORE PUSH0 DUP2 DUP7 ADD MSTORE PUSH1 0x24 SWAP1 REVERT JUMPDEST SWAP1 POP DUP3 CALLVALUE PUSH2 0x1B2 JUMPI PUSH0 CALLDATASIZE PUSH1 0x3 NOT ADD SLT PUSH2 0x1B2 JUMPI PUSH0 PUSH1 0x3 SLOAD PUSH1 0x1 DUP2 PUSH1 0x1 SHR SWAP1 PUSH1 0x1 DUP4 AND SWAP3 DUP4 ISZERO PUSH2 0x8E6 JUMPI JUMPDEST PUSH1 0x20 SWAP4 DUP5 DUP5 LT DUP2 EQ PUSH2 0x333 JUMPI DUP4 DUP9 MSTORE SWAP1 DUP2 ISZERO PUSH2 0x8CA JUMPI POP PUSH1 0x1 EQ PUSH2 0x891 JUMPI POP POP POP DUP3 SWAP1 SUB PUSH1 0x1F ADD PUSH1 0x1F NOT AND DUP3 ADD SWAP3 PUSH1 0x1 PUSH1 0x1 PUSH1 0x40 SHL SUB DUP5 GT DUP4 DUP6 LT OR PUSH2 0x2CC JUMPI POP DUP3 SWAP2 DUP3 PUSH2 0x2C8 SWAP3 MSTORE DUP3 PUSH2 0x8F0 JUMP JUMPDEST SWAP2 SWAP3 POP PUSH1 0x3 PUSH0 MSTORE DUP3 PUSH0 KECCAK256 SWAP2 DUP4 PUSH0 SWAP4 JUMPDEST DUP4 DUP6 LT PUSH2 0x8B6 JUMPI POP POP POP POP DUP4 ADD ADD DUP5 DUP1 DUP1 PUSH2 0x297 JUMP JUMPDEST DUP1 SLOAD DUP9 DUP7 ADD DUP4 ADD MSTORE SWAP4 ADD SWAP3 DUP5 SWAP1 DUP3 ADD PUSH2 0x8A0 JUMP JUMPDEST PUSH1 0xFF NOT AND DUP8 DUP6 ADD MSTORE POP POP ISZERO ISZERO PUSH1 0x5 SHL DUP5 ADD ADD SWAP1 POP DUP5 DUP1 DUP1 PUSH2 0x297 JUMP JUMPDEST SWAP2 PUSH1 0x7F AND SWAP2 PUSH2 0x842 JUMP JUMPDEST PUSH1 0x20 PUSH1 0x40 SWAP3 DUP2 DUP4 MSTORE DUP1 MLOAD SWAP2 DUP3 SWAP2 DUP3 DUP3 DUP7 ADD MSTORE ADD DUP5 DUP5 ADD MCOPY PUSH0 DUP3 DUP3 ADD DUP5 ADD MSTORE PUSH1 0x1F ADD PUSH1 0x1F NOT AND ADD ADD SWAP1 JUMP JUMPDEST PUSH1 0x4 CALLDATALOAD SWAP1 PUSH1 0x1 PUSH1 0x1 PUSH1 0xA0 SHL SUB DUP3 AND DUP3 SUB PUSH2 0x1B2 JUMPI JUMP JUMPDEST PUSH1 0x24 CALLDATALOAD SWAP1 PUSH1 0x1 PUSH1 0x1 PUSH1 0xA0 SHL SUB DUP3 AND DUP3 SUB PUSH2 0x1B2 JUMPI JUMP JUMPDEST PUSH1 0x1 PUSH1 0x1 PUSH1 0xA0 SHL SUB AND PUSH0 SWAP1 DUP2 MSTORE PUSH1 0x20 DUP2 SWAP1 MSTORE PUSH1 0x40 SWAP1 KECCAK256 SLOAD SWAP1 JUMP JUMPDEST PUSH1 0x5 SLOAD PUSH1 0x1 PUSH1 0x1 PUSH1 0xA0 SHL SUB AND CALLER SUB PUSH2 0x974 JUMPI JUMP JUMPDEST PUSH1 0x40 MLOAD PUSH4 0x118CDAA7 PUSH1 0xE0 SHL DUP2 MSTORE CALLER PUSH1 0x4 DUP3 ADD MSTORE PUSH1 0x24 SWAP1 REVERT JUMPDEST SWAP2 SWAP1 PUSH1 0x1 PUSH1 0x1 PUSH1 0xA0 SHL SUB DUP1 DUP5 AND ISZERO PUSH2 0x9C8 JUMPI DUP2 AND ISZERO PUSH2 0x9B0 JUMPI PUSH2 0x9AE SWAP3 PUSH2 0xD43 JUMP JUMPDEST JUMP JUMPDEST PUSH1 0x40 MLOAD PUSH4 0xEC442F05 PUSH1 0xE0 SHL DUP2 MSTORE PUSH0 PUSH1 0x4 DUP3 ADD MSTORE PUSH1 0x24 SWAP1 REVERT JUMPDEST PUSH1 0x40 MLOAD PUSH4 0x4B637E8F PUSH1 0xE1 SHL DUP2 MSTORE PUSH0 PUSH1 0x4 DUP3 ADD MSTORE PUSH1 0x24 SWAP1 REVERT JUMPDEST PUSH1 0x40 SWAP2 SWAP5 SWAP4 SWAP3 PUSH1 0x60 DUP3 ADD SWAP6 PUSH1 0x1 DUP1 PUSH1 0xA0 SHL SUB AND DUP3 MSTORE PUSH1 0x20 DUP3 ADD MSTORE ADD MSTORE JUMP JUMPDEST SWAP2 SWAP1 PUSH1 0x1 DUP1 PUSH1 0xA0 SHL SUB DUP1 SWAP4 AND SWAP3 DUP4 PUSH0 MSTORE PUSH1 0x1 PUSH1 0x20 MSTORE PUSH1 0x40 SWAP4 DUP5 PUSH0 KECCAK256 SWAP2 DUP4 AND SWAP2 DUP3 PUSH0 MSTORE PUSH1 0x20 MSTORE DUP5 PUSH0 KECCAK256 SLOAD SWAP3 PUSH0 NOT DUP5 LT PUSH2 0xA39 JUMPI JUMPDEST POP POP POP POP POP POP JUMP JUMPDEST DUP5 DUP5 LT PUSH2 0xA9B JUMPI POP DUP1 ISZERO PUSH2 0xA84 JUMPI DUP2 ISZERO PUSH2 0xA6D JUMPI PUSH0 MSTORE PUSH1 0x1 PUSH1 0x20 MSTORE DUP4 PUSH0 KECCAK256 SWAP1 PUSH0 MSTORE PUSH1 0x20 MSTORE SUB SWAP1 PUSH0 KECCAK256 SSTORE PUSH0 DUP1 DUP1 DUP1 DUP1 DUP1 PUSH2 0xA31 JUMP JUMPDEST DUP5 MLOAD PUSH4 0x4A1406B1 PUSH1 0xE1 SHL DUP2 MSTORE PUSH0 PUSH1 0x4 DUP3 ADD MSTORE PUSH1 0x24 SWAP1 REVERT JUMPDEST DUP5 MLOAD PUSH4 0xE602DF05 PUSH1 0xE0 SHL DUP2 MSTORE PUSH0 PUSH1 0x4 DUP3 ADD MSTORE PUSH1 0x24 SWAP1 REVERT JUMPDEST DUP4 SWAP1 PUSH2 0xAB9 DUP7 DUP9 MLOAD SWAP4 DUP5 SWAP4 PUSH4 0x7DC7A0D9 PUSH1 0xE1 SHL DUP6 MSTORE PUSH1 0x4 DUP6 ADD PUSH2 0x9E0 JUMP JUMPDEST SUB SWAP1 REVERT JUMPDEST SWAP1 PUSH1 0x1 PUSH1 0x1 PUSH1 0xA0 SHL SUB DUP3 AND ISZERO PUSH2 0x9C8 JUMPI PUSH2 0x9AE SWAP2 PUSH2 0xB78 JUMP JUMPDEST SWAP2 SWAP1 DUP3 ADD DUP1 SWAP3 GT PUSH2 0xAE3 JUMPI JUMP JUMPDEST PUSH4 0x4E487B71 PUSH1 0xE0 SHL PUSH0 MSTORE PUSH1 0x11 PUSH1 0x4 MSTORE PUSH1 0x24 PUSH0 REVERT JUMPDEST SWAP2 SWAP1 DUP3 SUB SWAP2 DUP3 GT PUSH2 0xAE3 JUMPI JUMP JUMPDEST DUP2 DUP2 MUL SWAP3 SWAP2 DUP2 ISZERO SWAP2 DUP5 DIV EQ OR ISZERO PUSH2 0xAE3 JUMPI JUMP JUMPDEST PUSH1 0x9 SLOAD DUP1 TIMESTAMP LT PUSH2 0xB73 JUMPI PUSH1 0xA SLOAD SWAP1 PUSH2 0xB2F DUP3 DUP3 PUSH2 0xAD6 JUMP JUMPDEST TIMESTAMP LT ISZERO PUSH2 0xB6B JUMPI PUSH2 0xB4D SWAP1 PUSH2 0xB47 PUSH1 0x8 SLOAD SWAP2 TIMESTAMP PUSH2 0xAF7 JUMP JUMPDEST SWAP1 PUSH2 0xB04 JUMP JUMPDEST DUP2 ISZERO PUSH2 0xB57 JUMPI DIV SWAP1 JUMP JUMPDEST PUSH4 0x4E487B71 PUSH1 0xE0 SHL PUSH0 MSTORE PUSH1 0x12 PUSH1 0x4 MSTORE PUSH1 0x24 PUSH0 REVERT JUMPDEST POP POP PUSH1 0x8 SLOAD SWAP1 JUMP JUMPDEST POP PUSH0 SWAP1 JUMP JUMPDEST PUSH1 0x1 PUSH1 0x1 PUSH1 0xA0 SHL SUB DUP2 DUP2 AND SWAP1 DUP2 ISZERO DUP1 ISZERO PUSH2 0xD3B JUMPI JUMPDEST PUSH2 0xBA4 JUMPI PUSH1 0x6 SLOAD AND SWAP1 DUP2 DUP2 EQ DUP1 PUSH2 0xD30 JUMPI JUMPDEST PUSH2 0xBB0 JUMPI JUMPDEST POP POP SWAP1 PUSH2 0x9AE SWAP2 PUSH2 0xF22 JUMP JUMPDEST PUSH1 0xD SLOAD PUSH3 0x15180 DUP2 ADD DUP1 SWAP2 GT PUSH2 0xAE3 JUMPI TIMESTAMP LT ISZERO PUSH2 0xD23 JUMPI JUMPDEST PUSH2 0x2710 PUSH2 0xC20 PUSH2 0xBDF PUSH2 0xBD9 PUSH2 0xB17 JUMP JUMPDEST SWAP5 PUSH2 0x946 JUMP JUMPDEST PUSH1 0x8 SLOAD SWAP5 DUP2 DUP7 GT ISZERO PUSH2 0xD1D JUMPI PUSH2 0xBF5 DUP3 DUP8 PUSH2 0xAF7 JUMP JUMPDEST DUP1 DUP3 GT ISZERO PUSH2 0xD14 JUMPI PUSH2 0xC06 SWAP2 PUSH2 0xAF7 JUMP JUMPDEST SWAP1 JUMPDEST DUP1 DUP3 LT ISZERO PUSH2 0xD0C JUMPI POP SWAP4 JUMPDEST PUSH2 0xFFFF PUSH1 0xB SLOAD AND SWAP1 PUSH2 0xB04 JUMP JUMPDEST DIV SWAP2 PUSH1 0xC SLOAD SWAP3 DUP4 DUP1 DUP3 GT PUSH0 EQ PUSH2 0xD04 JUMPI PUSH2 0xC39 SWAP2 PUSH2 0xAF7 JUMP JUMPDEST DUP1 DUP3 LT ISZERO PUSH2 0xCFD JUMPI POP JUMPDEST DUP5 GT PUSH2 0xC64 JUMPI POP SWAP1 PUSH2 0xC59 DUP4 PUSH2 0x9AE SWAP5 SWAP4 PUSH2 0xAD6 JUMP JUMPDEST PUSH1 0xC SSTORE SWAP1 SWAP2 PUSH0 PUSH2 0xBA4 JUMP JUMPDEST PUSH1 0xC0 PUSH0 DUP1 MLOAD PUSH1 0x20 PUSH2 0x10E0 DUP4 CODECOPY DUP2 MLOAD SWAP2 MSTORE SWAP2 DUP6 PUSH1 0x40 MLOAD SWAP2 DUP3 MSTORE PUSH0 PUSH1 0x20 DUP4 ADD MSTORE PUSH1 0x40 DUP3 ADD MSTORE PUSH1 0x80 PUSH1 0x60 DUP3 ADD MSTORE PUSH1 0x1A PUSH1 0x80 DUP3 ADD MSTORE PUSH26 0x115E18D959591CC819195D881D1C985B9CD9995C881B1A5B5A5D PUSH1 0x32 SHL PUSH1 0xA0 DUP3 ADD MSTORE LOG1 PUSH1 0x40 MLOAD PUSH3 0x461BCD PUSH1 0xE5 SHL DUP2 MSTORE PUSH1 0x20 PUSH1 0x4 DUP3 ADD MSTORE PUSH1 0x29 PUSH1 0x24 DUP3 ADD MSTORE PUSH0 DUP1 MLOAD PUSH1 0x20 PUSH2 0x1080 DUP4 CODECOPY DUP2 MLOAD SWAP2 MSTORE PUSH1 0x44 DUP3 ADD MSTORE PUSH9 0x19995C881B1A5B5A5D PUSH1 0xBA SHL PUSH1 0x64 DUP3 ADD MSTORE PUSH1 0x84 SWAP1 REVERT JUMPDEST SWAP1 POP PUSH2 0xC43 JUMP JUMPDEST POP POP PUSH0 PUSH2 0xC39 JUMP JUMPDEST SWAP1 POP SWAP4 PUSH2 0xC13 JUMP JUMPDEST POP POP PUSH0 SWAP1 PUSH2 0xC08 JUMP JUMPDEST PUSH0 PUSH2 0xBF5 JUMP JUMPDEST PUSH0 PUSH1 0xC SSTORE TIMESTAMP PUSH1 0xD SSTORE PUSH2 0xBC8 JUMP JUMPDEST POP PUSH1 0x8 SLOAD ISZERO ISZERO PUSH2 0xB9F JUMP JUMPDEST POP PUSH1 0x1 PUSH2 0xB8D JUMP JUMPDEST PUSH1 0x1 PUSH1 0x1 PUSH1 0xA0 SHL SUB SWAP4 SWAP3 SWAP2 SWAP1 DUP5 DUP2 AND DUP1 ISZERO DUP1 ISZERO PUSH2 0xF18 JUMPI JUMPDEST PUSH2 0xF0C JUMPI DUP6 PUSH1 0x6 SLOAD AND SWAP6 DUP7 DUP3 EQ DUP1 PUSH2 0xF01 JUMPI JUMPDEST PUSH2 0xD80 JUMPI JUMPDEST POP POP PUSH2 0x9AE SWAP4 SWAP5 POP PUSH2 0xFC4 JUMP JUMPDEST PUSH1 0xD SLOAD PUSH3 0x15180 DUP2 ADD DUP1 SWAP2 GT PUSH2 0xAE3 JUMPI TIMESTAMP LT ISZERO PUSH2 0xEF4 JUMPI JUMPDEST PUSH2 0x2710 PUSH2 0xDEF PUSH2 0xDAF PUSH2 0xDA9 PUSH2 0xB17 JUMP JUMPDEST SWAP10 PUSH2 0x946 JUMP JUMPDEST PUSH1 0x8 SLOAD SWAP10 DUP2 DUP12 GT ISZERO PUSH2 0xEEE JUMPI PUSH2 0xDC5 DUP3 DUP13 PUSH2 0xAF7 JUMP JUMPDEST DUP1 DUP3 GT ISZERO PUSH2 0xEE5 JUMPI PUSH2 0xDD6 SWAP2 PUSH2 0xAF7 JUMP JUMPDEST SWAP1 JUMPDEST DUP1 DUP3 LT ISZERO PUSH2 0xEDD JUMPI POP SWAP9 PUSH2 0xFFFF PUSH1 0xB SLOAD AND SWAP1 PUSH2 0xB04 JUMP JUMPDEST DIV SWAP7 PUSH1 0xC SLOAD SWAP8 DUP9 DUP1 DUP3 GT PUSH0 EQ PUSH2 0xED5 JUMPI PUSH2 0xE08 SWAP2 PUSH2 0xAF7 JUMP JUMPDEST DUP1 DUP3 LT ISZERO PUSH2 0xECE JUMPI POP JUMPDEST DUP6 GT PUSH2 0xE33 JUMPI POP POP PUSH2 0xE28 DUP4 PUSH2 0x9AE SWAP6 SWAP7 PUSH2 0xAD6 JUMP JUMPDEST PUSH1 0xC SSTORE DUP5 SWAP4 PUSH0 PUSH2 0xD73 JUMP JUMPDEST PUSH0 DUP1 MLOAD PUSH1 0x20 PUSH2 0x10E0 DUP4 CODECOPY DUP2 MLOAD SWAP2 MSTORE SWAP2 DUP6 PUSH1 0xC0 SWAP3 DUP7 PUSH1 0x40 MLOAD SWAP4 DUP5 MSTORE AND PUSH1 0x20 DUP4 ADD MSTORE PUSH1 0x40 DUP3 ADD MSTORE PUSH1 0x80 PUSH1 0x60 DUP3 ADD MSTORE PUSH1 0x1A PUSH1 0x80 DUP3 ADD MSTORE PUSH26 0x115E18D959591CC819195D881D1C985B9CD9995C881B1A5B5A5D PUSH1 0x32 SHL PUSH1 0xA0 DUP3 ADD MSTORE LOG1 PUSH1 0x40 MLOAD PUSH3 0x461BCD PUSH1 0xE5 SHL DUP2 MSTORE PUSH1 0x20 PUSH1 0x4 DUP3 ADD MSTORE PUSH1 0x29 PUSH1 0x24 DUP3 ADD MSTORE PUSH0 DUP1 MLOAD PUSH1 0x20 PUSH2 0x1080 DUP4 CODECOPY DUP2 MLOAD SWAP2 MSTORE PUSH1 0x44 DUP3 ADD MSTORE PUSH9 0x19995C881B1A5B5A5D PUSH1 0xBA SHL PUSH1 0x64 DUP3 ADD MSTORE PUSH1 0x84 SWAP1 REVERT JUMPDEST SWAP1 POP PUSH2 0xE12 JUMP JUMPDEST POP POP PUSH0 PUSH2 0xE08 JUMP JUMPDEST SWAP1 POP SWAP9 PUSH2 0xC13 JUMP JUMPDEST POP POP PUSH0 SWAP1 PUSH2 0xDD8 JUMP JUMPDEST PUSH0 PUSH2 0xDC5 JUMP JUMPDEST PUSH0 PUSH1 0xC SSTORE TIMESTAMP PUSH1 0xD SSTORE PUSH2 0xD98 JUMP JUMPDEST POP PUSH1 0x8 SLOAD ISZERO ISZERO PUSH2 0xD6E JUMP JUMPDEST POP PUSH2 0x9AE SWAP4 SWAP5 POP PUSH2 0xFC4 JUMP JUMPDEST POP DUP6 DUP4 AND ISZERO PUSH2 0xD5B JUMP JUMPDEST SWAP1 SWAP2 SWAP1 PUSH1 0x1 PUSH1 0x1 PUSH1 0xA0 SHL SUB DUP2 AND SWAP1 DUP2 PUSH2 0xF6A JUMPI POP PUSH0 DUP1 MLOAD PUSH1 0x20 PUSH2 0x10C0 DUP4 CODECOPY DUP2 MLOAD SWAP2 MSTORE PUSH1 0x20 DUP5 PUSH2 0xF55 PUSH0 SWAP6 SWAP7 PUSH1 0x2 SLOAD PUSH2 0xAD6 JUMP JUMPDEST PUSH1 0x2 SSTORE JUMPDEST DUP1 PUSH1 0x2 SLOAD SUB PUSH1 0x2 SSTORE PUSH1 0x40 MLOAD SWAP1 DUP2 MSTORE LOG3 JUMP JUMPDEST SWAP3 DUP2 PUSH0 MSTORE PUSH0 PUSH1 0x20 MSTORE PUSH1 0x40 PUSH0 KECCAK256 SLOAD SWAP4 DUP2 DUP6 LT PUSH2 0xFA6 JUMPI POP PUSH1 0x20 DUP2 PUSH0 DUP1 MLOAD PUSH1 0x20 PUSH2 0x10C0 DUP4 CODECOPY DUP2 MLOAD SWAP2 MSTORE SWAP3 PUSH0 SWAP6 SWAP7 DUP6 DUP8 MSTORE DUP7 DUP5 MSTORE SUB PUSH1 0x40 DUP7 KECCAK256 SSTORE PUSH2 0xF59 JUMP JUMPDEST PUSH2 0xAB9 DUP6 SWAP3 PUSH1 0x40 MLOAD SWAP4 DUP5 SWAP4 PUSH4 0x391434E3 PUSH1 0xE2 SHL DUP6 MSTORE PUSH1 0x4 DUP6 ADD PUSH2 0x9E0 JUMP JUMPDEST PUSH1 0x1 PUSH1 0x1 PUSH1 0xA0 SHL SUB DUP1 DUP3 AND SWAP3 SWAP1 SWAP2 DUP4 PUSH2 0x1028 JUMPI POP PUSH0 DUP1 MLOAD PUSH1 0x20 PUSH2 0x10C0 DUP4 CODECOPY DUP2 MLOAD SWAP2 MSTORE SWAP2 PUSH1 0x20 SWAP2 PUSH2 0xFF6 DUP7 PUSH1 0x2 SLOAD PUSH2 0xAD6 JUMP JUMPDEST PUSH1 0x2 SSTORE JUMPDEST AND SWAP4 DUP5 PUSH2 0x1013 JUMPI DUP1 PUSH1 0x2 SLOAD SUB PUSH1 0x2 SSTORE JUMPDEST PUSH1 0x40 MLOAD SWAP1 DUP2 MSTORE LOG3 JUMP JUMPDEST DUP5 PUSH0 MSTORE PUSH0 DUP3 MSTORE PUSH1 0x40 PUSH0 KECCAK256 DUP2 DUP2 SLOAD ADD SWAP1 SSTORE PUSH2 0x100A JUMP JUMPDEST DUP4 PUSH0 MSTORE PUSH0 PUSH1 0x20 MSTORE PUSH1 0x40 PUSH0 KECCAK256 SLOAD SWAP1 DUP6 DUP3 LT PUSH2 0x1062 JUMPI POP SWAP2 PUSH1 0x20 SWAP2 DUP6 PUSH0 DUP1 MLOAD PUSH1 0x20 PUSH2 0x10C0 DUP4 CODECOPY DUP2 MLOAD SWAP2 MSTORE SWAP5 DUP7 PUSH0 MSTORE PUSH0 DUP6 MSTORE SUB PUSH1 0x40 PUSH0 KECCAK256 SSTORE PUSH2 0xFFA JUMP JUMPDEST PUSH2 0xAB9 DUP7 PUSH1 0x40 MLOAD SWAP4 DUP5 SWAP4 PUSH4 0x391434E3 PUSH1 0xE2 SHL DUP6 MSTORE PUSH1 0x4 DUP6 ADD PUSH2 0x9E0 JUMP INVALID BLOBHASH PUSH19 0x6F6E4C6F636B546F6B656E3A20457863656564 PUSH20 0x20646576207472616E738BE0079C531659141344 0xCD 0x1F 0xD0 LOG4 CALLCODE DUP5 NOT BLOBHASH PUSH32 0x9722A3DAAFE3B4186F6B6457E0DDF252AD1BE2C89B69C2B068FC378DAA952BA7 CALL PUSH4 0xC4A11628 CREATE2 GAS 0x4D CREATE2 0x23 0xB3 0xEF 0x2B ADDMOD 0xC6 0xF8 PUSH12 0x1A55F24E77E45BC6C9C3D6AA 0xC5 0xD1 PUSH32 0xC6E7FB5A954BC01345D0B1DEA264697066735822122089ACAF05EEB26800C2F1 DUP2 LOG1 JUMPI CALLDATASIZE DUP11 0xE0 RETURNDATACOPY PUSH26 0x788FFD31B1C00BBCB092A357D71264736F6C634300081900334E GAS LOG2 EXTCODEHASH DUP9 SIGNEXTEND 0xBC 0xA9 PUSH11 0xED4C566A1CBE6E67FEB3C1 PUSH8 0xB58C9936CEE9CAD1 SIGNEXTEND LOG3 0xDD DUP12 0xE0 SMOD SWAP13 MSTORE8 AND MSIZE EQ SGT PREVRANDAO 0xCD 0x1F 0xD0 LOG4 CALLCODE DUP5 NOT BLOBHASH PUSH32 0x9722A3DAAFE3B4186F6B6457E0C9F6D06BCAE55CF8956320BE2EF6F7D1C0191F SWAP7 REVERT DUP16 SLT KECCAK256 0xDA 0xCE 0x4E 0xAD DUP13 MLOAD 0xC6 SDIV PUSH7 0xD6EF777E81DA2D 0xC5 JUMP 0xEC 0xF CHAINID 0xD7 GASPRICE 0xB6 PUSH22 0xE34930A794564F805E09CE6065E1889B779B17422D0D 0xF9 0x22 0x23 ADD DUP12 ORIGIN 0xB4 0xD1 STATICCALL CHAINID 0xE0 PUSH18 0x723D6817E2486D003BECC55F00A264697066 PUSH20 0x58221220B96C25E2F7139816E8C497FAB2C958DC TLOAD 0xAD CALLVALUE PUSH16 0x21DA250C8F4E5D689150B56E64736F6C PUSH4 0x43000819 STOP CALLER "},"methodIdentifiers":{"ANTI_SNIPE_MAX_BNB()":"b9148eee","ANTI_SNIPE_SECONDS()":"242fefd7","DAILY_SELL_CAP_BPS()":"5d35e54f","DEFAULT_LIQUIDITY_BPS()":"5b9605ea","DEV_STAKE_AMOUNT()":"e6cf8134","ELIGIBILITY_PROOF_TTL()":"96c6ce0e","MAX_DEV_BPS()":"f25ea8b5","MAX_LIQUIDITY_BPS()":"4e576dea","MAX_PRESALE_DAYS()":"a4883286","MIN_LIQUIDITY_BPS()":"75f0c2f0","MIN_LP_LOCK_DAYS()":"5712455f","MIN_PRESALE_DAYS()":"057e729e","MIN_SOFTCAP_BPS()":"212d25a6","MIN_UNIQUE_CONTRIBUTORS()":"63b8ce5f","MIN_VESTING_DAYS()":"685e4236","REPORT_THRESHOLD()":"4aa06447","addLiquidityToPancakeSwap(address)":"58a4cbd7","allTokens(uint256)":"634282af","antiSnipeContribs(address,address)":"91cb32a7","blacklistWallet(address,string)":"73458d10","castRefundVote(address,bool)":"0788a8a7","checkLaunchSuccess(address)":"b9af648c","claimDevStake(address)":"8afb309c","claimLPTokens(address)":"3f58cf1f","claimRefund(address)":"bffa55d5","contribute(address)":"73e888fd","contributions(address,address)":"29369ccf","devLastActivity(address)":"c1f7f9ac","devLaunchHistory(address,uint256)":"bee884d2","devRefundedLaunches(address)":"5ff51a9f","devStakes(address)":"e1a6ae38","devSuccessfulLaunches(address)":"0c91d19c","executeRefund(address)":"037c4886","getContribution(address,address)":"126eac43","getContributorCount(address)":"bd2f942d","getDevLaunchHistoryPaginated(address,uint256,uint256)":"a818fdcb","getDevStats(address)":"aa180cd6","getLPStatus(address)":"84f047d5","getSafetyScore(address)":"60bb3979","getTokenAccountingStatus(address)":"9c271174","getTokensPaginated(uint256,uint256)":"4238b692","hasContributed(address,address)":"bb2061b2","hasReported(address,address,address)":"9b0b26a2","insurancePool()":"ab2adc00","isBlacklisted(address)":"fe575a87","isBlockedContributor(address,address)":"dc67195f","isIronLockToken(address)":"887813b2","isRefundVoteActive(address)":"44198cc5","isRefundVotePassed(address)":"222e0cf1","launchFee()":"cf3cf573","launchToken(string,string,uint256,uint256,uint256,uint256,uint16,uint256,bytes,uint256,uint256)":"84d232b5","liquidityAdded(address)":"5dd8ba88","lpLockedAmount(address)":"391df7c9","lpUnlockTime(address)":"f67cd9cd","owner()":"8da5cb5b","pancakeRouter()":"c21ebd07","refundVotes(address)":"1b8028fb","releaseMilestone(address)":"4adabe09","renounceOwnership()":"715018a6","reportSuspiciousWallet(address,address,string)":"b65f1927","setLaunchFee(uint256)":"5313be2c","setPancakeRouter(address)":"f8316c90","setTreasury(address)":"f0f44260","setVerifier(address)":"5437988d","startRefundVote(address)":"b31e6087","suspiciousReportCount(address,address)":"4871b64a","tokenBnbBalance(address)":"43237d4a","tokenCount()":"9f181b5e","tokenLPPair(address)":"74e47336","tokens(address)":"e4860339","transferOwnership(address)":"f2fde38b","treasury()":"61d027b3","unblacklistWallet(address)":"5b34bc41","usedEligibilityProofs(uint256,address)":"d79ecf90","verifier()":"2b7ac3f3","withdrawStuckBNB(uint256,uint256)":"7e6b6464"}},"storageLayout":{"storage":[{"astId":8,"contract":"contracts/IronLockFactory.sol:IronLockFactory","label":"_owner","offset":0,"slot":"0","type":"t_address"},{"astId":8015,"contract":"contracts/IronLockFactory.sol:IronLockFactory","label":"tokens","offset":0,"slot":"1","type":"t_mapping(t_address,t_struct(TokenInfo)7997_storage)"},{"astId":8018,"contract":"contracts/IronLockFactory.sol:IronLockFactory","label":"allTokens","offset":0,"slot":"2","type":"t_array(t_address)dyn_storage"},{"astId":8023,"contract":"contracts/IronLockFactory.sol:IronLockFactory","label":"refundVotes","offset":0,"slot":"3","type":"t_mapping(t_address,t_struct(RefundVote)8010_storage)"},{"astId":8029,"contract":"contracts/IronLockFactory.sol:IronLockFactory","label":"contributions","offset":0,"slot":"4","type":"t_mapping(t_address,t_mapping(t_address,t_uint256))"},{"astId":8035,"contract":"contracts/IronLockFactory.sol:IronLockFactory","label":"antiSnipeContribs","offset":0,"slot":"5","type":"t_mapping(t_address,t_mapping(t_address,t_uint256))"},{"astId":8039,"contract":"contracts/IronLockFactory.sol:IronLockFactory","label":"isIronLockToken","offset":0,"slot":"6","type":"t_mapping(t_address,t_bool)"},{"astId":8043,"contract":"contracts/IronLockFactory.sol:IronLockFactory","label":"devLastActivity","offset":0,"slot":"7","type":"t_mapping(t_address,t_uint256)"},{"astId":8045,"contract":"contracts/IronLockFactory.sol:IronLockFactory","label":"verifier","offset":0,"slot":"8","type":"t_address"},{"astId":8051,"contract":"contracts/IronLockFactory.sol:IronLockFactory","label":"usedEligibilityProofs","offset":0,"slot":"9","type":"t_mapping(t_uint256,t_mapping(t_address,t_bool))"},{"astId":8055,"contract":"contracts/IronLockFactory.sol:IronLockFactory","label":"isBlacklisted","offset":0,"slot":"10","type":"t_mapping(t_address,t_bool)"},{"astId":8058,"contract":"contracts/IronLockFactory.sol:IronLockFactory","label":"launchFee","offset":0,"slot":"11","type":"t_uint256"},{"astId":8065,"contract":"contracts/IronLockFactory.sol:IronLockFactory","label":"devStakes","offset":0,"slot":"12","type":"t_mapping(t_address,t_uint256)"},{"astId":8067,"contract":"contracts/IronLockFactory.sol:IronLockFactory","label":"insurancePool","offset":0,"slot":"13","type":"t_uint256"},{"astId":8069,"contract":"contracts/IronLockFactory.sol:IronLockFactory","label":"treasury","offset":0,"slot":"14","type":"t_address"},{"astId":8071,"contract":"contracts/IronLockFactory.sol:IronLockFactory","label":"pancakeRouter","offset":0,"slot":"15","type":"t_address"},{"astId":8075,"contract":"contracts/IronLockFactory.sol:IronLockFactory","label":"tokenLPPair","offset":0,"slot":"16","type":"t_mapping(t_address,t_address)"},{"astId":8079,"contract":"contracts/IronLockFactory.sol:IronLockFactory","label":"lpLockedAmount","offset":0,"slot":"17","type":"t_mapping(t_address,t_uint256)"},{"astId":8083,"contract":"contracts/IronLockFactory.sol:IronLockFactory","label":"lpUnlockTime","offset":0,"slot":"18","type":"t_mapping(t_address,t_uint256)"},{"astId":8087,"contract":"contracts/IronLockFactory.sol:IronLockFactory","label":"liquidityAdded","offset":0,"slot":"19","type":"t_mapping(t_address,t_bool)"},{"astId":8091,"contract":"contracts/IronLockFactory.sol:IronLockFactory","label":"tokenBnbBalance","offset":0,"slot":"20","type":"t_mapping(t_address,t_uint256)"},{"astId":8096,"contract":"contracts/IronLockFactory.sol:IronLockFactory","label":"devLaunchHistory","offset":0,"slot":"21","type":"t_mapping(t_address,t_array(t_address)dyn_storage)"},{"astId":8100,"contract":"contracts/IronLockFactory.sol:IronLockFactory","label":"devSuccessfulLaunches","offset":0,"slot":"22","type":"t_mapping(t_address,t_uint256)"},{"astId":8104,"contract":"contracts/IronLockFactory.sol:IronLockFactory","label":"devRefundedLaunches","offset":0,"slot":"23","type":"t_mapping(t_address,t_uint256)"},{"astId":8110,"contract":"contracts/IronLockFactory.sol:IronLockFactory","label":"hasContributed","offset":0,"slot":"24","type":"t_mapping(t_address,t_mapping(t_address,t_bool))"},{"astId":8116,"contract":"contracts/IronLockFactory.sol:IronLockFactory","label":"isBlockedContributor","offset":0,"slot":"25","type":"t_mapping(t_address,t_mapping(t_address,t_bool))"},{"astId":8122,"contract":"contracts/IronLockFactory.sol:IronLockFactory","label":"suspiciousReportCount","offset":0,"slot":"26","type":"t_mapping(t_address,t_mapping(t_address,t_uint256))"},{"astId":8130,"contract":"contracts/IronLockFactory.sol:IronLockFactory","label":"hasReported","offset":0,"slot":"27","type":"t_mapping(t_address,t_mapping(t_address,t_mapping(t_address,t_bool)))"}],"types":{"t_address":{"encoding":"inplace","label":"address","numberOfBytes":"20"},"t_array(t_address)dyn_storage":{"base":"t_address","encoding":"dynamic_array","label":"address[]","numberOfBytes":"32"},"t_bool":{"encoding":"inplace","label":"bool","numberOfBytes":"1"},"t_mapping(t_address,t_address)":{"encoding":"mapping","key":"t_address","label":"mapping(address => address)","numberOfBytes":"32","value":"t_address"},"t_mapping(t_address,t_array(t_address)dyn_storage)":{"encoding":"mapping","key":"t_address","label":"mapping(address => address[])","numberOfBytes":"32","value":"t_array(t_address)dyn_storage"},"t_mapping(t_address,t_bool)":{"encoding":"mapping","key":"t_address","label":"mapping(address => bool)","numberOfBytes":"32","value":"t_bool"},"t_mapping(t_address,t_mapping(t_address,t_bool))":{"encoding":"mapping","key":"t_address","label":"mapping(address => mapping(address => bool))","numberOfBytes":"32","value":"t_mapping(t_address,t_bool)"},"t_mapping(t_address,t_mapping(t_address,t_mapping(t_address,t_bool)))":{"encoding":"mapping","key":"t_address","label":"mapping(address => mapping(address => mapping(address => bool)))","numberOfBytes":"32","value":"t_mapping(t_address,t_mapping(t_address,t_bool))"},"t_mapping(t_address,t_mapping(t_address,t_uint256))":{"encoding":"mapping","key":"t_address","label":"mapping(address => mapping(address => uint256))","numberOfBytes":"32","value":"t_mapping(t_address,t_uint256)"},"t_mapping(t_address,t_struct(RefundVote)8010_storage)":{"encoding":"mapping","key":"t_address","label":"mapping(address => struct IronLockFactory.RefundVote)","numberOfBytes":"32","value":"t_struct(RefundVote)8010_storage"},"t_mapping(t_address,t_struct(TokenInfo)7997_storage)":{"encoding":"mapping","key":"t_address","label":"mapping(address => struct IronLockFactory.TokenInfo)","numberOfBytes":"32","value":"t_struct(TokenInfo)7997_storage"},"t_mapping(t_address,t_uint256)":{"encoding":"mapping","key":"t_address","label":"mapping(address => uint256)","numberOfBytes":"32","value":"t_uint256"},"t_mapping(t_uint256,t_mapping(t_address,t_bool))":{"encoding":"mapping","key":"t_uint256","label":"mapping(uint256 => mapping(address => bool))","numberOfBytes":"32","value":"t_mapping(t_address,t_bool)"},"t_string_storage":{"encoding":"bytes","label":"string","numberOfBytes":"32"},"t_struct(RefundVote)8010_storage":{"encoding":"inplace","label":"struct IronLockFactory.RefundVote","members":[{"astId":7999,"contract":"contracts/IronLockFactory.sol:IronLockFactory","label":"startTime","offset":0,"slot":"0","type":"t_uint256"},{"astId":8001,"contract":"contracts/IronLockFactory.sol:IronLockFactory","label":"yesVotes","offset":0,"slot":"1","type":"t_uint256"},{"astId":8003,"contract":"contracts/IronLockFactory.sol:IronLockFactory","label":"totalVotes","offset":0,"slot":"2","type":"t_uint256"},{"astId":8005,"contract":"contracts/IronLockFactory.sol:IronLockFactory","label":"executed","offset":0,"slot":"3","type":"t_bool"},{"astId":8009,"contract":"contracts/IronLockFactory.sol:IronLockFactory","label":"hasVoted","offset":0,"slot":"4","type":"t_mapping(t_address,t_bool)"}],"numberOfBytes":"160"},"t_struct(TokenInfo)7997_storage":{"encoding":"inplace","label":"struct IronLockFactory.TokenInfo","members":[{"astId":7942,"contract":"contracts/IronLockFactory.sol:IronLockFactory","label":"tokenAddress","offset":0,"slot":"0","type":"t_address"},{"astId":7944,"contract":"contracts/IronLockFactory.sol:IronLockFactory","label":"dev","offset":0,"slot":"1","type":"t_address"},{"astId":7946,"contract":"contracts/IronLockFactory.sol:IronLockFactory","label":"name","offset":0,"slot":"2","type":"t_string_storage"},{"astId":7948,"contract":"contracts/IronLockFactory.sol:IronLockFactory","label":"symbol","offset":0,"slot":"3","type":"t_string_storage"},{"astId":7950,"contract":"contracts/IronLockFactory.sol:IronLockFactory","label":"totalSupply","offset":0,"slot":"4","type":"t_uint256"},{"astId":7952,"contract":"contracts/IronLockFactory.sol:IronLockFactory","label":"raiseCap","offset":0,"slot":"5","type":"t_uint256"},{"astId":7954,"contract":"contracts/IronLockFactory.sol:IronLockFactory","label":"totalRaised","offset":0,"slot":"6","type":"t_uint256"},{"astId":7956,"contract":"contracts/IronLockFactory.sol:IronLockFactory","label":"lpLockDays","offset":0,"slot":"7","type":"t_uint256"},{"astId":7958,"contract":"contracts/IronLockFactory.sol:IronLockFactory","label":"vestingDays","offset":0,"slot":"8","type":"t_uint256"},{"astId":7960,"contract":"contracts/IronLockFactory.sol:IronLockFactory","label":"devAllocationBps","offset":0,"slot":"9","type":"t_uint16"},{"astId":7962,"contract":"contracts/IronLockFactory.sol:IronLockFactory","label":"launchTime","offset":0,"slot":"10","type":"t_uint256"},{"astId":7964,"contract":"contracts/IronLockFactory.sol:IronLockFactory","label":"antiSnipeEnd","offset":0,"slot":"11","type":"t_uint256"},{"astId":7966,"contract":"contracts/IronLockFactory.sol:IronLockFactory","label":"milestoneReleased","offset":0,"slot":"12","type":"t_uint8"},{"astId":7968,"contract":"contracts/IronLockFactory.sol:IronLockFactory","label":"milestone1Time","offset":0,"slot":"13","type":"t_uint256"},{"astId":7970,"contract":"contracts/IronLockFactory.sol:IronLockFactory","label":"milestone2Time","offset":0,"slot":"14","type":"t_uint256"},{"astId":7972,"contract":"contracts/IronLockFactory.sol:IronLockFactory","label":"milestone3Time","offset":0,"slot":"15","type":"t_uint256"},{"astId":7974,"contract":"contracts/IronLockFactory.sol:IronLockFactory","label":"safetyScore","offset":0,"slot":"16","type":"t_uint8"},{"astId":7976,"contract":"contracts/IronLockFactory.sol:IronLockFactory","label":"active","offset":1,"slot":"16","type":"t_bool"},{"astId":7978,"contract":"contracts/IronLockFactory.sol:IronLockFactory","label":"refundVoteActive","offset":2,"slot":"16","type":"t_bool"},{"astId":7980,"contract":"contracts/IronLockFactory.sol:IronLockFactory","label":"maxContributionPerWallet","offset":0,"slot":"17","type":"t_uint256"},{"astId":7982,"contract":"contracts/IronLockFactory.sol:IronLockFactory","label":"uniqueContributorCount","offset":0,"slot":"18","type":"t_uint256"},{"astId":7984,"contract":"contracts/IronLockFactory.sol:IronLockFactory","label":"liquidityBps","offset":0,"slot":"19","type":"t_uint16"},{"astId":7986,"contract":"contracts/IronLockFactory.sol:IronLockFactory","label":"liquidityBNB","offset":0,"slot":"20","type":"t_uint256"},{"astId":7988,"contract":"contracts/IronLockFactory.sol:IronLockFactory","label":"devBNB","offset":0,"slot":"21","type":"t_uint256"},{"astId":7990,"contract":"contracts/IronLockFactory.sol:IronLockFactory","label":"softCap","offset":0,"slot":"22","type":"t_uint256"},{"astId":7992,"contract":"contracts/IronLockFactory.sol:IronLockFactory","label":"presaleEnd","offset":0,"slot":"23","type":"t_uint256"},{"astId":7994,"contract":"contracts/IronLockFactory.sol:IronLockFactory","label":"softCapHit","offset":0,"slot":"24","type":"t_bool"},{"astId":7996,"contract":"contracts/IronLockFactory.sol:IronLockFactory","label":"autoRefunded","offset":1,"slot":"24","type":"t_bool"}],"numberOfBytes":"800"},"t_uint16":{"encoding":"inplace","label":"uint16","numberOfBytes":"2"},"t_uint256":{"encoding":"inplace","label":"uint256","numberOfBytes":"32"},"t_uint8":{"encoding":"inplace","label":"uint8","numberOfBytes":"1"}}}}}}