{
  "_format": "hh-sol-artifact-1",
  "contractName": "MockPancakeRouter",
  "sourceName": "contracts/mocks/MockPancakeRouter.sol",
  "abi": [
    {
      "inputs": [],
      "stateMutability": "nonpayable",
      "type": "constructor"
    },
    {
      "inputs": [],
      "name": "WETH",
      "outputs": [
        {
          "internalType": "address",
          "name": "",
          "type": "address"
        }
      ],
      "stateMutability": "view",
      "type": "function"
    },
    {
      "inputs": [
        {
          "internalType": "address",
          "name": "token",
          "type": "address"
        },
        {
          "internalType": "uint256",
          "name": "",
          "type": "uint256"
        },
        {
          "internalType": "uint256",
          "name": "",
          "type": "uint256"
        },
        {
          "internalType": "uint256",
          "name": "",
          "type": "uint256"
        },
        {
          "internalType": "address",
          "name": "to",
          "type": "address"
        },
        {
          "internalType": "uint256",
          "name": "",
          "type": "uint256"
        }
      ],
      "name": "addLiquidityETH",
      "outputs": [
        {
          "internalType": "uint256",
          "name": "amountToken",
          "type": "uint256"
        },
        {
          "internalType": "uint256",
          "name": "amountETH",
          "type": "uint256"
        },
        {
          "internalType": "uint256",
          "name": "liquidity",
          "type": "uint256"
        }
      ],
      "stateMutability": "payable",
      "type": "function"
    },
    {
      "inputs": [],
      "name": "factory",
      "outputs": [
        {
          "internalType": "address",
          "name": "",
          "type": "address"
        }
      ],
      "stateMutability": "view",
      "type": "function"
    },
    {
      "inputs": [],
      "name": "factoryAddr",
      "outputs": [
        {
          "internalType": "address",
          "name": "",
          "type": "address"
        }
      ],
      "stateMutability": "view",
      "type": "function"
    },
    {
      "inputs": [],
      "name": "lpToken",
      "outputs": [
        {
          "internalType": "contract MockLPToken",
          "name": "",
          "type": "address"
        }
      ],
      "stateMutability": "view",
      "type": "function"
    },
    {
      "inputs": [],
      "name": "wethAddr",
      "outputs": [
        {
          "internalType": "address",
          "name": "",
          "type": "address"
        }
      ],
      "stateMutability": "view",
      "type": "function"
    }
  ],
  "bytecode": "0x60e080604052346100df576001600160401b03906109a8818101838111838210176100cb5782916104f5833903905ff080156100c05760808190526040516001600160a01b0392909161018491828401908111848210176100cb57848492602094610e9d85391681520301905ff080156100c0571660a05273bb4cdb9cbd36b01bd1cbaebf2de08d9173bc095c60c05260405161041190816100e4823960805181818161012401526102ed015260a05181610375015260c051816103310152f35b6040513d5f823e3d90fd5b634e487b7160e01b5f52604160045260245ffd5b5f80fdfe6080604090808252600480361015610015575f80fd5b5f915f3560e01c9081635fcbd285146102db575080637d5aa5f4146102d6578063963671be146102d1578063ad5c4648146102d6578063c45a0155146102d15763f305d71914610063575f80fd5b60c03660031901126101d7576001600160a01b038135818116949192908590036101d757608435908382168092036101d75782516370a0823160e01b8082523383830152602093602492858185818d5afa908115610264578a87915f936102a1575b5060645f938a5194859384926323b872dd60e01b8452338c850152308b85015260448401525af180156102645761026e575b5085518281523085820152858185818d5afa908115610264575f91610237575b50340196873411610225577f00000000000000000000000000000000000000000000000000000000000000001690813b156101d7575f9160448392895194859384926340c10f1960e01b84528a8401528c898401525af1801561021b576101ed575b509083929185519889938492835230908301525afa9384156101e257936101ae575b6060945081519384523490840152820152f35b80935084813d83116101db575b6101c581836103a4565b810103126101d757606093519261019b565b5f80fd5b503d6101bb565b8251903d90823e3d90fd5b9096506001600160401b0381116102085784525f9583610179565b50634e487b7160e01b5f90815260418352fd5b86513d5f823e3d90fd5b83601186634e487b7160e01b5f52525ffd5b90508581813d831161025d575b61024e81836103a4565b810103126101d757515f610117565b503d610244565b87513d5f823e3d90fd5b8581813d831161029a575b61028381836103a4565b810103126101d75751801515036101d7575f6100f7565b503d610279565b92505081813d83116102ca575b6102b881836103a4565b810103126101d75751858a60646100c5565b503d6102ae565b610360565b61031c565b346101d7575f3660031901126101d7577f00000000000000000000000000000000000000000000000000000000000000006001600160a01b03168152602090f35b346101d7575f3660031901126101d7576040517f00000000000000000000000000000000000000000000000000000000000000006001600160a01b03168152602090f35b346101d7575f3660031901126101d7576040517f00000000000000000000000000000000000000000000000000000000000000006001600160a01b03168152602090f35b601f909101601f19168101906001600160401b038211908210176103c757604052565b634e487b7160e01b5f52604160045260245ffdfea264697066735822122037d7665810d424e030a093d37c37d52605e21990d04bab66125f8279d4c2cb2c64736f6c634300081900336080346102d0576040906001600160401b0390808301828111828210176101e7578352600b81526020916a049726f6e4c6f636b204c560ac1b838301528351848101818110838211176101e7578552600390818152620494c560ec1b858201528351908382116101e7578254916001958684811c941680156102c6575b888510146102b2578190601f94858111610264575b508890858311600114610206575f926101fb575b50505f1982861b1c191690861b1783555b80519384116101e75760049586548681811c911680156101dd575b828210146101ca57838111610187575b508092851160011461012257509383949184925f95610117575b50501b925f19911b1c19161790555b516106d390816102d58239f35b015193505f806100fb565b92919084601f198116885f52855f20955f905b8983831061016d5750505010610154575b50505050811b01905561010a565b01519060f8845f19921b161c191690555f808080610146565b858701518955909701969485019488935090810190610135565b875f52815f208480880160051c8201928489106101c1575b0160051c019087905b8281106101b65750506100e1565b5f81550187906101a8565b9250819261019f565b602288634e487b7160e01b5f525260245ffd5b90607f16906100d1565b634e487b7160e01b5f52604160045260245ffd5b015190505f806100a5565b90889350601f19831691875f528a5f20925f5b8c82821061024e5750508411610237575b505050811b0183556100b6565b01515f1983881b60f8161c191690555f808061022a565b8385015186558c97909501949384019301610219565b909150855f52885f208580850160051c8201928b86106102a9575b918a91869594930160051c01915b82811061029b575050610091565b5f81558594508a910161028d565b9250819261027f565b634e487b7160e01b5f52602260045260245ffd5b93607f169361007c565b5f80fdfe6080604090808252600480361015610015575f80fd5b5f3560e01c91826306fdde031461049d57508163095ea7b3146103f557816318160ddd146103d757816323b872dd146102ef578163313ce567146102d457816340c10f191461024257816370a082311461020c57816395d89b411461010a57508063a9059cbb146100da5763dd62ed3e1461008e575f80fd5b346100d657806003193601126100d6576020906100a9610581565b6100b1610597565b9060018060a01b038091165f5260018452825f2091165f528252805f20549051908152f35b5f80fd5b50346100d657806003193601126100d6576020906101036100f9610581565b60243590336105cb565b5160018152f35b82346100d6575f3660031901126100d6578051905f835460018160011c9060018316928315610202575b60209384841081146101ef578388529081156101d3575060011461019b575b505050829003601f01601f19168201926001600160401b038411838510176101885750829182610184925282610557565b0390f35b604190634e487b7160e01b5f525260245ffd5b919250855f52825f2091835f935b8385106101bf5750505050830101848080610153565b8054888601830152930192849082016101a9565b60ff1916878501525050151560051b8401019050848080610153565b602289634e487b7160e01b5f525260245ffd5b91607f1691610134565b82346100d65760203660031901126100d6576020906001600160a01b03610231610581565b165f525f8252805f20549051908152f35b82346100d657806003193601126100d65761025b610581565b6001600160a01b031691602435919083156102bf57600254908382018092116102ac57505f925f8051602061067e8339815191529260209260025585855284835280852082815401905551908152a3005b601190634e487b7160e01b5f525260245ffd5b5f602492519163ec442f0560e01b8352820152fd5b82346100d6575f3660031901126100d6576020905160128152f35b9050346100d65760603660031901126100d65761030a610581565b610312610597565b906044359260018060a01b038216805f526001602052855f20335f52602052855f2054915f19831061034d575b6020876101038888886105cb565b8583106103b557811561039f57331561038957505f9081526001602090815286822033835281529086902091859003909155829061010361033f565b6024905f885191634a1406b160e11b8352820152fd5b6024905f88519163e602df0560e01b8352820152fd5b90506103d3858751938493637dc7a0d960e11b8552339085016105ad565b0390fd5b82346100d6575f3660031901126100d6576020906002549051908152f35b82346100d657806003193601126100d65761040e610581565b602435903315610487576001600160a01b03169081156104715760209350335f5260018452825f20825f52845280835f205582519081527f8c5be1e5ebec7d5bd14f71427d1e84f3dd0314c0f7b2291e5b200ac8c7c3b925843392a35160018152f35b8251634a1406b160e11b81525f81860152602490fd5b825163e602df0560e01b81525f81860152602490fd5b83346100d6575f3660031901126100d6575f60035460018160011c906001831692831561054d575b60209384841081146101ef578388529081156101d3575060011461051457505050829003601f01601f19168201926001600160401b038411838510176101885750829182610184925282610557565b91925060035f52825f2091835f935b8385106105395750505050830101848080610153565b805488860183015293019284908201610523565b91607f16916104c5565b602060409281835280519182918282860152018484015e5f828201840152601f01601f1916010190565b600435906001600160a01b03821682036100d657565b602435906001600160a01b03821682036100d657565b604091949392606082019560018060a01b0316825260208201520152565b916001600160a01b03808416928315610665571692831561064d57825f525f60205260405f2054908282106106305750815f8051602061067e83398151915292602092855f525f84520360405f2055845f5260405f20818154019055604051908152a3565b6103d38360405193849363391434e360e21b8552600485016105ad565b60405163ec442f0560e01b81525f6004820152602490fd5b604051634b637e8f60e11b81525f6004820152602490fdfeddf252ad1be2c89b69c2b068fc378daa952ba7f163c4a11628f55a4df523b3efa26469706673582212202096f57af2772732cf1b72725f617eb613f5b813ce8ae66996be19e6b0e221cf64736f6c6343000819003360a034606b57601f61018438819003918201601f19168301916001600160401b03831184841017606f57808492602094604052833981010312606b57516001600160a01b0381168103606b576080526040516101009081610084823960805181818160630152609b0152f35b5f80fd5b634e487b7160e01b5f52604160045260245ffdfe60808060405260043610156011575f80fd5b5f3560e01c9081639b4dc8cc14608b575063e6a4390514602f575f80fd5b3460875760403660031901126087576001600160a01b036004358181160360875760243581811603608757602090604051907f0000000000000000000000000000000000000000000000000000000000000000168152f35b5f80fd5b346087575f3660031901126087577f00000000000000000000000000000000000000000000000000000000000000006001600160a01b03168152602090f3fea26469706673582212207bcf7a40cfd3e168168088ca041e2a96b3580d923b09cbf3956da17d4070070664736f6c63430008190033",
  "linkReferences": {},
  "deployedLinkReferences": {}
}