{
  "_format": "hh-sol-artifact-1",
  "contractName": "MockPancakeFactory",
  "sourceName": "contracts/mocks/MockPancakeRouter.sol",
  "abi": [
    {
      "inputs": [
        {
          "internalType": "address",
          "name": "_lp",
          "type": "address"
        }
      ],
      "stateMutability": "nonpayable",
      "type": "constructor"
    },
    {
      "inputs": [
        {
          "internalType": "address",
          "name": "",
          "type": "address"
        },
        {
          "internalType": "address",
          "name": "",
          "type": "address"
        }
      ],
      "name": "getPair",
      "outputs": [
        {
          "internalType": "address",
          "name": "",
          "type": "address"
        }
      ],
      "stateMutability": "view",
      "type": "function"
    },
    {
      "inputs": [],
      "name": "lpAddress",
      "outputs": [
        {
          "internalType": "address",
          "name": "",
          "type": "address"
        }
      ],
      "stateMutability": "view",
      "type": "function"
    }
  ],
  "bytecode": "0x60a034606b57601f61018438819003918201601f19168301916001600160401b03831184841017606f57808492602094604052833981010312606b57516001600160a01b0381168103606b576080526040516101009081610084823960805181818160630152609b0152f35b5f80fd5b634e487b7160e01b5f52604160045260245ffdfe60808060405260043610156011575f80fd5b5f3560e01c9081639b4dc8cc14608b575063e6a4390514602f575f80fd5b3460875760403660031901126087576001600160a01b036004358181160360875760243581811603608757602090604051907f0000000000000000000000000000000000000000000000000000000000000000168152f35b5f80fd5b346087575f3660031901126087577f00000000000000000000000000000000000000000000000000000000000000006001600160a01b03168152602090f3fea26469706673582212202026fe1e85f5be8ad153419e551d7978b070c4d6a64f21ebc36d5eeacfaecbb464736f6c63430008190033",
  "linkReferences": {},
  "deployedLinkReferences": {}
}