{
  "_format": "hh-sol-artifact-1",
  "contractName": "IronLockFactory",
  "sourceName": "contracts/IronLockFactory.sol",
  "abi": [
    {
      "inputs": [],
      "stateMutability": "nonpayable",
      "type": "constructor"
    },
    {
      "inputs": [],
      "name": "AllReleased",
      "type": "error"
    },
    {
      "inputs": [],
      "name": "AlreadyClaimed",
      "type": "error"
    },
    {
      "inputs": [],
      "name": "AlreadyVoted",
      "type": "error"
    },
    {
      "inputs": [],
      "name": "AutoRefunded",
      "type": "error"
    },
    {
      "inputs": [],
      "name": "Blacklisted",
      "type": "error"
    },
    {
      "inputs": [],
      "name": "Blocked",
      "type": "error"
    },
    {
      "inputs": [],
      "name": "DevActiveRecently",
      "type": "error"
    },
    {
      "inputs": [],
      "name": "DevAllocTooHigh",
      "type": "error"
    },
    {
      "inputs": [],
      "name": "ECDSAInvalidSignature",
      "type": "error"
    },
    {
      "inputs": [
        {
          "internalType": "uint256",
          "name": "length",
          "type": "uint256"
        }
      ],
      "name": "ECDSAInvalidSignatureLength",
      "type": "error"
    },
    {
      "inputs": [
        {
          "internalType": "bytes32",
          "name": "s",
          "type": "bytes32"
        }
      ],
      "name": "ECDSAInvalidSignatureS",
      "type": "error"
    },
    {
      "inputs": [
        {
          "internalType": "uint256",
          "name": "total",
          "type": "uint256"
        },
        {
          "internalType": "uint256",
          "name": "max",
          "type": "uint256"
        }
      ],
      "name": "ExceedsPerWalletCap",
      "type": "error"
    },
    {
      "inputs": [],
      "name": "ExceedsRaiseCap",
      "type": "error"
    },
    {
      "inputs": [],
      "name": "ExceedsWithdrawable",
      "type": "error"
    },
    {
      "inputs": [],
      "name": "Executed",
      "type": "error"
    },
    {
      "inputs": [
        {
          "internalType": "uint256",
          "name": "days_",
          "type": "uint256"
        }
      ],
      "name": "InvalidDuration",
      "type": "error"
    },
    {
      "inputs": [
        {
          "internalType": "uint256",
          "name": "bps",
          "type": "uint256"
        }
      ],
      "name": "InvalidSoftcap",
      "type": "error"
    },
    {
      "inputs": [],
      "name": "LPAlreadyAdded",
      "type": "error"
    },
    {
      "inputs": [],
      "name": "LPLockTooShort",
      "type": "error"
    },
    {
      "inputs": [],
      "name": "LPStillLocked",
      "type": "error"
    },
    {
      "inputs": [],
      "name": "LiquidityAlreadyAdded",
      "type": "error"
    },
    {
      "inputs": [],
      "name": "LowBalance",
      "type": "error"
    },
    {
      "inputs": [],
      "name": "LowBalanceForRefund",
      "type": "error"
    },
    {
      "inputs": [],
      "name": "LowFeeOrStake",
      "type": "error"
    },
    {
      "inputs": [],
      "name": "LowTokens",
      "type": "error"
    },
    {
      "inputs": [
        {
          "internalType": "uint256",
          "name": "total",
          "type": "uint256"
        },
        {
          "internalType": "uint256",
          "name": "max",
          "type": "uint256"
        }
      ],
      "name": "MaxAntiSnipeBNB",
      "type": "error"
    },
    {
      "inputs": [],
      "name": "NameSymbolRequired",
      "type": "error"
    },
    {
      "inputs": [],
      "name": "Need51Percent",
      "type": "error"
    },
    {
      "inputs": [],
      "name": "NeedMoreContributors",
      "type": "error"
    },
    {
      "inputs": [],
      "name": "NoBNBForLiquidity",
      "type": "error"
    },
    {
      "inputs": [],
      "name": "NoContribution",
      "type": "error"
    },
    {
      "inputs": [],
      "name": "NoContributionToRefund",
      "type": "error"
    },
    {
      "inputs": [],
      "name": "NoFunds",
      "type": "error"
    },
    {
      "inputs": [],
      "name": "NoStake",
      "type": "error"
    },
    {
      "inputs": [],
      "name": "NoTokensForLiquidity",
      "type": "error"
    },
    {
      "inputs": [],
      "name": "NoVote",
      "type": "error"
    },
    {
      "inputs": [],
      "name": "Not90Days",
      "type": "error"
    },
    {
      "inputs": [],
      "name": "NotActive",
      "type": "error"
    },
    {
      "inputs": [],
      "name": "NotActiveOrRefunded",
      "type": "error"
    },
    {
      "inputs": [],
      "name": "NotComplete",
      "type": "error"
    },
    {
      "inputs": [],
      "name": "NotContributor",
      "type": "error"
    },
    {
      "inputs": [],
      "name": "NotDev",
      "type": "error"
    },
    {
      "inputs": [],
      "name": "NotExecuted",
      "type": "error"
    },
    {
      "inputs": [],
      "name": "NotYet",
      "type": "error"
    },
    {
      "inputs": [],
      "name": "NothingToRelease",
      "type": "error"
    },
    {
      "inputs": [],
      "name": "OnlyDevCanClaim",
      "type": "error"
    },
    {
      "inputs": [
        {
          "internalType": "address",
          "name": "owner",
          "type": "address"
        }
      ],
      "name": "OwnableInvalidOwner",
      "type": "error"
    },
    {
      "inputs": [
        {
          "internalType": "address",
          "name": "account",
          "type": "address"
        }
      ],
      "name": "OwnableUnauthorizedAccount",
      "type": "error"
    },
    {
      "inputs": [],
      "name": "PresaleEnded",
      "type": "error"
    },
    {
      "inputs": [],
      "name": "ProofExpired",
      "type": "error"
    },
    {
      "inputs": [],
      "name": "ProofUsed",
      "type": "error"
    },
    {
      "inputs": [],
      "name": "RaiseIncomplete",
      "type": "error"
    },
    {
      "inputs": [],
      "name": "ReentrancyGuardReentrantCall",
      "type": "error"
    },
    {
      "inputs": [],
      "name": "Refunded",
      "type": "error"
    },
    {
      "inputs": [],
      "name": "RouterNotSet",
      "type": "error"
    },
    {
      "inputs": [],
      "name": "SoftcapNotHit",
      "type": "error"
    },
    {
      "inputs": [],
      "name": "TokenNotActive",
      "type": "error"
    },
    {
      "inputs": [],
      "name": "TokenNotFound",
      "type": "error"
    },
    {
      "inputs": [],
      "name": "TooSmall",
      "type": "error"
    },
    {
      "inputs": [],
      "name": "TransferFailed",
      "type": "error"
    },
    {
      "inputs": [],
      "name": "VestingTooShort",
      "type": "error"
    },
    {
      "inputs": [],
      "name": "VoteActive",
      "type": "error"
    },
    {
      "inputs": [],
      "name": "WasRefunded",
      "type": "error"
    },
    {
      "inputs": [],
      "name": "ZeroAddress",
      "type": "error"
    },
    {
      "inputs": [],
      "name": "ZeroRaiseCap",
      "type": "error"
    },
    {
      "inputs": [],
      "name": "ZeroSupply",
      "type": "error"
    },
    {
      "anonymous": false,
      "inputs": [
        {
          "indexed": true,
          "internalType": "address",
          "name": "wallet",
          "type": "address"
        },
        {
          "indexed": false,
          "internalType": "string",
          "name": "reason",
          "type": "string"
        }
      ],
      "name": "BlacklistAdded",
      "type": "event"
    },
    {
      "anonymous": false,
      "inputs": [
        {
          "indexed": true,
          "internalType": "address",
          "name": "token",
          "type": "address"
        },
        {
          "indexed": true,
          "internalType": "address",
          "name": "contributor",
          "type": "address"
        },
        {
          "indexed": false,
          "internalType": "uint256",
          "name": "amount",
          "type": "uint256"
        }
      ],
      "name": "Contributed",
      "type": "event"
    },
    {
      "anonymous": false,
      "inputs": [
        {
          "indexed": true,
          "internalType": "address",
          "name": "dev",
          "type": "address"
        },
        {
          "indexed": false,
          "internalType": "uint256",
          "name": "timestamp",
          "type": "uint256"
        }
      ],
      "name": "DevActivityUpdated",
      "type": "event"
    },
    {
      "anonymous": false,
      "inputs": [
        {
          "indexed": true,
          "internalType": "address",
          "name": "dev",
          "type": "address"
        },
        {
          "indexed": false,
          "internalType": "uint256",
          "name": "totalLaunches",
          "type": "uint256"
        },
        {
          "indexed": false,
          "internalType": "uint256",
          "name": "successful",
          "type": "uint256"
        },
        {
          "indexed": false,
          "internalType": "uint256",
          "name": "refunded",
          "type": "uint256"
        }
      ],
      "name": "DevReputationUpdated",
      "type": "event"
    },
    {
      "anonymous": false,
      "inputs": [
        {
          "indexed": true,
          "internalType": "address",
          "name": "dev",
          "type": "address"
        },
        {
          "indexed": false,
          "internalType": "uint256",
          "name": "amount",
          "type": "uint256"
        }
      ],
      "name": "DevStakeClaimed",
      "type": "event"
    },
    {
      "anonymous": false,
      "inputs": [
        {
          "indexed": true,
          "internalType": "address",
          "name": "dev",
          "type": "address"
        },
        {
          "indexed": false,
          "internalType": "uint256",
          "name": "amount",
          "type": "uint256"
        }
      ],
      "name": "DevStakeSlashed",
      "type": "event"
    },
    {
      "anonymous": false,
      "inputs": [
        {
          "indexed": false,
          "internalType": "uint256",
          "name": "newFee",
          "type": "uint256"
        }
      ],
      "name": "LaunchFeeUpdated",
      "type": "event"
    },
    {
      "anonymous": false,
      "inputs": [
        {
          "indexed": true,
          "internalType": "address",
          "name": "token",
          "type": "address"
        },
        {
          "indexed": true,
          "internalType": "address",
          "name": "pair",
          "type": "address"
        },
        {
          "indexed": false,
          "internalType": "uint256",
          "name": "bnbAmount",
          "type": "uint256"
        },
        {
          "indexed": false,
          "internalType": "uint256",
          "name": "tokenAmount",
          "type": "uint256"
        },
        {
          "indexed": false,
          "internalType": "uint256",
          "name": "lpTokens",
          "type": "uint256"
        }
      ],
      "name": "LiquidityAdded",
      "type": "event"
    },
    {
      "anonymous": false,
      "inputs": [
        {
          "indexed": true,
          "internalType": "address",
          "name": "token",
          "type": "address"
        },
        {
          "indexed": true,
          "internalType": "address",
          "name": "dev",
          "type": "address"
        },
        {
          "indexed": false,
          "internalType": "uint256",
          "name": "lpTokens",
          "type": "uint256"
        }
      ],
      "name": "LiquidityClaimed",
      "type": "event"
    },
    {
      "anonymous": false,
      "inputs": [
        {
          "indexed": true,
          "internalType": "address",
          "name": "token",
          "type": "address"
        },
        {
          "indexed": false,
          "internalType": "uint8",
          "name": "milestone",
          "type": "uint8"
        },
        {
          "indexed": false,
          "internalType": "uint256",
          "name": "amount",
          "type": "uint256"
        }
      ],
      "name": "MilestoneReleased",
      "type": "event"
    },
    {
      "anonymous": false,
      "inputs": [
        {
          "indexed": true,
          "internalType": "address",
          "name": "previousOwner",
          "type": "address"
        },
        {
          "indexed": true,
          "internalType": "address",
          "name": "newOwner",
          "type": "address"
        }
      ],
      "name": "OwnershipTransferred",
      "type": "event"
    },
    {
      "anonymous": false,
      "inputs": [
        {
          "indexed": true,
          "internalType": "address",
          "name": "router",
          "type": "address"
        }
      ],
      "name": "PancakeRouterUpdated",
      "type": "event"
    },
    {
      "anonymous": false,
      "inputs": [
        {
          "indexed": true,
          "internalType": "address",
          "name": "token",
          "type": "address"
        }
      ],
      "name": "RefundExecuted",
      "type": "event"
    },
    {
      "anonymous": false,
      "inputs": [
        {
          "indexed": true,
          "internalType": "address",
          "name": "token",
          "type": "address"
        },
        {
          "indexed": true,
          "internalType": "address",
          "name": "voter",
          "type": "address"
        },
        {
          "indexed": false,
          "internalType": "uint256",
          "name": "weight",
          "type": "uint256"
        }
      ],
      "name": "RefundVoteCast",
      "type": "event"
    },
    {
      "anonymous": false,
      "inputs": [
        {
          "indexed": true,
          "internalType": "address",
          "name": "token",
          "type": "address"
        }
      ],
      "name": "RefundVoteStarted",
      "type": "event"
    },
    {
      "anonymous": false,
      "inputs": [
        {
          "indexed": true,
          "internalType": "address",
          "name": "token",
          "type": "address"
        },
        {
          "indexed": false,
          "internalType": "uint256",
          "name": "totalRaised",
          "type": "uint256"
        }
      ],
      "name": "SoftCapReached",
      "type": "event"
    },
    {
      "anonymous": false,
      "inputs": [
        {
          "indexed": true,
          "internalType": "address",
          "name": "to",
          "type": "address"
        },
        {
          "indexed": false,
          "internalType": "uint256",
          "name": "amount",
          "type": "uint256"
        }
      ],
      "name": "StuckBNBWithdrawn",
      "type": "event"
    },
    {
      "anonymous": false,
      "inputs": [
        {
          "indexed": true,
          "internalType": "address",
          "name": "token",
          "type": "address"
        },
        {
          "indexed": true,
          "internalType": "address",
          "name": "dev",
          "type": "address"
        },
        {
          "indexed": false,
          "internalType": "string",
          "name": "name",
          "type": "string"
        },
        {
          "indexed": false,
          "internalType": "string",
          "name": "symbol",
          "type": "string"
        },
        {
          "indexed": false,
          "internalType": "uint256",
          "name": "totalSupply",
          "type": "uint256"
        },
        {
          "indexed": false,
          "internalType": "uint256",
          "name": "raiseCap",
          "type": "uint256"
        },
        {
          "indexed": false,
          "internalType": "uint256",
          "name": "lpLockDays",
          "type": "uint256"
        },
        {
          "indexed": false,
          "internalType": "uint256",
          "name": "vestingDays",
          "type": "uint256"
        },
        {
          "indexed": false,
          "internalType": "uint16",
          "name": "devAllocationBps",
          "type": "uint16"
        },
        {
          "indexed": false,
          "internalType": "uint8",
          "name": "safetyScore",
          "type": "uint8"
        }
      ],
      "name": "TokenLaunched",
      "type": "event"
    },
    {
      "anonymous": false,
      "inputs": [
        {
          "indexed": true,
          "internalType": "address",
          "name": "newTreasury",
          "type": "address"
        }
      ],
      "name": "TreasuryUpdated",
      "type": "event"
    },
    {
      "anonymous": false,
      "inputs": [
        {
          "indexed": true,
          "internalType": "address",
          "name": "newVerifier",
          "type": "address"
        }
      ],
      "name": "VerifierUpdated",
      "type": "event"
    },
    {
      "anonymous": false,
      "inputs": [
        {
          "indexed": true,
          "internalType": "address",
          "name": "token",
          "type": "address"
        },
        {
          "indexed": true,
          "internalType": "address",
          "name": "wallet",
          "type": "address"
        }
      ],
      "name": "WalletBlocked",
      "type": "event"
    },
    {
      "anonymous": false,
      "inputs": [
        {
          "indexed": true,
          "internalType": "address",
          "name": "token",
          "type": "address"
        },
        {
          "indexed": true,
          "internalType": "address",
          "name": "reporter",
          "type": "address"
        },
        {
          "indexed": true,
          "internalType": "address",
          "name": "suspiciousWallet",
          "type": "address"
        },
        {
          "indexed": false,
          "internalType": "string",
          "name": "reason",
          "type": "string"
        }
      ],
      "name": "WalletReported",
      "type": "event"
    },
    {
      "inputs": [],
      "name": "ANTI_SNIPE_MAX_BNB",
      "outputs": [
        {
          "internalType": "uint256",
          "name": "",
          "type": "uint256"
        }
      ],
      "stateMutability": "view",
      "type": "function"
    },
    {
      "inputs": [],
      "name": "ANTI_SNIPE_SECONDS",
      "outputs": [
        {
          "internalType": "uint256",
          "name": "",
          "type": "uint256"
        }
      ],
      "stateMutability": "view",
      "type": "function"
    },
    {
      "inputs": [],
      "name": "DAILY_SELL_CAP_BPS",
      "outputs": [
        {
          "internalType": "uint16",
          "name": "",
          "type": "uint16"
        }
      ],
      "stateMutability": "view",
      "type": "function"
    },
    {
      "inputs": [],
      "name": "DEFAULT_LIQUIDITY_BPS",
      "outputs": [
        {
          "internalType": "uint16",
          "name": "",
          "type": "uint16"
        }
      ],
      "stateMutability": "view",
      "type": "function"
    },
    {
      "inputs": [],
      "name": "DEV_STAKE_AMOUNT",
      "outputs": [
        {
          "internalType": "uint256",
          "name": "",
          "type": "uint256"
        }
      ],
      "stateMutability": "view",
      "type": "function"
    },
    {
      "inputs": [],
      "name": "ELIGIBILITY_PROOF_TTL",
      "outputs": [
        {
          "internalType": "uint256",
          "name": "",
          "type": "uint256"
        }
      ],
      "stateMutability": "view",
      "type": "function"
    },
    {
      "inputs": [],
      "name": "MAX_DEV_BPS",
      "outputs": [
        {
          "internalType": "uint256",
          "name": "",
          "type": "uint256"
        }
      ],
      "stateMutability": "view",
      "type": "function"
    },
    {
      "inputs": [],
      "name": "MAX_LIQUIDITY_BPS",
      "outputs": [
        {
          "internalType": "uint16",
          "name": "",
          "type": "uint16"
        }
      ],
      "stateMutability": "view",
      "type": "function"
    },
    {
      "inputs": [],
      "name": "MAX_PRESALE_DAYS",
      "outputs": [
        {
          "internalType": "uint256",
          "name": "",
          "type": "uint256"
        }
      ],
      "stateMutability": "view",
      "type": "function"
    },
    {
      "inputs": [],
      "name": "MIN_LIQUIDITY_BPS",
      "outputs": [
        {
          "internalType": "uint16",
          "name": "",
          "type": "uint16"
        }
      ],
      "stateMutability": "view",
      "type": "function"
    },
    {
      "inputs": [],
      "name": "MIN_LP_LOCK_DAYS",
      "outputs": [
        {
          "internalType": "uint256",
          "name": "",
          "type": "uint256"
        }
      ],
      "stateMutability": "view",
      "type": "function"
    },
    {
      "inputs": [],
      "name": "MIN_PRESALE_DAYS",
      "outputs": [
        {
          "internalType": "uint256",
          "name": "",
          "type": "uint256"
        }
      ],
      "stateMutability": "view",
      "type": "function"
    },
    {
      "inputs": [],
      "name": "MIN_SOFTCAP_BPS",
      "outputs": [
        {
          "internalType": "uint256",
          "name": "",
          "type": "uint256"
        }
      ],
      "stateMutability": "view",
      "type": "function"
    },
    {
      "inputs": [],
      "name": "MIN_UNIQUE_CONTRIBUTORS",
      "outputs": [
        {
          "internalType": "uint256",
          "name": "",
          "type": "uint256"
        }
      ],
      "stateMutability": "view",
      "type": "function"
    },
    {
      "inputs": [],
      "name": "MIN_VESTING_DAYS",
      "outputs": [
        {
          "internalType": "uint256",
          "name": "",
          "type": "uint256"
        }
      ],
      "stateMutability": "view",
      "type": "function"
    },
    {
      "inputs": [],
      "name": "REPORT_THRESHOLD",
      "outputs": [
        {
          "internalType": "uint256",
          "name": "",
          "type": "uint256"
        }
      ],
      "stateMutability": "view",
      "type": "function"
    },
    {
      "inputs": [
        {
          "internalType": "address",
          "name": "tokenAddr",
          "type": "address"
        }
      ],
      "name": "addLiquidityToPancakeSwap",
      "outputs": [],
      "stateMutability": "nonpayable",
      "type": "function"
    },
    {
      "inputs": [
        {
          "internalType": "uint256",
          "name": "",
          "type": "uint256"
        }
      ],
      "name": "allTokens",
      "outputs": [
        {
          "internalType": "address",
          "name": "",
          "type": "address"
        }
      ],
      "stateMutability": "view",
      "type": "function"
    },
    {
      "inputs": [
        {
          "internalType": "address",
          "name": "",
          "type": "address"
        },
        {
          "internalType": "address",
          "name": "",
          "type": "address"
        }
      ],
      "name": "antiSnipeContribs",
      "outputs": [
        {
          "internalType": "uint256",
          "name": "",
          "type": "uint256"
        }
      ],
      "stateMutability": "view",
      "type": "function"
    },
    {
      "inputs": [
        {
          "internalType": "address",
          "name": "w",
          "type": "address"
        },
        {
          "internalType": "string",
          "name": "r",
          "type": "string"
        }
      ],
      "name": "blacklistWallet",
      "outputs": [],
      "stateMutability": "nonpayable",
      "type": "function"
    },
    {
      "inputs": [
        {
          "internalType": "address",
          "name": "tokenAddr",
          "type": "address"
        },
        {
          "internalType": "bool",
          "name": "voteYes",
          "type": "bool"
        }
      ],
      "name": "castRefundVote",
      "outputs": [],
      "stateMutability": "nonpayable",
      "type": "function"
    },
    {
      "inputs": [
        {
          "internalType": "address",
          "name": "tokenAddr",
          "type": "address"
        }
      ],
      "name": "checkLaunchSuccess",
      "outputs": [],
      "stateMutability": "nonpayable",
      "type": "function"
    },
    {
      "inputs": [
        {
          "internalType": "address",
          "name": "tokenAddr",
          "type": "address"
        }
      ],
      "name": "claimDevStake",
      "outputs": [],
      "stateMutability": "nonpayable",
      "type": "function"
    },
    {
      "inputs": [
        {
          "internalType": "address",
          "name": "tokenAddr",
          "type": "address"
        }
      ],
      "name": "claimLPTokens",
      "outputs": [],
      "stateMutability": "nonpayable",
      "type": "function"
    },
    {
      "inputs": [
        {
          "internalType": "address",
          "name": "tokenAddr",
          "type": "address"
        }
      ],
      "name": "claimRefund",
      "outputs": [],
      "stateMutability": "nonpayable",
      "type": "function"
    },
    {
      "inputs": [
        {
          "internalType": "address",
          "name": "tokenAddr",
          "type": "address"
        }
      ],
      "name": "contribute",
      "outputs": [],
      "stateMutability": "payable",
      "type": "function"
    },
    {
      "inputs": [
        {
          "internalType": "address",
          "name": "",
          "type": "address"
        },
        {
          "internalType": "address",
          "name": "",
          "type": "address"
        }
      ],
      "name": "contributions",
      "outputs": [
        {
          "internalType": "uint256",
          "name": "",
          "type": "uint256"
        }
      ],
      "stateMutability": "view",
      "type": "function"
    },
    {
      "inputs": [
        {
          "internalType": "address",
          "name": "",
          "type": "address"
        }
      ],
      "name": "devLastActivity",
      "outputs": [
        {
          "internalType": "uint256",
          "name": "",
          "type": "uint256"
        }
      ],
      "stateMutability": "view",
      "type": "function"
    },
    {
      "inputs": [
        {
          "internalType": "address",
          "name": "",
          "type": "address"
        },
        {
          "internalType": "uint256",
          "name": "",
          "type": "uint256"
        }
      ],
      "name": "devLaunchHistory",
      "outputs": [
        {
          "internalType": "address",
          "name": "",
          "type": "address"
        }
      ],
      "stateMutability": "view",
      "type": "function"
    },
    {
      "inputs": [
        {
          "internalType": "address",
          "name": "",
          "type": "address"
        }
      ],
      "name": "devRefundedLaunches",
      "outputs": [
        {
          "internalType": "uint256",
          "name": "",
          "type": "uint256"
        }
      ],
      "stateMutability": "view",
      "type": "function"
    },
    {
      "inputs": [
        {
          "internalType": "address",
          "name": "",
          "type": "address"
        }
      ],
      "name": "devStakes",
      "outputs": [
        {
          "internalType": "uint256",
          "name": "",
          "type": "uint256"
        }
      ],
      "stateMutability": "view",
      "type": "function"
    },
    {
      "inputs": [
        {
          "internalType": "address",
          "name": "",
          "type": "address"
        }
      ],
      "name": "devSuccessfulLaunches",
      "outputs": [
        {
          "internalType": "uint256",
          "name": "",
          "type": "uint256"
        }
      ],
      "stateMutability": "view",
      "type": "function"
    },
    {
      "inputs": [
        {
          "internalType": "address",
          "name": "tokenAddr",
          "type": "address"
        }
      ],
      "name": "executeRefund",
      "outputs": [],
      "stateMutability": "nonpayable",
      "type": "function"
    },
    {
      "inputs": [],
      "name": "getAllTokens",
      "outputs": [
        {
          "internalType": "address[]",
          "name": "",
          "type": "address[]"
        }
      ],
      "stateMutability": "view",
      "type": "function"
    },
    {
      "inputs": [
        {
          "internalType": "address",
          "name": "tokenAddr",
          "type": "address"
        },
        {
          "internalType": "address",
          "name": "user",
          "type": "address"
        }
      ],
      "name": "getContribution",
      "outputs": [
        {
          "internalType": "uint256",
          "name": "",
          "type": "uint256"
        }
      ],
      "stateMutability": "view",
      "type": "function"
    },
    {
      "inputs": [
        {
          "internalType": "address",
          "name": "tokenAddr",
          "type": "address"
        }
      ],
      "name": "getContributorCount",
      "outputs": [
        {
          "internalType": "uint256",
          "name": "",
          "type": "uint256"
        }
      ],
      "stateMutability": "view",
      "type": "function"
    },
    {
      "inputs": [
        {
          "internalType": "address",
          "name": "d",
          "type": "address"
        }
      ],
      "name": "getDevLaunchHistory",
      "outputs": [
        {
          "internalType": "address[]",
          "name": "",
          "type": "address[]"
        }
      ],
      "stateMutability": "view",
      "type": "function"
    },
    {
      "inputs": [
        {
          "internalType": "address",
          "name": "d",
          "type": "address"
        }
      ],
      "name": "getDevStats",
      "outputs": [
        {
          "internalType": "uint256",
          "name": "totalLaunches",
          "type": "uint256"
        },
        {
          "internalType": "uint256",
          "name": "successful",
          "type": "uint256"
        },
        {
          "internalType": "uint256",
          "name": "refunded",
          "type": "uint256"
        }
      ],
      "stateMutability": "view",
      "type": "function"
    },
    {
      "inputs": [
        {
          "internalType": "address",
          "name": "tokenAddr",
          "type": "address"
        }
      ],
      "name": "getLPStatus",
      "outputs": [
        {
          "internalType": "bool",
          "name": "added",
          "type": "bool"
        },
        {
          "internalType": "address",
          "name": "pair",
          "type": "address"
        },
        {
          "internalType": "uint256",
          "name": "lockedAmount",
          "type": "uint256"
        },
        {
          "internalType": "uint256",
          "name": "unlockTime",
          "type": "uint256"
        },
        {
          "internalType": "bool",
          "name": "claimable",
          "type": "bool"
        }
      ],
      "stateMutability": "view",
      "type": "function"
    },
    {
      "inputs": [
        {
          "internalType": "address",
          "name": "tokenAddr",
          "type": "address"
        }
      ],
      "name": "getSafetyScore",
      "outputs": [
        {
          "internalType": "uint8",
          "name": "",
          "type": "uint8"
        }
      ],
      "stateMutability": "view",
      "type": "function"
    },
    {
      "inputs": [
        {
          "internalType": "address",
          "name": "tokenAddr",
          "type": "address"
        }
      ],
      "name": "getTokenAccountingStatus",
      "outputs": [
        {
          "internalType": "uint256",
          "name": "totalRaised",
          "type": "uint256"
        },
        {
          "internalType": "uint256",
          "name": "currentTrackedBalance",
          "type": "uint256"
        },
        {
          "internalType": "uint256",
          "name": "releasedSoFar",
          "type": "uint256"
        }
      ],
      "stateMutability": "view",
      "type": "function"
    },
    {
      "inputs": [
        {
          "internalType": "uint256",
          "name": "offset",
          "type": "uint256"
        },
        {
          "internalType": "uint256",
          "name": "limit",
          "type": "uint256"
        }
      ],
      "name": "getTokensPaginated",
      "outputs": [
        {
          "internalType": "address[]",
          "name": "result",
          "type": "address[]"
        },
        {
          "internalType": "uint256",
          "name": "total",
          "type": "uint256"
        }
      ],
      "stateMutability": "view",
      "type": "function"
    },
    {
      "inputs": [
        {
          "internalType": "address",
          "name": "",
          "type": "address"
        },
        {
          "internalType": "address",
          "name": "",
          "type": "address"
        }
      ],
      "name": "hasContributed",
      "outputs": [
        {
          "internalType": "bool",
          "name": "",
          "type": "bool"
        }
      ],
      "stateMutability": "view",
      "type": "function"
    },
    {
      "inputs": [
        {
          "internalType": "address",
          "name": "",
          "type": "address"
        },
        {
          "internalType": "address",
          "name": "",
          "type": "address"
        },
        {
          "internalType": "address",
          "name": "",
          "type": "address"
        }
      ],
      "name": "hasReported",
      "outputs": [
        {
          "internalType": "bool",
          "name": "",
          "type": "bool"
        }
      ],
      "stateMutability": "view",
      "type": "function"
    },
    {
      "inputs": [],
      "name": "insurancePool",
      "outputs": [
        {
          "internalType": "uint256",
          "name": "",
          "type": "uint256"
        }
      ],
      "stateMutability": "view",
      "type": "function"
    },
    {
      "inputs": [
        {
          "internalType": "address",
          "name": "",
          "type": "address"
        }
      ],
      "name": "isBlacklisted",
      "outputs": [
        {
          "internalType": "bool",
          "name": "",
          "type": "bool"
        }
      ],
      "stateMutability": "view",
      "type": "function"
    },
    {
      "inputs": [
        {
          "internalType": "address",
          "name": "",
          "type": "address"
        },
        {
          "internalType": "address",
          "name": "",
          "type": "address"
        }
      ],
      "name": "isBlockedContributor",
      "outputs": [
        {
          "internalType": "bool",
          "name": "",
          "type": "bool"
        }
      ],
      "stateMutability": "view",
      "type": "function"
    },
    {
      "inputs": [
        {
          "internalType": "address",
          "name": "",
          "type": "address"
        }
      ],
      "name": "isIronLockToken",
      "outputs": [
        {
          "internalType": "bool",
          "name": "",
          "type": "bool"
        }
      ],
      "stateMutability": "view",
      "type": "function"
    },
    {
      "inputs": [
        {
          "internalType": "address",
          "name": "tokenAddr",
          "type": "address"
        }
      ],
      "name": "isRefundVoteActive",
      "outputs": [
        {
          "internalType": "bool",
          "name": "",
          "type": "bool"
        }
      ],
      "stateMutability": "view",
      "type": "function"
    },
    {
      "inputs": [
        {
          "internalType": "address",
          "name": "tokenAddr",
          "type": "address"
        }
      ],
      "name": "isRefundVotePassed",
      "outputs": [
        {
          "internalType": "bool",
          "name": "",
          "type": "bool"
        }
      ],
      "stateMutability": "view",
      "type": "function"
    },
    {
      "inputs": [],
      "name": "launchFee",
      "outputs": [
        {
          "internalType": "uint256",
          "name": "",
          "type": "uint256"
        }
      ],
      "stateMutability": "view",
      "type": "function"
    },
    {
      "inputs": [
        {
          "internalType": "string",
          "name": "name",
          "type": "string"
        },
        {
          "internalType": "string",
          "name": "symbol",
          "type": "string"
        },
        {
          "internalType": "uint256",
          "name": "totalSupply",
          "type": "uint256"
        },
        {
          "internalType": "uint256",
          "name": "raiseCap",
          "type": "uint256"
        },
        {
          "internalType": "uint256",
          "name": "lpLockDays",
          "type": "uint256"
        },
        {
          "internalType": "uint256",
          "name": "vestingDays",
          "type": "uint256"
        },
        {
          "internalType": "uint16",
          "name": "devAllocationBps",
          "type": "uint16"
        },
        {
          "internalType": "uint256",
          "name": "eligibilityDeadline",
          "type": "uint256"
        },
        {
          "internalType": "bytes",
          "name": "eligibilitySignature",
          "type": "bytes"
        },
        {
          "internalType": "uint256",
          "name": "softCapBps",
          "type": "uint256"
        },
        {
          "internalType": "uint256",
          "name": "presaleDays",
          "type": "uint256"
        }
      ],
      "name": "launchToken",
      "outputs": [
        {
          "internalType": "address",
          "name": "",
          "type": "address"
        }
      ],
      "stateMutability": "payable",
      "type": "function"
    },
    {
      "inputs": [
        {
          "internalType": "address",
          "name": "",
          "type": "address"
        }
      ],
      "name": "liquidityAdded",
      "outputs": [
        {
          "internalType": "bool",
          "name": "",
          "type": "bool"
        }
      ],
      "stateMutability": "view",
      "type": "function"
    },
    {
      "inputs": [
        {
          "internalType": "address",
          "name": "",
          "type": "address"
        }
      ],
      "name": "lpLockedAmount",
      "outputs": [
        {
          "internalType": "uint256",
          "name": "",
          "type": "uint256"
        }
      ],
      "stateMutability": "view",
      "type": "function"
    },
    {
      "inputs": [
        {
          "internalType": "address",
          "name": "",
          "type": "address"
        }
      ],
      "name": "lpUnlockTime",
      "outputs": [
        {
          "internalType": "uint256",
          "name": "",
          "type": "uint256"
        }
      ],
      "stateMutability": "view",
      "type": "function"
    },
    {
      "inputs": [],
      "name": "owner",
      "outputs": [
        {
          "internalType": "address",
          "name": "",
          "type": "address"
        }
      ],
      "stateMutability": "view",
      "type": "function"
    },
    {
      "inputs": [],
      "name": "pancakeRouter",
      "outputs": [
        {
          "internalType": "address",
          "name": "",
          "type": "address"
        }
      ],
      "stateMutability": "view",
      "type": "function"
    },
    {
      "inputs": [
        {
          "internalType": "address",
          "name": "",
          "type": "address"
        }
      ],
      "name": "refundVotes",
      "outputs": [
        {
          "internalType": "uint256",
          "name": "startTime",
          "type": "uint256"
        },
        {
          "internalType": "uint256",
          "name": "yesVotes",
          "type": "uint256"
        },
        {
          "internalType": "uint256",
          "name": "totalVotes",
          "type": "uint256"
        },
        {
          "internalType": "bool",
          "name": "executed",
          "type": "bool"
        }
      ],
      "stateMutability": "view",
      "type": "function"
    },
    {
      "inputs": [
        {
          "internalType": "address",
          "name": "tokenAddr",
          "type": "address"
        }
      ],
      "name": "releaseMilestone",
      "outputs": [],
      "stateMutability": "nonpayable",
      "type": "function"
    },
    {
      "inputs": [],
      "name": "renounceOwnership",
      "outputs": [],
      "stateMutability": "nonpayable",
      "type": "function"
    },
    {
      "inputs": [
        {
          "internalType": "address",
          "name": "tokenAddr",
          "type": "address"
        },
        {
          "internalType": "address",
          "name": "suspiciousWallet",
          "type": "address"
        },
        {
          "internalType": "string",
          "name": "reason",
          "type": "string"
        }
      ],
      "name": "reportSuspiciousWallet",
      "outputs": [],
      "stateMutability": "nonpayable",
      "type": "function"
    },
    {
      "inputs": [
        {
          "internalType": "uint256",
          "name": "_fee",
          "type": "uint256"
        }
      ],
      "name": "setLaunchFee",
      "outputs": [],
      "stateMutability": "nonpayable",
      "type": "function"
    },
    {
      "inputs": [
        {
          "internalType": "address",
          "name": "_r",
          "type": "address"
        }
      ],
      "name": "setPancakeRouter",
      "outputs": [],
      "stateMutability": "nonpayable",
      "type": "function"
    },
    {
      "inputs": [
        {
          "internalType": "address",
          "name": "_t",
          "type": "address"
        }
      ],
      "name": "setTreasury",
      "outputs": [],
      "stateMutability": "nonpayable",
      "type": "function"
    },
    {
      "inputs": [
        {
          "internalType": "address",
          "name": "_v",
          "type": "address"
        }
      ],
      "name": "setVerifier",
      "outputs": [],
      "stateMutability": "nonpayable",
      "type": "function"
    },
    {
      "inputs": [
        {
          "internalType": "address",
          "name": "tokenAddr",
          "type": "address"
        }
      ],
      "name": "startRefundVote",
      "outputs": [],
      "stateMutability": "nonpayable",
      "type": "function"
    },
    {
      "inputs": [
        {
          "internalType": "address",
          "name": "",
          "type": "address"
        },
        {
          "internalType": "address",
          "name": "",
          "type": "address"
        }
      ],
      "name": "suspiciousReportCount",
      "outputs": [
        {
          "internalType": "uint256",
          "name": "",
          "type": "uint256"
        }
      ],
      "stateMutability": "view",
      "type": "function"
    },
    {
      "inputs": [
        {
          "internalType": "address",
          "name": "",
          "type": "address"
        }
      ],
      "name": "tokenBnbBalance",
      "outputs": [
        {
          "internalType": "uint256",
          "name": "",
          "type": "uint256"
        }
      ],
      "stateMutability": "view",
      "type": "function"
    },
    {
      "inputs": [],
      "name": "tokenCount",
      "outputs": [
        {
          "internalType": "uint256",
          "name": "",
          "type": "uint256"
        }
      ],
      "stateMutability": "view",
      "type": "function"
    },
    {
      "inputs": [
        {
          "internalType": "address",
          "name": "",
          "type": "address"
        }
      ],
      "name": "tokenLPPair",
      "outputs": [
        {
          "internalType": "address",
          "name": "",
          "type": "address"
        }
      ],
      "stateMutability": "view",
      "type": "function"
    },
    {
      "inputs": [
        {
          "internalType": "address",
          "name": "",
          "type": "address"
        }
      ],
      "name": "tokens",
      "outputs": [
        {
          "internalType": "address",
          "name": "tokenAddress",
          "type": "address"
        },
        {
          "internalType": "address",
          "name": "dev",
          "type": "address"
        },
        {
          "internalType": "string",
          "name": "name",
          "type": "string"
        },
        {
          "internalType": "string",
          "name": "symbol",
          "type": "string"
        },
        {
          "internalType": "uint256",
          "name": "totalSupply",
          "type": "uint256"
        },
        {
          "internalType": "uint256",
          "name": "raiseCap",
          "type": "uint256"
        },
        {
          "internalType": "uint256",
          "name": "totalRaised",
          "type": "uint256"
        },
        {
          "internalType": "uint256",
          "name": "lpLockDays",
          "type": "uint256"
        },
        {
          "internalType": "uint256",
          "name": "vestingDays",
          "type": "uint256"
        },
        {
          "internalType": "uint16",
          "name": "devAllocationBps",
          "type": "uint16"
        },
        {
          "internalType": "uint256",
          "name": "launchTime",
          "type": "uint256"
        },
        {
          "internalType": "uint256",
          "name": "antiSnipeEnd",
          "type": "uint256"
        },
        {
          "internalType": "uint8",
          "name": "milestoneReleased",
          "type": "uint8"
        },
        {
          "internalType": "uint256",
          "name": "milestone1Time",
          "type": "uint256"
        },
        {
          "internalType": "uint256",
          "name": "milestone2Time",
          "type": "uint256"
        },
        {
          "internalType": "uint256",
          "name": "milestone3Time",
          "type": "uint256"
        },
        {
          "internalType": "uint8",
          "name": "safetyScore",
          "type": "uint8"
        },
        {
          "internalType": "bool",
          "name": "active",
          "type": "bool"
        },
        {
          "internalType": "bool",
          "name": "refundVoteActive",
          "type": "bool"
        },
        {
          "internalType": "uint256",
          "name": "maxContributionPerWallet",
          "type": "uint256"
        },
        {
          "internalType": "uint256",
          "name": "uniqueContributorCount",
          "type": "uint256"
        },
        {
          "internalType": "uint16",
          "name": "liquidityBps",
          "type": "uint16"
        },
        {
          "internalType": "uint256",
          "name": "liquidityBNB",
          "type": "uint256"
        },
        {
          "internalType": "uint256",
          "name": "devBNB",
          "type": "uint256"
        },
        {
          "internalType": "uint256",
          "name": "softCap",
          "type": "uint256"
        },
        {
          "internalType": "uint256",
          "name": "presaleEnd",
          "type": "uint256"
        },
        {
          "internalType": "bool",
          "name": "softCapHit",
          "type": "bool"
        },
        {
          "internalType": "bool",
          "name": "autoRefunded",
          "type": "bool"
        }
      ],
      "stateMutability": "view",
      "type": "function"
    },
    {
      "inputs": [
        {
          "internalType": "address",
          "name": "newOwner",
          "type": "address"
        }
      ],
      "name": "transferOwnership",
      "outputs": [],
      "stateMutability": "nonpayable",
      "type": "function"
    },
    {
      "inputs": [],
      "name": "treasury",
      "outputs": [
        {
          "internalType": "address",
          "name": "",
          "type": "address"
        }
      ],
      "stateMutability": "view",
      "type": "function"
    },
    {
      "inputs": [
        {
          "internalType": "address",
          "name": "w",
          "type": "address"
        }
      ],
      "name": "unblacklistWallet",
      "outputs": [],
      "stateMutability": "nonpayable",
      "type": "function"
    },
    {
      "inputs": [],
      "name": "updateDevActivity",
      "outputs": [],
      "stateMutability": "nonpayable",
      "type": "function"
    },
    {
      "inputs": [
        {
          "internalType": "uint256",
          "name": "",
          "type": "uint256"
        },
        {
          "internalType": "address",
          "name": "",
          "type": "address"
        }
      ],
      "name": "usedEligibilityProofs",
      "outputs": [
        {
          "internalType": "bool",
          "name": "",
          "type": "bool"
        }
      ],
      "stateMutability": "view",
      "type": "function"
    },
    {
      "inputs": [],
      "name": "verifier",
      "outputs": [
        {
          "internalType": "address",
          "name": "",
          "type": "address"
        }
      ],
      "stateMutability": "view",
      "type": "function"
    },
    {
      "inputs": [
        {
          "internalType": "uint256",
          "name": "amount",
          "type": "uint256"
        }
      ],
      "name": "withdrawStuckBNB",
      "outputs": [],
      "stateMutability": "nonpayable",
      "type": "function"
    },
    {
      "stateMutability": "payable",
      "type": "receive"
    }
  ],
  "bytecode": "0x6080806040523460ba57331560a5575f8054336001600160a01b0319808316821784556040519390926001600160a01b0316907f8be0079c531659141344cd1fd0a4f28419497f9722a3daafe3b4186f6b6457e09080a360017f9b779b17422d0df92223018b32b4d1fa46e071723d6817e2486d003becc55f0055662386f26fc10000600b55338160085416176008553390600e541617600e55615a5090816100bf8239f35b631e4fbdf760e01b81525f6004820152602490fd5b5f80fdfe61024080604052600436101561001d575b50361561001b575f80fd5b005b5f905f3560e01c908163037c488614613ada57508063057e729e14613abf5780630788a8a7146139385780630c91d19c14613900578063126eac431461378a5780631b8028fb146138a1578063212d25a614613885578063222e0cf1146137f2578063242fefd7146137d757806329369ccf1461378a5780632a5c792a146136f65780632b7ac3f3146136ce578063391df7c9146136965780633f58cf1f146135335780634238b692146134f357806343237d4a146134bb57806344198cc5146134785780634871b64a1461342b5780634aa06447146134105780634adabe09146131555780634e576dea146131395780635313be2c146130ed5780635437988d146130855780635578732b14612ff65780635712455f14612fdb57806358a4cbd714612a0c5780635b34bc41146129b65780635b9605ea146129995780635d35e54f1461297d5780635dd8ba881461293e5780635ff51a9f1461290557806360bb3979146128c457806361d027b31461289b578063634282af1461285757806363b8ce5f1461283b578063685e42361461281f578063715018a6146127d957806371afe1b6146126be57806373458d101461261a57806373e888fd1461219557806374e473361461215957806375f0c2f01461213c57806384d232b5146114eb57806384f047d514611437578063887813b2146113f85780638afb309c146112e65780638da5cb5b146112bf578063907ba72e1461128457806391cb32a71461123757806396c6ce0e1461121a5780639b0b26a2146111aa5780639c271174146111555780639f181b5e14611137578063a48832861461111b578063aa180cd6146110c6578063ab2adc00146110a8578063b31e608714610f85578063b65f192714610dcb578063b9148eee14610da8578063b9af648c14610c97578063bb2061b214610c45578063bd2f942d14610c08578063bee884d214610bad578063bffa55d514610982578063c1f7f9ac14610949578063c21ebd0714610920578063cf3cf57314610902578063d79ecf90146108b8578063dc67195f14610866578063e1a6ae381461082d578063e486033914610591578063e6cf81341461056e578063f0f4426014610504578063f25ea8b5146104e7578063f2fde38b14610475578063f67cd9cd1461043c578063f8316c90146103c05763fe575a870361001057346103bd5760203660031901126103bd5760209060ff906040906001600160a01b036103a9613b82565b168152600a84522054166040519015158152f35b80fd5b50346103bd5760203660031901126103bd576103da613b82565b6103e2614175565b6001600160a01b0316801561042a57600f80546001600160a01b031916821790557f7cd91bb102d5b88808255aa4b0877f151c1c4d2e61deef286b983f293eea60ab8280a280f35b60405163d92e233d60e01b8152600490fd5b50346103bd5760203660031901126103bd576020906040906001600160a01b03610464613b82565b168152601283522054604051908152f35b50346103bd5760203660031901126103bd5761048f613b82565b610497614175565b6001600160a01b039081169081156104ce575f548260018060a01b03198216175f55165f8051602061599b8339815191525f80a380f35b604051631e4fbdf760e01b815260048101849052602490fd5b50346103bd57806003193601126103bd5760206040516103e88152f35b50346103bd5760203660031901126103bd5761051e613b82565b610526614175565b6001600160a01b0316801561042a57600e80546001600160a01b031916821790557f7dae230f18360d76a040c81f050aa14eb9d6dc7901b20fc5d855e2a20fe814d18280a280f35b50346103bd57806003193601126103bd57602060405167016345785d8a00008152f35b50346103bd5760203660031901126103bd576001600160a01b0390604090826105b8613b82565b1681526001602052206102205280610220515416610140526001610220510154166105e860026102205101613cdc565b610160526105fb60036102205101613cdc565b6101a05260046102205101546101205260ff60056102205101549160066102205101546007610220510154600861022051015461ffff600961022051015416600a610220510154600b6102205101549087600c6102205101541692600d61022051015494600e61022051015496600f6102205101549861072461070f60106102205101549c6011610220510154608052601261022051015460a05261ffff60136102205101541660e05260146102205101546102005260156102205101546101e05260166102205101546101c05260176102205101546101805260186102205101546101005260405160c052610380906101405160c05152602060c051015280604060c051015260c0510161016051613d7e565b60c0518103606060c05101526101a051613d7e565b9c61012051608060c051015260a060c051015260c08051015260e060c051015261010060c051015261012060c051015261014060c051015261016060c051015261018060c05101526101a060c05101526101c060c05101526101e060c051015281811661020060c0510152818160081c16151561022060c051015260101c16151561024060c051015260805161026060c051015260a05161028060c051015260e0516102a060c0510152610200516102c060c05101526101e0516102e060c05101526101c05161030060c05101526101805161032060c051015260ff6101005116151561034060c051015260ff6101005160081c16151561036060c051015260c051900360c051f35b50346103bd5760203660031901126103bd576020906040906001600160a01b03610855613b82565b168152600c83522054604051908152f35b50346103bd5760403660031901126103bd57610880613b82565b604061088a613b98565b9260018060a01b03809316815260196020522091165f52602052602060ff60405f2054166040519015158152f35b50346103bd5760403660031901126103bd5760406108d4613b98565b9160043581526009602052209060018060a01b03165f52602052602060ff60405f2054166040519015158152f35b50346103bd57806003193601126103bd576020600b54604051908152f35b50346103bd57806003193601126103bd57600f546040516001600160a01b039091168152602090f35b50346103bd5760203660031901126103bd576020906040906001600160a01b03610971613b82565b168152600783522054604051908152f35b50346103bd57602080600319360112610ba95761099d613b82565b6109a5614146565b6001600160a01b03168083526001825260408320601081015460081c60ff16610b97578184526003835260ff60036040862001541615610b85578184526004835260408420335f52835260405f2054908115610b73578285526004845260408520335f5284528460405f2055849060ff600c820154166001811015610b69575b6002811015610b42575b60031115610b1b575b612710610a4d6006610a549301549384613da2565b0482613e2a565b9182151580610b12575b15610b0857610a7592610a7091613da2565b613db5565b905b8115610af6578084526014835281604085205410610ae4578380939260148294839484525260408220610aab828254613e2a565b9055335af1610ab8613f42565b5015610ad25760015f805160206159fb8339815191525580f35b6040516312171d8360e31b8152600490fd5b6040516335a0d85f60e01b8152600490fd5b60405163b10205ed60e01b8152600490fd5b5050508290610a77565b50811515610a5e565b90610d488101809111610b2e5790610a38565b634e487b7160e01b86526011600452602486fd5b91610ce48101809111610b555791610a2f565b634e487b7160e01b87526011600452602487fd5b610ce49250610a25565b60405163634b67f560e11b8152600490fd5b60405163764258ed60e11b8152600490fd5b60405163113ac95f60e21b8152600490fd5b5080fd5b50346103bd5760403660031901126103bd57610bc7613b82565b6001600160a01b039081168252601560205260408220805460243593908410156103bd5750602092610bf891613c16565b9190546040519260031b1c168152f35b50346103bd5760203660031901126103bd576020906012906040906001600160a01b03610c33613b82565b16815260018452200154604051908152f35b50346103bd5760403660031901126103bd57610c5f613b82565b6040610c69613b98565b9260018060a01b03809316815260186020522091165f52602052602060ff60405f2054166040519015158152f35b50346103bd57602080600319360112610ba9576001600160a01b0380610cbb613b82565b168352600182526040832090600a8201546276a7008101809111610d94574210610d8257601082019182549060ff8260081c1615610d70577f04e2738c0439b38c78e2d8e54bffb925f2949894f0eed5c60b7772b5da77edec9360019261ff0019169055018181541685526016845260408520610d388154613fb0565b905554169182845260158152604084205460168252601760408620549252610d6a604086205460405193849384613c58565b0390a280f35b604051638616bbbb60e01b8152600490fd5b604051630ddbddfb60e31b8152600490fd5b634e487b7160e01b85526011600452602485fd5b50346103bd57806003193601126103bd5760206040516706f05b59d3b200008152f35b50346103bd5760603660031901126103bd57610de5613b82565b610ded613b98565b906044356001600160401b038111610f8157610e0d903690600401613c2b565b9260018060a01b03809316928386526020916001835260ff601060408920015460081c1615610f6f571693841561042a5733851461042a57838652601b825260408620335f52825260405f20855f52825260ff60405f205416610f5d578490848752601b835260408720335f52835260405f20825f528352847f1d0233127b9ee34261fa558aafd3001a764f70f77fc3bba2f9edc8219517db84610ef060405f209660ff1997600189825416179055838b52601a875260408b20865f52875260405f20610eda8154613fb0565b9055604051918291888352339689840191613f90565b0390a4828552601a815260408520845f528152600560405f20541015610f14578480f35b828552601981526040852090845f5252600160405f20918254161790557fd579c7d4bfb21d06c84a7d5c919b63a886c23fb57457c2da53117e7843ef0bd08380a35f8080808480f35b604051637c9a1cf960e01b8152600490fd5b604051634065aaf160e11b8152600490fd5b8380fd5b50346103bd5760203660031901126103bd576001600160a01b0380610fa8613b82565b1690818352600160205260408320601081019081549260ff8460081c16156110965760ff8460101c1661108457600182015416855260076020526040852054621275008101809111610b2e5742106110725760060190815415611060576201000060039362ff000019161790558284528160205260408420904282558460018301555460028201550160ff1981541690557f334735b0c8438283143afcb13d4c2b5e01c6bbe0eae4c6433bde5008a5d9a8618280a280f35b60405163043f9e1160e41b8152600490fd5b604051635cb717f560e01b8152600490fd5b604051631b37a49b60e11b8152600490fd5b604051635a7cb4e960e01b8152600490fd5b50346103bd57806003193601126103bd576020600d54604051908152f35b50346103bd5760203660031901126103bd576001600160a01b036110e8613b82565b168152601560205260408120546016602052611117604080842054936017602052205460405193849384613c58565b0390f35b50346103bd57806003193601126103bd576020604051601e8152f35b50346103bd57806003193601126103bd576020600254604051908152f35b50346103bd5760203660031901126103bd576001600160a01b03611177613b82565b168152600160205260406006818320015491601460205220549061111761119e8383613e2a565b60405193849384613c58565b50346103bd5760603660031901126103bd576111c4613b82565b906111cd613b98565b906044359260018060a01b03918285168095036112165782604092168152601b6020522091165f5260205260405f20905f52602052602060ff60405f2054166040519015158152f35b5f80fd5b50346103bd57806003193601126103bd576020604051610e108152f35b50346103bd5760403660031901126103bd57611251613b82565b604061125b613b98565b9260018060a01b03809316815260056020522091165f52602052602060405f2054604051908152f35b50346103bd57806003193601126103bd5733815260076020524260408220556040514281525f8051602061597b83398151915260203392a280f35b50346103bd57806003193601126103bd57546040516001600160a01b039091168152602090f35b50346103bd5760203660031901126103bd57611300613b82565b611308614146565b60018060a01b03809116908183526001602052604083209060018201541633036113e65760ff601082015460081c1615610f6f5760ff600c600392015416036113d457808252600c60205260408220549081156113c2578252600c6020528160408120558180808084335af161137c613f42565b5015610ad2576040519081527f623aaf84687869efe3b904dd42bc0bd45020d407984041c86f9fe076be22470860203392a260015f805160206159fb8339815191525580f35b604051636567cc4d60e11b8152600490fd5b604051630701727f60e01b8152600490fd5b6040516308cf65e560e41b8152600490fd5b50346103bd5760203660031901126103bd5760209060ff906040906001600160a01b03611423613b82565b168152600684522054166040519015158152f35b50346103bd57602080600319360112610ba95760a0916001600160a01b03918261145f613b82565b1682526013815260ff604083205416926010825260408320541660118252604083205490601283526040842054926013815260ff60408620541694856114d8575b856114c5575b5060405195151586528501526040840152606083015215156080820152f35b601182526040902054151594505f6114a6565b60128252604081205442101595506114a0565b506101603660031901126103bd576004356001600160401b038111610ba957611518903690600401613c2b565b9091906024356001600160401b038111611fdf5761153a903690600401613c2b565b9260c4359161ffff83168303610ba9576001600160401b036101043511610ba95761158061156e3661010435600401613c2b565b90611577614146565b60e435336141a0565b338252600a60205260ff60408320541661212a57600b549467016345785d8a000086018611611f985767016345785d8a0000860134106121185760b46084351061210657605a60a435106120f4576103e861ffff8516116120e257604435156120d057606435156120be57841580156120b6575b6120a457600761014435108015612097575b61207c576101243561203f575b60286101f461ffff86161115612037575b61163061163591613f15565b613f15565b6040519093906001600160401b03611594820190811190821117612023576115946143e7823960806115948201528061169061167960806115948401018a8d613f90565b611594830181036020611594850101528587613f90565b60443560406115948401015230606061159484010152039082f0968715612016576127106116c461ffff8816604435613da2565b0460a4356201518060a4350204620151801460a435151715611f98576001600160a01b0389163b15611fdf57604051630d823f8360e21b81523360048201526024810182905242604482015260a480356201518002606483015260c860848301528490829081836001600160a01b038f165af18015611ff757908491612002575b5050603c42014211611f98576001600160a01b0389163b15611fdf576040516313a62fa960e11b815242603c0160048201528381602481836001600160a01b038f165af18015611ff757908491611fe3575b50506001600160a01b0389163b15611fdf57826117c991604051809381926340c10f1960e01b83523360048401613df8565b0381836001600160a01b038e165af18015611fd457908391611fc0575b505062278d0042014211611fac576276a70042014211611fac5761271061181261012435606435613da2565b046101443562015180610144350204620151801461014435151715611f985761184362015180610144350242613dd3565b604051916001600160401b03610380840190811190841117611de25761038083016040526001600160a01b038b168352336020840152611884368b8e613fbe565b6040840152611894368789613fbe565b6060840152604435608084015260643560a08401528460c084015260843560e084015260a43561010084015261ffff891661012084015242610140840152603c420161016084015284610180840152426101a084015262278d0042016101c08401526276a70042016101e084015260ff881661020084015260016102208401528461024084015260146064350461026084015284610280840152610bb86102a0840152846102c0840152846102e0840152610300830152610320820152826103408201528261036082015260018060a01b038916835260016020526040832060018060a01b0382511660018060a01b03199081835416178255600182019060018060a01b0360208501511690825416179055604082015180519060018060401b038211611ebb5781906119ca6002850154613c6e565b601f8111611f48575b50602090601f8311600114611eda578792611ecf575b50508160011b915f199060031b1c19161760028201555b60608201518051906001600160401b038211611ebb57611a236003840154613c6e565b601f8111611e77575b50602090601f8311600114611e0157928261036093601893611bbf97968a92611df6575b50508160011b915f199060031b1c19161760038201555b6080840151600482015560a0840151600582015560c0840151600682015560e0840151600782015561010084015160088201556009810161ffff6101208601511661ffff19825416179055610140840151600a820155610160840151600b82015560ff6101808501511660ff19600c8301541617600c8201556101a0840151600d8201556101c0840151600e8201556101e0840151600f8201556010810160ff6102008601511660ff19825416178155611b28610220860151151582613ff4565b610240850151151562ff000082549160101b169062ff00001916179055610260840151601182015561028084015160128201556013810161ffff6102a08601511661ffff198254161790556102c084015160148201556102e08401516015820155610300840151601682015561032084015160178201550191610340810151151560ff801985541691161783550151151590613ff4565b6001600160a01b038816808352601960209081526040808520335f9081529083528190208054600160ff199182168117909255938652600690925284208054909216179055600254600160401b811015611de257806001611c239201600255613bea565b81546001600160a01b038b811660039390931b92831b921b191617905533825260156020526040822080549091600160401b821015611de257611c7882611cab94600167016345785d8a000095018155613c16565b81546001600160a01b038d811660039390931b92831b921b19161790553384526007602052604084204290550134613e2a565b81600b5480611db8575b50506001600160a01b0388168252600c6020526040822067016345785d8a0000905580611d96575b5050611d1160ff939261ffff92611d0460209a604051996101008b526101008b0191613f90565b918883038b8a0152613f90565b60443560408701526064356060870152608435608087015260a43560a0870152931660c08501521660e083015233916001600160a01b038416917f174b1c441c7e1607660f9ad04ce58cc91786c18b1431b4814b707f3f6f8b3236919081900390a360015f805160206159fb833981519152556040516001600160a01b039091168152f35b81808092969596335af1611da8613f42565b5015610ad2575f80939293611cdd565b600e54829182918291906001600160a01b03165af1611dd5613f42565b5015610ad257815f611cb5565b634e487b7160e01b5f52604160045260245ffd5b015190505f80611a50565b906003840187526020872091875b601f1985168110611e5f575083601893611bbf97969360019361036097601f19811610611e47575b505050811b016003820155611a67565b01515f1960f88460031b161c191690555f8080611e37565b91926020600181928685015181550194019201611e0f565b60038401875260208720601f840160051c810160208510611eb4575b601f830160051c82018110611ea9575050611a2c565b888155600101611e93565b5080611e93565b634e487b7160e01b86526041600452602486fd5b015190505f806119e9565b9250600284018752602087209087935b601f1984168510611f2d576001945083601f19811610611f15575b505050811b016002820155611a00565b01515f1960f88460031b161c191690555f8080611f05565b81810151835560209485019460019093019290910190611eea565b90915060028401875260208720601f840160051c810160208510611f91575b90849392915b601f830160051c82018110611f835750506119d3565b898155859450600101611f6d565b5080611f67565b634e487b7160e01b83526011600452602483fd5b634e487b7160e01b82526011600452602482fd5b611fc990613ca6565b610ba957815f6117e6565b6040513d85823e3d90fd5b8280fd5b611fec90613ca6565b611fdf57825f611797565b6040513d86823e3d90fd5b61200b90613ca6565b611fdf57825f611745565b50604051903d90823e3d90fd5b634e487b7160e01b82526041600452602482fd5b50603c611624565b6107d06101243510801561206e575b156116135760405163d7c4af9f60e01b8152610124356004820152602490fd5b50612710610124351161204e565b6040516313b783af60e21b8152610144356004820152602490fd5b50601e6101443511611606565b60405163519a33eb60e01b8152600490fd5b5080156115f4565b604051634cf6431360e01b8152600490fd5b60405163c16f3a9360e01b8152600490fd5b6040516347c47a3560e01b8152600490fd5b604051631dd59aab60e31b8152600490fd5b6040516357e4eb0960e01b8152600490fd5b60405163b6160b9b60e01b8152600490fd5b6040516309550c7760e01b8152600490fd5b50346103bd57806003193601126103bd5760206040516107d08152f35b50346103bd5760203660031901126103bd576020906001600160a01b039060409082612183613b82565b16815260108452205416604051908152f35b50602080600319360112610ba9576121ab613b82565b6121b3614146565b6001600160a01b039081168084526001835260408420601081015491929160ff9060081c81161561109657601782015442101561260857601882019080825460081c166125f65734156125e45784875260138652806040882054166125d2576006830190612222348354613dd3565b9260058501938454106125c0578689526004885260408920335f52885260405f2054601186015490888b5260058a5260408b20335f528a5260405f205491600b88015491816122713483613dd3565b116125975750504210908161254e575b50612528575b8689526019885260408920335f5288528160405f2054166125165786928891848b526018835260408b20335f5283528360405f205416156124e2575b848b526004835260408b20335f52835260405f206122e2348254613dd3565b90556122ef348354613dd3565b8255848b526014835260408b20612307348254613dd3565b9055805493841615806124d3575b612496575b50505050600483015491549050801561248e57610a7061233b923490613da2565b801561247c576040516370a0823160e01b8152600481018590528581602481885afa80156124715782918891612440575b501061242e578590843b15610ba9578161239b91604051809381926307f57da760e11b83523360048401613df8565b038183895af180156124235761240b575b5050600101541633146123f9575b7f188177a91f9b084dadc3c86215ff29aa75ddaf05ed75983c8c498c40989d58c9604051923484523393a360015f805160206159fb8339815191525580f35b338352600782524260408420556123ba565b61241490613ca6565b61241f57845f6123ac565b8480fd5b6040513d84823e3d90fd5b60405163f16517d160e01b8152600490fd5b809250878092503d831161246a575b6124598183613cb9565b81010312611216578190515f61236c565b503d61244f565b6040513d89823e3d90fd5b604051636989e9d160e11b8152600490fd5b50508461233b565b60017f127a0d60b64e68d983855c4d67e59aab432c3fded72f4317958b05a2eb1dbe0f9460ff191617905554604051908152a2835f86818061231a565b50815460168801541115612315565b848b526018835260408b20335f52835260405f20600160ff198254161790556012870161250f8154613fb0565b90556122c3565b60405163a5baf15160e01b8152600490fd5b8689526005885260408920335f52885260405f20612547348254613dd3565b9055612287565b6706f05b59d3b2000090816125633483613dd3565b1161256e5750612281565b9061257c6044923490613dd3565b9060405191637a0fda0560e11b835260048301526024820152fd5b906125a56044923490613dd3565b90604051916301f9262160e61b835260048301526024820152fd5b60405163bed2e42d60e01b8152600490fd5b60405163394fc79160e11b8152600490fd5b604051631971fbf360e21b8152600490fd5b604051631aabe3f360e01b8152600490fd5b604051631eb1561f60e01b8152600490fd5b50346103bd5760403660031901126103bd57612634613b82565b6024356001600160401b038111611fdf57612653903690600401613c2b565b909161265d614175565b6001600160a01b031691821561042a57828452600a60205260ff60408520541661212a575f805160206159bb83398151915291838552600a60205260408520600160ff19825416179055610d6a604051928392602084526020840191613f90565b50346103bd57602080600319360112610ba957600435906126dd614175565b600d54908390600254905b818310612776575050508047115f1461276f576127059047613e2a565b811161275d5760018060a01b038280808085858254165af1612725613f42565b5015610ad25760207f4a6188559939e4ee223b5f2a5b165b7aea756e7765ce9c3a41ee92e8bfe7bcf89184541692604051908152a280f35b604051631a82a05d60e11b8152600490fd5b5081612705565b9091926127d06127af60019261278b87613bea565b929091858060a01b03809354600395861b1c168b526014875260408b205490613dd3565b916127b988613bea565b9054911b1c168852600c8452604088205490613dd3565b930191906126e8565b50346103bd57806003193601126103bd576127f2614175565b5f80546001600160a01b0319811682556001600160a01b03165f8051602061599b8339815191528280a380f35b50346103bd57806003193601126103bd576020604051605a8152f35b50346103bd57806003193601126103bd576020604051600a8152f35b50346103bd5760203660031901126103bd57600435906002548210156103bd57602061288283613bea565b905460405160039290921b1c6001600160a01b03168152f35b50346103bd57806003193601126103bd57600e546040516001600160a01b039091168152602090f35b50346103bd5760203660031901126103bd5760209060ff906010906040906001600160a01b036128f2613b82565b1681526001855220015416604051908152f35b50346103bd5760203660031901126103bd576020906040906001600160a01b0361292d613b82565b168152601783522054604051908152f35b50346103bd5760203660031901126103bd5760209060ff906040906001600160a01b03612969613b82565b168152601384522054166040519015158152f35b50346103bd57806003193601126103bd57602060405160c88152f35b50346103bd57806003193601126103bd576020604051610bb88152f35b50346103bd5760203660031901126103bd576129d0613b82565b6129d8614175565b6001600160a01b0316808252600a602052604082205460ff161561212a578152600a60205260408120805460ff1916905580f35b503461121657602036600319011261121657612a26613b82565b612a2e614146565b6001600160a01b038181165f908152600160208190526040909120908101549092911615612fc957600f546001600160a01b031615612fb7576001600160a01b0381165f9081526013602052604090205460ff16612fa5576006820154600583015411801590612f76575b15612f61576001600160a01b0381165f908152601360205260409020805460ff1916600117905560148201548015612f51575b8015612f3f576040516370a0823160e01b81526001600160a01b03831660048201819052909290602090849060249082905afa928315612eee575f93612f0b575b508215612ef9576001600160a01b0381163b15611216576040516307f57da760e11b81525f8180612b42873060048401613df8565b0381836001600160a01b0387165af18015612eee57612edb575b50600f5460405163095ea7b360e01b81529060209082908190612b8d9088906001600160a01b031660048401613df8565b0381896001600160a01b0387165af18015612ed057612ea1575b50600f546001600160a01b0316924261012c810191908210610b55579060c460609285604051978894859363f305d71960e01b855260018060a01b038916600486015260248501528b60448501528b606485015230608485015260a48401525af18015612e9657859286948792612e51575b50600f5460405163c45a015560e01b815296906001600160a01b0316602088600481845afa978815612e21578998612e2c575b506020600491604051928380926315ab88c960e31b82525afa8015612e21576020918a91612e04575b5060405163e6a4390560e01b81526001600160a01b03878116600483015291821660248201529889916044918391165afa968715612df9578897612dc5575b506001600160a01b038481168952601060209081526040808b2080546001600160a01b0319169a909316998a1790925560119052882083905560070154620151808082029180159083049091141715612db15791612d9491612d397f4a1a2a6176e9646d9e3157f7c2ab3c499f18337c0b0828cfb28e0a61de4a11f796959442613dd3565b6001600160a01b0385168a52601260205260408a2055861015612dab576014602052612d698660408a2054613e2a565b6001600160a01b039390931680895260146020526040808a2094909455925192959293849384613c58565b0390a360015f805160206159fb8339815191525580f35b87612d69565b634e487b7160e01b88526011600452602488fd5b6007919750612deb9060203d602011612df2575b612de38183613cb9565b810190613f71565b9690612cb4565b503d612dd9565b6040513d8a823e3d90fd5b612e1b9150823d8411612df257612de38183613cb9565b5f612c75565b6040513d8b823e3d90fd5b6004919850612e49602091823d8411612df257612de38183613cb9565b989150612c4c565b93509350506060823d606011612e8e575b81612e6f60609383613cb9565b8101031261241f5781519260406020840151930151939293905f612c19565b3d9150612e62565b6040513d87823e3d90fd5b612ec29060203d602011612ec9575b612eba8183613cb9565b810190613de0565b505f612ba7565b503d612eb0565b6040513d88823e3d90fd5b612ee6919550613ca6565b5f935f612b5c565b6040513d5f823e3d90fd5b60405163c4961dd160e01b8152600490fd5b9092506020813d602011612f37575b81612f2760209383613cb9565b810103126112165751915f612b0d565b3d9150612f1a565b60405163f727cdc360e01b8152600490fd5b50601460205260405f2054612acc565b6040516001620b806b60e21b03198152600490fd5b50600a82015462278d008101809111612f9157421015612a99565b634e487b7160e01b5f52601160045260245ffd5b604051630fd02b6d60e41b8152600490fd5b60405163179ce99f60e01b8152600490fd5b604051630cbdb7b360e41b8152600490fd5b34611216575f36600319011261121657602060405160b48152f35b3461121657602080600319360112611216576001600160a01b03908161301a613b82565b165f526015815260405f2091604051809384918482549182815201915f52845f20935f905b8683831061306957859061305582870383613cb9565b611117604051928284938452830190613bae565b865482168552600196870196899650940193919091019061303f565b346112165760203660031901126112165761309e613b82565b6130a6614175565b6001600160a01b0316801561042a57600880546001600160a01b031916821790557fd24015cc99cc1700cafca3042840a1d8ac1e3964fd2e0e37ea29c654056ee3275f80a2005b34611216576020366003190112611216577fc799be5eb19a1a6d6ba7368d21e2bc367c8a335e4a07cd3d954482e6f714d3c5602060043561312c614175565b80600b55604051908152a1005b34611216575f3660031901126112165760206040516113888152f35b34611216576020806003193601126112165761316f613b82565b613177614146565b6001600160a01b039081165f8181526001845260409020601081015490929160ff91600881901c83161561109657600685015490600586015482108015906133f5575b15612f615760168601541515806133e7575b6133d55783601887015460081c166133c357600c86019160018584541601858111612f9157851694600386116133b2576001860361338c57600d88015492610ce4935b421061337a5760101c1661108457600285148061336c575b61335a576127109161324f9188601581019182541580613351575b613325575b505054613da2565b04948515610af657825f52601487528560405f20541061331357600191835f526014885260405f20613282888254613e2a565b90558460ff198254161790550191838354165f52600786524260405f20555f80808088888854165af16132b3613f42565b5015610ad25760407f4e5aa23f880bbca96aed4c566a1cbe6e67feb3c167b58c9936cee9cad10ba3dd915f8051602061597b83398151915296825191825288820152a2541691604051428152a260015f805160206159fb83398151915255005b60405163fe382aa760e01b8152600490fd5b8561333b61ffff60136133489501541683613da2565b04908160148d0155613e2a565b8155888b613247565b50801515613242565b60405163f66eb8e760e01b8152600490fd5b50600a601288015410613227565b60405163069fbbbb60e11b8152600490fd5b600286036133a357600e88015492610ce49361320f565b600f88015492610d489361320f565b60405162f485bd60e71b8152600490fd5b604051630174782360e71b8152600490fd5b60405163cc3f25f960e01b8152600490fd5b5083601887015416156131cc565b50600a86015462278d008101809111612f91574210156131ba565b34611216575f36600319011261121657602060405160058152f35b3461121657604036600319011261121657613444613b82565b61344c613b98565b9060018060a01b038091165f52601a60205260405f2091165f52602052602060405f2054604051908152f35b34611216576020366003190112611216576001600160a01b03613499613b82565b165f526001602052602060ff601060405f20015460101c166040519015158152f35b34611216576020366003190112611216576001600160a01b036134dc613b82565b165f526014602052602060405f2054604051908152f35b3461121657604036600319011261121657613529613515602435600435613e37565b604051928392604084526040840190613bae565b9060208301520390f35b34611216576020806003193601126112165761354d613b82565b613555614146565b60018060a01b0380911690815f5260018352600160405f20019281845416330361368457825f526013815260ff60405f20541615612f6157825f526012815260405f2054421061367257825f526011815260405f205415613660576135f391835f526011825260405f20945f865496556010835282868360405f205416848454165f60405180998195829463a9059cbb60e01b845260048401613df8565b03925af1938415612eee577f9796b9c1e41a3a5adfe8c1b43d4fa0fab73b8c65c99f99ead85e6405e74f284e94613643575b50541693604051908152a360015f805160206159fb83398151915255005b61365990843d8611612ec957612eba8183613cb9565b5086613625565b604051630c8d9eab60e31b8152600490fd5b604051634fbae7a360e01b8152600490fd5b60405163f53bda4160e01b8152600490fd5b34611216576020366003190112611216576001600160a01b036136b7613b82565b165f526011602052602060405f2054604051908152f35b34611216575f366003190112611216576008546040516001600160a01b039091168152602090f35b34611216575f36600319011261121657604051600280548083525f918252602080840193927f405787fa12a823e0f2b7631cc41b3ba8828b3321ca811111fa75cd3aa3bb5ace92915b82821061376a576111178561375681890382613cb9565b604051918291602083526020830190613bae565b83546001600160a01b03168652948501946001938401939091019061373f565b34611216576040366003190112611216576137a3613b82565b6137ab613b98565b9060018060a01b038091165f52600460205260405f2091165f52602052602060405f2054604051908152f35b34611216575f366003190112611216576020604051603c8152f35b34611216576020366003190112611216576001600160a01b03613813613b82565b165f52600360205260405f20600160205260ff601060405f20015460101c1680613876575b8061384b575b6020906040519015158152f35b506002600182015491015490603382029180830460331490151715612f91576064602092041061383e565b5060ff60038201541615613838565b34611216575f3660031901126112165760206040516107d08152f35b34611216576020366003190112611216576001600160a01b036138c2613b82565b165f526003602052608060405f2080549060018101549060ff6003600283015492015416916040519384526020840152604083015215156060820152f35b34611216576020366003190112611216576001600160a01b03613921613b82565b165f526016602052602060405f2054604051908152f35b3461121657604036600319011261121657613951613b82565b60243580151581036112165760018060a01b038216805f526020906001825260ff601060405f20015460101c1615613aad57805f526003825260405f209260048401335f5280845260ff60405f205416610f5d57825f526004845260405f20335f52845260405f205415613a9b5760ff600386015416613a8957335f5283528060405f20600160ff19825416179055613a5e575b15613a4957805f526004825260405f20335f5282525f805160206159db83398151915260405f2054925b6040519384523393a360026001820154910154603381029080820460331490151715612f91576064900410613a4057005b61001b9061400c565b5f805160206159db8339815191525f92613a0f565b815f526004835260405f20335f52835260405f2054613a8260018601918254613dd3565b90556139e5565b6040516368f46c4560e01b8152600490fd5b60405163d764187d60e01b8152600490fd5b604051631ac7c05160e11b8152600490fd5b34611216575f36600319011261121657602060405160078152f35b3461121657602036600319011261121657613af3613b82565b9060018060a01b03821690815f52600160205260ff601060405f20015460101c1615613b7357505f52600360205260405f2060ff600382015416613a895760026001820154910154603381029080820460331490151715612f9157606490041015613b615761001b9061400c565b6040516371d64f9360e01b8152600490fd5b631ac7c05160e11b8152600490fd5b600435906001600160a01b038216820361121657565b602435906001600160a01b038216820361121657565b9081518082526020808093019301915f5b828110613bcd575050505090565b83516001600160a01b031685529381019392810192600101613bbf565b600254811015613c025760025f5260205f2001905f90565b634e487b7160e01b5f52603260045260245ffd5b8054821015613c02575f5260205f2001905f90565b9181601f84011215611216578235916001600160401b038311611216576020838186019501011161121657565b6040919493926060820195825260208201520152565b90600182811c92168015613c9c575b6020831014613c8857565b634e487b7160e01b5f52602260045260245ffd5b91607f1691613c7d565b6001600160401b038111611de257604052565b601f909101601f19168101906001600160401b03821190821017611de257604052565b9060405191825f8254613cee81613c6e565b908184526020946001916001811690815f14613d5c5750600114613d1e575b505050613d1c92500383613cb9565b565b5f90815285812095935091905b818310613d44575050613d1c93508201015f8080613d0d565b85548884018501529485019487945091830191613d2b565b92505050613d1c94925060ff191682840152151560051b8201015f8080613d0d565b805180835260209291819084018484015e5f828201840152601f01601f1916010190565b81810292918115918404141715612f9157565b8115613dbf570490565b634e487b7160e01b5f52601260045260245ffd5b91908201809211612f9157565b90816020910312611216575180151581036112165790565b6001600160a01b039091168152602081019190915260400190565b6001600160401b038111611de25760051b60200190565b91908203918211612f9157565b916002549182841015613ee957613e4e9084613dd3565b92828411613ee0575b613e618185613e2a565b93613e84613e6e86613e13565b95613e7c6040519788613cb9565b808752613e13565b602090601f1901368783013785835b838110613ea1575050505050565b613eaa81613bea565b919054613eb78783613e2a565b908451821015613c02576001938691858060a01b039160031b1c169160051b8501015201613e93565b92508192613e57565b5060405191925090602081016001600160401b03811182821017611de2576040525f81525f3681379190565b60ff60149116019060ff8211612f9157565b6001600160401b038111611de257601f01601f191660200190565b3d15613f6c573d90613f5382613f27565b91613f616040519384613cb9565b82523d5f602084013e565b606090565b9081602091031261121657516001600160a01b03811681036112165790565b908060209392818452848401375f828201840152601f01601f1916010190565b5f198114612f915760010190565b929192613fca82613f27565b91613fd86040519384613cb9565b829481845281830111611216578281602093845f960137010152565b9061ff00825491151560081b169061ff001916179055565b60018060a01b0380911690815f526017602060018152604092835f206003835260016003865f20019160ff199282848254161790556010810161ff001981541690550190828254165f52600a8452855f209081549060ff821615614102575b505050855f52600c8352845f20805490816140bc575b505054165f52525f206140948154613fb0565b90557fae7f97db0b8177e27e4396c4575565840aa5920187184c9568c3b5d47f8eba8a5f80a2565b5f90556140cb81600d54613dd3565b600d557f06e238cf96f0c12e531d3336078c024f62deadfcf747156940fbafdeced98f348484845416928851908152a25f80614081565b60019116179055818154165f805160206159bb83398151915260608751868152600d878201526c1499599d5b99081c185cdcd959609a1b89820152a25f808061406b565b5f805160206159fb83398151915260028154146141635760029055565b604051633ee5aeb560e01b8152600490fd5b5f546001600160a01b0316330361418857565b60405163118cdaa760e01b8152336004820152602490fd5b81156142ab5781421161429957815f526009602052604093845f209360018060a01b039283811695865f5260205260ff875f205416614288579161423d6142439261424c95948951614209816141fb8b602083019586613df8565b03601f198101835282613cb9565b5190207b0ca2ba3432b932bab69029b4b3b732b21026b2b9b9b0b3b29d05199960211b5f52601c52603c5f20923691613fbe565b906142b1565b909391936142eb565b8060085416911603614277575f526009602052815f20905f526020525f20600160ff19825416179055565b82516313b3b20b60e01b8152600490fd5b86516313b3b20b60e01b8152600490fd5b60405163b67a771360e01b8152600490fd5b50505050565b81519190604183036142e1576142da9250602082015190606060408401519301515f1a9061436e565b9192909190565b50505f9160029190565b600481101561435a57806142fd575050565b600181036143175760405163f645eedf60e01b8152600490fd5b600281036143385760405163fce698f760e01b815260048101839052602490fd5b6003146143425750565b602490604051906335e2f38360e21b82526004820152fd5b634e487b7160e01b5f52602160045260245ffd5b91906fa2a8918ca85bafe22016d0b997e4df60600160ff1b0384116143db579160209360809260ff5f9560405194855216868401526040830152606082015282805260015afa15612eee575f516001600160a01b038116156143d157905f905f90565b505f906001905f90565b5050505f916003919056fe604060808152346103c5576115948038038061001a816103c9565b92833981016080828203126103c55781516001600160401b03908181116103c557826100479185016103ee565b9060209283850151908282116103c5576100629186016103ee565b8585015160609095015190926001600160a01b0392838316928390036103c55781518181116102da576003908154906001948583811c931680156103bb575b8a8410146103a7578190601f93848111610359575b508a908483116001146102f9575f926102ee575b50505f1982851b1c191690851b1782555b86519283116102da5760049687548581811c911680156102d0575b8a8210146102bd5782811161027a575b5088918411600114610218579383949184925f9561020d575b50501b925f19911b1c19161783555b80156101f757600580546001600160a01b031981168317909155865192167f8be0079c531659141344cd1fd0a4f28419497f9722a3daafe3b4186f6b6457e05f80a330156101e45750600254908382018092116101d157505f917fddf252ad1be2c89b69c2b068fc378daa952ba7f163c4a11628f55a4df523b3ef9160025530835282815284832084815401905584519384523093a35161115490816104408239f35b601190634e487b7160e01b5f525260245ffd5b5f60249263ec442f0560e01b8352820152fd5b8551631e4fbdf760e01b81525f81850152602490fd5b015193505f8061011f565b9190601f19841692885f52848a5f20945f5b8c89838310610263575050501061024a575b50505050811b01835561012e565b01519060f8845f19921b161c191690555f80808061023c565b86860151895590970196948501948893500161022a565b885f52895f208380870160051c8201928c88106102b4575b0160051c019086905b8281106102a9575050610106565b5f815501869061029b565b92508192610292565b602289634e487b7160e01b5f525260245ffd5b90607f16906100f6565b634e487b7160e01b5f52604160045260245ffd5b015190505f806100ca565b5f8681528c8120899550929190601f198516908e5b828210610342575050841161032b575b505050811b0182556100db565b01515f1983871b60f8161c191690555f808061031e565b8385015186558b979095019493840193018e61030e565b909150845f528a5f208480850160051c8201928d861061039e575b918991869594930160051c01915b8281106103905750506100b6565b5f8155859450899101610382565b92508192610374565b634e487b7160e01b5f52602260045260245ffd5b92607f16926100a1565b5f80fd5b6040519190601f01601f191682016001600160401b038111838210176102da57604052565b81601f820112156103c5578051906001600160401b0382116102da5761041d601f8301601f19166020016103c9565b92828452602083830101116103c557815f9260208093018386015e830101529056fe608060409080825260049081361015610016575f80fd5b5f3560e01c90816306fdde03146108a857508063095ea7b3146107ff5780630e48fb1c146107e15780630feafb4e146107b45780631514617e1461079657806318160ddd1461077857806323b872dd1461073c578063254800d41461071e578063274c5f52146106d2578063313ce567146106b75780633608fe0c1461056c57806340c10f19146104e757806342966c68146104ca57806344b1231f146104ae5780634c20179e146104905780636d515c9f1461047257806370a0823114610446578063710820ed14610424578063715018a6146103dc57806379cc6790146103ab5780638da5cb5b1461038357806391cca3db1461035b57806395d89b4114610258578063a9059cbb14610228578063b4a7a1871461020a578063dd62ed3e146101c15763f2fde38b14610149575f80fd5b346101bd5760203660031901126101bd576101626109aa565b9061016b6109f0565b6001600160a01b039182169283156101a7575050600580546001600160a01b031981168417909155165f805160206110bf8339815191525f80a3005b905f6024925191631e4fbdf760e01b8352820152fd5b5f80fd5b82346101bd57806003193601126101bd576020906101dd6109aa565b6101e56109c0565b9060018060a01b038091165f5260018452825f2091165f528252805f20549051908152f35b82346101bd575f3660031901126101bd57602090600d549051908152f35b82346101bd57806003193601126101bd576020906102516102476109aa565b6024359033610a1c565b5160018152f35b5090346101bd575f3660031901126101bd578051905f835460018160011c9060018316928315610351575b602093848410811461033e5783885290811561032257506001146102ea575b505050829003601f01601f19168201926001600160401b038411838510176102d757508291826102d3925282610980565b0390f35b604190634e487b7160e01b5f525260245ffd5b919250855f52825f2091835f935b83851061030e57505050508301015f80806102a2565b8054888601830152930192849082016102f8565b60ff1916878501525050151560051b84010190505f80806102a2565b602289634e487b7160e01b5f525260245ffd5b91607f1691610283565b82346101bd575f3660031901126101bd5760065490516001600160a01b039091168152602090f35b82346101bd575f3660031901126101bd5760055490516001600160a01b039091168152602090f35b82346101bd573660031901126101bd576103da6103c66109aa565b602435906103d5823383610a8e565b610b4d565b005b346101bd575f3660031901126101bd576103f46109f0565b600580546001600160a01b031981169091555f906001600160a01b03165f805160206110bf8339815191528280a3005b82346101bd575f3660031901126101bd5760209061ffff600b54169051908152f35b82346101bd5760203660031901126101bd5760209061046b6104666109aa565b6109d6565b9051908152f35b82346101bd575f3660031901126101bd57602090600c549051908152f35b82346101bd575f3660031901126101bd576020906008549051908152f35b82346101bd575f3660031901126101bd5760209061046b610ba7565b50346101bd5760203660031901126101bd576103da903533610b4d565b5090346101bd57806003193601126101bd576105016109aa565b906024359161050e6109f0565b6001600160a01b031692831561055757506020825f805160206110df8339815191529261053e5f95600254610b66565b60025585855284835280852082815401905551908152a3005b5f602492519163ec442f0560e01b8352820152fd5b50346101bd5760a03660031901126101bd576105866109aa565b60243590604435606435906084359261ffff84168094036101bd576105a96109f0565b600654906001600160a01b0390818316610674571695861561063157506001600160a01b031916851760065560088490556009819055600a829055600b805461ffff191684179055600d819055855193845260208401528285015260608201527fa081934bdd1ce0c982f003f443899b864936fcb9d9df105ca79a618fe3b03f2f90608090a2005b606490602089519162461bcd60e51b8352820152601f60248201527f49726f6e4c6f636b546f6b656e3a205a65726f206465762061646472657373006044820152fd5b885162461bcd60e51b81526020818a0152601e60248201527f49726f6e4c6f636b546f6b656e3a2044657620616c72656164792073657400006044820152606490fd5b82346101bd575f3660031901126101bd576020905160128152f35b50346101bd5760203660031901126101bd577ff8cc6c80b57c6abe70b0fdada2b8c21e6f11779d0efbf266f0b87f38c149bc509160209135906107136109f0565b8160075551908152a1005b82346101bd575f3660031901126101bd576020906009549051908152f35b82346101bd5760603660031901126101bd5760209061025161075c6109aa565b6107646109c0565b60443591610773833383610a8e565b610a1c565b82346101bd575f3660031901126101bd576020906002549051908152f35b82346101bd575f3660031901126101bd57602090600a549051908152f35b82346101bd573660031901126101bd576103da6107cf6109aa565b6107d76109f0565b6024359030610a1c565b82346101bd575f3660031901126101bd576020906007549051908152f35b5090346101bd57806003193601126101bd576108196109aa565b602435903315610892576001600160a01b031690811561087c5760209350335f5260018452825f20825f52845280835f205582519081527f8c5be1e5ebec7d5bd14f71427d1e84f3dd0314c0f7b2291e5b200ac8c7c3b925843392a35160018152f35b8251634a1406b160e11b81525f81860152602490fd5b825163e602df0560e01b81525f81860152602490fd5b905082346101bd575f3660031901126101bd575f60035460018160011c9060018316928315610976575b602093848410811461033e5783885290811561095a575060011461092157505050829003601f01601f19168201926001600160401b038411838510176102d757508291826102d3925282610980565b91925060035f52825f2091835f935b83851061094657505050508301018480806102a2565b805488860183015293019284908201610930565b60ff1916878501525050151560051b84010190508480806102a2565b91607f16916108d2565b602060409281835280519182918282860152018484015e5f828201840152601f01601f1916010190565b600435906001600160a01b03821682036101bd57565b602435906001600160a01b03821682036101bd57565b6001600160a01b03165f9081526020819052604090205490565b6005546001600160a01b03163303610a0457565b60405163118cdaa760e01b8152336004820152602490fd5b91906001600160a01b0380841615610a5857811615610a4057610a3e92610d9d565b565b60405163ec442f0560e01b81525f6004820152602490fd5b604051634b637e8f60e11b81525f6004820152602490fd5b604091949392606082019560018060a01b0316825260208201520152565b919060018060a01b0380931692835f526001602052604093845f2091831691825f52602052845f2054925f198410610ac9575b505050505050565b848410610b2b57508015610b14578115610afd575f526001602052835f20905f5260205203905f20555f8080808080610ac1565b8451634a1406b160e11b81525f6004820152602490fd5b845163e602df0560e01b81525f6004820152602490fd5b8390610b49868851938493637dc7a0d960e11b855260048501610a70565b0390fd5b906001600160a01b03821615610a5857610a3e91610c08565b91908201809211610b7357565b634e487b7160e01b5f52601160045260245ffd5b91908203918211610b7357565b81810292918115918404141715610b7357565b600954804210610c0357600a5490610bbf8282610b66565b421015610bfb57610bdd90610bd76008549142610b87565b90610b94565b8115610be7570490565b634e487b7160e01b5f52601260045260245ffd5b505060085490565b505f90565b6001600160a01b038181169081158015610d95575b610c33576006541680821480610d8a575b610c3f575b505090610a3e91610f41565b600d54620151808101809111610b7357421015610d7d575b610c68610c62610ba7565b916109d6565b80821015610d755750905b612710610c8960085461ffff600b541690610b94565b0491600c5492838082115f14610d6d57610ca291610b87565b80821015610d6657505b8411610ccd575090610cc283610a3e9493610b66565b600c5590915f610c33565b60c05f805160206110ff83398151915291856040519182525f6020830152604082015260806060820152601a608082015279115e18d959591cc819195d881d1c985b9cd9995c881b1a5b5a5d60321b60a0820152a160405162461bcd60e51b815260206004820152602960248201525f8051602061109f83398151915260448201526819995c881b1a5b5a5d60ba1b6064820152608490fd5b9050610cac565b50505f610ca2565b905090610c73565b5f600c5542600d55610c57565b506008541515610c2e565b506001610c1d565b6001600160a01b039392919084811680158015610f37575b610f2b57856006541680821480610f20575b610dd9575b5050610a3e939450610fe3565b600d54620151808101809111610b7357421015610f13575b610dfc610c62610ba7565b80821015610f0b5750955b612710610e1d60085461ffff600b541690610b94565b0496600c5497888082115f14610f0357610e3691610b87565b80821015610efc57505b8511610e61575050610e5683610a3e9596610b66565b600c5584935f610dcc565b5f805160206110ff833981519152918560c09286604051938452166020830152604082015260806060820152601a608082015279115e18d959591cc819195d881d1c985b9cd9995c881b1a5b5a5d60321b60a0820152a160405162461bcd60e51b815260206004820152602960248201525f8051602061109f83398151915260448201526819995c881b1a5b5a5d60ba1b6064820152608490fd5b9050610e40565b50505f610e36565b905095610e07565b5f600c5542600d55610df1565b506008541515610dc7565b50610a3e939450610fe3565b5085831615610db5565b9091906001600160a01b0381169081610f8957505f805160206110df833981519152602084610f745f9596600254610b66565b6002555b8060025403600255604051908152a3565b92815f525f60205260405f205493818510610fc557506020815f805160206110df833981519152925f9596858752868452036040862055610f78565b610b49859260405193849363391434e360e21b855260048501610a70565b6001600160a01b038082169290918361104757505f805160206110df8339815191529160209161101586600254610b66565b6002555b1693846110325780600254036002555b604051908152a3565b845f525f825260405f20818154019055611029565b835f525f60205260405f205490858210611081575091602091855f805160206110df83398151915294865f525f85520360405f2055611019565b610b498660405193849363391434e360e21b855260048501610a7056fe49726f6e4c6f636b546f6b656e3a204578636565647320646576207472616e738be0079c531659141344cd1fd0a4f28419497f9722a3daafe3b4186f6b6457e0ddf252ad1be2c89b69c2b068fc378daa952ba7f163c4a11628f55a4df523b3ef2b08c6f86b1a55f24e77e45bc6c9c3d6aac5d17fc6e7fb5a954bc01345d0b1dea2646970667358221220d2749a0f8ded50f90c25917f4d2ac978f475054797fb7f72cf5c7eebba1d07d164736f6c634300081900332af048e62453efffc10fab1340dab57fa5c7c2e72dc30df457608651277d1ea58be0079c531659141344cd1fd0a4f28419497f9722a3daafe3b4186f6b6457e0c9f6d06bcae55cf8956320be2ef6f7d1c0191f96fd8f1220dace4ead8c51c60566d6ef777e81da2dc556ec0f46d73ab675e34930a794564f805e09ce6065e1889b779b17422d0df92223018b32b4d1fa46e071723d6817e2486d003becc55f00a2646970667358221220f648454bd7061b3f7c374f9d32f04379eb0bd8c49cf7629e01fe33edd6b706d664736f6c63430008190033",
  "linkReferences": {},
  "deployedLinkReferences": {}
}