{
  "_format": "hh-sol-artifact-1",
  "contractName": "IronLockToken",
  "sourceName": "contracts/IronLockToken.sol",
  "abi": [
    {
      "inputs": [
        {
          "internalType": "string",
          "name": "name_",
          "type": "string"
        },
        {
          "internalType": "string",
          "name": "symbol_",
          "type": "string"
        },
        {
          "internalType": "uint256",
          "name": "totalSupply_",
          "type": "uint256"
        },
        {
          "internalType": "address",
          "name": "factory_",
          "type": "address"
        }
      ],
      "stateMutability": "nonpayable",
      "type": "constructor"
    },
    {
      "inputs": [
        {
          "internalType": "address",
          "name": "spender",
          "type": "address"
        },
        {
          "internalType": "uint256",
          "name": "allowance",
          "type": "uint256"
        },
        {
          "internalType": "uint256",
          "name": "needed",
          "type": "uint256"
        }
      ],
      "name": "ERC20InsufficientAllowance",
      "type": "error"
    },
    {
      "inputs": [
        {
          "internalType": "address",
          "name": "sender",
          "type": "address"
        },
        {
          "internalType": "uint256",
          "name": "balance",
          "type": "uint256"
        },
        {
          "internalType": "uint256",
          "name": "needed",
          "type": "uint256"
        }
      ],
      "name": "ERC20InsufficientBalance",
      "type": "error"
    },
    {
      "inputs": [
        {
          "internalType": "address",
          "name": "approver",
          "type": "address"
        }
      ],
      "name": "ERC20InvalidApprover",
      "type": "error"
    },
    {
      "inputs": [
        {
          "internalType": "address",
          "name": "receiver",
          "type": "address"
        }
      ],
      "name": "ERC20InvalidReceiver",
      "type": "error"
    },
    {
      "inputs": [
        {
          "internalType": "address",
          "name": "sender",
          "type": "address"
        }
      ],
      "name": "ERC20InvalidSender",
      "type": "error"
    },
    {
      "inputs": [
        {
          "internalType": "address",
          "name": "spender",
          "type": "address"
        }
      ],
      "name": "ERC20InvalidSpender",
      "type": "error"
    },
    {
      "inputs": [
        {
          "internalType": "address",
          "name": "owner",
          "type": "address"
        }
      ],
      "name": "OwnableInvalidOwner",
      "type": "error"
    },
    {
      "inputs": [
        {
          "internalType": "address",
          "name": "account",
          "type": "address"
        }
      ],
      "name": "OwnableUnauthorizedAccount",
      "type": "error"
    },
    {
      "anonymous": false,
      "inputs": [
        {
          "indexed": false,
          "internalType": "uint256",
          "name": "endTime",
          "type": "uint256"
        }
      ],
      "name": "AntiSnipeUpdated",
      "type": "event"
    },
    {
      "anonymous": false,
      "inputs": [
        {
          "indexed": true,
          "internalType": "address",
          "name": "owner",
          "type": "address"
        },
        {
          "indexed": true,
          "internalType": "address",
          "name": "spender",
          "type": "address"
        },
        {
          "indexed": false,
          "internalType": "uint256",
          "name": "value",
          "type": "uint256"
        }
      ],
      "name": "Approval",
      "type": "event"
    },
    {
      "anonymous": false,
      "inputs": [
        {
          "indexed": true,
          "internalType": "address",
          "name": "dev_",
          "type": "address"
        },
        {
          "indexed": false,
          "internalType": "uint256",
          "name": "amount",
          "type": "uint256"
        },
        {
          "indexed": false,
          "internalType": "uint256",
          "name": "vestingStart_",
          "type": "uint256"
        },
        {
          "indexed": false,
          "internalType": "uint256",
          "name": "vestingDuration_",
          "type": "uint256"
        },
        {
          "indexed": false,
          "internalType": "uint16",
          "name": "dailySellCapBps_",
          "type": "uint16"
        }
      ],
      "name": "DevAllocationSet",
      "type": "event"
    },
    {
      "anonymous": false,
      "inputs": [
        {
          "indexed": false,
          "internalType": "address",
          "name": "from",
          "type": "address"
        },
        {
          "indexed": false,
          "internalType": "address",
          "name": "to",
          "type": "address"
        },
        {
          "indexed": false,
          "internalType": "uint256",
          "name": "amount",
          "type": "uint256"
        },
        {
          "indexed": false,
          "internalType": "string",
          "name": "reason",
          "type": "string"
        }
      ],
      "name": "DevTransferBlocked",
      "type": "event"
    },
    {
      "anonymous": false,
      "inputs": [
        {
          "indexed": true,
          "internalType": "address",
          "name": "previousOwner",
          "type": "address"
        },
        {
          "indexed": true,
          "internalType": "address",
          "name": "newOwner",
          "type": "address"
        }
      ],
      "name": "OwnershipTransferred",
      "type": "event"
    },
    {
      "anonymous": false,
      "inputs": [
        {
          "indexed": true,
          "internalType": "address",
          "name": "from",
          "type": "address"
        },
        {
          "indexed": true,
          "internalType": "address",
          "name": "to",
          "type": "address"
        },
        {
          "indexed": false,
          "internalType": "uint256",
          "name": "value",
          "type": "uint256"
        }
      ],
      "name": "Transfer",
      "type": "event"
    },
    {
      "inputs": [
        {
          "internalType": "address",
          "name": "owner",
          "type": "address"
        },
        {
          "internalType": "address",
          "name": "spender",
          "type": "address"
        }
      ],
      "name": "allowance",
      "outputs": [
        {
          "internalType": "uint256",
          "name": "",
          "type": "uint256"
        }
      ],
      "stateMutability": "view",
      "type": "function"
    },
    {
      "inputs": [],
      "name": "antiSnipeEnd",
      "outputs": [
        {
          "internalType": "uint256",
          "name": "",
          "type": "uint256"
        }
      ],
      "stateMutability": "view",
      "type": "function"
    },
    {
      "inputs": [
        {
          "internalType": "address",
          "name": "spender",
          "type": "address"
        },
        {
          "internalType": "uint256",
          "name": "value",
          "type": "uint256"
        }
      ],
      "name": "approve",
      "outputs": [
        {
          "internalType": "bool",
          "name": "",
          "type": "bool"
        }
      ],
      "stateMutability": "nonpayable",
      "type": "function"
    },
    {
      "inputs": [
        {
          "internalType": "address",
          "name": "account",
          "type": "address"
        }
      ],
      "name": "balanceOf",
      "outputs": [
        {
          "internalType": "uint256",
          "name": "",
          "type": "uint256"
        }
      ],
      "stateMutability": "view",
      "type": "function"
    },
    {
      "inputs": [
        {
          "internalType": "uint256",
          "name": "value",
          "type": "uint256"
        }
      ],
      "name": "burn",
      "outputs": [],
      "stateMutability": "nonpayable",
      "type": "function"
    },
    {
      "inputs": [
        {
          "internalType": "address",
          "name": "account",
          "type": "address"
        },
        {
          "internalType": "uint256",
          "name": "value",
          "type": "uint256"
        }
      ],
      "name": "burnFrom",
      "outputs": [],
      "stateMutability": "nonpayable",
      "type": "function"
    },
    {
      "inputs": [],
      "name": "dailySellCapBps",
      "outputs": [
        {
          "internalType": "uint16",
          "name": "",
          "type": "uint16"
        }
      ],
      "stateMutability": "view",
      "type": "function"
    },
    {
      "inputs": [],
      "name": "decimals",
      "outputs": [
        {
          "internalType": "uint8",
          "name": "",
          "type": "uint8"
        }
      ],
      "stateMutability": "view",
      "type": "function"
    },
    {
      "inputs": [],
      "name": "dev",
      "outputs": [
        {
          "internalType": "address",
          "name": "",
          "type": "address"
        }
      ],
      "stateMutability": "view",
      "type": "function"
    },
    {
      "inputs": [],
      "name": "devAllocation",
      "outputs": [
        {
          "internalType": "uint256",
          "name": "",
          "type": "uint256"
        }
      ],
      "stateMutability": "view",
      "type": "function"
    },
    {
      "inputs": [],
      "name": "devSoldToday",
      "outputs": [
        {
          "internalType": "uint256",
          "name": "",
          "type": "uint256"
        }
      ],
      "stateMutability": "view",
      "type": "function"
    },
    {
      "inputs": [
        {
          "internalType": "address",
          "name": "to",
          "type": "address"
        },
        {
          "internalType": "uint256",
          "name": "amount",
          "type": "uint256"
        }
      ],
      "name": "factoryTransfer",
      "outputs": [],
      "stateMutability": "nonpayable",
      "type": "function"
    },
    {
      "inputs": [],
      "name": "lastDailyReset",
      "outputs": [
        {
          "internalType": "uint256",
          "name": "",
          "type": "uint256"
        }
      ],
      "stateMutability": "view",
      "type": "function"
    },
    {
      "inputs": [
        {
          "internalType": "address",
          "name": "to",
          "type": "address"
        },
        {
          "internalType": "uint256",
          "name": "amount",
          "type": "uint256"
        }
      ],
      "name": "mint",
      "outputs": [],
      "stateMutability": "nonpayable",
      "type": "function"
    },
    {
      "inputs": [],
      "name": "name",
      "outputs": [
        {
          "internalType": "string",
          "name": "",
          "type": "string"
        }
      ],
      "stateMutability": "view",
      "type": "function"
    },
    {
      "inputs": [],
      "name": "owner",
      "outputs": [
        {
          "internalType": "address",
          "name": "",
          "type": "address"
        }
      ],
      "stateMutability": "view",
      "type": "function"
    },
    {
      "inputs": [],
      "name": "renounceOwnership",
      "outputs": [],
      "stateMutability": "nonpayable",
      "type": "function"
    },
    {
      "inputs": [
        {
          "internalType": "uint256",
          "name": "endTime",
          "type": "uint256"
        }
      ],
      "name": "setAntiSnipe",
      "outputs": [],
      "stateMutability": "nonpayable",
      "type": "function"
    },
    {
      "inputs": [
        {
          "internalType": "address",
          "name": "dev_",
          "type": "address"
        },
        {
          "internalType": "uint256",
          "name": "amount",
          "type": "uint256"
        },
        {
          "internalType": "uint256",
          "name": "vestingStart_",
          "type": "uint256"
        },
        {
          "internalType": "uint256",
          "name": "vestingDuration_",
          "type": "uint256"
        },
        {
          "internalType": "uint16",
          "name": "dailySellCapBps_",
          "type": "uint16"
        }
      ],
      "name": "setDevAllocation",
      "outputs": [],
      "stateMutability": "nonpayable",
      "type": "function"
    },
    {
      "inputs": [],
      "name": "symbol",
      "outputs": [
        {
          "internalType": "string",
          "name": "",
          "type": "string"
        }
      ],
      "stateMutability": "view",
      "type": "function"
    },
    {
      "inputs": [],
      "name": "totalSupply",
      "outputs": [
        {
          "internalType": "uint256",
          "name": "",
          "type": "uint256"
        }
      ],
      "stateMutability": "view",
      "type": "function"
    },
    {
      "inputs": [
        {
          "internalType": "address",
          "name": "to",
          "type": "address"
        },
        {
          "internalType": "uint256",
          "name": "value",
          "type": "uint256"
        }
      ],
      "name": "transfer",
      "outputs": [
        {
          "internalType": "bool",
          "name": "",
          "type": "bool"
        }
      ],
      "stateMutability": "nonpayable",
      "type": "function"
    },
    {
      "inputs": [
        {
          "internalType": "address",
          "name": "from",
          "type": "address"
        },
        {
          "internalType": "address",
          "name": "to",
          "type": "address"
        },
        {
          "internalType": "uint256",
          "name": "value",
          "type": "uint256"
        }
      ],
      "name": "transferFrom",
      "outputs": [
        {
          "internalType": "bool",
          "name": "",
          "type": "bool"
        }
      ],
      "stateMutability": "nonpayable",
      "type": "function"
    },
    {
      "inputs": [
        {
          "internalType": "address",
          "name": "newOwner",
          "type": "address"
        }
      ],
      "name": "transferOwnership",
      "outputs": [],
      "stateMutability": "nonpayable",
      "type": "function"
    },
    {
      "inputs": [],
      "name": "vestedAmount",
      "outputs": [
        {
          "internalType": "uint256",
          "name": "",
          "type": "uint256"
        }
      ],
      "stateMutability": "view",
      "type": "function"
    },
    {
      "inputs": [],
      "name": "vestingDuration",
      "outputs": [
        {
          "internalType": "uint256",
          "name": "",
          "type": "uint256"
        }
      ],
      "stateMutability": "view",
      "type": "function"
    },
    {
      "inputs": [],
      "name": "vestingStart",
      "outputs": [
        {
          "internalType": "uint256",
          "name": "",
          "type": "uint256"
        }
      ],
      "stateMutability": "view",
      "type": "function"
    }
  ],
  "bytecode": "0x604060808152346103c5576115948038038061001a816103c9565b92833981016080828203126103c55781516001600160401b03908181116103c557826100479185016103ee565b9060209283850151908282116103c5576100629186016103ee565b8585015160609095015190926001600160a01b0392838316928390036103c55781518181116102da576003908154906001948583811c931680156103bb575b8a8410146103a7578190601f93848111610359575b508a908483116001146102f9575f926102ee575b50505f1982851b1c191690851b1782555b86519283116102da5760049687548581811c911680156102d0575b8a8210146102bd5782811161027a575b5088918411600114610218579383949184925f9561020d575b50501b925f19911b1c19161783555b80156101f757600580546001600160a01b031981168317909155865192167f8be0079c531659141344cd1fd0a4f28419497f9722a3daafe3b4186f6b6457e05f80a330156101e45750600254908382018092116101d157505f917fddf252ad1be2c89b69c2b068fc378daa952ba7f163c4a11628f55a4df523b3ef9160025530835282815284832084815401905584519384523093a35161115490816104408239f35b601190634e487b7160e01b5f525260245ffd5b5f60249263ec442f0560e01b8352820152fd5b8551631e4fbdf760e01b81525f81850152602490fd5b015193505f8061011f565b9190601f19841692885f52848a5f20945f5b8c89838310610263575050501061024a575b50505050811b01835561012e565b01519060f8845f19921b161c191690555f80808061023c565b86860151895590970196948501948893500161022a565b885f52895f208380870160051c8201928c88106102b4575b0160051c019086905b8281106102a9575050610106565b5f815501869061029b565b92508192610292565b602289634e487b7160e01b5f525260245ffd5b90607f16906100f6565b634e487b7160e01b5f52604160045260245ffd5b015190505f806100ca565b5f8681528c8120899550929190601f198516908e5b828210610342575050841161032b575b505050811b0182556100db565b01515f1983871b60f8161c191690555f808061031e565b8385015186558b979095019493840193018e61030e565b909150845f528a5f208480850160051c8201928d861061039e575b918991869594930160051c01915b8281106103905750506100b6565b5f8155859450899101610382565b92508192610374565b634e487b7160e01b5f52602260045260245ffd5b92607f16926100a1565b5f80fd5b6040519190601f01601f191682016001600160401b038111838210176102da57604052565b81601f820112156103c5578051906001600160401b0382116102da5761041d601f8301601f19166020016103c9565b92828452602083830101116103c557815f9260208093018386015e830101529056fe608060409080825260049081361015610016575f80fd5b5f3560e01c90816306fdde03146108a857508063095ea7b3146107ff5780630e48fb1c146107e15780630feafb4e146107b45780631514617e1461079657806318160ddd1461077857806323b872dd1461073c578063254800d41461071e578063274c5f52146106d2578063313ce567146106b75780633608fe0c1461056c57806340c10f19146104e757806342966c68146104ca57806344b1231f146104ae5780634c20179e146104905780636d515c9f1461047257806370a0823114610446578063710820ed14610424578063715018a6146103dc57806379cc6790146103ab5780638da5cb5b1461038357806391cca3db1461035b57806395d89b4114610258578063a9059cbb14610228578063b4a7a1871461020a578063dd62ed3e146101c15763f2fde38b14610149575f80fd5b346101bd5760203660031901126101bd576101626109aa565b9061016b6109f0565b6001600160a01b039182169283156101a7575050600580546001600160a01b031981168417909155165f805160206110bf8339815191525f80a3005b905f6024925191631e4fbdf760e01b8352820152fd5b5f80fd5b82346101bd57806003193601126101bd576020906101dd6109aa565b6101e56109c0565b9060018060a01b038091165f5260018452825f2091165f528252805f20549051908152f35b82346101bd575f3660031901126101bd57602090600d549051908152f35b82346101bd57806003193601126101bd576020906102516102476109aa565b6024359033610a1c565b5160018152f35b5090346101bd575f3660031901126101bd578051905f835460018160011c9060018316928315610351575b602093848410811461033e5783885290811561032257506001146102ea575b505050829003601f01601f19168201926001600160401b038411838510176102d757508291826102d3925282610980565b0390f35b604190634e487b7160e01b5f525260245ffd5b919250855f52825f2091835f935b83851061030e57505050508301015f80806102a2565b8054888601830152930192849082016102f8565b60ff1916878501525050151560051b84010190505f80806102a2565b602289634e487b7160e01b5f525260245ffd5b91607f1691610283565b82346101bd575f3660031901126101bd5760065490516001600160a01b039091168152602090f35b82346101bd575f3660031901126101bd5760055490516001600160a01b039091168152602090f35b82346101bd573660031901126101bd576103da6103c66109aa565b602435906103d5823383610a8e565b610b4d565b005b346101bd575f3660031901126101bd576103f46109f0565b600580546001600160a01b031981169091555f906001600160a01b03165f805160206110bf8339815191528280a3005b82346101bd575f3660031901126101bd5760209061ffff600b54169051908152f35b82346101bd5760203660031901126101bd5760209061046b6104666109aa565b6109d6565b9051908152f35b82346101bd575f3660031901126101bd57602090600c549051908152f35b82346101bd575f3660031901126101bd576020906008549051908152f35b82346101bd575f3660031901126101bd5760209061046b610ba7565b50346101bd5760203660031901126101bd576103da903533610b4d565b5090346101bd57806003193601126101bd576105016109aa565b906024359161050e6109f0565b6001600160a01b031692831561055757506020825f805160206110df8339815191529261053e5f95600254610b66565b60025585855284835280852082815401905551908152a3005b5f602492519163ec442f0560e01b8352820152fd5b50346101bd5760a03660031901126101bd576105866109aa565b60243590604435606435906084359261ffff84168094036101bd576105a96109f0565b600654906001600160a01b0390818316610674571695861561063157506001600160a01b031916851760065560088490556009819055600a829055600b805461ffff191684179055600d819055855193845260208401528285015260608201527fa081934bdd1ce0c982f003f443899b864936fcb9d9df105ca79a618fe3b03f2f90608090a2005b606490602089519162461bcd60e51b8352820152601f60248201527f49726f6e4c6f636b546f6b656e3a205a65726f206465762061646472657373006044820152fd5b885162461bcd60e51b81526020818a0152601e60248201527f49726f6e4c6f636b546f6b656e3a2044657620616c72656164792073657400006044820152606490fd5b82346101bd575f3660031901126101bd576020905160128152f35b50346101bd5760203660031901126101bd577ff8cc6c80b57c6abe70b0fdada2b8c21e6f11779d0efbf266f0b87f38c149bc509160209135906107136109f0565b8160075551908152a1005b82346101bd575f3660031901126101bd576020906009549051908152f35b82346101bd5760603660031901126101bd5760209061025161075c6109aa565b6107646109c0565b60443591610773833383610a8e565b610a1c565b82346101bd575f3660031901126101bd576020906002549051908152f35b82346101bd575f3660031901126101bd57602090600a549051908152f35b82346101bd573660031901126101bd576103da6107cf6109aa565b6107d76109f0565b6024359030610a1c565b82346101bd575f3660031901126101bd576020906007549051908152f35b5090346101bd57806003193601126101bd576108196109aa565b602435903315610892576001600160a01b031690811561087c5760209350335f5260018452825f20825f52845280835f205582519081527f8c5be1e5ebec7d5bd14f71427d1e84f3dd0314c0f7b2291e5b200ac8c7c3b925843392a35160018152f35b8251634a1406b160e11b81525f81860152602490fd5b825163e602df0560e01b81525f81860152602490fd5b905082346101bd575f3660031901126101bd575f60035460018160011c9060018316928315610976575b602093848410811461033e5783885290811561095a575060011461092157505050829003601f01601f19168201926001600160401b038411838510176102d757508291826102d3925282610980565b91925060035f52825f2091835f935b83851061094657505050508301018480806102a2565b805488860183015293019284908201610930565b60ff1916878501525050151560051b84010190508480806102a2565b91607f16916108d2565b602060409281835280519182918282860152018484015e5f828201840152601f01601f1916010190565b600435906001600160a01b03821682036101bd57565b602435906001600160a01b03821682036101bd57565b6001600160a01b03165f9081526020819052604090205490565b6005546001600160a01b03163303610a0457565b60405163118cdaa760e01b8152336004820152602490fd5b91906001600160a01b0380841615610a5857811615610a4057610a3e92610d9d565b565b60405163ec442f0560e01b81525f6004820152602490fd5b604051634b637e8f60e11b81525f6004820152602490fd5b604091949392606082019560018060a01b0316825260208201520152565b919060018060a01b0380931692835f526001602052604093845f2091831691825f52602052845f2054925f198410610ac9575b505050505050565b848410610b2b57508015610b14578115610afd575f526001602052835f20905f5260205203905f20555f8080808080610ac1565b8451634a1406b160e11b81525f6004820152602490fd5b845163e602df0560e01b81525f6004820152602490fd5b8390610b49868851938493637dc7a0d960e11b855260048501610a70565b0390fd5b906001600160a01b03821615610a5857610a3e91610c08565b91908201809211610b7357565b634e487b7160e01b5f52601160045260245ffd5b91908203918211610b7357565b81810292918115918404141715610b7357565b600954804210610c0357600a5490610bbf8282610b66565b421015610bfb57610bdd90610bd76008549142610b87565b90610b94565b8115610be7570490565b634e487b7160e01b5f52601260045260245ffd5b505060085490565b505f90565b6001600160a01b038181169081158015610d95575b610c33576006541680821480610d8a575b610c3f575b505090610a3e91610f41565b600d54620151808101809111610b7357421015610d7d575b610c68610c62610ba7565b916109d6565b80821015610d755750905b612710610c8960085461ffff600b541690610b94565b0491600c5492838082115f14610d6d57610ca291610b87565b80821015610d6657505b8411610ccd575090610cc283610a3e9493610b66565b600c5590915f610c33565b60c05f805160206110ff83398151915291856040519182525f6020830152604082015260806060820152601a608082015279115e18d959591cc819195d881d1c985b9cd9995c881b1a5b5a5d60321b60a0820152a160405162461bcd60e51b815260206004820152602960248201525f8051602061109f83398151915260448201526819995c881b1a5b5a5d60ba1b6064820152608490fd5b9050610cac565b50505f610ca2565b905090610c73565b5f600c5542600d55610c57565b506008541515610c2e565b506001610c1d565b6001600160a01b039392919084811680158015610f37575b610f2b57856006541680821480610f20575b610dd9575b5050610a3e939450610fe3565b600d54620151808101809111610b7357421015610f13575b610dfc610c62610ba7565b80821015610f0b5750955b612710610e1d60085461ffff600b541690610b94565b0496600c5497888082115f14610f0357610e3691610b87565b80821015610efc57505b8511610e61575050610e5683610a3e9596610b66565b600c5584935f610dcc565b5f805160206110ff833981519152918560c09286604051938452166020830152604082015260806060820152601a608082015279115e18d959591cc819195d881d1c985b9cd9995c881b1a5b5a5d60321b60a0820152a160405162461bcd60e51b815260206004820152602960248201525f8051602061109f83398151915260448201526819995c881b1a5b5a5d60ba1b6064820152608490fd5b9050610e40565b50505f610e36565b905095610e07565b5f600c5542600d55610df1565b506008541515610dc7565b50610a3e939450610fe3565b5085831615610db5565b9091906001600160a01b0381169081610f8957505f805160206110df833981519152602084610f745f9596600254610b66565b6002555b8060025403600255604051908152a3565b92815f525f60205260405f205493818510610fc557506020815f805160206110df833981519152925f9596858752868452036040862055610f78565b610b49859260405193849363391434e360e21b855260048501610a70565b6001600160a01b038082169290918361104757505f805160206110df8339815191529160209161101586600254610b66565b6002555b1693846110325780600254036002555b604051908152a3565b845f525f825260405f20818154019055611029565b835f525f60205260405f205490858210611081575091602091855f805160206110df83398151915294865f525f85520360405f2055611019565b610b498660405193849363391434e360e21b855260048501610a7056fe49726f6e4c6f636b546f6b656e3a204578636565647320646576207472616e738be0079c531659141344cd1fd0a4f28419497f9722a3daafe3b4186f6b6457e0ddf252ad1be2c89b69c2b068fc378daa952ba7f163c4a11628f55a4df523b3ef2b08c6f86b1a55f24e77e45bc6c9c3d6aac5d17fc6e7fb5a954bc01345d0b1dea2646970667358221220164985aa5f9af694d12b1ec0c3f2386dc14ea6f5c6f64ab50383bf53163829e364736f6c63430008190033",
  "linkReferences": {},
  "deployedLinkReferences": {}
}